{
	"contracts/Helpers.sol": {
		"Helpers": {
			"abi": [
				{
					"inputs": [
						{
							"internalType": "string",
							"name": "_str",
							"type": "string"
						}
					],
					"name": "stringToInt8",
					"outputs": [
						{
							"internalType": "int8",
							"name": "",
							"type": "int8"
						}
					],
					"stateMutability": "pure",
					"type": "function"
				}
			],
			"devdoc": {
				"kind": "dev",
				"methods": {},
				"version": 1
			},
			"evm": {
				"assembly": "    /* \"contracts/Helpers.sol\":59:1145  library Helpers {... */\n  dataSize(sub_0)\n  dataOffset(sub_0)\n  0x0b\n  dup3\n  dup3\n  dup3\n  codecopy\n  dup1\n  mload\n  0x00\n  byte\n  0x73\n  eq\n  tag_1\n  jumpi\n  mstore(0x00, 0x4e487b7100000000000000000000000000000000000000000000000000000000)\n  mstore(0x04, 0x00)\n  revert(0x00, 0x24)\ntag_1:\n  mstore(0x00, address)\n  0x73\n  dup2\n  mstore8\n  dup3\n  dup2\n  return\nstop\n\nsub_0: assembly {\n        /* \"contracts/Helpers.sol\":59:1145  library Helpers {... */\n      eq(address, deployTimeAddress())\n      mstore(0x40, 0x80)\n      jumpi(tag_1, lt(calldatasize, 0x04))\n      shr(0xe0, calldataload(0x00))\n      dup1\n      0x53d619c2\n      eq\n      tag_2\n      jumpi\n    tag_1:\n      0x00\n      dup1\n      revert\n        /* \"contracts/Helpers.sol\":81:512  function stringToInt8(string memory _str) public pure returns (int8) {... */\n    tag_2:\n      tag_3\n      0x04\n      dup1\n      calldatasize\n      sub\n      dup2\n      add\n      swap1\n      tag_4\n      swap2\n      swap1\n      tag_5\n      jump\t// in\n    tag_4:\n      tag_6\n      jump\t// in\n    tag_3:\n      mload(0x40)\n      tag_7\n      swap2\n      swap1\n      tag_8\n      jump\t// in\n    tag_7:\n      mload(0x40)\n      dup1\n      swap2\n      sub\n      swap1\n      return\n    tag_6:\n        /* \"contracts/Helpers.sol\":144:148  int8 */\n      0x00\n        /* \"contracts/Helpers.sol\":197:212  int256 intValue */\n      dup1\n        /* \"contracts/Helpers.sol\":215:229  parseInt(_str) */\n      tag_10\n        /* \"contracts/Helpers.sol\":224:228  _str */\n      dup4\n        /* \"contracts/Helpers.sol\":215:223  parseInt */\n      tag_11\n        /* \"contracts/Helpers.sol\":215:229  parseInt(_str) */\n      jump\t// in\n    tag_10:\n        /* \"contracts/Helpers.sol\":197:229  int256 intValue = parseInt(_str) */\n      swap1\n      pop\n        /* \"contracts/Helpers.sol\":319:323  -128 */\n      0xffffffffffffffffffffffffffffffffffffffffffffffffffffffffffffff80\n        /* \"contracts/Helpers.sol\":307:315  intValue */\n      dup2\n        /* \"contracts/Helpers.sol\":307:323  intValue >= -128 */\n      slt\n      iszero\n        /* \"contracts/Helpers.sol\":307:342  intValue >= -128 && intValue <= 127 */\n      dup1\n      iszero\n      tag_12\n      jumpi\n      pop\n        /* \"contracts/Helpers.sol\":339:342  127 */\n      0x7f\n        /* \"contracts/Helpers.sol\":327:335  intValue */\n      dup2\n        /* \"contracts/Helpers.sol\":327:342  intValue <= 127 */\n      sgt\n      iszero\n        /* \"contracts/Helpers.sol\":307:342  intValue >= -128 && intValue <= 127 */\n    tag_12:\n        /* \"contracts/Helpers.sol\":299:374  require(intValue >= -128 && intValue <= 127, \"Value out of range for int8\") */\n      tag_13\n      jumpi\n      mload(0x40)\n      0x08c379a000000000000000000000000000000000000000000000000000000000\n      dup2\n      mstore\n      0x04\n      add\n      tag_14\n      swap1\n      tag_15\n      jump\t// in\n    tag_14:\n      mload(0x40)\n      dup1\n      swap2\n      sub\n      swap1\n      revert\n    tag_13:\n        /* \"contracts/Helpers.sol\":439:453  int8 intValue8 */\n      0x00\n        /* \"contracts/Helpers.sol\":461:469  intValue */\n      dup2\n        /* \"contracts/Helpers.sol\":439:470  int8 intValue8 = int8(intValue) */\n      swap1\n      pop\n        /* \"contracts/Helpers.sol\":496:505  intValue8 */\n      dup1\n        /* \"contracts/Helpers.sol\":489:505  return intValue8 */\n      swap3\n      pop\n      pop\n      pop\n        /* \"contracts/Helpers.sol\":81:512  function stringToInt8(string memory _str) public pure returns (int8) {... */\n      swap2\n      swap1\n      pop\n      jump\t// out\n        /* \"contracts/Helpers.sol\":568:1143  function parseInt(string memory _str) internal pure returns (int256) {... */\n    tag_11:\n        /* \"contracts/Helpers.sol\":629:635  int256 */\n      0x00\n        /* \"contracts/Helpers.sol\":647:661  bytes memory b */\n      dup1\n        /* \"contracts/Helpers.sol\":670:674  _str */\n      dup3\n        /* \"contracts/Helpers.sol\":647:675  bytes memory b = bytes(_str) */\n      swap1\n      pop\n        /* \"contracts/Helpers.sol\":685:699  uint256 result */\n      0x00\n        /* \"contracts/Helpers.sol\":713:728  bool isNegative */\n      dup1\n        /* \"contracts/Helpers.sol\":751:760  uint256 i */\n      0x00\n        /* \"contracts/Helpers.sol\":746:1013  for (uint256 i = 0; i < b.length; i++) {... */\n    tag_17:\n        /* \"contracts/Helpers.sol\":770:771  b */\n      dup4\n        /* \"contracts/Helpers.sol\":770:778  b.length */\n      mload\n        /* \"contracts/Helpers.sol\":766:767  i */\n      dup2\n        /* \"contracts/Helpers.sol\":766:778  i < b.length */\n      lt\n        /* \"contracts/Helpers.sol\":746:1013  for (uint256 i = 0; i < b.length; i++) {... */\n      iszero\n      tag_18\n      jumpi\n        /* \"contracts/Helpers.sol\":808:809  0 */\n      0x00\n        /* \"contracts/Helpers.sol\":803:804  i */\n      dup2\n        /* \"contracts/Helpers.sol\":803:809  i == 0 */\n      eq\n        /* \"contracts/Helpers.sol\":803:832  i == 0 && b[i] == bytes1(\"-\") */\n      dup1\n      iszero\n      tag_20\n      jumpi\n      pop\n        /* \"contracts/Helpers.sol\":821:832  bytes1(\"-\") */\n      0x2d00000000000000000000000000000000000000000000000000000000000000\n        /* \"contracts/Helpers.sol\":813:832  b[i] == bytes1(\"-\") */\n      not(0xffffffffffffffffffffffffffffffffffffffffffffffffffffffffffffff)\n      and\n        /* \"contracts/Helpers.sol\":813:814  b */\n      dup5\n        /* \"contracts/Helpers.sol\":815:816  i */\n      dup3\n        /* \"contracts/Helpers.sol\":813:817  b[i] */\n      dup2\n      mload\n      dup2\n      lt\n      tag_21\n      jumpi\n      tag_22\n      tag_23\n      jump\t// in\n    tag_22:\n    tag_21:\n      0x20\n      add\n      add\n      mload\n      0xf8\n      shr\n      0xf8\n      shl\n        /* \"contracts/Helpers.sol\":813:832  b[i] == bytes1(\"-\") */\n      not(0xffffffffffffffffffffffffffffffffffffffffffffffffffffffffffffff)\n      and\n      eq\n        /* \"contracts/Helpers.sol\":803:832  i == 0 && b[i] == bytes1(\"-\") */\n    tag_20:\n        /* \"contracts/Helpers.sol\":799:1003  if (i == 0 && b[i] == bytes1(\"-\")) {... */\n      iszero\n      tag_24\n      jumpi\n        /* \"contracts/Helpers.sol\":865:869  true */\n      0x01\n        /* \"contracts/Helpers.sol\":852:869  isNegative = true */\n      swap2\n      pop\n        /* \"contracts/Helpers.sol\":799:1003  if (i == 0 && b[i] == bytes1(\"-\")) {... */\n      jump(tag_25)\n    tag_24:\n        /* \"contracts/Helpers.sol\":954:956  48 */\n      0x30\n        /* \"contracts/Helpers.sol\":945:946  b */\n      dup5\n        /* \"contracts/Helpers.sol\":947:948  i */\n      dup3\n        /* \"contracts/Helpers.sol\":945:949  b[i] */\n      dup2\n      mload\n      dup2\n      lt\n      tag_26\n      jumpi\n      tag_27\n      tag_23\n      jump\t// in\n    tag_27:\n    tag_26:\n      0x20\n      add\n      add\n      mload\n      0xf8\n      shr\n      0xf8\n      shl\n        /* \"contracts/Helpers.sol\":939:950  uint8(b[i]) */\n      0xf8\n      shr\n        /* \"contracts/Helpers.sol\":931:951  uint256(uint8(b[i])) */\n      0xff\n      and\n        /* \"contracts/Helpers.sol\":926:928  10 */\n      0x0a\n        /* \"contracts/Helpers.sol\":917:923  result */\n      dup6\n        /* \"contracts/Helpers.sol\":917:928  result * 10 */\n      tag_28\n      swap2\n      swap1\n      tag_29\n      jump\t// in\n    tag_28:\n        /* \"contracts/Helpers.sol\":917:951  result * 10 + uint256(uint8(b[i])) */\n      tag_30\n      swap2\n      swap1\n      tag_31\n      jump\t// in\n    tag_30:\n        /* \"contracts/Helpers.sol\":917:956  result * 10 + uint256(uint8(b[i])) - 48 */\n      tag_32\n      swap2\n      swap1\n      tag_33\n      jump\t// in\n    tag_32:\n        /* \"contracts/Helpers.sol\":908:956  result = result * 10 + uint256(uint8(b[i])) - 48 */\n      swap3\n      pop\n        /* \"contracts/Helpers.sol\":799:1003  if (i == 0 && b[i] == bytes1(\"-\")) {... */\n    tag_25:\n        /* \"contracts/Helpers.sol\":780:783  i++ */\n      dup1\n      dup1\n      0x01\n      add\n      swap2\n      pop\n      pop\n        /* \"contracts/Helpers.sol\":746:1013  for (uint256 i = 0; i < b.length; i++) {... */\n      jump(tag_17)\n    tag_18:\n      pop\n        /* \"contracts/Helpers.sol\":1026:1036  isNegative */\n      dup1\n        /* \"contracts/Helpers.sol\":1022:1137  if (isNegative) {... */\n      iszero\n      tag_34\n      jumpi\n        /* \"contracts/Helpers.sol\":1067:1073  result */\n      dup2\n        /* \"contracts/Helpers.sol\":1059:1074  -int256(result) */\n      tag_35\n      swap1\n      tag_36\n      jump\t// in\n    tag_35:\n        /* \"contracts/Helpers.sol\":1052:1074  return -int256(result) */\n      swap4\n      pop\n      pop\n      pop\n      pop\n      jump(tag_16)\n        /* \"contracts/Helpers.sol\":1022:1137  if (isNegative) {... */\n    tag_34:\n        /* \"contracts/Helpers.sol\":1119:1125  result */\n      dup2\n        /* \"contracts/Helpers.sol\":1105:1126  return int256(result) */\n      swap4\n      pop\n      pop\n      pop\n      pop\n        /* \"contracts/Helpers.sol\":568:1143  function parseInt(string memory _str) internal pure returns (int256) {... */\n    tag_16:\n      swap2\n      swap1\n      pop\n      jump\t// out\n        /* \"#utility.yul\":7:82   */\n    tag_38:\n        /* \"#utility.yul\":40:46   */\n      0x00\n        /* \"#utility.yul\":73:75   */\n      0x40\n        /* \"#utility.yul\":67:76   */\n      mload\n        /* \"#utility.yul\":57:76   */\n      swap1\n      pop\n        /* \"#utility.yul\":7:82   */\n      swap1\n      jump\t// out\n        /* \"#utility.yul\":88:205   */\n    tag_39:\n        /* \"#utility.yul\":197:198   */\n      0x00\n        /* \"#utility.yul\":194:195   */\n      dup1\n        /* \"#utility.yul\":187:199   */\n      revert\n        /* \"#utility.yul\":211:328   */\n    tag_40:\n        /* \"#utility.yul\":320:321   */\n      0x00\n        /* \"#utility.yul\":317:318   */\n      dup1\n        /* \"#utility.yul\":310:322   */\n      revert\n        /* \"#utility.yul\":334:451   */\n    tag_41:\n        /* \"#utility.yul\":443:444   */\n      0x00\n        /* \"#utility.yul\":440:441   */\n      dup1\n        /* \"#utility.yul\":433:445   */\n      revert\n        /* \"#utility.yul\":457:574   */\n    tag_42:\n        /* \"#utility.yul\":566:567   */\n      0x00\n        /* \"#utility.yul\":563:564   */\n      dup1\n        /* \"#utility.yul\":556:568   */\n      revert\n        /* \"#utility.yul\":580:682   */\n    tag_43:\n        /* \"#utility.yul\":621:627   */\n      0x00\n        /* \"#utility.yul\":672:674   */\n      0x1f\n        /* \"#utility.yul\":668:675   */\n      not\n        /* \"#utility.yul\":663:665   */\n      0x1f\n        /* \"#utility.yul\":656:661   */\n      dup4\n        /* \"#utility.yul\":652:666   */\n      add\n        /* \"#utility.yul\":648:676   */\n      and\n        /* \"#utility.yul\":638:676   */\n      swap1\n      pop\n        /* \"#utility.yul\":580:682   */\n      swap2\n      swap1\n      pop\n      jump\t// out\n        /* \"#utility.yul\":688:868   */\n    tag_44:\n        /* \"#utility.yul\":736:813   */\n      0x4e487b7100000000000000000000000000000000000000000000000000000000\n        /* \"#utility.yul\":733:734   */\n      0x00\n        /* \"#utility.yul\":726:814   */\n      mstore\n        /* \"#utility.yul\":833:837   */\n      0x41\n        /* \"#utility.yul\":830:831   */\n      0x04\n        /* \"#utility.yul\":823:838   */\n      mstore\n        /* \"#utility.yul\":857:861   */\n      0x24\n        /* \"#utility.yul\":854:855   */\n      0x00\n        /* \"#utility.yul\":847:862   */\n      revert\n        /* \"#utility.yul\":874:1155   */\n    tag_45:\n        /* \"#utility.yul\":957:984   */\n      tag_68\n        /* \"#utility.yul\":979:983   */\n      dup3\n        /* \"#utility.yul\":957:984   */\n      tag_43\n      jump\t// in\n    tag_68:\n        /* \"#utility.yul\":949:955   */\n      dup2\n        /* \"#utility.yul\":945:985   */\n      add\n        /* \"#utility.yul\":1087:1093   */\n      dup2\n        /* \"#utility.yul\":1075:1085   */\n      dup2\n        /* \"#utility.yul\":1072:1094   */\n      lt\n        /* \"#utility.yul\":1051:1069   */\n      0xffffffffffffffff\n        /* \"#utility.yul\":1039:1049   */\n      dup3\n        /* \"#utility.yul\":1036:1070   */\n      gt\n        /* \"#utility.yul\":1033:1095   */\n      or\n        /* \"#utility.yul\":1030:1118   */\n      iszero\n      tag_69\n      jumpi\n        /* \"#utility.yul\":1098:1116   */\n      tag_70\n      tag_44\n      jump\t// in\n    tag_70:\n        /* \"#utility.yul\":1030:1118   */\n    tag_69:\n        /* \"#utility.yul\":1138:1148   */\n      dup1\n        /* \"#utility.yul\":1134:1136   */\n      0x40\n        /* \"#utility.yul\":1127:1149   */\n      mstore\n        /* \"#utility.yul\":917:1155   */\n      pop\n        /* \"#utility.yul\":874:1155   */\n      pop\n      pop\n      jump\t// out\n        /* \"#utility.yul\":1161:1290   */\n    tag_46:\n        /* \"#utility.yul\":1195:1201   */\n      0x00\n        /* \"#utility.yul\":1222:1242   */\n      tag_72\n      tag_38\n      jump\t// in\n    tag_72:\n        /* \"#utility.yul\":1212:1242   */\n      swap1\n      pop\n        /* \"#utility.yul\":1251:1284   */\n      tag_73\n        /* \"#utility.yul\":1279:1283   */\n      dup3\n        /* \"#utility.yul\":1271:1277   */\n      dup3\n        /* \"#utility.yul\":1251:1284   */\n      tag_45\n      jump\t// in\n    tag_73:\n        /* \"#utility.yul\":1161:1290   */\n      swap2\n      swap1\n      pop\n      jump\t// out\n        /* \"#utility.yul\":1296:1604   */\n    tag_47:\n        /* \"#utility.yul\":1358:1362   */\n      0x00\n        /* \"#utility.yul\":1448:1466   */\n      0xffffffffffffffff\n        /* \"#utility.yul\":1440:1446   */\n      dup3\n        /* \"#utility.yul\":1437:1467   */\n      gt\n        /* \"#utility.yul\":1434:1490   */\n      iszero\n      tag_75\n      jumpi\n        /* \"#utility.yul\":1470:1488   */\n      tag_76\n      tag_44\n      jump\t// in\n    tag_76:\n        /* \"#utility.yul\":1434:1490   */\n    tag_75:\n        /* \"#utility.yul\":1508:1537   */\n      tag_77\n        /* \"#utility.yul\":1530:1536   */\n      dup3\n        /* \"#utility.yul\":1508:1537   */\n      tag_43\n      jump\t// in\n    tag_77:\n        /* \"#utility.yul\":1500:1537   */\n      swap1\n      pop\n        /* \"#utility.yul\":1592:1596   */\n      0x20\n        /* \"#utility.yul\":1586:1590   */\n      dup2\n        /* \"#utility.yul\":1582:1597   */\n      add\n        /* \"#utility.yul\":1574:1597   */\n      swap1\n      pop\n        /* \"#utility.yul\":1296:1604   */\n      swap2\n      swap1\n      pop\n      jump\t// out\n        /* \"#utility.yul\":1610:1756   */\n    tag_48:\n        /* \"#utility.yul\":1707:1713   */\n      dup3\n        /* \"#utility.yul\":1702:1705   */\n      dup2\n        /* \"#utility.yul\":1697:1700   */\n      dup4\n        /* \"#utility.yul\":1684:1714   */\n      calldatacopy\n        /* \"#utility.yul\":1748:1749   */\n      0x00\n        /* \"#utility.yul\":1739:1745   */\n      dup4\n        /* \"#utility.yul\":1734:1737   */\n      dup4\n        /* \"#utility.yul\":1730:1746   */\n      add\n        /* \"#utility.yul\":1723:1750   */\n      mstore\n        /* \"#utility.yul\":1610:1756   */\n      pop\n      pop\n      pop\n      jump\t// out\n        /* \"#utility.yul\":1762:2187   */\n    tag_49:\n        /* \"#utility.yul\":1840:1845   */\n      0x00\n        /* \"#utility.yul\":1865:1931   */\n      tag_80\n        /* \"#utility.yul\":1881:1930   */\n      tag_81\n        /* \"#utility.yul\":1923:1929   */\n      dup5\n        /* \"#utility.yul\":1881:1930   */\n      tag_47\n      jump\t// in\n    tag_81:\n        /* \"#utility.yul\":1865:1931   */\n      tag_46\n      jump\t// in\n    tag_80:\n        /* \"#utility.yul\":1856:1931   */\n      swap1\n      pop\n        /* \"#utility.yul\":1954:1960   */\n      dup3\n        /* \"#utility.yul\":1947:1952   */\n      dup2\n        /* \"#utility.yul\":1940:1961   */\n      mstore\n        /* \"#utility.yul\":1992:1996   */\n      0x20\n        /* \"#utility.yul\":1985:1990   */\n      dup2\n        /* \"#utility.yul\":1981:1997   */\n      add\n        /* \"#utility.yul\":2030:2033   */\n      dup5\n        /* \"#utility.yul\":2021:2027   */\n      dup5\n        /* \"#utility.yul\":2016:2019   */\n      dup5\n        /* \"#utility.yul\":2012:2028   */\n      add\n        /* \"#utility.yul\":2009:2034   */\n      gt\n        /* \"#utility.yul\":2006:2118   */\n      iszero\n      tag_82\n      jumpi\n        /* \"#utility.yul\":2037:2116   */\n      tag_83\n      tag_42\n      jump\t// in\n    tag_83:\n        /* \"#utility.yul\":2006:2118   */\n    tag_82:\n        /* \"#utility.yul\":2127:2181   */\n      tag_84\n        /* \"#utility.yul\":2174:2180   */\n      dup5\n        /* \"#utility.yul\":2169:2172   */\n      dup3\n        /* \"#utility.yul\":2164:2167   */\n      dup6\n        /* \"#utility.yul\":2127:2181   */\n      tag_48\n      jump\t// in\n    tag_84:\n        /* \"#utility.yul\":1846:2187   */\n      pop\n        /* \"#utility.yul\":1762:2187   */\n      swap4\n      swap3\n      pop\n      pop\n      pop\n      jump\t// out\n        /* \"#utility.yul\":2207:2547   */\n    tag_50:\n        /* \"#utility.yul\":2263:2268   */\n      0x00\n        /* \"#utility.yul\":2312:2315   */\n      dup3\n        /* \"#utility.yul\":2305:2309   */\n      0x1f\n        /* \"#utility.yul\":2297:2303   */\n      dup4\n        /* \"#utility.yul\":2293:2310   */\n      add\n        /* \"#utility.yul\":2289:2316   */\n      slt\n        /* \"#utility.yul\":2279:2401   */\n      tag_86\n      jumpi\n        /* \"#utility.yul\":2320:2399   */\n      tag_87\n      tag_41\n      jump\t// in\n    tag_87:\n        /* \"#utility.yul\":2279:2401   */\n    tag_86:\n        /* \"#utility.yul\":2437:2443   */\n      dup2\n        /* \"#utility.yul\":2424:2444   */\n      calldataload\n        /* \"#utility.yul\":2462:2541   */\n      tag_88\n        /* \"#utility.yul\":2537:2540   */\n      dup5\n        /* \"#utility.yul\":2529:2535   */\n      dup3\n        /* \"#utility.yul\":2522:2526   */\n      0x20\n        /* \"#utility.yul\":2514:2520   */\n      dup7\n        /* \"#utility.yul\":2510:2527   */\n      add\n        /* \"#utility.yul\":2462:2541   */\n      tag_49\n      jump\t// in\n    tag_88:\n        /* \"#utility.yul\":2453:2541   */\n      swap2\n      pop\n        /* \"#utility.yul\":2269:2547   */\n      pop\n        /* \"#utility.yul\":2207:2547   */\n      swap3\n      swap2\n      pop\n      pop\n      jump\t// out\n        /* \"#utility.yul\":2553:3062   */\n    tag_5:\n        /* \"#utility.yul\":2622:2628   */\n      0x00\n        /* \"#utility.yul\":2671:2673   */\n      0x20\n        /* \"#utility.yul\":2659:2668   */\n      dup3\n        /* \"#utility.yul\":2650:2657   */\n      dup5\n        /* \"#utility.yul\":2646:2669   */\n      sub\n        /* \"#utility.yul\":2642:2674   */\n      slt\n        /* \"#utility.yul\":2639:2758   */\n      iszero\n      tag_90\n      jumpi\n        /* \"#utility.yul\":2677:2756   */\n      tag_91\n      tag_39\n      jump\t// in\n    tag_91:\n        /* \"#utility.yul\":2639:2758   */\n    tag_90:\n        /* \"#utility.yul\":2825:2826   */\n      0x00\n        /* \"#utility.yul\":2814:2823   */\n      dup3\n        /* \"#utility.yul\":2810:2827   */\n      add\n        /* \"#utility.yul\":2797:2828   */\n      calldataload\n        /* \"#utility.yul\":2855:2873   */\n      0xffffffffffffffff\n        /* \"#utility.yul\":2847:2853   */\n      dup2\n        /* \"#utility.yul\":2844:2874   */\n      gt\n        /* \"#utility.yul\":2841:2958   */\n      iszero\n      tag_92\n      jumpi\n        /* \"#utility.yul\":2877:2956   */\n      tag_93\n      tag_40\n      jump\t// in\n    tag_93:\n        /* \"#utility.yul\":2841:2958   */\n    tag_92:\n        /* \"#utility.yul\":2982:3045   */\n      tag_94\n        /* \"#utility.yul\":3037:3044   */\n      dup5\n        /* \"#utility.yul\":3028:3034   */\n      dup3\n        /* \"#utility.yul\":3017:3026   */\n      dup6\n        /* \"#utility.yul\":3013:3035   */\n      add\n        /* \"#utility.yul\":2982:3045   */\n      tag_50\n      jump\t// in\n    tag_94:\n        /* \"#utility.yul\":2972:3045   */\n      swap2\n      pop\n        /* \"#utility.yul\":2768:3055   */\n      pop\n        /* \"#utility.yul\":2553:3062   */\n      swap3\n      swap2\n      pop\n      pop\n      jump\t// out\n        /* \"#utility.yul\":3068:3157   */\n    tag_51:\n        /* \"#utility.yul\":3102:3109   */\n      0x00\n        /* \"#utility.yul\":3145:3150   */\n      dup2\n        /* \"#utility.yul\":3142:3143   */\n      0x00\n        /* \"#utility.yul\":3131:3151   */\n      signextend\n        /* \"#utility.yul\":3120:3151   */\n      swap1\n      pop\n        /* \"#utility.yul\":3068:3157   */\n      swap2\n      swap1\n      pop\n      jump\t// out\n        /* \"#utility.yul\":3163:3280   */\n    tag_52:\n        /* \"#utility.yul\":3252:3273   */\n      tag_97\n        /* \"#utility.yul\":3267:3272   */\n      dup2\n        /* \"#utility.yul\":3252:3273   */\n      tag_51\n      jump\t// in\n    tag_97:\n        /* \"#utility.yul\":3247:3250   */\n      dup3\n        /* \"#utility.yul\":3240:3274   */\n      mstore\n        /* \"#utility.yul\":3163:3280   */\n      pop\n      pop\n      jump\t// out\n        /* \"#utility.yul\":3286:3512   */\n    tag_8:\n        /* \"#utility.yul\":3381:3385   */\n      0x00\n        /* \"#utility.yul\":3419:3421   */\n      0x20\n        /* \"#utility.yul\":3408:3417   */\n      dup3\n        /* \"#utility.yul\":3404:3422   */\n      add\n        /* \"#utility.yul\":3396:3422   */\n      swap1\n      pop\n        /* \"#utility.yul\":3432:3505   */\n      tag_99\n        /* \"#utility.yul\":3502:3503   */\n      0x00\n        /* \"#utility.yul\":3491:3500   */\n      dup4\n        /* \"#utility.yul\":3487:3504   */\n      add\n        /* \"#utility.yul\":3478:3484   */\n      dup5\n        /* \"#utility.yul\":3432:3505   */\n      tag_52\n      jump\t// in\n    tag_99:\n        /* \"#utility.yul\":3286:3512   */\n      swap3\n      swap2\n      pop\n      pop\n      jump\t// out\n        /* \"#utility.yul\":3518:3687   */\n    tag_53:\n        /* \"#utility.yul\":3602:3613   */\n      0x00\n        /* \"#utility.yul\":3636:3642   */\n      dup3\n        /* \"#utility.yul\":3631:3634   */\n      dup3\n        /* \"#utility.yul\":3624:3643   */\n      mstore\n        /* \"#utility.yul\":3676:3680   */\n      0x20\n        /* \"#utility.yul\":3671:3674   */\n      dup3\n        /* \"#utility.yul\":3667:3681   */\n      add\n        /* \"#utility.yul\":3652:3681   */\n      swap1\n      pop\n        /* \"#utility.yul\":3518:3687   */\n      swap3\n      swap2\n      pop\n      pop\n      jump\t// out\n        /* \"#utility.yul\":3693:3870   */\n    tag_54:\n        /* \"#utility.yul\":3833:3862   */\n      0x56616c7565206f7574206f662072616e676520666f7220696e74380000000000\n        /* \"#utility.yul\":3829:3830   */\n      0x00\n        /* \"#utility.yul\":3821:3827   */\n      dup3\n        /* \"#utility.yul\":3817:3831   */\n      add\n        /* \"#utility.yul\":3810:3863   */\n      mstore\n        /* \"#utility.yul\":3693:3870   */\n      pop\n      jump\t// out\n        /* \"#utility.yul\":3876:4242   */\n    tag_55:\n        /* \"#utility.yul\":4018:4021   */\n      0x00\n        /* \"#utility.yul\":4039:4106   */\n      tag_103\n        /* \"#utility.yul\":4103:4105   */\n      0x1b\n        /* \"#utility.yul\":4098:4101   */\n      dup4\n        /* \"#utility.yul\":4039:4106   */\n      tag_53\n      jump\t// in\n    tag_103:\n        /* \"#utility.yul\":4032:4106   */\n      swap2\n      pop\n        /* \"#utility.yul\":4115:4208   */\n      tag_104\n        /* \"#utility.yul\":4204:4207   */\n      dup3\n        /* \"#utility.yul\":4115:4208   */\n      tag_54\n      jump\t// in\n    tag_104:\n        /* \"#utility.yul\":4233:4235   */\n      0x20\n        /* \"#utility.yul\":4228:4231   */\n      dup3\n        /* \"#utility.yul\":4224:4236   */\n      add\n        /* \"#utility.yul\":4217:4236   */\n      swap1\n      pop\n        /* \"#utility.yul\":3876:4242   */\n      swap2\n      swap1\n      pop\n      jump\t// out\n        /* \"#utility.yul\":4248:4667   */\n    tag_15:\n        /* \"#utility.yul\":4414:4418   */\n      0x00\n        /* \"#utility.yul\":4452:4454   */\n      0x20\n        /* \"#utility.yul\":4441:4450   */\n      dup3\n        /* \"#utility.yul\":4437:4455   */\n      add\n        /* \"#utility.yul\":4429:4455   */\n      swap1\n      pop\n        /* \"#utility.yul\":4501:4510   */\n      dup2\n        /* \"#utility.yul\":4495:4499   */\n      dup2\n        /* \"#utility.yul\":4491:4511   */\n      sub\n        /* \"#utility.yul\":4487:4488   */\n      0x00\n        /* \"#utility.yul\":4476:4485   */\n      dup4\n        /* \"#utility.yul\":4472:4489   */\n      add\n        /* \"#utility.yul\":4465:4512   */\n      mstore\n        /* \"#utility.yul\":4529:4660   */\n      tag_106\n        /* \"#utility.yul\":4655:4659   */\n      dup2\n        /* \"#utility.yul\":4529:4660   */\n      tag_55\n      jump\t// in\n    tag_106:\n        /* \"#utility.yul\":4521:4660   */\n      swap1\n      pop\n        /* \"#utility.yul\":4248:4667   */\n      swap2\n      swap1\n      pop\n      jump\t// out\n        /* \"#utility.yul\":4673:4853   */\n    tag_23:\n        /* \"#utility.yul\":4721:4798   */\n      0x4e487b7100000000000000000000000000000000000000000000000000000000\n        /* \"#utility.yul\":4718:4719   */\n      0x00\n        /* \"#utility.yul\":4711:4799   */\n      mstore\n        /* \"#utility.yul\":4818:4822   */\n      0x32\n        /* \"#utility.yul\":4815:4816   */\n      0x04\n        /* \"#utility.yul\":4808:4823   */\n      mstore\n        /* \"#utility.yul\":4842:4846   */\n      0x24\n        /* \"#utility.yul\":4839:4840   */\n      0x00\n        /* \"#utility.yul\":4832:4847   */\n      revert\n        /* \"#utility.yul\":4859:4936   */\n    tag_56:\n        /* \"#utility.yul\":4896:4903   */\n      0x00\n        /* \"#utility.yul\":4925:4930   */\n      dup2\n        /* \"#utility.yul\":4914:4930   */\n      swap1\n      pop\n        /* \"#utility.yul\":4859:4936   */\n      swap2\n      swap1\n      pop\n      jump\t// out\n        /* \"#utility.yul\":4942:5122   */\n    tag_57:\n        /* \"#utility.yul\":4990:5067   */\n      0x4e487b7100000000000000000000000000000000000000000000000000000000\n        /* \"#utility.yul\":4987:4988   */\n      0x00\n        /* \"#utility.yul\":4980:5068   */\n      mstore\n        /* \"#utility.yul\":5087:5091   */\n      0x11\n        /* \"#utility.yul\":5084:5085   */\n      0x04\n        /* \"#utility.yul\":5077:5092   */\n      mstore\n        /* \"#utility.yul\":5111:5115   */\n      0x24\n        /* \"#utility.yul\":5108:5109   */\n      0x00\n        /* \"#utility.yul\":5101:5116   */\n      revert\n        /* \"#utility.yul\":5128:5538   */\n    tag_29:\n        /* \"#utility.yul\":5168:5175   */\n      0x00\n        /* \"#utility.yul\":5191:5211   */\n      tag_111\n        /* \"#utility.yul\":5209:5210   */\n      dup3\n        /* \"#utility.yul\":5191:5211   */\n      tag_56\n      jump\t// in\n    tag_111:\n        /* \"#utility.yul\":5186:5211   */\n      swap2\n      pop\n        /* \"#utility.yul\":5225:5245   */\n      tag_112\n        /* \"#utility.yul\":5243:5244   */\n      dup4\n        /* \"#utility.yul\":5225:5245   */\n      tag_56\n      jump\t// in\n    tag_112:\n        /* \"#utility.yul\":5220:5245   */\n      swap3\n      pop\n        /* \"#utility.yul\":5280:5281   */\n      dup3\n        /* \"#utility.yul\":5277:5278   */\n      dup3\n        /* \"#utility.yul\":5273:5282   */\n      mul\n        /* \"#utility.yul\":5302:5332   */\n      tag_113\n        /* \"#utility.yul\":5320:5331   */\n      dup2\n        /* \"#utility.yul\":5302:5332   */\n      tag_56\n      jump\t// in\n    tag_113:\n        /* \"#utility.yul\":5291:5332   */\n      swap2\n      pop\n        /* \"#utility.yul\":5481:5482   */\n      dup3\n        /* \"#utility.yul\":5472:5479   */\n      dup3\n        /* \"#utility.yul\":5468:5483   */\n      div\n        /* \"#utility.yul\":5465:5466   */\n      dup5\n        /* \"#utility.yul\":5462:5484   */\n      eq\n        /* \"#utility.yul\":5442:5443   */\n      dup4\n        /* \"#utility.yul\":5435:5444   */\n      iszero\n        /* \"#utility.yul\":5415:5498   */\n      or\n        /* \"#utility.yul\":5392:5531   */\n      tag_114\n      jumpi\n        /* \"#utility.yul\":5511:5529   */\n      tag_115\n      tag_57\n      jump\t// in\n    tag_115:\n        /* \"#utility.yul\":5392:5531   */\n    tag_114:\n        /* \"#utility.yul\":5176:5538   */\n      pop\n        /* \"#utility.yul\":5128:5538   */\n      swap3\n      swap2\n      pop\n      pop\n      jump\t// out\n        /* \"#utility.yul\":5544:5735   */\n    tag_31:\n        /* \"#utility.yul\":5584:5587   */\n      0x00\n        /* \"#utility.yul\":5603:5623   */\n      tag_117\n        /* \"#utility.yul\":5621:5622   */\n      dup3\n        /* \"#utility.yul\":5603:5623   */\n      tag_56\n      jump\t// in\n    tag_117:\n        /* \"#utility.yul\":5598:5623   */\n      swap2\n      pop\n        /* \"#utility.yul\":5637:5657   */\n      tag_118\n        /* \"#utility.yul\":5655:5656   */\n      dup4\n        /* \"#utility.yul\":5637:5657   */\n      tag_56\n      jump\t// in\n    tag_118:\n        /* \"#utility.yul\":5632:5657   */\n      swap3\n      pop\n        /* \"#utility.yul\":5680:5681   */\n      dup3\n        /* \"#utility.yul\":5677:5678   */\n      dup3\n        /* \"#utility.yul\":5673:5682   */\n      add\n        /* \"#utility.yul\":5666:5682   */\n      swap1\n      pop\n        /* \"#utility.yul\":5701:5704   */\n      dup1\n        /* \"#utility.yul\":5698:5699   */\n      dup3\n        /* \"#utility.yul\":5695:5705   */\n      gt\n        /* \"#utility.yul\":5692:5728   */\n      iszero\n      tag_119\n      jumpi\n        /* \"#utility.yul\":5708:5726   */\n      tag_120\n      tag_57\n      jump\t// in\n    tag_120:\n        /* \"#utility.yul\":5692:5728   */\n    tag_119:\n        /* \"#utility.yul\":5544:5735   */\n      swap3\n      swap2\n      pop\n      pop\n      jump\t// out\n        /* \"#utility.yul\":5741:5935   */\n    tag_33:\n        /* \"#utility.yul\":5781:5785   */\n      0x00\n        /* \"#utility.yul\":5801:5821   */\n      tag_122\n        /* \"#utility.yul\":5819:5820   */\n      dup3\n        /* \"#utility.yul\":5801:5821   */\n      tag_56\n      jump\t// in\n    tag_122:\n        /* \"#utility.yul\":5796:5821   */\n      swap2\n      pop\n        /* \"#utility.yul\":5835:5855   */\n      tag_123\n        /* \"#utility.yul\":5853:5854   */\n      dup4\n        /* \"#utility.yul\":5835:5855   */\n      tag_56\n      jump\t// in\n    tag_123:\n        /* \"#utility.yul\":5830:5855   */\n      swap3\n      pop\n        /* \"#utility.yul\":5879:5880   */\n      dup3\n        /* \"#utility.yul\":5876:5877   */\n      dup3\n        /* \"#utility.yul\":5872:5881   */\n      sub\n        /* \"#utility.yul\":5864:5881   */\n      swap1\n      pop\n        /* \"#utility.yul\":5903:5904   */\n      dup2\n        /* \"#utility.yul\":5897:5901   */\n      dup2\n        /* \"#utility.yul\":5894:5905   */\n      gt\n        /* \"#utility.yul\":5891:5928   */\n      iszero\n      tag_124\n      jumpi\n        /* \"#utility.yul\":5908:5926   */\n      tag_125\n      tag_57\n      jump\t// in\n    tag_125:\n        /* \"#utility.yul\":5891:5928   */\n    tag_124:\n        /* \"#utility.yul\":5741:5935   */\n      swap3\n      swap2\n      pop\n      pop\n      jump\t// out\n        /* \"#utility.yul\":5941:6017   */\n    tag_58:\n        /* \"#utility.yul\":5977:5984   */\n      0x00\n        /* \"#utility.yul\":6006:6011   */\n      dup2\n        /* \"#utility.yul\":5995:6011   */\n      swap1\n      pop\n        /* \"#utility.yul\":5941:6017   */\n      swap2\n      swap1\n      pop\n      jump\t// out\n        /* \"#utility.yul\":6023:6251   */\n    tag_36:\n        /* \"#utility.yul\":6058:6061   */\n      0x00\n        /* \"#utility.yul\":6081:6104   */\n      tag_128\n        /* \"#utility.yul\":6098:6103   */\n      dup3\n        /* \"#utility.yul\":6081:6104   */\n      tag_58\n      jump\t// in\n    tag_128:\n        /* \"#utility.yul\":6072:6104   */\n      swap2\n      pop\n        /* \"#utility.yul\":6126:6192   */\n      0x8000000000000000000000000000000000000000000000000000000000000000\n        /* \"#utility.yul\":6119:6124   */\n      dup3\n        /* \"#utility.yul\":6116:6193   */\n      sub\n        /* \"#utility.yul\":6113:6216   */\n      tag_129\n      jumpi\n        /* \"#utility.yul\":6196:6214   */\n      tag_130\n      tag_57\n      jump\t// in\n    tag_130:\n        /* \"#utility.yul\":6113:6216   */\n    tag_129:\n        /* \"#utility.yul\":6239:6244   */\n      dup2\n        /* \"#utility.yul\":6236:6237   */\n      0x00\n        /* \"#utility.yul\":6232:6245   */\n      sub\n        /* \"#utility.yul\":6225:6245   */\n      swap1\n      pop\n        /* \"#utility.yul\":6023:6251   */\n      swap2\n      swap1\n      pop\n      jump\t// out\n\n    auxdata: 0xa2646970667358221220ac5697b2110ae86808dfebabe1b040d707c886bc6d517a6ba77c7bcc60aa7a5764736f6c63430008180033\n}\n",
				"bytecode": {
					"linkReferences": {},
					"object": "6105ee61004e600b8282823980515f1a607314610042577f4e487b71000000000000000000000000000000000000000000000000000000005f525f60045260245ffd5b305f52607381538281f3fe7300000000000000000000000000000000000000003014608060405260043610610034575f3560e01c806353d619c214610038575b5f80fd5b610052600480360381019061004d919061036d565b610068565b60405161005f91906103ce565b60405180910390f35b5f80610073836100f3565b90507fffffffffffffffffffffffffffffffffffffffffffffffffffffffffffffff8081121580156100a65750607f8113155b6100e5576040517f08c379a00000000000000000000000000000000000000000000000000000000081526004016100dc90610441565b60405180910390fd5b5f8190508092505050919050565b5f808290505f805f5b83518110156101f9575f8114801561019457507f2d000000000000000000000000000000000000000000000000000000000000007effffffffffffffffffffffffffffffffffffffffffffffffffffffffffffff19168482815181106101655761016461045f565b5b602001015160f81c60f81b7effffffffffffffffffffffffffffffffffffffffffffffffffffffffffffff1916145b156101a257600191506101ec565b60308482815181106101b7576101b661045f565b5b602001015160f81c60f81b60f81c60ff16600a856101d591906104c2565b6101df9190610503565b6101e99190610536565b92505b80806001019150506100fc565b508015610214578161020a90610572565b935050505061021b565b8193505050505b919050565b5f604051905090565b5f80fd5b5f80fd5b5f80fd5b5f80fd5b5f601f19601f8301169050919050565b7f4e487b71000000000000000000000000000000000000000000000000000000005f52604160045260245ffd5b61027f82610239565b810181811067ffffffffffffffff8211171561029e5761029d610249565b5b80604052505050565b5f6102b0610220565b90506102bc8282610276565b919050565b5f67ffffffffffffffff8211156102db576102da610249565b5b6102e482610239565b9050602081019050919050565b828183375f83830152505050565b5f61031161030c846102c1565b6102a7565b90508281526020810184848401111561032d5761032c610235565b5b6103388482856102f1565b509392505050565b5f82601f83011261035457610353610231565b5b81356103648482602086016102ff565b91505092915050565b5f6020828403121561038257610381610229565b5b5f82013567ffffffffffffffff81111561039f5761039e61022d565b5b6103ab84828501610340565b91505092915050565b5f815f0b9050919050565b6103c8816103b4565b82525050565b5f6020820190506103e15f8301846103bf565b92915050565b5f82825260208201905092915050565b7f56616c7565206f7574206f662072616e676520666f7220696e743800000000005f82015250565b5f61042b601b836103e7565b9150610436826103f7565b602082019050919050565b5f6020820190508181035f8301526104588161041f565b9050919050565b7f4e487b71000000000000000000000000000000000000000000000000000000005f52603260045260245ffd5b5f819050919050565b7f4e487b71000000000000000000000000000000000000000000000000000000005f52601160045260245ffd5b5f6104cc8261048c565b91506104d78361048c565b92508282026104e58161048c565b915082820484148315176104fc576104fb610495565b5b5092915050565b5f61050d8261048c565b91506105188361048c565b92508282019050808211156105305761052f610495565b5b92915050565b5f6105408261048c565b915061054b8361048c565b925082820390508181111561056357610562610495565b5b92915050565b5f819050919050565b5f61057c82610569565b91507f800000000000000000000000000000000000000000000000000000000000000082036105ae576105ad610495565b5b815f03905091905056fea2646970667358221220ac5697b2110ae86808dfebabe1b040d707c886bc6d517a6ba77c7bcc60aa7a5764736f6c63430008180033",
					"opcodes": "PUSH2 0x5EE PUSH2 0x4E PUSH1 0xB DUP3 DUP3 DUP3 CODECOPY DUP1 MLOAD PUSH0 BYTE PUSH1 0x73 EQ PUSH2 0x42 JUMPI PUSH32 0x4E487B7100000000000000000000000000000000000000000000000000000000 PUSH0 MSTORE PUSH0 PUSH1 0x4 MSTORE PUSH1 0x24 PUSH0 REVERT JUMPDEST ADDRESS PUSH0 MSTORE PUSH1 0x73 DUP2 MSTORE8 DUP3 DUP2 RETURN INVALID PUSH20 0x0 ADDRESS EQ PUSH1 0x80 PUSH1 0x40 MSTORE PUSH1 0x4 CALLDATASIZE LT PUSH2 0x34 JUMPI PUSH0 CALLDATALOAD PUSH1 0xE0 SHR DUP1 PUSH4 0x53D619C2 EQ PUSH2 0x38 JUMPI JUMPDEST PUSH0 DUP1 REVERT JUMPDEST PUSH2 0x52 PUSH1 0x4 DUP1 CALLDATASIZE SUB DUP2 ADD SWAP1 PUSH2 0x4D SWAP2 SWAP1 PUSH2 0x36D JUMP JUMPDEST PUSH2 0x68 JUMP JUMPDEST PUSH1 0x40 MLOAD PUSH2 0x5F SWAP2 SWAP1 PUSH2 0x3CE JUMP JUMPDEST PUSH1 0x40 MLOAD DUP1 SWAP2 SUB SWAP1 RETURN JUMPDEST PUSH0 DUP1 PUSH2 0x73 DUP4 PUSH2 0xF3 JUMP JUMPDEST SWAP1 POP PUSH32 0xFFFFFFFFFFFFFFFFFFFFFFFFFFFFFFFFFFFFFFFFFFFFFFFFFFFFFFFFFFFFFF80 DUP2 SLT ISZERO DUP1 ISZERO PUSH2 0xA6 JUMPI POP PUSH1 0x7F DUP2 SGT ISZERO JUMPDEST PUSH2 0xE5 JUMPI PUSH1 0x40 MLOAD PUSH32 0x8C379A000000000000000000000000000000000000000000000000000000000 DUP2 MSTORE PUSH1 0x4 ADD PUSH2 0xDC SWAP1 PUSH2 0x441 JUMP JUMPDEST PUSH1 0x40 MLOAD DUP1 SWAP2 SUB SWAP1 REVERT JUMPDEST PUSH0 DUP2 SWAP1 POP DUP1 SWAP3 POP POP POP SWAP2 SWAP1 POP JUMP JUMPDEST PUSH0 DUP1 DUP3 SWAP1 POP PUSH0 DUP1 PUSH0 JUMPDEST DUP4 MLOAD DUP2 LT ISZERO PUSH2 0x1F9 JUMPI PUSH0 DUP2 EQ DUP1 ISZERO PUSH2 0x194 JUMPI POP PUSH32 0x2D00000000000000000000000000000000000000000000000000000000000000 PUSH31 0xFFFFFFFFFFFFFFFFFFFFFFFFFFFFFFFFFFFFFFFFFFFFFFFFFFFFFFFFFFFFFF NOT AND DUP5 DUP3 DUP2 MLOAD DUP2 LT PUSH2 0x165 JUMPI PUSH2 0x164 PUSH2 0x45F JUMP JUMPDEST JUMPDEST PUSH1 0x20 ADD ADD MLOAD PUSH1 0xF8 SHR PUSH1 0xF8 SHL PUSH31 0xFFFFFFFFFFFFFFFFFFFFFFFFFFFFFFFFFFFFFFFFFFFFFFFFFFFFFFFFFFFFFF NOT AND EQ JUMPDEST ISZERO PUSH2 0x1A2 JUMPI PUSH1 0x1 SWAP2 POP PUSH2 0x1EC JUMP JUMPDEST PUSH1 0x30 DUP5 DUP3 DUP2 MLOAD DUP2 LT PUSH2 0x1B7 JUMPI PUSH2 0x1B6 PUSH2 0x45F JUMP JUMPDEST JUMPDEST PUSH1 0x20 ADD ADD MLOAD PUSH1 0xF8 SHR PUSH1 0xF8 SHL PUSH1 0xF8 SHR PUSH1 0xFF AND PUSH1 0xA DUP6 PUSH2 0x1D5 SWAP2 SWAP1 PUSH2 0x4C2 JUMP JUMPDEST PUSH2 0x1DF SWAP2 SWAP1 PUSH2 0x503 JUMP JUMPDEST PUSH2 0x1E9 SWAP2 SWAP1 PUSH2 0x536 JUMP JUMPDEST SWAP3 POP JUMPDEST DUP1 DUP1 PUSH1 0x1 ADD SWAP2 POP POP PUSH2 0xFC JUMP JUMPDEST POP DUP1 ISZERO PUSH2 0x214 JUMPI DUP2 PUSH2 0x20A SWAP1 PUSH2 0x572 JUMP JUMPDEST SWAP4 POP POP POP POP PUSH2 0x21B JUMP JUMPDEST DUP2 SWAP4 POP POP POP POP JUMPDEST SWAP2 SWAP1 POP JUMP JUMPDEST PUSH0 PUSH1 0x40 MLOAD SWAP1 POP SWAP1 JUMP JUMPDEST PUSH0 DUP1 REVERT JUMPDEST PUSH0 DUP1 REVERT JUMPDEST PUSH0 DUP1 REVERT JUMPDEST PUSH0 DUP1 REVERT JUMPDEST PUSH0 PUSH1 0x1F NOT PUSH1 0x1F DUP4 ADD AND SWAP1 POP SWAP2 SWAP1 POP JUMP JUMPDEST PUSH32 0x4E487B7100000000000000000000000000000000000000000000000000000000 PUSH0 MSTORE PUSH1 0x41 PUSH1 0x4 MSTORE PUSH1 0x24 PUSH0 REVERT JUMPDEST PUSH2 0x27F DUP3 PUSH2 0x239 JUMP JUMPDEST DUP2 ADD DUP2 DUP2 LT PUSH8 0xFFFFFFFFFFFFFFFF DUP3 GT OR ISZERO PUSH2 0x29E JUMPI PUSH2 0x29D PUSH2 0x249 JUMP JUMPDEST JUMPDEST DUP1 PUSH1 0x40 MSTORE POP POP POP JUMP JUMPDEST PUSH0 PUSH2 0x2B0 PUSH2 0x220 JUMP JUMPDEST SWAP1 POP PUSH2 0x2BC DUP3 DUP3 PUSH2 0x276 JUMP JUMPDEST SWAP2 SWAP1 POP JUMP JUMPDEST PUSH0 PUSH8 0xFFFFFFFFFFFFFFFF DUP3 GT ISZERO PUSH2 0x2DB JUMPI PUSH2 0x2DA PUSH2 0x249 JUMP JUMPDEST JUMPDEST PUSH2 0x2E4 DUP3 PUSH2 0x239 JUMP JUMPDEST SWAP1 POP PUSH1 0x20 DUP2 ADD SWAP1 POP SWAP2 SWAP1 POP JUMP JUMPDEST DUP3 DUP2 DUP4 CALLDATACOPY PUSH0 DUP4 DUP4 ADD MSTORE POP POP POP JUMP JUMPDEST PUSH0 PUSH2 0x311 PUSH2 0x30C DUP5 PUSH2 0x2C1 JUMP JUMPDEST PUSH2 0x2A7 JUMP JUMPDEST SWAP1 POP DUP3 DUP2 MSTORE PUSH1 0x20 DUP2 ADD DUP5 DUP5 DUP5 ADD GT ISZERO PUSH2 0x32D JUMPI PUSH2 0x32C PUSH2 0x235 JUMP JUMPDEST JUMPDEST PUSH2 0x338 DUP5 DUP3 DUP6 PUSH2 0x2F1 JUMP JUMPDEST POP SWAP4 SWAP3 POP POP POP JUMP JUMPDEST PUSH0 DUP3 PUSH1 0x1F DUP4 ADD SLT PUSH2 0x354 JUMPI PUSH2 0x353 PUSH2 0x231 JUMP JUMPDEST JUMPDEST DUP2 CALLDATALOAD PUSH2 0x364 DUP5 DUP3 PUSH1 0x20 DUP7 ADD PUSH2 0x2FF JUMP JUMPDEST SWAP2 POP POP SWAP3 SWAP2 POP POP JUMP JUMPDEST PUSH0 PUSH1 0x20 DUP3 DUP5 SUB SLT ISZERO PUSH2 0x382 JUMPI PUSH2 0x381 PUSH2 0x229 JUMP JUMPDEST JUMPDEST PUSH0 DUP3 ADD CALLDATALOAD PUSH8 0xFFFFFFFFFFFFFFFF DUP2 GT ISZERO PUSH2 0x39F JUMPI PUSH2 0x39E PUSH2 0x22D JUMP JUMPDEST JUMPDEST PUSH2 0x3AB DUP5 DUP3 DUP6 ADD PUSH2 0x340 JUMP JUMPDEST SWAP2 POP POP SWAP3 SWAP2 POP POP JUMP JUMPDEST PUSH0 DUP2 PUSH0 SIGNEXTEND SWAP1 POP SWAP2 SWAP1 POP JUMP JUMPDEST PUSH2 0x3C8 DUP2 PUSH2 0x3B4 JUMP JUMPDEST DUP3 MSTORE POP POP JUMP JUMPDEST PUSH0 PUSH1 0x20 DUP3 ADD SWAP1 POP PUSH2 0x3E1 PUSH0 DUP4 ADD DUP5 PUSH2 0x3BF JUMP JUMPDEST SWAP3 SWAP2 POP POP JUMP JUMPDEST PUSH0 DUP3 DUP3 MSTORE PUSH1 0x20 DUP3 ADD SWAP1 POP SWAP3 SWAP2 POP POP JUMP JUMPDEST PUSH32 0x56616C7565206F7574206F662072616E676520666F7220696E74380000000000 PUSH0 DUP3 ADD MSTORE POP JUMP JUMPDEST PUSH0 PUSH2 0x42B PUSH1 0x1B DUP4 PUSH2 0x3E7 JUMP JUMPDEST SWAP2 POP PUSH2 0x436 DUP3 PUSH2 0x3F7 JUMP JUMPDEST PUSH1 0x20 DUP3 ADD SWAP1 POP SWAP2 SWAP1 POP JUMP JUMPDEST PUSH0 PUSH1 0x20 DUP3 ADD SWAP1 POP DUP2 DUP2 SUB PUSH0 DUP4 ADD MSTORE PUSH2 0x458 DUP2 PUSH2 0x41F JUMP JUMPDEST SWAP1 POP SWAP2 SWAP1 POP JUMP JUMPDEST PUSH32 0x4E487B7100000000000000000000000000000000000000000000000000000000 PUSH0 MSTORE PUSH1 0x32 PUSH1 0x4 MSTORE PUSH1 0x24 PUSH0 REVERT JUMPDEST PUSH0 DUP2 SWAP1 POP SWAP2 SWAP1 POP JUMP JUMPDEST PUSH32 0x4E487B7100000000000000000000000000000000000000000000000000000000 PUSH0 MSTORE PUSH1 0x11 PUSH1 0x4 MSTORE PUSH1 0x24 PUSH0 REVERT JUMPDEST PUSH0 PUSH2 0x4CC DUP3 PUSH2 0x48C JUMP JUMPDEST SWAP2 POP PUSH2 0x4D7 DUP4 PUSH2 0x48C JUMP JUMPDEST SWAP3 POP DUP3 DUP3 MUL PUSH2 0x4E5 DUP2 PUSH2 0x48C JUMP JUMPDEST SWAP2 POP DUP3 DUP3 DIV DUP5 EQ DUP4 ISZERO OR PUSH2 0x4FC JUMPI PUSH2 0x4FB PUSH2 0x495 JUMP JUMPDEST JUMPDEST POP SWAP3 SWAP2 POP POP JUMP JUMPDEST PUSH0 PUSH2 0x50D DUP3 PUSH2 0x48C JUMP JUMPDEST SWAP2 POP PUSH2 0x518 DUP4 PUSH2 0x48C JUMP JUMPDEST SWAP3 POP DUP3 DUP3 ADD SWAP1 POP DUP1 DUP3 GT ISZERO PUSH2 0x530 JUMPI PUSH2 0x52F PUSH2 0x495 JUMP JUMPDEST JUMPDEST SWAP3 SWAP2 POP POP JUMP JUMPDEST PUSH0 PUSH2 0x540 DUP3 PUSH2 0x48C JUMP JUMPDEST SWAP2 POP PUSH2 0x54B DUP4 PUSH2 0x48C JUMP JUMPDEST SWAP3 POP DUP3 DUP3 SUB SWAP1 POP DUP2 DUP2 GT ISZERO PUSH2 0x563 JUMPI PUSH2 0x562 PUSH2 0x495 JUMP JUMPDEST JUMPDEST SWAP3 SWAP2 POP POP JUMP JUMPDEST PUSH0 DUP2 SWAP1 POP SWAP2 SWAP1 POP JUMP JUMPDEST PUSH0 PUSH2 0x57C DUP3 PUSH2 0x569 JUMP JUMPDEST SWAP2 POP PUSH32 0x8000000000000000000000000000000000000000000000000000000000000000 DUP3 SUB PUSH2 0x5AE JUMPI PUSH2 0x5AD PUSH2 0x495 JUMP JUMPDEST JUMPDEST DUP2 PUSH0 SUB SWAP1 POP SWAP2 SWAP1 POP JUMP INVALID LOG2 PUSH5 0x6970667358 0x22 SLT KECCAK256 0xAC JUMP SWAP8 0xB2 GT EXP 0xE8 PUSH9 0x8DFEBABE1B040D707 0xC8 DUP7 0xBC PUSH14 0x517A6BA77C7BCC60AA7A5764736F PUSH13 0x63430008180033000000000000 "
				},
				"gasEstimates": {
					"creation": {
						"codeDepositCost": "303600",
						"executionCost": "366",
						"totalCost": "303966"
					},
					"external": {
						"stringToInt8(string)": "infinite"
					},
					"internal": {
						"parseInt(string memory)": "infinite"
					}
				},
				"methodIdentifiers": {
					"stringToInt8(string)": "53d619c2"
				}
			},
			"storageLayout": {
				"storage": [],
				"types": null
			},
			"userdoc": {
				"kind": "user",
				"methods": {},
				"version": 1
			}
		}
	}
}