{
	"contracts/Web3Staking.sol": {
		"Staking": {
			"abi": [
				{
					"inputs": [
						{
							"internalType": "address",
							"name": "_nft",
							"type": "address"
						},
						{
							"internalType": "address",
							"name": "_token",
							"type": "address"
						}
					],
					"stateMutability": "nonpayable",
					"type": "constructor"
				},
				{
					"inputs": [
						{
							"internalType": "address",
							"name": "",
							"type": "address"
						},
						{
							"internalType": "address",
							"name": "",
							"type": "address"
						},
						{
							"internalType": "uint256",
							"name": "",
							"type": "uint256"
						},
						{
							"internalType": "bytes",
							"name": "",
							"type": "bytes"
						}
					],
					"name": "onERC721Received",
					"outputs": [
						{
							"internalType": "bytes4",
							"name": "",
							"type": "bytes4"
						}
					],
					"stateMutability": "nonpayable",
					"type": "function"
				},
				{
					"inputs": [
						{
							"internalType": "uint256",
							"name": "_tokenId",
							"type": "uint256"
						}
					],
					"name": "stake",
					"outputs": [],
					"stateMutability": "nonpayable",
					"type": "function"
				},
				{
					"inputs": [
						{
							"internalType": "address",
							"name": "",
							"type": "address"
						},
						{
							"internalType": "uint256",
							"name": "",
							"type": "uint256"
						}
					],
					"name": "stakes",
					"outputs": [
						{
							"internalType": "uint256",
							"name": "",
							"type": "uint256"
						}
					],
					"stateMutability": "view",
					"type": "function"
				},
				{
					"inputs": [
						{
							"internalType": "uint256",
							"name": "_tokenId",
							"type": "uint256"
						}
					],
					"name": "unstake",
					"outputs": [],
					"stateMutability": "nonpayable",
					"type": "function"
				}
			],
			"devdoc": {
				"kind": "dev",
				"methods": {
					"onERC721Received(address,address,uint256,bytes)": {
						"details": "See {IERC721Receiver-onERC721Received}. Always returns `IERC721Receiver.onERC721Received.selector`."
					}
				},
				"version": 1
			},
			"evm": {
				"assembly": "    /* \"contracts/Web3Staking.sol\":313:1823  contract Staking is IERC721Receiver, ERC721Holder {... */\n  mstore(0x40, 0xc0)\n    /* \"contracts/Web3Staking.sol\":496:606  constructor(address _nft, address _token) {... */\n  callvalue\n  dup1\n  iszero\n  tag_1\n  jumpi\n  0x00\n  dup1\n  revert\ntag_1:\n  pop\n  mload(0x40)\n  sub(codesize, bytecodeSize)\n  dup1\n  bytecodeSize\n  dup4\n  codecopy\n  dup2\n  dup2\n  add\n  0x40\n  mstore\n  dup2\n  add\n  swap1\n  tag_2\n  swap2\n  swap1\n  tag_3\n  jump\t// in\ntag_2:\n    /* \"contracts/Web3Staking.sol\":562:566  _nft */\n  dup2\n    /* \"contracts/Web3Staking.sol\":548:567  nft = IERC721(_nft) */\n  0xffffffffffffffffffffffffffffffffffffffff\n  and\n  0x80\n  dup2\n  0xffffffffffffffffffffffffffffffffffffffff\n  and\n  dup2\n  mstore\n  pop\n  pop\n    /* \"contracts/Web3Staking.sol\":592:598  _token */\n  dup1\n    /* \"contracts/Web3Staking.sol\":577:599  token = IERC20(_token) */\n  0xffffffffffffffffffffffffffffffffffffffff\n  and\n  0xa0\n  dup2\n  0xffffffffffffffffffffffffffffffffffffffff\n  and\n  dup2\n  mstore\n  pop\n  pop\n    /* \"contracts/Web3Staking.sol\":496:606  constructor(address _nft, address _token) {... */\n  pop\n  pop\n    /* \"contracts/Web3Staking.sol\":313:1823  contract Staking is IERC721Receiver, ERC721Holder {... */\n  jump(tag_6)\n    /* \"#utility.yul\":88:205   */\ntag_8:\n    /* \"#utility.yul\":197:198   */\n  0x00\n    /* \"#utility.yul\":194:195   */\n  dup1\n    /* \"#utility.yul\":187:199   */\n  revert\n    /* \"#utility.yul\":334:460   */\ntag_10:\n    /* \"#utility.yul\":371:378   */\n  0x00\n    /* \"#utility.yul\":411:453   */\n  0xffffffffffffffffffffffffffffffffffffffff\n    /* \"#utility.yul\":404:409   */\n  dup3\n    /* \"#utility.yul\":400:454   */\n  and\n    /* \"#utility.yul\":389:454   */\n  swap1\n  pop\n    /* \"#utility.yul\":334:460   */\n  swap2\n  swap1\n  pop\n  jump\t// out\n    /* \"#utility.yul\":466:562   */\ntag_11:\n    /* \"#utility.yul\":503:510   */\n  0x00\n    /* \"#utility.yul\":532:556   */\n  tag_20\n    /* \"#utility.yul\":550:555   */\n  dup3\n    /* \"#utility.yul\":532:556   */\n  tag_10\n  jump\t// in\ntag_20:\n    /* \"#utility.yul\":521:556   */\n  swap1\n  pop\n    /* \"#utility.yul\":466:562   */\n  swap2\n  swap1\n  pop\n  jump\t// out\n    /* \"#utility.yul\":568:690   */\ntag_12:\n    /* \"#utility.yul\":641:665   */\n  tag_22\n    /* \"#utility.yul\":659:664   */\n  dup2\n    /* \"#utility.yul\":641:665   */\n  tag_11\n  jump\t// in\ntag_22:\n    /* \"#utility.yul\":634:639   */\n  dup2\n    /* \"#utility.yul\":631:666   */\n  eq\n    /* \"#utility.yul\":621:684   */\n  tag_23\n  jumpi\n    /* \"#utility.yul\":680:681   */\n  0x00\n    /* \"#utility.yul\":677:678   */\n  dup1\n    /* \"#utility.yul\":670:682   */\n  revert\n    /* \"#utility.yul\":621:684   */\ntag_23:\n    /* \"#utility.yul\":568:690   */\n  pop\n  jump\t// out\n    /* \"#utility.yul\":696:839   */\ntag_13:\n    /* \"#utility.yul\":753:758   */\n  0x00\n    /* \"#utility.yul\":784:790   */\n  dup2\n    /* \"#utility.yul\":778:791   */\n  mload\n    /* \"#utility.yul\":769:791   */\n  swap1\n  pop\n    /* \"#utility.yul\":800:833   */\n  tag_25\n    /* \"#utility.yul\":827:832   */\n  dup2\n    /* \"#utility.yul\":800:833   */\n  tag_12\n  jump\t// in\ntag_25:\n    /* \"#utility.yul\":696:839   */\n  swap3\n  swap2\n  pop\n  pop\n  jump\t// out\n    /* \"#utility.yul\":845:1352   */\ntag_3:\n    /* \"#utility.yul\":924:930   */\n  0x00\n    /* \"#utility.yul\":932:938   */\n  dup1\n    /* \"#utility.yul\":981:983   */\n  0x40\n    /* \"#utility.yul\":969:978   */\n  dup4\n    /* \"#utility.yul\":960:967   */\n  dup6\n    /* \"#utility.yul\":956:979   */\n  sub\n    /* \"#utility.yul\":952:984   */\n  slt\n    /* \"#utility.yul\":949:1068   */\n  iszero\n  tag_27\n  jumpi\n    /* \"#utility.yul\":987:1066   */\n  tag_28\n  tag_8\n  jump\t// in\ntag_28:\n    /* \"#utility.yul\":949:1068   */\ntag_27:\n    /* \"#utility.yul\":1107:1108   */\n  0x00\n    /* \"#utility.yul\":1132:1196   */\n  tag_29\n    /* \"#utility.yul\":1188:1195   */\n  dup6\n    /* \"#utility.yul\":1179:1185   */\n  dup3\n    /* \"#utility.yul\":1168:1177   */\n  dup7\n    /* \"#utility.yul\":1164:1186   */\n  add\n    /* \"#utility.yul\":1132:1196   */\n  tag_13\n  jump\t// in\ntag_29:\n    /* \"#utility.yul\":1122:1196   */\n  swap3\n  pop\n    /* \"#utility.yul\":1078:1206   */\n  pop\n    /* \"#utility.yul\":1245:1247   */\n  0x20\n    /* \"#utility.yul\":1271:1335   */\n  tag_30\n    /* \"#utility.yul\":1327:1334   */\n  dup6\n    /* \"#utility.yul\":1318:1324   */\n  dup3\n    /* \"#utility.yul\":1307:1316   */\n  dup7\n    /* \"#utility.yul\":1303:1325   */\n  add\n    /* \"#utility.yul\":1271:1335   */\n  tag_13\n  jump\t// in\ntag_30:\n    /* \"#utility.yul\":1261:1335   */\n  swap2\n  pop\n    /* \"#utility.yul\":1216:1345   */\n  pop\n    /* \"#utility.yul\":845:1352   */\n  swap3\n  pop\n  swap3\n  swap1\n  pop\n  jump\t// out\n    /* \"contracts/Web3Staking.sol\":313:1823  contract Staking is IERC721Receiver, ERC721Holder {... */\ntag_6:\n  mload(0x80)\n  mload(0xa0)\n  codecopy(0x00, dataOffset(sub_0), dataSize(sub_0))\n  0x00\n  assignImmutable(\"0x7d94b1fd5befe75fac04677148728067a5c7750c4535d59cf8d692301dae078c\")\n  0x00\n  assignImmutable(\"0xb7020dd003fcd4d96af1507ff4dc7e2c1158f23ad0bacfdf3455869cf9fb4898\")\n  return(0x00, dataSize(sub_0))\nstop\n\nsub_0: assembly {\n        /* \"contracts/Web3Staking.sol\":313:1823  contract Staking is IERC721Receiver, ERC721Holder {... */\n      mstore(0x40, 0x80)\n      callvalue\n      dup1\n      iszero\n      tag_1\n      jumpi\n      0x00\n      dup1\n      revert\n    tag_1:\n      pop\n      jumpi(tag_2, lt(calldatasize, 0x04))\n      shr(0xe0, calldataload(0x00))\n      dup1\n      0x150b7a02\n      eq\n      tag_3\n      jumpi\n      dup1\n      0x2e17de78\n      eq\n      tag_4\n      jumpi\n      dup1\n      0x584b62a1\n      eq\n      tag_5\n      jumpi\n      dup1\n      0xa694fc3a\n      eq\n      tag_6\n      jumpi\n    tag_2:\n      0x00\n      dup1\n      revert\n        /* \"@openzeppelin/contracts/token/ERC721/utils/ERC721Holder.sol\":639:792  function onERC721Received(address, address, uint256, bytes memory) public virtual returns (bytes4) {... */\n    tag_3:\n      tag_7\n      0x04\n      dup1\n      calldatasize\n      sub\n      dup2\n      add\n      swap1\n      tag_8\n      swap2\n      swap1\n      tag_9\n      jump\t// in\n    tag_8:\n      tag_10\n      jump\t// in\n    tag_7:\n      mload(0x40)\n      tag_11\n      swap2\n      swap1\n      tag_12\n      jump\t// in\n    tag_11:\n      mload(0x40)\n      dup1\n      swap2\n      sub\n      swap1\n      return\n        /* \"contracts/Web3Staking.sol\":898:1188  function unstake(uint256 _tokenId) public {... */\n    tag_4:\n      tag_13\n      0x04\n      dup1\n      calldatasize\n      sub\n      dup2\n      add\n      swap1\n      tag_14\n      swap2\n      swap1\n      tag_15\n      jump\t// in\n    tag_14:\n      tag_16\n      jump\t// in\n    tag_13:\n      stop\n        /* \"contracts/Web3Staking.sol\":427:489  mapping (address => mapping(uint256 => uint256)) public stakes */\n    tag_5:\n      tag_17\n      0x04\n      dup1\n      calldatasize\n      sub\n      dup2\n      add\n      swap1\n      tag_18\n      swap2\n      swap1\n      tag_19\n      jump\t// in\n    tag_18:\n      tag_20\n      jump\t// in\n    tag_17:\n      mload(0x40)\n      tag_21\n      swap2\n      swap1\n      tag_22\n      jump\t// in\n    tag_21:\n      mload(0x40)\n      dup1\n      swap2\n      sub\n      swap1\n      return\n        /* \"contracts/Web3Staking.sol\":612:892  function stake(uint256 _tokenId) public {... */\n    tag_6:\n      tag_23\n      0x04\n      dup1\n      calldatasize\n      sub\n      dup2\n      add\n      swap1\n      tag_24\n      swap2\n      swap1\n      tag_15\n      jump\t// in\n    tag_24:\n      tag_25\n      jump\t// in\n    tag_23:\n      stop\n        /* \"@openzeppelin/contracts/token/ERC721/utils/ERC721Holder.sol\":639:792  function onERC721Received(address, address, uint256, bytes memory) public virtual returns (bytes4) {... */\n    tag_10:\n        /* \"@openzeppelin/contracts/token/ERC721/utils/ERC721Holder.sol\":730:736  bytes4 */\n      0x00\n        /* \"@openzeppelin/contracts/token/ERC721/utils/ERC721Holder.sol\":755:785  this.onERC721Received.selector */\n      shl(0xe0, 0x150b7a02)\n        /* \"@openzeppelin/contracts/token/ERC721/utils/ERC721Holder.sol\":748:785  return this.onERC721Received.selector */\n      swap1\n      pop\n        /* \"@openzeppelin/contracts/token/ERC721/utils/ERC721Holder.sol\":639:792  function onERC721Received(address, address, uint256, bytes memory) public virtual returns (bytes4) {... */\n      swap5\n      swap4\n      pop\n      pop\n      pop\n      pop\n      jump\t// out\n        /* \"contracts/Web3Staking.sol\":898:1188  function unstake(uint256 _tokenId) public {... */\n    tag_16:\n        /* \"contracts/Web3Staking.sol\":977:991  uint256 reward */\n      0x00\n        /* \"contracts/Web3Staking.sol\":994:1019  calculateReward(_tokenId) */\n      tag_28\n        /* \"contracts/Web3Staking.sol\":1010:1018  _tokenId */\n      dup3\n        /* \"contracts/Web3Staking.sol\":994:1009  calculateReward */\n      tag_29\n        /* \"contracts/Web3Staking.sol\":994:1019  calculateReward(_tokenId) */\n      jump\t// in\n    tag_28:\n        /* \"contracts/Web3Staking.sol\":977:1019  uint256 reward = calculateReward(_tokenId) */\n      swap1\n      pop\n        /* \"contracts/Web3Staking.sol\":1036:1042  stakes */\n      0x00\n        /* \"contracts/Web3Staking.sol\":1036:1054  stakes[msg.sender] */\n      dup1\n        /* \"contracts/Web3Staking.sol\":1043:1053  msg.sender */\n      caller\n        /* \"contracts/Web3Staking.sol\":1036:1054  stakes[msg.sender] */\n      0xffffffffffffffffffffffffffffffffffffffff\n      and\n      0xffffffffffffffffffffffffffffffffffffffff\n      and\n      dup2\n      mstore\n      0x20\n      add\n      swap1\n      dup2\n      mstore\n      0x20\n      add\n      0x00\n      keccak256\n        /* \"contracts/Web3Staking.sol\":1036:1064  stakes[msg.sender][_tokenId] */\n      0x00\n        /* \"contracts/Web3Staking.sol\":1055:1063  _tokenId */\n      dup4\n        /* \"contracts/Web3Staking.sol\":1036:1064  stakes[msg.sender][_tokenId] */\n      dup2\n      mstore\n      0x20\n      add\n      swap1\n      dup2\n      mstore\n      0x20\n      add\n      0x00\n      keccak256\n        /* \"contracts/Web3Staking.sol\":1029:1064  delete stakes[msg.sender][_tokenId] */\n      0x00\n      swap1\n      sstore\n        /* \"contracts/Web3Staking.sol\":1075:1078  nft */\n      immutable(\"0xb7020dd003fcd4d96af1507ff4dc7e2c1158f23ad0bacfdf3455869cf9fb4898\")\n        /* \"contracts/Web3Staking.sol\":1075:1095  nft.safeTransferFrom */\n      0xffffffffffffffffffffffffffffffffffffffff\n      and\n      0xb88d4fde\n        /* \"contracts/Web3Staking.sol\":1104:1108  this */\n      address\n        /* \"contracts/Web3Staking.sol\":1111:1121  msg.sender */\n      caller\n        /* \"contracts/Web3Staking.sol\":1123:1131  _tokenId */\n      dup6\n        /* \"contracts/Web3Staking.sol\":1075:1136  nft.safeTransferFrom(address(this), msg.sender, _tokenId, \"\") */\n      mload(0x40)\n      dup5\n      0xffffffff\n      and\n      0xe0\n      shl\n      dup2\n      mstore\n      0x04\n      add\n      tag_30\n      swap4\n      swap3\n      swap2\n      swap1\n      tag_31\n      jump\t// in\n    tag_30:\n      0x00\n      mload(0x40)\n      dup1\n      dup4\n      sub\n      dup2\n      0x00\n      dup8\n      dup1\n      extcodesize\n      iszero\n      dup1\n      iszero\n      tag_32\n      jumpi\n      0x00\n      dup1\n      revert\n    tag_32:\n      pop\n      gas\n      call\n      iszero\n      dup1\n      iszero\n      tag_34\n      jumpi\n      returndatasize\n      0x00\n      dup1\n      returndatacopy\n      revert(0x00, returndatasize)\n    tag_34:\n      pop\n      pop\n      pop\n      pop\n        /* \"contracts/Web3Staking.sol\":1147:1152  token */\n      immutable(\"0x7d94b1fd5befe75fac04677148728067a5c7750c4535d59cf8d692301dae078c\")\n        /* \"contracts/Web3Staking.sol\":1147:1161  token.transfer */\n      0xffffffffffffffffffffffffffffffffffffffff\n      and\n      0xa9059cbb\n        /* \"contracts/Web3Staking.sol\":1162:1172  msg.sender */\n      caller\n        /* \"contracts/Web3Staking.sol\":1174:1180  reward */\n      dup4\n        /* \"contracts/Web3Staking.sol\":1147:1181  token.transfer(msg.sender, reward) */\n      mload(0x40)\n      dup4\n      0xffffffff\n      and\n      0xe0\n      shl\n      dup2\n      mstore\n      0x04\n      add\n      tag_35\n      swap3\n      swap2\n      swap1\n      tag_36\n      jump\t// in\n    tag_35:\n      0x20\n      mload(0x40)\n      dup1\n      dup4\n      sub\n      dup2\n      0x00\n      dup8\n      gas\n      call\n      iszero\n      dup1\n      iszero\n      tag_38\n      jumpi\n      returndatasize\n      0x00\n      dup1\n      returndatacopy\n      revert(0x00, returndatasize)\n    tag_38:\n      pop\n      pop\n      pop\n      pop\n      mload(0x40)\n      returndatasize\n      not(0x1f)\n      0x1f\n      dup3\n      add\n      and\n      dup3\n      add\n      dup1\n      0x40\n      mstore\n      pop\n      dup2\n      add\n      swap1\n      tag_39\n      swap2\n      swap1\n      tag_40\n      jump\t// in\n    tag_39:\n      pop\n        /* \"contracts/Web3Staking.sol\":940:1188  {... */\n      pop\n        /* \"contracts/Web3Staking.sol\":898:1188  function unstake(uint256 _tokenId) public {... */\n      pop\n      jump\t// out\n        /* \"contracts/Web3Staking.sol\":427:489  mapping (address => mapping(uint256 => uint256)) public stakes */\n    tag_20:\n      mstore(0x20, 0x00)\n      dup2\n      0x00\n      mstore\n      mstore(0x20, keccak256(0x00, 0x40))\n      dup1\n      0x00\n      mstore\n      keccak256(0x00, 0x40)\n      0x00\n      swap2\n      pop\n      swap2\n      pop\n      pop\n      sload\n      dup2\n      jump\t// out\n        /* \"contracts/Web3Staking.sol\":612:892  function stake(uint256 _tokenId) public {... */\n    tag_25:\n        /* \"contracts/Web3Staking.sol\":695:705  msg.sender */\n      caller\n        /* \"contracts/Web3Staking.sol\":670:705  nft.ownerOf(_tokenId) == msg.sender */\n      0xffffffffffffffffffffffffffffffffffffffff\n      and\n        /* \"contracts/Web3Staking.sol\":670:673  nft */\n      immutable(\"0xb7020dd003fcd4d96af1507ff4dc7e2c1158f23ad0bacfdf3455869cf9fb4898\")\n        /* \"contracts/Web3Staking.sol\":670:681  nft.ownerOf */\n      0xffffffffffffffffffffffffffffffffffffffff\n      and\n      0x6352211e\n        /* \"contracts/Web3Staking.sol\":682:690  _tokenId */\n      dup4\n        /* \"contracts/Web3Staking.sol\":670:691  nft.ownerOf(_tokenId) */\n      mload(0x40)\n      dup3\n      0xffffffff\n      and\n      0xe0\n      shl\n      dup2\n      mstore\n      0x04\n      add\n      tag_42\n      swap2\n      swap1\n      tag_22\n      jump\t// in\n    tag_42:\n      0x20\n      mload(0x40)\n      dup1\n      dup4\n      sub\n      dup2\n      dup7\n      gas\n      staticcall\n      iszero\n      dup1\n      iszero\n      tag_44\n      jumpi\n      returndatasize\n      0x00\n      dup1\n      returndatacopy\n      revert(0x00, returndatasize)\n    tag_44:\n      pop\n      pop\n      pop\n      pop\n      mload(0x40)\n      returndatasize\n      not(0x1f)\n      0x1f\n      dup3\n      add\n      and\n      dup3\n      add\n      dup1\n      0x40\n      mstore\n      pop\n      dup2\n      add\n      swap1\n      tag_45\n      swap2\n      swap1\n      tag_46\n      jump\t// in\n    tag_45:\n        /* \"contracts/Web3Staking.sol\":670:705  nft.ownerOf(_tokenId) == msg.sender */\n      0xffffffffffffffffffffffffffffffffffffffff\n      and\n      eq\n        /* \"contracts/Web3Staking.sol\":662:732  require(nft.ownerOf(_tokenId) == msg.sender, \"You don't own this NFT\") */\n      tag_47\n      jumpi\n      mload(0x40)\n      0x08c379a000000000000000000000000000000000000000000000000000000000\n      dup2\n      mstore\n      0x04\n      add\n      tag_48\n      swap1\n      tag_49\n      jump\t// in\n    tag_48:\n      mload(0x40)\n      dup1\n      swap2\n      sub\n      swap1\n      revert\n    tag_47:\n        /* \"contracts/Web3Staking.sol\":798:813  block.timestamp */\n      timestamp\n        /* \"contracts/Web3Staking.sol\":767:773  stakes */\n      0x00\n        /* \"contracts/Web3Staking.sol\":767:785  stakes[msg.sender] */\n      dup1\n        /* \"contracts/Web3Staking.sol\":774:784  msg.sender */\n      caller\n        /* \"contracts/Web3Staking.sol\":767:785  stakes[msg.sender] */\n      0xffffffffffffffffffffffffffffffffffffffff\n      and\n      0xffffffffffffffffffffffffffffffffffffffff\n      and\n      dup2\n      mstore\n      0x20\n      add\n      swap1\n      dup2\n      mstore\n      0x20\n      add\n      0x00\n      keccak256\n        /* \"contracts/Web3Staking.sol\":767:795  stakes[msg.sender][_tokenId] */\n      0x00\n        /* \"contracts/Web3Staking.sol\":786:794  _tokenId */\n      dup4\n        /* \"contracts/Web3Staking.sol\":767:795  stakes[msg.sender][_tokenId] */\n      dup2\n      mstore\n      0x20\n      add\n      swap1\n      dup2\n      mstore\n      0x20\n      add\n      0x00\n      keccak256\n        /* \"contracts/Web3Staking.sol\":767:813  stakes[msg.sender][_tokenId] = block.timestamp */\n      dup2\n      swap1\n      sstore\n      pop\n        /* \"contracts/Web3Staking.sol\":824:827  nft */\n      immutable(\"0xb7020dd003fcd4d96af1507ff4dc7e2c1158f23ad0bacfdf3455869cf9fb4898\")\n        /* \"contracts/Web3Staking.sol\":824:844  nft.safeTransferFrom */\n      0xffffffffffffffffffffffffffffffffffffffff\n      and\n      0xb88d4fde\n        /* \"contracts/Web3Staking.sol\":845:855  msg.sender */\n      caller\n        /* \"contracts/Web3Staking.sol\":865:869  this */\n      address\n        /* \"contracts/Web3Staking.sol\":872:880  _tokenId */\n      dup5\n        /* \"contracts/Web3Staking.sol\":824:885  nft.safeTransferFrom(msg.sender, address(this), _tokenId, \"\") */\n      mload(0x40)\n      dup5\n      0xffffffff\n      and\n      0xe0\n      shl\n      dup2\n      mstore\n      0x04\n      add\n      tag_50\n      swap4\n      swap3\n      swap2\n      swap1\n      tag_31\n      jump\t// in\n    tag_50:\n      0x00\n      mload(0x40)\n      dup1\n      dup4\n      sub\n      dup2\n      0x00\n      dup8\n      dup1\n      extcodesize\n      iszero\n      dup1\n      iszero\n      tag_51\n      jumpi\n      0x00\n      dup1\n      revert\n    tag_51:\n      pop\n      gas\n      call\n      iszero\n      dup1\n      iszero\n      tag_53\n      jumpi\n      returndatasize\n      0x00\n      dup1\n      returndatacopy\n      revert(0x00, returndatasize)\n    tag_53:\n      pop\n      pop\n      pop\n      pop\n        /* \"contracts/Web3Staking.sol\":612:892  function stake(uint256 _tokenId) public {... */\n      pop\n      jump\t// out\n        /* \"contracts/Web3Staking.sol\":1194:1520  function calculateReward(uint256 _tokenId) private view returns (uint256){... */\n    tag_29:\n        /* \"contracts/Web3Staking.sol\":1259:1266  uint256 */\n      0x00\n        /* \"contracts/Web3Staking.sol\":1316:1317  0 */\n      dup1\n        /* \"contracts/Web3Staking.sol\":1285:1291  stakes */\n      0x00\n        /* \"contracts/Web3Staking.sol\":1285:1303  stakes[msg.sender] */\n      dup1\n        /* \"contracts/Web3Staking.sol\":1292:1302  msg.sender */\n      caller\n        /* \"contracts/Web3Staking.sol\":1285:1303  stakes[msg.sender] */\n      0xffffffffffffffffffffffffffffffffffffffff\n      and\n      0xffffffffffffffffffffffffffffffffffffffff\n      and\n      dup2\n      mstore\n      0x20\n      add\n      swap1\n      dup2\n      mstore\n      0x20\n      add\n      0x00\n      keccak256\n        /* \"contracts/Web3Staking.sol\":1285:1313  stakes[msg.sender][_tokenId] */\n      0x00\n        /* \"contracts/Web3Staking.sol\":1304:1312  _tokenId */\n      dup5\n        /* \"contracts/Web3Staking.sol\":1285:1313  stakes[msg.sender][_tokenId] */\n      dup2\n      mstore\n      0x20\n      add\n      swap1\n      dup2\n      mstore\n      0x20\n      add\n      0x00\n      keccak256\n      sload\n        /* \"contracts/Web3Staking.sol\":1285:1317  stakes[msg.sender][_tokenId] > 0 */\n      gt\n        /* \"contracts/Web3Staking.sol\":1277:1345  require(stakes[msg.sender][_tokenId] > 0, \"Nft has not been staked\") */\n      tag_55\n      jumpi\n      mload(0x40)\n      0x08c379a000000000000000000000000000000000000000000000000000000000\n      dup2\n      mstore\n      0x04\n      add\n      tag_56\n      swap1\n      tag_57\n      jump\t// in\n    tag_56:\n      mload(0x40)\n      dup1\n      swap2\n      sub\n      swap1\n      revert\n    tag_55:\n        /* \"contracts/Web3Staking.sol\":1355:1367  uint256 time */\n      0x00\n        /* \"contracts/Web3Staking.sol\":1388:1394  stakes */\n      dup1\n        /* \"contracts/Web3Staking.sol\":1388:1406  stakes[msg.sender] */\n      0x00\n        /* \"contracts/Web3Staking.sol\":1395:1405  msg.sender */\n      caller\n        /* \"contracts/Web3Staking.sol\":1388:1406  stakes[msg.sender] */\n      0xffffffffffffffffffffffffffffffffffffffff\n      and\n      0xffffffffffffffffffffffffffffffffffffffff\n      and\n      dup2\n      mstore\n      0x20\n      add\n      swap1\n      dup2\n      mstore\n      0x20\n      add\n      0x00\n      keccak256\n        /* \"contracts/Web3Staking.sol\":1388:1416  stakes[msg.sender][_tokenId] */\n      0x00\n        /* \"contracts/Web3Staking.sol\":1407:1415  _tokenId */\n      dup5\n        /* \"contracts/Web3Staking.sol\":1388:1416  stakes[msg.sender][_tokenId] */\n      dup2\n      mstore\n      0x20\n      add\n      swap1\n      dup2\n      mstore\n      0x20\n      add\n      0x00\n      keccak256\n      sload\n        /* \"contracts/Web3Staking.sol\":1370:1385  block.timestamp */\n      timestamp\n        /* \"contracts/Web3Staking.sol\":1370:1416  block.timestamp - stakes[msg.sender][_tokenId] */\n      tag_58\n      swap2\n      swap1\n      tag_59\n      jump\t// in\n    tag_58:\n        /* \"contracts/Web3Staking.sol\":1355:1416  uint256 time = block.timestamp - stakes[msg.sender][_tokenId] */\n      swap1\n      pop\n        /* \"contracts/Web3Staking.sol\":1426:1440  uint256 reward */\n      0x00\n        /* \"contracts/Web3Staking.sol\":1481:1490  1 minutes */\n      0x3c\n        /* \"contracts/Web3Staking.sol\":1469:1477  10 ** 18 */\n      0x0de0b6b3a7640000\n        /* \"contracts/Web3Staking.sol\":1461:1465  time */\n      dup4\n        /* \"contracts/Web3Staking.sol\":1443:1458  calculate(time) */\n      tag_60\n        /* \"contracts/Web3Staking.sol\":1453:1457  time */\n      dup6\n        /* \"contracts/Web3Staking.sol\":1443:1452  calculate */\n      tag_61\n        /* \"contracts/Web3Staking.sol\":1443:1458  calculate(time) */\n      jump\t// in\n    tag_60:\n        /* \"contracts/Web3Staking.sol\":1443:1465  calculate(time) * time */\n      tag_62\n      swap2\n      swap1\n      tag_63\n      jump\t// in\n    tag_62:\n        /* \"contracts/Web3Staking.sol\":1443:1478  calculate(time) * time * (10 ** 18) */\n      tag_64\n      swap2\n      swap1\n      tag_63\n      jump\t// in\n    tag_64:\n        /* \"contracts/Web3Staking.sol\":1443:1490  calculate(time) * time * (10 ** 18) / 1 minutes */\n      tag_65\n      swap2\n      swap1\n      tag_66\n      jump\t// in\n    tag_65:\n        /* \"contracts/Web3Staking.sol\":1426:1490  uint256 reward = calculate(time) * time * (10 ** 18) / 1 minutes */\n      swap1\n      pop\n        /* \"contracts/Web3Staking.sol\":1507:1513  reward */\n      dup1\n        /* \"contracts/Web3Staking.sol\":1500:1513  return reward */\n      swap3\n      pop\n      pop\n      pop\n        /* \"contracts/Web3Staking.sol\":1194:1520  function calculateReward(uint256 _tokenId) private view returns (uint256){... */\n      swap2\n      swap1\n      pop\n      jump\t// out\n        /* \"contracts/Web3Staking.sol\":1527:1821  function calculate(uint256 time) private pure returns (uint256) {... */\n    tag_61:\n        /* \"contracts/Web3Staking.sol\":1582:1589  uint256 */\n      0x00\n        /* \"contracts/Web3Staking.sol\":1611:1620  1 minutes */\n      0x3c\n        /* \"contracts/Web3Staking.sol\":1604:1608  time */\n      dup3\n        /* \"contracts/Web3Staking.sol\":1604:1620  time < 1 minutes */\n      lt\n        /* \"contracts/Web3Staking.sol\":1601:1815  if(time < 1 minutes) {... */\n      iszero\n      tag_68\n      jumpi\n        /* \"contracts/Web3Staking.sol\":1643:1644  0 */\n      0x00\n        /* \"contracts/Web3Staking.sol\":1636:1644  return 0 */\n      swap1\n      pop\n      jump(tag_67)\n        /* \"contracts/Web3Staking.sol\":1601:1815  if(time < 1 minutes) {... */\n    tag_68:\n        /* \"contracts/Web3Staking.sol\":1671:1680  3 minutes */\n      0xb4\n        /* \"contracts/Web3Staking.sol\":1664:1668  time */\n      dup3\n        /* \"contracts/Web3Staking.sol\":1664:1680  time < 3 minutes */\n      lt\n        /* \"contracts/Web3Staking.sol\":1661:1815  if(time < 3 minutes) {... */\n      iszero\n      tag_70\n      jumpi\n        /* \"contracts/Web3Staking.sol\":1703:1704  3 */\n      0x03\n        /* \"contracts/Web3Staking.sol\":1696:1704  return 3 */\n      swap1\n      pop\n      jump(tag_67)\n        /* \"contracts/Web3Staking.sol\":1661:1815  if(time < 3 minutes) {... */\n    tag_70:\n        /* \"contracts/Web3Staking.sol\":1731:1740  5 minutes */\n      0x012c\n        /* \"contracts/Web3Staking.sol\":1724:1728  time */\n      dup3\n        /* \"contracts/Web3Staking.sol\":1724:1740  time < 5 minutes */\n      lt\n        /* \"contracts/Web3Staking.sol\":1721:1815  if(time < 5 minutes) {... */\n      iszero\n      tag_72\n      jumpi\n        /* \"contracts/Web3Staking.sol\":1763:1764  5 */\n      0x05\n        /* \"contracts/Web3Staking.sol\":1756:1764  return 5 */\n      swap1\n      pop\n      jump(tag_67)\n        /* \"contracts/Web3Staking.sol\":1721:1815  if(time < 5 minutes) {... */\n    tag_72:\n        /* \"contracts/Web3Staking.sol\":1802:1804  10 */\n      0x0a\n        /* \"contracts/Web3Staking.sol\":1795:1804  return 10 */\n      swap1\n      pop\n        /* \"contracts/Web3Staking.sol\":1527:1821  function calculate(uint256 time) private pure returns (uint256) {... */\n    tag_67:\n      swap2\n      swap1\n      pop\n      jump\t// out\n        /* \"#utility.yul\":7:82   */\n    tag_74:\n        /* \"#utility.yul\":40:46   */\n      0x00\n        /* \"#utility.yul\":73:75   */\n      0x40\n        /* \"#utility.yul\":67:76   */\n      mload\n        /* \"#utility.yul\":57:76   */\n      swap1\n      pop\n        /* \"#utility.yul\":7:82   */\n      swap1\n      jump\t// out\n        /* \"#utility.yul\":88:205   */\n    tag_75:\n        /* \"#utility.yul\":197:198   */\n      0x00\n        /* \"#utility.yul\":194:195   */\n      dup1\n        /* \"#utility.yul\":187:199   */\n      revert\n        /* \"#utility.yul\":211:328   */\n    tag_76:\n        /* \"#utility.yul\":320:321   */\n      0x00\n        /* \"#utility.yul\":317:318   */\n      dup1\n        /* \"#utility.yul\":310:322   */\n      revert\n        /* \"#utility.yul\":334:460   */\n    tag_77:\n        /* \"#utility.yul\":371:378   */\n      0x00\n        /* \"#utility.yul\":411:453   */\n      0xffffffffffffffffffffffffffffffffffffffff\n        /* \"#utility.yul\":404:409   */\n      dup3\n        /* \"#utility.yul\":400:454   */\n      and\n        /* \"#utility.yul\":389:454   */\n      swap1\n      pop\n        /* \"#utility.yul\":334:460   */\n      swap2\n      swap1\n      pop\n      jump\t// out\n        /* \"#utility.yul\":466:562   */\n    tag_78:\n        /* \"#utility.yul\":503:510   */\n      0x00\n        /* \"#utility.yul\":532:556   */\n      tag_118\n        /* \"#utility.yul\":550:555   */\n      dup3\n        /* \"#utility.yul\":532:556   */\n      tag_77\n      jump\t// in\n    tag_118:\n        /* \"#utility.yul\":521:556   */\n      swap1\n      pop\n        /* \"#utility.yul\":466:562   */\n      swap2\n      swap1\n      pop\n      jump\t// out\n        /* \"#utility.yul\":568:690   */\n    tag_79:\n        /* \"#utility.yul\":641:665   */\n      tag_120\n        /* \"#utility.yul\":659:664   */\n      dup2\n        /* \"#utility.yul\":641:665   */\n      tag_78\n      jump\t// in\n    tag_120:\n        /* \"#utility.yul\":634:639   */\n      dup2\n        /* \"#utility.yul\":631:666   */\n      eq\n        /* \"#utility.yul\":621:684   */\n      tag_121\n      jumpi\n        /* \"#utility.yul\":680:681   */\n      0x00\n        /* \"#utility.yul\":677:678   */\n      dup1\n        /* \"#utility.yul\":670:682   */\n      revert\n        /* \"#utility.yul\":621:684   */\n    tag_121:\n        /* \"#utility.yul\":568:690   */\n      pop\n      jump\t// out\n        /* \"#utility.yul\":696:835   */\n    tag_80:\n        /* \"#utility.yul\":742:747   */\n      0x00\n        /* \"#utility.yul\":780:786   */\n      dup2\n        /* \"#utility.yul\":767:787   */\n      calldataload\n        /* \"#utility.yul\":758:787   */\n      swap1\n      pop\n        /* \"#utility.yul\":796:829   */\n      tag_123\n        /* \"#utility.yul\":823:828   */\n      dup2\n        /* \"#utility.yul\":796:829   */\n      tag_79\n      jump\t// in\n    tag_123:\n        /* \"#utility.yul\":696:835   */\n      swap3\n      swap2\n      pop\n      pop\n      jump\t// out\n        /* \"#utility.yul\":841:918   */\n    tag_81:\n        /* \"#utility.yul\":878:885   */\n      0x00\n        /* \"#utility.yul\":907:912   */\n      dup2\n        /* \"#utility.yul\":896:912   */\n      swap1\n      pop\n        /* \"#utility.yul\":841:918   */\n      swap2\n      swap1\n      pop\n      jump\t// out\n        /* \"#utility.yul\":924:1046   */\n    tag_82:\n        /* \"#utility.yul\":997:1021   */\n      tag_126\n        /* \"#utility.yul\":1015:1020   */\n      dup2\n        /* \"#utility.yul\":997:1021   */\n      tag_81\n      jump\t// in\n    tag_126:\n        /* \"#utility.yul\":990:995   */\n      dup2\n        /* \"#utility.yul\":987:1022   */\n      eq\n        /* \"#utility.yul\":977:1040   */\n      tag_127\n      jumpi\n        /* \"#utility.yul\":1036:1037   */\n      0x00\n        /* \"#utility.yul\":1033:1034   */\n      dup1\n        /* \"#utility.yul\":1026:1038   */\n      revert\n        /* \"#utility.yul\":977:1040   */\n    tag_127:\n        /* \"#utility.yul\":924:1046   */\n      pop\n      jump\t// out\n        /* \"#utility.yul\":1052:1191   */\n    tag_83:\n        /* \"#utility.yul\":1098:1103   */\n      0x00\n        /* \"#utility.yul\":1136:1142   */\n      dup2\n        /* \"#utility.yul\":1123:1143   */\n      calldataload\n        /* \"#utility.yul\":1114:1143   */\n      swap1\n      pop\n        /* \"#utility.yul\":1152:1185   */\n      tag_129\n        /* \"#utility.yul\":1179:1184   */\n      dup2\n        /* \"#utility.yul\":1152:1185   */\n      tag_82\n      jump\t// in\n    tag_129:\n        /* \"#utility.yul\":1052:1191   */\n      swap3\n      swap2\n      pop\n      pop\n      jump\t// out\n        /* \"#utility.yul\":1197:1314   */\n    tag_84:\n        /* \"#utility.yul\":1306:1307   */\n      0x00\n        /* \"#utility.yul\":1303:1304   */\n      dup1\n        /* \"#utility.yul\":1296:1308   */\n      revert\n        /* \"#utility.yul\":1320:1437   */\n    tag_85:\n        /* \"#utility.yul\":1429:1430   */\n      0x00\n        /* \"#utility.yul\":1426:1427   */\n      dup1\n        /* \"#utility.yul\":1419:1431   */\n      revert\n        /* \"#utility.yul\":1443:1545   */\n    tag_86:\n        /* \"#utility.yul\":1484:1490   */\n      0x00\n        /* \"#utility.yul\":1535:1537   */\n      0x1f\n        /* \"#utility.yul\":1531:1538   */\n      not\n        /* \"#utility.yul\":1526:1528   */\n      0x1f\n        /* \"#utility.yul\":1519:1524   */\n      dup4\n        /* \"#utility.yul\":1515:1529   */\n      add\n        /* \"#utility.yul\":1511:1539   */\n      and\n        /* \"#utility.yul\":1501:1539   */\n      swap1\n      pop\n        /* \"#utility.yul\":1443:1545   */\n      swap2\n      swap1\n      pop\n      jump\t// out\n        /* \"#utility.yul\":1551:1731   */\n    tag_87:\n        /* \"#utility.yul\":1599:1676   */\n      0x4e487b7100000000000000000000000000000000000000000000000000000000\n        /* \"#utility.yul\":1596:1597   */\n      0x00\n        /* \"#utility.yul\":1589:1677   */\n      mstore\n        /* \"#utility.yul\":1696:1700   */\n      0x41\n        /* \"#utility.yul\":1693:1694   */\n      0x04\n        /* \"#utility.yul\":1686:1701   */\n      mstore\n        /* \"#utility.yul\":1720:1724   */\n      0x24\n        /* \"#utility.yul\":1717:1718   */\n      0x00\n        /* \"#utility.yul\":1710:1725   */\n      revert\n        /* \"#utility.yul\":1737:2018   */\n    tag_88:\n        /* \"#utility.yul\":1820:1847   */\n      tag_135\n        /* \"#utility.yul\":1842:1846   */\n      dup3\n        /* \"#utility.yul\":1820:1847   */\n      tag_86\n      jump\t// in\n    tag_135:\n        /* \"#utility.yul\":1812:1818   */\n      dup2\n        /* \"#utility.yul\":1808:1848   */\n      add\n        /* \"#utility.yul\":1950:1956   */\n      dup2\n        /* \"#utility.yul\":1938:1948   */\n      dup2\n        /* \"#utility.yul\":1935:1957   */\n      lt\n        /* \"#utility.yul\":1914:1932   */\n      0xffffffffffffffff\n        /* \"#utility.yul\":1902:1912   */\n      dup3\n        /* \"#utility.yul\":1899:1933   */\n      gt\n        /* \"#utility.yul\":1896:1958   */\n      or\n        /* \"#utility.yul\":1893:1981   */\n      iszero\n      tag_136\n      jumpi\n        /* \"#utility.yul\":1961:1979   */\n      tag_137\n      tag_87\n      jump\t// in\n    tag_137:\n        /* \"#utility.yul\":1893:1981   */\n    tag_136:\n        /* \"#utility.yul\":2001:2011   */\n      dup1\n        /* \"#utility.yul\":1997:1999   */\n      0x40\n        /* \"#utility.yul\":1990:2012   */\n      mstore\n        /* \"#utility.yul\":1780:2018   */\n      pop\n        /* \"#utility.yul\":1737:2018   */\n      pop\n      pop\n      jump\t// out\n        /* \"#utility.yul\":2024:2153   */\n    tag_89:\n        /* \"#utility.yul\":2058:2064   */\n      0x00\n        /* \"#utility.yul\":2085:2105   */\n      tag_139\n      tag_74\n      jump\t// in\n    tag_139:\n        /* \"#utility.yul\":2075:2105   */\n      swap1\n      pop\n        /* \"#utility.yul\":2114:2147   */\n      tag_140\n        /* \"#utility.yul\":2142:2146   */\n      dup3\n        /* \"#utility.yul\":2134:2140   */\n      dup3\n        /* \"#utility.yul\":2114:2147   */\n      tag_88\n      jump\t// in\n    tag_140:\n        /* \"#utility.yul\":2024:2153   */\n      swap2\n      swap1\n      pop\n      jump\t// out\n        /* \"#utility.yul\":2159:2466   */\n    tag_90:\n        /* \"#utility.yul\":2220:2224   */\n      0x00\n        /* \"#utility.yul\":2310:2328   */\n      0xffffffffffffffff\n        /* \"#utility.yul\":2302:2308   */\n      dup3\n        /* \"#utility.yul\":2299:2329   */\n      gt\n        /* \"#utility.yul\":2296:2352   */\n      iszero\n      tag_142\n      jumpi\n        /* \"#utility.yul\":2332:2350   */\n      tag_143\n      tag_87\n      jump\t// in\n    tag_143:\n        /* \"#utility.yul\":2296:2352   */\n    tag_142:\n        /* \"#utility.yul\":2370:2399   */\n      tag_144\n        /* \"#utility.yul\":2392:2398   */\n      dup3\n        /* \"#utility.yul\":2370:2399   */\n      tag_86\n      jump\t// in\n    tag_144:\n        /* \"#utility.yul\":2362:2399   */\n      swap1\n      pop\n        /* \"#utility.yul\":2454:2458   */\n      0x20\n        /* \"#utility.yul\":2448:2452   */\n      dup2\n        /* \"#utility.yul\":2444:2459   */\n      add\n        /* \"#utility.yul\":2436:2459   */\n      swap1\n      pop\n        /* \"#utility.yul\":2159:2466   */\n      swap2\n      swap1\n      pop\n      jump\t// out\n        /* \"#utility.yul\":2472:2620   */\n    tag_91:\n        /* \"#utility.yul\":2570:2576   */\n      dup3\n        /* \"#utility.yul\":2565:2568   */\n      dup2\n        /* \"#utility.yul\":2560:2563   */\n      dup4\n        /* \"#utility.yul\":2547:2577   */\n      calldatacopy\n        /* \"#utility.yul\":2611:2612   */\n      0x00\n        /* \"#utility.yul\":2602:2608   */\n      dup4\n        /* \"#utility.yul\":2597:2600   */\n      dup4\n        /* \"#utility.yul\":2593:2609   */\n      add\n        /* \"#utility.yul\":2586:2613   */\n      mstore\n        /* \"#utility.yul\":2472:2620   */\n      pop\n      pop\n      pop\n      jump\t// out\n        /* \"#utility.yul\":2626:3049   */\n    tag_92:\n        /* \"#utility.yul\":2703:2708   */\n      0x00\n        /* \"#utility.yul\":2728:2793   */\n      tag_147\n        /* \"#utility.yul\":2744:2792   */\n      tag_148\n        /* \"#utility.yul\":2785:2791   */\n      dup5\n        /* \"#utility.yul\":2744:2792   */\n      tag_90\n      jump\t// in\n    tag_148:\n        /* \"#utility.yul\":2728:2793   */\n      tag_89\n      jump\t// in\n    tag_147:\n        /* \"#utility.yul\":2719:2793   */\n      swap1\n      pop\n        /* \"#utility.yul\":2816:2822   */\n      dup3\n        /* \"#utility.yul\":2809:2814   */\n      dup2\n        /* \"#utility.yul\":2802:2823   */\n      mstore\n        /* \"#utility.yul\":2854:2858   */\n      0x20\n        /* \"#utility.yul\":2847:2852   */\n      dup2\n        /* \"#utility.yul\":2843:2859   */\n      add\n        /* \"#utility.yul\":2892:2895   */\n      dup5\n        /* \"#utility.yul\":2883:2889   */\n      dup5\n        /* \"#utility.yul\":2878:2881   */\n      dup5\n        /* \"#utility.yul\":2874:2890   */\n      add\n        /* \"#utility.yul\":2871:2896   */\n      gt\n        /* \"#utility.yul\":2868:2980   */\n      iszero\n      tag_149\n      jumpi\n        /* \"#utility.yul\":2899:2978   */\n      tag_150\n      tag_85\n      jump\t// in\n    tag_150:\n        /* \"#utility.yul\":2868:2980   */\n    tag_149:\n        /* \"#utility.yul\":2989:3043   */\n      tag_151\n        /* \"#utility.yul\":3036:3042   */\n      dup5\n        /* \"#utility.yul\":3031:3034   */\n      dup3\n        /* \"#utility.yul\":3026:3029   */\n      dup6\n        /* \"#utility.yul\":2989:3043   */\n      tag_91\n      jump\t// in\n    tag_151:\n        /* \"#utility.yul\":2709:3049   */\n      pop\n        /* \"#utility.yul\":2626:3049   */\n      swap4\n      swap3\n      pop\n      pop\n      pop\n      jump\t// out\n        /* \"#utility.yul\":3068:3406   */\n    tag_93:\n        /* \"#utility.yul\":3123:3128   */\n      0x00\n        /* \"#utility.yul\":3172:3175   */\n      dup3\n        /* \"#utility.yul\":3165:3169   */\n      0x1f\n        /* \"#utility.yul\":3157:3163   */\n      dup4\n        /* \"#utility.yul\":3153:3170   */\n      add\n        /* \"#utility.yul\":3149:3176   */\n      slt\n        /* \"#utility.yul\":3139:3261   */\n      tag_153\n      jumpi\n        /* \"#utility.yul\":3180:3259   */\n      tag_154\n      tag_84\n      jump\t// in\n    tag_154:\n        /* \"#utility.yul\":3139:3261   */\n    tag_153:\n        /* \"#utility.yul\":3297:3303   */\n      dup2\n        /* \"#utility.yul\":3284:3304   */\n      calldataload\n        /* \"#utility.yul\":3322:3400   */\n      tag_155\n        /* \"#utility.yul\":3396:3399   */\n      dup5\n        /* \"#utility.yul\":3388:3394   */\n      dup3\n        /* \"#utility.yul\":3381:3385   */\n      0x20\n        /* \"#utility.yul\":3373:3379   */\n      dup7\n        /* \"#utility.yul\":3369:3386   */\n      add\n        /* \"#utility.yul\":3322:3400   */\n      tag_92\n      jump\t// in\n    tag_155:\n        /* \"#utility.yul\":3313:3400   */\n      swap2\n      pop\n        /* \"#utility.yul\":3129:3406   */\n      pop\n        /* \"#utility.yul\":3068:3406   */\n      swap3\n      swap2\n      pop\n      pop\n      jump\t// out\n        /* \"#utility.yul\":3412:4355   */\n    tag_9:\n        /* \"#utility.yul\":3507:3513   */\n      0x00\n        /* \"#utility.yul\":3515:3521   */\n      dup1\n        /* \"#utility.yul\":3523:3529   */\n      0x00\n        /* \"#utility.yul\":3531:3537   */\n      dup1\n        /* \"#utility.yul\":3580:3583   */\n      0x80\n        /* \"#utility.yul\":3568:3577   */\n      dup6\n        /* \"#utility.yul\":3559:3566   */\n      dup8\n        /* \"#utility.yul\":3555:3578   */\n      sub\n        /* \"#utility.yul\":3551:3584   */\n      slt\n        /* \"#utility.yul\":3548:3668   */\n      iszero\n      tag_157\n      jumpi\n        /* \"#utility.yul\":3587:3666   */\n      tag_158\n      tag_75\n      jump\t// in\n    tag_158:\n        /* \"#utility.yul\":3548:3668   */\n    tag_157:\n        /* \"#utility.yul\":3707:3708   */\n      0x00\n        /* \"#utility.yul\":3732:3785   */\n      tag_159\n        /* \"#utility.yul\":3777:3784   */\n      dup8\n        /* \"#utility.yul\":3768:3774   */\n      dup3\n        /* \"#utility.yul\":3757:3766   */\n      dup9\n        /* \"#utility.yul\":3753:3775   */\n      add\n        /* \"#utility.yul\":3732:3785   */\n      tag_80\n      jump\t// in\n    tag_159:\n        /* \"#utility.yul\":3722:3785   */\n      swap5\n      pop\n        /* \"#utility.yul\":3678:3795   */\n      pop\n        /* \"#utility.yul\":3834:3836   */\n      0x20\n        /* \"#utility.yul\":3860:3913   */\n      tag_160\n        /* \"#utility.yul\":3905:3912   */\n      dup8\n        /* \"#utility.yul\":3896:3902   */\n      dup3\n        /* \"#utility.yul\":3885:3894   */\n      dup9\n        /* \"#utility.yul\":3881:3903   */\n      add\n        /* \"#utility.yul\":3860:3913   */\n      tag_80\n      jump\t// in\n    tag_160:\n        /* \"#utility.yul\":3850:3913   */\n      swap4\n      pop\n        /* \"#utility.yul\":3805:3923   */\n      pop\n        /* \"#utility.yul\":3962:3964   */\n      0x40\n        /* \"#utility.yul\":3988:4041   */\n      tag_161\n        /* \"#utility.yul\":4033:4040   */\n      dup8\n        /* \"#utility.yul\":4024:4030   */\n      dup3\n        /* \"#utility.yul\":4013:4022   */\n      dup9\n        /* \"#utility.yul\":4009:4031   */\n      add\n        /* \"#utility.yul\":3988:4041   */\n      tag_83\n      jump\t// in\n    tag_161:\n        /* \"#utility.yul\":3978:4041   */\n      swap3\n      pop\n        /* \"#utility.yul\":3933:4051   */\n      pop\n        /* \"#utility.yul\":4118:4120   */\n      0x60\n        /* \"#utility.yul\":4107:4116   */\n      dup6\n        /* \"#utility.yul\":4103:4121   */\n      add\n        /* \"#utility.yul\":4090:4122   */\n      calldataload\n        /* \"#utility.yul\":4149:4167   */\n      0xffffffffffffffff\n        /* \"#utility.yul\":4141:4147   */\n      dup2\n        /* \"#utility.yul\":4138:4168   */\n      gt\n        /* \"#utility.yul\":4135:4252   */\n      iszero\n      tag_162\n      jumpi\n        /* \"#utility.yul\":4171:4250   */\n      tag_163\n      tag_76\n      jump\t// in\n    tag_163:\n        /* \"#utility.yul\":4135:4252   */\n    tag_162:\n        /* \"#utility.yul\":4276:4338   */\n      tag_164\n        /* \"#utility.yul\":4330:4337   */\n      dup8\n        /* \"#utility.yul\":4321:4327   */\n      dup3\n        /* \"#utility.yul\":4310:4319   */\n      dup9\n        /* \"#utility.yul\":4306:4328   */\n      add\n        /* \"#utility.yul\":4276:4338   */\n      tag_93\n      jump\t// in\n    tag_164:\n        /* \"#utility.yul\":4266:4338   */\n      swap2\n      pop\n        /* \"#utility.yul\":4061:4348   */\n      pop\n        /* \"#utility.yul\":3412:4355   */\n      swap3\n      swap6\n      swap2\n      swap5\n      pop\n      swap3\n      pop\n      jump\t// out\n        /* \"#utility.yul\":4361:4510   */\n    tag_94:\n        /* \"#utility.yul\":4397:4404   */\n      0x00\n        /* \"#utility.yul\":4437:4503   */\n      0xffffffff00000000000000000000000000000000000000000000000000000000\n        /* \"#utility.yul\":4430:4435   */\n      dup3\n        /* \"#utility.yul\":4426:4504   */\n      and\n        /* \"#utility.yul\":4415:4504   */\n      swap1\n      pop\n        /* \"#utility.yul\":4361:4510   */\n      swap2\n      swap1\n      pop\n      jump\t// out\n        /* \"#utility.yul\":4516:4631   */\n    tag_95:\n        /* \"#utility.yul\":4601:4624   */\n      tag_167\n        /* \"#utility.yul\":4618:4623   */\n      dup2\n        /* \"#utility.yul\":4601:4624   */\n      tag_94\n      jump\t// in\n    tag_167:\n        /* \"#utility.yul\":4596:4599   */\n      dup3\n        /* \"#utility.yul\":4589:4625   */\n      mstore\n        /* \"#utility.yul\":4516:4631   */\n      pop\n      pop\n      jump\t// out\n        /* \"#utility.yul\":4637:4855   */\n    tag_12:\n        /* \"#utility.yul\":4728:4732   */\n      0x00\n        /* \"#utility.yul\":4766:4768   */\n      0x20\n        /* \"#utility.yul\":4755:4764   */\n      dup3\n        /* \"#utility.yul\":4751:4769   */\n      add\n        /* \"#utility.yul\":4743:4769   */\n      swap1\n      pop\n        /* \"#utility.yul\":4779:4848   */\n      tag_169\n        /* \"#utility.yul\":4845:4846   */\n      0x00\n        /* \"#utility.yul\":4834:4843   */\n      dup4\n        /* \"#utility.yul\":4830:4847   */\n      add\n        /* \"#utility.yul\":4821:4827   */\n      dup5\n        /* \"#utility.yul\":4779:4848   */\n      tag_95\n      jump\t// in\n    tag_169:\n        /* \"#utility.yul\":4637:4855   */\n      swap3\n      swap2\n      pop\n      pop\n      jump\t// out\n        /* \"#utility.yul\":4861:5190   */\n    tag_15:\n        /* \"#utility.yul\":4920:4926   */\n      0x00\n        /* \"#utility.yul\":4969:4971   */\n      0x20\n        /* \"#utility.yul\":4957:4966   */\n      dup3\n        /* \"#utility.yul\":4948:4955   */\n      dup5\n        /* \"#utility.yul\":4944:4967   */\n      sub\n        /* \"#utility.yul\":4940:4972   */\n      slt\n        /* \"#utility.yul\":4937:5056   */\n      iszero\n      tag_171\n      jumpi\n        /* \"#utility.yul\":4975:5054   */\n      tag_172\n      tag_75\n      jump\t// in\n    tag_172:\n        /* \"#utility.yul\":4937:5056   */\n    tag_171:\n        /* \"#utility.yul\":5095:5096   */\n      0x00\n        /* \"#utility.yul\":5120:5173   */\n      tag_173\n        /* \"#utility.yul\":5165:5172   */\n      dup5\n        /* \"#utility.yul\":5156:5162   */\n      dup3\n        /* \"#utility.yul\":5145:5154   */\n      dup6\n        /* \"#utility.yul\":5141:5163   */\n      add\n        /* \"#utility.yul\":5120:5173   */\n      tag_83\n      jump\t// in\n    tag_173:\n        /* \"#utility.yul\":5110:5173   */\n      swap2\n      pop\n        /* \"#utility.yul\":5066:5183   */\n      pop\n        /* \"#utility.yul\":4861:5190   */\n      swap3\n      swap2\n      pop\n      pop\n      jump\t// out\n        /* \"#utility.yul\":5196:5670   */\n    tag_19:\n        /* \"#utility.yul\":5264:5270   */\n      0x00\n        /* \"#utility.yul\":5272:5278   */\n      dup1\n        /* \"#utility.yul\":5321:5323   */\n      0x40\n        /* \"#utility.yul\":5309:5318   */\n      dup4\n        /* \"#utility.yul\":5300:5307   */\n      dup6\n        /* \"#utility.yul\":5296:5319   */\n      sub\n        /* \"#utility.yul\":5292:5324   */\n      slt\n        /* \"#utility.yul\":5289:5408   */\n      iszero\n      tag_175\n      jumpi\n        /* \"#utility.yul\":5327:5406   */\n      tag_176\n      tag_75\n      jump\t// in\n    tag_176:\n        /* \"#utility.yul\":5289:5408   */\n    tag_175:\n        /* \"#utility.yul\":5447:5448   */\n      0x00\n        /* \"#utility.yul\":5472:5525   */\n      tag_177\n        /* \"#utility.yul\":5517:5524   */\n      dup6\n        /* \"#utility.yul\":5508:5514   */\n      dup3\n        /* \"#utility.yul\":5497:5506   */\n      dup7\n        /* \"#utility.yul\":5493:5515   */\n      add\n        /* \"#utility.yul\":5472:5525   */\n      tag_80\n      jump\t// in\n    tag_177:\n        /* \"#utility.yul\":5462:5525   */\n      swap3\n      pop\n        /* \"#utility.yul\":5418:5535   */\n      pop\n        /* \"#utility.yul\":5574:5576   */\n      0x20\n        /* \"#utility.yul\":5600:5653   */\n      tag_178\n        /* \"#utility.yul\":5645:5652   */\n      dup6\n        /* \"#utility.yul\":5636:5642   */\n      dup3\n        /* \"#utility.yul\":5625:5634   */\n      dup7\n        /* \"#utility.yul\":5621:5643   */\n      add\n        /* \"#utility.yul\":5600:5653   */\n      tag_83\n      jump\t// in\n    tag_178:\n        /* \"#utility.yul\":5590:5653   */\n      swap2\n      pop\n        /* \"#utility.yul\":5545:5663   */\n      pop\n        /* \"#utility.yul\":5196:5670   */\n      swap3\n      pop\n      swap3\n      swap1\n      pop\n      jump\t// out\n        /* \"#utility.yul\":5676:5794   */\n    tag_96:\n        /* \"#utility.yul\":5763:5787   */\n      tag_180\n        /* \"#utility.yul\":5781:5786   */\n      dup2\n        /* \"#utility.yul\":5763:5787   */\n      tag_81\n      jump\t// in\n    tag_180:\n        /* \"#utility.yul\":5758:5761   */\n      dup3\n        /* \"#utility.yul\":5751:5788   */\n      mstore\n        /* \"#utility.yul\":5676:5794   */\n      pop\n      pop\n      jump\t// out\n        /* \"#utility.yul\":5800:6022   */\n    tag_22:\n        /* \"#utility.yul\":5893:5897   */\n      0x00\n        /* \"#utility.yul\":5931:5933   */\n      0x20\n        /* \"#utility.yul\":5920:5929   */\n      dup3\n        /* \"#utility.yul\":5916:5934   */\n      add\n        /* \"#utility.yul\":5908:5934   */\n      swap1\n      pop\n        /* \"#utility.yul\":5944:6015   */\n      tag_182\n        /* \"#utility.yul\":6012:6013   */\n      0x00\n        /* \"#utility.yul\":6001:6010   */\n      dup4\n        /* \"#utility.yul\":5997:6014   */\n      add\n        /* \"#utility.yul\":5988:5994   */\n      dup5\n        /* \"#utility.yul\":5944:6015   */\n      tag_96\n      jump\t// in\n    tag_182:\n        /* \"#utility.yul\":5800:6022   */\n      swap3\n      swap2\n      pop\n      pop\n      jump\t// out\n        /* \"#utility.yul\":6028:6146   */\n    tag_97:\n        /* \"#utility.yul\":6115:6139   */\n      tag_184\n        /* \"#utility.yul\":6133:6138   */\n      dup2\n        /* \"#utility.yul\":6115:6139   */\n      tag_78\n      jump\t// in\n    tag_184:\n        /* \"#utility.yul\":6110:6113   */\n      dup3\n        /* \"#utility.yul\":6103:6140   */\n      mstore\n        /* \"#utility.yul\":6028:6146   */\n      pop\n      pop\n      jump\t// out\n        /* \"#utility.yul\":6152:6320   */\n    tag_98:\n        /* \"#utility.yul\":6235:6246   */\n      0x00\n        /* \"#utility.yul\":6269:6275   */\n      dup3\n        /* \"#utility.yul\":6264:6267   */\n      dup3\n        /* \"#utility.yul\":6257:6276   */\n      mstore\n        /* \"#utility.yul\":6309:6313   */\n      0x20\n        /* \"#utility.yul\":6304:6307   */\n      dup3\n        /* \"#utility.yul\":6300:6314   */\n      add\n        /* \"#utility.yul\":6285:6314   */\n      swap1\n      pop\n        /* \"#utility.yul\":6152:6320   */\n      swap3\n      swap2\n      pop\n      pop\n      jump\t// out\n        /* \"#utility.yul\":6326:6440   */\n    tag_99:\n      pop\n      jump\t// out\n        /* \"#utility.yul\":6446:6808   */\n    tag_100:\n        /* \"#utility.yul\":6587:6590   */\n      0x00\n        /* \"#utility.yul\":6608:6673   */\n      tag_188\n        /* \"#utility.yul\":6671:6672   */\n      0x00\n        /* \"#utility.yul\":6666:6669   */\n      dup4\n        /* \"#utility.yul\":6608:6673   */\n      tag_98\n      jump\t// in\n    tag_188:\n        /* \"#utility.yul\":6601:6673   */\n      swap2\n      pop\n        /* \"#utility.yul\":6682:6775   */\n      tag_189\n        /* \"#utility.yul\":6771:6774   */\n      dup3\n        /* \"#utility.yul\":6682:6775   */\n      tag_99\n      jump\t// in\n    tag_189:\n        /* \"#utility.yul\":6800:6801   */\n      0x00\n        /* \"#utility.yul\":6795:6798   */\n      dup3\n        /* \"#utility.yul\":6791:6802   */\n      add\n        /* \"#utility.yul\":6784:6802   */\n      swap1\n      pop\n        /* \"#utility.yul\":6446:6808   */\n      swap2\n      swap1\n      pop\n      jump\t// out\n        /* \"#utility.yul\":6814:7562   */\n    tag_31:\n        /* \"#utility.yul\":7063:7067   */\n      0x00\n        /* \"#utility.yul\":7101:7104   */\n      0x80\n        /* \"#utility.yul\":7090:7099   */\n      dup3\n        /* \"#utility.yul\":7086:7105   */\n      add\n        /* \"#utility.yul\":7078:7105   */\n      swap1\n      pop\n        /* \"#utility.yul\":7115:7186   */\n      tag_191\n        /* \"#utility.yul\":7183:7184   */\n      0x00\n        /* \"#utility.yul\":7172:7181   */\n      dup4\n        /* \"#utility.yul\":7168:7185   */\n      add\n        /* \"#utility.yul\":7159:7165   */\n      dup7\n        /* \"#utility.yul\":7115:7186   */\n      tag_97\n      jump\t// in\n    tag_191:\n        /* \"#utility.yul\":7196:7268   */\n      tag_192\n        /* \"#utility.yul\":7264:7266   */\n      0x20\n        /* \"#utility.yul\":7253:7262   */\n      dup4\n        /* \"#utility.yul\":7249:7267   */\n      add\n        /* \"#utility.yul\":7240:7246   */\n      dup6\n        /* \"#utility.yul\":7196:7268   */\n      tag_97\n      jump\t// in\n    tag_192:\n        /* \"#utility.yul\":7278:7350   */\n      tag_193\n        /* \"#utility.yul\":7346:7348   */\n      0x40\n        /* \"#utility.yul\":7335:7344   */\n      dup4\n        /* \"#utility.yul\":7331:7349   */\n      add\n        /* \"#utility.yul\":7322:7328   */\n      dup5\n        /* \"#utility.yul\":7278:7350   */\n      tag_96\n      jump\t// in\n    tag_193:\n        /* \"#utility.yul\":7397:7406   */\n      dup2\n        /* \"#utility.yul\":7391:7395   */\n      dup2\n        /* \"#utility.yul\":7387:7407   */\n      sub\n        /* \"#utility.yul\":7382:7384   */\n      0x60\n        /* \"#utility.yul\":7371:7380   */\n      dup4\n        /* \"#utility.yul\":7367:7385   */\n      add\n        /* \"#utility.yul\":7360:7408   */\n      mstore\n        /* \"#utility.yul\":7425:7555   */\n      tag_194\n        /* \"#utility.yul\":7550:7554   */\n      dup2\n        /* \"#utility.yul\":7425:7555   */\n      tag_100\n      jump\t// in\n    tag_194:\n        /* \"#utility.yul\":7417:7555   */\n      swap1\n      pop\n        /* \"#utility.yul\":6814:7562   */\n      swap5\n      swap4\n      pop\n      pop\n      pop\n      pop\n      jump\t// out\n        /* \"#utility.yul\":7568:7900   */\n    tag_36:\n        /* \"#utility.yul\":7689:7693   */\n      0x00\n        /* \"#utility.yul\":7727:7729   */\n      0x40\n        /* \"#utility.yul\":7716:7725   */\n      dup3\n        /* \"#utility.yul\":7712:7730   */\n      add\n        /* \"#utility.yul\":7704:7730   */\n      swap1\n      pop\n        /* \"#utility.yul\":7740:7811   */\n      tag_196\n        /* \"#utility.yul\":7808:7809   */\n      0x00\n        /* \"#utility.yul\":7797:7806   */\n      dup4\n        /* \"#utility.yul\":7793:7810   */\n      add\n        /* \"#utility.yul\":7784:7790   */\n      dup6\n        /* \"#utility.yul\":7740:7811   */\n      tag_97\n      jump\t// in\n    tag_196:\n        /* \"#utility.yul\":7821:7893   */\n      tag_197\n        /* \"#utility.yul\":7889:7891   */\n      0x20\n        /* \"#utility.yul\":7878:7887   */\n      dup4\n        /* \"#utility.yul\":7874:7892   */\n      add\n        /* \"#utility.yul\":7865:7871   */\n      dup5\n        /* \"#utility.yul\":7821:7893   */\n      tag_96\n      jump\t// in\n    tag_197:\n        /* \"#utility.yul\":7568:7900   */\n      swap4\n      swap3\n      pop\n      pop\n      pop\n      jump\t// out\n        /* \"#utility.yul\":7906:7996   */\n    tag_101:\n        /* \"#utility.yul\":7940:7947   */\n      0x00\n        /* \"#utility.yul\":7983:7988   */\n      dup2\n        /* \"#utility.yul\":7976:7989   */\n      iszero\n        /* \"#utility.yul\":7969:7990   */\n      iszero\n        /* \"#utility.yul\":7958:7990   */\n      swap1\n      pop\n        /* \"#utility.yul\":7906:7996   */\n      swap2\n      swap1\n      pop\n      jump\t// out\n        /* \"#utility.yul\":8002:8118   */\n    tag_102:\n        /* \"#utility.yul\":8072:8093   */\n      tag_200\n        /* \"#utility.yul\":8087:8092   */\n      dup2\n        /* \"#utility.yul\":8072:8093   */\n      tag_101\n      jump\t// in\n    tag_200:\n        /* \"#utility.yul\":8065:8070   */\n      dup2\n        /* \"#utility.yul\":8062:8094   */\n      eq\n        /* \"#utility.yul\":8052:8112   */\n      tag_201\n      jumpi\n        /* \"#utility.yul\":8108:8109   */\n      0x00\n        /* \"#utility.yul\":8105:8106   */\n      dup1\n        /* \"#utility.yul\":8098:8110   */\n      revert\n        /* \"#utility.yul\":8052:8112   */\n    tag_201:\n        /* \"#utility.yul\":8002:8118   */\n      pop\n      jump\t// out\n        /* \"#utility.yul\":8124:8261   */\n    tag_103:\n        /* \"#utility.yul\":8178:8183   */\n      0x00\n        /* \"#utility.yul\":8209:8215   */\n      dup2\n        /* \"#utility.yul\":8203:8216   */\n      mload\n        /* \"#utility.yul\":8194:8216   */\n      swap1\n      pop\n        /* \"#utility.yul\":8225:8255   */\n      tag_203\n        /* \"#utility.yul\":8249:8254   */\n      dup2\n        /* \"#utility.yul\":8225:8255   */\n      tag_102\n      jump\t// in\n    tag_203:\n        /* \"#utility.yul\":8124:8261   */\n      swap3\n      swap2\n      pop\n      pop\n      jump\t// out\n        /* \"#utility.yul\":8267:8612   */\n    tag_40:\n        /* \"#utility.yul\":8334:8340   */\n      0x00\n        /* \"#utility.yul\":8383:8385   */\n      0x20\n        /* \"#utility.yul\":8371:8380   */\n      dup3\n        /* \"#utility.yul\":8362:8369   */\n      dup5\n        /* \"#utility.yul\":8358:8381   */\n      sub\n        /* \"#utility.yul\":8354:8386   */\n      slt\n        /* \"#utility.yul\":8351:8470   */\n      iszero\n      tag_205\n      jumpi\n        /* \"#utility.yul\":8389:8468   */\n      tag_206\n      tag_75\n      jump\t// in\n    tag_206:\n        /* \"#utility.yul\":8351:8470   */\n    tag_205:\n        /* \"#utility.yul\":8509:8510   */\n      0x00\n        /* \"#utility.yul\":8534:8595   */\n      tag_207\n        /* \"#utility.yul\":8587:8594   */\n      dup5\n        /* \"#utility.yul\":8578:8584   */\n      dup3\n        /* \"#utility.yul\":8567:8576   */\n      dup6\n        /* \"#utility.yul\":8563:8585   */\n      add\n        /* \"#utility.yul\":8534:8595   */\n      tag_103\n      jump\t// in\n    tag_207:\n        /* \"#utility.yul\":8524:8595   */\n      swap2\n      pop\n        /* \"#utility.yul\":8480:8605   */\n      pop\n        /* \"#utility.yul\":8267:8612   */\n      swap3\n      swap2\n      pop\n      pop\n      jump\t// out\n        /* \"#utility.yul\":8618:8761   */\n    tag_104:\n        /* \"#utility.yul\":8675:8680   */\n      0x00\n        /* \"#utility.yul\":8706:8712   */\n      dup2\n        /* \"#utility.yul\":8700:8713   */\n      mload\n        /* \"#utility.yul\":8691:8713   */\n      swap1\n      pop\n        /* \"#utility.yul\":8722:8755   */\n      tag_209\n        /* \"#utility.yul\":8749:8754   */\n      dup2\n        /* \"#utility.yul\":8722:8755   */\n      tag_79\n      jump\t// in\n    tag_209:\n        /* \"#utility.yul\":8618:8761   */\n      swap3\n      swap2\n      pop\n      pop\n      jump\t// out\n        /* \"#utility.yul\":8767:9118   */\n    tag_46:\n        /* \"#utility.yul\":8837:8843   */\n      0x00\n        /* \"#utility.yul\":8886:8888   */\n      0x20\n        /* \"#utility.yul\":8874:8883   */\n      dup3\n        /* \"#utility.yul\":8865:8872   */\n      dup5\n        /* \"#utility.yul\":8861:8884   */\n      sub\n        /* \"#utility.yul\":8857:8889   */\n      slt\n        /* \"#utility.yul\":8854:8973   */\n      iszero\n      tag_211\n      jumpi\n        /* \"#utility.yul\":8892:8971   */\n      tag_212\n      tag_75\n      jump\t// in\n    tag_212:\n        /* \"#utility.yul\":8854:8973   */\n    tag_211:\n        /* \"#utility.yul\":9012:9013   */\n      0x00\n        /* \"#utility.yul\":9037:9101   */\n      tag_213\n        /* \"#utility.yul\":9093:9100   */\n      dup5\n        /* \"#utility.yul\":9084:9090   */\n      dup3\n        /* \"#utility.yul\":9073:9082   */\n      dup6\n        /* \"#utility.yul\":9069:9091   */\n      add\n        /* \"#utility.yul\":9037:9101   */\n      tag_104\n      jump\t// in\n    tag_213:\n        /* \"#utility.yul\":9027:9101   */\n      swap2\n      pop\n        /* \"#utility.yul\":8983:9111   */\n      pop\n        /* \"#utility.yul\":8767:9118   */\n      swap3\n      swap2\n      pop\n      pop\n      jump\t// out\n        /* \"#utility.yul\":9124:9293   */\n    tag_105:\n        /* \"#utility.yul\":9208:9219   */\n      0x00\n        /* \"#utility.yul\":9242:9248   */\n      dup3\n        /* \"#utility.yul\":9237:9240   */\n      dup3\n        /* \"#utility.yul\":9230:9249   */\n      mstore\n        /* \"#utility.yul\":9282:9286   */\n      0x20\n        /* \"#utility.yul\":9277:9280   */\n      dup3\n        /* \"#utility.yul\":9273:9287   */\n      add\n        /* \"#utility.yul\":9258:9287   */\n      swap1\n      pop\n        /* \"#utility.yul\":9124:9293   */\n      swap3\n      swap2\n      pop\n      pop\n      jump\t// out\n        /* \"#utility.yul\":9299:9471   */\n    tag_106:\n        /* \"#utility.yul\":9439:9463   */\n      0x596f7520646f6e2774206f776e2074686973204e465400000000000000000000\n        /* \"#utility.yul\":9435:9436   */\n      0x00\n        /* \"#utility.yul\":9427:9433   */\n      dup3\n        /* \"#utility.yul\":9423:9437   */\n      add\n        /* \"#utility.yul\":9416:9464   */\n      mstore\n        /* \"#utility.yul\":9299:9471   */\n      pop\n      jump\t// out\n        /* \"#utility.yul\":9477:9843   */\n    tag_107:\n        /* \"#utility.yul\":9619:9622   */\n      0x00\n        /* \"#utility.yul\":9640:9707   */\n      tag_217\n        /* \"#utility.yul\":9704:9706   */\n      0x16\n        /* \"#utility.yul\":9699:9702   */\n      dup4\n        /* \"#utility.yul\":9640:9707   */\n      tag_105\n      jump\t// in\n    tag_217:\n        /* \"#utility.yul\":9633:9707   */\n      swap2\n      pop\n        /* \"#utility.yul\":9716:9809   */\n      tag_218\n        /* \"#utility.yul\":9805:9808   */\n      dup3\n        /* \"#utility.yul\":9716:9809   */\n      tag_106\n      jump\t// in\n    tag_218:\n        /* \"#utility.yul\":9834:9836   */\n      0x20\n        /* \"#utility.yul\":9829:9832   */\n      dup3\n        /* \"#utility.yul\":9825:9837   */\n      add\n        /* \"#utility.yul\":9818:9837   */\n      swap1\n      pop\n        /* \"#utility.yul\":9477:9843   */\n      swap2\n      swap1\n      pop\n      jump\t// out\n        /* \"#utility.yul\":9849:10268   */\n    tag_49:\n        /* \"#utility.yul\":10015:10019   */\n      0x00\n        /* \"#utility.yul\":10053:10055   */\n      0x20\n        /* \"#utility.yul\":10042:10051   */\n      dup3\n        /* \"#utility.yul\":10038:10056   */\n      add\n        /* \"#utility.yul\":10030:10056   */\n      swap1\n      pop\n        /* \"#utility.yul\":10102:10111   */\n      dup2\n        /* \"#utility.yul\":10096:10100   */\n      dup2\n        /* \"#utility.yul\":10092:10112   */\n      sub\n        /* \"#utility.yul\":10088:10089   */\n      0x00\n        /* \"#utility.yul\":10077:10086   */\n      dup4\n        /* \"#utility.yul\":10073:10090   */\n      add\n        /* \"#utility.yul\":10066:10113   */\n      mstore\n        /* \"#utility.yul\":10130:10261   */\n      tag_220\n        /* \"#utility.yul\":10256:10260   */\n      dup2\n        /* \"#utility.yul\":10130:10261   */\n      tag_107\n      jump\t// in\n    tag_220:\n        /* \"#utility.yul\":10122:10261   */\n      swap1\n      pop\n        /* \"#utility.yul\":9849:10268   */\n      swap2\n      swap1\n      pop\n      jump\t// out\n        /* \"#utility.yul\":10274:10447   */\n    tag_108:\n        /* \"#utility.yul\":10414:10439   */\n      0x4e667420686173206e6f74206265656e207374616b6564000000000000000000\n        /* \"#utility.yul\":10410:10411   */\n      0x00\n        /* \"#utility.yul\":10402:10408   */\n      dup3\n        /* \"#utility.yul\":10398:10412   */\n      add\n        /* \"#utility.yul\":10391:10440   */\n      mstore\n        /* \"#utility.yul\":10274:10447   */\n      pop\n      jump\t// out\n        /* \"#utility.yul\":10453:10819   */\n    tag_109:\n        /* \"#utility.yul\":10595:10598   */\n      0x00\n        /* \"#utility.yul\":10616:10683   */\n      tag_223\n        /* \"#utility.yul\":10680:10682   */\n      0x17\n        /* \"#utility.yul\":10675:10678   */\n      dup4\n        /* \"#utility.yul\":10616:10683   */\n      tag_105\n      jump\t// in\n    tag_223:\n        /* \"#utility.yul\":10609:10683   */\n      swap2\n      pop\n        /* \"#utility.yul\":10692:10785   */\n      tag_224\n        /* \"#utility.yul\":10781:10784   */\n      dup3\n        /* \"#utility.yul\":10692:10785   */\n      tag_108\n      jump\t// in\n    tag_224:\n        /* \"#utility.yul\":10810:10812   */\n      0x20\n        /* \"#utility.yul\":10805:10808   */\n      dup3\n        /* \"#utility.yul\":10801:10813   */\n      add\n        /* \"#utility.yul\":10794:10813   */\n      swap1\n      pop\n        /* \"#utility.yul\":10453:10819   */\n      swap2\n      swap1\n      pop\n      jump\t// out\n        /* \"#utility.yul\":10825:11244   */\n    tag_57:\n        /* \"#utility.yul\":10991:10995   */\n      0x00\n        /* \"#utility.yul\":11029:11031   */\n      0x20\n        /* \"#utility.yul\":11018:11027   */\n      dup3\n        /* \"#utility.yul\":11014:11032   */\n      add\n        /* \"#utility.yul\":11006:11032   */\n      swap1\n      pop\n        /* \"#utility.yul\":11078:11087   */\n      dup2\n        /* \"#utility.yul\":11072:11076   */\n      dup2\n        /* \"#utility.yul\":11068:11088   */\n      sub\n        /* \"#utility.yul\":11064:11065   */\n      0x00\n        /* \"#utility.yul\":11053:11062   */\n      dup4\n        /* \"#utility.yul\":11049:11066   */\n      add\n        /* \"#utility.yul\":11042:11089   */\n      mstore\n        /* \"#utility.yul\":11106:11237   */\n      tag_226\n        /* \"#utility.yul\":11232:11236   */\n      dup2\n        /* \"#utility.yul\":11106:11237   */\n      tag_109\n      jump\t// in\n    tag_226:\n        /* \"#utility.yul\":11098:11237   */\n      swap1\n      pop\n        /* \"#utility.yul\":10825:11244   */\n      swap2\n      swap1\n      pop\n      jump\t// out\n        /* \"#utility.yul\":11250:11430   */\n    tag_110:\n        /* \"#utility.yul\":11298:11375   */\n      0x4e487b7100000000000000000000000000000000000000000000000000000000\n        /* \"#utility.yul\":11295:11296   */\n      0x00\n        /* \"#utility.yul\":11288:11376   */\n      mstore\n        /* \"#utility.yul\":11395:11399   */\n      0x11\n        /* \"#utility.yul\":11392:11393   */\n      0x04\n        /* \"#utility.yul\":11385:11400   */\n      mstore\n        /* \"#utility.yul\":11419:11423   */\n      0x24\n        /* \"#utility.yul\":11416:11417   */\n      0x00\n        /* \"#utility.yul\":11409:11424   */\n      revert\n        /* \"#utility.yul\":11436:11630   */\n    tag_59:\n        /* \"#utility.yul\":11476:11480   */\n      0x00\n        /* \"#utility.yul\":11496:11516   */\n      tag_229\n        /* \"#utility.yul\":11514:11515   */\n      dup3\n        /* \"#utility.yul\":11496:11516   */\n      tag_81\n      jump\t// in\n    tag_229:\n        /* \"#utility.yul\":11491:11516   */\n      swap2\n      pop\n        /* \"#utility.yul\":11530:11550   */\n      tag_230\n        /* \"#utility.yul\":11548:11549   */\n      dup4\n        /* \"#utility.yul\":11530:11550   */\n      tag_81\n      jump\t// in\n    tag_230:\n        /* \"#utility.yul\":11525:11550   */\n      swap3\n      pop\n        /* \"#utility.yul\":11574:11575   */\n      dup3\n        /* \"#utility.yul\":11571:11572   */\n      dup3\n        /* \"#utility.yul\":11567:11576   */\n      sub\n        /* \"#utility.yul\":11559:11576   */\n      swap1\n      pop\n        /* \"#utility.yul\":11598:11599   */\n      dup2\n        /* \"#utility.yul\":11592:11596   */\n      dup2\n        /* \"#utility.yul\":11589:11600   */\n      gt\n        /* \"#utility.yul\":11586:11623   */\n      iszero\n      tag_231\n      jumpi\n        /* \"#utility.yul\":11603:11621   */\n      tag_232\n      tag_110\n      jump\t// in\n    tag_232:\n        /* \"#utility.yul\":11586:11623   */\n    tag_231:\n        /* \"#utility.yul\":11436:11630   */\n      swap3\n      swap2\n      pop\n      pop\n      jump\t// out\n        /* \"#utility.yul\":11636:12046   */\n    tag_63:\n        /* \"#utility.yul\":11676:11683   */\n      0x00\n        /* \"#utility.yul\":11699:11719   */\n      tag_234\n        /* \"#utility.yul\":11717:11718   */\n      dup3\n        /* \"#utility.yul\":11699:11719   */\n      tag_81\n      jump\t// in\n    tag_234:\n        /* \"#utility.yul\":11694:11719   */\n      swap2\n      pop\n        /* \"#utility.yul\":11733:11753   */\n      tag_235\n        /* \"#utility.yul\":11751:11752   */\n      dup4\n        /* \"#utility.yul\":11733:11753   */\n      tag_81\n      jump\t// in\n    tag_235:\n        /* \"#utility.yul\":11728:11753   */\n      swap3\n      pop\n        /* \"#utility.yul\":11788:11789   */\n      dup3\n        /* \"#utility.yul\":11785:11786   */\n      dup3\n        /* \"#utility.yul\":11781:11790   */\n      mul\n        /* \"#utility.yul\":11810:11840   */\n      tag_236\n        /* \"#utility.yul\":11828:11839   */\n      dup2\n        /* \"#utility.yul\":11810:11840   */\n      tag_81\n      jump\t// in\n    tag_236:\n        /* \"#utility.yul\":11799:11840   */\n      swap2\n      pop\n        /* \"#utility.yul\":11989:11990   */\n      dup3\n        /* \"#utility.yul\":11980:11987   */\n      dup3\n        /* \"#utility.yul\":11976:11991   */\n      div\n        /* \"#utility.yul\":11973:11974   */\n      dup5\n        /* \"#utility.yul\":11970:11992   */\n      eq\n        /* \"#utility.yul\":11950:11951   */\n      dup4\n        /* \"#utility.yul\":11943:11952   */\n      iszero\n        /* \"#utility.yul\":11923:12006   */\n      or\n        /* \"#utility.yul\":11900:12039   */\n      tag_237\n      jumpi\n        /* \"#utility.yul\":12019:12037   */\n      tag_238\n      tag_110\n      jump\t// in\n    tag_238:\n        /* \"#utility.yul\":11900:12039   */\n    tag_237:\n        /* \"#utility.yul\":11684:12046   */\n      pop\n        /* \"#utility.yul\":11636:12046   */\n      swap3\n      swap2\n      pop\n      pop\n      jump\t// out\n        /* \"#utility.yul\":12052:12232   */\n    tag_111:\n        /* \"#utility.yul\":12100:12177   */\n      0x4e487b7100000000000000000000000000000000000000000000000000000000\n        /* \"#utility.yul\":12097:12098   */\n      0x00\n        /* \"#utility.yul\":12090:12178   */\n      mstore\n        /* \"#utility.yul\":12197:12201   */\n      0x12\n        /* \"#utility.yul\":12194:12195   */\n      0x04\n        /* \"#utility.yul\":12187:12202   */\n      mstore\n        /* \"#utility.yul\":12221:12225   */\n      0x24\n        /* \"#utility.yul\":12218:12219   */\n      0x00\n        /* \"#utility.yul\":12211:12226   */\n      revert\n        /* \"#utility.yul\":12238:12423   */\n    tag_66:\n        /* \"#utility.yul\":12278:12279   */\n      0x00\n        /* \"#utility.yul\":12295:12315   */\n      tag_241\n        /* \"#utility.yul\":12313:12314   */\n      dup3\n        /* \"#utility.yul\":12295:12315   */\n      tag_81\n      jump\t// in\n    tag_241:\n        /* \"#utility.yul\":12290:12315   */\n      swap2\n      pop\n        /* \"#utility.yul\":12329:12349   */\n      tag_242\n        /* \"#utility.yul\":12347:12348   */\n      dup4\n        /* \"#utility.yul\":12329:12349   */\n      tag_81\n      jump\t// in\n    tag_242:\n        /* \"#utility.yul\":12324:12349   */\n      swap3\n      pop\n        /* \"#utility.yul\":12368:12369   */\n      dup3\n        /* \"#utility.yul\":12358:12393   */\n      tag_243\n      jumpi\n        /* \"#utility.yul\":12373:12391   */\n      tag_244\n      tag_111\n      jump\t// in\n    tag_244:\n        /* \"#utility.yul\":12358:12393   */\n    tag_243:\n        /* \"#utility.yul\":12415:12416   */\n      dup3\n        /* \"#utility.yul\":12412:12413   */\n      dup3\n        /* \"#utility.yul\":12408:12417   */\n      div\n        /* \"#utility.yul\":12403:12417   */\n      swap1\n      pop\n        /* \"#utility.yul\":12238:12423   */\n      swap3\n      swap2\n      pop\n      pop\n      jump\t// out\n\n    auxdata: 0xa2646970667358221220c18141fa4914bf0459fa4aac3ff57a75d2222489519cd7f61eb87e8ebbc9307564736f6c63430008190033\n}\n",
				"bytecode": {
					"linkReferences": {},
					"object": "60c060405234801561000f575f80fd5b50604051610df4380380610df4833981810160405281019061003191906100fe565b8173ffffffffffffffffffffffffffffffffffffffff1660808173ffffffffffffffffffffffffffffffffffffffff16815250508073ffffffffffffffffffffffffffffffffffffffff1660a08173ffffffffffffffffffffffffffffffffffffffff1681525050505061013c565b5f80fd5b5f73ffffffffffffffffffffffffffffffffffffffff82169050919050565b5f6100cd826100a4565b9050919050565b6100dd816100c3565b81146100e7575f80fd5b50565b5f815190506100f8816100d4565b92915050565b5f8060408385031215610114576101136100a0565b5b5f610121858286016100ea565b9250506020610132858286016100ea565b9150509250929050565b60805160a051610c8961016b5f395f6101df01525f8181610155015281816102b501526103f30152610c895ff3fe608060405234801561000f575f80fd5b506004361061004a575f3560e01c8063150b7a021461004e5780632e17de781461007e578063584b62a11461009a578063a694fc3a146100ca575b5f80fd5b610068600480360381019061006391906107c1565b6100e6565b604051610075919061087b565b60405180910390f35b61009860048036038101906100939190610894565b6100f9565b005b6100b460048036038101906100af91906108bf565b61027d565b6040516100c1919061090c565b60405180910390f35b6100e460048036038101906100df9190610894565b61029c565b005b5f63150b7a0260e01b9050949350505050565b5f6101038261047e565b90505f803373ffffffffffffffffffffffffffffffffffffffff1673ffffffffffffffffffffffffffffffffffffffff1681526020019081526020015f205f8381526020019081526020015f205f90557f000000000000000000000000000000000000000000000000000000000000000073ffffffffffffffffffffffffffffffffffffffff1663b88d4fde3033856040518463ffffffff1660e01b81526004016101b093929190610967565b5f604051808303815f87803b1580156101c7575f80fd5b505af11580156101d9573d5f803e3d5ffd5b505050507f000000000000000000000000000000000000000000000000000000000000000073ffffffffffffffffffffffffffffffffffffffff1663a9059cbb33836040518363ffffffff1660e01b81526004016102389291906109af565b6020604051808303815f875af1158015610254573d5f803e3d5ffd5b505050506040513d601f19601f820116820180604052508101906102789190610a0b565b505050565b5f602052815f5260405f20602052805f5260405f205f91509150505481565b3373ffffffffffffffffffffffffffffffffffffffff167f000000000000000000000000000000000000000000000000000000000000000073ffffffffffffffffffffffffffffffffffffffff16636352211e836040518263ffffffff1660e01b815260040161030c919061090c565b602060405180830381865afa158015610327573d5f803e3d5ffd5b505050506040513d601f19601f8201168201806040525081019061034b9190610a4a565b73ffffffffffffffffffffffffffffffffffffffff16146103a1576040517f08c379a000000000000000000000000000000000000000000000000000000000815260040161039890610acf565b60405180910390fd5b425f803373ffffffffffffffffffffffffffffffffffffffff1673ffffffffffffffffffffffffffffffffffffffff1681526020019081526020015f205f8381526020019081526020015f20819055507f000000000000000000000000000000000000000000000000000000000000000073ffffffffffffffffffffffffffffffffffffffff1663b88d4fde3330846040518463ffffffff1660e01b815260040161044e93929190610967565b5f604051808303815f87803b158015610465575f80fd5b505af1158015610477573d5f803e3d5ffd5b5050505050565b5f805f803373ffffffffffffffffffffffffffffffffffffffff1673ffffffffffffffffffffffffffffffffffffffff1681526020019081526020015f205f8481526020019081526020015f20541161050c576040517f08c379a000000000000000000000000000000000000000000000000000000000815260040161050390610b37565b60405180910390fd5b5f805f3373ffffffffffffffffffffffffffffffffffffffff1673ffffffffffffffffffffffffffffffffffffffff1681526020019081526020015f205f8481526020019081526020015f2054426105649190610b82565b90505f603c670de0b6b3a76400008361057c856105a6565b6105869190610bb5565b6105909190610bb5565b61059a9190610c23565b90508092505050919050565b5f603c8210156105b8575f90506105e2565b60b48210156105ca57600390506105e2565b61012c8210156105dd57600590506105e2565b600a90505b919050565b5f604051905090565b5f80fd5b5f80fd5b5f73ffffffffffffffffffffffffffffffffffffffff82169050919050565b5f610621826105f8565b9050919050565b61063181610617565b811461063b575f80fd5b50565b5f8135905061064c81610628565b92915050565b5f819050919050565b61066481610652565b811461066e575f80fd5b50565b5f8135905061067f8161065b565b92915050565b5f80fd5b5f80fd5b5f601f19601f8301169050919050565b7f4e487b71000000000000000000000000000000000000000000000000000000005f52604160045260245ffd5b6106d38261068d565b810181811067ffffffffffffffff821117156106f2576106f161069d565b5b80604052505050565b5f6107046105e7565b905061071082826106ca565b919050565b5f67ffffffffffffffff82111561072f5761072e61069d565b5b6107388261068d565b9050602081019050919050565b828183375f83830152505050565b5f61076561076084610715565b6106fb565b90508281526020810184848401111561078157610780610689565b5b61078c848285610745565b509392505050565b5f82601f8301126107a8576107a7610685565b5b81356107b8848260208601610753565b91505092915050565b5f805f80608085870312156107d9576107d86105f0565b5b5f6107e68782880161063e565b94505060206107f78782880161063e565b935050604061080887828801610671565b925050606085013567ffffffffffffffff811115610829576108286105f4565b5b61083587828801610794565b91505092959194509250565b5f7fffffffff0000000000000000000000000000000000000000000000000000000082169050919050565b61087581610841565b82525050565b5f60208201905061088e5f83018461086c565b92915050565b5f602082840312156108a9576108a86105f0565b5b5f6108b684828501610671565b91505092915050565b5f80604083850312156108d5576108d46105f0565b5b5f6108e28582860161063e565b92505060206108f385828601610671565b9150509250929050565b61090681610652565b82525050565b5f60208201905061091f5f8301846108fd565b92915050565b61092e81610617565b82525050565b5f82825260208201905092915050565b50565b5f6109525f83610934565b915061095d82610944565b5f82019050919050565b5f60808201905061097a5f830186610925565b6109876020830185610925565b61099460408301846108fd565b81810360608301526109a581610947565b9050949350505050565b5f6040820190506109c25f830185610925565b6109cf60208301846108fd565b9392505050565b5f8115159050919050565b6109ea816109d6565b81146109f4575f80fd5b50565b5f81519050610a05816109e1565b92915050565b5f60208284031215610a2057610a1f6105f0565b5b5f610a2d848285016109f7565b91505092915050565b5f81519050610a4481610628565b92915050565b5f60208284031215610a5f57610a5e6105f0565b5b5f610a6c84828501610a36565b91505092915050565b5f82825260208201905092915050565b7f596f7520646f6e2774206f776e2074686973204e4654000000000000000000005f82015250565b5f610ab9601683610a75565b9150610ac482610a85565b602082019050919050565b5f6020820190508181035f830152610ae681610aad565b9050919050565b7f4e667420686173206e6f74206265656e207374616b65640000000000000000005f82015250565b5f610b21601783610a75565b9150610b2c82610aed565b602082019050919050565b5f6020820190508181035f830152610b4e81610b15565b9050919050565b7f4e487b71000000000000000000000000000000000000000000000000000000005f52601160045260245ffd5b5f610b8c82610652565b9150610b9783610652565b9250828203905081811115610baf57610bae610b55565b5b92915050565b5f610bbf82610652565b9150610bca83610652565b9250828202610bd881610652565b91508282048414831517610bef57610bee610b55565b5b5092915050565b7f4e487b71000000000000000000000000000000000000000000000000000000005f52601260045260245ffd5b5f610c2d82610652565b9150610c3883610652565b925082610c4857610c47610bf6565b5b82820490509291505056fea2646970667358221220c18141fa4914bf0459fa4aac3ff57a75d2222489519cd7f61eb87e8ebbc9307564736f6c63430008190033",
					"opcodes": "PUSH1 0xC0 PUSH1 0x40 MSTORE CALLVALUE DUP1 ISZERO PUSH2 0xF JUMPI PUSH0 DUP1 REVERT JUMPDEST POP PUSH1 0x40 MLOAD PUSH2 0xDF4 CODESIZE SUB DUP1 PUSH2 0xDF4 DUP4 CODECOPY DUP2 DUP2 ADD PUSH1 0x40 MSTORE DUP2 ADD SWAP1 PUSH2 0x31 SWAP2 SWAP1 PUSH2 0xFE JUMP JUMPDEST DUP2 PUSH20 0xFFFFFFFFFFFFFFFFFFFFFFFFFFFFFFFFFFFFFFFF AND PUSH1 0x80 DUP2 PUSH20 0xFFFFFFFFFFFFFFFFFFFFFFFFFFFFFFFFFFFFFFFF AND DUP2 MSTORE POP POP DUP1 PUSH20 0xFFFFFFFFFFFFFFFFFFFFFFFFFFFFFFFFFFFFFFFF AND PUSH1 0xA0 DUP2 PUSH20 0xFFFFFFFFFFFFFFFFFFFFFFFFFFFFFFFFFFFFFFFF AND DUP2 MSTORE POP POP POP POP PUSH2 0x13C JUMP JUMPDEST PUSH0 DUP1 REVERT JUMPDEST PUSH0 PUSH20 0xFFFFFFFFFFFFFFFFFFFFFFFFFFFFFFFFFFFFFFFF DUP3 AND SWAP1 POP SWAP2 SWAP1 POP JUMP JUMPDEST PUSH0 PUSH2 0xCD DUP3 PUSH2 0xA4 JUMP JUMPDEST SWAP1 POP SWAP2 SWAP1 POP JUMP JUMPDEST PUSH2 0xDD DUP2 PUSH2 0xC3 JUMP JUMPDEST DUP2 EQ PUSH2 0xE7 JUMPI PUSH0 DUP1 REVERT JUMPDEST POP JUMP JUMPDEST PUSH0 DUP2 MLOAD SWAP1 POP PUSH2 0xF8 DUP2 PUSH2 0xD4 JUMP JUMPDEST SWAP3 SWAP2 POP POP JUMP JUMPDEST PUSH0 DUP1 PUSH1 0x40 DUP4 DUP6 SUB SLT ISZERO PUSH2 0x114 JUMPI PUSH2 0x113 PUSH2 0xA0 JUMP JUMPDEST JUMPDEST PUSH0 PUSH2 0x121 DUP6 DUP3 DUP7 ADD PUSH2 0xEA JUMP JUMPDEST SWAP3 POP POP PUSH1 0x20 PUSH2 0x132 DUP6 DUP3 DUP7 ADD PUSH2 0xEA JUMP JUMPDEST SWAP2 POP POP SWAP3 POP SWAP3 SWAP1 POP JUMP JUMPDEST PUSH1 0x80 MLOAD PUSH1 0xA0 MLOAD PUSH2 0xC89 PUSH2 0x16B PUSH0 CODECOPY PUSH0 PUSH2 0x1DF ADD MSTORE PUSH0 DUP2 DUP2 PUSH2 0x155 ADD MSTORE DUP2 DUP2 PUSH2 0x2B5 ADD MSTORE PUSH2 0x3F3 ADD MSTORE PUSH2 0xC89 PUSH0 RETURN INVALID PUSH1 0x80 PUSH1 0x40 MSTORE CALLVALUE DUP1 ISZERO PUSH2 0xF JUMPI PUSH0 DUP1 REVERT JUMPDEST POP PUSH1 0x4 CALLDATASIZE LT PUSH2 0x4A JUMPI PUSH0 CALLDATALOAD PUSH1 0xE0 SHR DUP1 PUSH4 0x150B7A02 EQ PUSH2 0x4E JUMPI DUP1 PUSH4 0x2E17DE78 EQ PUSH2 0x7E JUMPI DUP1 PUSH4 0x584B62A1 EQ PUSH2 0x9A JUMPI DUP1 PUSH4 0xA694FC3A EQ PUSH2 0xCA JUMPI JUMPDEST PUSH0 DUP1 REVERT JUMPDEST PUSH2 0x68 PUSH1 0x4 DUP1 CALLDATASIZE SUB DUP2 ADD SWAP1 PUSH2 0x63 SWAP2 SWAP1 PUSH2 0x7C1 JUMP JUMPDEST PUSH2 0xE6 JUMP JUMPDEST PUSH1 0x40 MLOAD PUSH2 0x75 SWAP2 SWAP1 PUSH2 0x87B JUMP JUMPDEST PUSH1 0x40 MLOAD DUP1 SWAP2 SUB SWAP1 RETURN JUMPDEST PUSH2 0x98 PUSH1 0x4 DUP1 CALLDATASIZE SUB DUP2 ADD SWAP1 PUSH2 0x93 SWAP2 SWAP1 PUSH2 0x894 JUMP JUMPDEST PUSH2 0xF9 JUMP JUMPDEST STOP JUMPDEST PUSH2 0xB4 PUSH1 0x4 DUP1 CALLDATASIZE SUB DUP2 ADD SWAP1 PUSH2 0xAF SWAP2 SWAP1 PUSH2 0x8BF JUMP JUMPDEST PUSH2 0x27D JUMP JUMPDEST PUSH1 0x40 MLOAD PUSH2 0xC1 SWAP2 SWAP1 PUSH2 0x90C JUMP JUMPDEST PUSH1 0x40 MLOAD DUP1 SWAP2 SUB SWAP1 RETURN JUMPDEST PUSH2 0xE4 PUSH1 0x4 DUP1 CALLDATASIZE SUB DUP2 ADD SWAP1 PUSH2 0xDF SWAP2 SWAP1 PUSH2 0x894 JUMP JUMPDEST PUSH2 0x29C JUMP JUMPDEST STOP JUMPDEST PUSH0 PUSH4 0x150B7A02 PUSH1 0xE0 SHL SWAP1 POP SWAP5 SWAP4 POP POP POP POP JUMP JUMPDEST PUSH0 PUSH2 0x103 DUP3 PUSH2 0x47E JUMP JUMPDEST SWAP1 POP PUSH0 DUP1 CALLER PUSH20 0xFFFFFFFFFFFFFFFFFFFFFFFFFFFFFFFFFFFFFFFF AND PUSH20 0xFFFFFFFFFFFFFFFFFFFFFFFFFFFFFFFFFFFFFFFF AND DUP2 MSTORE PUSH1 0x20 ADD SWAP1 DUP2 MSTORE PUSH1 0x20 ADD PUSH0 KECCAK256 PUSH0 DUP4 DUP2 MSTORE PUSH1 0x20 ADD SWAP1 DUP2 MSTORE PUSH1 0x20 ADD PUSH0 KECCAK256 PUSH0 SWAP1 SSTORE PUSH32 0x0 PUSH20 0xFFFFFFFFFFFFFFFFFFFFFFFFFFFFFFFFFFFFFFFF AND PUSH4 0xB88D4FDE ADDRESS CALLER DUP6 PUSH1 0x40 MLOAD DUP5 PUSH4 0xFFFFFFFF AND PUSH1 0xE0 SHL DUP2 MSTORE PUSH1 0x4 ADD PUSH2 0x1B0 SWAP4 SWAP3 SWAP2 SWAP1 PUSH2 0x967 JUMP JUMPDEST PUSH0 PUSH1 0x40 MLOAD DUP1 DUP4 SUB DUP2 PUSH0 DUP8 DUP1 EXTCODESIZE ISZERO DUP1 ISZERO PUSH2 0x1C7 JUMPI PUSH0 DUP1 REVERT JUMPDEST POP GAS CALL ISZERO DUP1 ISZERO PUSH2 0x1D9 JUMPI RETURNDATASIZE PUSH0 DUP1 RETURNDATACOPY RETURNDATASIZE PUSH0 REVERT JUMPDEST POP POP POP POP PUSH32 0x0 PUSH20 0xFFFFFFFFFFFFFFFFFFFFFFFFFFFFFFFFFFFFFFFF AND PUSH4 0xA9059CBB CALLER DUP4 PUSH1 0x40 MLOAD DUP4 PUSH4 0xFFFFFFFF AND PUSH1 0xE0 SHL DUP2 MSTORE PUSH1 0x4 ADD PUSH2 0x238 SWAP3 SWAP2 SWAP1 PUSH2 0x9AF JUMP JUMPDEST PUSH1 0x20 PUSH1 0x40 MLOAD DUP1 DUP4 SUB DUP2 PUSH0 DUP8 GAS CALL ISZERO DUP1 ISZERO PUSH2 0x254 JUMPI RETURNDATASIZE PUSH0 DUP1 RETURNDATACOPY RETURNDATASIZE PUSH0 REVERT JUMPDEST POP POP POP POP PUSH1 0x40 MLOAD RETURNDATASIZE PUSH1 0x1F NOT PUSH1 0x1F DUP3 ADD AND DUP3 ADD DUP1 PUSH1 0x40 MSTORE POP DUP2 ADD SWAP1 PUSH2 0x278 SWAP2 SWAP1 PUSH2 0xA0B JUMP JUMPDEST POP POP POP JUMP JUMPDEST PUSH0 PUSH1 0x20 MSTORE DUP2 PUSH0 MSTORE PUSH1 0x40 PUSH0 KECCAK256 PUSH1 0x20 MSTORE DUP1 PUSH0 MSTORE PUSH1 0x40 PUSH0 KECCAK256 PUSH0 SWAP2 POP SWAP2 POP POP SLOAD DUP2 JUMP JUMPDEST CALLER PUSH20 0xFFFFFFFFFFFFFFFFFFFFFFFFFFFFFFFFFFFFFFFF AND PUSH32 0x0 PUSH20 0xFFFFFFFFFFFFFFFFFFFFFFFFFFFFFFFFFFFFFFFF AND PUSH4 0x6352211E DUP4 PUSH1 0x40 MLOAD DUP3 PUSH4 0xFFFFFFFF AND PUSH1 0xE0 SHL DUP2 MSTORE PUSH1 0x4 ADD PUSH2 0x30C SWAP2 SWAP1 PUSH2 0x90C JUMP JUMPDEST PUSH1 0x20 PUSH1 0x40 MLOAD DUP1 DUP4 SUB DUP2 DUP7 GAS STATICCALL ISZERO DUP1 ISZERO PUSH2 0x327 JUMPI RETURNDATASIZE PUSH0 DUP1 RETURNDATACOPY RETURNDATASIZE PUSH0 REVERT JUMPDEST POP POP POP POP PUSH1 0x40 MLOAD RETURNDATASIZE PUSH1 0x1F NOT PUSH1 0x1F DUP3 ADD AND DUP3 ADD DUP1 PUSH1 0x40 MSTORE POP DUP2 ADD SWAP1 PUSH2 0x34B SWAP2 SWAP1 PUSH2 0xA4A JUMP JUMPDEST PUSH20 0xFFFFFFFFFFFFFFFFFFFFFFFFFFFFFFFFFFFFFFFF AND EQ PUSH2 0x3A1 JUMPI PUSH1 0x40 MLOAD PUSH32 0x8C379A000000000000000000000000000000000000000000000000000000000 DUP2 MSTORE PUSH1 0x4 ADD PUSH2 0x398 SWAP1 PUSH2 0xACF JUMP JUMPDEST PUSH1 0x40 MLOAD DUP1 SWAP2 SUB SWAP1 REVERT JUMPDEST TIMESTAMP PUSH0 DUP1 CALLER PUSH20 0xFFFFFFFFFFFFFFFFFFFFFFFFFFFFFFFFFFFFFFFF AND PUSH20 0xFFFFFFFFFFFFFFFFFFFFFFFFFFFFFFFFFFFFFFFF AND DUP2 MSTORE PUSH1 0x20 ADD SWAP1 DUP2 MSTORE PUSH1 0x20 ADD PUSH0 KECCAK256 PUSH0 DUP4 DUP2 MSTORE PUSH1 0x20 ADD SWAP1 DUP2 MSTORE PUSH1 0x20 ADD PUSH0 KECCAK256 DUP2 SWAP1 SSTORE POP PUSH32 0x0 PUSH20 0xFFFFFFFFFFFFFFFFFFFFFFFFFFFFFFFFFFFFFFFF AND PUSH4 0xB88D4FDE CALLER ADDRESS DUP5 PUSH1 0x40 MLOAD DUP5 PUSH4 0xFFFFFFFF AND PUSH1 0xE0 SHL DUP2 MSTORE PUSH1 0x4 ADD PUSH2 0x44E SWAP4 SWAP3 SWAP2 SWAP1 PUSH2 0x967 JUMP JUMPDEST PUSH0 PUSH1 0x40 MLOAD DUP1 DUP4 SUB DUP2 PUSH0 DUP8 DUP1 EXTCODESIZE ISZERO DUP1 ISZERO PUSH2 0x465 JUMPI PUSH0 DUP1 REVERT JUMPDEST POP GAS CALL ISZERO DUP1 ISZERO PUSH2 0x477 JUMPI RETURNDATASIZE PUSH0 DUP1 RETURNDATACOPY RETURNDATASIZE PUSH0 REVERT JUMPDEST POP POP POP POP POP JUMP JUMPDEST PUSH0 DUP1 PUSH0 DUP1 CALLER PUSH20 0xFFFFFFFFFFFFFFFFFFFFFFFFFFFFFFFFFFFFFFFF AND PUSH20 0xFFFFFFFFFFFFFFFFFFFFFFFFFFFFFFFFFFFFFFFF AND DUP2 MSTORE PUSH1 0x20 ADD SWAP1 DUP2 MSTORE PUSH1 0x20 ADD PUSH0 KECCAK256 PUSH0 DUP5 DUP2 MSTORE PUSH1 0x20 ADD SWAP1 DUP2 MSTORE PUSH1 0x20 ADD PUSH0 KECCAK256 SLOAD GT PUSH2 0x50C JUMPI PUSH1 0x40 MLOAD PUSH32 0x8C379A000000000000000000000000000000000000000000000000000000000 DUP2 MSTORE PUSH1 0x4 ADD PUSH2 0x503 SWAP1 PUSH2 0xB37 JUMP JUMPDEST PUSH1 0x40 MLOAD DUP1 SWAP2 SUB SWAP1 REVERT JUMPDEST PUSH0 DUP1 PUSH0 CALLER PUSH20 0xFFFFFFFFFFFFFFFFFFFFFFFFFFFFFFFFFFFFFFFF AND PUSH20 0xFFFFFFFFFFFFFFFFFFFFFFFFFFFFFFFFFFFFFFFF AND DUP2 MSTORE PUSH1 0x20 ADD SWAP1 DUP2 MSTORE PUSH1 0x20 ADD PUSH0 KECCAK256 PUSH0 DUP5 DUP2 MSTORE PUSH1 0x20 ADD SWAP1 DUP2 MSTORE PUSH1 0x20 ADD PUSH0 KECCAK256 SLOAD TIMESTAMP PUSH2 0x564 SWAP2 SWAP1 PUSH2 0xB82 JUMP JUMPDEST SWAP1 POP PUSH0 PUSH1 0x3C PUSH8 0xDE0B6B3A7640000 DUP4 PUSH2 0x57C DUP6 PUSH2 0x5A6 JUMP JUMPDEST PUSH2 0x586 SWAP2 SWAP1 PUSH2 0xBB5 JUMP JUMPDEST PUSH2 0x590 SWAP2 SWAP1 PUSH2 0xBB5 JUMP JUMPDEST PUSH2 0x59A SWAP2 SWAP1 PUSH2 0xC23 JUMP JUMPDEST SWAP1 POP DUP1 SWAP3 POP POP POP SWAP2 SWAP1 POP JUMP JUMPDEST PUSH0 PUSH1 0x3C DUP3 LT ISZERO PUSH2 0x5B8 JUMPI PUSH0 SWAP1 POP PUSH2 0x5E2 JUMP JUMPDEST PUSH1 0xB4 DUP3 LT ISZERO PUSH2 0x5CA JUMPI PUSH1 0x3 SWAP1 POP PUSH2 0x5E2 JUMP JUMPDEST PUSH2 0x12C DUP3 LT ISZERO PUSH2 0x5DD JUMPI PUSH1 0x5 SWAP1 POP PUSH2 0x5E2 JUMP JUMPDEST PUSH1 0xA SWAP1 POP JUMPDEST SWAP2 SWAP1 POP JUMP JUMPDEST PUSH0 PUSH1 0x40 MLOAD SWAP1 POP SWAP1 JUMP JUMPDEST PUSH0 DUP1 REVERT JUMPDEST PUSH0 DUP1 REVERT JUMPDEST PUSH0 PUSH20 0xFFFFFFFFFFFFFFFFFFFFFFFFFFFFFFFFFFFFFFFF DUP3 AND SWAP1 POP SWAP2 SWAP1 POP JUMP JUMPDEST PUSH0 PUSH2 0x621 DUP3 PUSH2 0x5F8 JUMP JUMPDEST SWAP1 POP SWAP2 SWAP1 POP JUMP JUMPDEST PUSH2 0x631 DUP2 PUSH2 0x617 JUMP JUMPDEST DUP2 EQ PUSH2 0x63B JUMPI PUSH0 DUP1 REVERT JUMPDEST POP JUMP JUMPDEST PUSH0 DUP2 CALLDATALOAD SWAP1 POP PUSH2 0x64C DUP2 PUSH2 0x628 JUMP JUMPDEST SWAP3 SWAP2 POP POP JUMP JUMPDEST PUSH0 DUP2 SWAP1 POP SWAP2 SWAP1 POP JUMP JUMPDEST PUSH2 0x664 DUP2 PUSH2 0x652 JUMP JUMPDEST DUP2 EQ PUSH2 0x66E JUMPI PUSH0 DUP1 REVERT JUMPDEST POP JUMP JUMPDEST PUSH0 DUP2 CALLDATALOAD SWAP1 POP PUSH2 0x67F DUP2 PUSH2 0x65B JUMP JUMPDEST SWAP3 SWAP2 POP POP JUMP JUMPDEST PUSH0 DUP1 REVERT JUMPDEST PUSH0 DUP1 REVERT JUMPDEST PUSH0 PUSH1 0x1F NOT PUSH1 0x1F DUP4 ADD AND SWAP1 POP SWAP2 SWAP1 POP JUMP JUMPDEST PUSH32 0x4E487B7100000000000000000000000000000000000000000000000000000000 PUSH0 MSTORE PUSH1 0x41 PUSH1 0x4 MSTORE PUSH1 0x24 PUSH0 REVERT JUMPDEST PUSH2 0x6D3 DUP3 PUSH2 0x68D JUMP JUMPDEST DUP2 ADD DUP2 DUP2 LT PUSH8 0xFFFFFFFFFFFFFFFF DUP3 GT OR ISZERO PUSH2 0x6F2 JUMPI PUSH2 0x6F1 PUSH2 0x69D JUMP JUMPDEST JUMPDEST DUP1 PUSH1 0x40 MSTORE POP POP POP JUMP JUMPDEST PUSH0 PUSH2 0x704 PUSH2 0x5E7 JUMP JUMPDEST SWAP1 POP PUSH2 0x710 DUP3 DUP3 PUSH2 0x6CA JUMP JUMPDEST SWAP2 SWAP1 POP JUMP JUMPDEST PUSH0 PUSH8 0xFFFFFFFFFFFFFFFF DUP3 GT ISZERO PUSH2 0x72F JUMPI PUSH2 0x72E PUSH2 0x69D JUMP JUMPDEST JUMPDEST PUSH2 0x738 DUP3 PUSH2 0x68D JUMP JUMPDEST SWAP1 POP PUSH1 0x20 DUP2 ADD SWAP1 POP SWAP2 SWAP1 POP JUMP JUMPDEST DUP3 DUP2 DUP4 CALLDATACOPY PUSH0 DUP4 DUP4 ADD MSTORE POP POP POP JUMP JUMPDEST PUSH0 PUSH2 0x765 PUSH2 0x760 DUP5 PUSH2 0x715 JUMP JUMPDEST PUSH2 0x6FB JUMP JUMPDEST SWAP1 POP DUP3 DUP2 MSTORE PUSH1 0x20 DUP2 ADD DUP5 DUP5 DUP5 ADD GT ISZERO PUSH2 0x781 JUMPI PUSH2 0x780 PUSH2 0x689 JUMP JUMPDEST JUMPDEST PUSH2 0x78C DUP5 DUP3 DUP6 PUSH2 0x745 JUMP JUMPDEST POP SWAP4 SWAP3 POP POP POP JUMP JUMPDEST PUSH0 DUP3 PUSH1 0x1F DUP4 ADD SLT PUSH2 0x7A8 JUMPI PUSH2 0x7A7 PUSH2 0x685 JUMP JUMPDEST JUMPDEST DUP2 CALLDATALOAD PUSH2 0x7B8 DUP5 DUP3 PUSH1 0x20 DUP7 ADD PUSH2 0x753 JUMP JUMPDEST SWAP2 POP POP SWAP3 SWAP2 POP POP JUMP JUMPDEST PUSH0 DUP1 PUSH0 DUP1 PUSH1 0x80 DUP6 DUP8 SUB SLT ISZERO PUSH2 0x7D9 JUMPI PUSH2 0x7D8 PUSH2 0x5F0 JUMP JUMPDEST JUMPDEST PUSH0 PUSH2 0x7E6 DUP8 DUP3 DUP9 ADD PUSH2 0x63E JUMP JUMPDEST SWAP5 POP POP PUSH1 0x20 PUSH2 0x7F7 DUP8 DUP3 DUP9 ADD PUSH2 0x63E JUMP JUMPDEST SWAP4 POP POP PUSH1 0x40 PUSH2 0x808 DUP8 DUP3 DUP9 ADD PUSH2 0x671 JUMP JUMPDEST SWAP3 POP POP PUSH1 0x60 DUP6 ADD CALLDATALOAD PUSH8 0xFFFFFFFFFFFFFFFF DUP2 GT ISZERO PUSH2 0x829 JUMPI PUSH2 0x828 PUSH2 0x5F4 JUMP JUMPDEST JUMPDEST PUSH2 0x835 DUP8 DUP3 DUP9 ADD PUSH2 0x794 JUMP JUMPDEST SWAP2 POP POP SWAP3 SWAP6 SWAP2 SWAP5 POP SWAP3 POP JUMP JUMPDEST PUSH0 PUSH32 0xFFFFFFFF00000000000000000000000000000000000000000000000000000000 DUP3 AND SWAP1 POP SWAP2 SWAP1 POP JUMP JUMPDEST PUSH2 0x875 DUP2 PUSH2 0x841 JUMP JUMPDEST DUP3 MSTORE POP POP JUMP JUMPDEST PUSH0 PUSH1 0x20 DUP3 ADD SWAP1 POP PUSH2 0x88E PUSH0 DUP4 ADD DUP5 PUSH2 0x86C JUMP JUMPDEST SWAP3 SWAP2 POP POP JUMP JUMPDEST PUSH0 PUSH1 0x20 DUP3 DUP5 SUB SLT ISZERO PUSH2 0x8A9 JUMPI PUSH2 0x8A8 PUSH2 0x5F0 JUMP JUMPDEST JUMPDEST PUSH0 PUSH2 0x8B6 DUP5 DUP3 DUP6 ADD PUSH2 0x671 JUMP JUMPDEST SWAP2 POP POP SWAP3 SWAP2 POP POP JUMP JUMPDEST PUSH0 DUP1 PUSH1 0x40 DUP4 DUP6 SUB SLT ISZERO PUSH2 0x8D5 JUMPI PUSH2 0x8D4 PUSH2 0x5F0 JUMP JUMPDEST JUMPDEST PUSH0 PUSH2 0x8E2 DUP6 DUP3 DUP7 ADD PUSH2 0x63E JUMP JUMPDEST SWAP3 POP POP PUSH1 0x20 PUSH2 0x8F3 DUP6 DUP3 DUP7 ADD PUSH2 0x671 JUMP JUMPDEST SWAP2 POP POP SWAP3 POP SWAP3 SWAP1 POP JUMP JUMPDEST PUSH2 0x906 DUP2 PUSH2 0x652 JUMP JUMPDEST DUP3 MSTORE POP POP JUMP JUMPDEST PUSH0 PUSH1 0x20 DUP3 ADD SWAP1 POP PUSH2 0x91F PUSH0 DUP4 ADD DUP5 PUSH2 0x8FD JUMP JUMPDEST SWAP3 SWAP2 POP POP JUMP JUMPDEST PUSH2 0x92E DUP2 PUSH2 0x617 JUMP JUMPDEST DUP3 MSTORE POP POP JUMP JUMPDEST PUSH0 DUP3 DUP3 MSTORE PUSH1 0x20 DUP3 ADD SWAP1 POP SWAP3 SWAP2 POP POP JUMP JUMPDEST POP JUMP JUMPDEST PUSH0 PUSH2 0x952 PUSH0 DUP4 PUSH2 0x934 JUMP JUMPDEST SWAP2 POP PUSH2 0x95D DUP3 PUSH2 0x944 JUMP JUMPDEST PUSH0 DUP3 ADD SWAP1 POP SWAP2 SWAP1 POP JUMP JUMPDEST PUSH0 PUSH1 0x80 DUP3 ADD SWAP1 POP PUSH2 0x97A PUSH0 DUP4 ADD DUP7 PUSH2 0x925 JUMP JUMPDEST PUSH2 0x987 PUSH1 0x20 DUP4 ADD DUP6 PUSH2 0x925 JUMP JUMPDEST PUSH2 0x994 PUSH1 0x40 DUP4 ADD DUP5 PUSH2 0x8FD JUMP JUMPDEST DUP2 DUP2 SUB PUSH1 0x60 DUP4 ADD MSTORE PUSH2 0x9A5 DUP2 PUSH2 0x947 JUMP JUMPDEST SWAP1 POP SWAP5 SWAP4 POP POP POP POP JUMP JUMPDEST PUSH0 PUSH1 0x40 DUP3 ADD SWAP1 POP PUSH2 0x9C2 PUSH0 DUP4 ADD DUP6 PUSH2 0x925 JUMP JUMPDEST PUSH2 0x9CF PUSH1 0x20 DUP4 ADD DUP5 PUSH2 0x8FD JUMP JUMPDEST SWAP4 SWAP3 POP POP POP JUMP JUMPDEST PUSH0 DUP2 ISZERO ISZERO SWAP1 POP SWAP2 SWAP1 POP JUMP JUMPDEST PUSH2 0x9EA DUP2 PUSH2 0x9D6 JUMP JUMPDEST DUP2 EQ PUSH2 0x9F4 JUMPI PUSH0 DUP1 REVERT JUMPDEST POP JUMP JUMPDEST PUSH0 DUP2 MLOAD SWAP1 POP PUSH2 0xA05 DUP2 PUSH2 0x9E1 JUMP JUMPDEST SWAP3 SWAP2 POP POP JUMP JUMPDEST PUSH0 PUSH1 0x20 DUP3 DUP5 SUB SLT ISZERO PUSH2 0xA20 JUMPI PUSH2 0xA1F PUSH2 0x5F0 JUMP JUMPDEST JUMPDEST PUSH0 PUSH2 0xA2D DUP5 DUP3 DUP6 ADD PUSH2 0x9F7 JUMP JUMPDEST SWAP2 POP POP SWAP3 SWAP2 POP POP JUMP JUMPDEST PUSH0 DUP2 MLOAD SWAP1 POP PUSH2 0xA44 DUP2 PUSH2 0x628 JUMP JUMPDEST SWAP3 SWAP2 POP POP JUMP JUMPDEST PUSH0 PUSH1 0x20 DUP3 DUP5 SUB SLT ISZERO PUSH2 0xA5F JUMPI PUSH2 0xA5E PUSH2 0x5F0 JUMP JUMPDEST JUMPDEST PUSH0 PUSH2 0xA6C DUP5 DUP3 DUP6 ADD PUSH2 0xA36 JUMP JUMPDEST SWAP2 POP POP SWAP3 SWAP2 POP POP JUMP JUMPDEST PUSH0 DUP3 DUP3 MSTORE PUSH1 0x20 DUP3 ADD SWAP1 POP SWAP3 SWAP2 POP POP JUMP JUMPDEST PUSH32 0x596F7520646F6E2774206F776E2074686973204E465400000000000000000000 PUSH0 DUP3 ADD MSTORE POP JUMP JUMPDEST PUSH0 PUSH2 0xAB9 PUSH1 0x16 DUP4 PUSH2 0xA75 JUMP JUMPDEST SWAP2 POP PUSH2 0xAC4 DUP3 PUSH2 0xA85 JUMP JUMPDEST PUSH1 0x20 DUP3 ADD SWAP1 POP SWAP2 SWAP1 POP JUMP JUMPDEST PUSH0 PUSH1 0x20 DUP3 ADD SWAP1 POP DUP2 DUP2 SUB PUSH0 DUP4 ADD MSTORE PUSH2 0xAE6 DUP2 PUSH2 0xAAD JUMP JUMPDEST SWAP1 POP SWAP2 SWAP1 POP JUMP JUMPDEST PUSH32 0x4E667420686173206E6F74206265656E207374616B6564000000000000000000 PUSH0 DUP3 ADD MSTORE POP JUMP JUMPDEST PUSH0 PUSH2 0xB21 PUSH1 0x17 DUP4 PUSH2 0xA75 JUMP JUMPDEST SWAP2 POP PUSH2 0xB2C DUP3 PUSH2 0xAED JUMP JUMPDEST PUSH1 0x20 DUP3 ADD SWAP1 POP SWAP2 SWAP1 POP JUMP JUMPDEST PUSH0 PUSH1 0x20 DUP3 ADD SWAP1 POP DUP2 DUP2 SUB PUSH0 DUP4 ADD MSTORE PUSH2 0xB4E DUP2 PUSH2 0xB15 JUMP JUMPDEST SWAP1 POP SWAP2 SWAP1 POP JUMP JUMPDEST PUSH32 0x4E487B7100000000000000000000000000000000000000000000000000000000 PUSH0 MSTORE PUSH1 0x11 PUSH1 0x4 MSTORE PUSH1 0x24 PUSH0 REVERT JUMPDEST PUSH0 PUSH2 0xB8C DUP3 PUSH2 0x652 JUMP JUMPDEST SWAP2 POP PUSH2 0xB97 DUP4 PUSH2 0x652 JUMP JUMPDEST SWAP3 POP DUP3 DUP3 SUB SWAP1 POP DUP2 DUP2 GT ISZERO PUSH2 0xBAF JUMPI PUSH2 0xBAE PUSH2 0xB55 JUMP JUMPDEST JUMPDEST SWAP3 SWAP2 POP POP JUMP JUMPDEST PUSH0 PUSH2 0xBBF DUP3 PUSH2 0x652 JUMP JUMPDEST SWAP2 POP PUSH2 0xBCA DUP4 PUSH2 0x652 JUMP JUMPDEST SWAP3 POP DUP3 DUP3 MUL PUSH2 0xBD8 DUP2 PUSH2 0x652 JUMP JUMPDEST SWAP2 POP DUP3 DUP3 DIV DUP5 EQ DUP4 ISZERO OR PUSH2 0xBEF JUMPI PUSH2 0xBEE PUSH2 0xB55 JUMP JUMPDEST JUMPDEST POP SWAP3 SWAP2 POP POP JUMP JUMPDEST PUSH32 0x4E487B7100000000000000000000000000000000000000000000000000000000 PUSH0 MSTORE PUSH1 0x12 PUSH1 0x4 MSTORE PUSH1 0x24 PUSH0 REVERT JUMPDEST PUSH0 PUSH2 0xC2D DUP3 PUSH2 0x652 JUMP JUMPDEST SWAP2 POP PUSH2 0xC38 DUP4 PUSH2 0x652 JUMP JUMPDEST SWAP3 POP DUP3 PUSH2 0xC48 JUMPI PUSH2 0xC47 PUSH2 0xBF6 JUMP JUMPDEST JUMPDEST DUP3 DUP3 DIV SWAP1 POP SWAP3 SWAP2 POP POP JUMP INVALID LOG2 PUSH5 0x6970667358 0x22 SLT KECCAK256 0xC1 DUP2 COINBASE STATICCALL BLOBHASH EQ 0xBF DIV MSIZE STATICCALL BLOBBASEFEE 0xAC EXTCODEHASH CREATE2 PUSH27 0x75D2222489519CD7F61EB87E8EBBC9307564736F6C634300081900 CALLER "
				},
				"gasEstimates": {
					"creation": {
						"codeDepositCost": "641800",
						"executionCost": "infinite",
						"totalCost": "infinite"
					},
					"external": {
						"onERC721Received(address,address,uint256,bytes)": "infinite",
						"stake(uint256)": "infinite",
						"stakes(address,uint256)": "infinite",
						"unstake(uint256)": "infinite"
					},
					"internal": {
						"calculate(uint256)": "116",
						"calculateReward(uint256)": "infinite"
					}
				},
				"methodIdentifiers": {
					"onERC721Received(address,address,uint256,bytes)": "150b7a02",
					"stake(uint256)": "a694fc3a",
					"stakes(address,uint256)": "584b62a1",
					"unstake(uint256)": "2e17de78"
				}
			},
			"storageLayout": {
				"storage": [
					{
						"astId": 273,
						"contract": "contracts/Web3Staking.sol:Staking",
						"label": "stakes",
						"offset": 0,
						"slot": "0",
						"type": "t_mapping(t_address,t_mapping(t_uint256,t_uint256))"
					}
				],
				"types": {
					"t_address": {
						"encoding": "inplace",
						"label": "address",
						"numberOfBytes": "20"
					},
					"t_mapping(t_address,t_mapping(t_uint256,t_uint256))": {
						"encoding": "mapping",
						"key": "t_address",
						"label": "mapping(address => mapping(uint256 => uint256))",
						"numberOfBytes": "32",
						"value": "t_mapping(t_uint256,t_uint256)"
					},
					"t_mapping(t_uint256,t_uint256)": {
						"encoding": "mapping",
						"key": "t_uint256",
						"label": "mapping(uint256 => uint256)",
						"numberOfBytes": "32",
						"value": "t_uint256"
					},
					"t_uint256": {
						"encoding": "inplace",
						"label": "uint256",
						"numberOfBytes": "32"
					}
				}
			},
			"userdoc": {
				"kind": "user",
				"methods": {},
				"version": 1
			}
		}
	}
}