{
	"contracts/Event.sol": {
		"EventExample": {
			"abi": [
				{
					"anonymous": false,
					"inputs": [
						{
							"indexed": true,
							"internalType": "address",
							"name": "user",
							"type": "address"
						},
						{
							"indexed": false,
							"internalType": "string",
							"name": "username",
							"type": "string"
						}
					],
					"name": "NewUserRegistered",
					"type": "event"
				},
				{
					"inputs": [
						{
							"internalType": "string",
							"name": "_username",
							"type": "string"
						},
						{
							"internalType": "uint8",
							"name": "_age",
							"type": "uint8"
						}
					],
					"name": "registerUser",
					"outputs": [],
					"stateMutability": "nonpayable",
					"type": "function"
				},
				{
					"inputs": [
						{
							"internalType": "address",
							"name": "",
							"type": "address"
						}
					],
					"name": "users",
					"outputs": [
						{
							"internalType": "string",
							"name": "username",
							"type": "string"
						},
						{
							"internalType": "uint256",
							"name": "age",
							"type": "uint256"
						}
					],
					"stateMutability": "view",
					"type": "function"
				}
			],
			"devdoc": {
				"kind": "dev",
				"methods": {},
				"version": 1
			},
			"evm": {
				"assembly": "    /* \"contracts/Event.sol\":59:567  contract EventExample {... */\n  mstore(0x40, 0x80)\n  callvalue\n  dup1\n  iszero\n  tag_1\n  jumpi\n  0x00\n  dup1\n  revert\ntag_1:\n  pop\n  dataSize(sub_0)\n  dup1\n  dataOffset(sub_0)\n  0x00\n  codecopy\n  0x00\n  return\nstop\n\nsub_0: assembly {\n        /* \"contracts/Event.sol\":59:567  contract EventExample {... */\n      mstore(0x40, 0x80)\n      callvalue\n      dup1\n      iszero\n      tag_1\n      jumpi\n      0x00\n      dup1\n      revert\n    tag_1:\n      pop\n      jumpi(tag_2, lt(calldatasize, 0x04))\n      shr(0xe0, calldataload(0x00))\n      dup1\n      0x338e12eb\n      eq\n      tag_3\n      jumpi\n      dup1\n      0xa87430ba\n      eq\n      tag_4\n      jumpi\n    tag_2:\n      0x00\n      dup1\n      revert\n        /* \"contracts/Event.sol\":320:565  function registerUser(string memory _username, uint8 _age) public {... */\n    tag_3:\n      tag_5\n      0x04\n      dup1\n      calldatasize\n      sub\n      dup2\n      add\n      swap1\n      tag_6\n      swap2\n      swap1\n      tag_7\n      jump\t// in\n    tag_6:\n      tag_8\n      jump\t// in\n    tag_5:\n      stop\n        /* \"contracts/Event.sol\":275:313  mapping (address => User) public users */\n    tag_4:\n      tag_9\n      0x04\n      dup1\n      calldatasize\n      sub\n      dup2\n      add\n      swap1\n      tag_10\n      swap2\n      swap1\n      tag_11\n      jump\t// in\n    tag_10:\n      tag_12\n      jump\t// in\n    tag_9:\n      mload(0x40)\n      tag_13\n      swap3\n      swap2\n      swap1\n      tag_14\n      jump\t// in\n    tag_13:\n      mload(0x40)\n      dup1\n      swap2\n      sub\n      swap1\n      return\n        /* \"contracts/Event.sol\":320:565  function registerUser(string memory _username, uint8 _age) public {... */\n    tag_8:\n        /* \"contracts/Event.sol\":396:416  User storage newUser */\n      0x00\n        /* \"contracts/Event.sol\":419:424  users */\n      dup1\n        /* \"contracts/Event.sol\":419:436  users[msg.sender] */\n      0x00\n        /* \"contracts/Event.sol\":425:435  msg.sender */\n      caller\n        /* \"contracts/Event.sol\":419:436  users[msg.sender] */\n      0xffffffffffffffffffffffffffffffffffffffff\n      and\n      0xffffffffffffffffffffffffffffffffffffffff\n      and\n      dup2\n      mstore\n      0x20\n      add\n      swap1\n      dup2\n      mstore\n      0x20\n      add\n      0x00\n      keccak256\n        /* \"contracts/Event.sol\":396:436  User storage newUser = users[msg.sender] */\n      swap1\n      pop\n        /* \"contracts/Event.sol\":465:474  _username */\n      dup3\n        /* \"contracts/Event.sol\":446:453  newUser */\n      dup2\n        /* \"contracts/Event.sol\":446:462  newUser.username */\n      0x00\n      add\n        /* \"contracts/Event.sol\":446:474  newUser.username = _username */\n      swap1\n      dup2\n      tag_16\n      swap2\n      swap1\n      tag_17\n      jump\t// in\n    tag_16:\n      pop\n        /* \"contracts/Event.sol\":498:502  _age */\n      dup2\n        /* \"contracts/Event.sol\":484:502  newUser.age = _age */\n      0xff\n      and\n        /* \"contracts/Event.sol\":484:491  newUser */\n      dup2\n        /* \"contracts/Event.sol\":484:495  newUser.age */\n      0x01\n      add\n        /* \"contracts/Event.sol\":484:502  newUser.age = _age */\n      dup2\n      swap1\n      sstore\n      pop\n        /* \"contracts/Event.sol\":536:546  msg.sender */\n      caller\n        /* \"contracts/Event.sol\":518:558  NewUserRegistered(msg.sender, _username) */\n      0xffffffffffffffffffffffffffffffffffffffff\n      and\n      0x1d2b3529f3edbf84c2fbf46a16fa81880bd170f19142f18267f113903389a6dc\n        /* \"contracts/Event.sol\":548:557  _username */\n      dup5\n        /* \"contracts/Event.sol\":518:558  NewUserRegistered(msg.sender, _username) */\n      mload(0x40)\n      tag_18\n      swap2\n      swap1\n      tag_19\n      jump\t// in\n    tag_18:\n      mload(0x40)\n      dup1\n      swap2\n      sub\n      swap1\n      log2\n        /* \"contracts/Event.sol\":386:565  {... */\n      pop\n        /* \"contracts/Event.sol\":320:565  function registerUser(string memory _username, uint8 _age) public {... */\n      pop\n      pop\n      jump\t// out\n        /* \"contracts/Event.sol\":275:313  mapping (address => User) public users */\n    tag_12:\n      mstore(0x20, 0x00)\n      dup1\n      0x00\n      mstore\n      keccak256(0x00, 0x40)\n      0x00\n      swap2\n      pop\n      swap1\n      pop\n      dup1\n      0x00\n      add\n      dup1\n      sload\n      tag_20\n      swap1\n      tag_21\n      jump\t// in\n    tag_20:\n      dup1\n      0x1f\n      add\n      0x20\n      dup1\n      swap2\n      div\n      mul\n      0x20\n      add\n      mload(0x40)\n      swap1\n      dup2\n      add\n      0x40\n      mstore\n      dup1\n      swap3\n      swap2\n      swap1\n      dup2\n      dup2\n      mstore\n      0x20\n      add\n      dup3\n      dup1\n      sload\n      tag_22\n      swap1\n      tag_21\n      jump\t// in\n    tag_22:\n      dup1\n      iszero\n      tag_23\n      jumpi\n      dup1\n      0x1f\n      lt\n      tag_24\n      jumpi\n      0x0100\n      dup1\n      dup4\n      sload\n      div\n      mul\n      dup4\n      mstore\n      swap2\n      0x20\n      add\n      swap2\n      jump(tag_23)\n    tag_24:\n      dup3\n      add\n      swap2\n      swap1\n      0x00\n      mstore\n      keccak256(0x00, 0x20)\n      swap1\n    tag_25:\n      dup2\n      sload\n      dup2\n      mstore\n      swap1\n      0x01\n      add\n      swap1\n      0x20\n      add\n      dup1\n      dup4\n      gt\n      tag_25\n      jumpi\n      dup3\n      swap1\n      sub\n      0x1f\n      and\n      dup3\n      add\n      swap2\n    tag_23:\n      pop\n      pop\n      pop\n      pop\n      pop\n      swap1\n      dup1\n      0x01\n      add\n      sload\n      swap1\n      pop\n      dup3\n      jump\t// out\n        /* \"#utility.yul\":7:82   */\n    tag_26:\n        /* \"#utility.yul\":40:46   */\n      0x00\n        /* \"#utility.yul\":73:75   */\n      0x40\n        /* \"#utility.yul\":67:76   */\n      mload\n        /* \"#utility.yul\":57:76   */\n      swap1\n      pop\n        /* \"#utility.yul\":7:82   */\n      swap1\n      jump\t// out\n        /* \"#utility.yul\":88:205   */\n    tag_27:\n        /* \"#utility.yul\":197:198   */\n      0x00\n        /* \"#utility.yul\":194:195   */\n      dup1\n        /* \"#utility.yul\":187:199   */\n      revert\n        /* \"#utility.yul\":211:328   */\n    tag_28:\n        /* \"#utility.yul\":320:321   */\n      0x00\n        /* \"#utility.yul\":317:318   */\n      dup1\n        /* \"#utility.yul\":310:322   */\n      revert\n        /* \"#utility.yul\":334:451   */\n    tag_29:\n        /* \"#utility.yul\":443:444   */\n      0x00\n        /* \"#utility.yul\":440:441   */\n      dup1\n        /* \"#utility.yul\":433:445   */\n      revert\n        /* \"#utility.yul\":457:574   */\n    tag_30:\n        /* \"#utility.yul\":566:567   */\n      0x00\n        /* \"#utility.yul\":563:564   */\n      dup1\n        /* \"#utility.yul\":556:568   */\n      revert\n        /* \"#utility.yul\":580:682   */\n    tag_31:\n        /* \"#utility.yul\":621:627   */\n      0x00\n        /* \"#utility.yul\":672:674   */\n      0x1f\n        /* \"#utility.yul\":668:675   */\n      not\n        /* \"#utility.yul\":663:665   */\n      0x1f\n        /* \"#utility.yul\":656:661   */\n      dup4\n        /* \"#utility.yul\":652:666   */\n      add\n        /* \"#utility.yul\":648:676   */\n      and\n        /* \"#utility.yul\":638:676   */\n      swap1\n      pop\n        /* \"#utility.yul\":580:682   */\n      swap2\n      swap1\n      pop\n      jump\t// out\n        /* \"#utility.yul\":688:868   */\n    tag_32:\n        /* \"#utility.yul\":736:813   */\n      0x4e487b7100000000000000000000000000000000000000000000000000000000\n        /* \"#utility.yul\":733:734   */\n      0x00\n        /* \"#utility.yul\":726:814   */\n      mstore\n        /* \"#utility.yul\":833:837   */\n      0x41\n        /* \"#utility.yul\":830:831   */\n      0x04\n        /* \"#utility.yul\":823:838   */\n      mstore\n        /* \"#utility.yul\":857:861   */\n      0x24\n        /* \"#utility.yul\":854:855   */\n      0x00\n        /* \"#utility.yul\":847:862   */\n      revert\n        /* \"#utility.yul\":874:1155   */\n    tag_33:\n        /* \"#utility.yul\":957:984   */\n      tag_77\n        /* \"#utility.yul\":979:983   */\n      dup3\n        /* \"#utility.yul\":957:984   */\n      tag_31\n      jump\t// in\n    tag_77:\n        /* \"#utility.yul\":949:955   */\n      dup2\n        /* \"#utility.yul\":945:985   */\n      add\n        /* \"#utility.yul\":1087:1093   */\n      dup2\n        /* \"#utility.yul\":1075:1085   */\n      dup2\n        /* \"#utility.yul\":1072:1094   */\n      lt\n        /* \"#utility.yul\":1051:1069   */\n      0xffffffffffffffff\n        /* \"#utility.yul\":1039:1049   */\n      dup3\n        /* \"#utility.yul\":1036:1070   */\n      gt\n        /* \"#utility.yul\":1033:1095   */\n      or\n        /* \"#utility.yul\":1030:1118   */\n      iszero\n      tag_78\n      jumpi\n        /* \"#utility.yul\":1098:1116   */\n      tag_79\n      tag_32\n      jump\t// in\n    tag_79:\n        /* \"#utility.yul\":1030:1118   */\n    tag_78:\n        /* \"#utility.yul\":1138:1148   */\n      dup1\n        /* \"#utility.yul\":1134:1136   */\n      0x40\n        /* \"#utility.yul\":1127:1149   */\n      mstore\n        /* \"#utility.yul\":917:1155   */\n      pop\n        /* \"#utility.yul\":874:1155   */\n      pop\n      pop\n      jump\t// out\n        /* \"#utility.yul\":1161:1290   */\n    tag_34:\n        /* \"#utility.yul\":1195:1201   */\n      0x00\n        /* \"#utility.yul\":1222:1242   */\n      tag_81\n      tag_26\n      jump\t// in\n    tag_81:\n        /* \"#utility.yul\":1212:1242   */\n      swap1\n      pop\n        /* \"#utility.yul\":1251:1284   */\n      tag_82\n        /* \"#utility.yul\":1279:1283   */\n      dup3\n        /* \"#utility.yul\":1271:1277   */\n      dup3\n        /* \"#utility.yul\":1251:1284   */\n      tag_33\n      jump\t// in\n    tag_82:\n        /* \"#utility.yul\":1161:1290   */\n      swap2\n      swap1\n      pop\n      jump\t// out\n        /* \"#utility.yul\":1296:1604   */\n    tag_35:\n        /* \"#utility.yul\":1358:1362   */\n      0x00\n        /* \"#utility.yul\":1448:1466   */\n      0xffffffffffffffff\n        /* \"#utility.yul\":1440:1446   */\n      dup3\n        /* \"#utility.yul\":1437:1467   */\n      gt\n        /* \"#utility.yul\":1434:1490   */\n      iszero\n      tag_84\n      jumpi\n        /* \"#utility.yul\":1470:1488   */\n      tag_85\n      tag_32\n      jump\t// in\n    tag_85:\n        /* \"#utility.yul\":1434:1490   */\n    tag_84:\n        /* \"#utility.yul\":1508:1537   */\n      tag_86\n        /* \"#utility.yul\":1530:1536   */\n      dup3\n        /* \"#utility.yul\":1508:1537   */\n      tag_31\n      jump\t// in\n    tag_86:\n        /* \"#utility.yul\":1500:1537   */\n      swap1\n      pop\n        /* \"#utility.yul\":1592:1596   */\n      0x20\n        /* \"#utility.yul\":1586:1590   */\n      dup2\n        /* \"#utility.yul\":1582:1597   */\n      add\n        /* \"#utility.yul\":1574:1597   */\n      swap1\n      pop\n        /* \"#utility.yul\":1296:1604   */\n      swap2\n      swap1\n      pop\n      jump\t// out\n        /* \"#utility.yul\":1610:1756   */\n    tag_36:\n        /* \"#utility.yul\":1707:1713   */\n      dup3\n        /* \"#utility.yul\":1702:1705   */\n      dup2\n        /* \"#utility.yul\":1697:1700   */\n      dup4\n        /* \"#utility.yul\":1684:1714   */\n      calldatacopy\n        /* \"#utility.yul\":1748:1749   */\n      0x00\n        /* \"#utility.yul\":1739:1745   */\n      dup4\n        /* \"#utility.yul\":1734:1737   */\n      dup4\n        /* \"#utility.yul\":1730:1746   */\n      add\n        /* \"#utility.yul\":1723:1750   */\n      mstore\n        /* \"#utility.yul\":1610:1756   */\n      pop\n      pop\n      pop\n      jump\t// out\n        /* \"#utility.yul\":1762:2187   */\n    tag_37:\n        /* \"#utility.yul\":1840:1845   */\n      0x00\n        /* \"#utility.yul\":1865:1931   */\n      tag_89\n        /* \"#utility.yul\":1881:1930   */\n      tag_90\n        /* \"#utility.yul\":1923:1929   */\n      dup5\n        /* \"#utility.yul\":1881:1930   */\n      tag_35\n      jump\t// in\n    tag_90:\n        /* \"#utility.yul\":1865:1931   */\n      tag_34\n      jump\t// in\n    tag_89:\n        /* \"#utility.yul\":1856:1931   */\n      swap1\n      pop\n        /* \"#utility.yul\":1954:1960   */\n      dup3\n        /* \"#utility.yul\":1947:1952   */\n      dup2\n        /* \"#utility.yul\":1940:1961   */\n      mstore\n        /* \"#utility.yul\":1992:1996   */\n      0x20\n        /* \"#utility.yul\":1985:1990   */\n      dup2\n        /* \"#utility.yul\":1981:1997   */\n      add\n        /* \"#utility.yul\":2030:2033   */\n      dup5\n        /* \"#utility.yul\":2021:2027   */\n      dup5\n        /* \"#utility.yul\":2016:2019   */\n      dup5\n        /* \"#utility.yul\":2012:2028   */\n      add\n        /* \"#utility.yul\":2009:2034   */\n      gt\n        /* \"#utility.yul\":2006:2118   */\n      iszero\n      tag_91\n      jumpi\n        /* \"#utility.yul\":2037:2116   */\n      tag_92\n      tag_30\n      jump\t// in\n    tag_92:\n        /* \"#utility.yul\":2006:2118   */\n    tag_91:\n        /* \"#utility.yul\":2127:2181   */\n      tag_93\n        /* \"#utility.yul\":2174:2180   */\n      dup5\n        /* \"#utility.yul\":2169:2172   */\n      dup3\n        /* \"#utility.yul\":2164:2167   */\n      dup6\n        /* \"#utility.yul\":2127:2181   */\n      tag_36\n      jump\t// in\n    tag_93:\n        /* \"#utility.yul\":1846:2187   */\n      pop\n        /* \"#utility.yul\":1762:2187   */\n      swap4\n      swap3\n      pop\n      pop\n      pop\n      jump\t// out\n        /* \"#utility.yul\":2207:2547   */\n    tag_38:\n        /* \"#utility.yul\":2263:2268   */\n      0x00\n        /* \"#utility.yul\":2312:2315   */\n      dup3\n        /* \"#utility.yul\":2305:2309   */\n      0x1f\n        /* \"#utility.yul\":2297:2303   */\n      dup4\n        /* \"#utility.yul\":2293:2310   */\n      add\n        /* \"#utility.yul\":2289:2316   */\n      slt\n        /* \"#utility.yul\":2279:2401   */\n      tag_95\n      jumpi\n        /* \"#utility.yul\":2320:2399   */\n      tag_96\n      tag_29\n      jump\t// in\n    tag_96:\n        /* \"#utility.yul\":2279:2401   */\n    tag_95:\n        /* \"#utility.yul\":2437:2443   */\n      dup2\n        /* \"#utility.yul\":2424:2444   */\n      calldataload\n        /* \"#utility.yul\":2462:2541   */\n      tag_97\n        /* \"#utility.yul\":2537:2540   */\n      dup5\n        /* \"#utility.yul\":2529:2535   */\n      dup3\n        /* \"#utility.yul\":2522:2526   */\n      0x20\n        /* \"#utility.yul\":2514:2520   */\n      dup7\n        /* \"#utility.yul\":2510:2527   */\n      add\n        /* \"#utility.yul\":2462:2541   */\n      tag_37\n      jump\t// in\n    tag_97:\n        /* \"#utility.yul\":2453:2541   */\n      swap2\n      pop\n        /* \"#utility.yul\":2269:2547   */\n      pop\n        /* \"#utility.yul\":2207:2547   */\n      swap3\n      swap2\n      pop\n      pop\n      jump\t// out\n        /* \"#utility.yul\":2553:2639   */\n    tag_39:\n        /* \"#utility.yul\":2588:2595   */\n      0x00\n        /* \"#utility.yul\":2628:2632   */\n      0xff\n        /* \"#utility.yul\":2621:2626   */\n      dup3\n        /* \"#utility.yul\":2617:2633   */\n      and\n        /* \"#utility.yul\":2606:2633   */\n      swap1\n      pop\n        /* \"#utility.yul\":2553:2639   */\n      swap2\n      swap1\n      pop\n      jump\t// out\n        /* \"#utility.yul\":2645:2763   */\n    tag_40:\n        /* \"#utility.yul\":2716:2738   */\n      tag_100\n        /* \"#utility.yul\":2732:2737   */\n      dup2\n        /* \"#utility.yul\":2716:2738   */\n      tag_39\n      jump\t// in\n    tag_100:\n        /* \"#utility.yul\":2709:2714   */\n      dup2\n        /* \"#utility.yul\":2706:2739   */\n      eq\n        /* \"#utility.yul\":2696:2757   */\n      tag_101\n      jumpi\n        /* \"#utility.yul\":2753:2754   */\n      0x00\n        /* \"#utility.yul\":2750:2751   */\n      dup1\n        /* \"#utility.yul\":2743:2755   */\n      revert\n        /* \"#utility.yul\":2696:2757   */\n    tag_101:\n        /* \"#utility.yul\":2645:2763   */\n      pop\n      jump\t// out\n        /* \"#utility.yul\":2769:2904   */\n    tag_41:\n        /* \"#utility.yul\":2813:2818   */\n      0x00\n        /* \"#utility.yul\":2851:2857   */\n      dup2\n        /* \"#utility.yul\":2838:2858   */\n      calldataload\n        /* \"#utility.yul\":2829:2858   */\n      swap1\n      pop\n        /* \"#utility.yul\":2867:2898   */\n      tag_103\n        /* \"#utility.yul\":2892:2897   */\n      dup2\n        /* \"#utility.yul\":2867:2898   */\n      tag_40\n      jump\t// in\n    tag_103:\n        /* \"#utility.yul\":2769:2904   */\n      swap3\n      swap2\n      pop\n      pop\n      jump\t// out\n        /* \"#utility.yul\":2910:3560   */\n    tag_7:\n        /* \"#utility.yul\":2986:2992   */\n      0x00\n        /* \"#utility.yul\":2994:3000   */\n      dup1\n        /* \"#utility.yul\":3043:3045   */\n      0x40\n        /* \"#utility.yul\":3031:3040   */\n      dup4\n        /* \"#utility.yul\":3022:3029   */\n      dup6\n        /* \"#utility.yul\":3018:3041   */\n      sub\n        /* \"#utility.yul\":3014:3046   */\n      slt\n        /* \"#utility.yul\":3011:3130   */\n      iszero\n      tag_105\n      jumpi\n        /* \"#utility.yul\":3049:3128   */\n      tag_106\n      tag_27\n      jump\t// in\n    tag_106:\n        /* \"#utility.yul\":3011:3130   */\n    tag_105:\n        /* \"#utility.yul\":3197:3198   */\n      0x00\n        /* \"#utility.yul\":3186:3195   */\n      dup4\n        /* \"#utility.yul\":3182:3199   */\n      add\n        /* \"#utility.yul\":3169:3200   */\n      calldataload\n        /* \"#utility.yul\":3227:3245   */\n      0xffffffffffffffff\n        /* \"#utility.yul\":3219:3225   */\n      dup2\n        /* \"#utility.yul\":3216:3246   */\n      gt\n        /* \"#utility.yul\":3213:3330   */\n      iszero\n      tag_107\n      jumpi\n        /* \"#utility.yul\":3249:3328   */\n      tag_108\n      tag_28\n      jump\t// in\n    tag_108:\n        /* \"#utility.yul\":3213:3330   */\n    tag_107:\n        /* \"#utility.yul\":3354:3417   */\n      tag_109\n        /* \"#utility.yul\":3409:3416   */\n      dup6\n        /* \"#utility.yul\":3400:3406   */\n      dup3\n        /* \"#utility.yul\":3389:3398   */\n      dup7\n        /* \"#utility.yul\":3385:3407   */\n      add\n        /* \"#utility.yul\":3354:3417   */\n      tag_38\n      jump\t// in\n    tag_109:\n        /* \"#utility.yul\":3344:3417   */\n      swap3\n      pop\n        /* \"#utility.yul\":3140:3427   */\n      pop\n        /* \"#utility.yul\":3466:3468   */\n      0x20\n        /* \"#utility.yul\":3492:3543   */\n      tag_110\n        /* \"#utility.yul\":3535:3542   */\n      dup6\n        /* \"#utility.yul\":3526:3532   */\n      dup3\n        /* \"#utility.yul\":3515:3524   */\n      dup7\n        /* \"#utility.yul\":3511:3533   */\n      add\n        /* \"#utility.yul\":3492:3543   */\n      tag_41\n      jump\t// in\n    tag_110:\n        /* \"#utility.yul\":3482:3543   */\n      swap2\n      pop\n        /* \"#utility.yul\":3437:3553   */\n      pop\n        /* \"#utility.yul\":2910:3560   */\n      swap3\n      pop\n      swap3\n      swap1\n      pop\n      jump\t// out\n        /* \"#utility.yul\":3566:3692   */\n    tag_42:\n        /* \"#utility.yul\":3603:3610   */\n      0x00\n        /* \"#utility.yul\":3643:3685   */\n      0xffffffffffffffffffffffffffffffffffffffff\n        /* \"#utility.yul\":3636:3641   */\n      dup3\n        /* \"#utility.yul\":3632:3686   */\n      and\n        /* \"#utility.yul\":3621:3686   */\n      swap1\n      pop\n        /* \"#utility.yul\":3566:3692   */\n      swap2\n      swap1\n      pop\n      jump\t// out\n        /* \"#utility.yul\":3698:3794   */\n    tag_43:\n        /* \"#utility.yul\":3735:3742   */\n      0x00\n        /* \"#utility.yul\":3764:3788   */\n      tag_113\n        /* \"#utility.yul\":3782:3787   */\n      dup3\n        /* \"#utility.yul\":3764:3788   */\n      tag_42\n      jump\t// in\n    tag_113:\n        /* \"#utility.yul\":3753:3788   */\n      swap1\n      pop\n        /* \"#utility.yul\":3698:3794   */\n      swap2\n      swap1\n      pop\n      jump\t// out\n        /* \"#utility.yul\":3800:3922   */\n    tag_44:\n        /* \"#utility.yul\":3873:3897   */\n      tag_115\n        /* \"#utility.yul\":3891:3896   */\n      dup2\n        /* \"#utility.yul\":3873:3897   */\n      tag_43\n      jump\t// in\n    tag_115:\n        /* \"#utility.yul\":3866:3871   */\n      dup2\n        /* \"#utility.yul\":3863:3898   */\n      eq\n        /* \"#utility.yul\":3853:3916   */\n      tag_116\n      jumpi\n        /* \"#utility.yul\":3912:3913   */\n      0x00\n        /* \"#utility.yul\":3909:3910   */\n      dup1\n        /* \"#utility.yul\":3902:3914   */\n      revert\n        /* \"#utility.yul\":3853:3916   */\n    tag_116:\n        /* \"#utility.yul\":3800:3922   */\n      pop\n      jump\t// out\n        /* \"#utility.yul\":3928:4067   */\n    tag_45:\n        /* \"#utility.yul\":3974:3979   */\n      0x00\n        /* \"#utility.yul\":4012:4018   */\n      dup2\n        /* \"#utility.yul\":3999:4019   */\n      calldataload\n        /* \"#utility.yul\":3990:4019   */\n      swap1\n      pop\n        /* \"#utility.yul\":4028:4061   */\n      tag_118\n        /* \"#utility.yul\":4055:4060   */\n      dup2\n        /* \"#utility.yul\":4028:4061   */\n      tag_44\n      jump\t// in\n    tag_118:\n        /* \"#utility.yul\":3928:4067   */\n      swap3\n      swap2\n      pop\n      pop\n      jump\t// out\n        /* \"#utility.yul\":4073:4402   */\n    tag_11:\n        /* \"#utility.yul\":4132:4138   */\n      0x00\n        /* \"#utility.yul\":4181:4183   */\n      0x20\n        /* \"#utility.yul\":4169:4178   */\n      dup3\n        /* \"#utility.yul\":4160:4167   */\n      dup5\n        /* \"#utility.yul\":4156:4179   */\n      sub\n        /* \"#utility.yul\":4152:4184   */\n      slt\n        /* \"#utility.yul\":4149:4268   */\n      iszero\n      tag_120\n      jumpi\n        /* \"#utility.yul\":4187:4266   */\n      tag_121\n      tag_27\n      jump\t// in\n    tag_121:\n        /* \"#utility.yul\":4149:4268   */\n    tag_120:\n        /* \"#utility.yul\":4307:4308   */\n      0x00\n        /* \"#utility.yul\":4332:4385   */\n      tag_122\n        /* \"#utility.yul\":4377:4384   */\n      dup5\n        /* \"#utility.yul\":4368:4374   */\n      dup3\n        /* \"#utility.yul\":4357:4366   */\n      dup6\n        /* \"#utility.yul\":4353:4375   */\n      add\n        /* \"#utility.yul\":4332:4385   */\n      tag_45\n      jump\t// in\n    tag_122:\n        /* \"#utility.yul\":4322:4385   */\n      swap2\n      pop\n        /* \"#utility.yul\":4278:4395   */\n      pop\n        /* \"#utility.yul\":4073:4402   */\n      swap3\n      swap2\n      pop\n      pop\n      jump\t// out\n        /* \"#utility.yul\":4408:4507   */\n    tag_46:\n        /* \"#utility.yul\":4460:4466   */\n      0x00\n        /* \"#utility.yul\":4494:4499   */\n      dup2\n        /* \"#utility.yul\":4488:4500   */\n      mload\n        /* \"#utility.yul\":4478:4500   */\n      swap1\n      pop\n        /* \"#utility.yul\":4408:4507   */\n      swap2\n      swap1\n      pop\n      jump\t// out\n        /* \"#utility.yul\":4513:4682   */\n    tag_47:\n        /* \"#utility.yul\":4597:4608   */\n      0x00\n        /* \"#utility.yul\":4631:4637   */\n      dup3\n        /* \"#utility.yul\":4626:4629   */\n      dup3\n        /* \"#utility.yul\":4619:4638   */\n      mstore\n        /* \"#utility.yul\":4671:4675   */\n      0x20\n        /* \"#utility.yul\":4666:4669   */\n      dup3\n        /* \"#utility.yul\":4662:4676   */\n      add\n        /* \"#utility.yul\":4647:4676   */\n      swap1\n      pop\n        /* \"#utility.yul\":4513:4682   */\n      swap3\n      swap2\n      pop\n      pop\n      jump\t// out\n        /* \"#utility.yul\":4688:4934   */\n    tag_48:\n        /* \"#utility.yul\":4769:4770   */\n      0x00\n        /* \"#utility.yul\":4779:4892   */\n    tag_126:\n        /* \"#utility.yul\":4793:4799   */\n      dup4\n        /* \"#utility.yul\":4790:4791   */\n      dup2\n        /* \"#utility.yul\":4787:4800   */\n      lt\n        /* \"#utility.yul\":4779:4892   */\n      iszero\n      tag_128\n      jumpi\n        /* \"#utility.yul\":4878:4879   */\n      dup1\n        /* \"#utility.yul\":4873:4876   */\n      dup3\n        /* \"#utility.yul\":4869:4880   */\n      add\n        /* \"#utility.yul\":4863:4881   */\n      mload\n        /* \"#utility.yul\":4859:4860   */\n      dup2\n        /* \"#utility.yul\":4854:4857   */\n      dup5\n        /* \"#utility.yul\":4850:4861   */\n      add\n        /* \"#utility.yul\":4843:4882   */\n      mstore\n        /* \"#utility.yul\":4815:4817   */\n      0x20\n        /* \"#utility.yul\":4812:4813   */\n      dup2\n        /* \"#utility.yul\":4808:4818   */\n      add\n        /* \"#utility.yul\":4803:4818   */\n      swap1\n      pop\n        /* \"#utility.yul\":4779:4892   */\n      jump(tag_126)\n    tag_128:\n        /* \"#utility.yul\":4926:4927   */\n      0x00\n        /* \"#utility.yul\":4917:4923   */\n      dup5\n        /* \"#utility.yul\":4912:4915   */\n      dup5\n        /* \"#utility.yul\":4908:4924   */\n      add\n        /* \"#utility.yul\":4901:4928   */\n      mstore\n        /* \"#utility.yul\":4750:4934   */\n      pop\n        /* \"#utility.yul\":4688:4934   */\n      pop\n      pop\n      pop\n      jump\t// out\n        /* \"#utility.yul\":4940:5317   */\n    tag_49:\n        /* \"#utility.yul\":5028:5031   */\n      0x00\n        /* \"#utility.yul\":5056:5095   */\n      tag_130\n        /* \"#utility.yul\":5089:5094   */\n      dup3\n        /* \"#utility.yul\":5056:5095   */\n      tag_46\n      jump\t// in\n    tag_130:\n        /* \"#utility.yul\":5111:5182   */\n      tag_131\n        /* \"#utility.yul\":5175:5181   */\n      dup2\n        /* \"#utility.yul\":5170:5173   */\n      dup6\n        /* \"#utility.yul\":5111:5182   */\n      tag_47\n      jump\t// in\n    tag_131:\n        /* \"#utility.yul\":5104:5182   */\n      swap4\n      pop\n        /* \"#utility.yul\":5191:5256   */\n      tag_132\n        /* \"#utility.yul\":5249:5255   */\n      dup2\n        /* \"#utility.yul\":5244:5247   */\n      dup6\n        /* \"#utility.yul\":5237:5241   */\n      0x20\n        /* \"#utility.yul\":5230:5235   */\n      dup7\n        /* \"#utility.yul\":5226:5242   */\n      add\n        /* \"#utility.yul\":5191:5256   */\n      tag_48\n      jump\t// in\n    tag_132:\n        /* \"#utility.yul\":5281:5310   */\n      tag_133\n        /* \"#utility.yul\":5303:5309   */\n      dup2\n        /* \"#utility.yul\":5281:5310   */\n      tag_31\n      jump\t// in\n    tag_133:\n        /* \"#utility.yul\":5276:5279   */\n      dup5\n        /* \"#utility.yul\":5272:5311   */\n      add\n        /* \"#utility.yul\":5265:5311   */\n      swap2\n      pop\n        /* \"#utility.yul\":5032:5317   */\n      pop\n        /* \"#utility.yul\":4940:5317   */\n      swap3\n      swap2\n      pop\n      pop\n      jump\t// out\n        /* \"#utility.yul\":5323:5400   */\n    tag_50:\n        /* \"#utility.yul\":5360:5367   */\n      0x00\n        /* \"#utility.yul\":5389:5394   */\n      dup2\n        /* \"#utility.yul\":5378:5394   */\n      swap1\n      pop\n        /* \"#utility.yul\":5323:5400   */\n      swap2\n      swap1\n      pop\n      jump\t// out\n        /* \"#utility.yul\":5406:5524   */\n    tag_51:\n        /* \"#utility.yul\":5493:5517   */\n      tag_136\n        /* \"#utility.yul\":5511:5516   */\n      dup2\n        /* \"#utility.yul\":5493:5517   */\n      tag_50\n      jump\t// in\n    tag_136:\n        /* \"#utility.yul\":5488:5491   */\n      dup3\n        /* \"#utility.yul\":5481:5518   */\n      mstore\n        /* \"#utility.yul\":5406:5524   */\n      pop\n      pop\n      jump\t// out\n        /* \"#utility.yul\":5530:5953   */\n    tag_14:\n        /* \"#utility.yul\":5671:5675   */\n      0x00\n        /* \"#utility.yul\":5709:5711   */\n      0x40\n        /* \"#utility.yul\":5698:5707   */\n      dup3\n        /* \"#utility.yul\":5694:5712   */\n      add\n        /* \"#utility.yul\":5686:5712   */\n      swap1\n      pop\n        /* \"#utility.yul\":5758:5767   */\n      dup2\n        /* \"#utility.yul\":5752:5756   */\n      dup2\n        /* \"#utility.yul\":5748:5768   */\n      sub\n        /* \"#utility.yul\":5744:5745   */\n      0x00\n        /* \"#utility.yul\":5733:5742   */\n      dup4\n        /* \"#utility.yul\":5729:5746   */\n      add\n        /* \"#utility.yul\":5722:5769   */\n      mstore\n        /* \"#utility.yul\":5786:5864   */\n      tag_138\n        /* \"#utility.yul\":5859:5863   */\n      dup2\n        /* \"#utility.yul\":5850:5856   */\n      dup6\n        /* \"#utility.yul\":5786:5864   */\n      tag_49\n      jump\t// in\n    tag_138:\n        /* \"#utility.yul\":5778:5864   */\n      swap1\n      pop\n        /* \"#utility.yul\":5874:5946   */\n      tag_139\n        /* \"#utility.yul\":5942:5944   */\n      0x20\n        /* \"#utility.yul\":5931:5940   */\n      dup4\n        /* \"#utility.yul\":5927:5945   */\n      add\n        /* \"#utility.yul\":5918:5924   */\n      dup5\n        /* \"#utility.yul\":5874:5946   */\n      tag_51\n      jump\t// in\n    tag_139:\n        /* \"#utility.yul\":5530:5953   */\n      swap4\n      swap3\n      pop\n      pop\n      pop\n      jump\t// out\n        /* \"#utility.yul\":5959:6139   */\n    tag_52:\n        /* \"#utility.yul\":6007:6084   */\n      0x4e487b7100000000000000000000000000000000000000000000000000000000\n        /* \"#utility.yul\":6004:6005   */\n      0x00\n        /* \"#utility.yul\":5997:6085   */\n      mstore\n        /* \"#utility.yul\":6104:6108   */\n      0x22\n        /* \"#utility.yul\":6101:6102   */\n      0x04\n        /* \"#utility.yul\":6094:6109   */\n      mstore\n        /* \"#utility.yul\":6128:6132   */\n      0x24\n        /* \"#utility.yul\":6125:6126   */\n      0x00\n        /* \"#utility.yul\":6118:6133   */\n      revert\n        /* \"#utility.yul\":6145:6465   */\n    tag_21:\n        /* \"#utility.yul\":6189:6195   */\n      0x00\n        /* \"#utility.yul\":6226:6227   */\n      0x02\n        /* \"#utility.yul\":6220:6224   */\n      dup3\n        /* \"#utility.yul\":6216:6228   */\n      div\n        /* \"#utility.yul\":6206:6228   */\n      swap1\n      pop\n        /* \"#utility.yul\":6273:6274   */\n      0x01\n        /* \"#utility.yul\":6267:6271   */\n      dup3\n        /* \"#utility.yul\":6263:6275   */\n      and\n        /* \"#utility.yul\":6294:6312   */\n      dup1\n        /* \"#utility.yul\":6284:6365   */\n      tag_142\n      jumpi\n        /* \"#utility.yul\":6350:6354   */\n      0x7f\n        /* \"#utility.yul\":6342:6348   */\n      dup3\n        /* \"#utility.yul\":6338:6355   */\n      and\n        /* \"#utility.yul\":6328:6355   */\n      swap2\n      pop\n        /* \"#utility.yul\":6284:6365   */\n    tag_142:\n        /* \"#utility.yul\":6412:6414   */\n      0x20\n        /* \"#utility.yul\":6404:6410   */\n      dup3\n        /* \"#utility.yul\":6401:6415   */\n      lt\n        /* \"#utility.yul\":6381:6399   */\n      dup2\n        /* \"#utility.yul\":6378:6416   */\n      sub\n        /* \"#utility.yul\":6375:6459   */\n      tag_143\n      jumpi\n        /* \"#utility.yul\":6431:6449   */\n      tag_144\n      tag_52\n      jump\t// in\n    tag_144:\n        /* \"#utility.yul\":6375:6459   */\n    tag_143:\n        /* \"#utility.yul\":6196:6465   */\n      pop\n        /* \"#utility.yul\":6145:6465   */\n      swap2\n      swap1\n      pop\n      jump\t// out\n        /* \"#utility.yul\":6471:6612   */\n    tag_53:\n        /* \"#utility.yul\":6520:6524   */\n      0x00\n        /* \"#utility.yul\":6543:6546   */\n      dup2\n        /* \"#utility.yul\":6535:6546   */\n      swap1\n      pop\n        /* \"#utility.yul\":6566:6569   */\n      dup2\n        /* \"#utility.yul\":6563:6564   */\n      0x00\n        /* \"#utility.yul\":6556:6570   */\n      mstore\n        /* \"#utility.yul\":6600:6604   */\n      0x20\n        /* \"#utility.yul\":6597:6598   */\n      0x00\n        /* \"#utility.yul\":6587:6605   */\n      keccak256\n        /* \"#utility.yul\":6579:6605   */\n      swap1\n      pop\n        /* \"#utility.yul\":6471:6612   */\n      swap2\n      swap1\n      pop\n      jump\t// out\n        /* \"#utility.yul\":6618:6711   */\n    tag_54:\n        /* \"#utility.yul\":6655:6661   */\n      0x00\n        /* \"#utility.yul\":6702:6704   */\n      0x20\n        /* \"#utility.yul\":6697:6699   */\n      0x1f\n        /* \"#utility.yul\":6690:6695   */\n      dup4\n        /* \"#utility.yul\":6686:6700   */\n      add\n        /* \"#utility.yul\":6682:6705   */\n      div\n        /* \"#utility.yul\":6672:6705   */\n      swap1\n      pop\n        /* \"#utility.yul\":6618:6711   */\n      swap2\n      swap1\n      pop\n      jump\t// out\n        /* \"#utility.yul\":6717:6824   */\n    tag_55:\n        /* \"#utility.yul\":6761:6769   */\n      0x00\n        /* \"#utility.yul\":6811:6816   */\n      dup3\n        /* \"#utility.yul\":6805:6809   */\n      dup3\n        /* \"#utility.yul\":6801:6817   */\n      shl\n        /* \"#utility.yul\":6780:6817   */\n      swap1\n      pop\n        /* \"#utility.yul\":6717:6824   */\n      swap3\n      swap2\n      pop\n      pop\n      jump\t// out\n        /* \"#utility.yul\":6830:7223   */\n    tag_56:\n        /* \"#utility.yul\":6899:6905   */\n      0x00\n        /* \"#utility.yul\":6949:6950   */\n      0x08\n        /* \"#utility.yul\":6937:6947   */\n      dup4\n        /* \"#utility.yul\":6933:6951   */\n      mul\n        /* \"#utility.yul\":6972:7069   */\n      tag_149\n        /* \"#utility.yul\":7002:7068   */\n      0xffffffffffffffffffffffffffffffffffffffffffffffffffffffffffffffff\n        /* \"#utility.yul\":6991:7000   */\n      dup3\n        /* \"#utility.yul\":6972:7069   */\n      tag_55\n      jump\t// in\n    tag_149:\n        /* \"#utility.yul\":7090:7129   */\n      tag_150\n        /* \"#utility.yul\":7120:7128   */\n      dup7\n        /* \"#utility.yul\":7109:7118   */\n      dup4\n        /* \"#utility.yul\":7090:7129   */\n      tag_55\n      jump\t// in\n    tag_150:\n        /* \"#utility.yul\":7078:7129   */\n      swap6\n      pop\n        /* \"#utility.yul\":7162:7166   */\n      dup1\n        /* \"#utility.yul\":7158:7167   */\n      not\n        /* \"#utility.yul\":7151:7156   */\n      dup5\n        /* \"#utility.yul\":7147:7168   */\n      and\n        /* \"#utility.yul\":7138:7168   */\n      swap4\n      pop\n        /* \"#utility.yul\":7211:7215   */\n      dup1\n        /* \"#utility.yul\":7201:7209   */\n      dup7\n        /* \"#utility.yul\":7197:7216   */\n      and\n        /* \"#utility.yul\":7190:7195   */\n      dup5\n        /* \"#utility.yul\":7187:7217   */\n      or\n        /* \"#utility.yul\":7177:7217   */\n      swap3\n      pop\n        /* \"#utility.yul\":6906:7223   */\n      pop\n      pop\n        /* \"#utility.yul\":6830:7223   */\n      swap4\n      swap3\n      pop\n      pop\n      pop\n      jump\t// out\n        /* \"#utility.yul\":7229:7289   */\n    tag_57:\n        /* \"#utility.yul\":7257:7260   */\n      0x00\n        /* \"#utility.yul\":7278:7283   */\n      dup2\n        /* \"#utility.yul\":7271:7283   */\n      swap1\n      pop\n        /* \"#utility.yul\":7229:7289   */\n      swap2\n      swap1\n      pop\n      jump\t// out\n        /* \"#utility.yul\":7295:7437   */\n    tag_58:\n        /* \"#utility.yul\":7345:7354   */\n      0x00\n        /* \"#utility.yul\":7378:7431   */\n      tag_153\n        /* \"#utility.yul\":7396:7430   */\n      tag_154\n        /* \"#utility.yul\":7405:7429   */\n      tag_155\n        /* \"#utility.yul\":7423:7428   */\n      dup5\n        /* \"#utility.yul\":7405:7429   */\n      tag_50\n      jump\t// in\n    tag_155:\n        /* \"#utility.yul\":7396:7430   */\n      tag_57\n      jump\t// in\n    tag_154:\n        /* \"#utility.yul\":7378:7431   */\n      tag_50\n      jump\t// in\n    tag_153:\n        /* \"#utility.yul\":7365:7431   */\n      swap1\n      pop\n        /* \"#utility.yul\":7295:7437   */\n      swap2\n      swap1\n      pop\n      jump\t// out\n        /* \"#utility.yul\":7443:7518   */\n    tag_59:\n        /* \"#utility.yul\":7486:7489   */\n      0x00\n        /* \"#utility.yul\":7507:7512   */\n      dup2\n        /* \"#utility.yul\":7500:7512   */\n      swap1\n      pop\n        /* \"#utility.yul\":7443:7518   */\n      swap2\n      swap1\n      pop\n      jump\t// out\n        /* \"#utility.yul\":7524:7793   */\n    tag_60:\n        /* \"#utility.yul\":7634:7673   */\n      tag_158\n        /* \"#utility.yul\":7665:7672   */\n      dup4\n        /* \"#utility.yul\":7634:7673   */\n      tag_58\n      jump\t// in\n    tag_158:\n        /* \"#utility.yul\":7695:7786   */\n      tag_159\n        /* \"#utility.yul\":7744:7785   */\n      tag_160\n        /* \"#utility.yul\":7768:7784   */\n      dup3\n        /* \"#utility.yul\":7744:7785   */\n      tag_59\n      jump\t// in\n    tag_160:\n        /* \"#utility.yul\":7736:7742   */\n      dup5\n        /* \"#utility.yul\":7729:7733   */\n      dup5\n        /* \"#utility.yul\":7723:7734   */\n      sload\n        /* \"#utility.yul\":7695:7786   */\n      tag_56\n      jump\t// in\n    tag_159:\n        /* \"#utility.yul\":7689:7693   */\n      dup3\n        /* \"#utility.yul\":7682:7787   */\n      sstore\n        /* \"#utility.yul\":7600:7793   */\n      pop\n        /* \"#utility.yul\":7524:7793   */\n      pop\n      pop\n      pop\n      jump\t// out\n        /* \"#utility.yul\":7799:7872   */\n    tag_61:\n        /* \"#utility.yul\":7844:7847   */\n      0x00\n        /* \"#utility.yul\":7799:7872   */\n      swap1\n      jump\t// out\n        /* \"#utility.yul\":7878:8067   */\n    tag_62:\n        /* \"#utility.yul\":7955:7987   */\n      tag_163\n      tag_61\n      jump\t// in\n    tag_163:\n        /* \"#utility.yul\":7996:8061   */\n      tag_164\n        /* \"#utility.yul\":8054:8060   */\n      dup2\n        /* \"#utility.yul\":8046:8052   */\n      dup5\n        /* \"#utility.yul\":8040:8044   */\n      dup5\n        /* \"#utility.yul\":7996:8061   */\n      tag_60\n      jump\t// in\n    tag_164:\n        /* \"#utility.yul\":7931:8067   */\n      pop\n        /* \"#utility.yul\":7878:8067   */\n      pop\n      pop\n      jump\t// out\n        /* \"#utility.yul\":8073:8259   */\n    tag_63:\n        /* \"#utility.yul\":8133:8253   */\n    tag_166:\n        /* \"#utility.yul\":8150:8153   */\n      dup2\n        /* \"#utility.yul\":8143:8148   */\n      dup2\n        /* \"#utility.yul\":8140:8154   */\n      lt\n        /* \"#utility.yul\":8133:8253   */\n      iszero\n      tag_168\n      jumpi\n        /* \"#utility.yul\":8204:8243   */\n      tag_169\n        /* \"#utility.yul\":8241:8242   */\n      0x00\n        /* \"#utility.yul\":8234:8239   */\n      dup3\n        /* \"#utility.yul\":8204:8243   */\n      tag_62\n      jump\t// in\n    tag_169:\n        /* \"#utility.yul\":8177:8178   */\n      0x01\n        /* \"#utility.yul\":8170:8175   */\n      dup2\n        /* \"#utility.yul\":8166:8179   */\n      add\n        /* \"#utility.yul\":8157:8179   */\n      swap1\n      pop\n        /* \"#utility.yul\":8133:8253   */\n      jump(tag_166)\n    tag_168:\n        /* \"#utility.yul\":8073:8259   */\n      pop\n      pop\n      jump\t// out\n        /* \"#utility.yul\":8265:8808   */\n    tag_64:\n        /* \"#utility.yul\":8366:8368   */\n      0x1f\n        /* \"#utility.yul\":8361:8364   */\n      dup3\n        /* \"#utility.yul\":8358:8369   */\n      gt\n        /* \"#utility.yul\":8355:8801   */\n      iszero\n      tag_171\n      jumpi\n        /* \"#utility.yul\":8400:8438   */\n      tag_172\n        /* \"#utility.yul\":8432:8437   */\n      dup2\n        /* \"#utility.yul\":8400:8438   */\n      tag_53\n      jump\t// in\n    tag_172:\n        /* \"#utility.yul\":8484:8513   */\n      tag_173\n        /* \"#utility.yul\":8502:8512   */\n      dup5\n        /* \"#utility.yul\":8484:8513   */\n      tag_54\n      jump\t// in\n    tag_173:\n        /* \"#utility.yul\":8474:8482   */\n      dup2\n        /* \"#utility.yul\":8470:8514   */\n      add\n        /* \"#utility.yul\":8667:8669   */\n      0x20\n        /* \"#utility.yul\":8655:8665   */\n      dup6\n        /* \"#utility.yul\":8652:8670   */\n      lt\n        /* \"#utility.yul\":8649:8698   */\n      iszero\n      tag_174\n      jumpi\n        /* \"#utility.yul\":8688:8696   */\n      dup2\n        /* \"#utility.yul\":8673:8696   */\n      swap1\n      pop\n        /* \"#utility.yul\":8649:8698   */\n    tag_174:\n        /* \"#utility.yul\":8711:8791   */\n      tag_175\n        /* \"#utility.yul\":8767:8789   */\n      tag_176\n        /* \"#utility.yul\":8785:8788   */\n      dup6\n        /* \"#utility.yul\":8767:8789   */\n      tag_54\n      jump\t// in\n    tag_176:\n        /* \"#utility.yul\":8757:8765   */\n      dup4\n        /* \"#utility.yul\":8753:8790   */\n      add\n        /* \"#utility.yul\":8740:8751   */\n      dup3\n        /* \"#utility.yul\":8711:8791   */\n      tag_63\n      jump\t// in\n    tag_175:\n        /* \"#utility.yul\":8370:8801   */\n      pop\n      pop\n        /* \"#utility.yul\":8355:8801   */\n    tag_171:\n        /* \"#utility.yul\":8265:8808   */\n      pop\n      pop\n      pop\n      jump\t// out\n        /* \"#utility.yul\":8814:8931   */\n    tag_65:\n        /* \"#utility.yul\":8868:8876   */\n      0x00\n        /* \"#utility.yul\":8918:8923   */\n      dup3\n        /* \"#utility.yul\":8912:8916   */\n      dup3\n        /* \"#utility.yul\":8908:8924   */\n      shr\n        /* \"#utility.yul\":8887:8924   */\n      swap1\n      pop\n        /* \"#utility.yul\":8814:8931   */\n      swap3\n      swap2\n      pop\n      pop\n      jump\t// out\n        /* \"#utility.yul\":8937:9106   */\n    tag_66:\n        /* \"#utility.yul\":8981:8987   */\n      0x00\n        /* \"#utility.yul\":9014:9065   */\n      tag_179\n        /* \"#utility.yul\":9062:9063   */\n      0x00\n        /* \"#utility.yul\":9058:9064   */\n      not\n        /* \"#utility.yul\":9050:9055   */\n      dup5\n        /* \"#utility.yul\":9047:9048   */\n      0x08\n        /* \"#utility.yul\":9043:9056   */\n      mul\n        /* \"#utility.yul\":9014:9065   */\n      tag_65\n      jump\t// in\n    tag_179:\n        /* \"#utility.yul\":9010:9066   */\n      not\n        /* \"#utility.yul\":9095:9099   */\n      dup1\n        /* \"#utility.yul\":9089:9093   */\n      dup4\n        /* \"#utility.yul\":9085:9100   */\n      and\n        /* \"#utility.yul\":9075:9100   */\n      swap2\n      pop\n        /* \"#utility.yul\":8988:9106   */\n      pop\n        /* \"#utility.yul\":8937:9106   */\n      swap3\n      swap2\n      pop\n      pop\n      jump\t// out\n        /* \"#utility.yul\":9111:9406   */\n    tag_67:\n        /* \"#utility.yul\":9187:9191   */\n      0x00\n        /* \"#utility.yul\":9333:9362   */\n      tag_181\n        /* \"#utility.yul\":9358:9361   */\n      dup4\n        /* \"#utility.yul\":9352:9356   */\n      dup4\n        /* \"#utility.yul\":9333:9362   */\n      tag_66\n      jump\t// in\n    tag_181:\n        /* \"#utility.yul\":9325:9362   */\n      swap2\n      pop\n        /* \"#utility.yul\":9395:9398   */\n      dup3\n        /* \"#utility.yul\":9392:9393   */\n      0x02\n        /* \"#utility.yul\":9388:9399   */\n      mul\n        /* \"#utility.yul\":9382:9386   */\n      dup3\n        /* \"#utility.yul\":9379:9400   */\n      or\n        /* \"#utility.yul\":9371:9400   */\n      swap1\n      pop\n        /* \"#utility.yul\":9111:9406   */\n      swap3\n      swap2\n      pop\n      pop\n      jump\t// out\n        /* \"#utility.yul\":9411:10806   */\n    tag_17:\n        /* \"#utility.yul\":9528:9565   */\n      tag_183\n        /* \"#utility.yul\":9561:9564   */\n      dup3\n        /* \"#utility.yul\":9528:9565   */\n      tag_46\n      jump\t// in\n    tag_183:\n        /* \"#utility.yul\":9630:9648   */\n      0xffffffffffffffff\n        /* \"#utility.yul\":9622:9628   */\n      dup2\n        /* \"#utility.yul\":9619:9649   */\n      gt\n        /* \"#utility.yul\":9616:9672   */\n      iszero\n      tag_184\n      jumpi\n        /* \"#utility.yul\":9652:9670   */\n      tag_185\n      tag_32\n      jump\t// in\n    tag_185:\n        /* \"#utility.yul\":9616:9672   */\n    tag_184:\n        /* \"#utility.yul\":9696:9734   */\n      tag_186\n        /* \"#utility.yul\":9728:9732   */\n      dup3\n        /* \"#utility.yul\":9722:9733   */\n      sload\n        /* \"#utility.yul\":9696:9734   */\n      tag_21\n      jump\t// in\n    tag_186:\n        /* \"#utility.yul\":9781:9848   */\n      tag_187\n        /* \"#utility.yul\":9841:9847   */\n      dup3\n        /* \"#utility.yul\":9833:9839   */\n      dup3\n        /* \"#utility.yul\":9827:9831   */\n      dup6\n        /* \"#utility.yul\":9781:9848   */\n      tag_64\n      jump\t// in\n    tag_187:\n        /* \"#utility.yul\":9875:9876   */\n      0x00\n        /* \"#utility.yul\":9899:9903   */\n      0x20\n        /* \"#utility.yul\":9886:9903   */\n      swap1\n      pop\n        /* \"#utility.yul\":9931:9933   */\n      0x1f\n        /* \"#utility.yul\":9923:9929   */\n      dup4\n        /* \"#utility.yul\":9920:9934   */\n      gt\n        /* \"#utility.yul\":9948:9949   */\n      0x01\n        /* \"#utility.yul\":9943:10561   */\n      dup2\n      eq\n      tag_189\n      jumpi\n        /* \"#utility.yul\":10605:10606   */\n      0x00\n        /* \"#utility.yul\":10622:10628   */\n      dup5\n        /* \"#utility.yul\":10619:10696   */\n      iszero\n      tag_190\n      jumpi\n        /* \"#utility.yul\":10671:10680   */\n      dup3\n        /* \"#utility.yul\":10666:10669   */\n      dup8\n        /* \"#utility.yul\":10662:10681   */\n      add\n        /* \"#utility.yul\":10656:10682   */\n      mload\n        /* \"#utility.yul\":10647:10682   */\n      swap1\n      pop\n        /* \"#utility.yul\":10619:10696   */\n    tag_190:\n        /* \"#utility.yul\":10722:10789   */\n      tag_191\n        /* \"#utility.yul\":10782:10788   */\n      dup6\n        /* \"#utility.yul\":10775:10780   */\n      dup3\n        /* \"#utility.yul\":10722:10789   */\n      tag_67\n      jump\t// in\n    tag_191:\n        /* \"#utility.yul\":10716:10720   */\n      dup7\n        /* \"#utility.yul\":10709:10790   */\n      sstore\n        /* \"#utility.yul\":10578:10800   */\n      pop\n        /* \"#utility.yul\":9913:10800   */\n      jump(tag_188)\n        /* \"#utility.yul\":9943:10561   */\n    tag_189:\n        /* \"#utility.yul\":9995:9999   */\n      0x1f\n        /* \"#utility.yul\":9991:10000   */\n      not\n        /* \"#utility.yul\":9983:9989   */\n      dup5\n        /* \"#utility.yul\":9979:10001   */\n      and\n        /* \"#utility.yul\":10029:10066   */\n      tag_192\n        /* \"#utility.yul\":10061:10065   */\n      dup7\n        /* \"#utility.yul\":10029:10066   */\n      tag_53\n      jump\t// in\n    tag_192:\n        /* \"#utility.yul\":10088:10089   */\n      0x00\n        /* \"#utility.yul\":10102:10310   */\n    tag_193:\n        /* \"#utility.yul\":10116:10123   */\n      dup3\n        /* \"#utility.yul\":10113:10114   */\n      dup2\n        /* \"#utility.yul\":10110:10124   */\n      lt\n        /* \"#utility.yul\":10102:10310   */\n      iszero\n      tag_195\n      jumpi\n        /* \"#utility.yul\":10195:10204   */\n      dup5\n        /* \"#utility.yul\":10190:10193   */\n      dup10\n        /* \"#utility.yul\":10186:10205   */\n      add\n        /* \"#utility.yul\":10180:10206   */\n      mload\n        /* \"#utility.yul\":10172:10178   */\n      dup3\n        /* \"#utility.yul\":10165:10207   */\n      sstore\n        /* \"#utility.yul\":10246:10247   */\n      0x01\n        /* \"#utility.yul\":10238:10244   */\n      dup3\n        /* \"#utility.yul\":10234:10248   */\n      add\n        /* \"#utility.yul\":10224:10248   */\n      swap2\n      pop\n        /* \"#utility.yul\":10293:10295   */\n      0x20\n        /* \"#utility.yul\":10282:10291   */\n      dup6\n        /* \"#utility.yul\":10278:10296   */\n      add\n        /* \"#utility.yul\":10265:10296   */\n      swap5\n      pop\n        /* \"#utility.yul\":10139:10143   */\n      0x20\n        /* \"#utility.yul\":10136:10137   */\n      dup2\n        /* \"#utility.yul\":10132:10144   */\n      add\n        /* \"#utility.yul\":10127:10144   */\n      swap1\n      pop\n        /* \"#utility.yul\":10102:10310   */\n      jump(tag_193)\n    tag_195:\n        /* \"#utility.yul\":10338:10344   */\n      dup7\n        /* \"#utility.yul\":10329:10336   */\n      dup4\n        /* \"#utility.yul\":10326:10345   */\n      lt\n        /* \"#utility.yul\":10323:10502   */\n      iszero\n      tag_196\n      jumpi\n        /* \"#utility.yul\":10396:10405   */\n      dup5\n        /* \"#utility.yul\":10391:10394   */\n      dup10\n        /* \"#utility.yul\":10387:10406   */\n      add\n        /* \"#utility.yul\":10381:10407   */\n      mload\n        /* \"#utility.yul\":10439:10487   */\n      tag_197\n        /* \"#utility.yul\":10481:10485   */\n      0x1f\n        /* \"#utility.yul\":10473:10479   */\n      dup10\n        /* \"#utility.yul\":10469:10486   */\n      and\n        /* \"#utility.yul\":10458:10467   */\n      dup3\n        /* \"#utility.yul\":10439:10487   */\n      tag_66\n      jump\t// in\n    tag_197:\n        /* \"#utility.yul\":10431:10437   */\n      dup4\n        /* \"#utility.yul\":10424:10488   */\n      sstore\n        /* \"#utility.yul\":10346:10502   */\n      pop\n        /* \"#utility.yul\":10323:10502   */\n    tag_196:\n        /* \"#utility.yul\":10548:10549   */\n      0x01\n        /* \"#utility.yul\":10544:10545   */\n      0x02\n        /* \"#utility.yul\":10536:10542   */\n      dup9\n        /* \"#utility.yul\":10532:10546   */\n      mul\n        /* \"#utility.yul\":10528:10550   */\n      add\n        /* \"#utility.yul\":10522:10526   */\n      dup9\n        /* \"#utility.yul\":10515:10551   */\n      sstore\n        /* \"#utility.yul\":9950:10561   */\n      pop\n      pop\n      pop\n        /* \"#utility.yul\":9913:10800   */\n    tag_188:\n      pop\n        /* \"#utility.yul\":9503:10806   */\n      pop\n      pop\n      pop\n        /* \"#utility.yul\":9411:10806   */\n      pop\n      pop\n      jump\t// out\n        /* \"#utility.yul\":10812:11125   */\n    tag_19:\n        /* \"#utility.yul\":10925:10929   */\n      0x00\n        /* \"#utility.yul\":10963:10965   */\n      0x20\n        /* \"#utility.yul\":10952:10961   */\n      dup3\n        /* \"#utility.yul\":10948:10966   */\n      add\n        /* \"#utility.yul\":10940:10966   */\n      swap1\n      pop\n        /* \"#utility.yul\":11012:11021   */\n      dup2\n        /* \"#utility.yul\":11006:11010   */\n      dup2\n        /* \"#utility.yul\":11002:11022   */\n      sub\n        /* \"#utility.yul\":10998:10999   */\n      0x00\n        /* \"#utility.yul\":10987:10996   */\n      dup4\n        /* \"#utility.yul\":10983:11000   */\n      add\n        /* \"#utility.yul\":10976:11023   */\n      mstore\n        /* \"#utility.yul\":11040:11118   */\n      tag_199\n        /* \"#utility.yul\":11113:11117   */\n      dup2\n        /* \"#utility.yul\":11104:11110   */\n      dup5\n        /* \"#utility.yul\":11040:11118   */\n      tag_49\n      jump\t// in\n    tag_199:\n        /* \"#utility.yul\":11032:11118   */\n      swap1\n      pop\n        /* \"#utility.yul\":10812:11125   */\n      swap3\n      swap2\n      pop\n      pop\n      jump\t// out\n\n    auxdata: 0xa2646970667358221220bf03923d25032dd0bb56d1f0002b8fd68d93c8af7ad1ecf3f98b085761b8036f64736f6c63430008180033\n}\n",
				"bytecode": {
					"linkReferences": {},
					"object": "608060405234801561000f575f80fd5b5061081a8061001d5f395ff3fe608060405234801561000f575f80fd5b5060043610610034575f3560e01c8063338e12eb14610038578063a87430ba14610054575b5f80fd5b610052600480360381019061004d919061035c565b610085565b005b61006e60048036038101906100699190610410565b610134565b60405161007c9291906104cd565b60405180910390f35b5f805f3373ffffffffffffffffffffffffffffffffffffffff1673ffffffffffffffffffffffffffffffffffffffff1681526020019081526020015f20905082815f0190816100d491906106f5565b508160ff1681600101819055503373ffffffffffffffffffffffffffffffffffffffff167f1d2b3529f3edbf84c2fbf46a16fa81880bd170f19142f18267f113903389a6dc8460405161012791906107c4565b60405180910390a2505050565b5f602052805f5260405f205f91509050805f01805461015290610528565b80601f016020809104026020016040519081016040528092919081815260200182805461017e90610528565b80156101c95780601f106101a0576101008083540402835291602001916101c9565b820191905f5260205f20905b8154815290600101906020018083116101ac57829003601f168201915b5050505050908060010154905082565b5f604051905090565b5f80fd5b5f80fd5b5f80fd5b5f80fd5b5f601f19601f8301169050919050565b7f4e487b71000000000000000000000000000000000000000000000000000000005f52604160045260245ffd5b610238826101f2565b810181811067ffffffffffffffff8211171561025757610256610202565b5b80604052505050565b5f6102696101d9565b9050610275828261022f565b919050565b5f67ffffffffffffffff82111561029457610293610202565b5b61029d826101f2565b9050602081019050919050565b828183375f83830152505050565b5f6102ca6102c58461027a565b610260565b9050828152602081018484840111156102e6576102e56101ee565b5b6102f18482856102aa565b509392505050565b5f82601f83011261030d5761030c6101ea565b5b813561031d8482602086016102b8565b91505092915050565b5f60ff82169050919050565b61033b81610326565b8114610345575f80fd5b50565b5f8135905061035681610332565b92915050565b5f8060408385031215610372576103716101e2565b5b5f83013567ffffffffffffffff81111561038f5761038e6101e6565b5b61039b858286016102f9565b92505060206103ac85828601610348565b9150509250929050565b5f73ffffffffffffffffffffffffffffffffffffffff82169050919050565b5f6103df826103b6565b9050919050565b6103ef816103d5565b81146103f9575f80fd5b50565b5f8135905061040a816103e6565b92915050565b5f60208284031215610425576104246101e2565b5b5f610432848285016103fc565b91505092915050565b5f81519050919050565b5f82825260208201905092915050565b5f5b83811015610472578082015181840152602081019050610457565b5f8484015250505050565b5f6104878261043b565b6104918185610445565b93506104a1818560208601610455565b6104aa816101f2565b840191505092915050565b5f819050919050565b6104c7816104b5565b82525050565b5f6040820190508181035f8301526104e5818561047d565b90506104f460208301846104be565b9392505050565b7f4e487b71000000000000000000000000000000000000000000000000000000005f52602260045260245ffd5b5f600282049050600182168061053f57607f821691505b602082108103610552576105516104fb565b5b50919050565b5f819050815f5260205f209050919050565b5f6020601f8301049050919050565b5f82821b905092915050565b5f600883026105b47fffffffffffffffffffffffffffffffffffffffffffffffffffffffffffffffff82610579565b6105be8683610579565b95508019841693508086168417925050509392505050565b5f819050919050565b5f6105f96105f46105ef846104b5565b6105d6565b6104b5565b9050919050565b5f819050919050565b610612836105df565b61062661061e82610600565b848454610585565b825550505050565b5f90565b61063a61062e565b610645818484610609565b505050565b5b818110156106685761065d5f82610632565b60018101905061064b565b5050565b601f8211156106ad5761067e81610558565b6106878461056a565b81016020851015610696578190505b6106aa6106a28561056a565b83018261064a565b50505b505050565b5f82821c905092915050565b5f6106cd5f19846008026106b2565b1980831691505092915050565b5f6106e583836106be565b9150826002028217905092915050565b6106fe8261043b565b67ffffffffffffffff81111561071757610716610202565b5b6107218254610528565b61072c82828561066c565b5f60209050601f83116001811461075d575f841561074b578287015190505b61075585826106da565b8655506107bc565b601f19841661076b86610558565b5f5b828110156107925784890151825560018201915060208501945060208101905061076d565b868310156107af57848901516107ab601f8916826106be565b8355505b6001600288020188555050505b505050505050565b5f6020820190508181035f8301526107dc818461047d565b90509291505056fea2646970667358221220bf03923d25032dd0bb56d1f0002b8fd68d93c8af7ad1ecf3f98b085761b8036f64736f6c63430008180033",
					"opcodes": "PUSH1 0x80 PUSH1 0x40 MSTORE CALLVALUE DUP1 ISZERO PUSH2 0xF JUMPI PUSH0 DUP1 REVERT JUMPDEST POP PUSH2 0x81A DUP1 PUSH2 0x1D PUSH0 CODECOPY PUSH0 RETURN INVALID PUSH1 0x80 PUSH1 0x40 MSTORE CALLVALUE DUP1 ISZERO PUSH2 0xF JUMPI PUSH0 DUP1 REVERT JUMPDEST POP PUSH1 0x4 CALLDATASIZE LT PUSH2 0x34 JUMPI PUSH0 CALLDATALOAD PUSH1 0xE0 SHR DUP1 PUSH4 0x338E12EB EQ PUSH2 0x38 JUMPI DUP1 PUSH4 0xA87430BA EQ PUSH2 0x54 JUMPI JUMPDEST PUSH0 DUP1 REVERT JUMPDEST PUSH2 0x52 PUSH1 0x4 DUP1 CALLDATASIZE SUB DUP2 ADD SWAP1 PUSH2 0x4D SWAP2 SWAP1 PUSH2 0x35C JUMP JUMPDEST PUSH2 0x85 JUMP JUMPDEST STOP JUMPDEST PUSH2 0x6E PUSH1 0x4 DUP1 CALLDATASIZE SUB DUP2 ADD SWAP1 PUSH2 0x69 SWAP2 SWAP1 PUSH2 0x410 JUMP JUMPDEST PUSH2 0x134 JUMP JUMPDEST PUSH1 0x40 MLOAD PUSH2 0x7C SWAP3 SWAP2 SWAP1 PUSH2 0x4CD JUMP JUMPDEST PUSH1 0x40 MLOAD DUP1 SWAP2 SUB SWAP1 RETURN JUMPDEST PUSH0 DUP1 PUSH0 CALLER PUSH20 0xFFFFFFFFFFFFFFFFFFFFFFFFFFFFFFFFFFFFFFFF AND PUSH20 0xFFFFFFFFFFFFFFFFFFFFFFFFFFFFFFFFFFFFFFFF AND DUP2 MSTORE PUSH1 0x20 ADD SWAP1 DUP2 MSTORE PUSH1 0x20 ADD PUSH0 KECCAK256 SWAP1 POP DUP3 DUP2 PUSH0 ADD SWAP1 DUP2 PUSH2 0xD4 SWAP2 SWAP1 PUSH2 0x6F5 JUMP JUMPDEST POP DUP2 PUSH1 0xFF AND DUP2 PUSH1 0x1 ADD DUP2 SWAP1 SSTORE POP CALLER PUSH20 0xFFFFFFFFFFFFFFFFFFFFFFFFFFFFFFFFFFFFFFFF AND PUSH32 0x1D2B3529F3EDBF84C2FBF46A16FA81880BD170F19142F18267F113903389A6DC DUP5 PUSH1 0x40 MLOAD PUSH2 0x127 SWAP2 SWAP1 PUSH2 0x7C4 JUMP JUMPDEST PUSH1 0x40 MLOAD DUP1 SWAP2 SUB SWAP1 LOG2 POP POP POP JUMP JUMPDEST PUSH0 PUSH1 0x20 MSTORE DUP1 PUSH0 MSTORE PUSH1 0x40 PUSH0 KECCAK256 PUSH0 SWAP2 POP SWAP1 POP DUP1 PUSH0 ADD DUP1 SLOAD PUSH2 0x152 SWAP1 PUSH2 0x528 JUMP JUMPDEST DUP1 PUSH1 0x1F ADD PUSH1 0x20 DUP1 SWAP2 DIV MUL PUSH1 0x20 ADD PUSH1 0x40 MLOAD SWAP1 DUP2 ADD PUSH1 0x40 MSTORE DUP1 SWAP3 SWAP2 SWAP1 DUP2 DUP2 MSTORE PUSH1 0x20 ADD DUP3 DUP1 SLOAD PUSH2 0x17E SWAP1 PUSH2 0x528 JUMP JUMPDEST DUP1 ISZERO PUSH2 0x1C9 JUMPI DUP1 PUSH1 0x1F LT PUSH2 0x1A0 JUMPI PUSH2 0x100 DUP1 DUP4 SLOAD DIV MUL DUP4 MSTORE SWAP2 PUSH1 0x20 ADD SWAP2 PUSH2 0x1C9 JUMP JUMPDEST DUP3 ADD SWAP2 SWAP1 PUSH0 MSTORE PUSH1 0x20 PUSH0 KECCAK256 SWAP1 JUMPDEST DUP2 SLOAD DUP2 MSTORE SWAP1 PUSH1 0x1 ADD SWAP1 PUSH1 0x20 ADD DUP1 DUP4 GT PUSH2 0x1AC JUMPI DUP3 SWAP1 SUB PUSH1 0x1F AND DUP3 ADD SWAP2 JUMPDEST POP POP POP POP POP SWAP1 DUP1 PUSH1 0x1 ADD SLOAD SWAP1 POP DUP3 JUMP JUMPDEST PUSH0 PUSH1 0x40 MLOAD SWAP1 POP SWAP1 JUMP JUMPDEST PUSH0 DUP1 REVERT JUMPDEST PUSH0 DUP1 REVERT JUMPDEST PUSH0 DUP1 REVERT JUMPDEST PUSH0 DUP1 REVERT JUMPDEST PUSH0 PUSH1 0x1F NOT PUSH1 0x1F DUP4 ADD AND SWAP1 POP SWAP2 SWAP1 POP JUMP JUMPDEST PUSH32 0x4E487B7100000000000000000000000000000000000000000000000000000000 PUSH0 MSTORE PUSH1 0x41 PUSH1 0x4 MSTORE PUSH1 0x24 PUSH0 REVERT JUMPDEST PUSH2 0x238 DUP3 PUSH2 0x1F2 JUMP JUMPDEST DUP2 ADD DUP2 DUP2 LT PUSH8 0xFFFFFFFFFFFFFFFF DUP3 GT OR ISZERO PUSH2 0x257 JUMPI PUSH2 0x256 PUSH2 0x202 JUMP JUMPDEST JUMPDEST DUP1 PUSH1 0x40 MSTORE POP POP POP JUMP JUMPDEST PUSH0 PUSH2 0x269 PUSH2 0x1D9 JUMP JUMPDEST SWAP1 POP PUSH2 0x275 DUP3 DUP3 PUSH2 0x22F JUMP JUMPDEST SWAP2 SWAP1 POP JUMP JUMPDEST PUSH0 PUSH8 0xFFFFFFFFFFFFFFFF DUP3 GT ISZERO PUSH2 0x294 JUMPI PUSH2 0x293 PUSH2 0x202 JUMP JUMPDEST JUMPDEST PUSH2 0x29D DUP3 PUSH2 0x1F2 JUMP JUMPDEST SWAP1 POP PUSH1 0x20 DUP2 ADD SWAP1 POP SWAP2 SWAP1 POP JUMP JUMPDEST DUP3 DUP2 DUP4 CALLDATACOPY PUSH0 DUP4 DUP4 ADD MSTORE POP POP POP JUMP JUMPDEST PUSH0 PUSH2 0x2CA PUSH2 0x2C5 DUP5 PUSH2 0x27A JUMP JUMPDEST PUSH2 0x260 JUMP JUMPDEST SWAP1 POP DUP3 DUP2 MSTORE PUSH1 0x20 DUP2 ADD DUP5 DUP5 DUP5 ADD GT ISZERO PUSH2 0x2E6 JUMPI PUSH2 0x2E5 PUSH2 0x1EE JUMP JUMPDEST JUMPDEST PUSH2 0x2F1 DUP5 DUP3 DUP6 PUSH2 0x2AA JUMP JUMPDEST POP SWAP4 SWAP3 POP POP POP JUMP JUMPDEST PUSH0 DUP3 PUSH1 0x1F DUP4 ADD SLT PUSH2 0x30D JUMPI PUSH2 0x30C PUSH2 0x1EA JUMP JUMPDEST JUMPDEST DUP2 CALLDATALOAD PUSH2 0x31D DUP5 DUP3 PUSH1 0x20 DUP7 ADD PUSH2 0x2B8 JUMP JUMPDEST SWAP2 POP POP SWAP3 SWAP2 POP POP JUMP JUMPDEST PUSH0 PUSH1 0xFF DUP3 AND SWAP1 POP SWAP2 SWAP1 POP JUMP JUMPDEST PUSH2 0x33B DUP2 PUSH2 0x326 JUMP JUMPDEST DUP2 EQ PUSH2 0x345 JUMPI PUSH0 DUP1 REVERT JUMPDEST POP JUMP JUMPDEST PUSH0 DUP2 CALLDATALOAD SWAP1 POP PUSH2 0x356 DUP2 PUSH2 0x332 JUMP JUMPDEST SWAP3 SWAP2 POP POP JUMP JUMPDEST PUSH0 DUP1 PUSH1 0x40 DUP4 DUP6 SUB SLT ISZERO PUSH2 0x372 JUMPI PUSH2 0x371 PUSH2 0x1E2 JUMP JUMPDEST JUMPDEST PUSH0 DUP4 ADD CALLDATALOAD PUSH8 0xFFFFFFFFFFFFFFFF DUP2 GT ISZERO PUSH2 0x38F JUMPI PUSH2 0x38E PUSH2 0x1E6 JUMP JUMPDEST JUMPDEST PUSH2 0x39B DUP6 DUP3 DUP7 ADD PUSH2 0x2F9 JUMP JUMPDEST SWAP3 POP POP PUSH1 0x20 PUSH2 0x3AC DUP6 DUP3 DUP7 ADD PUSH2 0x348 JUMP JUMPDEST SWAP2 POP POP SWAP3 POP SWAP3 SWAP1 POP JUMP JUMPDEST PUSH0 PUSH20 0xFFFFFFFFFFFFFFFFFFFFFFFFFFFFFFFFFFFFFFFF DUP3 AND SWAP1 POP SWAP2 SWAP1 POP JUMP JUMPDEST PUSH0 PUSH2 0x3DF DUP3 PUSH2 0x3B6 JUMP JUMPDEST SWAP1 POP SWAP2 SWAP1 POP JUMP JUMPDEST PUSH2 0x3EF DUP2 PUSH2 0x3D5 JUMP JUMPDEST DUP2 EQ PUSH2 0x3F9 JUMPI PUSH0 DUP1 REVERT JUMPDEST POP JUMP JUMPDEST PUSH0 DUP2 CALLDATALOAD SWAP1 POP PUSH2 0x40A DUP2 PUSH2 0x3E6 JUMP JUMPDEST SWAP3 SWAP2 POP POP JUMP JUMPDEST PUSH0 PUSH1 0x20 DUP3 DUP5 SUB SLT ISZERO PUSH2 0x425 JUMPI PUSH2 0x424 PUSH2 0x1E2 JUMP JUMPDEST JUMPDEST PUSH0 PUSH2 0x432 DUP5 DUP3 DUP6 ADD PUSH2 0x3FC JUMP JUMPDEST SWAP2 POP POP SWAP3 SWAP2 POP POP JUMP JUMPDEST PUSH0 DUP2 MLOAD SWAP1 POP SWAP2 SWAP1 POP JUMP JUMPDEST PUSH0 DUP3 DUP3 MSTORE PUSH1 0x20 DUP3 ADD SWAP1 POP SWAP3 SWAP2 POP POP JUMP JUMPDEST PUSH0 JUMPDEST DUP4 DUP2 LT ISZERO PUSH2 0x472 JUMPI DUP1 DUP3 ADD MLOAD DUP2 DUP5 ADD MSTORE PUSH1 0x20 DUP2 ADD SWAP1 POP PUSH2 0x457 JUMP JUMPDEST PUSH0 DUP5 DUP5 ADD MSTORE POP POP POP POP JUMP JUMPDEST PUSH0 PUSH2 0x487 DUP3 PUSH2 0x43B JUMP JUMPDEST PUSH2 0x491 DUP2 DUP6 PUSH2 0x445 JUMP JUMPDEST SWAP4 POP PUSH2 0x4A1 DUP2 DUP6 PUSH1 0x20 DUP7 ADD PUSH2 0x455 JUMP JUMPDEST PUSH2 0x4AA DUP2 PUSH2 0x1F2 JUMP JUMPDEST DUP5 ADD SWAP2 POP POP SWAP3 SWAP2 POP POP JUMP JUMPDEST PUSH0 DUP2 SWAP1 POP SWAP2 SWAP1 POP JUMP JUMPDEST PUSH2 0x4C7 DUP2 PUSH2 0x4B5 JUMP JUMPDEST DUP3 MSTORE POP POP JUMP JUMPDEST PUSH0 PUSH1 0x40 DUP3 ADD SWAP1 POP DUP2 DUP2 SUB PUSH0 DUP4 ADD MSTORE PUSH2 0x4E5 DUP2 DUP6 PUSH2 0x47D JUMP JUMPDEST SWAP1 POP PUSH2 0x4F4 PUSH1 0x20 DUP4 ADD DUP5 PUSH2 0x4BE JUMP JUMPDEST SWAP4 SWAP3 POP POP POP JUMP JUMPDEST PUSH32 0x4E487B7100000000000000000000000000000000000000000000000000000000 PUSH0 MSTORE PUSH1 0x22 PUSH1 0x4 MSTORE PUSH1 0x24 PUSH0 REVERT JUMPDEST PUSH0 PUSH1 0x2 DUP3 DIV SWAP1 POP PUSH1 0x1 DUP3 AND DUP1 PUSH2 0x53F JUMPI PUSH1 0x7F DUP3 AND SWAP2 POP JUMPDEST PUSH1 0x20 DUP3 LT DUP2 SUB PUSH2 0x552 JUMPI PUSH2 0x551 PUSH2 0x4FB JUMP JUMPDEST JUMPDEST POP SWAP2 SWAP1 POP JUMP JUMPDEST PUSH0 DUP2 SWAP1 POP DUP2 PUSH0 MSTORE PUSH1 0x20 PUSH0 KECCAK256 SWAP1 POP SWAP2 SWAP1 POP JUMP JUMPDEST PUSH0 PUSH1 0x20 PUSH1 0x1F DUP4 ADD DIV SWAP1 POP SWAP2 SWAP1 POP JUMP JUMPDEST PUSH0 DUP3 DUP3 SHL SWAP1 POP SWAP3 SWAP2 POP POP JUMP JUMPDEST PUSH0 PUSH1 0x8 DUP4 MUL PUSH2 0x5B4 PUSH32 0xFFFFFFFFFFFFFFFFFFFFFFFFFFFFFFFFFFFFFFFFFFFFFFFFFFFFFFFFFFFFFFFF DUP3 PUSH2 0x579 JUMP JUMPDEST PUSH2 0x5BE DUP7 DUP4 PUSH2 0x579 JUMP JUMPDEST SWAP6 POP DUP1 NOT DUP5 AND SWAP4 POP DUP1 DUP7 AND DUP5 OR SWAP3 POP POP POP SWAP4 SWAP3 POP POP POP JUMP JUMPDEST PUSH0 DUP2 SWAP1 POP SWAP2 SWAP1 POP JUMP JUMPDEST PUSH0 PUSH2 0x5F9 PUSH2 0x5F4 PUSH2 0x5EF DUP5 PUSH2 0x4B5 JUMP JUMPDEST PUSH2 0x5D6 JUMP JUMPDEST PUSH2 0x4B5 JUMP JUMPDEST SWAP1 POP SWAP2 SWAP1 POP JUMP JUMPDEST PUSH0 DUP2 SWAP1 POP SWAP2 SWAP1 POP JUMP JUMPDEST PUSH2 0x612 DUP4 PUSH2 0x5DF JUMP JUMPDEST PUSH2 0x626 PUSH2 0x61E DUP3 PUSH2 0x600 JUMP JUMPDEST DUP5 DUP5 SLOAD PUSH2 0x585 JUMP JUMPDEST DUP3 SSTORE POP POP POP POP JUMP JUMPDEST PUSH0 SWAP1 JUMP JUMPDEST PUSH2 0x63A PUSH2 0x62E JUMP JUMPDEST PUSH2 0x645 DUP2 DUP5 DUP5 PUSH2 0x609 JUMP JUMPDEST POP POP POP JUMP JUMPDEST JUMPDEST DUP2 DUP2 LT ISZERO PUSH2 0x668 JUMPI PUSH2 0x65D PUSH0 DUP3 PUSH2 0x632 JUMP JUMPDEST PUSH1 0x1 DUP2 ADD SWAP1 POP PUSH2 0x64B JUMP JUMPDEST POP POP JUMP JUMPDEST PUSH1 0x1F DUP3 GT ISZERO PUSH2 0x6AD JUMPI PUSH2 0x67E DUP2 PUSH2 0x558 JUMP JUMPDEST PUSH2 0x687 DUP5 PUSH2 0x56A JUMP JUMPDEST DUP2 ADD PUSH1 0x20 DUP6 LT ISZERO PUSH2 0x696 JUMPI DUP2 SWAP1 POP JUMPDEST PUSH2 0x6AA PUSH2 0x6A2 DUP6 PUSH2 0x56A JUMP JUMPDEST DUP4 ADD DUP3 PUSH2 0x64A JUMP JUMPDEST POP POP JUMPDEST POP POP POP JUMP JUMPDEST PUSH0 DUP3 DUP3 SHR SWAP1 POP SWAP3 SWAP2 POP POP JUMP JUMPDEST PUSH0 PUSH2 0x6CD PUSH0 NOT DUP5 PUSH1 0x8 MUL PUSH2 0x6B2 JUMP JUMPDEST NOT DUP1 DUP4 AND SWAP2 POP POP SWAP3 SWAP2 POP POP JUMP JUMPDEST PUSH0 PUSH2 0x6E5 DUP4 DUP4 PUSH2 0x6BE JUMP JUMPDEST SWAP2 POP DUP3 PUSH1 0x2 MUL DUP3 OR SWAP1 POP SWAP3 SWAP2 POP POP JUMP JUMPDEST PUSH2 0x6FE DUP3 PUSH2 0x43B JUMP JUMPDEST PUSH8 0xFFFFFFFFFFFFFFFF DUP2 GT ISZERO PUSH2 0x717 JUMPI PUSH2 0x716 PUSH2 0x202 JUMP JUMPDEST JUMPDEST PUSH2 0x721 DUP3 SLOAD PUSH2 0x528 JUMP JUMPDEST PUSH2 0x72C DUP3 DUP3 DUP6 PUSH2 0x66C JUMP JUMPDEST PUSH0 PUSH1 0x20 SWAP1 POP PUSH1 0x1F DUP4 GT PUSH1 0x1 DUP2 EQ PUSH2 0x75D JUMPI PUSH0 DUP5 ISZERO PUSH2 0x74B JUMPI DUP3 DUP8 ADD MLOAD SWAP1 POP JUMPDEST PUSH2 0x755 DUP6 DUP3 PUSH2 0x6DA JUMP JUMPDEST DUP7 SSTORE POP PUSH2 0x7BC JUMP JUMPDEST PUSH1 0x1F NOT DUP5 AND PUSH2 0x76B DUP7 PUSH2 0x558 JUMP JUMPDEST PUSH0 JUMPDEST DUP3 DUP2 LT ISZERO PUSH2 0x792 JUMPI DUP5 DUP10 ADD MLOAD DUP3 SSTORE PUSH1 0x1 DUP3 ADD SWAP2 POP PUSH1 0x20 DUP6 ADD SWAP5 POP PUSH1 0x20 DUP2 ADD SWAP1 POP PUSH2 0x76D JUMP JUMPDEST DUP7 DUP4 LT ISZERO PUSH2 0x7AF JUMPI DUP5 DUP10 ADD MLOAD PUSH2 0x7AB PUSH1 0x1F DUP10 AND DUP3 PUSH2 0x6BE JUMP JUMPDEST DUP4 SSTORE POP JUMPDEST PUSH1 0x1 PUSH1 0x2 DUP9 MUL ADD DUP9 SSTORE POP POP POP JUMPDEST POP POP POP POP POP POP JUMP JUMPDEST PUSH0 PUSH1 0x20 DUP3 ADD SWAP1 POP DUP2 DUP2 SUB PUSH0 DUP4 ADD MSTORE PUSH2 0x7DC DUP2 DUP5 PUSH2 0x47D JUMP JUMPDEST SWAP1 POP SWAP3 SWAP2 POP POP JUMP INVALID LOG2 PUSH5 0x6970667358 0x22 SLT KECCAK256 0xBF SUB SWAP3 RETURNDATASIZE 0x25 SUB 0x2D 0xD0 0xBB JUMP 0xD1 CREATE STOP 0x2B DUP16 0xD6 DUP14 SWAP4 0xC8 0xAF PUSH27 0xD1ECF3F98B085761B8036F64736F6C634300081800330000000000 "
				},
				"gasEstimates": {
					"creation": {
						"codeDepositCost": "414800",
						"executionCost": "447",
						"totalCost": "415247"
					},
					"external": {
						"registerUser(string,uint8)": "infinite",
						"users(address)": "infinite"
					}
				},
				"methodIdentifiers": {
					"registerUser(string,uint8)": "338e12eb",
					"users(address)": "a87430ba"
				}
			},
			"storageLayout": {
				"storage": [
					{
						"astId": 17,
						"contract": "contracts/Event.sol:EventExample",
						"label": "users",
						"offset": 0,
						"slot": "0",
						"type": "t_mapping(t_address,t_struct(User)12_storage)"
					}
				],
				"types": {
					"t_address": {
						"encoding": "inplace",
						"label": "address",
						"numberOfBytes": "20"
					},
					"t_mapping(t_address,t_struct(User)12_storage)": {
						"encoding": "mapping",
						"key": "t_address",
						"label": "mapping(address => struct EventExample.User)",
						"numberOfBytes": "32",
						"value": "t_struct(User)12_storage"
					},
					"t_string_storage": {
						"encoding": "bytes",
						"label": "string",
						"numberOfBytes": "32"
					},
					"t_struct(User)12_storage": {
						"encoding": "inplace",
						"label": "struct EventExample.User",
						"members": [
							{
								"astId": 9,
								"contract": "contracts/Event.sol:EventExample",
								"label": "username",
								"offset": 0,
								"slot": "0",
								"type": "t_string_storage"
							},
							{
								"astId": 11,
								"contract": "contracts/Event.sol:EventExample",
								"label": "age",
								"offset": 0,
								"slot": "1",
								"type": "t_uint256"
							}
						],
						"numberOfBytes": "64"
					},
					"t_uint256": {
						"encoding": "inplace",
						"label": "uint256",
						"numberOfBytes": "32"
					}
				}
			},
			"userdoc": {
				"kind": "user",
				"methods": {},
				"version": 1
			}
		}
	}
}