{
	"contracts/Time.sol": {
		"Test": {
			"abi": [
				{
					"inputs": [],
					"name": "getNum",
					"outputs": [
						{
							"internalType": "string",
							"name": "",
							"type": "string"
						}
					],
					"stateMutability": "nonpayable",
					"type": "function"
				},
				{
					"inputs": [],
					"name": "getValueInWei",
					"outputs": [
						{
							"internalType": "uint256",
							"name": "",
							"type": "uint256"
						}
					],
					"stateMutability": "view",
					"type": "function"
				},
				{
					"inputs": [],
					"name": "num",
					"outputs": [
						{
							"internalType": "string",
							"name": "",
							"type": "string"
						}
					],
					"stateMutability": "view",
					"type": "function"
				},
				{
					"inputs": [
						{
							"internalType": "string",
							"name": "_str",
							"type": "string"
						}
					],
					"name": "stringToInt8",
					"outputs": [
						{
							"internalType": "int8",
							"name": "",
							"type": "int8"
						}
					],
					"stateMutability": "pure",
					"type": "function"
				}
			],
			"devdoc": {
				"kind": "dev",
				"methods": {},
				"version": 1
			},
			"evm": {
				"assembly": "    /* \"contracts/Time.sol\":112:1825  contract Test {... */\n  mstore(0x40, 0x80)\n    /* \"contracts/Time.sol\":132:156  string public num = \"50\" */\n  mload(0x40)\n  dup1\n  0x40\n  add\n  0x40\n  mstore\n  dup1\n  0x02\n  dup2\n  mstore\n  0x20\n  add\n  0x3530000000000000000000000000000000000000000000000000000000000000\n  dup2\n  mstore\n  pop\n  0x00\n  swap1\n  dup2\n  tag_1\n  swap2\n  swap1\n  tag_2\n  jump\t// in\ntag_1:\n  pop\n    /* \"contracts/Time.sol\":112:1825  contract Test {... */\n  callvalue\n  dup1\n  iszero\n  tag_3\n  jumpi\n  0x00\n  dup1\n  revert\ntag_3:\n  pop\n  jump(tag_4)\n    /* \"#utility.yul\":7:106   */\ntag_5:\n    /* \"#utility.yul\":59:65   */\n  0x00\n    /* \"#utility.yul\":93:98   */\n  dup2\n    /* \"#utility.yul\":87:99   */\n  mload\n    /* \"#utility.yul\":77:99   */\n  swap1\n  pop\n    /* \"#utility.yul\":7:106   */\n  swap2\n  swap1\n  pop\n  jump\t// out\n    /* \"#utility.yul\":112:292   */\ntag_6:\n    /* \"#utility.yul\":160:237   */\n  0x4e487b7100000000000000000000000000000000000000000000000000000000\n    /* \"#utility.yul\":157:158   */\n  0x00\n    /* \"#utility.yul\":150:238   */\n  mstore\n    /* \"#utility.yul\":257:261   */\n  0x41\n    /* \"#utility.yul\":254:255   */\n  0x04\n    /* \"#utility.yul\":247:262   */\n  mstore\n    /* \"#utility.yul\":281:285   */\n  0x24\n    /* \"#utility.yul\":278:279   */\n  0x00\n    /* \"#utility.yul\":271:286   */\n  revert\n    /* \"#utility.yul\":298:478   */\ntag_7:\n    /* \"#utility.yul\":346:423   */\n  0x4e487b7100000000000000000000000000000000000000000000000000000000\n    /* \"#utility.yul\":343:344   */\n  0x00\n    /* \"#utility.yul\":336:424   */\n  mstore\n    /* \"#utility.yul\":443:447   */\n  0x22\n    /* \"#utility.yul\":440:441   */\n  0x04\n    /* \"#utility.yul\":433:448   */\n  mstore\n    /* \"#utility.yul\":467:471   */\n  0x24\n    /* \"#utility.yul\":464:465   */\n  0x00\n    /* \"#utility.yul\":457:472   */\n  revert\n    /* \"#utility.yul\":484:804   */\ntag_8:\n    /* \"#utility.yul\":528:534   */\n  0x00\n    /* \"#utility.yul\":565:566   */\n  0x02\n    /* \"#utility.yul\":559:563   */\n  dup3\n    /* \"#utility.yul\":555:567   */\n  div\n    /* \"#utility.yul\":545:567   */\n  swap1\n  pop\n    /* \"#utility.yul\":612:613   */\n  0x01\n    /* \"#utility.yul\":606:610   */\n  dup3\n    /* \"#utility.yul\":602:614   */\n  and\n    /* \"#utility.yul\":633:651   */\n  dup1\n    /* \"#utility.yul\":623:704   */\n  tag_30\n  jumpi\n    /* \"#utility.yul\":689:693   */\n  0x7f\n    /* \"#utility.yul\":681:687   */\n  dup3\n    /* \"#utility.yul\":677:694   */\n  and\n    /* \"#utility.yul\":667:694   */\n  swap2\n  pop\n    /* \"#utility.yul\":623:704   */\ntag_30:\n    /* \"#utility.yul\":751:753   */\n  0x20\n    /* \"#utility.yul\":743:749   */\n  dup3\n    /* \"#utility.yul\":740:754   */\n  lt\n    /* \"#utility.yul\":720:738   */\n  dup2\n    /* \"#utility.yul\":717:755   */\n  sub\n    /* \"#utility.yul\":714:798   */\n  tag_31\n  jumpi\n    /* \"#utility.yul\":770:788   */\n  tag_32\n  tag_7\n  jump\t// in\ntag_32:\n    /* \"#utility.yul\":714:798   */\ntag_31:\n    /* \"#utility.yul\":535:804   */\n  pop\n    /* \"#utility.yul\":484:804   */\n  swap2\n  swap1\n  pop\n  jump\t// out\n    /* \"#utility.yul\":810:951   */\ntag_9:\n    /* \"#utility.yul\":859:863   */\n  0x00\n    /* \"#utility.yul\":882:885   */\n  dup2\n    /* \"#utility.yul\":874:885   */\n  swap1\n  pop\n    /* \"#utility.yul\":905:908   */\n  dup2\n    /* \"#utility.yul\":902:903   */\n  0x00\n    /* \"#utility.yul\":895:909   */\n  mstore\n    /* \"#utility.yul\":939:943   */\n  0x20\n    /* \"#utility.yul\":936:937   */\n  0x00\n    /* \"#utility.yul\":926:944   */\n  keccak256\n    /* \"#utility.yul\":918:944   */\n  swap1\n  pop\n    /* \"#utility.yul\":810:951   */\n  swap2\n  swap1\n  pop\n  jump\t// out\n    /* \"#utility.yul\":957:1050   */\ntag_10:\n    /* \"#utility.yul\":994:1000   */\n  0x00\n    /* \"#utility.yul\":1041:1043   */\n  0x20\n    /* \"#utility.yul\":1036:1038   */\n  0x1f\n    /* \"#utility.yul\":1029:1034   */\n  dup4\n    /* \"#utility.yul\":1025:1039   */\n  add\n    /* \"#utility.yul\":1021:1044   */\n  div\n    /* \"#utility.yul\":1011:1044   */\n  swap1\n  pop\n    /* \"#utility.yul\":957:1050   */\n  swap2\n  swap1\n  pop\n  jump\t// out\n    /* \"#utility.yul\":1056:1163   */\ntag_11:\n    /* \"#utility.yul\":1100:1108   */\n  0x00\n    /* \"#utility.yul\":1150:1155   */\n  dup3\n    /* \"#utility.yul\":1144:1148   */\n  dup3\n    /* \"#utility.yul\":1140:1156   */\n  shl\n    /* \"#utility.yul\":1119:1156   */\n  swap1\n  pop\n    /* \"#utility.yul\":1056:1163   */\n  swap3\n  swap2\n  pop\n  pop\n  jump\t// out\n    /* \"#utility.yul\":1169:1562   */\ntag_12:\n    /* \"#utility.yul\":1238:1244   */\n  0x00\n    /* \"#utility.yul\":1288:1289   */\n  0x08\n    /* \"#utility.yul\":1276:1286   */\n  dup4\n    /* \"#utility.yul\":1272:1290   */\n  mul\n    /* \"#utility.yul\":1311:1408   */\n  tag_37\n    /* \"#utility.yul\":1341:1407   */\n  0xffffffffffffffffffffffffffffffffffffffffffffffffffffffffffffffff\n    /* \"#utility.yul\":1330:1339   */\n  dup3\n    /* \"#utility.yul\":1311:1408   */\n  tag_11\n  jump\t// in\ntag_37:\n    /* \"#utility.yul\":1429:1468   */\n  tag_38\n    /* \"#utility.yul\":1459:1467   */\n  dup7\n    /* \"#utility.yul\":1448:1457   */\n  dup4\n    /* \"#utility.yul\":1429:1468   */\n  tag_11\n  jump\t// in\ntag_38:\n    /* \"#utility.yul\":1417:1468   */\n  swap6\n  pop\n    /* \"#utility.yul\":1501:1505   */\n  dup1\n    /* \"#utility.yul\":1497:1506   */\n  not\n    /* \"#utility.yul\":1490:1495   */\n  dup5\n    /* \"#utility.yul\":1486:1507   */\n  and\n    /* \"#utility.yul\":1477:1507   */\n  swap4\n  pop\n    /* \"#utility.yul\":1550:1554   */\n  dup1\n    /* \"#utility.yul\":1540:1548   */\n  dup7\n    /* \"#utility.yul\":1536:1555   */\n  and\n    /* \"#utility.yul\":1529:1534   */\n  dup5\n    /* \"#utility.yul\":1526:1556   */\n  or\n    /* \"#utility.yul\":1516:1556   */\n  swap3\n  pop\n    /* \"#utility.yul\":1245:1562   */\n  pop\n  pop\n    /* \"#utility.yul\":1169:1562   */\n  swap4\n  swap3\n  pop\n  pop\n  pop\n  jump\t// out\n    /* \"#utility.yul\":1568:1645   */\ntag_13:\n    /* \"#utility.yul\":1605:1612   */\n  0x00\n    /* \"#utility.yul\":1634:1639   */\n  dup2\n    /* \"#utility.yul\":1623:1639   */\n  swap1\n  pop\n    /* \"#utility.yul\":1568:1645   */\n  swap2\n  swap1\n  pop\n  jump\t// out\n    /* \"#utility.yul\":1651:1711   */\ntag_14:\n    /* \"#utility.yul\":1679:1682   */\n  0x00\n    /* \"#utility.yul\":1700:1705   */\n  dup2\n    /* \"#utility.yul\":1693:1705   */\n  swap1\n  pop\n    /* \"#utility.yul\":1651:1711   */\n  swap2\n  swap1\n  pop\n  jump\t// out\n    /* \"#utility.yul\":1717:1859   */\ntag_15:\n    /* \"#utility.yul\":1767:1776   */\n  0x00\n    /* \"#utility.yul\":1800:1853   */\n  tag_42\n    /* \"#utility.yul\":1818:1852   */\n  tag_43\n    /* \"#utility.yul\":1827:1851   */\n  tag_44\n    /* \"#utility.yul\":1845:1850   */\n  dup5\n    /* \"#utility.yul\":1827:1851   */\n  tag_13\n  jump\t// in\ntag_44:\n    /* \"#utility.yul\":1818:1852   */\n  tag_14\n  jump\t// in\ntag_43:\n    /* \"#utility.yul\":1800:1853   */\n  tag_13\n  jump\t// in\ntag_42:\n    /* \"#utility.yul\":1787:1853   */\n  swap1\n  pop\n    /* \"#utility.yul\":1717:1859   */\n  swap2\n  swap1\n  pop\n  jump\t// out\n    /* \"#utility.yul\":1865:1940   */\ntag_16:\n    /* \"#utility.yul\":1908:1911   */\n  0x00\n    /* \"#utility.yul\":1929:1934   */\n  dup2\n    /* \"#utility.yul\":1922:1934   */\n  swap1\n  pop\n    /* \"#utility.yul\":1865:1940   */\n  swap2\n  swap1\n  pop\n  jump\t// out\n    /* \"#utility.yul\":1946:2215   */\ntag_17:\n    /* \"#utility.yul\":2056:2095   */\n  tag_47\n    /* \"#utility.yul\":2087:2094   */\n  dup4\n    /* \"#utility.yul\":2056:2095   */\n  tag_15\n  jump\t// in\ntag_47:\n    /* \"#utility.yul\":2117:2208   */\n  tag_48\n    /* \"#utility.yul\":2166:2207   */\n  tag_49\n    /* \"#utility.yul\":2190:2206   */\n  dup3\n    /* \"#utility.yul\":2166:2207   */\n  tag_16\n  jump\t// in\ntag_49:\n    /* \"#utility.yul\":2158:2164   */\n  dup5\n    /* \"#utility.yul\":2151:2155   */\n  dup5\n    /* \"#utility.yul\":2145:2156   */\n  sload\n    /* \"#utility.yul\":2117:2208   */\n  tag_12\n  jump\t// in\ntag_48:\n    /* \"#utility.yul\":2111:2115   */\n  dup3\n    /* \"#utility.yul\":2104:2209   */\n  sstore\n    /* \"#utility.yul\":2022:2215   */\n  pop\n    /* \"#utility.yul\":1946:2215   */\n  pop\n  pop\n  pop\n  jump\t// out\n    /* \"#utility.yul\":2221:2294   */\ntag_18:\n    /* \"#utility.yul\":2266:2269   */\n  0x00\n    /* \"#utility.yul\":2221:2294   */\n  swap1\n  jump\t// out\n    /* \"#utility.yul\":2300:2489   */\ntag_19:\n    /* \"#utility.yul\":2377:2409   */\n  tag_52\n  tag_18\n  jump\t// in\ntag_52:\n    /* \"#utility.yul\":2418:2483   */\n  tag_53\n    /* \"#utility.yul\":2476:2482   */\n  dup2\n    /* \"#utility.yul\":2468:2474   */\n  dup5\n    /* \"#utility.yul\":2462:2466   */\n  dup5\n    /* \"#utility.yul\":2418:2483   */\n  tag_17\n  jump\t// in\ntag_53:\n    /* \"#utility.yul\":2353:2489   */\n  pop\n    /* \"#utility.yul\":2300:2489   */\n  pop\n  pop\n  jump\t// out\n    /* \"#utility.yul\":2495:2681   */\ntag_20:\n    /* \"#utility.yul\":2555:2675   */\ntag_55:\n    /* \"#utility.yul\":2572:2575   */\n  dup2\n    /* \"#utility.yul\":2565:2570   */\n  dup2\n    /* \"#utility.yul\":2562:2576   */\n  lt\n    /* \"#utility.yul\":2555:2675   */\n  iszero\n  tag_57\n  jumpi\n    /* \"#utility.yul\":2626:2665   */\n  tag_58\n    /* \"#utility.yul\":2663:2664   */\n  0x00\n    /* \"#utility.yul\":2656:2661   */\n  dup3\n    /* \"#utility.yul\":2626:2665   */\n  tag_19\n  jump\t// in\ntag_58:\n    /* \"#utility.yul\":2599:2600   */\n  0x01\n    /* \"#utility.yul\":2592:2597   */\n  dup2\n    /* \"#utility.yul\":2588:2601   */\n  add\n    /* \"#utility.yul\":2579:2601   */\n  swap1\n  pop\n    /* \"#utility.yul\":2555:2675   */\n  jump(tag_55)\ntag_57:\n    /* \"#utility.yul\":2495:2681   */\n  pop\n  pop\n  jump\t// out\n    /* \"#utility.yul\":2687:3230   */\ntag_21:\n    /* \"#utility.yul\":2788:2790   */\n  0x1f\n    /* \"#utility.yul\":2783:2786   */\n  dup3\n    /* \"#utility.yul\":2780:2791   */\n  gt\n    /* \"#utility.yul\":2777:3223   */\n  iszero\n  tag_60\n  jumpi\n    /* \"#utility.yul\":2822:2860   */\n  tag_61\n    /* \"#utility.yul\":2854:2859   */\n  dup2\n    /* \"#utility.yul\":2822:2860   */\n  tag_9\n  jump\t// in\ntag_61:\n    /* \"#utility.yul\":2906:2935   */\n  tag_62\n    /* \"#utility.yul\":2924:2934   */\n  dup5\n    /* \"#utility.yul\":2906:2935   */\n  tag_10\n  jump\t// in\ntag_62:\n    /* \"#utility.yul\":2896:2904   */\n  dup2\n    /* \"#utility.yul\":2892:2936   */\n  add\n    /* \"#utility.yul\":3089:3091   */\n  0x20\n    /* \"#utility.yul\":3077:3087   */\n  dup6\n    /* \"#utility.yul\":3074:3092   */\n  lt\n    /* \"#utility.yul\":3071:3120   */\n  iszero\n  tag_63\n  jumpi\n    /* \"#utility.yul\":3110:3118   */\n  dup2\n    /* \"#utility.yul\":3095:3118   */\n  swap1\n  pop\n    /* \"#utility.yul\":3071:3120   */\ntag_63:\n    /* \"#utility.yul\":3133:3213   */\n  tag_64\n    /* \"#utility.yul\":3189:3211   */\n  tag_65\n    /* \"#utility.yul\":3207:3210   */\n  dup6\n    /* \"#utility.yul\":3189:3211   */\n  tag_10\n  jump\t// in\ntag_65:\n    /* \"#utility.yul\":3179:3187   */\n  dup4\n    /* \"#utility.yul\":3175:3212   */\n  add\n    /* \"#utility.yul\":3162:3173   */\n  dup3\n    /* \"#utility.yul\":3133:3213   */\n  tag_20\n  jump\t// in\ntag_64:\n    /* \"#utility.yul\":2792:3223   */\n  pop\n  pop\n    /* \"#utility.yul\":2777:3223   */\ntag_60:\n    /* \"#utility.yul\":2687:3230   */\n  pop\n  pop\n  pop\n  jump\t// out\n    /* \"#utility.yul\":3236:3353   */\ntag_22:\n    /* \"#utility.yul\":3290:3298   */\n  0x00\n    /* \"#utility.yul\":3340:3345   */\n  dup3\n    /* \"#utility.yul\":3334:3338   */\n  dup3\n    /* \"#utility.yul\":3330:3346   */\n  shr\n    /* \"#utility.yul\":3309:3346   */\n  swap1\n  pop\n    /* \"#utility.yul\":3236:3353   */\n  swap3\n  swap2\n  pop\n  pop\n  jump\t// out\n    /* \"#utility.yul\":3359:3528   */\ntag_23:\n    /* \"#utility.yul\":3403:3409   */\n  0x00\n    /* \"#utility.yul\":3436:3487   */\n  tag_68\n    /* \"#utility.yul\":3484:3485   */\n  0x00\n    /* \"#utility.yul\":3480:3486   */\n  not\n    /* \"#utility.yul\":3472:3477   */\n  dup5\n    /* \"#utility.yul\":3469:3470   */\n  0x08\n    /* \"#utility.yul\":3465:3478   */\n  mul\n    /* \"#utility.yul\":3436:3487   */\n  tag_22\n  jump\t// in\ntag_68:\n    /* \"#utility.yul\":3432:3488   */\n  not\n    /* \"#utility.yul\":3517:3521   */\n  dup1\n    /* \"#utility.yul\":3511:3515   */\n  dup4\n    /* \"#utility.yul\":3507:3522   */\n  and\n    /* \"#utility.yul\":3497:3522   */\n  swap2\n  pop\n    /* \"#utility.yul\":3410:3528   */\n  pop\n    /* \"#utility.yul\":3359:3528   */\n  swap3\n  swap2\n  pop\n  pop\n  jump\t// out\n    /* \"#utility.yul\":3533:3828   */\ntag_24:\n    /* \"#utility.yul\":3609:3613   */\n  0x00\n    /* \"#utility.yul\":3755:3784   */\n  tag_70\n    /* \"#utility.yul\":3780:3783   */\n  dup4\n    /* \"#utility.yul\":3774:3778   */\n  dup4\n    /* \"#utility.yul\":3755:3784   */\n  tag_23\n  jump\t// in\ntag_70:\n    /* \"#utility.yul\":3747:3784   */\n  swap2\n  pop\n    /* \"#utility.yul\":3817:3820   */\n  dup3\n    /* \"#utility.yul\":3814:3815   */\n  0x02\n    /* \"#utility.yul\":3810:3821   */\n  mul\n    /* \"#utility.yul\":3804:3808   */\n  dup3\n    /* \"#utility.yul\":3801:3822   */\n  or\n    /* \"#utility.yul\":3793:3822   */\n  swap1\n  pop\n    /* \"#utility.yul\":3533:3828   */\n  swap3\n  swap2\n  pop\n  pop\n  jump\t// out\n    /* \"#utility.yul\":3833:5228   */\ntag_2:\n    /* \"#utility.yul\":3950:3987   */\n  tag_72\n    /* \"#utility.yul\":3983:3986   */\n  dup3\n    /* \"#utility.yul\":3950:3987   */\n  tag_5\n  jump\t// in\ntag_72:\n    /* \"#utility.yul\":4052:4070   */\n  0xffffffffffffffff\n    /* \"#utility.yul\":4044:4050   */\n  dup2\n    /* \"#utility.yul\":4041:4071   */\n  gt\n    /* \"#utility.yul\":4038:4094   */\n  iszero\n  tag_73\n  jumpi\n    /* \"#utility.yul\":4074:4092   */\n  tag_74\n  tag_6\n  jump\t// in\ntag_74:\n    /* \"#utility.yul\":4038:4094   */\ntag_73:\n    /* \"#utility.yul\":4118:4156   */\n  tag_75\n    /* \"#utility.yul\":4150:4154   */\n  dup3\n    /* \"#utility.yul\":4144:4155   */\n  sload\n    /* \"#utility.yul\":4118:4156   */\n  tag_8\n  jump\t// in\ntag_75:\n    /* \"#utility.yul\":4203:4270   */\n  tag_76\n    /* \"#utility.yul\":4263:4269   */\n  dup3\n    /* \"#utility.yul\":4255:4261   */\n  dup3\n    /* \"#utility.yul\":4249:4253   */\n  dup6\n    /* \"#utility.yul\":4203:4270   */\n  tag_21\n  jump\t// in\ntag_76:\n    /* \"#utility.yul\":4297:4298   */\n  0x00\n    /* \"#utility.yul\":4321:4325   */\n  0x20\n    /* \"#utility.yul\":4308:4325   */\n  swap1\n  pop\n    /* \"#utility.yul\":4353:4355   */\n  0x1f\n    /* \"#utility.yul\":4345:4351   */\n  dup4\n    /* \"#utility.yul\":4342:4356   */\n  gt\n    /* \"#utility.yul\":4370:4371   */\n  0x01\n    /* \"#utility.yul\":4365:4983   */\n  dup2\n  eq\n  tag_78\n  jumpi\n    /* \"#utility.yul\":5027:5028   */\n  0x00\n    /* \"#utility.yul\":5044:5050   */\n  dup5\n    /* \"#utility.yul\":5041:5118   */\n  iszero\n  tag_79\n  jumpi\n    /* \"#utility.yul\":5093:5102   */\n  dup3\n    /* \"#utility.yul\":5088:5091   */\n  dup8\n    /* \"#utility.yul\":5084:5103   */\n  add\n    /* \"#utility.yul\":5078:5104   */\n  mload\n    /* \"#utility.yul\":5069:5104   */\n  swap1\n  pop\n    /* \"#utility.yul\":5041:5118   */\ntag_79:\n    /* \"#utility.yul\":5144:5211   */\n  tag_80\n    /* \"#utility.yul\":5204:5210   */\n  dup6\n    /* \"#utility.yul\":5197:5202   */\n  dup3\n    /* \"#utility.yul\":5144:5211   */\n  tag_24\n  jump\t// in\ntag_80:\n    /* \"#utility.yul\":5138:5142   */\n  dup7\n    /* \"#utility.yul\":5131:5212   */\n  sstore\n    /* \"#utility.yul\":5000:5222   */\n  pop\n    /* \"#utility.yul\":4335:5222   */\n  jump(tag_77)\n    /* \"#utility.yul\":4365:4983   */\ntag_78:\n    /* \"#utility.yul\":4417:4421   */\n  0x1f\n    /* \"#utility.yul\":4413:4422   */\n  not\n    /* \"#utility.yul\":4405:4411   */\n  dup5\n    /* \"#utility.yul\":4401:4423   */\n  and\n    /* \"#utility.yul\":4451:4488   */\n  tag_81\n    /* \"#utility.yul\":4483:4487   */\n  dup7\n    /* \"#utility.yul\":4451:4488   */\n  tag_9\n  jump\t// in\ntag_81:\n    /* \"#utility.yul\":4510:4511   */\n  0x00\n    /* \"#utility.yul\":4524:4732   */\ntag_82:\n    /* \"#utility.yul\":4538:4545   */\n  dup3\n    /* \"#utility.yul\":4535:4536   */\n  dup2\n    /* \"#utility.yul\":4532:4546   */\n  lt\n    /* \"#utility.yul\":4524:4732   */\n  iszero\n  tag_84\n  jumpi\n    /* \"#utility.yul\":4617:4626   */\n  dup5\n    /* \"#utility.yul\":4612:4615   */\n  dup10\n    /* \"#utility.yul\":4608:4627   */\n  add\n    /* \"#utility.yul\":4602:4628   */\n  mload\n    /* \"#utility.yul\":4594:4600   */\n  dup3\n    /* \"#utility.yul\":4587:4629   */\n  sstore\n    /* \"#utility.yul\":4668:4669   */\n  0x01\n    /* \"#utility.yul\":4660:4666   */\n  dup3\n    /* \"#utility.yul\":4656:4670   */\n  add\n    /* \"#utility.yul\":4646:4670   */\n  swap2\n  pop\n    /* \"#utility.yul\":4715:4717   */\n  0x20\n    /* \"#utility.yul\":4704:4713   */\n  dup6\n    /* \"#utility.yul\":4700:4718   */\n  add\n    /* \"#utility.yul\":4687:4718   */\n  swap5\n  pop\n    /* \"#utility.yul\":4561:4565   */\n  0x20\n    /* \"#utility.yul\":4558:4559   */\n  dup2\n    /* \"#utility.yul\":4554:4566   */\n  add\n    /* \"#utility.yul\":4549:4566   */\n  swap1\n  pop\n    /* \"#utility.yul\":4524:4732   */\n  jump(tag_82)\ntag_84:\n    /* \"#utility.yul\":4760:4766   */\n  dup7\n    /* \"#utility.yul\":4751:4758   */\n  dup4\n    /* \"#utility.yul\":4748:4767   */\n  lt\n    /* \"#utility.yul\":4745:4924   */\n  iszero\n  tag_85\n  jumpi\n    /* \"#utility.yul\":4818:4827   */\n  dup5\n    /* \"#utility.yul\":4813:4816   */\n  dup10\n    /* \"#utility.yul\":4809:4828   */\n  add\n    /* \"#utility.yul\":4803:4829   */\n  mload\n    /* \"#utility.yul\":4861:4909   */\n  tag_86\n    /* \"#utility.yul\":4903:4907   */\n  0x1f\n    /* \"#utility.yul\":4895:4901   */\n  dup10\n    /* \"#utility.yul\":4891:4908   */\n  and\n    /* \"#utility.yul\":4880:4889   */\n  dup3\n    /* \"#utility.yul\":4861:4909   */\n  tag_23\n  jump\t// in\ntag_86:\n    /* \"#utility.yul\":4853:4859   */\n  dup4\n    /* \"#utility.yul\":4846:4910   */\n  sstore\n    /* \"#utility.yul\":4768:4924   */\n  pop\n    /* \"#utility.yul\":4745:4924   */\ntag_85:\n    /* \"#utility.yul\":4970:4971   */\n  0x01\n    /* \"#utility.yul\":4966:4967   */\n  0x02\n    /* \"#utility.yul\":4958:4964   */\n  dup9\n    /* \"#utility.yul\":4954:4968   */\n  mul\n    /* \"#utility.yul\":4950:4972   */\n  add\n    /* \"#utility.yul\":4944:4948   */\n  dup9\n    /* \"#utility.yul\":4937:4973   */\n  sstore\n    /* \"#utility.yul\":4372:4983   */\n  pop\n  pop\n  pop\n    /* \"#utility.yul\":4335:5222   */\ntag_77:\n  pop\n    /* \"#utility.yul\":3925:5228   */\n  pop\n  pop\n  pop\n    /* \"#utility.yul\":3833:5228   */\n  pop\n  pop\n  jump\t// out\n    /* \"contracts/Time.sol\":112:1825  contract Test {... */\ntag_4:\n  dataSize(sub_0)\n  dup1\n  dataOffset(sub_0)\n  0x00\n  codecopy\n  0x00\n  return\nstop\n\nsub_0: assembly {\n        /* \"contracts/Time.sol\":112:1825  contract Test {... */\n      mstore(0x40, 0x80)\n      callvalue\n      dup1\n      iszero\n      tag_1\n      jumpi\n      0x00\n      dup1\n      revert\n    tag_1:\n      pop\n      jumpi(tag_2, lt(calldatasize, 0x04))\n      shr(0xe0, calldataload(0x00))\n      dup1\n      0x4893889a\n      eq\n      tag_3\n      jumpi\n      dup1\n      0x4e70b1dc\n      eq\n      tag_4\n      jumpi\n      dup1\n      0x53d619c2\n      eq\n      tag_5\n      jumpi\n      dup1\n      0x67e0badb\n      eq\n      tag_6\n      jumpi\n    tag_2:\n      0x00\n      dup1\n      revert\n        /* \"contracts/Time.sol\":1711:1823  function getValueInWei() public view returns (uint256) {... */\n    tag_3:\n      tag_7\n      tag_8\n      jump\t// in\n    tag_7:\n      mload(0x40)\n      tag_9\n      swap2\n      swap1\n      tag_10\n      jump\t// in\n    tag_9:\n      mload(0x40)\n      dup1\n      swap2\n      sub\n      swap1\n      return\n        /* \"contracts/Time.sol\":132:156  string public num = \"50\" */\n    tag_4:\n      tag_11\n      tag_12\n      jump\t// in\n    tag_11:\n      mload(0x40)\n      tag_13\n      swap2\n      swap1\n      tag_14\n      jump\t// in\n    tag_13:\n      mload(0x40)\n      dup1\n      swap2\n      sub\n      swap1\n      return\n        /* \"contracts/Time.sol\":641:1217  function stringToInt8(string memory _str) public pure returns (int8) {... */\n    tag_5:\n      tag_15\n      0x04\n      dup1\n      calldatasize\n      sub\n      dup2\n      add\n      swap1\n      tag_16\n      swap2\n      swap1\n      tag_17\n      jump\t// in\n    tag_16:\n      tag_18\n      jump\t// in\n    tag_15:\n      mload(0x40)\n      tag_19\n      swap2\n      swap1\n      tag_20\n      jump\t// in\n    tag_19:\n      mload(0x40)\n      dup1\n      swap2\n      sub\n      swap1\n      return\n        /* \"contracts/Time.sol\":163:635  function getNum() public returns (string memory) {... */\n    tag_6:\n      tag_21\n      tag_22\n      jump\t// in\n    tag_21:\n      mload(0x40)\n      tag_23\n      swap2\n      swap1\n      tag_14\n      jump\t// in\n    tag_23:\n      mload(0x40)\n      dup1\n      swap2\n      sub\n      swap1\n      return\n        /* \"contracts/Time.sol\":1711:1823  function getValueInWei() public view returns (uint256) {... */\n    tag_8:\n        /* \"contracts/Time.sol\":1757:1764  uint256 */\n      0x00\n        /* \"contracts/Time.sol\":1802:1815  4 * 1 minutes */\n      0xf0\n        /* \"contracts/Time.sol\":1783:1798  block.timestamp */\n      timestamp\n        /* \"contracts/Time.sol\":1783:1816  block.timestamp + (4 * 1 minutes) */\n      tag_25\n      swap2\n      swap1\n      tag_26\n      jump\t// in\n    tag_25:\n        /* \"contracts/Time.sol\":1776:1816  return block.timestamp + (4 * 1 minutes) */\n      swap1\n      pop\n        /* \"contracts/Time.sol\":1711:1823  function getValueInWei() public view returns (uint256) {... */\n      swap1\n      jump\t// out\n        /* \"contracts/Time.sol\":132:156  string public num = \"50\" */\n    tag_12:\n      0x00\n      dup1\n      sload\n      tag_27\n      swap1\n      tag_28\n      jump\t// in\n    tag_27:\n      dup1\n      0x1f\n      add\n      0x20\n      dup1\n      swap2\n      div\n      mul\n      0x20\n      add\n      mload(0x40)\n      swap1\n      dup2\n      add\n      0x40\n      mstore\n      dup1\n      swap3\n      swap2\n      swap1\n      dup2\n      dup2\n      mstore\n      0x20\n      add\n      dup3\n      dup1\n      sload\n      tag_29\n      swap1\n      tag_28\n      jump\t// in\n    tag_29:\n      dup1\n      iszero\n      tag_30\n      jumpi\n      dup1\n      0x1f\n      lt\n      tag_31\n      jumpi\n      0x0100\n      dup1\n      dup4\n      sload\n      div\n      mul\n      dup4\n      mstore\n      swap2\n      0x20\n      add\n      swap2\n      jump(tag_30)\n    tag_31:\n      dup3\n      add\n      swap2\n      swap1\n      0x00\n      mstore\n      keccak256(0x00, 0x20)\n      swap1\n    tag_32:\n      dup2\n      sload\n      dup2\n      mstore\n      swap1\n      0x01\n      add\n      swap1\n      0x20\n      add\n      dup1\n      dup4\n      gt\n      tag_32\n      jumpi\n      dup3\n      swap1\n      sub\n      0x1f\n      and\n      dup3\n      add\n      swap2\n    tag_30:\n      pop\n      pop\n      pop\n      pop\n      pop\n      dup2\n      jump\t// out\n        /* \"contracts/Time.sol\":641:1217  function stringToInt8(string memory _str) public pure returns (int8) {... */\n    tag_18:\n        /* \"contracts/Time.sol\":704:708  int8 */\n      0x00\n        /* \"contracts/Time.sol\":720:734  bytes memory b */\n      dup1\n        /* \"contracts/Time.sol\":743:747  _str */\n      dup3\n        /* \"contracts/Time.sol\":720:748  bytes memory b = bytes(_str) */\n      swap1\n      pop\n        /* \"contracts/Time.sol\":758:775  uint256 numDigits */\n      0x00\n        /* \"contracts/Time.sol\":778:779  b */\n      dup2\n        /* \"contracts/Time.sol\":778:786  b.length */\n      mload\n        /* \"contracts/Time.sol\":758:786  uint256 numDigits = b.length */\n      swap1\n      pop\n        /* \"contracts/Time.sol\":823:834  int8 result */\n      0x00\n        /* \"contracts/Time.sol\":848:859  int8 factor */\n      dup1\n        /* \"contracts/Time.sol\":862:863  1 */\n      0x01\n        /* \"contracts/Time.sol\":848:863  int8 factor = 1 */\n      swap1\n      pop\n        /* \"contracts/Time.sol\":911:920  uint256 i */\n      0x00\n        /* \"contracts/Time.sol\":935:936  1 */\n      0x01\n        /* \"contracts/Time.sol\":923:932  numDigits */\n      dup5\n        /* \"contracts/Time.sol\":923:936  numDigits - 1 */\n      tag_37\n      swap2\n      swap1\n      tag_38\n      jump\t// in\n    tag_37:\n        /* \"contracts/Time.sol\":911:936  uint256 i = numDigits - 1 */\n      swap1\n      pop\n        /* \"contracts/Time.sol\":906:1179  for (uint256 i = numDigits - 1; i >= 0; i--) { // Changed type to uint256... */\n    tag_34:\n        /* \"contracts/Time.sol\":943:944  0 */\n      0x00\n        /* \"contracts/Time.sol\":938:939  i */\n      dup2\n        /* \"contracts/Time.sol\":938:944  i >= 0 */\n      lt\n        /* \"contracts/Time.sol\":906:1179  for (uint256 i = numDigits - 1; i >= 0; i--) { // Changed type to uint256... */\n      tag_35\n      jumpi\n        /* \"contracts/Time.sol\":992:1003  uint8 digit */\n      0x00\n        /* \"contracts/Time.sol\":1020:1022  48 */\n      0x30\n        /* \"contracts/Time.sol\":1012:1013  b */\n      dup7\n        /* \"contracts/Time.sol\":1014:1015  i */\n      dup4\n        /* \"contracts/Time.sol\":1012:1016  b[i] */\n      dup2\n      mload\n      dup2\n      lt\n      tag_39\n      jumpi\n      tag_40\n      tag_41\n      jump\t// in\n    tag_40:\n    tag_39:\n      0x20\n      add\n      add\n      mload\n      0xf8\n      shr\n      0xf8\n      shl\n        /* \"contracts/Time.sol\":1006:1017  uint8(b[i]) */\n      0xf8\n      shr\n        /* \"contracts/Time.sol\":1006:1022  uint8(b[i]) - 48 */\n      tag_42\n      swap2\n      swap1\n      tag_43\n      jump\t// in\n    tag_42:\n        /* \"contracts/Time.sol\":992:1022  uint8 digit = uint8(b[i]) - 48 */\n      swap1\n      pop\n        /* \"contracts/Time.sol\":1079:1080  9 */\n      0x09\n        /* \"contracts/Time.sol\":1070:1075  digit */\n      dup2\n        /* \"contracts/Time.sol\":1070:1080  digit <= 9 */\n      0xff\n      and\n      gt\n      iszero\n        /* \"contracts/Time.sol\":1062:1098  require(digit <= 9, \"Invalid digit\") */\n      tag_44\n      jumpi\n      mload(0x40)\n      0x08c379a000000000000000000000000000000000000000000000000000000000\n      dup2\n      mstore\n      0x04\n      add\n      tag_45\n      swap1\n      tag_46\n      jump\t// in\n    tag_45:\n      mload(0x40)\n      dup1\n      swap2\n      sub\n      swap1\n      revert\n    tag_44:\n        /* \"contracts/Time.sol\":1136:1142  factor */\n      dup3\n        /* \"contracts/Time.sol\":1127:1132  digit */\n      dup2\n        /* \"contracts/Time.sol\":1122:1142  int8(digit) * factor */\n      tag_47\n      swap2\n      swap1\n      tag_48\n      jump\t// in\n    tag_47:\n        /* \"contracts/Time.sol\":1112:1142  result += int8(digit) * factor */\n      dup5\n      tag_49\n      swap2\n      swap1\n      tag_50\n      jump\t// in\n    tag_49:\n      swap4\n      pop\n        /* \"contracts/Time.sol\":1166:1168  10 */\n      0x0a\n        /* \"contracts/Time.sol\":1156:1168  factor *= 10 */\n      dup4\n      tag_51\n      swap2\n      swap1\n      tag_48\n      jump\t// in\n    tag_51:\n      swap3\n      pop\n        /* \"contracts/Time.sol\":951:1179  { // Changed type to uint256... */\n      pop\n        /* \"contracts/Time.sol\":946:949  i-- */\n      dup1\n      dup1\n      tag_52\n      swap1\n      tag_53\n      jump\t// in\n    tag_52:\n      swap2\n      pop\n      pop\n        /* \"contracts/Time.sol\":906:1179  for (uint256 i = numDigits - 1; i >= 0; i--) { // Changed type to uint256... */\n      jump(tag_34)\n    tag_35:\n      pop\n        /* \"contracts/Time.sol\":1204:1210  result */\n      dup2\n        /* \"contracts/Time.sol\":1197:1210  return result */\n      swap5\n      pop\n      pop\n      pop\n      pop\n      pop\n        /* \"contracts/Time.sol\":641:1217  function stringToInt8(string memory _str) public pure returns (int8) {... */\n      swap2\n      swap1\n      pop\n      jump\t// out\n        /* \"contracts/Time.sol\":163:635  function getNum() public returns (string memory) {... */\n    tag_22:\n        /* \"contracts/Time.sol\":197:210  string memory */\n      0x60\n        /* \"contracts/Time.sol\":222:233  int8 intNum */\n      0x00\n        /* \"contracts/Time.sol\":236:253  stringToInt8(num) */\n      tag_55\n        /* \"contracts/Time.sol\":249:252  num */\n      0x00\n        /* \"contracts/Time.sol\":236:253  stringToInt8(num) */\n      dup1\n      sload\n      tag_56\n      swap1\n      tag_28\n      jump\t// in\n    tag_56:\n      dup1\n      0x1f\n      add\n      0x20\n      dup1\n      swap2\n      div\n      mul\n      0x20\n      add\n      mload(0x40)\n      swap1\n      dup2\n      add\n      0x40\n      mstore\n      dup1\n      swap3\n      swap2\n      swap1\n      dup2\n      dup2\n      mstore\n      0x20\n      add\n      dup3\n      dup1\n      sload\n      tag_57\n      swap1\n      tag_28\n      jump\t// in\n    tag_57:\n      dup1\n      iszero\n      tag_58\n      jumpi\n      dup1\n      0x1f\n      lt\n      tag_59\n      jumpi\n      0x0100\n      dup1\n      dup4\n      sload\n      div\n      mul\n      dup4\n      mstore\n      swap2\n      0x20\n      add\n      swap2\n      jump(tag_58)\n    tag_59:\n      dup3\n      add\n      swap2\n      swap1\n      0x00\n      mstore\n      keccak256(0x00, 0x20)\n      swap1\n    tag_60:\n      dup2\n      sload\n      dup2\n      mstore\n      swap1\n      0x01\n      add\n      swap1\n      0x20\n      add\n      dup1\n      dup4\n      gt\n      tag_60\n      jumpi\n      dup3\n      swap1\n      sub\n      0x1f\n      and\n      dup3\n      add\n      swap2\n    tag_58:\n      pop\n      pop\n      pop\n      pop\n      pop\n        /* \"contracts/Time.sol\":236:248  stringToInt8 */\n      tag_18\n        /* \"contracts/Time.sol\":236:253  stringToInt8(num) */\n      jump\t// in\n    tag_55:\n        /* \"contracts/Time.sol\":222:253  int8 intNum = stringToInt8(num) */\n      swap1\n      pop\n        /* \"contracts/Time.sol\":273:274  1 */\n      0x01\n        /* \"contracts/Time.sol\":263:274  intNum -= 1 */\n      dup2\n      tag_61\n      swap2\n      swap1\n      tag_62\n      jump\t// in\n    tag_61:\n      swap1\n      pop\n        /* \"contracts/Time.sol\":336:344  int8 rem */\n      0x00\n        /* \"contracts/Time.sol\":356:358  10 */\n      0x0a\n        /* \"contracts/Time.sol\":347:353  intNum */\n      dup3\n        /* \"contracts/Time.sol\":347:358  intNum / 10 */\n      tag_63\n      swap2\n      swap1\n      tag_64\n      jump\t// in\n    tag_63:\n        /* \"contracts/Time.sol\":336:358  int8 rem = intNum / 10 */\n      swap1\n      pop\n        /* \"contracts/Time.sol\":368:381  int8 quotient */\n      0x00\n        /* \"contracts/Time.sol\":393:395  10 */\n      0x0a\n        /* \"contracts/Time.sol\":384:390  intNum */\n      dup4\n        /* \"contracts/Time.sol\":384:395  intNum % 10 */\n      tag_65\n      swap2\n      swap1\n      tag_66\n      jump\t// in\n    tag_65:\n        /* \"contracts/Time.sol\":368:395  int8 quotient = intNum % 10 */\n      swap1\n      pop\n        /* \"contracts/Time.sol\":406:424  string memory aStr */\n      0x00\n        /* \"contracts/Time.sol\":427:440  toString(rem) */\n      tag_67\n        /* \"contracts/Time.sol\":436:439  rem */\n      dup4\n        /* \"contracts/Time.sol\":427:435  toString */\n      tag_68\n        /* \"contracts/Time.sol\":427:440  toString(rem) */\n      jump\t// in\n    tag_67:\n        /* \"contracts/Time.sol\":406:440  string memory aStr = toString(rem) */\n      swap1\n      pop\n        /* \"contracts/Time.sol\":450:468  string memory bStr */\n      0x00\n        /* \"contracts/Time.sol\":471:489  toString(quotient) */\n      tag_69\n        /* \"contracts/Time.sol\":480:488  quotient */\n      dup4\n        /* \"contracts/Time.sol\":471:479  toString */\n      tag_68\n        /* \"contracts/Time.sol\":471:489  toString(quotient) */\n      jump\t// in\n    tag_69:\n        /* \"contracts/Time.sol\":450:489  string memory bStr = toString(quotient) */\n      swap1\n      pop\n        /* \"contracts/Time.sol\":500:526  string memory concatenated */\n      0x00\n        /* \"contracts/Time.sol\":553:557  aStr */\n      dup3\n        /* \"contracts/Time.sol\":564:568  bStr */\n      dup3\n        /* \"contracts/Time.sol\":536:569  abi.encodePacked(aStr, \".\", bStr) */\n      add(0x20, mload(0x40))\n      tag_70\n      swap3\n      swap2\n      swap1\n      tag_71\n      jump\t// in\n    tag_70:\n      mload(0x40)\n      0x20\n      dup2\n      dup4\n      sub\n      sub\n      dup2\n      mstore\n      swap1\n      0x40\n      mstore\n        /* \"contracts/Time.sol\":500:570  string memory concatenated = string(abi.encodePacked(aStr, \".\", bStr)) */\n      swap1\n      pop\n        /* \"contracts/Time.sol\":586:598  concatenated */\n      dup1\n        /* \"contracts/Time.sol\":580:583  num */\n      0x00\n        /* \"contracts/Time.sol\":580:598  num = concatenated */\n      swap1\n      dup2\n      tag_72\n      swap2\n      swap1\n      tag_73\n      jump\t// in\n    tag_72:\n      pop\n        /* \"contracts/Time.sol\":616:628  concatenated */\n      dup1\n        /* \"contracts/Time.sol\":609:628  return concatenated */\n      swap7\n      pop\n      pop\n      pop\n      pop\n      pop\n      pop\n      pop\n        /* \"contracts/Time.sol\":163:635  function getNum() public returns (string memory) {... */\n      swap1\n      jump\t// out\n        /* \"contracts/Time.sol\":1223:1705  function toString(int8 value) internal pure returns (string memory) {... */\n    tag_68:\n        /* \"contracts/Time.sol\":1276:1289  string memory */\n      0x60\n        /* \"contracts/Time.sol\":1314:1315  0 */\n      0x00\n        /* \"contracts/Time.sol\":1305:1310  value */\n      dup3\n        /* \"contracts/Time.sol\":1305:1315  value == 0 */\n      0x00\n      signextend\n      sub\n        /* \"contracts/Time.sol\":1301:1352  if (value == 0) {... */\n      tag_75\n      jumpi\n        /* \"contracts/Time.sol\":1331:1341  return \"0\" */\n      mload(0x40)\n      dup1\n      0x40\n      add\n      0x40\n      mstore\n      dup1\n      0x01\n      dup2\n      mstore\n      0x20\n      add\n      0x3000000000000000000000000000000000000000000000000000000000000000\n      dup2\n      mstore\n      pop\n      swap1\n      pop\n      jump(tag_74)\n        /* \"contracts/Time.sol\":1301:1352  if (value == 0) {... */\n    tag_75:\n        /* \"contracts/Time.sol\":1361:1370  int8 temp */\n      0x00\n        /* \"contracts/Time.sol\":1373:1378  value */\n      dup3\n        /* \"contracts/Time.sol\":1361:1378  int8 temp = value */\n      swap1\n      pop\n        /* \"contracts/Time.sol\":1388:1400  uint8 digits */\n      0x00\n        /* \"contracts/Time.sol\":1410:1485  while (temp != 0) {... */\n    tag_76:\n        /* \"contracts/Time.sol\":1425:1426  0 */\n      0x00\n        /* \"contracts/Time.sol\":1417:1421  temp */\n      dup3\n        /* \"contracts/Time.sol\":1417:1426  temp != 0 */\n      0x00\n      signextend\n      eq\n        /* \"contracts/Time.sol\":1410:1485  while (temp != 0) {... */\n      tag_77\n      jumpi\n        /* \"contracts/Time.sol\":1442:1450  digits++ */\n      dup1\n      dup1\n      tag_78\n      swap1\n      tag_79\n      jump\t// in\n    tag_78:\n      swap2\n      pop\n      pop\n        /* \"contracts/Time.sol\":1472:1474  10 */\n      0x0a\n        /* \"contracts/Time.sol\":1464:1474  temp /= 10 */\n      dup3\n      tag_80\n      swap2\n      swap1\n      tag_64\n      jump\t// in\n    tag_80:\n      swap2\n      pop\n        /* \"contracts/Time.sol\":1410:1485  while (temp != 0) {... */\n      jump(tag_76)\n    tag_77:\n        /* \"contracts/Time.sol\":1494:1513  bytes memory buffer */\n      0x00\n        /* \"contracts/Time.sol\":1526:1532  digits */\n      dup2\n        /* \"contracts/Time.sol\":1516:1533  new bytes(digits) */\n      0xff\n      and\n      0xffffffffffffffff\n      dup2\n      gt\n      iszero\n      tag_81\n      jumpi\n      tag_82\n      tag_83\n      jump\t// in\n    tag_82:\n    tag_81:\n      mload(0x40)\n      swap1\n      dup1\n      dup3\n      mstore\n      dup1\n      0x1f\n      add\n      not(0x1f)\n      and\n      0x20\n      add\n      dup3\n      add\n      0x40\n      mstore\n      dup1\n      iszero\n      tag_84\n      jumpi\n      dup2\n      0x20\n      add\n      0x01\n      dup3\n      mul\n      dup1\n      calldatasize\n      dup4\n      calldatacopy\n      dup1\n      dup3\n      add\n      swap2\n      pop\n      pop\n      swap1\n      pop\n    tag_84:\n      pop\n        /* \"contracts/Time.sol\":1494:1533  bytes memory buffer = new bytes(digits) */\n      swap1\n      pop\n        /* \"contracts/Time.sol\":1543:1668  while (value != 0) {... */\n    tag_85:\n        /* \"contracts/Time.sol\":1559:1560  0 */\n      0x00\n        /* \"contracts/Time.sol\":1550:1555  value */\n      dup6\n        /* \"contracts/Time.sol\":1550:1560  value != 0 */\n      0x00\n      signextend\n      eq\n        /* \"contracts/Time.sol\":1543:1668  while (value != 0) {... */\n      tag_86\n      jumpi\n        /* \"contracts/Time.sol\":1627:1629  10 */\n      0x0a\n        /* \"contracts/Time.sol\":1619:1624  value */\n      dup6\n        /* \"contracts/Time.sol\":1619:1629  value % 10 */\n      tag_87\n      swap2\n      swap1\n      tag_66\n      jump\t// in\n    tag_87:\n        /* \"contracts/Time.sol\":1608:1610  48 */\n      0x30\n        /* \"contracts/Time.sol\":1608:1630  48 + uint8(value % 10) */\n      tag_88\n      swap2\n      swap1\n      tag_89\n      jump\t// in\n    tag_88:\n        /* \"contracts/Time.sol\":1595:1632  bytes1(uint8(48 + uint8(value % 10))) */\n      0xf8\n      shl\n        /* \"contracts/Time.sol\":1576:1582  buffer */\n      dup2\n        /* \"contracts/Time.sol\":1583:1591  --digits */\n      dup4\n      tag_90\n      swap1\n      tag_91\n      jump\t// in\n    tag_90:\n      swap4\n      pop\n      dup4\n        /* \"contracts/Time.sol\":1576:1592  buffer[--digits] */\n      0xff\n      and\n      dup2\n      mload\n      dup2\n      lt\n      tag_92\n      jumpi\n      tag_93\n      tag_41\n      jump\t// in\n    tag_93:\n    tag_92:\n      0x20\n      add\n      add\n        /* \"contracts/Time.sol\":1576:1632  buffer[--digits] = bytes1(uint8(48 + uint8(value % 10))) */\n      swap1\n      not(0xffffffffffffffffffffffffffffffffffffffffffffffffffffffffffffff)\n      and\n      swap1\n      dup2\n      0x00\n      byte\n      swap1\n      mstore8\n      pop\n        /* \"contracts/Time.sol\":1655:1657  10 */\n      0x0a\n        /* \"contracts/Time.sol\":1646:1657  value /= 10 */\n      dup6\n      tag_94\n      swap2\n      swap1\n      tag_64\n      jump\t// in\n    tag_94:\n      swap5\n      pop\n        /* \"contracts/Time.sol\":1543:1668  while (value != 0) {... */\n      jump(tag_85)\n    tag_86:\n        /* \"contracts/Time.sol\":1691:1697  buffer */\n      dup1\n        /* \"contracts/Time.sol\":1677:1698  return string(buffer) */\n      swap4\n      pop\n      pop\n      pop\n      pop\n        /* \"contracts/Time.sol\":1223:1705  function toString(int8 value) internal pure returns (string memory) {... */\n    tag_74:\n      swap2\n      swap1\n      pop\n      jump\t// out\n        /* \"#utility.yul\":7:84   */\n    tag_95:\n        /* \"#utility.yul\":44:51   */\n      0x00\n        /* \"#utility.yul\":73:78   */\n      dup2\n        /* \"#utility.yul\":62:78   */\n      swap1\n      pop\n        /* \"#utility.yul\":7:84   */\n      swap2\n      swap1\n      pop\n      jump\t// out\n        /* \"#utility.yul\":90:208   */\n    tag_96:\n        /* \"#utility.yul\":177:201   */\n      tag_143\n        /* \"#utility.yul\":195:200   */\n      dup2\n        /* \"#utility.yul\":177:201   */\n      tag_95\n      jump\t// in\n    tag_143:\n        /* \"#utility.yul\":172:175   */\n      dup3\n        /* \"#utility.yul\":165:202   */\n      mstore\n        /* \"#utility.yul\":90:208   */\n      pop\n      pop\n      jump\t// out\n        /* \"#utility.yul\":214:436   */\n    tag_10:\n        /* \"#utility.yul\":307:311   */\n      0x00\n        /* \"#utility.yul\":345:347   */\n      0x20\n        /* \"#utility.yul\":334:343   */\n      dup3\n        /* \"#utility.yul\":330:348   */\n      add\n        /* \"#utility.yul\":322:348   */\n      swap1\n      pop\n        /* \"#utility.yul\":358:429   */\n      tag_145\n        /* \"#utility.yul\":426:427   */\n      0x00\n        /* \"#utility.yul\":415:424   */\n      dup4\n        /* \"#utility.yul\":411:428   */\n      add\n        /* \"#utility.yul\":402:408   */\n      dup5\n        /* \"#utility.yul\":358:429   */\n      tag_96\n      jump\t// in\n    tag_145:\n        /* \"#utility.yul\":214:436   */\n      swap3\n      swap2\n      pop\n      pop\n      jump\t// out\n        /* \"#utility.yul\":442:541   */\n    tag_97:\n        /* \"#utility.yul\":494:500   */\n      0x00\n        /* \"#utility.yul\":528:533   */\n      dup2\n        /* \"#utility.yul\":522:534   */\n      mload\n        /* \"#utility.yul\":512:534   */\n      swap1\n      pop\n        /* \"#utility.yul\":442:541   */\n      swap2\n      swap1\n      pop\n      jump\t// out\n        /* \"#utility.yul\":547:716   */\n    tag_98:\n        /* \"#utility.yul\":631:642   */\n      0x00\n        /* \"#utility.yul\":665:671   */\n      dup3\n        /* \"#utility.yul\":660:663   */\n      dup3\n        /* \"#utility.yul\":653:672   */\n      mstore\n        /* \"#utility.yul\":705:709   */\n      0x20\n        /* \"#utility.yul\":700:703   */\n      dup3\n        /* \"#utility.yul\":696:710   */\n      add\n        /* \"#utility.yul\":681:710   */\n      swap1\n      pop\n        /* \"#utility.yul\":547:716   */\n      swap3\n      swap2\n      pop\n      pop\n      jump\t// out\n        /* \"#utility.yul\":722:968   */\n    tag_99:\n        /* \"#utility.yul\":803:804   */\n      0x00\n        /* \"#utility.yul\":813:926   */\n    tag_149:\n        /* \"#utility.yul\":827:833   */\n      dup4\n        /* \"#utility.yul\":824:825   */\n      dup2\n        /* \"#utility.yul\":821:834   */\n      lt\n        /* \"#utility.yul\":813:926   */\n      iszero\n      tag_151\n      jumpi\n        /* \"#utility.yul\":912:913   */\n      dup1\n        /* \"#utility.yul\":907:910   */\n      dup3\n        /* \"#utility.yul\":903:914   */\n      add\n        /* \"#utility.yul\":897:915   */\n      mload\n        /* \"#utility.yul\":893:894   */\n      dup2\n        /* \"#utility.yul\":888:891   */\n      dup5\n        /* \"#utility.yul\":884:895   */\n      add\n        /* \"#utility.yul\":877:916   */\n      mstore\n        /* \"#utility.yul\":849:851   */\n      0x20\n        /* \"#utility.yul\":846:847   */\n      dup2\n        /* \"#utility.yul\":842:852   */\n      add\n        /* \"#utility.yul\":837:852   */\n      swap1\n      pop\n        /* \"#utility.yul\":813:926   */\n      jump(tag_149)\n    tag_151:\n        /* \"#utility.yul\":960:961   */\n      0x00\n        /* \"#utility.yul\":951:957   */\n      dup5\n        /* \"#utility.yul\":946:949   */\n      dup5\n        /* \"#utility.yul\":942:958   */\n      add\n        /* \"#utility.yul\":935:962   */\n      mstore\n        /* \"#utility.yul\":784:968   */\n      pop\n        /* \"#utility.yul\":722:968   */\n      pop\n      pop\n      pop\n      jump\t// out\n        /* \"#utility.yul\":974:1076   */\n    tag_100:\n        /* \"#utility.yul\":1015:1021   */\n      0x00\n        /* \"#utility.yul\":1066:1068   */\n      0x1f\n        /* \"#utility.yul\":1062:1069   */\n      not\n        /* \"#utility.yul\":1057:1059   */\n      0x1f\n        /* \"#utility.yul\":1050:1055   */\n      dup4\n        /* \"#utility.yul\":1046:1060   */\n      add\n        /* \"#utility.yul\":1042:1070   */\n      and\n        /* \"#utility.yul\":1032:1070   */\n      swap1\n      pop\n        /* \"#utility.yul\":974:1076   */\n      swap2\n      swap1\n      pop\n      jump\t// out\n        /* \"#utility.yul\":1082:1459   */\n    tag_101:\n        /* \"#utility.yul\":1170:1173   */\n      0x00\n        /* \"#utility.yul\":1198:1237   */\n      tag_154\n        /* \"#utility.yul\":1231:1236   */\n      dup3\n        /* \"#utility.yul\":1198:1237   */\n      tag_97\n      jump\t// in\n    tag_154:\n        /* \"#utility.yul\":1253:1324   */\n      tag_155\n        /* \"#utility.yul\":1317:1323   */\n      dup2\n        /* \"#utility.yul\":1312:1315   */\n      dup6\n        /* \"#utility.yul\":1253:1324   */\n      tag_98\n      jump\t// in\n    tag_155:\n        /* \"#utility.yul\":1246:1324   */\n      swap4\n      pop\n        /* \"#utility.yul\":1333:1398   */\n      tag_156\n        /* \"#utility.yul\":1391:1397   */\n      dup2\n        /* \"#utility.yul\":1386:1389   */\n      dup6\n        /* \"#utility.yul\":1379:1383   */\n      0x20\n        /* \"#utility.yul\":1372:1377   */\n      dup7\n        /* \"#utility.yul\":1368:1384   */\n      add\n        /* \"#utility.yul\":1333:1398   */\n      tag_99\n      jump\t// in\n    tag_156:\n        /* \"#utility.yul\":1423:1452   */\n      tag_157\n        /* \"#utility.yul\":1445:1451   */\n      dup2\n        /* \"#utility.yul\":1423:1452   */\n      tag_100\n      jump\t// in\n    tag_157:\n        /* \"#utility.yul\":1418:1421   */\n      dup5\n        /* \"#utility.yul\":1414:1453   */\n      add\n        /* \"#utility.yul\":1407:1453   */\n      swap2\n      pop\n        /* \"#utility.yul\":1174:1459   */\n      pop\n        /* \"#utility.yul\":1082:1459   */\n      swap3\n      swap2\n      pop\n      pop\n      jump\t// out\n        /* \"#utility.yul\":1465:1778   */\n    tag_14:\n        /* \"#utility.yul\":1578:1582   */\n      0x00\n        /* \"#utility.yul\":1616:1618   */\n      0x20\n        /* \"#utility.yul\":1605:1614   */\n      dup3\n        /* \"#utility.yul\":1601:1619   */\n      add\n        /* \"#utility.yul\":1593:1619   */\n      swap1\n      pop\n        /* \"#utility.yul\":1665:1674   */\n      dup2\n        /* \"#utility.yul\":1659:1663   */\n      dup2\n        /* \"#utility.yul\":1655:1675   */\n      sub\n        /* \"#utility.yul\":1651:1652   */\n      0x00\n        /* \"#utility.yul\":1640:1649   */\n      dup4\n        /* \"#utility.yul\":1636:1653   */\n      add\n        /* \"#utility.yul\":1629:1676   */\n      mstore\n        /* \"#utility.yul\":1693:1771   */\n      tag_159\n        /* \"#utility.yul\":1766:1770   */\n      dup2\n        /* \"#utility.yul\":1757:1763   */\n      dup5\n        /* \"#utility.yul\":1693:1771   */\n      tag_101\n      jump\t// in\n    tag_159:\n        /* \"#utility.yul\":1685:1771   */\n      swap1\n      pop\n        /* \"#utility.yul\":1465:1778   */\n      swap3\n      swap2\n      pop\n      pop\n      jump\t// out\n        /* \"#utility.yul\":1784:1859   */\n    tag_102:\n        /* \"#utility.yul\":1817:1823   */\n      0x00\n        /* \"#utility.yul\":1850:1852   */\n      0x40\n        /* \"#utility.yul\":1844:1853   */\n      mload\n        /* \"#utility.yul\":1834:1853   */\n      swap1\n      pop\n        /* \"#utility.yul\":1784:1859   */\n      swap1\n      jump\t// out\n        /* \"#utility.yul\":1865:1982   */\n    tag_103:\n        /* \"#utility.yul\":1974:1975   */\n      0x00\n        /* \"#utility.yul\":1971:1972   */\n      dup1\n        /* \"#utility.yul\":1964:1976   */\n      revert\n        /* \"#utility.yul\":1988:2105   */\n    tag_104:\n        /* \"#utility.yul\":2097:2098   */\n      0x00\n        /* \"#utility.yul\":2094:2095   */\n      dup1\n        /* \"#utility.yul\":2087:2099   */\n      revert\n        /* \"#utility.yul\":2111:2228   */\n    tag_105:\n        /* \"#utility.yul\":2220:2221   */\n      0x00\n        /* \"#utility.yul\":2217:2218   */\n      dup1\n        /* \"#utility.yul\":2210:2222   */\n      revert\n        /* \"#utility.yul\":2234:2351   */\n    tag_106:\n        /* \"#utility.yul\":2343:2344   */\n      0x00\n        /* \"#utility.yul\":2340:2341   */\n      dup1\n        /* \"#utility.yul\":2333:2345   */\n      revert\n        /* \"#utility.yul\":2357:2537   */\n    tag_83:\n        /* \"#utility.yul\":2405:2482   */\n      0x4e487b7100000000000000000000000000000000000000000000000000000000\n        /* \"#utility.yul\":2402:2403   */\n      0x00\n        /* \"#utility.yul\":2395:2483   */\n      mstore\n        /* \"#utility.yul\":2502:2506   */\n      0x41\n        /* \"#utility.yul\":2499:2500   */\n      0x04\n        /* \"#utility.yul\":2492:2507   */\n      mstore\n        /* \"#utility.yul\":2526:2530   */\n      0x24\n        /* \"#utility.yul\":2523:2524   */\n      0x00\n        /* \"#utility.yul\":2516:2531   */\n      revert\n        /* \"#utility.yul\":2543:2824   */\n    tag_107:\n        /* \"#utility.yul\":2626:2653   */\n      tag_167\n        /* \"#utility.yul\":2648:2652   */\n      dup3\n        /* \"#utility.yul\":2626:2653   */\n      tag_100\n      jump\t// in\n    tag_167:\n        /* \"#utility.yul\":2618:2624   */\n      dup2\n        /* \"#utility.yul\":2614:2654   */\n      add\n        /* \"#utility.yul\":2756:2762   */\n      dup2\n        /* \"#utility.yul\":2744:2754   */\n      dup2\n        /* \"#utility.yul\":2741:2763   */\n      lt\n        /* \"#utility.yul\":2720:2738   */\n      0xffffffffffffffff\n        /* \"#utility.yul\":2708:2718   */\n      dup3\n        /* \"#utility.yul\":2705:2739   */\n      gt\n        /* \"#utility.yul\":2702:2764   */\n      or\n        /* \"#utility.yul\":2699:2787   */\n      iszero\n      tag_168\n      jumpi\n        /* \"#utility.yul\":2767:2785   */\n      tag_169\n      tag_83\n      jump\t// in\n    tag_169:\n        /* \"#utility.yul\":2699:2787   */\n    tag_168:\n        /* \"#utility.yul\":2807:2817   */\n      dup1\n        /* \"#utility.yul\":2803:2805   */\n      0x40\n        /* \"#utility.yul\":2796:2818   */\n      mstore\n        /* \"#utility.yul\":2586:2824   */\n      pop\n        /* \"#utility.yul\":2543:2824   */\n      pop\n      pop\n      jump\t// out\n        /* \"#utility.yul\":2830:2959   */\n    tag_108:\n        /* \"#utility.yul\":2864:2870   */\n      0x00\n        /* \"#utility.yul\":2891:2911   */\n      tag_171\n      tag_102\n      jump\t// in\n    tag_171:\n        /* \"#utility.yul\":2881:2911   */\n      swap1\n      pop\n        /* \"#utility.yul\":2920:2953   */\n      tag_172\n        /* \"#utility.yul\":2948:2952   */\n      dup3\n        /* \"#utility.yul\":2940:2946   */\n      dup3\n        /* \"#utility.yul\":2920:2953   */\n      tag_107\n      jump\t// in\n    tag_172:\n        /* \"#utility.yul\":2830:2959   */\n      swap2\n      swap1\n      pop\n      jump\t// out\n        /* \"#utility.yul\":2965:3273   */\n    tag_109:\n        /* \"#utility.yul\":3027:3031   */\n      0x00\n        /* \"#utility.yul\":3117:3135   */\n      0xffffffffffffffff\n        /* \"#utility.yul\":3109:3115   */\n      dup3\n        /* \"#utility.yul\":3106:3136   */\n      gt\n        /* \"#utility.yul\":3103:3159   */\n      iszero\n      tag_174\n      jumpi\n        /* \"#utility.yul\":3139:3157   */\n      tag_175\n      tag_83\n      jump\t// in\n    tag_175:\n        /* \"#utility.yul\":3103:3159   */\n    tag_174:\n        /* \"#utility.yul\":3177:3206   */\n      tag_176\n        /* \"#utility.yul\":3199:3205   */\n      dup3\n        /* \"#utility.yul\":3177:3206   */\n      tag_100\n      jump\t// in\n    tag_176:\n        /* \"#utility.yul\":3169:3206   */\n      swap1\n      pop\n        /* \"#utility.yul\":3261:3265   */\n      0x20\n        /* \"#utility.yul\":3255:3259   */\n      dup2\n        /* \"#utility.yul\":3251:3266   */\n      add\n        /* \"#utility.yul\":3243:3266   */\n      swap1\n      pop\n        /* \"#utility.yul\":2965:3273   */\n      swap2\n      swap1\n      pop\n      jump\t// out\n        /* \"#utility.yul\":3279:3425   */\n    tag_110:\n        /* \"#utility.yul\":3376:3382   */\n      dup3\n        /* \"#utility.yul\":3371:3374   */\n      dup2\n        /* \"#utility.yul\":3366:3369   */\n      dup4\n        /* \"#utility.yul\":3353:3383   */\n      calldatacopy\n        /* \"#utility.yul\":3417:3418   */\n      0x00\n        /* \"#utility.yul\":3408:3414   */\n      dup4\n        /* \"#utility.yul\":3403:3406   */\n      dup4\n        /* \"#utility.yul\":3399:3415   */\n      add\n        /* \"#utility.yul\":3392:3419   */\n      mstore\n        /* \"#utility.yul\":3279:3425   */\n      pop\n      pop\n      pop\n      jump\t// out\n        /* \"#utility.yul\":3431:3856   */\n    tag_111:\n        /* \"#utility.yul\":3509:3514   */\n      0x00\n        /* \"#utility.yul\":3534:3600   */\n      tag_179\n        /* \"#utility.yul\":3550:3599   */\n      tag_180\n        /* \"#utility.yul\":3592:3598   */\n      dup5\n        /* \"#utility.yul\":3550:3599   */\n      tag_109\n      jump\t// in\n    tag_180:\n        /* \"#utility.yul\":3534:3600   */\n      tag_108\n      jump\t// in\n    tag_179:\n        /* \"#utility.yul\":3525:3600   */\n      swap1\n      pop\n        /* \"#utility.yul\":3623:3629   */\n      dup3\n        /* \"#utility.yul\":3616:3621   */\n      dup2\n        /* \"#utility.yul\":3609:3630   */\n      mstore\n        /* \"#utility.yul\":3661:3665   */\n      0x20\n        /* \"#utility.yul\":3654:3659   */\n      dup2\n        /* \"#utility.yul\":3650:3666   */\n      add\n        /* \"#utility.yul\":3699:3702   */\n      dup5\n        /* \"#utility.yul\":3690:3696   */\n      dup5\n        /* \"#utility.yul\":3685:3688   */\n      dup5\n        /* \"#utility.yul\":3681:3697   */\n      add\n        /* \"#utility.yul\":3678:3703   */\n      gt\n        /* \"#utility.yul\":3675:3787   */\n      iszero\n      tag_181\n      jumpi\n        /* \"#utility.yul\":3706:3785   */\n      tag_182\n      tag_106\n      jump\t// in\n    tag_182:\n        /* \"#utility.yul\":3675:3787   */\n    tag_181:\n        /* \"#utility.yul\":3796:3850   */\n      tag_183\n        /* \"#utility.yul\":3843:3849   */\n      dup5\n        /* \"#utility.yul\":3838:3841   */\n      dup3\n        /* \"#utility.yul\":3833:3836   */\n      dup6\n        /* \"#utility.yul\":3796:3850   */\n      tag_110\n      jump\t// in\n    tag_183:\n        /* \"#utility.yul\":3515:3856   */\n      pop\n        /* \"#utility.yul\":3431:3856   */\n      swap4\n      swap3\n      pop\n      pop\n      pop\n      jump\t// out\n        /* \"#utility.yul\":3876:4216   */\n    tag_112:\n        /* \"#utility.yul\":3932:3937   */\n      0x00\n        /* \"#utility.yul\":3981:3984   */\n      dup3\n        /* \"#utility.yul\":3974:3978   */\n      0x1f\n        /* \"#utility.yul\":3966:3972   */\n      dup4\n        /* \"#utility.yul\":3962:3979   */\n      add\n        /* \"#utility.yul\":3958:3985   */\n      slt\n        /* \"#utility.yul\":3948:4070   */\n      tag_185\n      jumpi\n        /* \"#utility.yul\":3989:4068   */\n      tag_186\n      tag_105\n      jump\t// in\n    tag_186:\n        /* \"#utility.yul\":3948:4070   */\n    tag_185:\n        /* \"#utility.yul\":4106:4112   */\n      dup2\n        /* \"#utility.yul\":4093:4113   */\n      calldataload\n        /* \"#utility.yul\":4131:4210   */\n      tag_187\n        /* \"#utility.yul\":4206:4209   */\n      dup5\n        /* \"#utility.yul\":4198:4204   */\n      dup3\n        /* \"#utility.yul\":4191:4195   */\n      0x20\n        /* \"#utility.yul\":4183:4189   */\n      dup7\n        /* \"#utility.yul\":4179:4196   */\n      add\n        /* \"#utility.yul\":4131:4210   */\n      tag_111\n      jump\t// in\n    tag_187:\n        /* \"#utility.yul\":4122:4210   */\n      swap2\n      pop\n        /* \"#utility.yul\":3938:4216   */\n      pop\n        /* \"#utility.yul\":3876:4216   */\n      swap3\n      swap2\n      pop\n      pop\n      jump\t// out\n        /* \"#utility.yul\":4222:4731   */\n    tag_17:\n        /* \"#utility.yul\":4291:4297   */\n      0x00\n        /* \"#utility.yul\":4340:4342   */\n      0x20\n        /* \"#utility.yul\":4328:4337   */\n      dup3\n        /* \"#utility.yul\":4319:4326   */\n      dup5\n        /* \"#utility.yul\":4315:4338   */\n      sub\n        /* \"#utility.yul\":4311:4343   */\n      slt\n        /* \"#utility.yul\":4308:4427   */\n      iszero\n      tag_189\n      jumpi\n        /* \"#utility.yul\":4346:4425   */\n      tag_190\n      tag_103\n      jump\t// in\n    tag_190:\n        /* \"#utility.yul\":4308:4427   */\n    tag_189:\n        /* \"#utility.yul\":4494:4495   */\n      0x00\n        /* \"#utility.yul\":4483:4492   */\n      dup3\n        /* \"#utility.yul\":4479:4496   */\n      add\n        /* \"#utility.yul\":4466:4497   */\n      calldataload\n        /* \"#utility.yul\":4524:4542   */\n      0xffffffffffffffff\n        /* \"#utility.yul\":4516:4522   */\n      dup2\n        /* \"#utility.yul\":4513:4543   */\n      gt\n        /* \"#utility.yul\":4510:4627   */\n      iszero\n      tag_191\n      jumpi\n        /* \"#utility.yul\":4546:4625   */\n      tag_192\n      tag_104\n      jump\t// in\n    tag_192:\n        /* \"#utility.yul\":4510:4627   */\n    tag_191:\n        /* \"#utility.yul\":4651:4714   */\n      tag_193\n        /* \"#utility.yul\":4706:4713   */\n      dup5\n        /* \"#utility.yul\":4697:4703   */\n      dup3\n        /* \"#utility.yul\":4686:4695   */\n      dup6\n        /* \"#utility.yul\":4682:4704   */\n      add\n        /* \"#utility.yul\":4651:4714   */\n      tag_112\n      jump\t// in\n    tag_193:\n        /* \"#utility.yul\":4641:4714   */\n      swap2\n      pop\n        /* \"#utility.yul\":4437:4724   */\n      pop\n        /* \"#utility.yul\":4222:4731   */\n      swap3\n      swap2\n      pop\n      pop\n      jump\t// out\n        /* \"#utility.yul\":4737:4826   */\n    tag_113:\n        /* \"#utility.yul\":4771:4778   */\n      0x00\n        /* \"#utility.yul\":4814:4819   */\n      dup2\n        /* \"#utility.yul\":4811:4812   */\n      0x00\n        /* \"#utility.yul\":4800:4820   */\n      signextend\n        /* \"#utility.yul\":4789:4820   */\n      swap1\n      pop\n        /* \"#utility.yul\":4737:4826   */\n      swap2\n      swap1\n      pop\n      jump\t// out\n        /* \"#utility.yul\":4832:4941   */\n    tag_114:\n        /* \"#utility.yul\":4913:4934   */\n      tag_196\n        /* \"#utility.yul\":4928:4933   */\n      dup2\n        /* \"#utility.yul\":4913:4934   */\n      tag_113\n      jump\t// in\n    tag_196:\n        /* \"#utility.yul\":4908:4911   */\n      dup3\n        /* \"#utility.yul\":4901:4935   */\n      mstore\n        /* \"#utility.yul\":4832:4941   */\n      pop\n      pop\n      jump\t// out\n        /* \"#utility.yul\":4947:5157   */\n    tag_20:\n        /* \"#utility.yul\":5034:5038   */\n      0x00\n        /* \"#utility.yul\":5072:5074   */\n      0x20\n        /* \"#utility.yul\":5061:5070   */\n      dup3\n        /* \"#utility.yul\":5057:5075   */\n      add\n        /* \"#utility.yul\":5049:5075   */\n      swap1\n      pop\n        /* \"#utility.yul\":5085:5150   */\n      tag_198\n        /* \"#utility.yul\":5147:5148   */\n      0x00\n        /* \"#utility.yul\":5136:5145   */\n      dup4\n        /* \"#utility.yul\":5132:5149   */\n      add\n        /* \"#utility.yul\":5123:5129   */\n      dup5\n        /* \"#utility.yul\":5085:5150   */\n      tag_114\n      jump\t// in\n    tag_198:\n        /* \"#utility.yul\":4947:5157   */\n      swap3\n      swap2\n      pop\n      pop\n      jump\t// out\n        /* \"#utility.yul\":5163:5343   */\n    tag_115:\n        /* \"#utility.yul\":5211:5288   */\n      0x4e487b7100000000000000000000000000000000000000000000000000000000\n        /* \"#utility.yul\":5208:5209   */\n      0x00\n        /* \"#utility.yul\":5201:5289   */\n      mstore\n        /* \"#utility.yul\":5308:5312   */\n      0x11\n        /* \"#utility.yul\":5305:5306   */\n      0x04\n        /* \"#utility.yul\":5298:5313   */\n      mstore\n        /* \"#utility.yul\":5332:5336   */\n      0x24\n        /* \"#utility.yul\":5329:5330   */\n      0x00\n        /* \"#utility.yul\":5322:5337   */\n      revert\n        /* \"#utility.yul\":5349:5540   */\n    tag_26:\n        /* \"#utility.yul\":5389:5392   */\n      0x00\n        /* \"#utility.yul\":5408:5428   */\n      tag_201\n        /* \"#utility.yul\":5426:5427   */\n      dup3\n        /* \"#utility.yul\":5408:5428   */\n      tag_95\n      jump\t// in\n    tag_201:\n        /* \"#utility.yul\":5403:5428   */\n      swap2\n      pop\n        /* \"#utility.yul\":5442:5462   */\n      tag_202\n        /* \"#utility.yul\":5460:5461   */\n      dup4\n        /* \"#utility.yul\":5442:5462   */\n      tag_95\n      jump\t// in\n    tag_202:\n        /* \"#utility.yul\":5437:5462   */\n      swap3\n      pop\n        /* \"#utility.yul\":5485:5486   */\n      dup3\n        /* \"#utility.yul\":5482:5483   */\n      dup3\n        /* \"#utility.yul\":5478:5487   */\n      add\n        /* \"#utility.yul\":5471:5487   */\n      swap1\n      pop\n        /* \"#utility.yul\":5506:5509   */\n      dup1\n        /* \"#utility.yul\":5503:5504   */\n      dup3\n        /* \"#utility.yul\":5500:5510   */\n      gt\n        /* \"#utility.yul\":5497:5533   */\n      iszero\n      tag_203\n      jumpi\n        /* \"#utility.yul\":5513:5531   */\n      tag_204\n      tag_115\n      jump\t// in\n    tag_204:\n        /* \"#utility.yul\":5497:5533   */\n    tag_203:\n        /* \"#utility.yul\":5349:5540   */\n      swap3\n      swap2\n      pop\n      pop\n      jump\t// out\n        /* \"#utility.yul\":5546:5726   */\n    tag_116:\n        /* \"#utility.yul\":5594:5671   */\n      0x4e487b7100000000000000000000000000000000000000000000000000000000\n        /* \"#utility.yul\":5591:5592   */\n      0x00\n        /* \"#utility.yul\":5584:5672   */\n      mstore\n        /* \"#utility.yul\":5691:5695   */\n      0x22\n        /* \"#utility.yul\":5688:5689   */\n      0x04\n        /* \"#utility.yul\":5681:5696   */\n      mstore\n        /* \"#utility.yul\":5715:5719   */\n      0x24\n        /* \"#utility.yul\":5712:5713   */\n      0x00\n        /* \"#utility.yul\":5705:5720   */\n      revert\n        /* \"#utility.yul\":5732:6052   */\n    tag_28:\n        /* \"#utility.yul\":5776:5782   */\n      0x00\n        /* \"#utility.yul\":5813:5814   */\n      0x02\n        /* \"#utility.yul\":5807:5811   */\n      dup3\n        /* \"#utility.yul\":5803:5815   */\n      div\n        /* \"#utility.yul\":5793:5815   */\n      swap1\n      pop\n        /* \"#utility.yul\":5860:5861   */\n      0x01\n        /* \"#utility.yul\":5854:5858   */\n      dup3\n        /* \"#utility.yul\":5850:5862   */\n      and\n        /* \"#utility.yul\":5881:5899   */\n      dup1\n        /* \"#utility.yul\":5871:5952   */\n      tag_207\n      jumpi\n        /* \"#utility.yul\":5937:5941   */\n      0x7f\n        /* \"#utility.yul\":5929:5935   */\n      dup3\n        /* \"#utility.yul\":5925:5942   */\n      and\n        /* \"#utility.yul\":5915:5942   */\n      swap2\n      pop\n        /* \"#utility.yul\":5871:5952   */\n    tag_207:\n        /* \"#utility.yul\":5999:6001   */\n      0x20\n        /* \"#utility.yul\":5991:5997   */\n      dup3\n        /* \"#utility.yul\":5988:6002   */\n      lt\n        /* \"#utility.yul\":5968:5986   */\n      dup2\n        /* \"#utility.yul\":5965:6003   */\n      sub\n        /* \"#utility.yul\":5962:6046   */\n      tag_208\n      jumpi\n        /* \"#utility.yul\":6018:6036   */\n      tag_209\n      tag_116\n      jump\t// in\n    tag_209:\n        /* \"#utility.yul\":5962:6046   */\n    tag_208:\n        /* \"#utility.yul\":5783:6052   */\n      pop\n        /* \"#utility.yul\":5732:6052   */\n      swap2\n      swap1\n      pop\n      jump\t// out\n        /* \"#utility.yul\":6058:6252   */\n    tag_38:\n        /* \"#utility.yul\":6098:6102   */\n      0x00\n        /* \"#utility.yul\":6118:6138   */\n      tag_211\n        /* \"#utility.yul\":6136:6137   */\n      dup3\n        /* \"#utility.yul\":6118:6138   */\n      tag_95\n      jump\t// in\n    tag_211:\n        /* \"#utility.yul\":6113:6138   */\n      swap2\n      pop\n        /* \"#utility.yul\":6152:6172   */\n      tag_212\n        /* \"#utility.yul\":6170:6171   */\n      dup4\n        /* \"#utility.yul\":6152:6172   */\n      tag_95\n      jump\t// in\n    tag_212:\n        /* \"#utility.yul\":6147:6172   */\n      swap3\n      pop\n        /* \"#utility.yul\":6196:6197   */\n      dup3\n        /* \"#utility.yul\":6193:6194   */\n      dup3\n        /* \"#utility.yul\":6189:6198   */\n      sub\n        /* \"#utility.yul\":6181:6198   */\n      swap1\n      pop\n        /* \"#utility.yul\":6220:6221   */\n      dup2\n        /* \"#utility.yul\":6214:6218   */\n      dup2\n        /* \"#utility.yul\":6211:6222   */\n      gt\n        /* \"#utility.yul\":6208:6245   */\n      iszero\n      tag_213\n      jumpi\n        /* \"#utility.yul\":6225:6243   */\n      tag_214\n      tag_115\n      jump\t// in\n    tag_214:\n        /* \"#utility.yul\":6208:6245   */\n    tag_213:\n        /* \"#utility.yul\":6058:6252   */\n      swap3\n      swap2\n      pop\n      pop\n      jump\t// out\n        /* \"#utility.yul\":6258:6438   */\n    tag_41:\n        /* \"#utility.yul\":6306:6383   */\n      0x4e487b7100000000000000000000000000000000000000000000000000000000\n        /* \"#utility.yul\":6303:6304   */\n      0x00\n        /* \"#utility.yul\":6296:6384   */\n      mstore\n        /* \"#utility.yul\":6403:6407   */\n      0x32\n        /* \"#utility.yul\":6400:6401   */\n      0x04\n        /* \"#utility.yul\":6393:6408   */\n      mstore\n        /* \"#utility.yul\":6427:6431   */\n      0x24\n        /* \"#utility.yul\":6424:6425   */\n      0x00\n        /* \"#utility.yul\":6417:6432   */\n      revert\n        /* \"#utility.yul\":6444:6530   */\n    tag_117:\n        /* \"#utility.yul\":6479:6486   */\n      0x00\n        /* \"#utility.yul\":6519:6523   */\n      0xff\n        /* \"#utility.yul\":6512:6517   */\n      dup3\n        /* \"#utility.yul\":6508:6524   */\n      and\n        /* \"#utility.yul\":6497:6524   */\n      swap1\n      pop\n        /* \"#utility.yul\":6444:6530   */\n      swap2\n      swap1\n      pop\n      jump\t// out\n        /* \"#utility.yul\":6536:6727   */\n    tag_43:\n        /* \"#utility.yul\":6574:6578   */\n      0x00\n        /* \"#utility.yul\":6594:6612   */\n      tag_218\n        /* \"#utility.yul\":6610:6611   */\n      dup3\n        /* \"#utility.yul\":6594:6612   */\n      tag_117\n      jump\t// in\n    tag_218:\n        /* \"#utility.yul\":6589:6612   */\n      swap2\n      pop\n        /* \"#utility.yul\":6626:6644   */\n      tag_219\n        /* \"#utility.yul\":6642:6643   */\n      dup4\n        /* \"#utility.yul\":6626:6644   */\n      tag_117\n      jump\t// in\n    tag_219:\n        /* \"#utility.yul\":6621:6644   */\n      swap3\n      pop\n        /* \"#utility.yul\":6668:6669   */\n      dup3\n        /* \"#utility.yul\":6665:6666   */\n      dup3\n        /* \"#utility.yul\":6661:6670   */\n      sub\n        /* \"#utility.yul\":6653:6670   */\n      swap1\n      pop\n        /* \"#utility.yul\":6692:6696   */\n      0xff\n        /* \"#utility.yul\":6686:6690   */\n      dup2\n        /* \"#utility.yul\":6683:6697   */\n      gt\n        /* \"#utility.yul\":6680:6720   */\n      iszero\n      tag_220\n      jumpi\n        /* \"#utility.yul\":6700:6718   */\n      tag_221\n      tag_115\n      jump\t// in\n    tag_221:\n        /* \"#utility.yul\":6680:6720   */\n    tag_220:\n        /* \"#utility.yul\":6536:6727   */\n      swap3\n      swap2\n      pop\n      pop\n      jump\t// out\n        /* \"#utility.yul\":6733:6896   */\n    tag_118:\n        /* \"#utility.yul\":6873:6888   */\n      0x496e76616c696420646967697400000000000000000000000000000000000000\n        /* \"#utility.yul\":6869:6870   */\n      0x00\n        /* \"#utility.yul\":6861:6867   */\n      dup3\n        /* \"#utility.yul\":6857:6871   */\n      add\n        /* \"#utility.yul\":6850:6889   */\n      mstore\n        /* \"#utility.yul\":6733:6896   */\n      pop\n      jump\t// out\n        /* \"#utility.yul\":6902:7268   */\n    tag_119:\n        /* \"#utility.yul\":7044:7047   */\n      0x00\n        /* \"#utility.yul\":7065:7132   */\n      tag_224\n        /* \"#utility.yul\":7129:7131   */\n      0x0d\n        /* \"#utility.yul\":7124:7127   */\n      dup4\n        /* \"#utility.yul\":7065:7132   */\n      tag_98\n      jump\t// in\n    tag_224:\n        /* \"#utility.yul\":7058:7132   */\n      swap2\n      pop\n        /* \"#utility.yul\":7141:7234   */\n      tag_225\n        /* \"#utility.yul\":7230:7233   */\n      dup3\n        /* \"#utility.yul\":7141:7234   */\n      tag_118\n      jump\t// in\n    tag_225:\n        /* \"#utility.yul\":7259:7261   */\n      0x20\n        /* \"#utility.yul\":7254:7257   */\n      dup3\n        /* \"#utility.yul\":7250:7262   */\n      add\n        /* \"#utility.yul\":7243:7262   */\n      swap1\n      pop\n        /* \"#utility.yul\":6902:7268   */\n      swap2\n      swap1\n      pop\n      jump\t// out\n        /* \"#utility.yul\":7274:7693   */\n    tag_46:\n        /* \"#utility.yul\":7440:7444   */\n      0x00\n        /* \"#utility.yul\":7478:7480   */\n      0x20\n        /* \"#utility.yul\":7467:7476   */\n      dup3\n        /* \"#utility.yul\":7463:7481   */\n      add\n        /* \"#utility.yul\":7455:7481   */\n      swap1\n      pop\n        /* \"#utility.yul\":7527:7536   */\n      dup2\n        /* \"#utility.yul\":7521:7525   */\n      dup2\n        /* \"#utility.yul\":7517:7537   */\n      sub\n        /* \"#utility.yul\":7513:7514   */\n      0x00\n        /* \"#utility.yul\":7502:7511   */\n      dup4\n        /* \"#utility.yul\":7498:7515   */\n      add\n        /* \"#utility.yul\":7491:7538   */\n      mstore\n        /* \"#utility.yul\":7555:7686   */\n      tag_227\n        /* \"#utility.yul\":7681:7685   */\n      dup2\n        /* \"#utility.yul\":7555:7686   */\n      tag_119\n      jump\t// in\n    tag_227:\n        /* \"#utility.yul\":7547:7686   */\n      swap1\n      pop\n        /* \"#utility.yul\":7274:7693   */\n      swap2\n      swap1\n      pop\n      jump\t// out\n        /* \"#utility.yul\":7699:7966   */\n    tag_48:\n        /* \"#utility.yul\":7736:7743   */\n      0x00\n        /* \"#utility.yul\":7759:7776   */\n      tag_229\n        /* \"#utility.yul\":7774:7775   */\n      dup3\n        /* \"#utility.yul\":7759:7776   */\n      tag_113\n      jump\t// in\n    tag_229:\n        /* \"#utility.yul\":7754:7776   */\n      swap2\n      pop\n        /* \"#utility.yul\":7790:7807   */\n      tag_230\n        /* \"#utility.yul\":7805:7806   */\n      dup4\n        /* \"#utility.yul\":7790:7807   */\n      tag_113\n      jump\t// in\n    tag_230:\n        /* \"#utility.yul\":7785:7807   */\n      swap3\n      pop\n        /* \"#utility.yul\":7842:7843   */\n      dup3\n        /* \"#utility.yul\":7839:7840   */\n      dup3\n        /* \"#utility.yul\":7835:7844   */\n      mul\n        /* \"#utility.yul\":7864:7891   */\n      tag_231\n        /* \"#utility.yul\":7879:7890   */\n      dup2\n        /* \"#utility.yul\":7864:7891   */\n      tag_113\n      jump\t// in\n    tag_231:\n        /* \"#utility.yul\":7853:7891   */\n      swap2\n      pop\n        /* \"#utility.yul\":7923:7934   */\n      dup1\n        /* \"#utility.yul\":7914:7921   */\n      dup3\n        /* \"#utility.yul\":7911:7935   */\n      eq\n        /* \"#utility.yul\":7901:7959   */\n      tag_232\n      jumpi\n        /* \"#utility.yul\":7939:7957   */\n      tag_233\n      tag_115\n      jump\t// in\n    tag_233:\n        /* \"#utility.yul\":7901:7959   */\n    tag_232:\n        /* \"#utility.yul\":7744:7966   */\n      pop\n        /* \"#utility.yul\":7699:7966   */\n      swap3\n      swap2\n      pop\n      pop\n      jump\t// out\n        /* \"#utility.yul\":7972:8274   */\n    tag_50:\n        /* \"#utility.yul\":8009:8012   */\n      0x00\n        /* \"#utility.yul\":8028:8045   */\n      tag_235\n        /* \"#utility.yul\":8043:8044   */\n      dup3\n        /* \"#utility.yul\":8028:8045   */\n      tag_113\n      jump\t// in\n    tag_235:\n        /* \"#utility.yul\":8023:8045   */\n      swap2\n      pop\n        /* \"#utility.yul\":8059:8076   */\n      tag_236\n        /* \"#utility.yul\":8074:8075   */\n      dup4\n        /* \"#utility.yul\":8059:8076   */\n      tag_113\n      jump\t// in\n    tag_236:\n        /* \"#utility.yul\":8054:8076   */\n      swap3\n      pop\n        /* \"#utility.yul\":8099:8100   */\n      dup3\n        /* \"#utility.yul\":8096:8097   */\n      dup3\n        /* \"#utility.yul\":8092:8101   */\n      add\n        /* \"#utility.yul\":8085:8101   */\n      swap1\n      pop\n        /* \"#utility.yul\":8167:8233   */\n      0xffffffffffffffffffffffffffffffffffffffffffffffffffffffffffffff80\n        /* \"#utility.yul\":8162:8165   */\n      dup2\n        /* \"#utility.yul\":8158:8234   */\n      slt\n        /* \"#utility.yul\":8139:8143   */\n      0x7f\n        /* \"#utility.yul\":8134:8137   */\n      dup3\n        /* \"#utility.yul\":8130:8144   */\n      sgt\n        /* \"#utility.yul\":8114:8244   */\n      or\n        /* \"#utility.yul\":8111:8267   */\n      iszero\n      tag_237\n      jumpi\n        /* \"#utility.yul\":8247:8265   */\n      tag_238\n      tag_115\n      jump\t// in\n    tag_238:\n        /* \"#utility.yul\":8111:8267   */\n    tag_237:\n        /* \"#utility.yul\":7972:8274   */\n      swap3\n      swap2\n      pop\n      pop\n      jump\t// out\n        /* \"#utility.yul\":8280:8451   */\n    tag_53:\n        /* \"#utility.yul\":8319:8322   */\n      0x00\n        /* \"#utility.yul\":8342:8366   */\n      tag_240\n        /* \"#utility.yul\":8360:8365   */\n      dup3\n        /* \"#utility.yul\":8342:8366   */\n      tag_95\n      jump\t// in\n    tag_240:\n        /* \"#utility.yul\":8333:8366   */\n      swap2\n      pop\n        /* \"#utility.yul\":8388:8392   */\n      0x00\n        /* \"#utility.yul\":8381:8386   */\n      dup3\n        /* \"#utility.yul\":8378:8393   */\n      sub\n        /* \"#utility.yul\":8375:8416   */\n      tag_241\n      jumpi\n        /* \"#utility.yul\":8396:8414   */\n      tag_242\n      tag_115\n      jump\t// in\n    tag_242:\n        /* \"#utility.yul\":8375:8416   */\n    tag_241:\n        /* \"#utility.yul\":8443:8444   */\n      0x01\n        /* \"#utility.yul\":8436:8441   */\n      dup3\n        /* \"#utility.yul\":8432:8445   */\n      sub\n        /* \"#utility.yul\":8425:8445   */\n      swap1\n      pop\n        /* \"#utility.yul\":8280:8451   */\n      swap2\n      swap1\n      pop\n      jump\t// out\n        /* \"#utility.yul\":8457:8763   */\n    tag_62:\n        /* \"#utility.yul\":8494:8498   */\n      0x00\n        /* \"#utility.yul\":8514:8531   */\n      tag_244\n        /* \"#utility.yul\":8529:8530   */\n      dup3\n        /* \"#utility.yul\":8514:8531   */\n      tag_113\n      jump\t// in\n    tag_244:\n        /* \"#utility.yul\":8509:8531   */\n      swap2\n      pop\n        /* \"#utility.yul\":8545:8562   */\n      tag_245\n        /* \"#utility.yul\":8560:8561   */\n      dup4\n        /* \"#utility.yul\":8545:8562   */\n      tag_113\n      jump\t// in\n    tag_245:\n        /* \"#utility.yul\":8540:8562   */\n      swap3\n      pop\n        /* \"#utility.yul\":8586:8587   */\n      dup3\n        /* \"#utility.yul\":8583:8584   */\n      dup3\n        /* \"#utility.yul\":8579:8588   */\n      sub\n        /* \"#utility.yul\":8571:8588   */\n      swap1\n      pop\n        /* \"#utility.yul\":8718:8722   */\n      0x7f\n        /* \"#utility.yul\":8712:8716   */\n      dup2\n        /* \"#utility.yul\":8708:8723   */\n      sgt\n        /* \"#utility.yul\":8627:8693   */\n      0xffffffffffffffffffffffffffffffffffffffffffffffffffffffffffffff80\n        /* \"#utility.yul\":8621:8625   */\n      dup3\n        /* \"#utility.yul\":8617:8694   */\n      slt\n        /* \"#utility.yul\":8601:8733   */\n      or\n        /* \"#utility.yul\":8598:8756   */\n      iszero\n      tag_246\n      jumpi\n        /* \"#utility.yul\":8736:8754   */\n      tag_247\n      tag_115\n      jump\t// in\n    tag_247:\n        /* \"#utility.yul\":8598:8756   */\n    tag_246:\n        /* \"#utility.yul\":8457:8763   */\n      swap3\n      swap2\n      pop\n      pop\n      jump\t// out\n        /* \"#utility.yul\":8769:8949   */\n    tag_120:\n        /* \"#utility.yul\":8817:8894   */\n      0x4e487b7100000000000000000000000000000000000000000000000000000000\n        /* \"#utility.yul\":8814:8815   */\n      0x00\n        /* \"#utility.yul\":8807:8895   */\n      mstore\n        /* \"#utility.yul\":8914:8918   */\n      0x12\n        /* \"#utility.yul\":8911:8912   */\n      0x04\n        /* \"#utility.yul\":8904:8919   */\n      mstore\n        /* \"#utility.yul\":8938:8942   */\n      0x24\n        /* \"#utility.yul\":8935:8936   */\n      0x00\n        /* \"#utility.yul\":8928:8943   */\n      revert\n        /* \"#utility.yul\":8955:9334   */\n    tag_64:\n        /* \"#utility.yul\":8992:8993   */\n      0x00\n        /* \"#utility.yul\":9009:9026   */\n      tag_250\n        /* \"#utility.yul\":9024:9025   */\n      dup3\n        /* \"#utility.yul\":9009:9026   */\n      tag_113\n      jump\t// in\n    tag_250:\n        /* \"#utility.yul\":9004:9026   */\n      swap2\n      pop\n        /* \"#utility.yul\":9040:9057   */\n      tag_251\n        /* \"#utility.yul\":9055:9056   */\n      dup4\n        /* \"#utility.yul\":9040:9057   */\n      tag_113\n      jump\t// in\n    tag_251:\n        /* \"#utility.yul\":9035:9057   */\n      swap3\n      pop\n        /* \"#utility.yul\":9076:9077   */\n      dup3\n        /* \"#utility.yul\":9066:9101   */\n      tag_252\n      jumpi\n        /* \"#utility.yul\":9081:9099   */\n      tag_253\n      tag_120\n      jump\t// in\n    tag_253:\n        /* \"#utility.yul\":9066:9101   */\n    tag_252:\n        /* \"#utility.yul\":9267:9268   */\n      0x01\n        /* \"#utility.yul\":9264:9265   */\n      0x00\n        /* \"#utility.yul\":9260:9269   */\n      sub\n        /* \"#utility.yul\":9257:9258   */\n      dup4\n        /* \"#utility.yul\":9254:9270   */\n      eq\n        /* \"#utility.yul\":9173:9239   */\n      0xffffffffffffffffffffffffffffffffffffffffffffffffffffffffffffff80\n        /* \"#utility.yul\":9170:9171   */\n      dup4\n        /* \"#utility.yul\":9167:9240   */\n      eq\n        /* \"#utility.yul\":9150:9280   */\n      and\n        /* \"#utility.yul\":9147:9303   */\n      iszero\n      tag_254\n      jumpi\n        /* \"#utility.yul\":9283:9301   */\n      tag_255\n      tag_115\n      jump\t// in\n    tag_255:\n        /* \"#utility.yul\":9147:9303   */\n    tag_254:\n        /* \"#utility.yul\":9326:9327   */\n      dup3\n        /* \"#utility.yul\":9323:9324   */\n      dup3\n        /* \"#utility.yul\":9318:9328   */\n      sdiv\n        /* \"#utility.yul\":9313:9328   */\n      swap1\n      pop\n        /* \"#utility.yul\":8955:9334   */\n      swap3\n      swap2\n      pop\n      pop\n      jump\t// out\n        /* \"#utility.yul\":9340:9508   */\n    tag_66:\n        /* \"#utility.yul\":9369:9370   */\n      0x00\n        /* \"#utility.yul\":9386:9403   */\n      tag_257\n        /* \"#utility.yul\":9401:9402   */\n      dup3\n        /* \"#utility.yul\":9386:9403   */\n      tag_113\n      jump\t// in\n    tag_257:\n        /* \"#utility.yul\":9381:9403   */\n      swap2\n      pop\n        /* \"#utility.yul\":9417:9434   */\n      tag_258\n        /* \"#utility.yul\":9432:9433   */\n      dup4\n        /* \"#utility.yul\":9417:9434   */\n      tag_113\n      jump\t// in\n    tag_258:\n        /* \"#utility.yul\":9412:9434   */\n      swap3\n      pop\n        /* \"#utility.yul\":9453:9454   */\n      dup3\n        /* \"#utility.yul\":9443:9478   */\n      tag_259\n      jumpi\n        /* \"#utility.yul\":9458:9476   */\n      tag_260\n      tag_120\n      jump\t// in\n    tag_260:\n        /* \"#utility.yul\":9443:9478   */\n    tag_259:\n        /* \"#utility.yul\":9500:9501   */\n      dup3\n        /* \"#utility.yul\":9497:9498   */\n      dup3\n        /* \"#utility.yul\":9492:9502   */\n      smod\n        /* \"#utility.yul\":9487:9502   */\n      swap1\n      pop\n        /* \"#utility.yul\":9340:9508   */\n      swap3\n      swap2\n      pop\n      pop\n      jump\t// out\n        /* \"#utility.yul\":9514:9662   */\n    tag_121:\n        /* \"#utility.yul\":9616:9627   */\n      0x00\n        /* \"#utility.yul\":9653:9656   */\n      dup2\n        /* \"#utility.yul\":9638:9656   */\n      swap1\n      pop\n        /* \"#utility.yul\":9514:9662   */\n      swap3\n      swap2\n      pop\n      pop\n      jump\t// out\n        /* \"#utility.yul\":9668:10058   */\n    tag_122:\n        /* \"#utility.yul\":9774:9777   */\n      0x00\n        /* \"#utility.yul\":9802:9841   */\n      tag_263\n        /* \"#utility.yul\":9835:9840   */\n      dup3\n        /* \"#utility.yul\":9802:9841   */\n      tag_97\n      jump\t// in\n    tag_263:\n        /* \"#utility.yul\":9857:9946   */\n      tag_264\n        /* \"#utility.yul\":9939:9945   */\n      dup2\n        /* \"#utility.yul\":9934:9937   */\n      dup6\n        /* \"#utility.yul\":9857:9946   */\n      tag_121\n      jump\t// in\n    tag_264:\n        /* \"#utility.yul\":9850:9946   */\n      swap4\n      pop\n        /* \"#utility.yul\":9955:10020   */\n      tag_265\n        /* \"#utility.yul\":10013:10019   */\n      dup2\n        /* \"#utility.yul\":10008:10011   */\n      dup6\n        /* \"#utility.yul\":10001:10005   */\n      0x20\n        /* \"#utility.yul\":9994:9999   */\n      dup7\n        /* \"#utility.yul\":9990:10006   */\n      add\n        /* \"#utility.yul\":9955:10020   */\n      tag_99\n      jump\t// in\n    tag_265:\n        /* \"#utility.yul\":10045:10051   */\n      dup1\n        /* \"#utility.yul\":10040:10043   */\n      dup5\n        /* \"#utility.yul\":10036:10052   */\n      add\n        /* \"#utility.yul\":10029:10052   */\n      swap2\n      pop\n        /* \"#utility.yul\":9778:10058   */\n      pop\n        /* \"#utility.yul\":9668:10058   */\n      swap3\n      swap2\n      pop\n      pop\n      jump\t// out\n        /* \"#utility.yul\":10064:10215   */\n    tag_123:\n        /* \"#utility.yul\":10204:10207   */\n      0x2e00000000000000000000000000000000000000000000000000000000000000\n        /* \"#utility.yul\":10200:10201   */\n      0x00\n        /* \"#utility.yul\":10192:10198   */\n      dup3\n        /* \"#utility.yul\":10188:10202   */\n      add\n        /* \"#utility.yul\":10181:10208   */\n      mstore\n        /* \"#utility.yul\":10064:10215   */\n      pop\n      jump\t// out\n        /* \"#utility.yul\":10221:10621   */\n    tag_124:\n        /* \"#utility.yul\":10381:10384   */\n      0x00\n        /* \"#utility.yul\":10402:10486   */\n      tag_268\n        /* \"#utility.yul\":10484:10485   */\n      0x01\n        /* \"#utility.yul\":10479:10482   */\n      dup4\n        /* \"#utility.yul\":10402:10486   */\n      tag_121\n      jump\t// in\n    tag_268:\n        /* \"#utility.yul\":10395:10486   */\n      swap2\n      pop\n        /* \"#utility.yul\":10495:10588   */\n      tag_269\n        /* \"#utility.yul\":10584:10587   */\n      dup3\n        /* \"#utility.yul\":10495:10588   */\n      tag_123\n      jump\t// in\n    tag_269:\n        /* \"#utility.yul\":10613:10614   */\n      0x01\n        /* \"#utility.yul\":10608:10611   */\n      dup3\n        /* \"#utility.yul\":10604:10615   */\n      add\n        /* \"#utility.yul\":10597:10615   */\n      swap1\n      pop\n        /* \"#utility.yul\":10221:10621   */\n      swap2\n      swap1\n      pop\n      jump\t// out\n        /* \"#utility.yul\":10627:11328   */\n    tag_71:\n        /* \"#utility.yul\":10908:10911   */\n      0x00\n        /* \"#utility.yul\":10930:11025   */\n      tag_271\n        /* \"#utility.yul\":11021:11024   */\n      dup3\n        /* \"#utility.yul\":11012:11018   */\n      dup6\n        /* \"#utility.yul\":10930:11025   */\n      tag_122\n      jump\t// in\n    tag_271:\n        /* \"#utility.yul\":10923:11025   */\n      swap2\n      pop\n        /* \"#utility.yul\":11042:11190   */\n      tag_272\n        /* \"#utility.yul\":11186:11189   */\n      dup3\n        /* \"#utility.yul\":11042:11190   */\n      tag_124\n      jump\t// in\n    tag_272:\n        /* \"#utility.yul\":11035:11190   */\n      swap2\n      pop\n        /* \"#utility.yul\":11207:11302   */\n      tag_273\n        /* \"#utility.yul\":11298:11301   */\n      dup3\n        /* \"#utility.yul\":11289:11295   */\n      dup5\n        /* \"#utility.yul\":11207:11302   */\n      tag_122\n      jump\t// in\n    tag_273:\n        /* \"#utility.yul\":11200:11302   */\n      swap2\n      pop\n        /* \"#utility.yul\":11319:11322   */\n      dup2\n        /* \"#utility.yul\":11312:11322   */\n      swap1\n      pop\n        /* \"#utility.yul\":10627:11328   */\n      swap4\n      swap3\n      pop\n      pop\n      pop\n      jump\t// out\n        /* \"#utility.yul\":11334:11475   */\n    tag_125:\n        /* \"#utility.yul\":11383:11387   */\n      0x00\n        /* \"#utility.yul\":11406:11409   */\n      dup2\n        /* \"#utility.yul\":11398:11409   */\n      swap1\n      pop\n        /* \"#utility.yul\":11429:11432   */\n      dup2\n        /* \"#utility.yul\":11426:11427   */\n      0x00\n        /* \"#utility.yul\":11419:11433   */\n      mstore\n        /* \"#utility.yul\":11463:11467   */\n      0x20\n        /* \"#utility.yul\":11460:11461   */\n      0x00\n        /* \"#utility.yul\":11450:11468   */\n      keccak256\n        /* \"#utility.yul\":11442:11468   */\n      swap1\n      pop\n        /* \"#utility.yul\":11334:11475   */\n      swap2\n      swap1\n      pop\n      jump\t// out\n        /* \"#utility.yul\":11481:11574   */\n    tag_126:\n        /* \"#utility.yul\":11518:11524   */\n      0x00\n        /* \"#utility.yul\":11565:11567   */\n      0x20\n        /* \"#utility.yul\":11560:11562   */\n      0x1f\n        /* \"#utility.yul\":11553:11558   */\n      dup4\n        /* \"#utility.yul\":11549:11563   */\n      add\n        /* \"#utility.yul\":11545:11568   */\n      div\n        /* \"#utility.yul\":11535:11568   */\n      swap1\n      pop\n        /* \"#utility.yul\":11481:11574   */\n      swap2\n      swap1\n      pop\n      jump\t// out\n        /* \"#utility.yul\":11580:11687   */\n    tag_127:\n        /* \"#utility.yul\":11624:11632   */\n      0x00\n        /* \"#utility.yul\":11674:11679   */\n      dup3\n        /* \"#utility.yul\":11668:11672   */\n      dup3\n        /* \"#utility.yul\":11664:11680   */\n      shl\n        /* \"#utility.yul\":11643:11680   */\n      swap1\n      pop\n        /* \"#utility.yul\":11580:11687   */\n      swap3\n      swap2\n      pop\n      pop\n      jump\t// out\n        /* \"#utility.yul\":11693:12086   */\n    tag_128:\n        /* \"#utility.yul\":11762:11768   */\n      0x00\n        /* \"#utility.yul\":11812:11813   */\n      0x08\n        /* \"#utility.yul\":11800:11810   */\n      dup4\n        /* \"#utility.yul\":11796:11814   */\n      mul\n        /* \"#utility.yul\":11835:11932   */\n      tag_278\n        /* \"#utility.yul\":11865:11931   */\n      0xffffffffffffffffffffffffffffffffffffffffffffffffffffffffffffffff\n        /* \"#utility.yul\":11854:11863   */\n      dup3\n        /* \"#utility.yul\":11835:11932   */\n      tag_127\n      jump\t// in\n    tag_278:\n        /* \"#utility.yul\":11953:11992   */\n      tag_279\n        /* \"#utility.yul\":11983:11991   */\n      dup7\n        /* \"#utility.yul\":11972:11981   */\n      dup4\n        /* \"#utility.yul\":11953:11992   */\n      tag_127\n      jump\t// in\n    tag_279:\n        /* \"#utility.yul\":11941:11992   */\n      swap6\n      pop\n        /* \"#utility.yul\":12025:12029   */\n      dup1\n        /* \"#utility.yul\":12021:12030   */\n      not\n        /* \"#utility.yul\":12014:12019   */\n      dup5\n        /* \"#utility.yul\":12010:12031   */\n      and\n        /* \"#utility.yul\":12001:12031   */\n      swap4\n      pop\n        /* \"#utility.yul\":12074:12078   */\n      dup1\n        /* \"#utility.yul\":12064:12072   */\n      dup7\n        /* \"#utility.yul\":12060:12079   */\n      and\n        /* \"#utility.yul\":12053:12058   */\n      dup5\n        /* \"#utility.yul\":12050:12080   */\n      or\n        /* \"#utility.yul\":12040:12080   */\n      swap3\n      pop\n        /* \"#utility.yul\":11769:12086   */\n      pop\n      pop\n        /* \"#utility.yul\":11693:12086   */\n      swap4\n      swap3\n      pop\n      pop\n      pop\n      jump\t// out\n        /* \"#utility.yul\":12092:12152   */\n    tag_129:\n        /* \"#utility.yul\":12120:12123   */\n      0x00\n        /* \"#utility.yul\":12141:12146   */\n      dup2\n        /* \"#utility.yul\":12134:12146   */\n      swap1\n      pop\n        /* \"#utility.yul\":12092:12152   */\n      swap2\n      swap1\n      pop\n      jump\t// out\n        /* \"#utility.yul\":12158:12300   */\n    tag_130:\n        /* \"#utility.yul\":12208:12217   */\n      0x00\n        /* \"#utility.yul\":12241:12294   */\n      tag_282\n        /* \"#utility.yul\":12259:12293   */\n      tag_283\n        /* \"#utility.yul\":12268:12292   */\n      tag_284\n        /* \"#utility.yul\":12286:12291   */\n      dup5\n        /* \"#utility.yul\":12268:12292   */\n      tag_95\n      jump\t// in\n    tag_284:\n        /* \"#utility.yul\":12259:12293   */\n      tag_129\n      jump\t// in\n    tag_283:\n        /* \"#utility.yul\":12241:12294   */\n      tag_95\n      jump\t// in\n    tag_282:\n        /* \"#utility.yul\":12228:12294   */\n      swap1\n      pop\n        /* \"#utility.yul\":12158:12300   */\n      swap2\n      swap1\n      pop\n      jump\t// out\n        /* \"#utility.yul\":12306:12381   */\n    tag_131:\n        /* \"#utility.yul\":12349:12352   */\n      0x00\n        /* \"#utility.yul\":12370:12375   */\n      dup2\n        /* \"#utility.yul\":12363:12375   */\n      swap1\n      pop\n        /* \"#utility.yul\":12306:12381   */\n      swap2\n      swap1\n      pop\n      jump\t// out\n        /* \"#utility.yul\":12387:12656   */\n    tag_132:\n        /* \"#utility.yul\":12497:12536   */\n      tag_287\n        /* \"#utility.yul\":12528:12535   */\n      dup4\n        /* \"#utility.yul\":12497:12536   */\n      tag_130\n      jump\t// in\n    tag_287:\n        /* \"#utility.yul\":12558:12649   */\n      tag_288\n        /* \"#utility.yul\":12607:12648   */\n      tag_289\n        /* \"#utility.yul\":12631:12647   */\n      dup3\n        /* \"#utility.yul\":12607:12648   */\n      tag_131\n      jump\t// in\n    tag_289:\n        /* \"#utility.yul\":12599:12605   */\n      dup5\n        /* \"#utility.yul\":12592:12596   */\n      dup5\n        /* \"#utility.yul\":12586:12597   */\n      sload\n        /* \"#utility.yul\":12558:12649   */\n      tag_128\n      jump\t// in\n    tag_288:\n        /* \"#utility.yul\":12552:12556   */\n      dup3\n        /* \"#utility.yul\":12545:12650   */\n      sstore\n        /* \"#utility.yul\":12463:12656   */\n      pop\n        /* \"#utility.yul\":12387:12656   */\n      pop\n      pop\n      pop\n      jump\t// out\n        /* \"#utility.yul\":12662:12735   */\n    tag_133:\n        /* \"#utility.yul\":12707:12710   */\n      0x00\n        /* \"#utility.yul\":12662:12735   */\n      swap1\n      jump\t// out\n        /* \"#utility.yul\":12741:12930   */\n    tag_134:\n        /* \"#utility.yul\":12818:12850   */\n      tag_292\n      tag_133\n      jump\t// in\n    tag_292:\n        /* \"#utility.yul\":12859:12924   */\n      tag_293\n        /* \"#utility.yul\":12917:12923   */\n      dup2\n        /* \"#utility.yul\":12909:12915   */\n      dup5\n        /* \"#utility.yul\":12903:12907   */\n      dup5\n        /* \"#utility.yul\":12859:12924   */\n      tag_132\n      jump\t// in\n    tag_293:\n        /* \"#utility.yul\":12794:12930   */\n      pop\n        /* \"#utility.yul\":12741:12930   */\n      pop\n      pop\n      jump\t// out\n        /* \"#utility.yul\":12936:13122   */\n    tag_135:\n        /* \"#utility.yul\":12996:13116   */\n    tag_295:\n        /* \"#utility.yul\":13013:13016   */\n      dup2\n        /* \"#utility.yul\":13006:13011   */\n      dup2\n        /* \"#utility.yul\":13003:13017   */\n      lt\n        /* \"#utility.yul\":12996:13116   */\n      iszero\n      tag_297\n      jumpi\n        /* \"#utility.yul\":13067:13106   */\n      tag_298\n        /* \"#utility.yul\":13104:13105   */\n      0x00\n        /* \"#utility.yul\":13097:13102   */\n      dup3\n        /* \"#utility.yul\":13067:13106   */\n      tag_134\n      jump\t// in\n    tag_298:\n        /* \"#utility.yul\":13040:13041   */\n      0x01\n        /* \"#utility.yul\":13033:13038   */\n      dup2\n        /* \"#utility.yul\":13029:13042   */\n      add\n        /* \"#utility.yul\":13020:13042   */\n      swap1\n      pop\n        /* \"#utility.yul\":12996:13116   */\n      jump(tag_295)\n    tag_297:\n        /* \"#utility.yul\":12936:13122   */\n      pop\n      pop\n      jump\t// out\n        /* \"#utility.yul\":13128:13671   */\n    tag_136:\n        /* \"#utility.yul\":13229:13231   */\n      0x1f\n        /* \"#utility.yul\":13224:13227   */\n      dup3\n        /* \"#utility.yul\":13221:13232   */\n      gt\n        /* \"#utility.yul\":13218:13664   */\n      iszero\n      tag_300\n      jumpi\n        /* \"#utility.yul\":13263:13301   */\n      tag_301\n        /* \"#utility.yul\":13295:13300   */\n      dup2\n        /* \"#utility.yul\":13263:13301   */\n      tag_125\n      jump\t// in\n    tag_301:\n        /* \"#utility.yul\":13347:13376   */\n      tag_302\n        /* \"#utility.yul\":13365:13375   */\n      dup5\n        /* \"#utility.yul\":13347:13376   */\n      tag_126\n      jump\t// in\n    tag_302:\n        /* \"#utility.yul\":13337:13345   */\n      dup2\n        /* \"#utility.yul\":13333:13377   */\n      add\n        /* \"#utility.yul\":13530:13532   */\n      0x20\n        /* \"#utility.yul\":13518:13528   */\n      dup6\n        /* \"#utility.yul\":13515:13533   */\n      lt\n        /* \"#utility.yul\":13512:13561   */\n      iszero\n      tag_303\n      jumpi\n        /* \"#utility.yul\":13551:13559   */\n      dup2\n        /* \"#utility.yul\":13536:13559   */\n      swap1\n      pop\n        /* \"#utility.yul\":13512:13561   */\n    tag_303:\n        /* \"#utility.yul\":13574:13654   */\n      tag_304\n        /* \"#utility.yul\":13630:13652   */\n      tag_305\n        /* \"#utility.yul\":13648:13651   */\n      dup6\n        /* \"#utility.yul\":13630:13652   */\n      tag_126\n      jump\t// in\n    tag_305:\n        /* \"#utility.yul\":13620:13628   */\n      dup4\n        /* \"#utility.yul\":13616:13653   */\n      add\n        /* \"#utility.yul\":13603:13614   */\n      dup3\n        /* \"#utility.yul\":13574:13654   */\n      tag_135\n      jump\t// in\n    tag_304:\n        /* \"#utility.yul\":13233:13664   */\n      pop\n      pop\n        /* \"#utility.yul\":13218:13664   */\n    tag_300:\n        /* \"#utility.yul\":13128:13671   */\n      pop\n      pop\n      pop\n      jump\t// out\n        /* \"#utility.yul\":13677:13794   */\n    tag_137:\n        /* \"#utility.yul\":13731:13739   */\n      0x00\n        /* \"#utility.yul\":13781:13786   */\n      dup3\n        /* \"#utility.yul\":13775:13779   */\n      dup3\n        /* \"#utility.yul\":13771:13787   */\n      shr\n        /* \"#utility.yul\":13750:13787   */\n      swap1\n      pop\n        /* \"#utility.yul\":13677:13794   */\n      swap3\n      swap2\n      pop\n      pop\n      jump\t// out\n        /* \"#utility.yul\":13800:13969   */\n    tag_138:\n        /* \"#utility.yul\":13844:13850   */\n      0x00\n        /* \"#utility.yul\":13877:13928   */\n      tag_308\n        /* \"#utility.yul\":13925:13926   */\n      0x00\n        /* \"#utility.yul\":13921:13927   */\n      not\n        /* \"#utility.yul\":13913:13918   */\n      dup5\n        /* \"#utility.yul\":13910:13911   */\n      0x08\n        /* \"#utility.yul\":13906:13919   */\n      mul\n        /* \"#utility.yul\":13877:13928   */\n      tag_137\n      jump\t// in\n    tag_308:\n        /* \"#utility.yul\":13873:13929   */\n      not\n        /* \"#utility.yul\":13958:13962   */\n      dup1\n        /* \"#utility.yul\":13952:13956   */\n      dup4\n        /* \"#utility.yul\":13948:13963   */\n      and\n        /* \"#utility.yul\":13938:13963   */\n      swap2\n      pop\n        /* \"#utility.yul\":13851:13969   */\n      pop\n        /* \"#utility.yul\":13800:13969   */\n      swap3\n      swap2\n      pop\n      pop\n      jump\t// out\n        /* \"#utility.yul\":13974:14269   */\n    tag_139:\n        /* \"#utility.yul\":14050:14054   */\n      0x00\n        /* \"#utility.yul\":14196:14225   */\n      tag_310\n        /* \"#utility.yul\":14221:14224   */\n      dup4\n        /* \"#utility.yul\":14215:14219   */\n      dup4\n        /* \"#utility.yul\":14196:14225   */\n      tag_138\n      jump\t// in\n    tag_310:\n        /* \"#utility.yul\":14188:14225   */\n      swap2\n      pop\n        /* \"#utility.yul\":14258:14261   */\n      dup3\n        /* \"#utility.yul\":14255:14256   */\n      0x02\n        /* \"#utility.yul\":14251:14262   */\n      mul\n        /* \"#utility.yul\":14245:14249   */\n      dup3\n        /* \"#utility.yul\":14242:14263   */\n      or\n        /* \"#utility.yul\":14234:14263   */\n      swap1\n      pop\n        /* \"#utility.yul\":13974:14269   */\n      swap3\n      swap2\n      pop\n      pop\n      jump\t// out\n        /* \"#utility.yul\":14274:15669   */\n    tag_73:\n        /* \"#utility.yul\":14391:14428   */\n      tag_312\n        /* \"#utility.yul\":14424:14427   */\n      dup3\n        /* \"#utility.yul\":14391:14428   */\n      tag_97\n      jump\t// in\n    tag_312:\n        /* \"#utility.yul\":14493:14511   */\n      0xffffffffffffffff\n        /* \"#utility.yul\":14485:14491   */\n      dup2\n        /* \"#utility.yul\":14482:14512   */\n      gt\n        /* \"#utility.yul\":14479:14535   */\n      iszero\n      tag_313\n      jumpi\n        /* \"#utility.yul\":14515:14533   */\n      tag_314\n      tag_83\n      jump\t// in\n    tag_314:\n        /* \"#utility.yul\":14479:14535   */\n    tag_313:\n        /* \"#utility.yul\":14559:14597   */\n      tag_315\n        /* \"#utility.yul\":14591:14595   */\n      dup3\n        /* \"#utility.yul\":14585:14596   */\n      sload\n        /* \"#utility.yul\":14559:14597   */\n      tag_28\n      jump\t// in\n    tag_315:\n        /* \"#utility.yul\":14644:14711   */\n      tag_316\n        /* \"#utility.yul\":14704:14710   */\n      dup3\n        /* \"#utility.yul\":14696:14702   */\n      dup3\n        /* \"#utility.yul\":14690:14694   */\n      dup6\n        /* \"#utility.yul\":14644:14711   */\n      tag_136\n      jump\t// in\n    tag_316:\n        /* \"#utility.yul\":14738:14739   */\n      0x00\n        /* \"#utility.yul\":14762:14766   */\n      0x20\n        /* \"#utility.yul\":14749:14766   */\n      swap1\n      pop\n        /* \"#utility.yul\":14794:14796   */\n      0x1f\n        /* \"#utility.yul\":14786:14792   */\n      dup4\n        /* \"#utility.yul\":14783:14797   */\n      gt\n        /* \"#utility.yul\":14811:14812   */\n      0x01\n        /* \"#utility.yul\":14806:15424   */\n      dup2\n      eq\n      tag_318\n      jumpi\n        /* \"#utility.yul\":15468:15469   */\n      0x00\n        /* \"#utility.yul\":15485:15491   */\n      dup5\n        /* \"#utility.yul\":15482:15559   */\n      iszero\n      tag_319\n      jumpi\n        /* \"#utility.yul\":15534:15543   */\n      dup3\n        /* \"#utility.yul\":15529:15532   */\n      dup8\n        /* \"#utility.yul\":15525:15544   */\n      add\n        /* \"#utility.yul\":15519:15545   */\n      mload\n        /* \"#utility.yul\":15510:15545   */\n      swap1\n      pop\n        /* \"#utility.yul\":15482:15559   */\n    tag_319:\n        /* \"#utility.yul\":15585:15652   */\n      tag_320\n        /* \"#utility.yul\":15645:15651   */\n      dup6\n        /* \"#utility.yul\":15638:15643   */\n      dup3\n        /* \"#utility.yul\":15585:15652   */\n      tag_139\n      jump\t// in\n    tag_320:\n        /* \"#utility.yul\":15579:15583   */\n      dup7\n        /* \"#utility.yul\":15572:15653   */\n      sstore\n        /* \"#utility.yul\":15441:15663   */\n      pop\n        /* \"#utility.yul\":14776:15663   */\n      jump(tag_317)\n        /* \"#utility.yul\":14806:15424   */\n    tag_318:\n        /* \"#utility.yul\":14858:14862   */\n      0x1f\n        /* \"#utility.yul\":14854:14863   */\n      not\n        /* \"#utility.yul\":14846:14852   */\n      dup5\n        /* \"#utility.yul\":14842:14864   */\n      and\n        /* \"#utility.yul\":14892:14929   */\n      tag_321\n        /* \"#utility.yul\":14924:14928   */\n      dup7\n        /* \"#utility.yul\":14892:14929   */\n      tag_125\n      jump\t// in\n    tag_321:\n        /* \"#utility.yul\":14951:14952   */\n      0x00\n        /* \"#utility.yul\":14965:15173   */\n    tag_322:\n        /* \"#utility.yul\":14979:14986   */\n      dup3\n        /* \"#utility.yul\":14976:14977   */\n      dup2\n        /* \"#utility.yul\":14973:14987   */\n      lt\n        /* \"#utility.yul\":14965:15173   */\n      iszero\n      tag_324\n      jumpi\n        /* \"#utility.yul\":15058:15067   */\n      dup5\n        /* \"#utility.yul\":15053:15056   */\n      dup10\n        /* \"#utility.yul\":15049:15068   */\n      add\n        /* \"#utility.yul\":15043:15069   */\n      mload\n        /* \"#utility.yul\":15035:15041   */\n      dup3\n        /* \"#utility.yul\":15028:15070   */\n      sstore\n        /* \"#utility.yul\":15109:15110   */\n      0x01\n        /* \"#utility.yul\":15101:15107   */\n      dup3\n        /* \"#utility.yul\":15097:15111   */\n      add\n        /* \"#utility.yul\":15087:15111   */\n      swap2\n      pop\n        /* \"#utility.yul\":15156:15158   */\n      0x20\n        /* \"#utility.yul\":15145:15154   */\n      dup6\n        /* \"#utility.yul\":15141:15159   */\n      add\n        /* \"#utility.yul\":15128:15159   */\n      swap5\n      pop\n        /* \"#utility.yul\":15002:15006   */\n      0x20\n        /* \"#utility.yul\":14999:15000   */\n      dup2\n        /* \"#utility.yul\":14995:15007   */\n      add\n        /* \"#utility.yul\":14990:15007   */\n      swap1\n      pop\n        /* \"#utility.yul\":14965:15173   */\n      jump(tag_322)\n    tag_324:\n        /* \"#utility.yul\":15201:15207   */\n      dup7\n        /* \"#utility.yul\":15192:15199   */\n      dup4\n        /* \"#utility.yul\":15189:15208   */\n      lt\n        /* \"#utility.yul\":15186:15365   */\n      iszero\n      tag_325\n      jumpi\n        /* \"#utility.yul\":15259:15268   */\n      dup5\n        /* \"#utility.yul\":15254:15257   */\n      dup10\n        /* \"#utility.yul\":15250:15269   */\n      add\n        /* \"#utility.yul\":15244:15270   */\n      mload\n        /* \"#utility.yul\":15302:15350   */\n      tag_326\n        /* \"#utility.yul\":15344:15348   */\n      0x1f\n        /* \"#utility.yul\":15336:15342   */\n      dup10\n        /* \"#utility.yul\":15332:15349   */\n      and\n        /* \"#utility.yul\":15321:15330   */\n      dup3\n        /* \"#utility.yul\":15302:15350   */\n      tag_138\n      jump\t// in\n    tag_326:\n        /* \"#utility.yul\":15294:15300   */\n      dup4\n        /* \"#utility.yul\":15287:15351   */\n      sstore\n        /* \"#utility.yul\":15209:15365   */\n      pop\n        /* \"#utility.yul\":15186:15365   */\n    tag_325:\n        /* \"#utility.yul\":15411:15412   */\n      0x01\n        /* \"#utility.yul\":15407:15408   */\n      0x02\n        /* \"#utility.yul\":15399:15405   */\n      dup9\n        /* \"#utility.yul\":15395:15409   */\n      mul\n        /* \"#utility.yul\":15391:15413   */\n      add\n        /* \"#utility.yul\":15385:15389   */\n      dup9\n        /* \"#utility.yul\":15378:15414   */\n      sstore\n        /* \"#utility.yul\":14813:15424   */\n      pop\n      pop\n      pop\n        /* \"#utility.yul\":14776:15663   */\n    tag_317:\n      pop\n        /* \"#utility.yul\":14366:15669   */\n      pop\n      pop\n      pop\n        /* \"#utility.yul\":14274:15669   */\n      pop\n      pop\n      jump\t// out\n        /* \"#utility.yul\":15675:15842   */\n    tag_79:\n        /* \"#utility.yul\":15712:15715   */\n      0x00\n        /* \"#utility.yul\":15735:15757   */\n      tag_328\n        /* \"#utility.yul\":15751:15756   */\n      dup3\n        /* \"#utility.yul\":15735:15757   */\n      tag_117\n      jump\t// in\n    tag_328:\n        /* \"#utility.yul\":15726:15757   */\n      swap2\n      pop\n        /* \"#utility.yul\":15779:15783   */\n      0xff\n        /* \"#utility.yul\":15772:15777   */\n      dup3\n        /* \"#utility.yul\":15769:15784   */\n      sub\n        /* \"#utility.yul\":15766:15807   */\n      tag_329\n      jumpi\n        /* \"#utility.yul\":15787:15805   */\n      tag_330\n      tag_115\n      jump\t// in\n    tag_330:\n        /* \"#utility.yul\":15766:15807   */\n    tag_329:\n        /* \"#utility.yul\":15834:15835   */\n      0x01\n        /* \"#utility.yul\":15827:15832   */\n      dup3\n        /* \"#utility.yul\":15823:15836   */\n      add\n        /* \"#utility.yul\":15816:15836   */\n      swap1\n      pop\n        /* \"#utility.yul\":15675:15842   */\n      swap2\n      swap1\n      pop\n      jump\t// out\n        /* \"#utility.yul\":15848:16036   */\n    tag_89:\n        /* \"#utility.yul\":15886:15889   */\n      0x00\n        /* \"#utility.yul\":15905:15923   */\n      tag_332\n        /* \"#utility.yul\":15921:15922   */\n      dup3\n        /* \"#utility.yul\":15905:15923   */\n      tag_117\n      jump\t// in\n    tag_332:\n        /* \"#utility.yul\":15900:15923   */\n      swap2\n      pop\n        /* \"#utility.yul\":15937:15955   */\n      tag_333\n        /* \"#utility.yul\":15953:15954   */\n      dup4\n        /* \"#utility.yul\":15937:15955   */\n      tag_117\n      jump\t// in\n    tag_333:\n        /* \"#utility.yul\":15932:15955   */\n      swap3\n      pop\n        /* \"#utility.yul\":15978:15979   */\n      dup3\n        /* \"#utility.yul\":15975:15976   */\n      dup3\n        /* \"#utility.yul\":15971:15980   */\n      add\n        /* \"#utility.yul\":15964:15980   */\n      swap1\n      pop\n        /* \"#utility.yul\":16001:16005   */\n      0xff\n        /* \"#utility.yul\":15996:15999   */\n      dup2\n        /* \"#utility.yul\":15993:16006   */\n      gt\n        /* \"#utility.yul\":15990:16029   */\n      iszero\n      tag_334\n      jumpi\n        /* \"#utility.yul\":16009:16027   */\n      tag_335\n      tag_115\n      jump\t// in\n    tag_335:\n        /* \"#utility.yul\":15990:16029   */\n    tag_334:\n        /* \"#utility.yul\":15848:16036   */\n      swap3\n      swap2\n      pop\n      pop\n      jump\t// out\n        /* \"#utility.yul\":16042:16209   */\n    tag_91:\n        /* \"#utility.yul\":16079:16082   */\n      0x00\n        /* \"#utility.yul\":16102:16124   */\n      tag_337\n        /* \"#utility.yul\":16118:16123   */\n      dup3\n        /* \"#utility.yul\":16102:16124   */\n      tag_117\n      jump\t// in\n    tag_337:\n        /* \"#utility.yul\":16093:16124   */\n      swap2\n      pop\n        /* \"#utility.yul\":16146:16150   */\n      0x00\n        /* \"#utility.yul\":16139:16144   */\n      dup3\n        /* \"#utility.yul\":16136:16151   */\n      sub\n        /* \"#utility.yul\":16133:16174   */\n      tag_338\n      jumpi\n        /* \"#utility.yul\":16154:16172   */\n      tag_339\n      tag_115\n      jump\t// in\n    tag_339:\n        /* \"#utility.yul\":16133:16174   */\n    tag_338:\n        /* \"#utility.yul\":16201:16202   */\n      0x01\n        /* \"#utility.yul\":16194:16199   */\n      dup3\n        /* \"#utility.yul\":16190:16203   */\n      sub\n        /* \"#utility.yul\":16183:16203   */\n      swap1\n      pop\n        /* \"#utility.yul\":16042:16209   */\n      swap2\n      swap1\n      pop\n      jump\t// out\n\n    auxdata: 0xa264697066735822122083d628a0c84e7f4c0057df2521718bec5bddffddafbb60e8742075e28a18e50a64736f6c63430008180033\n}\n",
				"bytecode": {
					"linkReferences": {},
					"object": "60806040526040518060400160405280600281526020017f35300000000000000000000000000000000000000000000000000000000000008152505f9081620000499190620002c1565b5034801562000056575f80fd5b50620003a5565b5f81519050919050565b7f4e487b71000000000000000000000000000000000000000000000000000000005f52604160045260245ffd5b7f4e487b71000000000000000000000000000000000000000000000000000000005f52602260045260245ffd5b5f6002820490506001821680620000d957607f821691505b602082108103620000ef57620000ee62000094565b5b50919050565b5f819050815f5260205f209050919050565b5f6020601f8301049050919050565b5f82821b905092915050565b5f60088302620001537fffffffffffffffffffffffffffffffffffffffffffffffffffffffffffffffff8262000116565b6200015f868362000116565b95508019841693508086168417925050509392505050565b5f819050919050565b5f819050919050565b5f620001a9620001a36200019d8462000177565b62000180565b62000177565b9050919050565b5f819050919050565b620001c48362000189565b620001dc620001d382620001b0565b84845462000122565b825550505050565b5f90565b620001f2620001e4565b620001ff818484620001b9565b505050565b5b8181101562000226576200021a5f82620001e8565b60018101905062000205565b5050565b601f82111562000275576200023f81620000f5565b6200024a8462000107565b810160208510156200025a578190505b62000272620002698562000107565b83018262000204565b50505b505050565b5f82821c905092915050565b5f620002975f19846008026200027a565b1980831691505092915050565b5f620002b1838362000286565b9150826002028217905092915050565b620002cc826200005d565b67ffffffffffffffff811115620002e857620002e762000067565b5b620002f48254620000c1565b620003018282856200022a565b5f60209050601f83116001811462000337575f841562000322578287015190505b6200032e8582620002a4565b8655506200039d565b601f1984166200034786620000f5565b5f5b82811015620003705784890151825560018201915060208501945060208101905062000349565b868310156200039057848901516200038c601f89168262000286565b8355505b6001600288020188555050505b505050505050565b610ee280620003b35f395ff3fe608060405234801561000f575f80fd5b506004361061004a575f3560e01c80634893889a1461004e5780634e70b1dc1461006c57806353d619c21461008a57806367e0badb146100ba575b5f80fd5b6100566100d8565b60405161006391906104f4565b60405180910390f35b6100746100eb565b6040516100819190610597565b60405180910390f35b6100a4600480360381019061009f91906106f4565b610176565b6040516100b19190610755565b60405180910390f35b6100c261025e565b6040516100cf9190610597565b60405180910390f35b5f60f0426100e6919061079b565b905090565b5f80546100f7906107fb565b80601f0160208091040260200160405190810160405280929190818152602001828054610123906107fb565b801561016e5780601f106101455761010080835404028352916020019161016e565b820191905f5260205f20905b81548152906001019060200180831161015157829003601f168201915b505050505081565b5f808290505f815190505f80600190505f600184610194919061082b565b90505b5f8110610251575f60308683815181106101b4576101b361085e565b5b602001015160f81c60f81b60f81c6101cc9190610897565b905060098160ff161115610215576040517f08c379a000000000000000000000000000000000000000000000000000000000815260040161020c90610915565b60405180910390fd5b82816102219190610933565b8461022c919061096f565b9350600a8361023b9190610933565b9250508080610249906109c7565b915050610197565b5081945050505050919050565b60605f6102f15f8054610270906107fb565b80601f016020809104026020016040519081016040528092919081815260200182805461029c906107fb565b80156102e75780601f106102be576101008083540402835291602001916102e7565b820191905f5260205f20905b8154815290600101906020018083116102ca57829003601f168201915b5050505050610176565b905060018161030091906109ee565b90505f600a826103109190610a73565b90505f600a836103209190610adb565b90505f61032c8361037a565b90505f6103388361037a565b90505f828260405160200161034e929190610b8f565b6040516020818303038152906040529050805f908161036d9190610d5a565b5080965050505050505090565b60605f825f0b036103c2576040518060400160405280600181526020017f300000000000000000000000000000000000000000000000000000000000000081525090506104d7565b5f8290505f5b5f825f0b146103f35780806103dc90610e29565b915050600a826103ec9190610a73565b91506103c8565b5f8160ff1667ffffffffffffffff811115610411576104106105d0565b5b6040519080825280601f01601f1916602001820160405280156104435781602001600182028036833780820191505090505b5090505b5f855f0b146104d057600a8561045d9190610adb565b60306104699190610e51565b60f81b818361047790610e85565b93508360ff168151811061048e5761048d61085e565b5b60200101907effffffffffffffffffffffffffffffffffffffffffffffffffffffffffffff191690815f1a905350600a856104c99190610a73565b9450610447565b8093505050505b919050565b5f819050919050565b6104ee816104dc565b82525050565b5f6020820190506105075f8301846104e5565b92915050565b5f81519050919050565b5f82825260208201905092915050565b5f5b83811015610544578082015181840152602081019050610529565b5f8484015250505050565b5f601f19601f8301169050919050565b5f6105698261050d565b6105738185610517565b9350610583818560208601610527565b61058c8161054f565b840191505092915050565b5f6020820190508181035f8301526105af818461055f565b905092915050565b5f604051905090565b5f80fd5b5f80fd5b5f80fd5b5f80fd5b7f4e487b71000000000000000000000000000000000000000000000000000000005f52604160045260245ffd5b6106068261054f565b810181811067ffffffffffffffff82111715610625576106246105d0565b5b80604052505050565b5f6106376105b7565b905061064382826105fd565b919050565b5f67ffffffffffffffff821115610662576106616105d0565b5b61066b8261054f565b9050602081019050919050565b828183375f83830152505050565b5f61069861069384610648565b61062e565b9050828152602081018484840111156106b4576106b36105cc565b5b6106bf848285610678565b509392505050565b5f82601f8301126106db576106da6105c8565b5b81356106eb848260208601610686565b91505092915050565b5f60208284031215610709576107086105c0565b5b5f82013567ffffffffffffffff811115610726576107256105c4565b5b610732848285016106c7565b91505092915050565b5f815f0b9050919050565b61074f8161073b565b82525050565b5f6020820190506107685f830184610746565b92915050565b7f4e487b71000000000000000000000000000000000000000000000000000000005f52601160045260245ffd5b5f6107a5826104dc565b91506107b0836104dc565b92508282019050808211156107c8576107c761076e565b5b92915050565b7f4e487b71000000000000000000000000000000000000000000000000000000005f52602260045260245ffd5b5f600282049050600182168061081257607f821691505b602082108103610825576108246107ce565b5b50919050565b5f610835826104dc565b9150610840836104dc565b92508282039050818111156108585761085761076e565b5b92915050565b7f4e487b71000000000000000000000000000000000000000000000000000000005f52603260045260245ffd5b5f60ff82169050919050565b5f6108a18261088b565b91506108ac8361088b565b9250828203905060ff8111156108c5576108c461076e565b5b92915050565b7f496e76616c6964206469676974000000000000000000000000000000000000005f82015250565b5f6108ff600d83610517565b915061090a826108cb565b602082019050919050565b5f6020820190508181035f83015261092c816108f3565b9050919050565b5f61093d8261073b565b91506109488361073b565b92508282026109568161073b565b91508082146109685761096761076e565b5b5092915050565b5f6109798261073b565b91506109848361073b565b925082820190507fffffffffffffffffffffffffffffffffffffffffffffffffffffffffffffff808112607f821317156109c1576109c061076e565b5b92915050565b5f6109d1826104dc565b91505f82036109e3576109e261076e565b5b600182039050919050565b5f6109f88261073b565b9150610a038361073b565b92508282039050607f81137fffffffffffffffffffffffffffffffffffffffffffffffffffffffffffffff8082121715610a4057610a3f61076e565b5b92915050565b7f4e487b71000000000000000000000000000000000000000000000000000000005f52601260045260245ffd5b5f610a7d8261073b565b9150610a888361073b565b925082610a9857610a97610a46565b5b60015f0383147fffffffffffffffffffffffffffffffffffffffffffffffffffffffffffffff8083141615610ad057610acf61076e565b5b828205905092915050565b5f610ae58261073b565b9150610af08361073b565b925082610b0057610aff610a46565b5b828207905092915050565b5f81905092915050565b5f610b1f8261050d565b610b298185610b0b565b9350610b39818560208601610527565b80840191505092915050565b7f2e000000000000000000000000000000000000000000000000000000000000005f82015250565b5f610b79600183610b0b565b9150610b8482610b45565b600182019050919050565b5f610b9a8285610b15565b9150610ba582610b6d565b9150610bb18284610b15565b91508190509392505050565b5f819050815f5260205f209050919050565b5f6020601f8301049050919050565b5f82821b905092915050565b5f60088302610c197fffffffffffffffffffffffffffffffffffffffffffffffffffffffffffffffff82610bde565b610c238683610bde565b95508019841693508086168417925050509392505050565b5f819050919050565b5f610c5e610c59610c54846104dc565b610c3b565b6104dc565b9050919050565b5f819050919050565b610c7783610c44565b610c8b610c8382610c65565b848454610bea565b825550505050565b5f90565b610c9f610c93565b610caa818484610c6e565b505050565b5b81811015610ccd57610cc25f82610c97565b600181019050610cb0565b5050565b601f821115610d1257610ce381610bbd565b610cec84610bcf565b81016020851015610cfb578190505b610d0f610d0785610bcf565b830182610caf565b50505b505050565b5f82821c905092915050565b5f610d325f1984600802610d17565b1980831691505092915050565b5f610d4a8383610d23565b9150826002028217905092915050565b610d638261050d565b67ffffffffffffffff811115610d7c57610d7b6105d0565b5b610d8682546107fb565b610d91828285610cd1565b5f60209050601f831160018114610dc2575f8415610db0578287015190505b610dba8582610d3f565b865550610e21565b601f198416610dd086610bbd565b5f5b82811015610df757848901518255600182019150602085019450602081019050610dd2565b86831015610e145784890151610e10601f891682610d23565b8355505b6001600288020188555050505b505050505050565b5f610e338261088b565b915060ff8203610e4657610e4561076e565b5b600182019050919050565b5f610e5b8261088b565b9150610e668361088b565b9250828201905060ff811115610e7f57610e7e61076e565b5b92915050565b5f610e8f8261088b565b91505f8203610ea157610ea061076e565b5b60018203905091905056fea264697066735822122083d628a0c84e7f4c0057df2521718bec5bddffddafbb60e8742075e28a18e50a64736f6c63430008180033",
					"opcodes": "PUSH1 0x80 PUSH1 0x40 MSTORE PUSH1 0x40 MLOAD DUP1 PUSH1 0x40 ADD PUSH1 0x40 MSTORE DUP1 PUSH1 0x2 DUP2 MSTORE PUSH1 0x20 ADD PUSH32 0x3530000000000000000000000000000000000000000000000000000000000000 DUP2 MSTORE POP PUSH0 SWAP1 DUP2 PUSH3 0x49 SWAP2 SWAP1 PUSH3 0x2C1 JUMP JUMPDEST POP CALLVALUE DUP1 ISZERO PUSH3 0x56 JUMPI PUSH0 DUP1 REVERT JUMPDEST POP PUSH3 0x3A5 JUMP JUMPDEST PUSH0 DUP2 MLOAD SWAP1 POP SWAP2 SWAP1 POP JUMP JUMPDEST PUSH32 0x4E487B7100000000000000000000000000000000000000000000000000000000 PUSH0 MSTORE PUSH1 0x41 PUSH1 0x4 MSTORE PUSH1 0x24 PUSH0 REVERT JUMPDEST PUSH32 0x4E487B7100000000000000000000000000000000000000000000000000000000 PUSH0 MSTORE PUSH1 0x22 PUSH1 0x4 MSTORE PUSH1 0x24 PUSH0 REVERT JUMPDEST PUSH0 PUSH1 0x2 DUP3 DIV SWAP1 POP PUSH1 0x1 DUP3 AND DUP1 PUSH3 0xD9 JUMPI PUSH1 0x7F DUP3 AND SWAP2 POP JUMPDEST PUSH1 0x20 DUP3 LT DUP2 SUB PUSH3 0xEF JUMPI PUSH3 0xEE PUSH3 0x94 JUMP JUMPDEST JUMPDEST POP SWAP2 SWAP1 POP JUMP JUMPDEST PUSH0 DUP2 SWAP1 POP DUP2 PUSH0 MSTORE PUSH1 0x20 PUSH0 KECCAK256 SWAP1 POP SWAP2 SWAP1 POP JUMP JUMPDEST PUSH0 PUSH1 0x20 PUSH1 0x1F DUP4 ADD DIV SWAP1 POP SWAP2 SWAP1 POP JUMP JUMPDEST PUSH0 DUP3 DUP3 SHL SWAP1 POP SWAP3 SWAP2 POP POP JUMP JUMPDEST PUSH0 PUSH1 0x8 DUP4 MUL PUSH3 0x153 PUSH32 0xFFFFFFFFFFFFFFFFFFFFFFFFFFFFFFFFFFFFFFFFFFFFFFFFFFFFFFFFFFFFFFFF DUP3 PUSH3 0x116 JUMP JUMPDEST PUSH3 0x15F DUP7 DUP4 PUSH3 0x116 JUMP JUMPDEST SWAP6 POP DUP1 NOT DUP5 AND SWAP4 POP DUP1 DUP7 AND DUP5 OR SWAP3 POP POP POP SWAP4 SWAP3 POP POP POP JUMP JUMPDEST PUSH0 DUP2 SWAP1 POP SWAP2 SWAP1 POP JUMP JUMPDEST PUSH0 DUP2 SWAP1 POP SWAP2 SWAP1 POP JUMP JUMPDEST PUSH0 PUSH3 0x1A9 PUSH3 0x1A3 PUSH3 0x19D DUP5 PUSH3 0x177 JUMP JUMPDEST PUSH3 0x180 JUMP JUMPDEST PUSH3 0x177 JUMP JUMPDEST SWAP1 POP SWAP2 SWAP1 POP JUMP JUMPDEST PUSH0 DUP2 SWAP1 POP SWAP2 SWAP1 POP JUMP JUMPDEST PUSH3 0x1C4 DUP4 PUSH3 0x189 JUMP JUMPDEST PUSH3 0x1DC PUSH3 0x1D3 DUP3 PUSH3 0x1B0 JUMP JUMPDEST DUP5 DUP5 SLOAD PUSH3 0x122 JUMP JUMPDEST DUP3 SSTORE POP POP POP POP JUMP JUMPDEST PUSH0 SWAP1 JUMP JUMPDEST PUSH3 0x1F2 PUSH3 0x1E4 JUMP JUMPDEST PUSH3 0x1FF DUP2 DUP5 DUP5 PUSH3 0x1B9 JUMP JUMPDEST POP POP POP JUMP JUMPDEST JUMPDEST DUP2 DUP2 LT ISZERO PUSH3 0x226 JUMPI PUSH3 0x21A PUSH0 DUP3 PUSH3 0x1E8 JUMP JUMPDEST PUSH1 0x1 DUP2 ADD SWAP1 POP PUSH3 0x205 JUMP JUMPDEST POP POP JUMP JUMPDEST PUSH1 0x1F DUP3 GT ISZERO PUSH3 0x275 JUMPI PUSH3 0x23F DUP2 PUSH3 0xF5 JUMP JUMPDEST PUSH3 0x24A DUP5 PUSH3 0x107 JUMP JUMPDEST DUP2 ADD PUSH1 0x20 DUP6 LT ISZERO PUSH3 0x25A JUMPI DUP2 SWAP1 POP JUMPDEST PUSH3 0x272 PUSH3 0x269 DUP6 PUSH3 0x107 JUMP JUMPDEST DUP4 ADD DUP3 PUSH3 0x204 JUMP JUMPDEST POP POP JUMPDEST POP POP POP JUMP JUMPDEST PUSH0 DUP3 DUP3 SHR SWAP1 POP SWAP3 SWAP2 POP POP JUMP JUMPDEST PUSH0 PUSH3 0x297 PUSH0 NOT DUP5 PUSH1 0x8 MUL PUSH3 0x27A JUMP JUMPDEST NOT DUP1 DUP4 AND SWAP2 POP POP SWAP3 SWAP2 POP POP JUMP JUMPDEST PUSH0 PUSH3 0x2B1 DUP4 DUP4 PUSH3 0x286 JUMP JUMPDEST SWAP2 POP DUP3 PUSH1 0x2 MUL DUP3 OR SWAP1 POP SWAP3 SWAP2 POP POP JUMP JUMPDEST PUSH3 0x2CC DUP3 PUSH3 0x5D JUMP JUMPDEST PUSH8 0xFFFFFFFFFFFFFFFF DUP2 GT ISZERO PUSH3 0x2E8 JUMPI PUSH3 0x2E7 PUSH3 0x67 JUMP JUMPDEST JUMPDEST PUSH3 0x2F4 DUP3 SLOAD PUSH3 0xC1 JUMP JUMPDEST PUSH3 0x301 DUP3 DUP3 DUP6 PUSH3 0x22A JUMP JUMPDEST PUSH0 PUSH1 0x20 SWAP1 POP PUSH1 0x1F DUP4 GT PUSH1 0x1 DUP2 EQ PUSH3 0x337 JUMPI PUSH0 DUP5 ISZERO PUSH3 0x322 JUMPI DUP3 DUP8 ADD MLOAD SWAP1 POP JUMPDEST PUSH3 0x32E DUP6 DUP3 PUSH3 0x2A4 JUMP JUMPDEST DUP7 SSTORE POP PUSH3 0x39D JUMP JUMPDEST PUSH1 0x1F NOT DUP5 AND PUSH3 0x347 DUP7 PUSH3 0xF5 JUMP JUMPDEST PUSH0 JUMPDEST DUP3 DUP2 LT ISZERO PUSH3 0x370 JUMPI DUP5 DUP10 ADD MLOAD DUP3 SSTORE PUSH1 0x1 DUP3 ADD SWAP2 POP PUSH1 0x20 DUP6 ADD SWAP5 POP PUSH1 0x20 DUP2 ADD SWAP1 POP PUSH3 0x349 JUMP JUMPDEST DUP7 DUP4 LT ISZERO PUSH3 0x390 JUMPI DUP5 DUP10 ADD MLOAD PUSH3 0x38C PUSH1 0x1F DUP10 AND DUP3 PUSH3 0x286 JUMP JUMPDEST DUP4 SSTORE POP JUMPDEST PUSH1 0x1 PUSH1 0x2 DUP9 MUL ADD DUP9 SSTORE POP POP POP JUMPDEST POP POP POP POP POP POP JUMP JUMPDEST PUSH2 0xEE2 DUP1 PUSH3 0x3B3 PUSH0 CODECOPY PUSH0 RETURN INVALID PUSH1 0x80 PUSH1 0x40 MSTORE CALLVALUE DUP1 ISZERO PUSH2 0xF JUMPI PUSH0 DUP1 REVERT JUMPDEST POP PUSH1 0x4 CALLDATASIZE LT PUSH2 0x4A JUMPI PUSH0 CALLDATALOAD PUSH1 0xE0 SHR DUP1 PUSH4 0x4893889A EQ PUSH2 0x4E JUMPI DUP1 PUSH4 0x4E70B1DC EQ PUSH2 0x6C JUMPI DUP1 PUSH4 0x53D619C2 EQ PUSH2 0x8A JUMPI DUP1 PUSH4 0x67E0BADB EQ PUSH2 0xBA JUMPI JUMPDEST PUSH0 DUP1 REVERT JUMPDEST PUSH2 0x56 PUSH2 0xD8 JUMP JUMPDEST PUSH1 0x40 MLOAD PUSH2 0x63 SWAP2 SWAP1 PUSH2 0x4F4 JUMP JUMPDEST PUSH1 0x40 MLOAD DUP1 SWAP2 SUB SWAP1 RETURN JUMPDEST PUSH2 0x74 PUSH2 0xEB JUMP JUMPDEST PUSH1 0x40 MLOAD PUSH2 0x81 SWAP2 SWAP1 PUSH2 0x597 JUMP JUMPDEST PUSH1 0x40 MLOAD DUP1 SWAP2 SUB SWAP1 RETURN JUMPDEST PUSH2 0xA4 PUSH1 0x4 DUP1 CALLDATASIZE SUB DUP2 ADD SWAP1 PUSH2 0x9F SWAP2 SWAP1 PUSH2 0x6F4 JUMP JUMPDEST PUSH2 0x176 JUMP JUMPDEST PUSH1 0x40 MLOAD PUSH2 0xB1 SWAP2 SWAP1 PUSH2 0x755 JUMP JUMPDEST PUSH1 0x40 MLOAD DUP1 SWAP2 SUB SWAP1 RETURN JUMPDEST PUSH2 0xC2 PUSH2 0x25E JUMP JUMPDEST PUSH1 0x40 MLOAD PUSH2 0xCF SWAP2 SWAP1 PUSH2 0x597 JUMP JUMPDEST PUSH1 0x40 MLOAD DUP1 SWAP2 SUB SWAP1 RETURN JUMPDEST PUSH0 PUSH1 0xF0 TIMESTAMP PUSH2 0xE6 SWAP2 SWAP1 PUSH2 0x79B JUMP JUMPDEST SWAP1 POP SWAP1 JUMP JUMPDEST PUSH0 DUP1 SLOAD PUSH2 0xF7 SWAP1 PUSH2 0x7FB JUMP JUMPDEST DUP1 PUSH1 0x1F ADD PUSH1 0x20 DUP1 SWAP2 DIV MUL PUSH1 0x20 ADD PUSH1 0x40 MLOAD SWAP1 DUP2 ADD PUSH1 0x40 MSTORE DUP1 SWAP3 SWAP2 SWAP1 DUP2 DUP2 MSTORE PUSH1 0x20 ADD DUP3 DUP1 SLOAD PUSH2 0x123 SWAP1 PUSH2 0x7FB JUMP JUMPDEST DUP1 ISZERO PUSH2 0x16E JUMPI DUP1 PUSH1 0x1F LT PUSH2 0x145 JUMPI PUSH2 0x100 DUP1 DUP4 SLOAD DIV MUL DUP4 MSTORE SWAP2 PUSH1 0x20 ADD SWAP2 PUSH2 0x16E JUMP JUMPDEST DUP3 ADD SWAP2 SWAP1 PUSH0 MSTORE PUSH1 0x20 PUSH0 KECCAK256 SWAP1 JUMPDEST DUP2 SLOAD DUP2 MSTORE SWAP1 PUSH1 0x1 ADD SWAP1 PUSH1 0x20 ADD DUP1 DUP4 GT PUSH2 0x151 JUMPI DUP3 SWAP1 SUB PUSH1 0x1F AND DUP3 ADD SWAP2 JUMPDEST POP POP POP POP POP DUP2 JUMP JUMPDEST PUSH0 DUP1 DUP3 SWAP1 POP PUSH0 DUP2 MLOAD SWAP1 POP PUSH0 DUP1 PUSH1 0x1 SWAP1 POP PUSH0 PUSH1 0x1 DUP5 PUSH2 0x194 SWAP2 SWAP1 PUSH2 0x82B JUMP JUMPDEST SWAP1 POP JUMPDEST PUSH0 DUP2 LT PUSH2 0x251 JUMPI PUSH0 PUSH1 0x30 DUP7 DUP4 DUP2 MLOAD DUP2 LT PUSH2 0x1B4 JUMPI PUSH2 0x1B3 PUSH2 0x85E JUMP JUMPDEST JUMPDEST PUSH1 0x20 ADD ADD MLOAD PUSH1 0xF8 SHR PUSH1 0xF8 SHL PUSH1 0xF8 SHR PUSH2 0x1CC SWAP2 SWAP1 PUSH2 0x897 JUMP JUMPDEST SWAP1 POP PUSH1 0x9 DUP2 PUSH1 0xFF AND GT ISZERO PUSH2 0x215 JUMPI PUSH1 0x40 MLOAD PUSH32 0x8C379A000000000000000000000000000000000000000000000000000000000 DUP2 MSTORE PUSH1 0x4 ADD PUSH2 0x20C SWAP1 PUSH2 0x915 JUMP JUMPDEST PUSH1 0x40 MLOAD DUP1 SWAP2 SUB SWAP1 REVERT JUMPDEST DUP3 DUP2 PUSH2 0x221 SWAP2 SWAP1 PUSH2 0x933 JUMP JUMPDEST DUP5 PUSH2 0x22C SWAP2 SWAP1 PUSH2 0x96F JUMP JUMPDEST SWAP4 POP PUSH1 0xA DUP4 PUSH2 0x23B SWAP2 SWAP1 PUSH2 0x933 JUMP JUMPDEST SWAP3 POP POP DUP1 DUP1 PUSH2 0x249 SWAP1 PUSH2 0x9C7 JUMP JUMPDEST SWAP2 POP POP PUSH2 0x197 JUMP JUMPDEST POP DUP2 SWAP5 POP POP POP POP POP SWAP2 SWAP1 POP JUMP JUMPDEST PUSH1 0x60 PUSH0 PUSH2 0x2F1 PUSH0 DUP1 SLOAD PUSH2 0x270 SWAP1 PUSH2 0x7FB JUMP JUMPDEST DUP1 PUSH1 0x1F ADD PUSH1 0x20 DUP1 SWAP2 DIV MUL PUSH1 0x20 ADD PUSH1 0x40 MLOAD SWAP1 DUP2 ADD PUSH1 0x40 MSTORE DUP1 SWAP3 SWAP2 SWAP1 DUP2 DUP2 MSTORE PUSH1 0x20 ADD DUP3 DUP1 SLOAD PUSH2 0x29C SWAP1 PUSH2 0x7FB JUMP JUMPDEST DUP1 ISZERO PUSH2 0x2E7 JUMPI DUP1 PUSH1 0x1F LT PUSH2 0x2BE JUMPI PUSH2 0x100 DUP1 DUP4 SLOAD DIV MUL DUP4 MSTORE SWAP2 PUSH1 0x20 ADD SWAP2 PUSH2 0x2E7 JUMP JUMPDEST DUP3 ADD SWAP2 SWAP1 PUSH0 MSTORE PUSH1 0x20 PUSH0 KECCAK256 SWAP1 JUMPDEST DUP2 SLOAD DUP2 MSTORE SWAP1 PUSH1 0x1 ADD SWAP1 PUSH1 0x20 ADD DUP1 DUP4 GT PUSH2 0x2CA JUMPI DUP3 SWAP1 SUB PUSH1 0x1F AND DUP3 ADD SWAP2 JUMPDEST POP POP POP POP POP PUSH2 0x176 JUMP JUMPDEST SWAP1 POP PUSH1 0x1 DUP2 PUSH2 0x300 SWAP2 SWAP1 PUSH2 0x9EE JUMP JUMPDEST SWAP1 POP PUSH0 PUSH1 0xA DUP3 PUSH2 0x310 SWAP2 SWAP1 PUSH2 0xA73 JUMP JUMPDEST SWAP1 POP PUSH0 PUSH1 0xA DUP4 PUSH2 0x320 SWAP2 SWAP1 PUSH2 0xADB JUMP JUMPDEST SWAP1 POP PUSH0 PUSH2 0x32C DUP4 PUSH2 0x37A JUMP JUMPDEST SWAP1 POP PUSH0 PUSH2 0x338 DUP4 PUSH2 0x37A JUMP JUMPDEST SWAP1 POP PUSH0 DUP3 DUP3 PUSH1 0x40 MLOAD PUSH1 0x20 ADD PUSH2 0x34E SWAP3 SWAP2 SWAP1 PUSH2 0xB8F JUMP JUMPDEST PUSH1 0x40 MLOAD PUSH1 0x20 DUP2 DUP4 SUB SUB DUP2 MSTORE SWAP1 PUSH1 0x40 MSTORE SWAP1 POP DUP1 PUSH0 SWAP1 DUP2 PUSH2 0x36D SWAP2 SWAP1 PUSH2 0xD5A JUMP JUMPDEST POP DUP1 SWAP7 POP POP POP POP POP POP POP SWAP1 JUMP JUMPDEST PUSH1 0x60 PUSH0 DUP3 PUSH0 SIGNEXTEND SUB PUSH2 0x3C2 JUMPI PUSH1 0x40 MLOAD DUP1 PUSH1 0x40 ADD PUSH1 0x40 MSTORE DUP1 PUSH1 0x1 DUP2 MSTORE PUSH1 0x20 ADD PUSH32 0x3000000000000000000000000000000000000000000000000000000000000000 DUP2 MSTORE POP SWAP1 POP PUSH2 0x4D7 JUMP JUMPDEST PUSH0 DUP3 SWAP1 POP PUSH0 JUMPDEST PUSH0 DUP3 PUSH0 SIGNEXTEND EQ PUSH2 0x3F3 JUMPI DUP1 DUP1 PUSH2 0x3DC SWAP1 PUSH2 0xE29 JUMP JUMPDEST SWAP2 POP POP PUSH1 0xA DUP3 PUSH2 0x3EC SWAP2 SWAP1 PUSH2 0xA73 JUMP JUMPDEST SWAP2 POP PUSH2 0x3C8 JUMP JUMPDEST PUSH0 DUP2 PUSH1 0xFF AND PUSH8 0xFFFFFFFFFFFFFFFF DUP2 GT ISZERO PUSH2 0x411 JUMPI PUSH2 0x410 PUSH2 0x5D0 JUMP JUMPDEST JUMPDEST PUSH1 0x40 MLOAD SWAP1 DUP1 DUP3 MSTORE DUP1 PUSH1 0x1F ADD PUSH1 0x1F NOT AND PUSH1 0x20 ADD DUP3 ADD PUSH1 0x40 MSTORE DUP1 ISZERO PUSH2 0x443 JUMPI DUP2 PUSH1 0x20 ADD PUSH1 0x1 DUP3 MUL DUP1 CALLDATASIZE DUP4 CALLDATACOPY DUP1 DUP3 ADD SWAP2 POP POP SWAP1 POP JUMPDEST POP SWAP1 POP JUMPDEST PUSH0 DUP6 PUSH0 SIGNEXTEND EQ PUSH2 0x4D0 JUMPI PUSH1 0xA DUP6 PUSH2 0x45D SWAP2 SWAP1 PUSH2 0xADB JUMP JUMPDEST PUSH1 0x30 PUSH2 0x469 SWAP2 SWAP1 PUSH2 0xE51 JUMP JUMPDEST PUSH1 0xF8 SHL DUP2 DUP4 PUSH2 0x477 SWAP1 PUSH2 0xE85 JUMP JUMPDEST SWAP4 POP DUP4 PUSH1 0xFF AND DUP2 MLOAD DUP2 LT PUSH2 0x48E JUMPI PUSH2 0x48D PUSH2 0x85E JUMP JUMPDEST JUMPDEST PUSH1 0x20 ADD ADD SWAP1 PUSH31 0xFFFFFFFFFFFFFFFFFFFFFFFFFFFFFFFFFFFFFFFFFFFFFFFFFFFFFFFFFFFFFF NOT AND SWAP1 DUP2 PUSH0 BYTE SWAP1 MSTORE8 POP PUSH1 0xA DUP6 PUSH2 0x4C9 SWAP2 SWAP1 PUSH2 0xA73 JUMP JUMPDEST SWAP5 POP PUSH2 0x447 JUMP JUMPDEST DUP1 SWAP4 POP POP POP POP JUMPDEST SWAP2 SWAP1 POP JUMP JUMPDEST PUSH0 DUP2 SWAP1 POP SWAP2 SWAP1 POP JUMP JUMPDEST PUSH2 0x4EE DUP2 PUSH2 0x4DC JUMP JUMPDEST DUP3 MSTORE POP POP JUMP JUMPDEST PUSH0 PUSH1 0x20 DUP3 ADD SWAP1 POP PUSH2 0x507 PUSH0 DUP4 ADD DUP5 PUSH2 0x4E5 JUMP JUMPDEST SWAP3 SWAP2 POP POP JUMP JUMPDEST PUSH0 DUP2 MLOAD SWAP1 POP SWAP2 SWAP1 POP JUMP JUMPDEST PUSH0 DUP3 DUP3 MSTORE PUSH1 0x20 DUP3 ADD SWAP1 POP SWAP3 SWAP2 POP POP JUMP JUMPDEST PUSH0 JUMPDEST DUP4 DUP2 LT ISZERO PUSH2 0x544 JUMPI DUP1 DUP3 ADD MLOAD DUP2 DUP5 ADD MSTORE PUSH1 0x20 DUP2 ADD SWAP1 POP PUSH2 0x529 JUMP JUMPDEST PUSH0 DUP5 DUP5 ADD MSTORE POP POP POP POP JUMP JUMPDEST PUSH0 PUSH1 0x1F NOT PUSH1 0x1F DUP4 ADD AND SWAP1 POP SWAP2 SWAP1 POP JUMP JUMPDEST PUSH0 PUSH2 0x569 DUP3 PUSH2 0x50D JUMP JUMPDEST PUSH2 0x573 DUP2 DUP6 PUSH2 0x517 JUMP JUMPDEST SWAP4 POP PUSH2 0x583 DUP2 DUP6 PUSH1 0x20 DUP7 ADD PUSH2 0x527 JUMP JUMPDEST PUSH2 0x58C DUP2 PUSH2 0x54F JUMP JUMPDEST DUP5 ADD SWAP2 POP POP SWAP3 SWAP2 POP POP JUMP JUMPDEST PUSH0 PUSH1 0x20 DUP3 ADD SWAP1 POP DUP2 DUP2 SUB PUSH0 DUP4 ADD MSTORE PUSH2 0x5AF DUP2 DUP5 PUSH2 0x55F JUMP JUMPDEST SWAP1 POP SWAP3 SWAP2 POP POP JUMP JUMPDEST PUSH0 PUSH1 0x40 MLOAD SWAP1 POP SWAP1 JUMP JUMPDEST PUSH0 DUP1 REVERT JUMPDEST PUSH0 DUP1 REVERT JUMPDEST PUSH0 DUP1 REVERT JUMPDEST PUSH0 DUP1 REVERT JUMPDEST PUSH32 0x4E487B7100000000000000000000000000000000000000000000000000000000 PUSH0 MSTORE PUSH1 0x41 PUSH1 0x4 MSTORE PUSH1 0x24 PUSH0 REVERT JUMPDEST PUSH2 0x606 DUP3 PUSH2 0x54F JUMP JUMPDEST DUP2 ADD DUP2 DUP2 LT PUSH8 0xFFFFFFFFFFFFFFFF DUP3 GT OR ISZERO PUSH2 0x625 JUMPI PUSH2 0x624 PUSH2 0x5D0 JUMP JUMPDEST JUMPDEST DUP1 PUSH1 0x40 MSTORE POP POP POP JUMP JUMPDEST PUSH0 PUSH2 0x637 PUSH2 0x5B7 JUMP JUMPDEST SWAP1 POP PUSH2 0x643 DUP3 DUP3 PUSH2 0x5FD JUMP JUMPDEST SWAP2 SWAP1 POP JUMP JUMPDEST PUSH0 PUSH8 0xFFFFFFFFFFFFFFFF DUP3 GT ISZERO PUSH2 0x662 JUMPI PUSH2 0x661 PUSH2 0x5D0 JUMP JUMPDEST JUMPDEST PUSH2 0x66B DUP3 PUSH2 0x54F JUMP JUMPDEST SWAP1 POP PUSH1 0x20 DUP2 ADD SWAP1 POP SWAP2 SWAP1 POP JUMP JUMPDEST DUP3 DUP2 DUP4 CALLDATACOPY PUSH0 DUP4 DUP4 ADD MSTORE POP POP POP JUMP JUMPDEST PUSH0 PUSH2 0x698 PUSH2 0x693 DUP5 PUSH2 0x648 JUMP JUMPDEST PUSH2 0x62E JUMP JUMPDEST SWAP1 POP DUP3 DUP2 MSTORE PUSH1 0x20 DUP2 ADD DUP5 DUP5 DUP5 ADD GT ISZERO PUSH2 0x6B4 JUMPI PUSH2 0x6B3 PUSH2 0x5CC JUMP JUMPDEST JUMPDEST PUSH2 0x6BF DUP5 DUP3 DUP6 PUSH2 0x678 JUMP JUMPDEST POP SWAP4 SWAP3 POP POP POP JUMP JUMPDEST PUSH0 DUP3 PUSH1 0x1F DUP4 ADD SLT PUSH2 0x6DB JUMPI PUSH2 0x6DA PUSH2 0x5C8 JUMP JUMPDEST JUMPDEST DUP2 CALLDATALOAD PUSH2 0x6EB DUP5 DUP3 PUSH1 0x20 DUP7 ADD PUSH2 0x686 JUMP JUMPDEST SWAP2 POP POP SWAP3 SWAP2 POP POP JUMP JUMPDEST PUSH0 PUSH1 0x20 DUP3 DUP5 SUB SLT ISZERO PUSH2 0x709 JUMPI PUSH2 0x708 PUSH2 0x5C0 JUMP JUMPDEST JUMPDEST PUSH0 DUP3 ADD CALLDATALOAD PUSH8 0xFFFFFFFFFFFFFFFF DUP2 GT ISZERO PUSH2 0x726 JUMPI PUSH2 0x725 PUSH2 0x5C4 JUMP JUMPDEST JUMPDEST PUSH2 0x732 DUP5 DUP3 DUP6 ADD PUSH2 0x6C7 JUMP JUMPDEST SWAP2 POP POP SWAP3 SWAP2 POP POP JUMP JUMPDEST PUSH0 DUP2 PUSH0 SIGNEXTEND SWAP1 POP SWAP2 SWAP1 POP JUMP JUMPDEST PUSH2 0x74F DUP2 PUSH2 0x73B JUMP JUMPDEST DUP3 MSTORE POP POP JUMP JUMPDEST PUSH0 PUSH1 0x20 DUP3 ADD SWAP1 POP PUSH2 0x768 PUSH0 DUP4 ADD DUP5 PUSH2 0x746 JUMP JUMPDEST SWAP3 SWAP2 POP POP JUMP JUMPDEST PUSH32 0x4E487B7100000000000000000000000000000000000000000000000000000000 PUSH0 MSTORE PUSH1 0x11 PUSH1 0x4 MSTORE PUSH1 0x24 PUSH0 REVERT JUMPDEST PUSH0 PUSH2 0x7A5 DUP3 PUSH2 0x4DC JUMP JUMPDEST SWAP2 POP PUSH2 0x7B0 DUP4 PUSH2 0x4DC JUMP JUMPDEST SWAP3 POP DUP3 DUP3 ADD SWAP1 POP DUP1 DUP3 GT ISZERO PUSH2 0x7C8 JUMPI PUSH2 0x7C7 PUSH2 0x76E JUMP JUMPDEST JUMPDEST SWAP3 SWAP2 POP POP JUMP JUMPDEST PUSH32 0x4E487B7100000000000000000000000000000000000000000000000000000000 PUSH0 MSTORE PUSH1 0x22 PUSH1 0x4 MSTORE PUSH1 0x24 PUSH0 REVERT JUMPDEST PUSH0 PUSH1 0x2 DUP3 DIV SWAP1 POP PUSH1 0x1 DUP3 AND DUP1 PUSH2 0x812 JUMPI PUSH1 0x7F DUP3 AND SWAP2 POP JUMPDEST PUSH1 0x20 DUP3 LT DUP2 SUB PUSH2 0x825 JUMPI PUSH2 0x824 PUSH2 0x7CE JUMP JUMPDEST JUMPDEST POP SWAP2 SWAP1 POP JUMP JUMPDEST PUSH0 PUSH2 0x835 DUP3 PUSH2 0x4DC JUMP JUMPDEST SWAP2 POP PUSH2 0x840 DUP4 PUSH2 0x4DC JUMP JUMPDEST SWAP3 POP DUP3 DUP3 SUB SWAP1 POP DUP2 DUP2 GT ISZERO PUSH2 0x858 JUMPI PUSH2 0x857 PUSH2 0x76E JUMP JUMPDEST JUMPDEST SWAP3 SWAP2 POP POP JUMP JUMPDEST PUSH32 0x4E487B7100000000000000000000000000000000000000000000000000000000 PUSH0 MSTORE PUSH1 0x32 PUSH1 0x4 MSTORE PUSH1 0x24 PUSH0 REVERT JUMPDEST PUSH0 PUSH1 0xFF DUP3 AND SWAP1 POP SWAP2 SWAP1 POP JUMP JUMPDEST PUSH0 PUSH2 0x8A1 DUP3 PUSH2 0x88B JUMP JUMPDEST SWAP2 POP PUSH2 0x8AC DUP4 PUSH2 0x88B JUMP JUMPDEST SWAP3 POP DUP3 DUP3 SUB SWAP1 POP PUSH1 0xFF DUP2 GT ISZERO PUSH2 0x8C5 JUMPI PUSH2 0x8C4 PUSH2 0x76E JUMP JUMPDEST JUMPDEST SWAP3 SWAP2 POP POP JUMP JUMPDEST PUSH32 0x496E76616C696420646967697400000000000000000000000000000000000000 PUSH0 DUP3 ADD MSTORE POP JUMP JUMPDEST PUSH0 PUSH2 0x8FF PUSH1 0xD DUP4 PUSH2 0x517 JUMP JUMPDEST SWAP2 POP PUSH2 0x90A DUP3 PUSH2 0x8CB JUMP JUMPDEST PUSH1 0x20 DUP3 ADD SWAP1 POP SWAP2 SWAP1 POP JUMP JUMPDEST PUSH0 PUSH1 0x20 DUP3 ADD SWAP1 POP DUP2 DUP2 SUB PUSH0 DUP4 ADD MSTORE PUSH2 0x92C DUP2 PUSH2 0x8F3 JUMP JUMPDEST SWAP1 POP SWAP2 SWAP1 POP JUMP JUMPDEST PUSH0 PUSH2 0x93D DUP3 PUSH2 0x73B JUMP JUMPDEST SWAP2 POP PUSH2 0x948 DUP4 PUSH2 0x73B JUMP JUMPDEST SWAP3 POP DUP3 DUP3 MUL PUSH2 0x956 DUP2 PUSH2 0x73B JUMP JUMPDEST SWAP2 POP DUP1 DUP3 EQ PUSH2 0x968 JUMPI PUSH2 0x967 PUSH2 0x76E JUMP JUMPDEST JUMPDEST POP SWAP3 SWAP2 POP POP JUMP JUMPDEST PUSH0 PUSH2 0x979 DUP3 PUSH2 0x73B JUMP JUMPDEST SWAP2 POP PUSH2 0x984 DUP4 PUSH2 0x73B JUMP JUMPDEST SWAP3 POP DUP3 DUP3 ADD SWAP1 POP PUSH32 0xFFFFFFFFFFFFFFFFFFFFFFFFFFFFFFFFFFFFFFFFFFFFFFFFFFFFFFFFFFFFFF80 DUP2 SLT PUSH1 0x7F DUP3 SGT OR ISZERO PUSH2 0x9C1 JUMPI PUSH2 0x9C0 PUSH2 0x76E JUMP JUMPDEST JUMPDEST SWAP3 SWAP2 POP POP JUMP JUMPDEST PUSH0 PUSH2 0x9D1 DUP3 PUSH2 0x4DC JUMP JUMPDEST SWAP2 POP PUSH0 DUP3 SUB PUSH2 0x9E3 JUMPI PUSH2 0x9E2 PUSH2 0x76E JUMP JUMPDEST JUMPDEST PUSH1 0x1 DUP3 SUB SWAP1 POP SWAP2 SWAP1 POP JUMP JUMPDEST PUSH0 PUSH2 0x9F8 DUP3 PUSH2 0x73B JUMP JUMPDEST SWAP2 POP PUSH2 0xA03 DUP4 PUSH2 0x73B JUMP JUMPDEST SWAP3 POP DUP3 DUP3 SUB SWAP1 POP PUSH1 0x7F DUP2 SGT PUSH32 0xFFFFFFFFFFFFFFFFFFFFFFFFFFFFFFFFFFFFFFFFFFFFFFFFFFFFFFFFFFFFFF80 DUP3 SLT OR ISZERO PUSH2 0xA40 JUMPI PUSH2 0xA3F PUSH2 0x76E JUMP JUMPDEST JUMPDEST SWAP3 SWAP2 POP POP JUMP JUMPDEST PUSH32 0x4E487B7100000000000000000000000000000000000000000000000000000000 PUSH0 MSTORE PUSH1 0x12 PUSH1 0x4 MSTORE PUSH1 0x24 PUSH0 REVERT JUMPDEST PUSH0 PUSH2 0xA7D DUP3 PUSH2 0x73B JUMP JUMPDEST SWAP2 POP PUSH2 0xA88 DUP4 PUSH2 0x73B JUMP JUMPDEST SWAP3 POP DUP3 PUSH2 0xA98 JUMPI PUSH2 0xA97 PUSH2 0xA46 JUMP JUMPDEST JUMPDEST PUSH1 0x1 PUSH0 SUB DUP4 EQ PUSH32 0xFFFFFFFFFFFFFFFFFFFFFFFFFFFFFFFFFFFFFFFFFFFFFFFFFFFFFFFFFFFFFF80 DUP4 EQ AND ISZERO PUSH2 0xAD0 JUMPI PUSH2 0xACF PUSH2 0x76E JUMP JUMPDEST JUMPDEST DUP3 DUP3 SDIV SWAP1 POP SWAP3 SWAP2 POP POP JUMP JUMPDEST PUSH0 PUSH2 0xAE5 DUP3 PUSH2 0x73B JUMP JUMPDEST SWAP2 POP PUSH2 0xAF0 DUP4 PUSH2 0x73B JUMP JUMPDEST SWAP3 POP DUP3 PUSH2 0xB00 JUMPI PUSH2 0xAFF PUSH2 0xA46 JUMP JUMPDEST JUMPDEST DUP3 DUP3 SMOD SWAP1 POP SWAP3 SWAP2 POP POP JUMP JUMPDEST PUSH0 DUP2 SWAP1 POP SWAP3 SWAP2 POP POP JUMP JUMPDEST PUSH0 PUSH2 0xB1F DUP3 PUSH2 0x50D JUMP JUMPDEST PUSH2 0xB29 DUP2 DUP6 PUSH2 0xB0B JUMP JUMPDEST SWAP4 POP PUSH2 0xB39 DUP2 DUP6 PUSH1 0x20 DUP7 ADD PUSH2 0x527 JUMP JUMPDEST DUP1 DUP5 ADD SWAP2 POP POP SWAP3 SWAP2 POP POP JUMP JUMPDEST PUSH32 0x2E00000000000000000000000000000000000000000000000000000000000000 PUSH0 DUP3 ADD MSTORE POP JUMP JUMPDEST PUSH0 PUSH2 0xB79 PUSH1 0x1 DUP4 PUSH2 0xB0B JUMP JUMPDEST SWAP2 POP PUSH2 0xB84 DUP3 PUSH2 0xB45 JUMP JUMPDEST PUSH1 0x1 DUP3 ADD SWAP1 POP SWAP2 SWAP1 POP JUMP JUMPDEST PUSH0 PUSH2 0xB9A DUP3 DUP6 PUSH2 0xB15 JUMP JUMPDEST SWAP2 POP PUSH2 0xBA5 DUP3 PUSH2 0xB6D JUMP JUMPDEST SWAP2 POP PUSH2 0xBB1 DUP3 DUP5 PUSH2 0xB15 JUMP JUMPDEST SWAP2 POP DUP2 SWAP1 POP SWAP4 SWAP3 POP POP POP JUMP JUMPDEST PUSH0 DUP2 SWAP1 POP DUP2 PUSH0 MSTORE PUSH1 0x20 PUSH0 KECCAK256 SWAP1 POP SWAP2 SWAP1 POP JUMP JUMPDEST PUSH0 PUSH1 0x20 PUSH1 0x1F DUP4 ADD DIV SWAP1 POP SWAP2 SWAP1 POP JUMP JUMPDEST PUSH0 DUP3 DUP3 SHL SWAP1 POP SWAP3 SWAP2 POP POP JUMP JUMPDEST PUSH0 PUSH1 0x8 DUP4 MUL PUSH2 0xC19 PUSH32 0xFFFFFFFFFFFFFFFFFFFFFFFFFFFFFFFFFFFFFFFFFFFFFFFFFFFFFFFFFFFFFFFF DUP3 PUSH2 0xBDE JUMP JUMPDEST PUSH2 0xC23 DUP7 DUP4 PUSH2 0xBDE JUMP JUMPDEST SWAP6 POP DUP1 NOT DUP5 AND SWAP4 POP DUP1 DUP7 AND DUP5 OR SWAP3 POP POP POP SWAP4 SWAP3 POP POP POP JUMP JUMPDEST PUSH0 DUP2 SWAP1 POP SWAP2 SWAP1 POP JUMP JUMPDEST PUSH0 PUSH2 0xC5E PUSH2 0xC59 PUSH2 0xC54 DUP5 PUSH2 0x4DC JUMP JUMPDEST PUSH2 0xC3B JUMP JUMPDEST PUSH2 0x4DC JUMP JUMPDEST SWAP1 POP SWAP2 SWAP1 POP JUMP JUMPDEST PUSH0 DUP2 SWAP1 POP SWAP2 SWAP1 POP JUMP JUMPDEST PUSH2 0xC77 DUP4 PUSH2 0xC44 JUMP JUMPDEST PUSH2 0xC8B PUSH2 0xC83 DUP3 PUSH2 0xC65 JUMP JUMPDEST DUP5 DUP5 SLOAD PUSH2 0xBEA JUMP JUMPDEST DUP3 SSTORE POP POP POP POP JUMP JUMPDEST PUSH0 SWAP1 JUMP JUMPDEST PUSH2 0xC9F PUSH2 0xC93 JUMP JUMPDEST PUSH2 0xCAA DUP2 DUP5 DUP5 PUSH2 0xC6E JUMP JUMPDEST POP POP POP JUMP JUMPDEST JUMPDEST DUP2 DUP2 LT ISZERO PUSH2 0xCCD JUMPI PUSH2 0xCC2 PUSH0 DUP3 PUSH2 0xC97 JUMP JUMPDEST PUSH1 0x1 DUP2 ADD SWAP1 POP PUSH2 0xCB0 JUMP JUMPDEST POP POP JUMP JUMPDEST PUSH1 0x1F DUP3 GT ISZERO PUSH2 0xD12 JUMPI PUSH2 0xCE3 DUP2 PUSH2 0xBBD JUMP JUMPDEST PUSH2 0xCEC DUP5 PUSH2 0xBCF JUMP JUMPDEST DUP2 ADD PUSH1 0x20 DUP6 LT ISZERO PUSH2 0xCFB JUMPI DUP2 SWAP1 POP JUMPDEST PUSH2 0xD0F PUSH2 0xD07 DUP6 PUSH2 0xBCF JUMP JUMPDEST DUP4 ADD DUP3 PUSH2 0xCAF JUMP JUMPDEST POP POP JUMPDEST POP POP POP JUMP JUMPDEST PUSH0 DUP3 DUP3 SHR SWAP1 POP SWAP3 SWAP2 POP POP JUMP JUMPDEST PUSH0 PUSH2 0xD32 PUSH0 NOT DUP5 PUSH1 0x8 MUL PUSH2 0xD17 JUMP JUMPDEST NOT DUP1 DUP4 AND SWAP2 POP POP SWAP3 SWAP2 POP POP JUMP JUMPDEST PUSH0 PUSH2 0xD4A DUP4 DUP4 PUSH2 0xD23 JUMP JUMPDEST SWAP2 POP DUP3 PUSH1 0x2 MUL DUP3 OR SWAP1 POP SWAP3 SWAP2 POP POP JUMP JUMPDEST PUSH2 0xD63 DUP3 PUSH2 0x50D JUMP JUMPDEST PUSH8 0xFFFFFFFFFFFFFFFF DUP2 GT ISZERO PUSH2 0xD7C JUMPI PUSH2 0xD7B PUSH2 0x5D0 JUMP JUMPDEST JUMPDEST PUSH2 0xD86 DUP3 SLOAD PUSH2 0x7FB JUMP JUMPDEST PUSH2 0xD91 DUP3 DUP3 DUP6 PUSH2 0xCD1 JUMP JUMPDEST PUSH0 PUSH1 0x20 SWAP1 POP PUSH1 0x1F DUP4 GT PUSH1 0x1 DUP2 EQ PUSH2 0xDC2 JUMPI PUSH0 DUP5 ISZERO PUSH2 0xDB0 JUMPI DUP3 DUP8 ADD MLOAD SWAP1 POP JUMPDEST PUSH2 0xDBA DUP6 DUP3 PUSH2 0xD3F JUMP JUMPDEST DUP7 SSTORE POP PUSH2 0xE21 JUMP JUMPDEST PUSH1 0x1F NOT DUP5 AND PUSH2 0xDD0 DUP7 PUSH2 0xBBD JUMP JUMPDEST PUSH0 JUMPDEST DUP3 DUP2 LT ISZERO PUSH2 0xDF7 JUMPI DUP5 DUP10 ADD MLOAD DUP3 SSTORE PUSH1 0x1 DUP3 ADD SWAP2 POP PUSH1 0x20 DUP6 ADD SWAP5 POP PUSH1 0x20 DUP2 ADD SWAP1 POP PUSH2 0xDD2 JUMP JUMPDEST DUP7 DUP4 LT ISZERO PUSH2 0xE14 JUMPI DUP5 DUP10 ADD MLOAD PUSH2 0xE10 PUSH1 0x1F DUP10 AND DUP3 PUSH2 0xD23 JUMP JUMPDEST DUP4 SSTORE POP JUMPDEST PUSH1 0x1 PUSH1 0x2 DUP9 MUL ADD DUP9 SSTORE POP POP POP JUMPDEST POP POP POP POP POP POP JUMP JUMPDEST PUSH0 PUSH2 0xE33 DUP3 PUSH2 0x88B JUMP JUMPDEST SWAP2 POP PUSH1 0xFF DUP3 SUB PUSH2 0xE46 JUMPI PUSH2 0xE45 PUSH2 0x76E JUMP JUMPDEST JUMPDEST PUSH1 0x1 DUP3 ADD SWAP1 POP SWAP2 SWAP1 POP JUMP JUMPDEST PUSH0 PUSH2 0xE5B DUP3 PUSH2 0x88B JUMP JUMPDEST SWAP2 POP PUSH2 0xE66 DUP4 PUSH2 0x88B JUMP JUMPDEST SWAP3 POP DUP3 DUP3 ADD SWAP1 POP PUSH1 0xFF DUP2 GT ISZERO PUSH2 0xE7F JUMPI PUSH2 0xE7E PUSH2 0x76E JUMP JUMPDEST JUMPDEST SWAP3 SWAP2 POP POP JUMP JUMPDEST PUSH0 PUSH2 0xE8F DUP3 PUSH2 0x88B JUMP JUMPDEST SWAP2 POP PUSH0 DUP3 SUB PUSH2 0xEA1 JUMPI PUSH2 0xEA0 PUSH2 0x76E JUMP JUMPDEST JUMPDEST PUSH1 0x1 DUP3 SUB SWAP1 POP SWAP2 SWAP1 POP JUMP INVALID LOG2 PUSH5 0x6970667358 0x22 SLT KECCAK256 DUP4 0xD6 0x28 LOG0 0xC8 0x4E PUSH32 0x4C0057DF2521718BEC5BDDFFDDAFBB60E8742075E28A18E50A64736F6C634300 ADDMOD XOR STOP CALLER "
				},
				"gasEstimates": {
					"creation": {
						"codeDepositCost": "762000",
						"executionCost": "infinite",
						"totalCost": "infinite"
					},
					"external": {
						"getNum()": "infinite",
						"getValueInWei()": "infinite",
						"num()": "infinite",
						"stringToInt8(string)": "infinite"
					},
					"internal": {
						"toString(int8)": "infinite"
					}
				},
				"methodIdentifiers": {
					"getNum()": "67e0badb",
					"getValueInWei()": "4893889a",
					"num()": "4e70b1dc",
					"stringToInt8(string)": "53d619c2"
				}
			},
			"storageLayout": {
				"storage": [
					{
						"astId": 1419,
						"contract": "contracts/Time.sol:Test",
						"label": "num",
						"offset": 0,
						"slot": "0",
						"type": "t_string_storage"
					}
				],
				"types": {
					"t_string_storage": {
						"encoding": "bytes",
						"label": "string",
						"numberOfBytes": "32"
					}
				}
			},
			"userdoc": {
				"kind": "user",
				"methods": {},
				"version": 1
			}
		}
	}
}