{
	"contracts/Interaction-Twitter-Main.sol": {
		"Twitter": {
			"abi": [
				{
					"inputs": [
						{
							"internalType": "address",
							"name": "_profileContract",
							"type": "address"
						}
					],
					"stateMutability": "nonpayable",
					"type": "constructor"
				},
				{
					"inputs": [
						{
							"internalType": "address",
							"name": "owner",
							"type": "address"
						}
					],
					"name": "OwnableInvalidOwner",
					"type": "error"
				},
				{
					"inputs": [
						{
							"internalType": "address",
							"name": "account",
							"type": "address"
						}
					],
					"name": "OwnableUnauthorizedAccount",
					"type": "error"
				},
				{
					"anonymous": false,
					"inputs": [
						{
							"indexed": true,
							"internalType": "address",
							"name": "previousOwner",
							"type": "address"
						},
						{
							"indexed": true,
							"internalType": "address",
							"name": "newOwner",
							"type": "address"
						}
					],
					"name": "OwnershipTransferred",
					"type": "event"
				},
				{
					"anonymous": false,
					"inputs": [
						{
							"indexed": false,
							"internalType": "uint256",
							"name": "id",
							"type": "uint256"
						},
						{
							"indexed": false,
							"internalType": "address",
							"name": "author",
							"type": "address"
						},
						{
							"indexed": false,
							"internalType": "string",
							"name": "content",
							"type": "string"
						},
						{
							"indexed": false,
							"internalType": "uint256",
							"name": "timestamp",
							"type": "uint256"
						}
					],
					"name": "TweetCreated",
					"type": "event"
				},
				{
					"anonymous": false,
					"inputs": [
						{
							"indexed": false,
							"internalType": "address",
							"name": "liker",
							"type": "address"
						},
						{
							"indexed": false,
							"internalType": "address",
							"name": "tweetAuthor",
							"type": "address"
						},
						{
							"indexed": false,
							"internalType": "uint256",
							"name": "tweetId",
							"type": "uint256"
						},
						{
							"indexed": false,
							"internalType": "uint256",
							"name": "newLikeCount",
							"type": "uint256"
						}
					],
					"name": "TweetLiked",
					"type": "event"
				},
				{
					"anonymous": false,
					"inputs": [
						{
							"indexed": false,
							"internalType": "address",
							"name": "unliker",
							"type": "address"
						},
						{
							"indexed": false,
							"internalType": "address",
							"name": "tweetAuthor",
							"type": "address"
						},
						{
							"indexed": false,
							"internalType": "uint256",
							"name": "tweetId",
							"type": "uint256"
						},
						{
							"indexed": false,
							"internalType": "uint256",
							"name": "newLikeCount",
							"type": "uint256"
						}
					],
					"name": "TweetUnliked",
					"type": "event"
				},
				{
					"inputs": [],
					"name": "MAX_TWEET_LENGTH",
					"outputs": [
						{
							"internalType": "uint16",
							"name": "",
							"type": "uint16"
						}
					],
					"stateMutability": "view",
					"type": "function"
				},
				{
					"inputs": [
						{
							"internalType": "uint16",
							"name": "newTweetLength",
							"type": "uint16"
						}
					],
					"name": "changeTweetLength",
					"outputs": [],
					"stateMutability": "nonpayable",
					"type": "function"
				},
				{
					"inputs": [
						{
							"internalType": "string",
							"name": "_tweet",
							"type": "string"
						}
					],
					"name": "createTweet",
					"outputs": [],
					"stateMutability": "nonpayable",
					"type": "function"
				},
				{
					"inputs": [
						{
							"internalType": "address",
							"name": "_owner",
							"type": "address"
						}
					],
					"name": "getAllTweets",
					"outputs": [
						{
							"components": [
								{
									"internalType": "uint256",
									"name": "id",
									"type": "uint256"
								},
								{
									"internalType": "address",
									"name": "author",
									"type": "address"
								},
								{
									"internalType": "string",
									"name": "content",
									"type": "string"
								},
								{
									"internalType": "uint256",
									"name": "timestamp",
									"type": "uint256"
								},
								{
									"internalType": "uint256",
									"name": "likes",
									"type": "uint256"
								}
							],
							"internalType": "struct Twitter.Tweet[]",
							"name": "",
							"type": "tuple[]"
						}
					],
					"stateMutability": "view",
					"type": "function"
				},
				{
					"inputs": [
						{
							"internalType": "address",
							"name": "_author",
							"type": "address"
						}
					],
					"name": "getTotalLikes",
					"outputs": [
						{
							"internalType": "uint256",
							"name": "",
							"type": "uint256"
						}
					],
					"stateMutability": "view",
					"type": "function"
				},
				{
					"inputs": [
						{
							"internalType": "uint256",
							"name": "_idx",
							"type": "uint256"
						}
					],
					"name": "getTweet",
					"outputs": [
						{
							"components": [
								{
									"internalType": "uint256",
									"name": "id",
									"type": "uint256"
								},
								{
									"internalType": "address",
									"name": "author",
									"type": "address"
								},
								{
									"internalType": "string",
									"name": "content",
									"type": "string"
								},
								{
									"internalType": "uint256",
									"name": "timestamp",
									"type": "uint256"
								},
								{
									"internalType": "uint256",
									"name": "likes",
									"type": "uint256"
								}
							],
							"internalType": "struct Twitter.Tweet",
							"name": "",
							"type": "tuple"
						}
					],
					"stateMutability": "view",
					"type": "function"
				},
				{
					"inputs": [
						{
							"internalType": "address",
							"name": "author",
							"type": "address"
						},
						{
							"internalType": "uint256",
							"name": "id",
							"type": "uint256"
						}
					],
					"name": "likeTweet",
					"outputs": [],
					"stateMutability": "nonpayable",
					"type": "function"
				},
				{
					"inputs": [],
					"name": "owner",
					"outputs": [
						{
							"internalType": "address",
							"name": "",
							"type": "address"
						}
					],
					"stateMutability": "view",
					"type": "function"
				},
				{
					"inputs": [],
					"name": "profileContract",
					"outputs": [
						{
							"internalType": "contract IProfile",
							"name": "",
							"type": "address"
						}
					],
					"stateMutability": "view",
					"type": "function"
				},
				{
					"inputs": [],
					"name": "renounceOwnership",
					"outputs": [],
					"stateMutability": "nonpayable",
					"type": "function"
				},
				{
					"inputs": [
						{
							"internalType": "address",
							"name": "newOwner",
							"type": "address"
						}
					],
					"name": "transferOwnership",
					"outputs": [],
					"stateMutability": "nonpayable",
					"type": "function"
				},
				{
					"inputs": [
						{
							"internalType": "address",
							"name": "",
							"type": "address"
						},
						{
							"internalType": "uint256",
							"name": "",
							"type": "uint256"
						}
					],
					"name": "tweets",
					"outputs": [
						{
							"internalType": "uint256",
							"name": "id",
							"type": "uint256"
						},
						{
							"internalType": "address",
							"name": "author",
							"type": "address"
						},
						{
							"internalType": "string",
							"name": "content",
							"type": "string"
						},
						{
							"internalType": "uint256",
							"name": "timestamp",
							"type": "uint256"
						},
						{
							"internalType": "uint256",
							"name": "likes",
							"type": "uint256"
						}
					],
					"stateMutability": "view",
					"type": "function"
				},
				{
					"inputs": [
						{
							"internalType": "address",
							"name": "author",
							"type": "address"
						},
						{
							"internalType": "uint256",
							"name": "id",
							"type": "uint256"
						}
					],
					"name": "unlikeTweet",
					"outputs": [],
					"stateMutability": "nonpayable",
					"type": "function"
				}
			],
			"devdoc": {
				"errors": {
					"OwnableInvalidOwner(address)": [
						{
							"details": "The owner is not a valid owner account. (eg. `address(0)`)"
						}
					],
					"OwnableUnauthorizedAccount(address)": [
						{
							"details": "The caller account is not authorized to perform an operation."
						}
					]
				},
				"kind": "dev",
				"methods": {
					"owner()": {
						"details": "Returns the address of the current owner."
					},
					"renounceOwnership()": {
						"details": "Leaves the contract without owner. It will not be possible to call `onlyOwner` functions. Can only be called by the current owner. NOTE: Renouncing ownership will leave the contract without an owner, thereby disabling any functionality that is only available to the owner."
					},
					"transferOwnership(address)": {
						"details": "Transfers ownership of the contract to a new account (`newOwner`). Can only be called by the current owner."
					}
				},
				"version": 1
			},
			"evm": {
				"assembly": "    /* \"contracts/Interaction-Twitter-Main.sol\":300:3545  contract Twitter is Ownable {... */\n  mstore(0x40, 0x80)\n    /* \"contracts/Interaction-Twitter-Main.sol\":836:839  280 */\n  0x0118\n    /* \"contracts/Interaction-Twitter-Main.sol\":802:839  uint16 public  MAX_TWEET_LENGTH = 280 */\n  0x01\n  exp(0x0100, 0x14)\n  dup2\n  sload\n  dup2\n  0xffff\n  mul\n  not\n  and\n  swap1\n  dup4\n  0xffff\n  and\n  mul\n  or\n  swap1\n  sstore\n  pop\n    /* \"contracts/Interaction-Twitter-Main.sol\":995:1114  constructor(address _profileContract) Ownable(msg.sender) {... */\n  callvalue\n  dup1\n  iszero\n  tag_1\n  jumpi\n  0x00\n  dup1\n  revert\ntag_1:\n  pop\n  mload(0x40)\n  sub(codesize, bytecodeSize)\n  dup1\n  bytecodeSize\n  dup4\n  codecopy\n  dup2\n  dup2\n  add\n  0x40\n  mstore\n  dup2\n  add\n  swap1\n  tag_2\n  swap2\n  swap1\n  tag_3\n  jump\t// in\ntag_2:\n    /* \"contracts/Interaction-Twitter-Main.sol\":1041:1051  msg.sender */\n  caller\n    /* \"@openzeppelin/contracts/access/Ownable.sol\":1297:1298  0 */\n  0x00\n    /* \"@openzeppelin/contracts/access/Ownable.sol\":1273:1299  initialOwner == address(0) */\n  0xffffffffffffffffffffffffffffffffffffffff\n  and\n    /* \"@openzeppelin/contracts/access/Ownable.sol\":1273:1285  initialOwner */\n  dup2\n    /* \"@openzeppelin/contracts/access/Ownable.sol\":1273:1299  initialOwner == address(0) */\n  0xffffffffffffffffffffffffffffffffffffffff\n  and\n  sub\n    /* \"@openzeppelin/contracts/access/Ownable.sol\":1269:1364  if (initialOwner == address(0)) {... */\n  tag_7\n  jumpi\n    /* \"@openzeppelin/contracts/access/Ownable.sol\":1350:1351  0 */\n  0x00\n    /* \"@openzeppelin/contracts/access/Ownable.sol\":1322:1353  OwnableInvalidOwner(address(0)) */\n  mload(0x40)\n  0x1e4fbdf700000000000000000000000000000000000000000000000000000000\n  dup2\n  mstore\n  0x04\n  add\n  tag_8\n  swap2\n  swap1\n  tag_9\n  jump\t// in\ntag_8:\n  mload(0x40)\n  dup1\n  swap2\n  sub\n  swap1\n  revert\n    /* \"@openzeppelin/contracts/access/Ownable.sol\":1269:1364  if (initialOwner == address(0)) {... */\ntag_7:\n    /* \"@openzeppelin/contracts/access/Ownable.sol\":1373:1405  _transferOwnership(initialOwner) */\n  tag_10\n    /* \"@openzeppelin/contracts/access/Ownable.sol\":1392:1404  initialOwner */\n  dup2\n    /* \"@openzeppelin/contracts/access/Ownable.sol\":1373:1391  _transferOwnership */\n  shl(0x20, tag_11)\n    /* \"@openzeppelin/contracts/access/Ownable.sol\":1373:1405  _transferOwnership(initialOwner) */\n  0x20\n  shr\n  jump\t// in\ntag_10:\n    /* \"@openzeppelin/contracts/access/Ownable.sol\":1225:1412  constructor(address initialOwner) {... */\n  pop\n    /* \"contracts/Interaction-Twitter-Main.sol\":1090:1106  _profileContract */\n  dup1\n    /* \"contracts/Interaction-Twitter-Main.sol\":1063:1078  profileContract */\n  0x01\n  0x00\n    /* \"contracts/Interaction-Twitter-Main.sol\":1063:1107  profileContract = IProfile(_profileContract) */\n  0x0100\n  exp\n  dup2\n  sload\n  dup2\n  0xffffffffffffffffffffffffffffffffffffffff\n  mul\n  not\n  and\n  swap1\n  dup4\n  0xffffffffffffffffffffffffffffffffffffffff\n  and\n  mul\n  or\n  swap1\n  sstore\n  pop\n    /* \"contracts/Interaction-Twitter-Main.sol\":995:1114  constructor(address _profileContract) Ownable(msg.sender) {... */\n  pop\n    /* \"contracts/Interaction-Twitter-Main.sol\":300:3545  contract Twitter is Ownable {... */\n  jump(tag_13)\n    /* \"@openzeppelin/contracts/access/Ownable.sol\":2912:3099  function _transferOwnership(address newOwner) internal virtual {... */\ntag_11:\n    /* \"@openzeppelin/contracts/access/Ownable.sol\":2985:3001  address oldOwner */\n  0x00\n    /* \"@openzeppelin/contracts/access/Ownable.sol\":3004:3010  _owner */\n  dup1\n  0x00\n  swap1\n  sload\n  swap1\n  0x0100\n  exp\n  swap1\n  div\n  0xffffffffffffffffffffffffffffffffffffffff\n  and\n    /* \"@openzeppelin/contracts/access/Ownable.sol\":2985:3010  address oldOwner = _owner */\n  swap1\n  pop\n    /* \"@openzeppelin/contracts/access/Ownable.sol\":3029:3037  newOwner */\n  dup2\n    /* \"@openzeppelin/contracts/access/Ownable.sol\":3020:3026  _owner */\n  0x00\n  dup1\n    /* \"@openzeppelin/contracts/access/Ownable.sol\":3020:3037  _owner = newOwner */\n  0x0100\n  exp\n  dup2\n  sload\n  dup2\n  0xffffffffffffffffffffffffffffffffffffffff\n  mul\n  not\n  and\n  swap1\n  dup4\n  0xffffffffffffffffffffffffffffffffffffffff\n  and\n  mul\n  or\n  swap1\n  sstore\n  pop\n    /* \"@openzeppelin/contracts/access/Ownable.sol\":3083:3091  newOwner */\n  dup2\n    /* \"@openzeppelin/contracts/access/Ownable.sol\":3052:3092  OwnershipTransferred(oldOwner, newOwner) */\n  0xffffffffffffffffffffffffffffffffffffffff\n  and\n    /* \"@openzeppelin/contracts/access/Ownable.sol\":3073:3081  oldOwner */\n  dup2\n    /* \"@openzeppelin/contracts/access/Ownable.sol\":3052:3092  OwnershipTransferred(oldOwner, newOwner) */\n  0xffffffffffffffffffffffffffffffffffffffff\n  and\n  0x8be0079c531659141344cd1fd0a4f28419497f9722a3daafe3b4186f6b6457e0\n  mload(0x40)\n  mload(0x40)\n  dup1\n  swap2\n  sub\n  swap1\n  log3\n    /* \"@openzeppelin/contracts/access/Ownable.sol\":2975:3099  {... */\n  pop\n    /* \"@openzeppelin/contracts/access/Ownable.sol\":2912:3099  function _transferOwnership(address newOwner) internal virtual {... */\n  pop\n  jump\t// out\n    /* \"#utility.yul\":88:205   */\ntag_16:\n    /* \"#utility.yul\":197:198   */\n  0x00\n    /* \"#utility.yul\":194:195   */\n  dup1\n    /* \"#utility.yul\":187:199   */\n  revert\n    /* \"#utility.yul\":334:460   */\ntag_18:\n    /* \"#utility.yul\":371:378   */\n  0x00\n    /* \"#utility.yul\":411:453   */\n  0xffffffffffffffffffffffffffffffffffffffff\n    /* \"#utility.yul\":404:409   */\n  dup3\n    /* \"#utility.yul\":400:454   */\n  and\n    /* \"#utility.yul\":389:454   */\n  swap1\n  pop\n    /* \"#utility.yul\":334:460   */\n  swap2\n  swap1\n  pop\n  jump\t// out\n    /* \"#utility.yul\":466:562   */\ntag_19:\n    /* \"#utility.yul\":503:510   */\n  0x00\n    /* \"#utility.yul\":532:556   */\n  tag_29\n    /* \"#utility.yul\":550:555   */\n  dup3\n    /* \"#utility.yul\":532:556   */\n  tag_18\n  jump\t// in\ntag_29:\n    /* \"#utility.yul\":521:556   */\n  swap1\n  pop\n    /* \"#utility.yul\":466:562   */\n  swap2\n  swap1\n  pop\n  jump\t// out\n    /* \"#utility.yul\":568:690   */\ntag_20:\n    /* \"#utility.yul\":641:665   */\n  tag_31\n    /* \"#utility.yul\":659:664   */\n  dup2\n    /* \"#utility.yul\":641:665   */\n  tag_19\n  jump\t// in\ntag_31:\n    /* \"#utility.yul\":634:639   */\n  dup2\n    /* \"#utility.yul\":631:666   */\n  eq\n    /* \"#utility.yul\":621:684   */\n  tag_32\n  jumpi\n    /* \"#utility.yul\":680:681   */\n  0x00\n    /* \"#utility.yul\":677:678   */\n  dup1\n    /* \"#utility.yul\":670:682   */\n  revert\n    /* \"#utility.yul\":621:684   */\ntag_32:\n    /* \"#utility.yul\":568:690   */\n  pop\n  jump\t// out\n    /* \"#utility.yul\":696:839   */\ntag_21:\n    /* \"#utility.yul\":753:758   */\n  0x00\n    /* \"#utility.yul\":784:790   */\n  dup2\n    /* \"#utility.yul\":778:791   */\n  mload\n    /* \"#utility.yul\":769:791   */\n  swap1\n  pop\n    /* \"#utility.yul\":800:833   */\n  tag_34\n    /* \"#utility.yul\":827:832   */\n  dup2\n    /* \"#utility.yul\":800:833   */\n  tag_20\n  jump\t// in\ntag_34:\n    /* \"#utility.yul\":696:839   */\n  swap3\n  swap2\n  pop\n  pop\n  jump\t// out\n    /* \"#utility.yul\":845:1196   */\ntag_3:\n    /* \"#utility.yul\":915:921   */\n  0x00\n    /* \"#utility.yul\":964:966   */\n  0x20\n    /* \"#utility.yul\":952:961   */\n  dup3\n    /* \"#utility.yul\":943:950   */\n  dup5\n    /* \"#utility.yul\":939:962   */\n  sub\n    /* \"#utility.yul\":935:967   */\n  slt\n    /* \"#utility.yul\":932:1051   */\n  iszero\n  tag_36\n  jumpi\n    /* \"#utility.yul\":970:1049   */\n  tag_37\n  tag_16\n  jump\t// in\ntag_37:\n    /* \"#utility.yul\":932:1051   */\ntag_36:\n    /* \"#utility.yul\":1090:1091   */\n  0x00\n    /* \"#utility.yul\":1115:1179   */\n  tag_38\n    /* \"#utility.yul\":1171:1178   */\n  dup5\n    /* \"#utility.yul\":1162:1168   */\n  dup3\n    /* \"#utility.yul\":1151:1160   */\n  dup6\n    /* \"#utility.yul\":1147:1169   */\n  add\n    /* \"#utility.yul\":1115:1179   */\n  tag_21\n  jump\t// in\ntag_38:\n    /* \"#utility.yul\":1105:1179   */\n  swap2\n  pop\n    /* \"#utility.yul\":1061:1189   */\n  pop\n    /* \"#utility.yul\":845:1196   */\n  swap3\n  swap2\n  pop\n  pop\n  jump\t// out\n    /* \"#utility.yul\":1202:1320   */\ntag_22:\n    /* \"#utility.yul\":1289:1313   */\n  tag_40\n    /* \"#utility.yul\":1307:1312   */\n  dup2\n    /* \"#utility.yul\":1289:1313   */\n  tag_19\n  jump\t// in\ntag_40:\n    /* \"#utility.yul\":1284:1287   */\n  dup3\n    /* \"#utility.yul\":1277:1314   */\n  mstore\n    /* \"#utility.yul\":1202:1320   */\n  pop\n  pop\n  jump\t// out\n    /* \"#utility.yul\":1326:1548   */\ntag_9:\n    /* \"#utility.yul\":1419:1423   */\n  0x00\n    /* \"#utility.yul\":1457:1459   */\n  0x20\n    /* \"#utility.yul\":1446:1455   */\n  dup3\n    /* \"#utility.yul\":1442:1460   */\n  add\n    /* \"#utility.yul\":1434:1460   */\n  swap1\n  pop\n    /* \"#utility.yul\":1470:1541   */\n  tag_42\n    /* \"#utility.yul\":1538:1539   */\n  0x00\n    /* \"#utility.yul\":1527:1536   */\n  dup4\n    /* \"#utility.yul\":1523:1540   */\n  add\n    /* \"#utility.yul\":1514:1520   */\n  dup5\n    /* \"#utility.yul\":1470:1541   */\n  tag_22\n  jump\t// in\ntag_42:\n    /* \"#utility.yul\":1326:1548   */\n  swap3\n  swap2\n  pop\n  pop\n  jump\t// out\n    /* \"contracts/Interaction-Twitter-Main.sol\":300:3545  contract Twitter is Ownable {... */\ntag_13:\n  dataSize(sub_0)\n  dup1\n  dataOffset(sub_0)\n  0x00\n  codecopy\n  0x00\n  return\nstop\n\nsub_0: assembly {\n        /* \"contracts/Interaction-Twitter-Main.sol\":300:3545  contract Twitter is Ownable {... */\n      mstore(0x40, 0x80)\n      callvalue\n      dup1\n      iszero\n      tag_1\n      jumpi\n      0x00\n      dup1\n      revert\n    tag_1:\n      pop\n      jumpi(tag_2, lt(calldatasize, 0x04))\n      shr(0xe0, calldataload(0x00))\n      dup1\n      0x715018a6\n      gt\n      tag_16\n      jumpi\n      dup1\n      0x8da5cb5b\n      gt\n      tag_17\n      jumpi\n      dup1\n      0x8da5cb5b\n      eq\n      tag_12\n      jumpi\n      dup1\n      0xa3974b21\n      eq\n      tag_13\n      jumpi\n      dup1\n      0xc3ad5ecb\n      eq\n      tag_14\n      jumpi\n      dup1\n      0xf2fde38b\n      eq\n      tag_15\n      jumpi\n      jump(tag_2)\n    tag_17:\n      dup1\n      0x715018a6\n      eq\n      tag_9\n      jumpi\n      dup1\n      0x7c9cd2bc\n      eq\n      tag_10\n      jumpi\n      dup1\n      0x820785cc\n      eq\n      tag_11\n      jumpi\n      jump(tag_2)\n    tag_16:\n      dup1\n      0x05a1b4a9\n      eq\n      tag_3\n      jumpi\n      dup1\n      0x12e7ee1c\n      eq\n      tag_4\n      jumpi\n      dup1\n      0x3d9b569f\n      eq\n      tag_5\n      jumpi\n      dup1\n      0x58bfa4ab\n      eq\n      tag_6\n      jumpi\n      dup1\n      0x63378216\n      eq\n      tag_7\n      jumpi\n      dup1\n      0x6eb10797\n      eq\n      tag_8\n      jumpi\n    tag_2:\n      0x00\n      dup1\n      revert\n        /* \"contracts/Interaction-Twitter-Main.sol\":1522:1563  mapping(address => Tweet[]) public tweets */\n    tag_3:\n      tag_18\n      0x04\n      dup1\n      calldatasize\n      sub\n      dup2\n      add\n      swap1\n      tag_19\n      swap2\n      swap1\n      tag_20\n      jump\t// in\n    tag_19:\n      tag_21\n      jump\t// in\n    tag_18:\n      mload(0x40)\n      tag_22\n      swap6\n      swap5\n      swap4\n      swap3\n      swap2\n      swap1\n      tag_23\n      jump\t// in\n    tag_22:\n      mload(0x40)\n      dup1\n      swap2\n      sub\n      swap1\n      return\n        /* \"contracts/Interaction-Twitter-Main.sol\":2336:2449  function getAllTweets(address _owner) public view returns (Tweet[] memory) {... */\n    tag_4:\n      tag_24\n      0x04\n      dup1\n      calldatasize\n      sub\n      dup2\n      add\n      swap1\n      tag_25\n      swap2\n      swap1\n      tag_26\n      jump\t// in\n    tag_25:\n      tag_27\n      jump\t// in\n    tag_24:\n      mload(0x40)\n      tag_28\n      swap2\n      swap1\n      tag_29\n      jump\t// in\n    tag_28:\n      mload(0x40)\n      dup1\n      swap2\n      sub\n      swap1\n      return\n        /* \"contracts/Interaction-Twitter-Main.sol\":2846:3180  function unlikeTweet(address author, uint256 id) external onlyRegistered {... */\n    tag_5:\n      tag_30\n      0x04\n      dup1\n      calldatasize\n      sub\n      dup2\n      add\n      swap1\n      tag_31\n      swap2\n      swap1\n      tag_20\n      jump\t// in\n    tag_31:\n      tag_32\n      jump\t// in\n    tag_30:\n      stop\n        /* \"contracts/Interaction-Twitter-Main.sol\":2455:2572  function changeTweetLength(uint16 newTweetLength) public onlyOwner {... */\n    tag_6:\n      tag_33\n      0x04\n      dup1\n      calldatasize\n      sub\n      dup2\n      add\n      swap1\n      tag_34\n      swap2\n      swap1\n      tag_35\n      jump\t// in\n    tag_34:\n      tag_36\n      jump\t// in\n    tag_33:\n      stop\n        /* \"contracts/Interaction-Twitter-Main.sol\":2578:2840  function likeTweet( address author, uint256 id) external onlyRegistered {... */\n    tag_7:\n      tag_37\n      0x04\n      dup1\n      calldatasize\n      sub\n      dup2\n      add\n      swap1\n      tag_38\n      swap2\n      swap1\n      tag_20\n      jump\t// in\n    tag_38:\n      tag_39\n      jump\t// in\n    tag_37:\n      stop\n        /* \"contracts/Interaction-Twitter-Main.sol\":802:839  uint16 public  MAX_TWEET_LENGTH = 280 */\n    tag_8:\n      tag_40\n      tag_41\n      jump\t// in\n    tag_40:\n      mload(0x40)\n      tag_42\n      swap2\n      swap1\n      tag_43\n      jump\t// in\n    tag_42:\n      mload(0x40)\n      dup1\n      swap2\n      sub\n      swap1\n      return\n        /* \"@openzeppelin/contracts/access/Ownable.sol\":2293:2394  function renounceOwnership() public virtual onlyOwner {... */\n    tag_9:\n      tag_44\n      tag_45\n      jump\t// in\n    tag_44:\n      stop\n        /* \"contracts/Interaction-Twitter-Main.sol\":1570:2213  function createTweet(string memory _tweet) public onlyRegistered {     //_tweet is being stored in temporary memory... */\n    tag_10:\n      tag_46\n      0x04\n      dup1\n      calldatasize\n      sub\n      dup2\n      add\n      swap1\n      tag_47\n      swap2\n      swap1\n      tag_48\n      jump\t// in\n    tag_47:\n      tag_49\n      jump\t// in\n    tag_46:\n      stop\n        /* \"contracts/Interaction-Twitter-Main.sol\":3186:3542  function getTotalLikes(address _author) external view returns (uint){... */\n    tag_11:\n      tag_50\n      0x04\n      dup1\n      calldatasize\n      sub\n      dup2\n      add\n      swap1\n      tag_51\n      swap2\n      swap1\n      tag_26\n      jump\t// in\n    tag_51:\n      tag_52\n      jump\t// in\n    tag_50:\n      mload(0x40)\n      tag_53\n      swap2\n      swap1\n      tag_54\n      jump\t// in\n    tag_53:\n      mload(0x40)\n      dup1\n      swap2\n      sub\n      swap1\n      return\n        /* \"@openzeppelin/contracts/access/Ownable.sol\":1638:1723  function owner() public view virtual returns (address) {... */\n    tag_12:\n      tag_55\n      tag_56\n      jump\t// in\n    tag_55:\n      mload(0x40)\n      tag_57\n      swap2\n      swap1\n      tag_58\n      jump\t// in\n    tag_57:\n      mload(0x40)\n      dup1\n      swap2\n      sub\n      swap1\n      return\n        /* \"contracts/Interaction-Twitter-Main.sol\":334:365  IProfile public profileContract */\n    tag_13:\n      tag_59\n      tag_60\n      jump\t// in\n    tag_59:\n      mload(0x40)\n      tag_61\n      swap2\n      swap1\n      tag_62\n      jump\t// in\n    tag_61:\n      mload(0x40)\n      dup1\n      swap2\n      sub\n      swap1\n      return\n        /* \"contracts/Interaction-Twitter-Main.sol\":2219:2330  function getTweet(uint _idx) public view returns (Tweet memory){... */\n    tag_14:\n      tag_63\n      0x04\n      dup1\n      calldatasize\n      sub\n      dup2\n      add\n      swap1\n      tag_64\n      swap2\n      swap1\n      tag_65\n      jump\t// in\n    tag_64:\n      tag_66\n      jump\t// in\n    tag_63:\n      mload(0x40)\n      tag_67\n      swap2\n      swap1\n      tag_68\n      jump\t// in\n    tag_67:\n      mload(0x40)\n      dup1\n      swap2\n      sub\n      swap1\n      return\n        /* \"@openzeppelin/contracts/access/Ownable.sol\":2543:2758  function transferOwnership(address newOwner) public virtual onlyOwner {... */\n    tag_15:\n      tag_69\n      0x04\n      dup1\n      calldatasize\n      sub\n      dup2\n      add\n      swap1\n      tag_70\n      swap2\n      swap1\n      tag_26\n      jump\t// in\n    tag_70:\n      tag_71\n      jump\t// in\n    tag_69:\n      stop\n        /* \"contracts/Interaction-Twitter-Main.sol\":1522:1563  mapping(address => Tweet[]) public tweets */\n    tag_21:\n      mstore(0x20, 0x02)\n      dup2\n      0x00\n      mstore\n      keccak256(0x00, 0x40)\n      dup2\n      dup2\n      sload\n      dup2\n      lt\n      tag_72\n      jumpi\n      0x00\n      dup1\n      revert\n    tag_72:\n      swap1\n      0x00\n      mstore\n      keccak256(0x00, 0x20)\n      swap1\n      0x05\n      mul\n      add\n      0x00\n      swap2\n      pop\n      swap2\n      pop\n      pop\n      dup1\n      0x00\n      add\n      sload\n      swap1\n      dup1\n      0x01\n      add\n      0x00\n      swap1\n      sload\n      swap1\n      0x0100\n      exp\n      swap1\n      div\n      0xffffffffffffffffffffffffffffffffffffffff\n      and\n      swap1\n      dup1\n      0x02\n      add\n      dup1\n      sload\n      tag_74\n      swap1\n      tag_75\n      jump\t// in\n    tag_74:\n      dup1\n      0x1f\n      add\n      0x20\n      dup1\n      swap2\n      div\n      mul\n      0x20\n      add\n      mload(0x40)\n      swap1\n      dup2\n      add\n      0x40\n      mstore\n      dup1\n      swap3\n      swap2\n      swap1\n      dup2\n      dup2\n      mstore\n      0x20\n      add\n      dup3\n      dup1\n      sload\n      tag_76\n      swap1\n      tag_75\n      jump\t// in\n    tag_76:\n      dup1\n      iszero\n      tag_77\n      jumpi\n      dup1\n      0x1f\n      lt\n      tag_78\n      jumpi\n      0x0100\n      dup1\n      dup4\n      sload\n      div\n      mul\n      dup4\n      mstore\n      swap2\n      0x20\n      add\n      swap2\n      jump(tag_77)\n    tag_78:\n      dup3\n      add\n      swap2\n      swap1\n      0x00\n      mstore\n      keccak256(0x00, 0x20)\n      swap1\n    tag_79:\n      dup2\n      sload\n      dup2\n      mstore\n      swap1\n      0x01\n      add\n      swap1\n      0x20\n      add\n      dup1\n      dup4\n      gt\n      tag_79\n      jumpi\n      dup3\n      swap1\n      sub\n      0x1f\n      and\n      dup3\n      add\n      swap2\n    tag_77:\n      pop\n      pop\n      pop\n      pop\n      pop\n      swap1\n      dup1\n      0x03\n      add\n      sload\n      swap1\n      dup1\n      0x04\n      add\n      sload\n      swap1\n      pop\n      dup6\n      jump\t// out\n        /* \"contracts/Interaction-Twitter-Main.sol\":2336:2449  function getAllTweets(address _owner) public view returns (Tweet[] memory) {... */\n    tag_27:\n        /* \"contracts/Interaction-Twitter-Main.sol\":2395:2409  Tweet[] memory */\n      0x60\n        /* \"contracts/Interaction-Twitter-Main.sol\":2428:2434  tweets */\n      0x02\n        /* \"contracts/Interaction-Twitter-Main.sol\":2428:2442  tweets[_owner] */\n      0x00\n        /* \"contracts/Interaction-Twitter-Main.sol\":2435:2441  _owner */\n      dup4\n        /* \"contracts/Interaction-Twitter-Main.sol\":2428:2442  tweets[_owner] */\n      0xffffffffffffffffffffffffffffffffffffffff\n      and\n      0xffffffffffffffffffffffffffffffffffffffff\n      and\n      dup2\n      mstore\n      0x20\n      add\n      swap1\n      dup2\n      mstore\n      0x20\n      add\n      0x00\n      keccak256\n        /* \"contracts/Interaction-Twitter-Main.sol\":2421:2442  return tweets[_owner] */\n      dup1\n      sload\n      dup1\n      0x20\n      mul\n      0x20\n      add\n      mload(0x40)\n      swap1\n      dup2\n      add\n      0x40\n      mstore\n      dup1\n      swap3\n      swap2\n      swap1\n      dup2\n      dup2\n      mstore\n      0x20\n      add\n      0x00\n      swap1\n    tag_81:\n      dup3\n      dup3\n      lt\n      iszero\n      tag_82\n      jumpi\n      dup4\n      dup3\n      swap1\n      0x00\n      mstore\n      keccak256(0x00, 0x20)\n      swap1\n      0x05\n      mul\n      add\n      mload(0x40)\n      dup1\n      0xa0\n      add\n      0x40\n      mstore\n      swap1\n      dup2\n      0x00\n      dup3\n      add\n      sload\n      dup2\n      mstore\n      0x20\n      add\n      0x01\n      dup3\n      add\n      0x00\n      swap1\n      sload\n      swap1\n      0x0100\n      exp\n      swap1\n      div\n      0xffffffffffffffffffffffffffffffffffffffff\n      and\n      0xffffffffffffffffffffffffffffffffffffffff\n      and\n      0xffffffffffffffffffffffffffffffffffffffff\n      and\n      dup2\n      mstore\n      0x20\n      add\n      0x02\n      dup3\n      add\n      dup1\n      sload\n      tag_84\n      swap1\n      tag_75\n      jump\t// in\n    tag_84:\n      dup1\n      0x1f\n      add\n      0x20\n      dup1\n      swap2\n      div\n      mul\n      0x20\n      add\n      mload(0x40)\n      swap1\n      dup2\n      add\n      0x40\n      mstore\n      dup1\n      swap3\n      swap2\n      swap1\n      dup2\n      dup2\n      mstore\n      0x20\n      add\n      dup3\n      dup1\n      sload\n      tag_85\n      swap1\n      tag_75\n      jump\t// in\n    tag_85:\n      dup1\n      iszero\n      tag_86\n      jumpi\n      dup1\n      0x1f\n      lt\n      tag_87\n      jumpi\n      0x0100\n      dup1\n      dup4\n      sload\n      div\n      mul\n      dup4\n      mstore\n      swap2\n      0x20\n      add\n      swap2\n      jump(tag_86)\n    tag_87:\n      dup3\n      add\n      swap2\n      swap1\n      0x00\n      mstore\n      keccak256(0x00, 0x20)\n      swap1\n    tag_88:\n      dup2\n      sload\n      dup2\n      mstore\n      swap1\n      0x01\n      add\n      swap1\n      0x20\n      add\n      dup1\n      dup4\n      gt\n      tag_88\n      jumpi\n      dup3\n      swap1\n      sub\n      0x1f\n      and\n      dup3\n      add\n      swap2\n    tag_86:\n      pop\n      pop\n      pop\n      pop\n      pop\n      dup2\n      mstore\n      0x20\n      add\n      0x03\n      dup3\n      add\n      sload\n      dup2\n      mstore\n      0x20\n      add\n      0x04\n      dup3\n      add\n      sload\n      dup2\n      mstore\n      pop\n      pop\n      dup2\n      mstore\n      0x20\n      add\n      swap1\n      0x01\n      add\n      swap1\n      jump(tag_81)\n    tag_82:\n      pop\n      pop\n      pop\n      pop\n      swap1\n      pop\n        /* \"contracts/Interaction-Twitter-Main.sol\":2336:2449  function getAllTweets(address _owner) public view returns (Tweet[] memory) {... */\n      swap2\n      swap1\n      pop\n      jump\t// out\n        /* \"contracts/Interaction-Twitter-Main.sol\":2846:3180  function unlikeTweet(address author, uint256 id) external onlyRegistered {... */\n    tag_32:\n        /* \"contracts/Interaction-Twitter-Main.sol\":1156:1199  IProfile.UserProfile memory tempUserProfile */\n      0x00\n        /* \"contracts/Interaction-Twitter-Main.sol\":1202:1217  profileContract */\n      0x01\n      0x00\n      swap1\n      sload\n      swap1\n      0x0100\n      exp\n      swap1\n      div\n      0xffffffffffffffffffffffffffffffffffffffff\n      and\n        /* \"contracts/Interaction-Twitter-Main.sol\":1202:1228  profileContract.getProfile */\n      0xffffffffffffffffffffffffffffffffffffffff\n      and\n      0x0f53a470\n        /* \"contracts/Interaction-Twitter-Main.sol\":1229:1239  msg.sender */\n      caller\n        /* \"contracts/Interaction-Twitter-Main.sol\":1202:1240  profileContract.getProfile(msg.sender) */\n      mload(0x40)\n      dup3\n      0xffffffff\n      and\n      0xe0\n      shl\n      dup2\n      mstore\n      0x04\n      add\n      tag_90\n      swap2\n      swap1\n      tag_58\n      jump\t// in\n    tag_90:\n      0x00\n      mload(0x40)\n      dup1\n      dup4\n      sub\n      dup2\n      dup7\n      gas\n      staticcall\n      iszero\n      dup1\n      iszero\n      tag_92\n      jumpi\n      returndatasize\n      0x00\n      dup1\n      returndatacopy\n      revert(0x00, returndatasize)\n    tag_92:\n      pop\n      pop\n      pop\n      pop\n      mload(0x40)\n      returndatasize\n      0x00\n      dup3\n      returndatacopy\n      returndatasize\n      not(0x1f)\n      0x1f\n      dup3\n      add\n      and\n      dup3\n      add\n      dup1\n      0x40\n      mstore\n      pop\n      dup2\n      add\n      swap1\n      tag_93\n      swap2\n      swap1\n      tag_94\n      jump\t// in\n    tag_93:\n        /* \"contracts/Interaction-Twitter-Main.sol\":1156:1240  IProfile.UserProfile memory tempUserProfile = profileContract.getProfile(msg.sender) */\n      swap1\n      pop\n        /* \"contracts/Interaction-Twitter-Main.sol\":1302:1303  0 */\n      0x00\n        /* \"contracts/Interaction-Twitter-Main.sol\":1264:1279  tempUserProfile */\n      dup2\n        /* \"contracts/Interaction-Twitter-Main.sol\":1264:1291  tempUserProfile.displayName */\n      0x00\n      add\n      mload\n        /* \"contracts/Interaction-Twitter-Main.sol\":1258:1299  bytes(tempUserProfile.displayName).length */\n      mload\n        /* \"contracts/Interaction-Twitter-Main.sol\":1258:1303  bytes(tempUserProfile.displayName).length > 0 */\n      gt\n        /* \"contracts/Interaction-Twitter-Main.sol\":1250:1327  require(bytes(tempUserProfile.displayName).length > 0, \"User not registered\") */\n      tag_95\n      jumpi\n      mload(0x40)\n      0x08c379a000000000000000000000000000000000000000000000000000000000\n      dup2\n      mstore\n      0x04\n      add\n      tag_96\n      swap1\n      tag_97\n      jump\t// in\n    tag_96:\n      mload(0x40)\n      dup1\n      swap2\n      sub\n      swap1\n      revert\n    tag_95:\n        /* \"contracts/Interaction-Twitter-Main.sol\":2962:2964  id */\n      dup2\n        /* \"contracts/Interaction-Twitter-Main.sol\":2937:2943  tweets */\n      0x02\n        /* \"contracts/Interaction-Twitter-Main.sol\":2937:2951  tweets[author] */\n      0x00\n        /* \"contracts/Interaction-Twitter-Main.sol\":2944:2950  author */\n      dup6\n        /* \"contracts/Interaction-Twitter-Main.sol\":2937:2951  tweets[author] */\n      0xffffffffffffffffffffffffffffffffffffffff\n      and\n      0xffffffffffffffffffffffffffffffffffffffff\n      and\n      dup2\n      mstore\n      0x20\n      add\n      swap1\n      dup2\n      mstore\n      0x20\n      add\n      0x00\n      keccak256\n        /* \"contracts/Interaction-Twitter-Main.sol\":2952:2954  id */\n      dup4\n        /* \"contracts/Interaction-Twitter-Main.sol\":2937:2955  tweets[author][id] */\n      dup2\n      sload\n      dup2\n      lt\n      tag_99\n      jumpi\n      tag_100\n      tag_101\n      jump\t// in\n    tag_100:\n    tag_99:\n      swap1\n      0x00\n      mstore\n      keccak256(0x00, 0x20)\n      swap1\n      0x05\n      mul\n      add\n        /* \"contracts/Interaction-Twitter-Main.sol\":2937:2958  tweets[author][id].id */\n      0x00\n      add\n      sload\n        /* \"contracts/Interaction-Twitter-Main.sol\":2937:2964  tweets[author][id].id == id */\n      eq\n        /* \"contracts/Interaction-Twitter-Main.sol\":2929:2990  require(tweets[author][id].id == id, \"Tweet does not exists\") */\n      tag_103\n      jumpi\n      mload(0x40)\n      0x08c379a000000000000000000000000000000000000000000000000000000000\n      dup2\n      mstore\n      0x04\n      add\n      tag_104\n      swap1\n      tag_105\n      jump\t// in\n    tag_104:\n      mload(0x40)\n      dup1\n      swap2\n      sub\n      swap1\n      revert\n    tag_103:\n        /* \"contracts/Interaction-Twitter-Main.sol\":3035:3036  0 */\n      0x00\n        /* \"contracts/Interaction-Twitter-Main.sol\":3008:3014  tweets */\n      0x02\n        /* \"contracts/Interaction-Twitter-Main.sol\":3008:3022  tweets[author] */\n      0x00\n        /* \"contracts/Interaction-Twitter-Main.sol\":3015:3021  author */\n      dup6\n        /* \"contracts/Interaction-Twitter-Main.sol\":3008:3022  tweets[author] */\n      0xffffffffffffffffffffffffffffffffffffffff\n      and\n      0xffffffffffffffffffffffffffffffffffffffff\n      and\n      dup2\n      mstore\n      0x20\n      add\n      swap1\n      dup2\n      mstore\n      0x20\n      add\n      0x00\n      keccak256\n        /* \"contracts/Interaction-Twitter-Main.sol\":3023:3025  id */\n      dup4\n        /* \"contracts/Interaction-Twitter-Main.sol\":3008:3026  tweets[author][id] */\n      dup2\n      sload\n      dup2\n      lt\n      tag_106\n      jumpi\n      tag_107\n      tag_101\n      jump\t// in\n    tag_107:\n    tag_106:\n      swap1\n      0x00\n      mstore\n      keccak256(0x00, 0x20)\n      swap1\n      0x05\n      mul\n      add\n        /* \"contracts/Interaction-Twitter-Main.sol\":3008:3032  tweets[author][id].likes */\n      0x04\n      add\n      sload\n        /* \"contracts/Interaction-Twitter-Main.sol\":3008:3036  tweets[author][id].likes > 0 */\n      gt\n        /* \"contracts/Interaction-Twitter-Main.sol\":3000:3059  require(tweets[author][id].likes > 0, \"Tweet has no Likes\") */\n      tag_109\n      jumpi\n      mload(0x40)\n      0x08c379a000000000000000000000000000000000000000000000000000000000\n      dup2\n      mstore\n      0x04\n      add\n      tag_110\n      swap1\n      tag_111\n      jump\t// in\n    tag_110:\n      mload(0x40)\n      dup1\n      swap2\n      sub\n      swap1\n      revert\n    tag_109:\n        /* \"contracts/Interaction-Twitter-Main.sol\":3069:3075  tweets */\n      0x02\n        /* \"contracts/Interaction-Twitter-Main.sol\":3069:3083  tweets[author] */\n      0x00\n        /* \"contracts/Interaction-Twitter-Main.sol\":3076:3082  author */\n      dup5\n        /* \"contracts/Interaction-Twitter-Main.sol\":3069:3083  tweets[author] */\n      0xffffffffffffffffffffffffffffffffffffffff\n      and\n      0xffffffffffffffffffffffffffffffffffffffff\n      and\n      dup2\n      mstore\n      0x20\n      add\n      swap1\n      dup2\n      mstore\n      0x20\n      add\n      0x00\n      keccak256\n        /* \"contracts/Interaction-Twitter-Main.sol\":3084:3086  id */\n      dup3\n        /* \"contracts/Interaction-Twitter-Main.sol\":3069:3087  tweets[author][id] */\n      dup2\n      sload\n      dup2\n      lt\n      tag_112\n      jumpi\n      tag_113\n      tag_101\n      jump\t// in\n    tag_113:\n    tag_112:\n      swap1\n      0x00\n      mstore\n      keccak256(0x00, 0x20)\n      swap1\n      0x05\n      mul\n      add\n        /* \"contracts/Interaction-Twitter-Main.sol\":3069:3093  tweets[author][id].likes */\n      0x04\n      add\n      0x00\n        /* \"contracts/Interaction-Twitter-Main.sol\":3069:3095  tweets[author][id].likes-- */\n      dup2\n      sload\n      dup1\n      swap3\n      swap2\n      swap1\n      tag_115\n      swap1\n      tag_116\n      jump\t// in\n    tag_115:\n      swap2\n      swap1\n      pop\n      sstore\n      pop\n        /* \"contracts/Interaction-Twitter-Main.sol\":3111:3173  TweetUnliked(msg.sender, author, id, tweets[author][id].likes) */\n      0x762c2616349603ac16eba0de8e6141b79129a07ab63bd99e0a80b3a471716943\n        /* \"contracts/Interaction-Twitter-Main.sol\":3124:3134  msg.sender */\n      caller\n        /* \"contracts/Interaction-Twitter-Main.sol\":3136:3142  author */\n      dup5\n        /* \"contracts/Interaction-Twitter-Main.sol\":3144:3146  id */\n      dup5\n        /* \"contracts/Interaction-Twitter-Main.sol\":3148:3154  tweets */\n      0x02\n        /* \"contracts/Interaction-Twitter-Main.sol\":3148:3162  tweets[author] */\n      0x00\n        /* \"contracts/Interaction-Twitter-Main.sol\":3155:3161  author */\n      dup9\n        /* \"contracts/Interaction-Twitter-Main.sol\":3148:3162  tweets[author] */\n      0xffffffffffffffffffffffffffffffffffffffff\n      and\n      0xffffffffffffffffffffffffffffffffffffffff\n      and\n      dup2\n      mstore\n      0x20\n      add\n      swap1\n      dup2\n      mstore\n      0x20\n      add\n      0x00\n      keccak256\n        /* \"contracts/Interaction-Twitter-Main.sol\":3163:3165  id */\n      dup7\n        /* \"contracts/Interaction-Twitter-Main.sol\":3148:3166  tweets[author][id] */\n      dup2\n      sload\n      dup2\n      lt\n      tag_117\n      jumpi\n      tag_118\n      tag_101\n      jump\t// in\n    tag_118:\n    tag_117:\n      swap1\n      0x00\n      mstore\n      keccak256(0x00, 0x20)\n      swap1\n      0x05\n      mul\n      add\n        /* \"contracts/Interaction-Twitter-Main.sol\":3148:3172  tweets[author][id].likes */\n      0x04\n      add\n      sload\n        /* \"contracts/Interaction-Twitter-Main.sol\":3111:3173  TweetUnliked(msg.sender, author, id, tweets[author][id].likes) */\n      mload(0x40)\n      tag_120\n      swap5\n      swap4\n      swap3\n      swap2\n      swap1\n      tag_121\n      jump\t// in\n    tag_120:\n      mload(0x40)\n      dup1\n      swap2\n      sub\n      swap1\n      log1\n        /* \"contracts/Interaction-Twitter-Main.sol\":1146:1345  {... */\n      pop\n        /* \"contracts/Interaction-Twitter-Main.sol\":2846:3180  function unlikeTweet(address author, uint256 id) external onlyRegistered {... */\n      pop\n      pop\n      jump\t// out\n        /* \"contracts/Interaction-Twitter-Main.sol\":2455:2572  function changeTweetLength(uint16 newTweetLength) public onlyOwner {... */\n    tag_36:\n        /* \"@openzeppelin/contracts/access/Ownable.sol\":1531:1544  _checkOwner() */\n      tag_123\n        /* \"@openzeppelin/contracts/access/Ownable.sol\":1531:1542  _checkOwner */\n      tag_124\n        /* \"@openzeppelin/contracts/access/Ownable.sol\":1531:1544  _checkOwner() */\n      jump\t// in\n    tag_123:\n        /* \"contracts/Interaction-Twitter-Main.sol\":2551:2565  newTweetLength */\n      dup1\n        /* \"contracts/Interaction-Twitter-Main.sol\":2532:2548  MAX_TWEET_LENGTH */\n      0x01\n      0x14\n        /* \"contracts/Interaction-Twitter-Main.sol\":2532:2565  MAX_TWEET_LENGTH = newTweetLength */\n      0x0100\n      exp\n      dup2\n      sload\n      dup2\n      0xffff\n      mul\n      not\n      and\n      swap1\n      dup4\n      0xffff\n      and\n      mul\n      or\n      swap1\n      sstore\n      pop\n        /* \"contracts/Interaction-Twitter-Main.sol\":2455:2572  function changeTweetLength(uint16 newTweetLength) public onlyOwner {... */\n      pop\n      jump\t// out\n        /* \"contracts/Interaction-Twitter-Main.sol\":2578:2840  function likeTweet( address author, uint256 id) external onlyRegistered {... */\n    tag_39:\n        /* \"contracts/Interaction-Twitter-Main.sol\":1156:1199  IProfile.UserProfile memory tempUserProfile */\n      0x00\n        /* \"contracts/Interaction-Twitter-Main.sol\":1202:1217  profileContract */\n      0x01\n      0x00\n      swap1\n      sload\n      swap1\n      0x0100\n      exp\n      swap1\n      div\n      0xffffffffffffffffffffffffffffffffffffffff\n      and\n        /* \"contracts/Interaction-Twitter-Main.sol\":1202:1228  profileContract.getProfile */\n      0xffffffffffffffffffffffffffffffffffffffff\n      and\n      0x0f53a470\n        /* \"contracts/Interaction-Twitter-Main.sol\":1229:1239  msg.sender */\n      caller\n        /* \"contracts/Interaction-Twitter-Main.sol\":1202:1240  profileContract.getProfile(msg.sender) */\n      mload(0x40)\n      dup3\n      0xffffffff\n      and\n      0xe0\n      shl\n      dup2\n      mstore\n      0x04\n      add\n      tag_127\n      swap2\n      swap1\n      tag_58\n      jump\t// in\n    tag_127:\n      0x00\n      mload(0x40)\n      dup1\n      dup4\n      sub\n      dup2\n      dup7\n      gas\n      staticcall\n      iszero\n      dup1\n      iszero\n      tag_129\n      jumpi\n      returndatasize\n      0x00\n      dup1\n      returndatacopy\n      revert(0x00, returndatasize)\n    tag_129:\n      pop\n      pop\n      pop\n      pop\n      mload(0x40)\n      returndatasize\n      0x00\n      dup3\n      returndatacopy\n      returndatasize\n      not(0x1f)\n      0x1f\n      dup3\n      add\n      and\n      dup3\n      add\n      dup1\n      0x40\n      mstore\n      pop\n      dup2\n      add\n      swap1\n      tag_130\n      swap2\n      swap1\n      tag_94\n      jump\t// in\n    tag_130:\n        /* \"contracts/Interaction-Twitter-Main.sol\":1156:1240  IProfile.UserProfile memory tempUserProfile = profileContract.getProfile(msg.sender) */\n      swap1\n      pop\n        /* \"contracts/Interaction-Twitter-Main.sol\":1302:1303  0 */\n      0x00\n        /* \"contracts/Interaction-Twitter-Main.sol\":1264:1279  tempUserProfile */\n      dup2\n        /* \"contracts/Interaction-Twitter-Main.sol\":1264:1291  tempUserProfile.displayName */\n      0x00\n      add\n      mload\n        /* \"contracts/Interaction-Twitter-Main.sol\":1258:1299  bytes(tempUserProfile.displayName).length */\n      mload\n        /* \"contracts/Interaction-Twitter-Main.sol\":1258:1303  bytes(tempUserProfile.displayName).length > 0 */\n      gt\n        /* \"contracts/Interaction-Twitter-Main.sol\":1250:1327  require(bytes(tempUserProfile.displayName).length > 0, \"User not registered\") */\n      tag_131\n      jumpi\n      mload(0x40)\n      0x08c379a000000000000000000000000000000000000000000000000000000000\n      dup2\n      mstore\n      0x04\n      add\n      tag_132\n      swap1\n      tag_97\n      jump\t// in\n    tag_132:\n      mload(0x40)\n      dup1\n      swap2\n      sub\n      swap1\n      revert\n    tag_131:\n        /* \"contracts/Interaction-Twitter-Main.sol\":2693:2695  id */\n      dup2\n        /* \"contracts/Interaction-Twitter-Main.sol\":2668:2674  tweets */\n      0x02\n        /* \"contracts/Interaction-Twitter-Main.sol\":2668:2682  tweets[author] */\n      0x00\n        /* \"contracts/Interaction-Twitter-Main.sol\":2675:2681  author */\n      dup6\n        /* \"contracts/Interaction-Twitter-Main.sol\":2668:2682  tweets[author] */\n      0xffffffffffffffffffffffffffffffffffffffff\n      and\n      0xffffffffffffffffffffffffffffffffffffffff\n      and\n      dup2\n      mstore\n      0x20\n      add\n      swap1\n      dup2\n      mstore\n      0x20\n      add\n      0x00\n      keccak256\n        /* \"contracts/Interaction-Twitter-Main.sol\":2683:2685  id */\n      dup4\n        /* \"contracts/Interaction-Twitter-Main.sol\":2668:2686  tweets[author][id] */\n      dup2\n      sload\n      dup2\n      lt\n      tag_134\n      jumpi\n      tag_135\n      tag_101\n      jump\t// in\n    tag_135:\n    tag_134:\n      swap1\n      0x00\n      mstore\n      keccak256(0x00, 0x20)\n      swap1\n      0x05\n      mul\n      add\n        /* \"contracts/Interaction-Twitter-Main.sol\":2668:2689  tweets[author][id].id */\n      0x00\n      add\n      sload\n        /* \"contracts/Interaction-Twitter-Main.sol\":2668:2695  tweets[author][id].id == id */\n      eq\n        /* \"contracts/Interaction-Twitter-Main.sol\":2660:2721  require(tweets[author][id].id == id, \"Tweet does not exists\") */\n      tag_137\n      jumpi\n      mload(0x40)\n      0x08c379a000000000000000000000000000000000000000000000000000000000\n      dup2\n      mstore\n      0x04\n      add\n      tag_138\n      swap1\n      tag_105\n      jump\t// in\n    tag_138:\n      mload(0x40)\n      dup1\n      swap2\n      sub\n      swap1\n      revert\n    tag_137:\n        /* \"contracts/Interaction-Twitter-Main.sol\":2731:2737  tweets */\n      0x02\n        /* \"contracts/Interaction-Twitter-Main.sol\":2731:2745  tweets[author] */\n      0x00\n        /* \"contracts/Interaction-Twitter-Main.sol\":2738:2744  author */\n      dup5\n        /* \"contracts/Interaction-Twitter-Main.sol\":2731:2745  tweets[author] */\n      0xffffffffffffffffffffffffffffffffffffffff\n      and\n      0xffffffffffffffffffffffffffffffffffffffff\n      and\n      dup2\n      mstore\n      0x20\n      add\n      swap1\n      dup2\n      mstore\n      0x20\n      add\n      0x00\n      keccak256\n        /* \"contracts/Interaction-Twitter-Main.sol\":2746:2748  id */\n      dup3\n        /* \"contracts/Interaction-Twitter-Main.sol\":2731:2749  tweets[author][id] */\n      dup2\n      sload\n      dup2\n      lt\n      tag_139\n      jumpi\n      tag_140\n      tag_101\n      jump\t// in\n    tag_140:\n    tag_139:\n      swap1\n      0x00\n      mstore\n      keccak256(0x00, 0x20)\n      swap1\n      0x05\n      mul\n      add\n        /* \"contracts/Interaction-Twitter-Main.sol\":2731:2755  tweets[author][id].likes */\n      0x04\n      add\n      0x00\n        /* \"contracts/Interaction-Twitter-Main.sol\":2731:2757  tweets[author][id].likes++ */\n      dup2\n      sload\n      dup1\n      swap3\n      swap2\n      swap1\n      tag_142\n      swap1\n      tag_143\n      jump\t// in\n    tag_142:\n      swap2\n      swap1\n      pop\n      sstore\n      pop\n        /* \"contracts/Interaction-Twitter-Main.sol\":2773:2833  TweetLiked(msg.sender, author, id, tweets[author][id].likes) */\n      0xe8a76fc0f16d11a00d1e93b689b63d76cf60af914dd3d915375dc41d01a0c3c8\n        /* \"contracts/Interaction-Twitter-Main.sol\":2784:2794  msg.sender */\n      caller\n        /* \"contracts/Interaction-Twitter-Main.sol\":2796:2802  author */\n      dup5\n        /* \"contracts/Interaction-Twitter-Main.sol\":2804:2806  id */\n      dup5\n        /* \"contracts/Interaction-Twitter-Main.sol\":2808:2814  tweets */\n      0x02\n        /* \"contracts/Interaction-Twitter-Main.sol\":2808:2822  tweets[author] */\n      0x00\n        /* \"contracts/Interaction-Twitter-Main.sol\":2815:2821  author */\n      dup9\n        /* \"contracts/Interaction-Twitter-Main.sol\":2808:2822  tweets[author] */\n      0xffffffffffffffffffffffffffffffffffffffff\n      and\n      0xffffffffffffffffffffffffffffffffffffffff\n      and\n      dup2\n      mstore\n      0x20\n      add\n      swap1\n      dup2\n      mstore\n      0x20\n      add\n      0x00\n      keccak256\n        /* \"contracts/Interaction-Twitter-Main.sol\":2823:2825  id */\n      dup7\n        /* \"contracts/Interaction-Twitter-Main.sol\":2808:2826  tweets[author][id] */\n      dup2\n      sload\n      dup2\n      lt\n      tag_144\n      jumpi\n      tag_145\n      tag_101\n      jump\t// in\n    tag_145:\n    tag_144:\n      swap1\n      0x00\n      mstore\n      keccak256(0x00, 0x20)\n      swap1\n      0x05\n      mul\n      add\n        /* \"contracts/Interaction-Twitter-Main.sol\":2808:2832  tweets[author][id].likes */\n      0x04\n      add\n      sload\n        /* \"contracts/Interaction-Twitter-Main.sol\":2773:2833  TweetLiked(msg.sender, author, id, tweets[author][id].likes) */\n      mload(0x40)\n      tag_147\n      swap5\n      swap4\n      swap3\n      swap2\n      swap1\n      tag_121\n      jump\t// in\n    tag_147:\n      mload(0x40)\n      dup1\n      swap2\n      sub\n      swap1\n      log1\n        /* \"contracts/Interaction-Twitter-Main.sol\":1146:1345  {... */\n      pop\n        /* \"contracts/Interaction-Twitter-Main.sol\":2578:2840  function likeTweet( address author, uint256 id) external onlyRegistered {... */\n      pop\n      pop\n      jump\t// out\n        /* \"contracts/Interaction-Twitter-Main.sol\":802:839  uint16 public  MAX_TWEET_LENGTH = 280 */\n    tag_41:\n      0x01\n      0x14\n      swap1\n      sload\n      swap1\n      0x0100\n      exp\n      swap1\n      div\n      0xffff\n      and\n      dup2\n      jump\t// out\n        /* \"@openzeppelin/contracts/access/Ownable.sol\":2293:2394  function renounceOwnership() public virtual onlyOwner {... */\n    tag_45:\n        /* \"@openzeppelin/contracts/access/Ownable.sol\":1531:1544  _checkOwner() */\n      tag_149\n        /* \"@openzeppelin/contracts/access/Ownable.sol\":1531:1542  _checkOwner */\n      tag_124\n        /* \"@openzeppelin/contracts/access/Ownable.sol\":1531:1544  _checkOwner() */\n      jump\t// in\n    tag_149:\n        /* \"@openzeppelin/contracts/access/Ownable.sol\":2357:2387  _transferOwnership(address(0)) */\n      tag_151\n        /* \"@openzeppelin/contracts/access/Ownable.sol\":2384:2385  0 */\n      0x00\n        /* \"@openzeppelin/contracts/access/Ownable.sol\":2357:2375  _transferOwnership */\n      tag_152\n        /* \"@openzeppelin/contracts/access/Ownable.sol\":2357:2387  _transferOwnership(address(0)) */\n      jump\t// in\n    tag_151:\n        /* \"@openzeppelin/contracts/access/Ownable.sol\":2293:2394  function renounceOwnership() public virtual onlyOwner {... */\n      jump\t// out\n        /* \"contracts/Interaction-Twitter-Main.sol\":1570:2213  function createTweet(string memory _tweet) public onlyRegistered {     //_tweet is being stored in temporary memory... */\n    tag_49:\n        /* \"contracts/Interaction-Twitter-Main.sol\":1156:1199  IProfile.UserProfile memory tempUserProfile */\n      0x00\n        /* \"contracts/Interaction-Twitter-Main.sol\":1202:1217  profileContract */\n      0x01\n      0x00\n      swap1\n      sload\n      swap1\n      0x0100\n      exp\n      swap1\n      div\n      0xffffffffffffffffffffffffffffffffffffffff\n      and\n        /* \"contracts/Interaction-Twitter-Main.sol\":1202:1228  profileContract.getProfile */\n      0xffffffffffffffffffffffffffffffffffffffff\n      and\n      0x0f53a470\n        /* \"contracts/Interaction-Twitter-Main.sol\":1229:1239  msg.sender */\n      caller\n        /* \"contracts/Interaction-Twitter-Main.sol\":1202:1240  profileContract.getProfile(msg.sender) */\n      mload(0x40)\n      dup3\n      0xffffffff\n      and\n      0xe0\n      shl\n      dup2\n      mstore\n      0x04\n      add\n      tag_154\n      swap2\n      swap1\n      tag_58\n      jump\t// in\n    tag_154:\n      0x00\n      mload(0x40)\n      dup1\n      dup4\n      sub\n      dup2\n      dup7\n      gas\n      staticcall\n      iszero\n      dup1\n      iszero\n      tag_156\n      jumpi\n      returndatasize\n      0x00\n      dup1\n      returndatacopy\n      revert(0x00, returndatasize)\n    tag_156:\n      pop\n      pop\n      pop\n      pop\n      mload(0x40)\n      returndatasize\n      0x00\n      dup3\n      returndatacopy\n      returndatasize\n      not(0x1f)\n      0x1f\n      dup3\n      add\n      and\n      dup3\n      add\n      dup1\n      0x40\n      mstore\n      pop\n      dup2\n      add\n      swap1\n      tag_157\n      swap2\n      swap1\n      tag_94\n      jump\t// in\n    tag_157:\n        /* \"contracts/Interaction-Twitter-Main.sol\":1156:1240  IProfile.UserProfile memory tempUserProfile = profileContract.getProfile(msg.sender) */\n      swap1\n      pop\n        /* \"contracts/Interaction-Twitter-Main.sol\":1302:1303  0 */\n      0x00\n        /* \"contracts/Interaction-Twitter-Main.sol\":1264:1279  tempUserProfile */\n      dup2\n        /* \"contracts/Interaction-Twitter-Main.sol\":1264:1291  tempUserProfile.displayName */\n      0x00\n      add\n      mload\n        /* \"contracts/Interaction-Twitter-Main.sol\":1258:1299  bytes(tempUserProfile.displayName).length */\n      mload\n        /* \"contracts/Interaction-Twitter-Main.sol\":1258:1303  bytes(tempUserProfile.displayName).length > 0 */\n      gt\n        /* \"contracts/Interaction-Twitter-Main.sol\":1250:1327  require(bytes(tempUserProfile.displayName).length > 0, \"User not registered\") */\n      tag_158\n      jumpi\n      mload(0x40)\n      0x08c379a000000000000000000000000000000000000000000000000000000000\n      dup2\n      mstore\n      0x04\n      add\n      tag_159\n      swap1\n      tag_97\n      jump\t// in\n    tag_159:\n      mload(0x40)\n      dup1\n      swap2\n      sub\n      swap1\n      revert\n    tag_158:\n        /* \"contracts/Interaction-Twitter-Main.sol\":1810:1826  MAX_TWEET_LENGTH */\n      0x01\n      0x14\n      swap1\n      sload\n      swap1\n      0x0100\n      exp\n      swap1\n      div\n      0xffff\n      and\n        /* \"contracts/Interaction-Twitter-Main.sol\":1786:1826  bytes(_tweet).length <= MAX_TWEET_LENGTH */\n      0xffff\n      and\n        /* \"contracts/Interaction-Twitter-Main.sol\":1792:1798  _tweet */\n      dup3\n        /* \"contracts/Interaction-Twitter-Main.sol\":1786:1806  bytes(_tweet).length */\n      mload\n        /* \"contracts/Interaction-Twitter-Main.sol\":1786:1826  bytes(_tweet).length <= MAX_TWEET_LENGTH */\n      gt\n      iszero\n        /* \"contracts/Interaction-Twitter-Main.sol\":1778:1849  require(bytes(_tweet).length <= MAX_TWEET_LENGTH, \"Tweet is too long\" ) */\n      tag_161\n      jumpi\n      mload(0x40)\n      0x08c379a000000000000000000000000000000000000000000000000000000000\n      dup2\n      mstore\n      0x04\n      add\n      tag_162\n      swap1\n      tag_163\n      jump\t// in\n    tag_162:\n      mload(0x40)\n      dup1\n      swap2\n      sub\n      swap1\n      revert\n    tag_161:\n        /* \"contracts/Interaction-Twitter-Main.sol\":1859:1880  Tweet memory newTweet */\n      0x00\n        /* \"contracts/Interaction-Twitter-Main.sol\":1883:2066  Tweet({... */\n      mload(0x40)\n      dup1\n      0xa0\n      add\n      0x40\n      mstore\n      dup1\n        /* \"contracts/Interaction-Twitter-Main.sol\":1907:1913  tweets */\n      0x02\n        /* \"contracts/Interaction-Twitter-Main.sol\":1907:1925  tweets[msg.sender] */\n      0x00\n        /* \"contracts/Interaction-Twitter-Main.sol\":1914:1924  msg.sender */\n      caller\n        /* \"contracts/Interaction-Twitter-Main.sol\":1907:1925  tweets[msg.sender] */\n      0xffffffffffffffffffffffffffffffffffffffff\n      and\n      0xffffffffffffffffffffffffffffffffffffffff\n      and\n      dup2\n      mstore\n      0x20\n      add\n      swap1\n      dup2\n      mstore\n      0x20\n      add\n      0x00\n      keccak256\n        /* \"contracts/Interaction-Twitter-Main.sol\":1907:1932  tweets[msg.sender].length */\n      dup1\n      sload\n      swap1\n      pop\n        /* \"contracts/Interaction-Twitter-Main.sol\":1883:2066  Tweet({... */\n      dup2\n      mstore\n      0x20\n      add\n        /* \"contracts/Interaction-Twitter-Main.sol\":1954:1964  msg.sender */\n      caller\n        /* \"contracts/Interaction-Twitter-Main.sol\":1883:2066  Tweet({... */\n      0xffffffffffffffffffffffffffffffffffffffff\n      and\n      dup2\n      mstore\n      0x20\n      add\n        /* \"contracts/Interaction-Twitter-Main.sol\":1987:1993  _tweet */\n      dup5\n        /* \"contracts/Interaction-Twitter-Main.sol\":1883:2066  Tweet({... */\n      dup2\n      mstore\n      0x20\n      add\n        /* \"contracts/Interaction-Twitter-Main.sol\":2018:2033  block.timestamp */\n      timestamp\n        /* \"contracts/Interaction-Twitter-Main.sol\":1883:2066  Tweet({... */\n      dup2\n      mstore\n      0x20\n      add\n        /* \"contracts/Interaction-Twitter-Main.sol\":2054:2055  0 */\n      0x00\n        /* \"contracts/Interaction-Twitter-Main.sol\":1883:2066  Tweet({... */\n      dup2\n      mstore\n      pop\n        /* \"contracts/Interaction-Twitter-Main.sol\":1859:2066  Tweet memory newTweet = Tweet({... */\n      swap1\n      pop\n        /* \"contracts/Interaction-Twitter-Main.sol\":2077:2083  tweets */\n      0x02\n        /* \"contracts/Interaction-Twitter-Main.sol\":2077:2095  tweets[msg.sender] */\n      0x00\n        /* \"contracts/Interaction-Twitter-Main.sol\":2084:2094  msg.sender */\n      caller\n        /* \"contracts/Interaction-Twitter-Main.sol\":2077:2095  tweets[msg.sender] */\n      0xffffffffffffffffffffffffffffffffffffffff\n      and\n      0xffffffffffffffffffffffffffffffffffffffff\n      and\n      dup2\n      mstore\n      0x20\n      add\n      swap1\n      dup2\n      mstore\n      0x20\n      add\n      0x00\n      keccak256\n        /* \"contracts/Interaction-Twitter-Main.sol\":2101:2109  newTweet */\n      dup2\n        /* \"contracts/Interaction-Twitter-Main.sol\":2077:2110  tweets[msg.sender].push(newTweet) */\n      swap1\n      dup1\n      0x01\n      dup2\n      sload\n      add\n      dup1\n      dup3\n      sstore\n      dup1\n      swap2\n      pop\n      pop\n      0x01\n      swap1\n      sub\n      swap1\n      0x00\n      mstore\n      keccak256(0x00, 0x20)\n      swap1\n      0x05\n      mul\n      add\n      0x00\n      swap1\n      swap2\n      swap1\n      swap2\n      swap1\n      swap2\n      pop\n      0x00\n      dup3\n      add\n      mload\n      dup2\n      0x00\n      add\n      sstore\n      0x20\n      dup3\n      add\n      mload\n      dup2\n      0x01\n      add\n      exp(0x0100, 0x00)\n      dup2\n      sload\n      dup2\n      0xffffffffffffffffffffffffffffffffffffffff\n      mul\n      not\n      and\n      swap1\n      dup4\n      0xffffffffffffffffffffffffffffffffffffffff\n      and\n      mul\n      or\n      swap1\n      sstore\n      pop\n      0x40\n      dup3\n      add\n      mload\n      dup2\n      0x02\n      add\n      swap1\n      dup2\n      tag_165\n      swap2\n      swap1\n      tag_166\n      jump\t// in\n    tag_165:\n      pop\n      0x60\n      dup3\n      add\n      mload\n      dup2\n      0x03\n      add\n      sstore\n      0x80\n      dup3\n      add\n      mload\n      dup2\n      0x04\n      add\n      sstore\n      pop\n      pop\n        /* \"contracts/Interaction-Twitter-Main.sol\":2126:2206  TweetCreated(newTweet.id, newTweet.author, newTweet.content, newTweet.timestamp) */\n      0x16fd3c13e9d46923e0a8bce11c7b473ec508a72e6c96cd2404b29ce972afc29e\n        /* \"contracts/Interaction-Twitter-Main.sol\":2139:2147  newTweet */\n      dup2\n        /* \"contracts/Interaction-Twitter-Main.sol\":2139:2150  newTweet.id */\n      0x00\n      add\n      mload\n        /* \"contracts/Interaction-Twitter-Main.sol\":2152:2160  newTweet */\n      dup3\n        /* \"contracts/Interaction-Twitter-Main.sol\":2152:2167  newTweet.author */\n      0x20\n      add\n      mload\n        /* \"contracts/Interaction-Twitter-Main.sol\":2169:2177  newTweet */\n      dup4\n        /* \"contracts/Interaction-Twitter-Main.sol\":2169:2185  newTweet.content */\n      0x40\n      add\n      mload\n        /* \"contracts/Interaction-Twitter-Main.sol\":2187:2195  newTweet */\n      dup5\n        /* \"contracts/Interaction-Twitter-Main.sol\":2187:2205  newTweet.timestamp */\n      0x60\n      add\n      mload\n        /* \"contracts/Interaction-Twitter-Main.sol\":2126:2206  TweetCreated(newTweet.id, newTweet.author, newTweet.content, newTweet.timestamp) */\n      mload(0x40)\n      tag_167\n      swap5\n      swap4\n      swap3\n      swap2\n      swap1\n      tag_168\n      jump\t// in\n    tag_167:\n      mload(0x40)\n      dup1\n      swap2\n      sub\n      swap1\n      log1\n        /* \"contracts/Interaction-Twitter-Main.sol\":1635:2213  {     //_tweet is being stored in temporary memory... */\n      pop\n        /* \"contracts/Interaction-Twitter-Main.sol\":1146:1345  {... */\n      pop\n        /* \"contracts/Interaction-Twitter-Main.sol\":1570:2213  function createTweet(string memory _tweet) public onlyRegistered {     //_tweet is being stored in temporary memory... */\n      pop\n      jump\t// out\n        /* \"contracts/Interaction-Twitter-Main.sol\":3186:3542  function getTotalLikes(address _author) external view returns (uint){... */\n    tag_52:\n        /* \"contracts/Interaction-Twitter-Main.sol\":3249:3253  uint */\n      0x00\n        /* \"contracts/Interaction-Twitter-Main.sol\":3264:3290  Tweet[] memory totalTweets */\n      dup1\n        /* \"contracts/Interaction-Twitter-Main.sol\":3293:3299  tweets */\n      0x02\n        /* \"contracts/Interaction-Twitter-Main.sol\":3293:3308  tweets[_author] */\n      0x00\n        /* \"contracts/Interaction-Twitter-Main.sol\":3300:3307  _author */\n      dup5\n        /* \"contracts/Interaction-Twitter-Main.sol\":3293:3308  tweets[_author] */\n      0xffffffffffffffffffffffffffffffffffffffff\n      and\n      0xffffffffffffffffffffffffffffffffffffffff\n      and\n      dup2\n      mstore\n      0x20\n      add\n      swap1\n      dup2\n      mstore\n      0x20\n      add\n      0x00\n      keccak256\n        /* \"contracts/Interaction-Twitter-Main.sol\":3264:3308  Tweet[] memory totalTweets = tweets[_author] */\n      dup1\n      sload\n      dup1\n      0x20\n      mul\n      0x20\n      add\n      mload(0x40)\n      swap1\n      dup2\n      add\n      0x40\n      mstore\n      dup1\n      swap3\n      swap2\n      swap1\n      dup2\n      dup2\n      mstore\n      0x20\n      add\n      0x00\n      swap1\n    tag_170:\n      dup3\n      dup3\n      lt\n      iszero\n      tag_171\n      jumpi\n      dup4\n      dup3\n      swap1\n      0x00\n      mstore\n      keccak256(0x00, 0x20)\n      swap1\n      0x05\n      mul\n      add\n      mload(0x40)\n      dup1\n      0xa0\n      add\n      0x40\n      mstore\n      swap1\n      dup2\n      0x00\n      dup3\n      add\n      sload\n      dup2\n      mstore\n      0x20\n      add\n      0x01\n      dup3\n      add\n      0x00\n      swap1\n      sload\n      swap1\n      0x0100\n      exp\n      swap1\n      div\n      0xffffffffffffffffffffffffffffffffffffffff\n      and\n      0xffffffffffffffffffffffffffffffffffffffff\n      and\n      0xffffffffffffffffffffffffffffffffffffffff\n      and\n      dup2\n      mstore\n      0x20\n      add\n      0x02\n      dup3\n      add\n      dup1\n      sload\n      tag_173\n      swap1\n      tag_75\n      jump\t// in\n    tag_173:\n      dup1\n      0x1f\n      add\n      0x20\n      dup1\n      swap2\n      div\n      mul\n      0x20\n      add\n      mload(0x40)\n      swap1\n      dup2\n      add\n      0x40\n      mstore\n      dup1\n      swap3\n      swap2\n      swap1\n      dup2\n      dup2\n      mstore\n      0x20\n      add\n      dup3\n      dup1\n      sload\n      tag_174\n      swap1\n      tag_75\n      jump\t// in\n    tag_174:\n      dup1\n      iszero\n      tag_175\n      jumpi\n      dup1\n      0x1f\n      lt\n      tag_176\n      jumpi\n      0x0100\n      dup1\n      dup4\n      sload\n      div\n      mul\n      dup4\n      mstore\n      swap2\n      0x20\n      add\n      swap2\n      jump(tag_175)\n    tag_176:\n      dup3\n      add\n      swap2\n      swap1\n      0x00\n      mstore\n      keccak256(0x00, 0x20)\n      swap1\n    tag_177:\n      dup2\n      sload\n      dup2\n      mstore\n      swap1\n      0x01\n      add\n      swap1\n      0x20\n      add\n      dup1\n      dup4\n      gt\n      tag_177\n      jumpi\n      dup3\n      swap1\n      sub\n      0x1f\n      and\n      dup3\n      add\n      swap2\n    tag_175:\n      pop\n      pop\n      pop\n      pop\n      pop\n      dup2\n      mstore\n      0x20\n      add\n      0x03\n      dup3\n      add\n      sload\n      dup2\n      mstore\n      0x20\n      add\n      0x04\n      dup3\n      add\n      sload\n      dup2\n      mstore\n      pop\n      pop\n      dup2\n      mstore\n      0x20\n      add\n      swap1\n      0x01\n      add\n      swap1\n      jump(tag_170)\n    tag_171:\n      pop\n      pop\n      pop\n      pop\n      swap1\n      pop\n        /* \"contracts/Interaction-Twitter-Main.sol\":3318:3333  uint totalLikes */\n      0x00\n        /* \"contracts/Interaction-Twitter-Main.sol\":3351:3357  uint i */\n      dup1\n        /* \"contracts/Interaction-Twitter-Main.sol\":3347:3508  for(uint i=0; i<totalTweets.length; i++) {... */\n    tag_178:\n        /* \"contracts/Interaction-Twitter-Main.sol\":3363:3374  totalTweets */\n      dup3\n        /* \"contracts/Interaction-Twitter-Main.sol\":3363:3381  totalTweets.length */\n      mload\n        /* \"contracts/Interaction-Twitter-Main.sol\":3361:3362  i */\n      dup2\n        /* \"contracts/Interaction-Twitter-Main.sol\":3361:3381  i<totalTweets.length */\n      lt\n        /* \"contracts/Interaction-Twitter-Main.sol\":3347:3508  for(uint i=0; i<totalTweets.length; i++) {... */\n      iszero\n      tag_179\n      jumpi\n        /* \"contracts/Interaction-Twitter-Main.sol\":3428:3429  0 */\n      0x00\n        /* \"contracts/Interaction-Twitter-Main.sol\":3405:3416  totalTweets */\n      dup4\n        /* \"contracts/Interaction-Twitter-Main.sol\":3417:3418  i */\n      dup3\n        /* \"contracts/Interaction-Twitter-Main.sol\":3405:3419  totalTweets[i] */\n      dup2\n      mload\n      dup2\n      lt\n      tag_181\n      jumpi\n      tag_182\n      tag_101\n      jump\t// in\n    tag_182:\n    tag_181:\n      0x20\n      mul\n      0x20\n      add\n      add\n      mload\n        /* \"contracts/Interaction-Twitter-Main.sol\":3405:3425  totalTweets[i].likes */\n      0x80\n      add\n      mload\n        /* \"contracts/Interaction-Twitter-Main.sol\":3405:3429  totalTweets[i].likes > 0 */\n      gt\n        /* \"contracts/Interaction-Twitter-Main.sol\":3402:3498  if(totalTweets[i].likes > 0) {... */\n      iszero\n      tag_183\n      jumpi\n        /* \"contracts/Interaction-Twitter-Main.sol\":3463:3474  totalTweets */\n      dup3\n        /* \"contracts/Interaction-Twitter-Main.sol\":3475:3476  i */\n      dup2\n        /* \"contracts/Interaction-Twitter-Main.sol\":3463:3477  totalTweets[i] */\n      dup2\n      mload\n      dup2\n      lt\n      tag_184\n      jumpi\n      tag_185\n      tag_101\n      jump\t// in\n    tag_185:\n    tag_184:\n      0x20\n      mul\n      0x20\n      add\n      add\n      mload\n        /* \"contracts/Interaction-Twitter-Main.sol\":3463:3483  totalTweets[i].likes */\n      0x80\n      add\n      mload\n        /* \"contracts/Interaction-Twitter-Main.sol\":3449:3483  totalLikes += totalTweets[i].likes */\n      dup3\n      tag_186\n      swap2\n      swap1\n      tag_187\n      jump\t// in\n    tag_186:\n      swap2\n      pop\n        /* \"contracts/Interaction-Twitter-Main.sol\":3402:3498  if(totalTweets[i].likes > 0) {... */\n    tag_183:\n        /* \"contracts/Interaction-Twitter-Main.sol\":3383:3386  i++ */\n      dup1\n      dup1\n      0x01\n      add\n      swap2\n      pop\n      pop\n        /* \"contracts/Interaction-Twitter-Main.sol\":3347:3508  for(uint i=0; i<totalTweets.length; i++) {... */\n      jump(tag_178)\n    tag_179:\n      pop\n        /* \"contracts/Interaction-Twitter-Main.sol\":3525:3535  totalLikes */\n      dup1\n        /* \"contracts/Interaction-Twitter-Main.sol\":3518:3535  return totalLikes */\n      swap3\n      pop\n      pop\n      pop\n        /* \"contracts/Interaction-Twitter-Main.sol\":3186:3542  function getTotalLikes(address _author) external view returns (uint){... */\n      swap2\n      swap1\n      pop\n      jump\t// out\n        /* \"@openzeppelin/contracts/access/Ownable.sol\":1638:1723  function owner() public view virtual returns (address) {... */\n    tag_56:\n        /* \"@openzeppelin/contracts/access/Ownable.sol\":1684:1691  address */\n      0x00\n        /* \"@openzeppelin/contracts/access/Ownable.sol\":1710:1716  _owner */\n      dup1\n      0x00\n      swap1\n      sload\n      swap1\n      0x0100\n      exp\n      swap1\n      div\n      0xffffffffffffffffffffffffffffffffffffffff\n      and\n        /* \"@openzeppelin/contracts/access/Ownable.sol\":1703:1716  return _owner */\n      swap1\n      pop\n        /* \"@openzeppelin/contracts/access/Ownable.sol\":1638:1723  function owner() public view virtual returns (address) {... */\n      swap1\n      jump\t// out\n        /* \"contracts/Interaction-Twitter-Main.sol\":334:365  IProfile public profileContract */\n    tag_60:\n      0x01\n      0x00\n      swap1\n      sload\n      swap1\n      0x0100\n      exp\n      swap1\n      div\n      0xffffffffffffffffffffffffffffffffffffffff\n      and\n      dup2\n      jump\t// out\n        /* \"contracts/Interaction-Twitter-Main.sol\":2219:2330  function getTweet(uint _idx) public view returns (Tweet memory){... */\n    tag_66:\n        /* \"contracts/Interaction-Twitter-Main.sol\":2269:2281  Tweet memory */\n      tag_189\n      tag_190\n      jump\t// in\n    tag_189:\n        /* \"contracts/Interaction-Twitter-Main.sol\":2299:2305  tweets */\n      0x02\n        /* \"contracts/Interaction-Twitter-Main.sol\":2299:2317  tweets[msg.sender] */\n      0x00\n        /* \"contracts/Interaction-Twitter-Main.sol\":2306:2316  msg.sender */\n      caller\n        /* \"contracts/Interaction-Twitter-Main.sol\":2299:2317  tweets[msg.sender] */\n      0xffffffffffffffffffffffffffffffffffffffff\n      and\n      0xffffffffffffffffffffffffffffffffffffffff\n      and\n      dup2\n      mstore\n      0x20\n      add\n      swap1\n      dup2\n      mstore\n      0x20\n      add\n      0x00\n      keccak256\n        /* \"contracts/Interaction-Twitter-Main.sol\":2318:2322  _idx */\n      dup3\n        /* \"contracts/Interaction-Twitter-Main.sol\":2299:2323  tweets[msg.sender][_idx] */\n      dup2\n      sload\n      dup2\n      lt\n      tag_192\n      jumpi\n      tag_193\n      tag_101\n      jump\t// in\n    tag_193:\n    tag_192:\n      swap1\n      0x00\n      mstore\n      keccak256(0x00, 0x20)\n      swap1\n      0x05\n      mul\n      add\n        /* \"contracts/Interaction-Twitter-Main.sol\":2292:2323  return tweets[msg.sender][_idx] */\n      mload(0x40)\n      dup1\n      0xa0\n      add\n      0x40\n      mstore\n      swap1\n      dup2\n      0x00\n      dup3\n      add\n      sload\n      dup2\n      mstore\n      0x20\n      add\n      0x01\n      dup3\n      add\n      0x00\n      swap1\n      sload\n      swap1\n      0x0100\n      exp\n      swap1\n      div\n      0xffffffffffffffffffffffffffffffffffffffff\n      and\n      0xffffffffffffffffffffffffffffffffffffffff\n      and\n      0xffffffffffffffffffffffffffffffffffffffff\n      and\n      dup2\n      mstore\n      0x20\n      add\n      0x02\n      dup3\n      add\n      dup1\n      sload\n      tag_195\n      swap1\n      tag_75\n      jump\t// in\n    tag_195:\n      dup1\n      0x1f\n      add\n      0x20\n      dup1\n      swap2\n      div\n      mul\n      0x20\n      add\n      mload(0x40)\n      swap1\n      dup2\n      add\n      0x40\n      mstore\n      dup1\n      swap3\n      swap2\n      swap1\n      dup2\n      dup2\n      mstore\n      0x20\n      add\n      dup3\n      dup1\n      sload\n      tag_196\n      swap1\n      tag_75\n      jump\t// in\n    tag_196:\n      dup1\n      iszero\n      tag_197\n      jumpi\n      dup1\n      0x1f\n      lt\n      tag_198\n      jumpi\n      0x0100\n      dup1\n      dup4\n      sload\n      div\n      mul\n      dup4\n      mstore\n      swap2\n      0x20\n      add\n      swap2\n      jump(tag_197)\n    tag_198:\n      dup3\n      add\n      swap2\n      swap1\n      0x00\n      mstore\n      keccak256(0x00, 0x20)\n      swap1\n    tag_199:\n      dup2\n      sload\n      dup2\n      mstore\n      swap1\n      0x01\n      add\n      swap1\n      0x20\n      add\n      dup1\n      dup4\n      gt\n      tag_199\n      jumpi\n      dup3\n      swap1\n      sub\n      0x1f\n      and\n      dup3\n      add\n      swap2\n    tag_197:\n      pop\n      pop\n      pop\n      pop\n      pop\n      dup2\n      mstore\n      0x20\n      add\n      0x03\n      dup3\n      add\n      sload\n      dup2\n      mstore\n      0x20\n      add\n      0x04\n      dup3\n      add\n      sload\n      dup2\n      mstore\n      pop\n      pop\n      swap1\n      pop\n        /* \"contracts/Interaction-Twitter-Main.sol\":2219:2330  function getTweet(uint _idx) public view returns (Tweet memory){... */\n      swap2\n      swap1\n      pop\n      jump\t// out\n        /* \"@openzeppelin/contracts/access/Ownable.sol\":2543:2758  function transferOwnership(address newOwner) public virtual onlyOwner {... */\n    tag_71:\n        /* \"@openzeppelin/contracts/access/Ownable.sol\":1531:1544  _checkOwner() */\n      tag_201\n        /* \"@openzeppelin/contracts/access/Ownable.sol\":1531:1542  _checkOwner */\n      tag_124\n        /* \"@openzeppelin/contracts/access/Ownable.sol\":1531:1544  _checkOwner() */\n      jump\t// in\n    tag_201:\n        /* \"@openzeppelin/contracts/access/Ownable.sol\":2647:2648  0 */\n      0x00\n        /* \"@openzeppelin/contracts/access/Ownable.sol\":2627:2649  newOwner == address(0) */\n      0xffffffffffffffffffffffffffffffffffffffff\n      and\n        /* \"@openzeppelin/contracts/access/Ownable.sol\":2627:2635  newOwner */\n      dup2\n        /* \"@openzeppelin/contracts/access/Ownable.sol\":2627:2649  newOwner == address(0) */\n      0xffffffffffffffffffffffffffffffffffffffff\n      and\n      sub\n        /* \"@openzeppelin/contracts/access/Ownable.sol\":2623:2714  if (newOwner == address(0)) {... */\n      tag_203\n      jumpi\n        /* \"@openzeppelin/contracts/access/Ownable.sol\":2700:2701  0 */\n      0x00\n        /* \"@openzeppelin/contracts/access/Ownable.sol\":2672:2703  OwnableInvalidOwner(address(0)) */\n      mload(0x40)\n      0x1e4fbdf700000000000000000000000000000000000000000000000000000000\n      dup2\n      mstore\n      0x04\n      add\n      tag_204\n      swap2\n      swap1\n      tag_58\n      jump\t// in\n    tag_204:\n      mload(0x40)\n      dup1\n      swap2\n      sub\n      swap1\n      revert\n        /* \"@openzeppelin/contracts/access/Ownable.sol\":2623:2714  if (newOwner == address(0)) {... */\n    tag_203:\n        /* \"@openzeppelin/contracts/access/Ownable.sol\":2723:2751  _transferOwnership(newOwner) */\n      tag_205\n        /* \"@openzeppelin/contracts/access/Ownable.sol\":2742:2750  newOwner */\n      dup2\n        /* \"@openzeppelin/contracts/access/Ownable.sol\":2723:2741  _transferOwnership */\n      tag_152\n        /* \"@openzeppelin/contracts/access/Ownable.sol\":2723:2751  _transferOwnership(newOwner) */\n      jump\t// in\n    tag_205:\n        /* \"@openzeppelin/contracts/access/Ownable.sol\":2543:2758  function transferOwnership(address newOwner) public virtual onlyOwner {... */\n      pop\n      jump\t// out\n        /* \"@openzeppelin/contracts/access/Ownable.sol\":1796:1958  function _checkOwner() internal view virtual {... */\n    tag_124:\n        /* \"@openzeppelin/contracts/access/Ownable.sol\":1866:1878  _msgSender() */\n      tag_207\n        /* \"@openzeppelin/contracts/access/Ownable.sol\":1866:1876  _msgSender */\n      tag_208\n        /* \"@openzeppelin/contracts/access/Ownable.sol\":1866:1878  _msgSender() */\n      jump\t// in\n    tag_207:\n        /* \"@openzeppelin/contracts/access/Ownable.sol\":1855:1878  owner() != _msgSender() */\n      0xffffffffffffffffffffffffffffffffffffffff\n      and\n        /* \"@openzeppelin/contracts/access/Ownable.sol\":1855:1862  owner() */\n      tag_209\n        /* \"@openzeppelin/contracts/access/Ownable.sol\":1855:1860  owner */\n      tag_56\n        /* \"@openzeppelin/contracts/access/Ownable.sol\":1855:1862  owner() */\n      jump\t// in\n    tag_209:\n        /* \"@openzeppelin/contracts/access/Ownable.sol\":1855:1878  owner() != _msgSender() */\n      0xffffffffffffffffffffffffffffffffffffffff\n      and\n      eq\n        /* \"@openzeppelin/contracts/access/Ownable.sol\":1851:1952  if (owner() != _msgSender()) {... */\n      tag_210\n      jumpi\n        /* \"@openzeppelin/contracts/access/Ownable.sol\":1928:1940  _msgSender() */\n      tag_211\n        /* \"@openzeppelin/contracts/access/Ownable.sol\":1928:1938  _msgSender */\n      tag_208\n        /* \"@openzeppelin/contracts/access/Ownable.sol\":1928:1940  _msgSender() */\n      jump\t// in\n    tag_211:\n        /* \"@openzeppelin/contracts/access/Ownable.sol\":1901:1941  OwnableUnauthorizedAccount(_msgSender()) */\n      mload(0x40)\n      0x118cdaa700000000000000000000000000000000000000000000000000000000\n      dup2\n      mstore\n      0x04\n      add\n      tag_212\n      swap2\n      swap1\n      tag_58\n      jump\t// in\n    tag_212:\n      mload(0x40)\n      dup1\n      swap2\n      sub\n      swap1\n      revert\n        /* \"@openzeppelin/contracts/access/Ownable.sol\":1851:1952  if (owner() != _msgSender()) {... */\n    tag_210:\n        /* \"@openzeppelin/contracts/access/Ownable.sol\":1796:1958  function _checkOwner() internal view virtual {... */\n      jump\t// out\n        /* \"@openzeppelin/contracts/access/Ownable.sol\":2912:3099  function _transferOwnership(address newOwner) internal virtual {... */\n    tag_152:\n        /* \"@openzeppelin/contracts/access/Ownable.sol\":2985:3001  address oldOwner */\n      0x00\n        /* \"@openzeppelin/contracts/access/Ownable.sol\":3004:3010  _owner */\n      dup1\n      0x00\n      swap1\n      sload\n      swap1\n      0x0100\n      exp\n      swap1\n      div\n      0xffffffffffffffffffffffffffffffffffffffff\n      and\n        /* \"@openzeppelin/contracts/access/Ownable.sol\":2985:3010  address oldOwner = _owner */\n      swap1\n      pop\n        /* \"@openzeppelin/contracts/access/Ownable.sol\":3029:3037  newOwner */\n      dup2\n        /* \"@openzeppelin/contracts/access/Ownable.sol\":3020:3026  _owner */\n      0x00\n      dup1\n        /* \"@openzeppelin/contracts/access/Ownable.sol\":3020:3037  _owner = newOwner */\n      0x0100\n      exp\n      dup2\n      sload\n      dup2\n      0xffffffffffffffffffffffffffffffffffffffff\n      mul\n      not\n      and\n      swap1\n      dup4\n      0xffffffffffffffffffffffffffffffffffffffff\n      and\n      mul\n      or\n      swap1\n      sstore\n      pop\n        /* \"@openzeppelin/contracts/access/Ownable.sol\":3083:3091  newOwner */\n      dup2\n        /* \"@openzeppelin/contracts/access/Ownable.sol\":3052:3092  OwnershipTransferred(oldOwner, newOwner) */\n      0xffffffffffffffffffffffffffffffffffffffff\n      and\n        /* \"@openzeppelin/contracts/access/Ownable.sol\":3073:3081  oldOwner */\n      dup2\n        /* \"@openzeppelin/contracts/access/Ownable.sol\":3052:3092  OwnershipTransferred(oldOwner, newOwner) */\n      0xffffffffffffffffffffffffffffffffffffffff\n      and\n      0x8be0079c531659141344cd1fd0a4f28419497f9722a3daafe3b4186f6b6457e0\n      mload(0x40)\n      mload(0x40)\n      dup1\n      swap2\n      sub\n      swap1\n      log3\n        /* \"@openzeppelin/contracts/access/Ownable.sol\":2975:3099  {... */\n      pop\n        /* \"@openzeppelin/contracts/access/Ownable.sol\":2912:3099  function _transferOwnership(address newOwner) internal virtual {... */\n      pop\n      jump\t// out\n        /* \"@openzeppelin/contracts/utils/Context.sol\":656:752  function _msgSender() internal view virtual returns (address) {... */\n    tag_208:\n        /* \"@openzeppelin/contracts/utils/Context.sol\":709:716  address */\n      0x00\n        /* \"@openzeppelin/contracts/utils/Context.sol\":735:745  msg.sender */\n      caller\n        /* \"@openzeppelin/contracts/utils/Context.sol\":728:745  return msg.sender */\n      swap1\n      pop\n        /* \"@openzeppelin/contracts/utils/Context.sol\":656:752  function _msgSender() internal view virtual returns (address) {... */\n      swap1\n      jump\t// out\n    tag_190:\n      mload(0x40)\n      dup1\n      0xa0\n      add\n      0x40\n      mstore\n      dup1\n      0x00\n      dup2\n      mstore\n      0x20\n      add\n      and(0xffffffffffffffffffffffffffffffffffffffff, 0x00)\n      dup2\n      mstore\n      0x20\n      add\n      0x60\n      dup2\n      mstore\n      0x20\n      add\n      0x00\n      dup2\n      mstore\n      0x20\n      add\n      0x00\n      dup2\n      mstore\n      pop\n      swap1\n      jump\t// out\n        /* \"#utility.yul\":7:82   */\n    tag_215:\n        /* \"#utility.yul\":40:46   */\n      0x00\n        /* \"#utility.yul\":73:75   */\n      0x40\n        /* \"#utility.yul\":67:76   */\n      mload\n        /* \"#utility.yul\":57:76   */\n      swap1\n      pop\n        /* \"#utility.yul\":7:82   */\n      swap1\n      jump\t// out\n        /* \"#utility.yul\":88:205   */\n    tag_216:\n        /* \"#utility.yul\":197:198   */\n      0x00\n        /* \"#utility.yul\":194:195   */\n      dup1\n        /* \"#utility.yul\":187:199   */\n      revert\n        /* \"#utility.yul\":211:328   */\n    tag_217:\n        /* \"#utility.yul\":320:321   */\n      0x00\n        /* \"#utility.yul\":317:318   */\n      dup1\n        /* \"#utility.yul\":310:322   */\n      revert\n        /* \"#utility.yul\":334:460   */\n    tag_218:\n        /* \"#utility.yul\":371:378   */\n      0x00\n        /* \"#utility.yul\":411:453   */\n      0xffffffffffffffffffffffffffffffffffffffff\n        /* \"#utility.yul\":404:409   */\n      dup3\n        /* \"#utility.yul\":400:454   */\n      and\n        /* \"#utility.yul\":389:454   */\n      swap1\n      pop\n        /* \"#utility.yul\":334:460   */\n      swap2\n      swap1\n      pop\n      jump\t// out\n        /* \"#utility.yul\":466:562   */\n    tag_219:\n        /* \"#utility.yul\":503:510   */\n      0x00\n        /* \"#utility.yul\":532:556   */\n      tag_297\n        /* \"#utility.yul\":550:555   */\n      dup3\n        /* \"#utility.yul\":532:556   */\n      tag_218\n      jump\t// in\n    tag_297:\n        /* \"#utility.yul\":521:556   */\n      swap1\n      pop\n        /* \"#utility.yul\":466:562   */\n      swap2\n      swap1\n      pop\n      jump\t// out\n        /* \"#utility.yul\":568:690   */\n    tag_220:\n        /* \"#utility.yul\":641:665   */\n      tag_299\n        /* \"#utility.yul\":659:664   */\n      dup2\n        /* \"#utility.yul\":641:665   */\n      tag_219\n      jump\t// in\n    tag_299:\n        /* \"#utility.yul\":634:639   */\n      dup2\n        /* \"#utility.yul\":631:666   */\n      eq\n        /* \"#utility.yul\":621:684   */\n      tag_300\n      jumpi\n        /* \"#utility.yul\":680:681   */\n      0x00\n        /* \"#utility.yul\":677:678   */\n      dup1\n        /* \"#utility.yul\":670:682   */\n      revert\n        /* \"#utility.yul\":621:684   */\n    tag_300:\n        /* \"#utility.yul\":568:690   */\n      pop\n      jump\t// out\n        /* \"#utility.yul\":696:835   */\n    tag_221:\n        /* \"#utility.yul\":742:747   */\n      0x00\n        /* \"#utility.yul\":780:786   */\n      dup2\n        /* \"#utility.yul\":767:787   */\n      calldataload\n        /* \"#utility.yul\":758:787   */\n      swap1\n      pop\n        /* \"#utility.yul\":796:829   */\n      tag_302\n        /* \"#utility.yul\":823:828   */\n      dup2\n        /* \"#utility.yul\":796:829   */\n      tag_220\n      jump\t// in\n    tag_302:\n        /* \"#utility.yul\":696:835   */\n      swap3\n      swap2\n      pop\n      pop\n      jump\t// out\n        /* \"#utility.yul\":841:918   */\n    tag_222:\n        /* \"#utility.yul\":878:885   */\n      0x00\n        /* \"#utility.yul\":907:912   */\n      dup2\n        /* \"#utility.yul\":896:912   */\n      swap1\n      pop\n        /* \"#utility.yul\":841:918   */\n      swap2\n      swap1\n      pop\n      jump\t// out\n        /* \"#utility.yul\":924:1046   */\n    tag_223:\n        /* \"#utility.yul\":997:1021   */\n      tag_305\n        /* \"#utility.yul\":1015:1020   */\n      dup2\n        /* \"#utility.yul\":997:1021   */\n      tag_222\n      jump\t// in\n    tag_305:\n        /* \"#utility.yul\":990:995   */\n      dup2\n        /* \"#utility.yul\":987:1022   */\n      eq\n        /* \"#utility.yul\":977:1040   */\n      tag_306\n      jumpi\n        /* \"#utility.yul\":1036:1037   */\n      0x00\n        /* \"#utility.yul\":1033:1034   */\n      dup1\n        /* \"#utility.yul\":1026:1038   */\n      revert\n        /* \"#utility.yul\":977:1040   */\n    tag_306:\n        /* \"#utility.yul\":924:1046   */\n      pop\n      jump\t// out\n        /* \"#utility.yul\":1052:1191   */\n    tag_224:\n        /* \"#utility.yul\":1098:1103   */\n      0x00\n        /* \"#utility.yul\":1136:1142   */\n      dup2\n        /* \"#utility.yul\":1123:1143   */\n      calldataload\n        /* \"#utility.yul\":1114:1143   */\n      swap1\n      pop\n        /* \"#utility.yul\":1152:1185   */\n      tag_308\n        /* \"#utility.yul\":1179:1184   */\n      dup2\n        /* \"#utility.yul\":1152:1185   */\n      tag_223\n      jump\t// in\n    tag_308:\n        /* \"#utility.yul\":1052:1191   */\n      swap3\n      swap2\n      pop\n      pop\n      jump\t// out\n        /* \"#utility.yul\":1197:1671   */\n    tag_20:\n        /* \"#utility.yul\":1265:1271   */\n      0x00\n        /* \"#utility.yul\":1273:1279   */\n      dup1\n        /* \"#utility.yul\":1322:1324   */\n      0x40\n        /* \"#utility.yul\":1310:1319   */\n      dup4\n        /* \"#utility.yul\":1301:1308   */\n      dup6\n        /* \"#utility.yul\":1297:1320   */\n      sub\n        /* \"#utility.yul\":1293:1325   */\n      slt\n        /* \"#utility.yul\":1290:1409   */\n      iszero\n      tag_310\n      jumpi\n        /* \"#utility.yul\":1328:1407   */\n      tag_311\n      tag_216\n      jump\t// in\n    tag_311:\n        /* \"#utility.yul\":1290:1409   */\n    tag_310:\n        /* \"#utility.yul\":1448:1449   */\n      0x00\n        /* \"#utility.yul\":1473:1526   */\n      tag_312\n        /* \"#utility.yul\":1518:1525   */\n      dup6\n        /* \"#utility.yul\":1509:1515   */\n      dup3\n        /* \"#utility.yul\":1498:1507   */\n      dup7\n        /* \"#utility.yul\":1494:1516   */\n      add\n        /* \"#utility.yul\":1473:1526   */\n      tag_221\n      jump\t// in\n    tag_312:\n        /* \"#utility.yul\":1463:1526   */\n      swap3\n      pop\n        /* \"#utility.yul\":1419:1536   */\n      pop\n        /* \"#utility.yul\":1575:1577   */\n      0x20\n        /* \"#utility.yul\":1601:1654   */\n      tag_313\n        /* \"#utility.yul\":1646:1653   */\n      dup6\n        /* \"#utility.yul\":1637:1643   */\n      dup3\n        /* \"#utility.yul\":1626:1635   */\n      dup7\n        /* \"#utility.yul\":1622:1644   */\n      add\n        /* \"#utility.yul\":1601:1654   */\n      tag_224\n      jump\t// in\n    tag_313:\n        /* \"#utility.yul\":1591:1654   */\n      swap2\n      pop\n        /* \"#utility.yul\":1546:1664   */\n      pop\n        /* \"#utility.yul\":1197:1671   */\n      swap3\n      pop\n      swap3\n      swap1\n      pop\n      jump\t// out\n        /* \"#utility.yul\":1677:1795   */\n    tag_225:\n        /* \"#utility.yul\":1764:1788   */\n      tag_315\n        /* \"#utility.yul\":1782:1787   */\n      dup2\n        /* \"#utility.yul\":1764:1788   */\n      tag_222\n      jump\t// in\n    tag_315:\n        /* \"#utility.yul\":1759:1762   */\n      dup3\n        /* \"#utility.yul\":1752:1789   */\n      mstore\n        /* \"#utility.yul\":1677:1795   */\n      pop\n      pop\n      jump\t// out\n        /* \"#utility.yul\":1801:1919   */\n    tag_226:\n        /* \"#utility.yul\":1888:1912   */\n      tag_317\n        /* \"#utility.yul\":1906:1911   */\n      dup2\n        /* \"#utility.yul\":1888:1912   */\n      tag_219\n      jump\t// in\n    tag_317:\n        /* \"#utility.yul\":1883:1886   */\n      dup3\n        /* \"#utility.yul\":1876:1913   */\n      mstore\n        /* \"#utility.yul\":1801:1919   */\n      pop\n      pop\n      jump\t// out\n        /* \"#utility.yul\":1925:2024   */\n    tag_227:\n        /* \"#utility.yul\":1977:1983   */\n      0x00\n        /* \"#utility.yul\":2011:2016   */\n      dup2\n        /* \"#utility.yul\":2005:2017   */\n      mload\n        /* \"#utility.yul\":1995:2017   */\n      swap1\n      pop\n        /* \"#utility.yul\":1925:2024   */\n      swap2\n      swap1\n      pop\n      jump\t// out\n        /* \"#utility.yul\":2030:2199   */\n    tag_228:\n        /* \"#utility.yul\":2114:2125   */\n      0x00\n        /* \"#utility.yul\":2148:2154   */\n      dup3\n        /* \"#utility.yul\":2143:2146   */\n      dup3\n        /* \"#utility.yul\":2136:2155   */\n      mstore\n        /* \"#utility.yul\":2188:2192   */\n      0x20\n        /* \"#utility.yul\":2183:2186   */\n      dup3\n        /* \"#utility.yul\":2179:2193   */\n      add\n        /* \"#utility.yul\":2164:2193   */\n      swap1\n      pop\n        /* \"#utility.yul\":2030:2199   */\n      swap3\n      swap2\n      pop\n      pop\n      jump\t// out\n        /* \"#utility.yul\":2205:2451   */\n    tag_229:\n        /* \"#utility.yul\":2286:2287   */\n      0x00\n        /* \"#utility.yul\":2296:2409   */\n    tag_321:\n        /* \"#utility.yul\":2310:2316   */\n      dup4\n        /* \"#utility.yul\":2307:2308   */\n      dup2\n        /* \"#utility.yul\":2304:2317   */\n      lt\n        /* \"#utility.yul\":2296:2409   */\n      iszero\n      tag_323\n      jumpi\n        /* \"#utility.yul\":2395:2396   */\n      dup1\n        /* \"#utility.yul\":2390:2393   */\n      dup3\n        /* \"#utility.yul\":2386:2397   */\n      add\n        /* \"#utility.yul\":2380:2398   */\n      mload\n        /* \"#utility.yul\":2376:2377   */\n      dup2\n        /* \"#utility.yul\":2371:2374   */\n      dup5\n        /* \"#utility.yul\":2367:2378   */\n      add\n        /* \"#utility.yul\":2360:2399   */\n      mstore\n        /* \"#utility.yul\":2332:2334   */\n      0x20\n        /* \"#utility.yul\":2329:2330   */\n      dup2\n        /* \"#utility.yul\":2325:2335   */\n      add\n        /* \"#utility.yul\":2320:2335   */\n      swap1\n      pop\n        /* \"#utility.yul\":2296:2409   */\n      jump(tag_321)\n    tag_323:\n        /* \"#utility.yul\":2443:2444   */\n      0x00\n        /* \"#utility.yul\":2434:2440   */\n      dup5\n        /* \"#utility.yul\":2429:2432   */\n      dup5\n        /* \"#utility.yul\":2425:2441   */\n      add\n        /* \"#utility.yul\":2418:2445   */\n      mstore\n        /* \"#utility.yul\":2267:2451   */\n      pop\n        /* \"#utility.yul\":2205:2451   */\n      pop\n      pop\n      pop\n      jump\t// out\n        /* \"#utility.yul\":2457:2559   */\n    tag_230:\n        /* \"#utility.yul\":2498:2504   */\n      0x00\n        /* \"#utility.yul\":2549:2551   */\n      0x1f\n        /* \"#utility.yul\":2545:2552   */\n      not\n        /* \"#utility.yul\":2540:2542   */\n      0x1f\n        /* \"#utility.yul\":2533:2538   */\n      dup4\n        /* \"#utility.yul\":2529:2543   */\n      add\n        /* \"#utility.yul\":2525:2553   */\n      and\n        /* \"#utility.yul\":2515:2553   */\n      swap1\n      pop\n        /* \"#utility.yul\":2457:2559   */\n      swap2\n      swap1\n      pop\n      jump\t// out\n        /* \"#utility.yul\":2565:2942   */\n    tag_231:\n        /* \"#utility.yul\":2653:2656   */\n      0x00\n        /* \"#utility.yul\":2681:2720   */\n      tag_326\n        /* \"#utility.yul\":2714:2719   */\n      dup3\n        /* \"#utility.yul\":2681:2720   */\n      tag_227\n      jump\t// in\n    tag_326:\n        /* \"#utility.yul\":2736:2807   */\n      tag_327\n        /* \"#utility.yul\":2800:2806   */\n      dup2\n        /* \"#utility.yul\":2795:2798   */\n      dup6\n        /* \"#utility.yul\":2736:2807   */\n      tag_228\n      jump\t// in\n    tag_327:\n        /* \"#utility.yul\":2729:2807   */\n      swap4\n      pop\n        /* \"#utility.yul\":2816:2881   */\n      tag_328\n        /* \"#utility.yul\":2874:2880   */\n      dup2\n        /* \"#utility.yul\":2869:2872   */\n      dup6\n        /* \"#utility.yul\":2862:2866   */\n      0x20\n        /* \"#utility.yul\":2855:2860   */\n      dup7\n        /* \"#utility.yul\":2851:2867   */\n      add\n        /* \"#utility.yul\":2816:2881   */\n      tag_229\n      jump\t// in\n    tag_328:\n        /* \"#utility.yul\":2906:2935   */\n      tag_329\n        /* \"#utility.yul\":2928:2934   */\n      dup2\n        /* \"#utility.yul\":2906:2935   */\n      tag_230\n      jump\t// in\n    tag_329:\n        /* \"#utility.yul\":2901:2904   */\n      dup5\n        /* \"#utility.yul\":2897:2936   */\n      add\n        /* \"#utility.yul\":2890:2936   */\n      swap2\n      pop\n        /* \"#utility.yul\":2657:2942   */\n      pop\n        /* \"#utility.yul\":2565:2942   */\n      swap3\n      swap2\n      pop\n      pop\n      jump\t// out\n        /* \"#utility.yul\":2948:3703   */\n    tag_23:\n        /* \"#utility.yul\":3173:3177   */\n      0x00\n        /* \"#utility.yul\":3211:3214   */\n      0xa0\n        /* \"#utility.yul\":3200:3209   */\n      dup3\n        /* \"#utility.yul\":3196:3215   */\n      add\n        /* \"#utility.yul\":3188:3215   */\n      swap1\n      pop\n        /* \"#utility.yul\":3225:3296   */\n      tag_331\n        /* \"#utility.yul\":3293:3294   */\n      0x00\n        /* \"#utility.yul\":3282:3291   */\n      dup4\n        /* \"#utility.yul\":3278:3295   */\n      add\n        /* \"#utility.yul\":3269:3275   */\n      dup9\n        /* \"#utility.yul\":3225:3296   */\n      tag_225\n      jump\t// in\n    tag_331:\n        /* \"#utility.yul\":3306:3378   */\n      tag_332\n        /* \"#utility.yul\":3374:3376   */\n      0x20\n        /* \"#utility.yul\":3363:3372   */\n      dup4\n        /* \"#utility.yul\":3359:3377   */\n      add\n        /* \"#utility.yul\":3350:3356   */\n      dup8\n        /* \"#utility.yul\":3306:3378   */\n      tag_226\n      jump\t// in\n    tag_332:\n        /* \"#utility.yul\":3425:3434   */\n      dup2\n        /* \"#utility.yul\":3419:3423   */\n      dup2\n        /* \"#utility.yul\":3415:3435   */\n      sub\n        /* \"#utility.yul\":3410:3412   */\n      0x40\n        /* \"#utility.yul\":3399:3408   */\n      dup4\n        /* \"#utility.yul\":3395:3413   */\n      add\n        /* \"#utility.yul\":3388:3436   */\n      mstore\n        /* \"#utility.yul\":3453:3531   */\n      tag_333\n        /* \"#utility.yul\":3526:3530   */\n      dup2\n        /* \"#utility.yul\":3517:3523   */\n      dup7\n        /* \"#utility.yul\":3453:3531   */\n      tag_231\n      jump\t// in\n    tag_333:\n        /* \"#utility.yul\":3445:3531   */\n      swap1\n      pop\n        /* \"#utility.yul\":3541:3613   */\n      tag_334\n        /* \"#utility.yul\":3609:3611   */\n      0x60\n        /* \"#utility.yul\":3598:3607   */\n      dup4\n        /* \"#utility.yul\":3594:3612   */\n      add\n        /* \"#utility.yul\":3585:3591   */\n      dup6\n        /* \"#utility.yul\":3541:3613   */\n      tag_225\n      jump\t// in\n    tag_334:\n        /* \"#utility.yul\":3623:3696   */\n      tag_335\n        /* \"#utility.yul\":3691:3694   */\n      0x80\n        /* \"#utility.yul\":3680:3689   */\n      dup4\n        /* \"#utility.yul\":3676:3695   */\n      add\n        /* \"#utility.yul\":3667:3673   */\n      dup5\n        /* \"#utility.yul\":3623:3696   */\n      tag_225\n      jump\t// in\n    tag_335:\n        /* \"#utility.yul\":2948:3703   */\n      swap7\n      swap6\n      pop\n      pop\n      pop\n      pop\n      pop\n      pop\n      jump\t// out\n        /* \"#utility.yul\":3709:4038   */\n    tag_26:\n        /* \"#utility.yul\":3768:3774   */\n      0x00\n        /* \"#utility.yul\":3817:3819   */\n      0x20\n        /* \"#utility.yul\":3805:3814   */\n      dup3\n        /* \"#utility.yul\":3796:3803   */\n      dup5\n        /* \"#utility.yul\":3792:3815   */\n      sub\n        /* \"#utility.yul\":3788:3820   */\n      slt\n        /* \"#utility.yul\":3785:3904   */\n      iszero\n      tag_337\n      jumpi\n        /* \"#utility.yul\":3823:3902   */\n      tag_338\n      tag_216\n      jump\t// in\n    tag_338:\n        /* \"#utility.yul\":3785:3904   */\n    tag_337:\n        /* \"#utility.yul\":3943:3944   */\n      0x00\n        /* \"#utility.yul\":3968:4021   */\n      tag_339\n        /* \"#utility.yul\":4013:4020   */\n      dup5\n        /* \"#utility.yul\":4004:4010   */\n      dup3\n        /* \"#utility.yul\":3993:4002   */\n      dup6\n        /* \"#utility.yul\":3989:4011   */\n      add\n        /* \"#utility.yul\":3968:4021   */\n      tag_221\n      jump\t// in\n    tag_339:\n        /* \"#utility.yul\":3958:4021   */\n      swap2\n      pop\n        /* \"#utility.yul\":3914:4031   */\n      pop\n        /* \"#utility.yul\":3709:4038   */\n      swap3\n      swap2\n      pop\n      pop\n      jump\t// out\n        /* \"#utility.yul\":4044:4180   */\n    tag_232:\n        /* \"#utility.yul\":4133:4139   */\n      0x00\n        /* \"#utility.yul\":4167:4172   */\n      dup2\n        /* \"#utility.yul\":4161:4173   */\n      mload\n        /* \"#utility.yul\":4151:4173   */\n      swap1\n      pop\n        /* \"#utility.yul\":4044:4180   */\n      swap2\n      swap1\n      pop\n      jump\t// out\n        /* \"#utility.yul\":4186:4392   */\n    tag_233:\n        /* \"#utility.yul\":4307:4318   */\n      0x00\n        /* \"#utility.yul\":4341:4347   */\n      dup3\n        /* \"#utility.yul\":4336:4339   */\n      dup3\n        /* \"#utility.yul\":4329:4348   */\n      mstore\n        /* \"#utility.yul\":4381:4385   */\n      0x20\n        /* \"#utility.yul\":4376:4379   */\n      dup3\n        /* \"#utility.yul\":4372:4386   */\n      add\n        /* \"#utility.yul\":4357:4386   */\n      swap1\n      pop\n        /* \"#utility.yul\":4186:4392   */\n      swap3\n      swap2\n      pop\n      pop\n      jump\t// out\n        /* \"#utility.yul\":4398:4552   */\n    tag_234:\n        /* \"#utility.yul\":4487:4491   */\n      0x00\n        /* \"#utility.yul\":4510:4513   */\n      dup2\n        /* \"#utility.yul\":4502:4513   */\n      swap1\n      pop\n        /* \"#utility.yul\":4540:4544   */\n      0x20\n        /* \"#utility.yul\":4535:4538   */\n      dup3\n        /* \"#utility.yul\":4531:4545   */\n      add\n        /* \"#utility.yul\":4523:4545   */\n      swap1\n      pop\n        /* \"#utility.yul\":4398:4552   */\n      swap2\n      swap1\n      pop\n      jump\t// out\n        /* \"#utility.yul\":4558:4666   */\n    tag_235:\n        /* \"#utility.yul\":4635:4659   */\n      tag_344\n        /* \"#utility.yul\":4653:4658   */\n      dup2\n        /* \"#utility.yul\":4635:4659   */\n      tag_222\n      jump\t// in\n    tag_344:\n        /* \"#utility.yul\":4630:4633   */\n      dup3\n        /* \"#utility.yul\":4623:4660   */\n      mstore\n        /* \"#utility.yul\":4558:4666   */\n      pop\n      pop\n      jump\t// out\n        /* \"#utility.yul\":4672:4780   */\n    tag_236:\n        /* \"#utility.yul\":4749:4773   */\n      tag_346\n        /* \"#utility.yul\":4767:4772   */\n      dup2\n        /* \"#utility.yul\":4749:4773   */\n      tag_219\n      jump\t// in\n    tag_346:\n        /* \"#utility.yul\":4744:4747   */\n      dup3\n        /* \"#utility.yul\":4737:4774   */\n      mstore\n        /* \"#utility.yul\":4672:4780   */\n      pop\n      pop\n      jump\t// out\n        /* \"#utility.yul\":4786:4945   */\n    tag_237:\n        /* \"#utility.yul\":4860:4871   */\n      0x00\n        /* \"#utility.yul\":4894:4900   */\n      dup3\n        /* \"#utility.yul\":4889:4892   */\n      dup3\n        /* \"#utility.yul\":4882:4901   */\n      mstore\n        /* \"#utility.yul\":4934:4938   */\n      0x20\n        /* \"#utility.yul\":4929:4932   */\n      dup3\n        /* \"#utility.yul\":4925:4939   */\n      add\n        /* \"#utility.yul\":4910:4939   */\n      swap1\n      pop\n        /* \"#utility.yul\":4786:4945   */\n      swap3\n      swap2\n      pop\n      pop\n      jump\t// out\n        /* \"#utility.yul\":4951:5308   */\n    tag_238:\n        /* \"#utility.yul\":5029:5032   */\n      0x00\n        /* \"#utility.yul\":5057:5096   */\n      tag_349\n        /* \"#utility.yul\":5090:5095   */\n      dup3\n        /* \"#utility.yul\":5057:5096   */\n      tag_227\n      jump\t// in\n    tag_349:\n        /* \"#utility.yul\":5112:5173   */\n      tag_350\n        /* \"#utility.yul\":5166:5172   */\n      dup2\n        /* \"#utility.yul\":5161:5164   */\n      dup6\n        /* \"#utility.yul\":5112:5173   */\n      tag_237\n      jump\t// in\n    tag_350:\n        /* \"#utility.yul\":5105:5173   */\n      swap4\n      pop\n        /* \"#utility.yul\":5182:5247   */\n      tag_351\n        /* \"#utility.yul\":5240:5246   */\n      dup2\n        /* \"#utility.yul\":5235:5238   */\n      dup6\n        /* \"#utility.yul\":5228:5232   */\n      0x20\n        /* \"#utility.yul\":5221:5226   */\n      dup7\n        /* \"#utility.yul\":5217:5233   */\n      add\n        /* \"#utility.yul\":5182:5247   */\n      tag_229\n      jump\t// in\n    tag_351:\n        /* \"#utility.yul\":5272:5301   */\n      tag_352\n        /* \"#utility.yul\":5294:5300   */\n      dup2\n        /* \"#utility.yul\":5272:5301   */\n      tag_230\n      jump\t// in\n    tag_352:\n        /* \"#utility.yul\":5267:5270   */\n      dup5\n        /* \"#utility.yul\":5263:5302   */\n      add\n        /* \"#utility.yul\":5256:5302   */\n      swap2\n      pop\n        /* \"#utility.yul\":5033:5308   */\n      pop\n        /* \"#utility.yul\":4951:5308   */\n      swap3\n      swap2\n      pop\n      pop\n      jump\t// out\n        /* \"#utility.yul\":5366:6487   */\n    tag_239:\n        /* \"#utility.yul\":5469:5472   */\n      0x00\n        /* \"#utility.yul\":5505:5509   */\n      0xa0\n        /* \"#utility.yul\":5500:5503   */\n      dup4\n        /* \"#utility.yul\":5496:5510   */\n      add\n        /* \"#utility.yul\":5590:5594   */\n      0x00\n        /* \"#utility.yul\":5583:5588   */\n      dup4\n        /* \"#utility.yul\":5579:5595   */\n      add\n        /* \"#utility.yul\":5573:5596   */\n      mload\n        /* \"#utility.yul\":5609:5672   */\n      tag_354\n        /* \"#utility.yul\":5666:5670   */\n      0x00\n        /* \"#utility.yul\":5661:5664   */\n      dup7\n        /* \"#utility.yul\":5657:5671   */\n      add\n        /* \"#utility.yul\":5643:5655   */\n      dup3\n        /* \"#utility.yul\":5609:5672   */\n      tag_235\n      jump\t// in\n    tag_354:\n        /* \"#utility.yul\":5520:5682   */\n      pop\n        /* \"#utility.yul\":5766:5770   */\n      0x20\n        /* \"#utility.yul\":5759:5764   */\n      dup4\n        /* \"#utility.yul\":5755:5771   */\n      add\n        /* \"#utility.yul\":5749:5772   */\n      mload\n        /* \"#utility.yul\":5785:5848   */\n      tag_355\n        /* \"#utility.yul\":5842:5846   */\n      0x20\n        /* \"#utility.yul\":5837:5840   */\n      dup7\n        /* \"#utility.yul\":5833:5847   */\n      add\n        /* \"#utility.yul\":5819:5831   */\n      dup3\n        /* \"#utility.yul\":5785:5848   */\n      tag_236\n      jump\t// in\n    tag_355:\n        /* \"#utility.yul\":5692:5858   */\n      pop\n        /* \"#utility.yul\":5943:5947   */\n      0x40\n        /* \"#utility.yul\":5936:5941   */\n      dup4\n        /* \"#utility.yul\":5932:5948   */\n      add\n        /* \"#utility.yul\":5926:5949   */\n      mload\n        /* \"#utility.yul\":5996:5999   */\n      dup5\n        /* \"#utility.yul\":5990:5994   */\n      dup3\n        /* \"#utility.yul\":5986:6000   */\n      sub\n        /* \"#utility.yul\":5979:5983   */\n      0x40\n        /* \"#utility.yul\":5974:5977   */\n      dup7\n        /* \"#utility.yul\":5970:5984   */\n      add\n        /* \"#utility.yul\":5963:6001   */\n      mstore\n        /* \"#utility.yul\":6022:6095   */\n      tag_356\n        /* \"#utility.yul\":6090:6094   */\n      dup3\n        /* \"#utility.yul\":6076:6088   */\n      dup3\n        /* \"#utility.yul\":6022:6095   */\n      tag_238\n      jump\t// in\n    tag_356:\n        /* \"#utility.yul\":6014:6095   */\n      swap2\n      pop\n        /* \"#utility.yul\":5868:6106   */\n      pop\n        /* \"#utility.yul\":6193:6197   */\n      0x60\n        /* \"#utility.yul\":6186:6191   */\n      dup4\n        /* \"#utility.yul\":6182:6198   */\n      add\n        /* \"#utility.yul\":6176:6199   */\n      mload\n        /* \"#utility.yul\":6212:6275   */\n      tag_357\n        /* \"#utility.yul\":6269:6273   */\n      0x60\n        /* \"#utility.yul\":6264:6267   */\n      dup7\n        /* \"#utility.yul\":6260:6274   */\n      add\n        /* \"#utility.yul\":6246:6258   */\n      dup3\n        /* \"#utility.yul\":6212:6275   */\n      tag_235\n      jump\t// in\n    tag_357:\n        /* \"#utility.yul\":6116:6285   */\n      pop\n        /* \"#utility.yul\":6368:6372   */\n      0x80\n        /* \"#utility.yul\":6361:6366   */\n      dup4\n        /* \"#utility.yul\":6357:6373   */\n      add\n        /* \"#utility.yul\":6351:6374   */\n      mload\n        /* \"#utility.yul\":6387:6450   */\n      tag_358\n        /* \"#utility.yul\":6444:6448   */\n      0x80\n        /* \"#utility.yul\":6439:6442   */\n      dup7\n        /* \"#utility.yul\":6435:6449   */\n      add\n        /* \"#utility.yul\":6421:6433   */\n      dup3\n        /* \"#utility.yul\":6387:6450   */\n      tag_235\n      jump\t// in\n    tag_358:\n        /* \"#utility.yul\":6295:6460   */\n      pop\n        /* \"#utility.yul\":6477:6481   */\n      dup1\n        /* \"#utility.yul\":6470:6481   */\n      swap2\n      pop\n        /* \"#utility.yul\":5474:6487   */\n      pop\n        /* \"#utility.yul\":5366:6487   */\n      swap3\n      swap2\n      pop\n      pop\n      jump\t// out\n        /* \"#utility.yul\":6493:6737   */\n    tag_240:\n        /* \"#utility.yul\":6606:6616   */\n      0x00\n        /* \"#utility.yul\":6641:6731   */\n      tag_360\n        /* \"#utility.yul\":6727:6730   */\n      dup4\n        /* \"#utility.yul\":6719:6725   */\n      dup4\n        /* \"#utility.yul\":6641:6731   */\n      tag_239\n      jump\t// in\n    tag_360:\n        /* \"#utility.yul\":6627:6731   */\n      swap1\n      pop\n        /* \"#utility.yul\":6493:6737   */\n      swap3\n      swap2\n      pop\n      pop\n      jump\t// out\n        /* \"#utility.yul\":6743:6878   */\n    tag_241:\n        /* \"#utility.yul\":6835:6839   */\n      0x00\n        /* \"#utility.yul\":6867:6871   */\n      0x20\n        /* \"#utility.yul\":6862:6865   */\n      dup3\n        /* \"#utility.yul\":6858:6872   */\n      add\n        /* \"#utility.yul\":6850:6872   */\n      swap1\n      pop\n        /* \"#utility.yul\":6743:6878   */\n      swap2\n      swap1\n      pop\n      jump\t// out\n        /* \"#utility.yul\":6940:8027   */\n    tag_242:\n        /* \"#utility.yul\":7103:7106   */\n      0x00\n        /* \"#utility.yul\":7132:7208   */\n      tag_363\n        /* \"#utility.yul\":7202:7207   */\n      dup3\n        /* \"#utility.yul\":7132:7208   */\n      tag_232\n      jump\t// in\n    tag_363:\n        /* \"#utility.yul\":7224:7332   */\n      tag_364\n        /* \"#utility.yul\":7325:7331   */\n      dup2\n        /* \"#utility.yul\":7320:7323   */\n      dup6\n        /* \"#utility.yul\":7224:7332   */\n      tag_233\n      jump\t// in\n    tag_364:\n        /* \"#utility.yul\":7217:7332   */\n      swap4\n      pop\n        /* \"#utility.yul\":7358:7361   */\n      dup4\n        /* \"#utility.yul\":7403:7407   */\n      0x20\n        /* \"#utility.yul\":7395:7401   */\n      dup3\n        /* \"#utility.yul\":7391:7408   */\n      mul\n        /* \"#utility.yul\":7386:7389   */\n      dup6\n        /* \"#utility.yul\":7382:7409   */\n      add\n        /* \"#utility.yul\":7433:7511   */\n      tag_365\n        /* \"#utility.yul\":7505:7510   */\n      dup6\n        /* \"#utility.yul\":7433:7511   */\n      tag_234\n      jump\t// in\n    tag_365:\n        /* \"#utility.yul\":7534:7541   */\n      dup1\n        /* \"#utility.yul\":7565:7566   */\n      0x00\n        /* \"#utility.yul\":7550:7982   */\n    tag_366:\n        /* \"#utility.yul\":7575:7581   */\n      dup6\n        /* \"#utility.yul\":7572:7573   */\n      dup2\n        /* \"#utility.yul\":7569:7582   */\n      lt\n        /* \"#utility.yul\":7550:7982   */\n      iszero\n      tag_368\n      jumpi\n        /* \"#utility.yul\":7646:7655   */\n      dup5\n        /* \"#utility.yul\":7640:7644   */\n      dup5\n        /* \"#utility.yul\":7636:7656   */\n      sub\n        /* \"#utility.yul\":7631:7634   */\n      dup10\n        /* \"#utility.yul\":7624:7657   */\n      mstore\n        /* \"#utility.yul\":7697:7703   */\n      dup2\n        /* \"#utility.yul\":7691:7704   */\n      mload\n        /* \"#utility.yul\":7725:7833   */\n      tag_369\n        /* \"#utility.yul\":7828:7832   */\n      dup6\n        /* \"#utility.yul\":7813:7826   */\n      dup3\n        /* \"#utility.yul\":7725:7833   */\n      tag_240\n      jump\t// in\n    tag_369:\n        /* \"#utility.yul\":7717:7833   */\n      swap5\n      pop\n        /* \"#utility.yul\":7856:7938   */\n      tag_370\n        /* \"#utility.yul\":7931:7937   */\n      dup4\n        /* \"#utility.yul\":7856:7938   */\n      tag_241\n      jump\t// in\n    tag_370:\n        /* \"#utility.yul\":7846:7938   */\n      swap3\n      pop\n        /* \"#utility.yul\":7967:7971   */\n      0x20\n        /* \"#utility.yul\":7962:7965   */\n      dup11\n        /* \"#utility.yul\":7958:7972   */\n      add\n        /* \"#utility.yul\":7951:7972   */\n      swap10\n      pop\n        /* \"#utility.yul\":7610:7982   */\n      pop\n        /* \"#utility.yul\":7597:7598   */\n      0x01\n        /* \"#utility.yul\":7594:7595   */\n      dup2\n        /* \"#utility.yul\":7590:7599   */\n      add\n        /* \"#utility.yul\":7585:7599   */\n      swap1\n      pop\n        /* \"#utility.yul\":7550:7982   */\n      jump(tag_366)\n    tag_368:\n        /* \"#utility.yul\":7554:7568   */\n      pop\n        /* \"#utility.yul\":7998:8002   */\n      dup3\n        /* \"#utility.yul\":7991:8002   */\n      swap8\n      pop\n        /* \"#utility.yul\":8018:8021   */\n      dup8\n        /* \"#utility.yul\":8011:8021   */\n      swap6\n      pop\n        /* \"#utility.yul\":7108:8027   */\n      pop\n      pop\n      pop\n      pop\n      pop\n        /* \"#utility.yul\":6940:8027   */\n      swap3\n      swap2\n      pop\n      pop\n      jump\t// out\n        /* \"#utility.yul\":8033:8494   */\n    tag_29:\n        /* \"#utility.yul\":8220:8224   */\n      0x00\n        /* \"#utility.yul\":8258:8260   */\n      0x20\n        /* \"#utility.yul\":8247:8256   */\n      dup3\n        /* \"#utility.yul\":8243:8261   */\n      add\n        /* \"#utility.yul\":8235:8261   */\n      swap1\n      pop\n        /* \"#utility.yul\":8307:8316   */\n      dup2\n        /* \"#utility.yul\":8301:8305   */\n      dup2\n        /* \"#utility.yul\":8297:8317   */\n      sub\n        /* \"#utility.yul\":8293:8294   */\n      0x00\n        /* \"#utility.yul\":8282:8291   */\n      dup4\n        /* \"#utility.yul\":8278:8295   */\n      add\n        /* \"#utility.yul\":8271:8318   */\n      mstore\n        /* \"#utility.yul\":8335:8487   */\n      tag_372\n        /* \"#utility.yul\":8482:8486   */\n      dup2\n        /* \"#utility.yul\":8473:8479   */\n      dup5\n        /* \"#utility.yul\":8335:8487   */\n      tag_242\n      jump\t// in\n    tag_372:\n        /* \"#utility.yul\":8327:8487   */\n      swap1\n      pop\n        /* \"#utility.yul\":8033:8494   */\n      swap3\n      swap2\n      pop\n      pop\n      jump\t// out\n        /* \"#utility.yul\":8500:8589   */\n    tag_243:\n        /* \"#utility.yul\":8536:8543   */\n      0x00\n        /* \"#utility.yul\":8576:8582   */\n      0xffff\n        /* \"#utility.yul\":8569:8574   */\n      dup3\n        /* \"#utility.yul\":8565:8583   */\n      and\n        /* \"#utility.yul\":8554:8583   */\n      swap1\n      pop\n        /* \"#utility.yul\":8500:8589   */\n      swap2\n      swap1\n      pop\n      jump\t// out\n        /* \"#utility.yul\":8595:8715   */\n    tag_244:\n        /* \"#utility.yul\":8667:8690   */\n      tag_375\n        /* \"#utility.yul\":8684:8689   */\n      dup2\n        /* \"#utility.yul\":8667:8690   */\n      tag_243\n      jump\t// in\n    tag_375:\n        /* \"#utility.yul\":8660:8665   */\n      dup2\n        /* \"#utility.yul\":8657:8691   */\n      eq\n        /* \"#utility.yul\":8647:8709   */\n      tag_376\n      jumpi\n        /* \"#utility.yul\":8705:8706   */\n      0x00\n        /* \"#utility.yul\":8702:8703   */\n      dup1\n        /* \"#utility.yul\":8695:8707   */\n      revert\n        /* \"#utility.yul\":8647:8709   */\n    tag_376:\n        /* \"#utility.yul\":8595:8715   */\n      pop\n      jump\t// out\n        /* \"#utility.yul\":8721:8858   */\n    tag_245:\n        /* \"#utility.yul\":8766:8771   */\n      0x00\n        /* \"#utility.yul\":8804:8810   */\n      dup2\n        /* \"#utility.yul\":8791:8811   */\n      calldataload\n        /* \"#utility.yul\":8782:8811   */\n      swap1\n      pop\n        /* \"#utility.yul\":8820:8852   */\n      tag_378\n        /* \"#utility.yul\":8846:8851   */\n      dup2\n        /* \"#utility.yul\":8820:8852   */\n      tag_244\n      jump\t// in\n    tag_378:\n        /* \"#utility.yul\":8721:8858   */\n      swap3\n      swap2\n      pop\n      pop\n      jump\t// out\n        /* \"#utility.yul\":8864:9191   */\n    tag_35:\n        /* \"#utility.yul\":8922:8928   */\n      0x00\n        /* \"#utility.yul\":8971:8973   */\n      0x20\n        /* \"#utility.yul\":8959:8968   */\n      dup3\n        /* \"#utility.yul\":8950:8957   */\n      dup5\n        /* \"#utility.yul\":8946:8969   */\n      sub\n        /* \"#utility.yul\":8942:8974   */\n      slt\n        /* \"#utility.yul\":8939:9058   */\n      iszero\n      tag_380\n      jumpi\n        /* \"#utility.yul\":8977:9056   */\n      tag_381\n      tag_216\n      jump\t// in\n    tag_381:\n        /* \"#utility.yul\":8939:9058   */\n    tag_380:\n        /* \"#utility.yul\":9097:9098   */\n      0x00\n        /* \"#utility.yul\":9122:9174   */\n      tag_382\n        /* \"#utility.yul\":9166:9173   */\n      dup5\n        /* \"#utility.yul\":9157:9163   */\n      dup3\n        /* \"#utility.yul\":9146:9155   */\n      dup6\n        /* \"#utility.yul\":9142:9164   */\n      add\n        /* \"#utility.yul\":9122:9174   */\n      tag_245\n      jump\t// in\n    tag_382:\n        /* \"#utility.yul\":9112:9174   */\n      swap2\n      pop\n        /* \"#utility.yul\":9068:9184   */\n      pop\n        /* \"#utility.yul\":8864:9191   */\n      swap3\n      swap2\n      pop\n      pop\n      jump\t// out\n        /* \"#utility.yul\":9197:9312   */\n    tag_246:\n        /* \"#utility.yul\":9282:9305   */\n      tag_384\n        /* \"#utility.yul\":9299:9304   */\n      dup2\n        /* \"#utility.yul\":9282:9305   */\n      tag_243\n      jump\t// in\n    tag_384:\n        /* \"#utility.yul\":9277:9280   */\n      dup3\n        /* \"#utility.yul\":9270:9306   */\n      mstore\n        /* \"#utility.yul\":9197:9312   */\n      pop\n      pop\n      jump\t// out\n        /* \"#utility.yul\":9318:9536   */\n    tag_43:\n        /* \"#utility.yul\":9409:9413   */\n      0x00\n        /* \"#utility.yul\":9447:9449   */\n      0x20\n        /* \"#utility.yul\":9436:9445   */\n      dup3\n        /* \"#utility.yul\":9432:9450   */\n      add\n        /* \"#utility.yul\":9424:9450   */\n      swap1\n      pop\n        /* \"#utility.yul\":9460:9529   */\n      tag_386\n        /* \"#utility.yul\":9526:9527   */\n      0x00\n        /* \"#utility.yul\":9515:9524   */\n      dup4\n        /* \"#utility.yul\":9511:9528   */\n      add\n        /* \"#utility.yul\":9502:9508   */\n      dup5\n        /* \"#utility.yul\":9460:9529   */\n      tag_246\n      jump\t// in\n    tag_386:\n        /* \"#utility.yul\":9318:9536   */\n      swap3\n      swap2\n      pop\n      pop\n      jump\t// out\n        /* \"#utility.yul\":9542:9659   */\n    tag_247:\n        /* \"#utility.yul\":9651:9652   */\n      0x00\n        /* \"#utility.yul\":9648:9649   */\n      dup1\n        /* \"#utility.yul\":9641:9653   */\n      revert\n        /* \"#utility.yul\":9665:9782   */\n    tag_248:\n        /* \"#utility.yul\":9774:9775   */\n      0x00\n        /* \"#utility.yul\":9771:9772   */\n      dup1\n        /* \"#utility.yul\":9764:9776   */\n      revert\n        /* \"#utility.yul\":9788:9968   */\n    tag_249:\n        /* \"#utility.yul\":9836:9913   */\n      0x4e487b7100000000000000000000000000000000000000000000000000000000\n        /* \"#utility.yul\":9833:9834   */\n      0x00\n        /* \"#utility.yul\":9826:9914   */\n      mstore\n        /* \"#utility.yul\":9933:9937   */\n      0x41\n        /* \"#utility.yul\":9930:9931   */\n      0x04\n        /* \"#utility.yul\":9923:9938   */\n      mstore\n        /* \"#utility.yul\":9957:9961   */\n      0x24\n        /* \"#utility.yul\":9954:9955   */\n      0x00\n        /* \"#utility.yul\":9947:9962   */\n      revert\n        /* \"#utility.yul\":9974:10255   */\n    tag_250:\n        /* \"#utility.yul\":10057:10084   */\n      tag_391\n        /* \"#utility.yul\":10079:10083   */\n      dup3\n        /* \"#utility.yul\":10057:10084   */\n      tag_230\n      jump\t// in\n    tag_391:\n        /* \"#utility.yul\":10049:10055   */\n      dup2\n        /* \"#utility.yul\":10045:10085   */\n      add\n        /* \"#utility.yul\":10187:10193   */\n      dup2\n        /* \"#utility.yul\":10175:10185   */\n      dup2\n        /* \"#utility.yul\":10172:10194   */\n      lt\n        /* \"#utility.yul\":10151:10169   */\n      0xffffffffffffffff\n        /* \"#utility.yul\":10139:10149   */\n      dup3\n        /* \"#utility.yul\":10136:10170   */\n      gt\n        /* \"#utility.yul\":10133:10195   */\n      or\n        /* \"#utility.yul\":10130:10218   */\n      iszero\n      tag_392\n      jumpi\n        /* \"#utility.yul\":10198:10216   */\n      tag_393\n      tag_249\n      jump\t// in\n    tag_393:\n        /* \"#utility.yul\":10130:10218   */\n    tag_392:\n        /* \"#utility.yul\":10238:10248   */\n      dup1\n        /* \"#utility.yul\":10234:10236   */\n      0x40\n        /* \"#utility.yul\":10227:10249   */\n      mstore\n        /* \"#utility.yul\":10017:10255   */\n      pop\n        /* \"#utility.yul\":9974:10255   */\n      pop\n      pop\n      jump\t// out\n        /* \"#utility.yul\":10261:10390   */\n    tag_251:\n        /* \"#utility.yul\":10295:10301   */\n      0x00\n        /* \"#utility.yul\":10322:10342   */\n      tag_395\n      tag_215\n      jump\t// in\n    tag_395:\n        /* \"#utility.yul\":10312:10342   */\n      swap1\n      pop\n        /* \"#utility.yul\":10351:10384   */\n      tag_396\n        /* \"#utility.yul\":10379:10383   */\n      dup3\n        /* \"#utility.yul\":10371:10377   */\n      dup3\n        /* \"#utility.yul\":10351:10384   */\n      tag_250\n      jump\t// in\n    tag_396:\n        /* \"#utility.yul\":10261:10390   */\n      swap2\n      swap1\n      pop\n      jump\t// out\n        /* \"#utility.yul\":10396:10704   */\n    tag_252:\n        /* \"#utility.yul\":10458:10462   */\n      0x00\n        /* \"#utility.yul\":10548:10566   */\n      0xffffffffffffffff\n        /* \"#utility.yul\":10540:10546   */\n      dup3\n        /* \"#utility.yul\":10537:10567   */\n      gt\n        /* \"#utility.yul\":10534:10590   */\n      iszero\n      tag_398\n      jumpi\n        /* \"#utility.yul\":10570:10588   */\n      tag_399\n      tag_249\n      jump\t// in\n    tag_399:\n        /* \"#utility.yul\":10534:10590   */\n    tag_398:\n        /* \"#utility.yul\":10608:10637   */\n      tag_400\n        /* \"#utility.yul\":10630:10636   */\n      dup3\n        /* \"#utility.yul\":10608:10637   */\n      tag_230\n      jump\t// in\n    tag_400:\n        /* \"#utility.yul\":10600:10637   */\n      swap1\n      pop\n        /* \"#utility.yul\":10692:10696   */\n      0x20\n        /* \"#utility.yul\":10686:10690   */\n      dup2\n        /* \"#utility.yul\":10682:10697   */\n      add\n        /* \"#utility.yul\":10674:10697   */\n      swap1\n      pop\n        /* \"#utility.yul\":10396:10704   */\n      swap2\n      swap1\n      pop\n      jump\t// out\n        /* \"#utility.yul\":10710:10856   */\n    tag_253:\n        /* \"#utility.yul\":10807:10813   */\n      dup3\n        /* \"#utility.yul\":10802:10805   */\n      dup2\n        /* \"#utility.yul\":10797:10800   */\n      dup4\n        /* \"#utility.yul\":10784:10814   */\n      calldatacopy\n        /* \"#utility.yul\":10848:10849   */\n      0x00\n        /* \"#utility.yul\":10839:10845   */\n      dup4\n        /* \"#utility.yul\":10834:10837   */\n      dup4\n        /* \"#utility.yul\":10830:10846   */\n      add\n        /* \"#utility.yul\":10823:10850   */\n      mstore\n        /* \"#utility.yul\":10710:10856   */\n      pop\n      pop\n      pop\n      jump\t// out\n        /* \"#utility.yul\":10862:11287   */\n    tag_254:\n        /* \"#utility.yul\":10940:10945   */\n      0x00\n        /* \"#utility.yul\":10965:11031   */\n      tag_403\n        /* \"#utility.yul\":10981:11030   */\n      tag_404\n        /* \"#utility.yul\":11023:11029   */\n      dup5\n        /* \"#utility.yul\":10981:11030   */\n      tag_252\n      jump\t// in\n    tag_404:\n        /* \"#utility.yul\":10965:11031   */\n      tag_251\n      jump\t// in\n    tag_403:\n        /* \"#utility.yul\":10956:11031   */\n      swap1\n      pop\n        /* \"#utility.yul\":11054:11060   */\n      dup3\n        /* \"#utility.yul\":11047:11052   */\n      dup2\n        /* \"#utility.yul\":11040:11061   */\n      mstore\n        /* \"#utility.yul\":11092:11096   */\n      0x20\n        /* \"#utility.yul\":11085:11090   */\n      dup2\n        /* \"#utility.yul\":11081:11097   */\n      add\n        /* \"#utility.yul\":11130:11133   */\n      dup5\n        /* \"#utility.yul\":11121:11127   */\n      dup5\n        /* \"#utility.yul\":11116:11119   */\n      dup5\n        /* \"#utility.yul\":11112:11128   */\n      add\n        /* \"#utility.yul\":11109:11134   */\n      gt\n        /* \"#utility.yul\":11106:11218   */\n      iszero\n      tag_405\n      jumpi\n        /* \"#utility.yul\":11137:11216   */\n      tag_406\n      tag_248\n      jump\t// in\n    tag_406:\n        /* \"#utility.yul\":11106:11218   */\n    tag_405:\n        /* \"#utility.yul\":11227:11281   */\n      tag_407\n        /* \"#utility.yul\":11274:11280   */\n      dup5\n        /* \"#utility.yul\":11269:11272   */\n      dup3\n        /* \"#utility.yul\":11264:11267   */\n      dup6\n        /* \"#utility.yul\":11227:11281   */\n      tag_253\n      jump\t// in\n    tag_407:\n        /* \"#utility.yul\":10946:11287   */\n      pop\n        /* \"#utility.yul\":10862:11287   */\n      swap4\n      swap3\n      pop\n      pop\n      pop\n      jump\t// out\n        /* \"#utility.yul\":11307:11647   */\n    tag_255:\n        /* \"#utility.yul\":11363:11368   */\n      0x00\n        /* \"#utility.yul\":11412:11415   */\n      dup3\n        /* \"#utility.yul\":11405:11409   */\n      0x1f\n        /* \"#utility.yul\":11397:11403   */\n      dup4\n        /* \"#utility.yul\":11393:11410   */\n      add\n        /* \"#utility.yul\":11389:11416   */\n      slt\n        /* \"#utility.yul\":11379:11501   */\n      tag_409\n      jumpi\n        /* \"#utility.yul\":11420:11499   */\n      tag_410\n      tag_247\n      jump\t// in\n    tag_410:\n        /* \"#utility.yul\":11379:11501   */\n    tag_409:\n        /* \"#utility.yul\":11537:11543   */\n      dup2\n        /* \"#utility.yul\":11524:11544   */\n      calldataload\n        /* \"#utility.yul\":11562:11641   */\n      tag_411\n        /* \"#utility.yul\":11637:11640   */\n      dup5\n        /* \"#utility.yul\":11629:11635   */\n      dup3\n        /* \"#utility.yul\":11622:11626   */\n      0x20\n        /* \"#utility.yul\":11614:11620   */\n      dup7\n        /* \"#utility.yul\":11610:11627   */\n      add\n        /* \"#utility.yul\":11562:11641   */\n      tag_254\n      jump\t// in\n    tag_411:\n        /* \"#utility.yul\":11553:11641   */\n      swap2\n      pop\n        /* \"#utility.yul\":11369:11647   */\n      pop\n        /* \"#utility.yul\":11307:11647   */\n      swap3\n      swap2\n      pop\n      pop\n      jump\t// out\n        /* \"#utility.yul\":11653:12162   */\n    tag_48:\n        /* \"#utility.yul\":11722:11728   */\n      0x00\n        /* \"#utility.yul\":11771:11773   */\n      0x20\n        /* \"#utility.yul\":11759:11768   */\n      dup3\n        /* \"#utility.yul\":11750:11757   */\n      dup5\n        /* \"#utility.yul\":11746:11769   */\n      sub\n        /* \"#utility.yul\":11742:11774   */\n      slt\n        /* \"#utility.yul\":11739:11858   */\n      iszero\n      tag_413\n      jumpi\n        /* \"#utility.yul\":11777:11856   */\n      tag_414\n      tag_216\n      jump\t// in\n    tag_414:\n        /* \"#utility.yul\":11739:11858   */\n    tag_413:\n        /* \"#utility.yul\":11925:11926   */\n      0x00\n        /* \"#utility.yul\":11914:11923   */\n      dup3\n        /* \"#utility.yul\":11910:11927   */\n      add\n        /* \"#utility.yul\":11897:11928   */\n      calldataload\n        /* \"#utility.yul\":11955:11973   */\n      0xffffffffffffffff\n        /* \"#utility.yul\":11947:11953   */\n      dup2\n        /* \"#utility.yul\":11944:11974   */\n      gt\n        /* \"#utility.yul\":11941:12058   */\n      iszero\n      tag_415\n      jumpi\n        /* \"#utility.yul\":11977:12056   */\n      tag_416\n      tag_217\n      jump\t// in\n    tag_416:\n        /* \"#utility.yul\":11941:12058   */\n    tag_415:\n        /* \"#utility.yul\":12082:12145   */\n      tag_417\n        /* \"#utility.yul\":12137:12144   */\n      dup5\n        /* \"#utility.yul\":12128:12134   */\n      dup3\n        /* \"#utility.yul\":12117:12126   */\n      dup6\n        /* \"#utility.yul\":12113:12135   */\n      add\n        /* \"#utility.yul\":12082:12145   */\n      tag_255\n      jump\t// in\n    tag_417:\n        /* \"#utility.yul\":12072:12145   */\n      swap2\n      pop\n        /* \"#utility.yul\":11868:12155   */\n      pop\n        /* \"#utility.yul\":11653:12162   */\n      swap3\n      swap2\n      pop\n      pop\n      jump\t// out\n        /* \"#utility.yul\":12168:12390   */\n    tag_54:\n        /* \"#utility.yul\":12261:12265   */\n      0x00\n        /* \"#utility.yul\":12299:12301   */\n      0x20\n        /* \"#utility.yul\":12288:12297   */\n      dup3\n        /* \"#utility.yul\":12284:12302   */\n      add\n        /* \"#utility.yul\":12276:12302   */\n      swap1\n      pop\n        /* \"#utility.yul\":12312:12383   */\n      tag_419\n        /* \"#utility.yul\":12380:12381   */\n      0x00\n        /* \"#utility.yul\":12369:12378   */\n      dup4\n        /* \"#utility.yul\":12365:12382   */\n      add\n        /* \"#utility.yul\":12356:12362   */\n      dup5\n        /* \"#utility.yul\":12312:12383   */\n      tag_225\n      jump\t// in\n    tag_419:\n        /* \"#utility.yul\":12168:12390   */\n      swap3\n      swap2\n      pop\n      pop\n      jump\t// out\n        /* \"#utility.yul\":12396:12618   */\n    tag_58:\n        /* \"#utility.yul\":12489:12493   */\n      0x00\n        /* \"#utility.yul\":12527:12529   */\n      0x20\n        /* \"#utility.yul\":12516:12525   */\n      dup3\n        /* \"#utility.yul\":12512:12530   */\n      add\n        /* \"#utility.yul\":12504:12530   */\n      swap1\n      pop\n        /* \"#utility.yul\":12540:12611   */\n      tag_421\n        /* \"#utility.yul\":12608:12609   */\n      0x00\n        /* \"#utility.yul\":12597:12606   */\n      dup4\n        /* \"#utility.yul\":12593:12610   */\n      add\n        /* \"#utility.yul\":12584:12590   */\n      dup5\n        /* \"#utility.yul\":12540:12611   */\n      tag_226\n      jump\t// in\n    tag_421:\n        /* \"#utility.yul\":12396:12618   */\n      swap3\n      swap2\n      pop\n      pop\n      jump\t// out\n        /* \"#utility.yul\":12624:12684   */\n    tag_256:\n        /* \"#utility.yul\":12652:12655   */\n      0x00\n        /* \"#utility.yul\":12673:12678   */\n      dup2\n        /* \"#utility.yul\":12666:12678   */\n      swap1\n      pop\n        /* \"#utility.yul\":12624:12684   */\n      swap2\n      swap1\n      pop\n      jump\t// out\n        /* \"#utility.yul\":12690:12832   */\n    tag_257:\n        /* \"#utility.yul\":12740:12749   */\n      0x00\n        /* \"#utility.yul\":12773:12826   */\n      tag_424\n        /* \"#utility.yul\":12791:12825   */\n      tag_425\n        /* \"#utility.yul\":12800:12824   */\n      tag_426\n        /* \"#utility.yul\":12818:12823   */\n      dup5\n        /* \"#utility.yul\":12800:12824   */\n      tag_218\n      jump\t// in\n    tag_426:\n        /* \"#utility.yul\":12791:12825   */\n      tag_256\n      jump\t// in\n    tag_425:\n        /* \"#utility.yul\":12773:12826   */\n      tag_218\n      jump\t// in\n    tag_424:\n        /* \"#utility.yul\":12760:12826   */\n      swap1\n      pop\n        /* \"#utility.yul\":12690:12832   */\n      swap2\n      swap1\n      pop\n      jump\t// out\n        /* \"#utility.yul\":12838:12964   */\n    tag_258:\n        /* \"#utility.yul\":12888:12897   */\n      0x00\n        /* \"#utility.yul\":12921:12958   */\n      tag_428\n        /* \"#utility.yul\":12952:12957   */\n      dup3\n        /* \"#utility.yul\":12921:12958   */\n      tag_257\n      jump\t// in\n    tag_428:\n        /* \"#utility.yul\":12908:12958   */\n      swap1\n      pop\n        /* \"#utility.yul\":12838:12964   */\n      swap2\n      swap1\n      pop\n      jump\t// out\n        /* \"#utility.yul\":12970:13112   */\n    tag_259:\n        /* \"#utility.yul\":13036:13045   */\n      0x00\n        /* \"#utility.yul\":13069:13106   */\n      tag_430\n        /* \"#utility.yul\":13100:13105   */\n      dup3\n        /* \"#utility.yul\":13069:13106   */\n      tag_258\n      jump\t// in\n    tag_430:\n        /* \"#utility.yul\":13056:13106   */\n      swap1\n      pop\n        /* \"#utility.yul\":12970:13112   */\n      swap2\n      swap1\n      pop\n      jump\t// out\n        /* \"#utility.yul\":13118:13281   */\n    tag_260:\n        /* \"#utility.yul\":13221:13274   */\n      tag_432\n        /* \"#utility.yul\":13268:13273   */\n      dup2\n        /* \"#utility.yul\":13221:13274   */\n      tag_259\n      jump\t// in\n    tag_432:\n        /* \"#utility.yul\":13216:13219   */\n      dup3\n        /* \"#utility.yul\":13209:13275   */\n      mstore\n        /* \"#utility.yul\":13118:13281   */\n      pop\n      pop\n      jump\t// out\n        /* \"#utility.yul\":13287:13541   */\n    tag_62:\n        /* \"#utility.yul\":13396:13400   */\n      0x00\n        /* \"#utility.yul\":13434:13436   */\n      0x20\n        /* \"#utility.yul\":13423:13432   */\n      dup3\n        /* \"#utility.yul\":13419:13437   */\n      add\n        /* \"#utility.yul\":13411:13437   */\n      swap1\n      pop\n        /* \"#utility.yul\":13447:13534   */\n      tag_434\n        /* \"#utility.yul\":13531:13532   */\n      0x00\n        /* \"#utility.yul\":13520:13529   */\n      dup4\n        /* \"#utility.yul\":13516:13533   */\n      add\n        /* \"#utility.yul\":13507:13513   */\n      dup5\n        /* \"#utility.yul\":13447:13534   */\n      tag_260\n      jump\t// in\n    tag_434:\n        /* \"#utility.yul\":13287:13541   */\n      swap3\n      swap2\n      pop\n      pop\n      jump\t// out\n        /* \"#utility.yul\":13547:13876   */\n    tag_65:\n        /* \"#utility.yul\":13606:13612   */\n      0x00\n        /* \"#utility.yul\":13655:13657   */\n      0x20\n        /* \"#utility.yul\":13643:13652   */\n      dup3\n        /* \"#utility.yul\":13634:13641   */\n      dup5\n        /* \"#utility.yul\":13630:13653   */\n      sub\n        /* \"#utility.yul\":13626:13658   */\n      slt\n        /* \"#utility.yul\":13623:13742   */\n      iszero\n      tag_436\n      jumpi\n        /* \"#utility.yul\":13661:13740   */\n      tag_437\n      tag_216\n      jump\t// in\n    tag_437:\n        /* \"#utility.yul\":13623:13742   */\n    tag_436:\n        /* \"#utility.yul\":13781:13782   */\n      0x00\n        /* \"#utility.yul\":13806:13859   */\n      tag_438\n        /* \"#utility.yul\":13851:13858   */\n      dup5\n        /* \"#utility.yul\":13842:13848   */\n      dup3\n        /* \"#utility.yul\":13831:13840   */\n      dup6\n        /* \"#utility.yul\":13827:13849   */\n      add\n        /* \"#utility.yul\":13806:13859   */\n      tag_224\n      jump\t// in\n    tag_438:\n        /* \"#utility.yul\":13796:13859   */\n      swap2\n      pop\n        /* \"#utility.yul\":13752:13869   */\n      pop\n        /* \"#utility.yul\":13547:13876   */\n      swap3\n      swap2\n      pop\n      pop\n      jump\t// out\n        /* \"#utility.yul\":13934:15065   */\n    tag_261:\n        /* \"#utility.yul\":14047:14050   */\n      0x00\n        /* \"#utility.yul\":14083:14087   */\n      0xa0\n        /* \"#utility.yul\":14078:14081   */\n      dup4\n        /* \"#utility.yul\":14074:14088   */\n      add\n        /* \"#utility.yul\":14168:14172   */\n      0x00\n        /* \"#utility.yul\":14161:14166   */\n      dup4\n        /* \"#utility.yul\":14157:14173   */\n      add\n        /* \"#utility.yul\":14151:14174   */\n      mload\n        /* \"#utility.yul\":14187:14250   */\n      tag_440\n        /* \"#utility.yul\":14244:14248   */\n      0x00\n        /* \"#utility.yul\":14239:14242   */\n      dup7\n        /* \"#utility.yul\":14235:14249   */\n      add\n        /* \"#utility.yul\":14221:14233   */\n      dup3\n        /* \"#utility.yul\":14187:14250   */\n      tag_235\n      jump\t// in\n    tag_440:\n        /* \"#utility.yul\":14098:14260   */\n      pop\n        /* \"#utility.yul\":14344:14348   */\n      0x20\n        /* \"#utility.yul\":14337:14342   */\n      dup4\n        /* \"#utility.yul\":14333:14349   */\n      add\n        /* \"#utility.yul\":14327:14350   */\n      mload\n        /* \"#utility.yul\":14363:14426   */\n      tag_441\n        /* \"#utility.yul\":14420:14424   */\n      0x20\n        /* \"#utility.yul\":14415:14418   */\n      dup7\n        /* \"#utility.yul\":14411:14425   */\n      add\n        /* \"#utility.yul\":14397:14409   */\n      dup3\n        /* \"#utility.yul\":14363:14426   */\n      tag_236\n      jump\t// in\n    tag_441:\n        /* \"#utility.yul\":14270:14436   */\n      pop\n        /* \"#utility.yul\":14521:14525   */\n      0x40\n        /* \"#utility.yul\":14514:14519   */\n      dup4\n        /* \"#utility.yul\":14510:14526   */\n      add\n        /* \"#utility.yul\":14504:14527   */\n      mload\n        /* \"#utility.yul\":14574:14577   */\n      dup5\n        /* \"#utility.yul\":14568:14572   */\n      dup3\n        /* \"#utility.yul\":14564:14578   */\n      sub\n        /* \"#utility.yul\":14557:14561   */\n      0x40\n        /* \"#utility.yul\":14552:14555   */\n      dup7\n        /* \"#utility.yul\":14548:14562   */\n      add\n        /* \"#utility.yul\":14541:14579   */\n      mstore\n        /* \"#utility.yul\":14600:14673   */\n      tag_442\n        /* \"#utility.yul\":14668:14672   */\n      dup3\n        /* \"#utility.yul\":14654:14666   */\n      dup3\n        /* \"#utility.yul\":14600:14673   */\n      tag_238\n      jump\t// in\n    tag_442:\n        /* \"#utility.yul\":14592:14673   */\n      swap2\n      pop\n        /* \"#utility.yul\":14446:14684   */\n      pop\n        /* \"#utility.yul\":14771:14775   */\n      0x60\n        /* \"#utility.yul\":14764:14769   */\n      dup4\n        /* \"#utility.yul\":14760:14776   */\n      add\n        /* \"#utility.yul\":14754:14777   */\n      mload\n        /* \"#utility.yul\":14790:14853   */\n      tag_443\n        /* \"#utility.yul\":14847:14851   */\n      0x60\n        /* \"#utility.yul\":14842:14845   */\n      dup7\n        /* \"#utility.yul\":14838:14852   */\n      add\n        /* \"#utility.yul\":14824:14836   */\n      dup3\n        /* \"#utility.yul\":14790:14853   */\n      tag_235\n      jump\t// in\n    tag_443:\n        /* \"#utility.yul\":14694:14863   */\n      pop\n        /* \"#utility.yul\":14946:14950   */\n      0x80\n        /* \"#utility.yul\":14939:14944   */\n      dup4\n        /* \"#utility.yul\":14935:14951   */\n      add\n        /* \"#utility.yul\":14929:14952   */\n      mload\n        /* \"#utility.yul\":14965:15028   */\n      tag_444\n        /* \"#utility.yul\":15022:15026   */\n      0x80\n        /* \"#utility.yul\":15017:15020   */\n      dup7\n        /* \"#utility.yul\":15013:15027   */\n      add\n        /* \"#utility.yul\":14999:15011   */\n      dup3\n        /* \"#utility.yul\":14965:15028   */\n      tag_235\n      jump\t// in\n    tag_444:\n        /* \"#utility.yul\":14873:15038   */\n      pop\n        /* \"#utility.yul\":15055:15059   */\n      dup1\n        /* \"#utility.yul\":15048:15059   */\n      swap2\n      pop\n        /* \"#utility.yul\":14052:15065   */\n      pop\n        /* \"#utility.yul\":13934:15065   */\n      swap3\n      swap2\n      pop\n      pop\n      jump\t// out\n        /* \"#utility.yul\":15071:15432   */\n    tag_68:\n        /* \"#utility.yul\":15208:15212   */\n      0x00\n        /* \"#utility.yul\":15246:15248   */\n      0x20\n        /* \"#utility.yul\":15235:15244   */\n      dup3\n        /* \"#utility.yul\":15231:15249   */\n      add\n        /* \"#utility.yul\":15223:15249   */\n      swap1\n      pop\n        /* \"#utility.yul\":15295:15304   */\n      dup2\n        /* \"#utility.yul\":15289:15293   */\n      dup2\n        /* \"#utility.yul\":15285:15305   */\n      sub\n        /* \"#utility.yul\":15281:15282   */\n      0x00\n        /* \"#utility.yul\":15270:15279   */\n      dup4\n        /* \"#utility.yul\":15266:15283   */\n      add\n        /* \"#utility.yul\":15259:15306   */\n      mstore\n        /* \"#utility.yul\":15323:15425   */\n      tag_446\n        /* \"#utility.yul\":15420:15424   */\n      dup2\n        /* \"#utility.yul\":15411:15417   */\n      dup5\n        /* \"#utility.yul\":15323:15425   */\n      tag_261\n      jump\t// in\n    tag_446:\n        /* \"#utility.yul\":15315:15425   */\n      swap1\n      pop\n        /* \"#utility.yul\":15071:15432   */\n      swap3\n      swap2\n      pop\n      pop\n      jump\t// out\n        /* \"#utility.yul\":15438:15618   */\n    tag_262:\n        /* \"#utility.yul\":15486:15563   */\n      0x4e487b7100000000000000000000000000000000000000000000000000000000\n        /* \"#utility.yul\":15483:15484   */\n      0x00\n        /* \"#utility.yul\":15476:15564   */\n      mstore\n        /* \"#utility.yul\":15583:15587   */\n      0x22\n        /* \"#utility.yul\":15580:15581   */\n      0x04\n        /* \"#utility.yul\":15573:15588   */\n      mstore\n        /* \"#utility.yul\":15607:15611   */\n      0x24\n        /* \"#utility.yul\":15604:15605   */\n      0x00\n        /* \"#utility.yul\":15597:15612   */\n      revert\n        /* \"#utility.yul\":15624:15944   */\n    tag_75:\n        /* \"#utility.yul\":15668:15674   */\n      0x00\n        /* \"#utility.yul\":15705:15706   */\n      0x02\n        /* \"#utility.yul\":15699:15703   */\n      dup3\n        /* \"#utility.yul\":15695:15707   */\n      div\n        /* \"#utility.yul\":15685:15707   */\n      swap1\n      pop\n        /* \"#utility.yul\":15752:15753   */\n      0x01\n        /* \"#utility.yul\":15746:15750   */\n      dup3\n        /* \"#utility.yul\":15742:15754   */\n      and\n        /* \"#utility.yul\":15773:15791   */\n      dup1\n        /* \"#utility.yul\":15763:15844   */\n      tag_449\n      jumpi\n        /* \"#utility.yul\":15829:15833   */\n      0x7f\n        /* \"#utility.yul\":15821:15827   */\n      dup3\n        /* \"#utility.yul\":15817:15834   */\n      and\n        /* \"#utility.yul\":15807:15834   */\n      swap2\n      pop\n        /* \"#utility.yul\":15763:15844   */\n    tag_449:\n        /* \"#utility.yul\":15891:15893   */\n      0x20\n        /* \"#utility.yul\":15883:15889   */\n      dup3\n        /* \"#utility.yul\":15880:15894   */\n      lt\n        /* \"#utility.yul\":15860:15878   */\n      dup2\n        /* \"#utility.yul\":15857:15895   */\n      sub\n        /* \"#utility.yul\":15854:15938   */\n      tag_450\n      jumpi\n        /* \"#utility.yul\":15910:15928   */\n      tag_451\n      tag_262\n      jump\t// in\n    tag_451:\n        /* \"#utility.yul\":15854:15938   */\n    tag_450:\n        /* \"#utility.yul\":15675:15944   */\n      pop\n        /* \"#utility.yul\":15624:15944   */\n      swap2\n      swap1\n      pop\n      jump\t// out\n        /* \"#utility.yul\":15950:16067   */\n    tag_263:\n        /* \"#utility.yul\":16059:16060   */\n      0x00\n        /* \"#utility.yul\":16056:16057   */\n      dup1\n        /* \"#utility.yul\":16049:16061   */\n      revert\n        /* \"#utility.yul\":16073:16190   */\n    tag_264:\n        /* \"#utility.yul\":16182:16183   */\n      0x00\n        /* \"#utility.yul\":16179:16180   */\n      dup1\n        /* \"#utility.yul\":16172:16184   */\n      revert\n        /* \"#utility.yul\":16196:16630   */\n    tag_265:\n        /* \"#utility.yul\":16285:16290   */\n      0x00\n        /* \"#utility.yul\":16310:16376   */\n      tag_455\n        /* \"#utility.yul\":16326:16375   */\n      tag_456\n        /* \"#utility.yul\":16368:16374   */\n      dup5\n        /* \"#utility.yul\":16326:16375   */\n      tag_252\n      jump\t// in\n    tag_456:\n        /* \"#utility.yul\":16310:16376   */\n      tag_251\n      jump\t// in\n    tag_455:\n        /* \"#utility.yul\":16301:16376   */\n      swap1\n      pop\n        /* \"#utility.yul\":16399:16405   */\n      dup3\n        /* \"#utility.yul\":16392:16397   */\n      dup2\n        /* \"#utility.yul\":16385:16406   */\n      mstore\n        /* \"#utility.yul\":16437:16441   */\n      0x20\n        /* \"#utility.yul\":16430:16435   */\n      dup2\n        /* \"#utility.yul\":16426:16442   */\n      add\n        /* \"#utility.yul\":16475:16478   */\n      dup5\n        /* \"#utility.yul\":16466:16472   */\n      dup5\n        /* \"#utility.yul\":16461:16464   */\n      dup5\n        /* \"#utility.yul\":16457:16473   */\n      add\n        /* \"#utility.yul\":16454:16479   */\n      gt\n        /* \"#utility.yul\":16451:16563   */\n      iszero\n      tag_457\n      jumpi\n        /* \"#utility.yul\":16482:16561   */\n      tag_458\n      tag_248\n      jump\t// in\n    tag_458:\n        /* \"#utility.yul\":16451:16563   */\n    tag_457:\n        /* \"#utility.yul\":16572:16624   */\n      tag_459\n        /* \"#utility.yul\":16617:16623   */\n      dup5\n        /* \"#utility.yul\":16612:16615   */\n      dup3\n        /* \"#utility.yul\":16607:16610   */\n      dup6\n        /* \"#utility.yul\":16572:16624   */\n      tag_229\n      jump\t// in\n    tag_459:\n        /* \"#utility.yul\":16291:16630   */\n      pop\n        /* \"#utility.yul\":16196:16630   */\n      swap4\n      swap3\n      pop\n      pop\n      pop\n      jump\t// out\n        /* \"#utility.yul\":16650:17005   */\n    tag_266:\n        /* \"#utility.yul\":16717:16722   */\n      0x00\n        /* \"#utility.yul\":16766:16769   */\n      dup3\n        /* \"#utility.yul\":16759:16763   */\n      0x1f\n        /* \"#utility.yul\":16751:16757   */\n      dup4\n        /* \"#utility.yul\":16747:16764   */\n      add\n        /* \"#utility.yul\":16743:16770   */\n      slt\n        /* \"#utility.yul\":16733:16855   */\n      tag_461\n      jumpi\n        /* \"#utility.yul\":16774:16853   */\n      tag_462\n      tag_247\n      jump\t// in\n    tag_462:\n        /* \"#utility.yul\":16733:16855   */\n    tag_461:\n        /* \"#utility.yul\":16884:16890   */\n      dup2\n        /* \"#utility.yul\":16878:16891   */\n      mload\n        /* \"#utility.yul\":16909:16999   */\n      tag_463\n        /* \"#utility.yul\":16995:16998   */\n      dup5\n        /* \"#utility.yul\":16987:16993   */\n      dup3\n        /* \"#utility.yul\":16980:16984   */\n      0x20\n        /* \"#utility.yul\":16972:16978   */\n      dup7\n        /* \"#utility.yul\":16968:16985   */\n      add\n        /* \"#utility.yul\":16909:16999   */\n      tag_265\n      jump\t// in\n    tag_463:\n        /* \"#utility.yul\":16900:16999   */\n      swap2\n      pop\n        /* \"#utility.yul\":16723:17005   */\n      pop\n        /* \"#utility.yul\":16650:17005   */\n      swap3\n      swap2\n      pop\n      pop\n      jump\t// out\n        /* \"#utility.yul\":17046:17988   */\n    tag_267:\n        /* \"#utility.yul\":17134:17139   */\n      0x00\n        /* \"#utility.yul\":17178:17182   */\n      0x40\n        /* \"#utility.yul\":17166:17175   */\n      dup3\n        /* \"#utility.yul\":17161:17164   */\n      dup5\n        /* \"#utility.yul\":17157:17176   */\n      sub\n        /* \"#utility.yul\":17153:17183   */\n      slt\n        /* \"#utility.yul\":17150:17267   */\n      iszero\n      tag_465\n      jumpi\n        /* \"#utility.yul\":17186:17265   */\n      tag_466\n      tag_263\n      jump\t// in\n    tag_466:\n        /* \"#utility.yul\":17150:17267   */\n    tag_465:\n        /* \"#utility.yul\":17285:17306   */\n      tag_467\n        /* \"#utility.yul\":17301:17305   */\n      0x40\n        /* \"#utility.yul\":17285:17306   */\n      tag_251\n      jump\t// in\n    tag_467:\n        /* \"#utility.yul\":17276:17306   */\n      swap1\n      pop\n        /* \"#utility.yul\":17393:17394   */\n      0x00\n        /* \"#utility.yul\":17382:17391   */\n      dup3\n        /* \"#utility.yul\":17378:17395   */\n      add\n        /* \"#utility.yul\":17372:17396   */\n      mload\n        /* \"#utility.yul\":17423:17441   */\n      0xffffffffffffffff\n        /* \"#utility.yul\":17415:17421   */\n      dup2\n        /* \"#utility.yul\":17412:17442   */\n      gt\n        /* \"#utility.yul\":17409:17526   */\n      iszero\n      tag_468\n      jumpi\n        /* \"#utility.yul\":17445:17524   */\n      tag_469\n      tag_264\n      jump\t// in\n    tag_469:\n        /* \"#utility.yul\":17409:17526   */\n    tag_468:\n        /* \"#utility.yul\":17565:17635   */\n      tag_470\n        /* \"#utility.yul\":17631:17634   */\n      dup5\n        /* \"#utility.yul\":17622:17628   */\n      dup3\n        /* \"#utility.yul\":17611:17620   */\n      dup6\n        /* \"#utility.yul\":17607:17629   */\n      add\n        /* \"#utility.yul\":17565:17635   */\n      tag_266\n      jump\t// in\n    tag_470:\n        /* \"#utility.yul\":17558:17562   */\n      0x00\n        /* \"#utility.yul\":17551:17556   */\n      dup4\n        /* \"#utility.yul\":17547:17563   */\n      add\n        /* \"#utility.yul\":17540:17636   */\n      mstore\n        /* \"#utility.yul\":17316:17647   */\n      pop\n        /* \"#utility.yul\":17726:17728   */\n      0x20\n        /* \"#utility.yul\":17715:17724   */\n      dup3\n        /* \"#utility.yul\":17711:17729   */\n      add\n        /* \"#utility.yul\":17705:17730   */\n      mload\n        /* \"#utility.yul\":17757:17775   */\n      0xffffffffffffffff\n        /* \"#utility.yul\":17749:17755   */\n      dup2\n        /* \"#utility.yul\":17746:17776   */\n      gt\n        /* \"#utility.yul\":17743:17860   */\n      iszero\n      tag_471\n      jumpi\n        /* \"#utility.yul\":17779:17858   */\n      tag_472\n      tag_264\n      jump\t// in\n    tag_472:\n        /* \"#utility.yul\":17743:17860   */\n    tag_471:\n        /* \"#utility.yul\":17899:17969   */\n      tag_473\n        /* \"#utility.yul\":17965:17968   */\n      dup5\n        /* \"#utility.yul\":17956:17962   */\n      dup3\n        /* \"#utility.yul\":17945:17954   */\n      dup6\n        /* \"#utility.yul\":17941:17963   */\n      add\n        /* \"#utility.yul\":17899:17969   */\n      tag_266\n      jump\t// in\n    tag_473:\n        /* \"#utility.yul\":17892:17896   */\n      0x20\n        /* \"#utility.yul\":17885:17890   */\n      dup4\n        /* \"#utility.yul\":17881:17897   */\n      add\n        /* \"#utility.yul\":17874:17970   */\n      mstore\n        /* \"#utility.yul\":17657:17981   */\n      pop\n        /* \"#utility.yul\":17046:17988   */\n      swap3\n      swap2\n      pop\n      pop\n      jump\t// out\n        /* \"#utility.yul\":17994:18554   */\n    tag_94:\n        /* \"#utility.yul\":18092:18098   */\n      0x00\n        /* \"#utility.yul\":18141:18143   */\n      0x20\n        /* \"#utility.yul\":18129:18138   */\n      dup3\n        /* \"#utility.yul\":18120:18127   */\n      dup5\n        /* \"#utility.yul\":18116:18139   */\n      sub\n        /* \"#utility.yul\":18112:18144   */\n      slt\n        /* \"#utility.yul\":18109:18228   */\n      iszero\n      tag_475\n      jumpi\n        /* \"#utility.yul\":18147:18226   */\n      tag_476\n      tag_216\n      jump\t// in\n    tag_476:\n        /* \"#utility.yul\":18109:18228   */\n    tag_475:\n        /* \"#utility.yul\":18288:18289   */\n      0x00\n        /* \"#utility.yul\":18277:18286   */\n      dup3\n        /* \"#utility.yul\":18273:18290   */\n      add\n        /* \"#utility.yul\":18267:18291   */\n      mload\n        /* \"#utility.yul\":18318:18336   */\n      0xffffffffffffffff\n        /* \"#utility.yul\":18310:18316   */\n      dup2\n        /* \"#utility.yul\":18307:18337   */\n      gt\n        /* \"#utility.yul\":18304:18421   */\n      iszero\n      tag_477\n      jumpi\n        /* \"#utility.yul\":18340:18419   */\n      tag_478\n      tag_217\n      jump\t// in\n    tag_478:\n        /* \"#utility.yul\":18304:18421   */\n    tag_477:\n        /* \"#utility.yul\":18445:18537   */\n      tag_479\n        /* \"#utility.yul\":18529:18536   */\n      dup5\n        /* \"#utility.yul\":18520:18526   */\n      dup3\n        /* \"#utility.yul\":18509:18518   */\n      dup6\n        /* \"#utility.yul\":18505:18527   */\n      add\n        /* \"#utility.yul\":18445:18537   */\n      tag_267\n      jump\t// in\n    tag_479:\n        /* \"#utility.yul\":18435:18537   */\n      swap2\n      pop\n        /* \"#utility.yul\":18238:18547   */\n      pop\n        /* \"#utility.yul\":17994:18554   */\n      swap3\n      swap2\n      pop\n      pop\n      jump\t// out\n        /* \"#utility.yul\":18560:18729   */\n    tag_268:\n        /* \"#utility.yul\":18700:18721   */\n      0x55736572206e6f74207265676973746572656400000000000000000000000000\n        /* \"#utility.yul\":18696:18697   */\n      0x00\n        /* \"#utility.yul\":18688:18694   */\n      dup3\n        /* \"#utility.yul\":18684:18698   */\n      add\n        /* \"#utility.yul\":18677:18722   */\n      mstore\n        /* \"#utility.yul\":18560:18729   */\n      pop\n      jump\t// out\n        /* \"#utility.yul\":18735:19101   */\n    tag_269:\n        /* \"#utility.yul\":18877:18880   */\n      0x00\n        /* \"#utility.yul\":18898:18965   */\n      tag_482\n        /* \"#utility.yul\":18962:18964   */\n      0x13\n        /* \"#utility.yul\":18957:18960   */\n      dup4\n        /* \"#utility.yul\":18898:18965   */\n      tag_228\n      jump\t// in\n    tag_482:\n        /* \"#utility.yul\":18891:18965   */\n      swap2\n      pop\n        /* \"#utility.yul\":18974:19067   */\n      tag_483\n        /* \"#utility.yul\":19063:19066   */\n      dup3\n        /* \"#utility.yul\":18974:19067   */\n      tag_268\n      jump\t// in\n    tag_483:\n        /* \"#utility.yul\":19092:19094   */\n      0x20\n        /* \"#utility.yul\":19087:19090   */\n      dup3\n        /* \"#utility.yul\":19083:19095   */\n      add\n        /* \"#utility.yul\":19076:19095   */\n      swap1\n      pop\n        /* \"#utility.yul\":18735:19101   */\n      swap2\n      swap1\n      pop\n      jump\t// out\n        /* \"#utility.yul\":19107:19526   */\n    tag_97:\n        /* \"#utility.yul\":19273:19277   */\n      0x00\n        /* \"#utility.yul\":19311:19313   */\n      0x20\n        /* \"#utility.yul\":19300:19309   */\n      dup3\n        /* \"#utility.yul\":19296:19314   */\n      add\n        /* \"#utility.yul\":19288:19314   */\n      swap1\n      pop\n        /* \"#utility.yul\":19360:19369   */\n      dup2\n        /* \"#utility.yul\":19354:19358   */\n      dup2\n        /* \"#utility.yul\":19350:19370   */\n      sub\n        /* \"#utility.yul\":19346:19347   */\n      0x00\n        /* \"#utility.yul\":19335:19344   */\n      dup4\n        /* \"#utility.yul\":19331:19348   */\n      add\n        /* \"#utility.yul\":19324:19371   */\n      mstore\n        /* \"#utility.yul\":19388:19519   */\n      tag_485\n        /* \"#utility.yul\":19514:19518   */\n      dup2\n        /* \"#utility.yul\":19388:19519   */\n      tag_269\n      jump\t// in\n    tag_485:\n        /* \"#utility.yul\":19380:19519   */\n      swap1\n      pop\n        /* \"#utility.yul\":19107:19526   */\n      swap2\n      swap1\n      pop\n      jump\t// out\n        /* \"#utility.yul\":19532:19712   */\n    tag_101:\n        /* \"#utility.yul\":19580:19657   */\n      0x4e487b7100000000000000000000000000000000000000000000000000000000\n        /* \"#utility.yul\":19577:19578   */\n      0x00\n        /* \"#utility.yul\":19570:19658   */\n      mstore\n        /* \"#utility.yul\":19677:19681   */\n      0x32\n        /* \"#utility.yul\":19674:19675   */\n      0x04\n        /* \"#utility.yul\":19667:19682   */\n      mstore\n        /* \"#utility.yul\":19701:19705   */\n      0x24\n        /* \"#utility.yul\":19698:19699   */\n      0x00\n        /* \"#utility.yul\":19691:19706   */\n      revert\n        /* \"#utility.yul\":19718:19889   */\n    tag_270:\n        /* \"#utility.yul\":19858:19881   */\n      0x547765657420646f6573206e6f74206578697374730000000000000000000000\n        /* \"#utility.yul\":19854:19855   */\n      0x00\n        /* \"#utility.yul\":19846:19852   */\n      dup3\n        /* \"#utility.yul\":19842:19856   */\n      add\n        /* \"#utility.yul\":19835:19882   */\n      mstore\n        /* \"#utility.yul\":19718:19889   */\n      pop\n      jump\t// out\n        /* \"#utility.yul\":19895:20261   */\n    tag_271:\n        /* \"#utility.yul\":20037:20040   */\n      0x00\n        /* \"#utility.yul\":20058:20125   */\n      tag_489\n        /* \"#utility.yul\":20122:20124   */\n      0x15\n        /* \"#utility.yul\":20117:20120   */\n      dup4\n        /* \"#utility.yul\":20058:20125   */\n      tag_228\n      jump\t// in\n    tag_489:\n        /* \"#utility.yul\":20051:20125   */\n      swap2\n      pop\n        /* \"#utility.yul\":20134:20227   */\n      tag_490\n        /* \"#utility.yul\":20223:20226   */\n      dup3\n        /* \"#utility.yul\":20134:20227   */\n      tag_270\n      jump\t// in\n    tag_490:\n        /* \"#utility.yul\":20252:20254   */\n      0x20\n        /* \"#utility.yul\":20247:20250   */\n      dup3\n        /* \"#utility.yul\":20243:20255   */\n      add\n        /* \"#utility.yul\":20236:20255   */\n      swap1\n      pop\n        /* \"#utility.yul\":19895:20261   */\n      swap2\n      swap1\n      pop\n      jump\t// out\n        /* \"#utility.yul\":20267:20686   */\n    tag_105:\n        /* \"#utility.yul\":20433:20437   */\n      0x00\n        /* \"#utility.yul\":20471:20473   */\n      0x20\n        /* \"#utility.yul\":20460:20469   */\n      dup3\n        /* \"#utility.yul\":20456:20474   */\n      add\n        /* \"#utility.yul\":20448:20474   */\n      swap1\n      pop\n        /* \"#utility.yul\":20520:20529   */\n      dup2\n        /* \"#utility.yul\":20514:20518   */\n      dup2\n        /* \"#utility.yul\":20510:20530   */\n      sub\n        /* \"#utility.yul\":20506:20507   */\n      0x00\n        /* \"#utility.yul\":20495:20504   */\n      dup4\n        /* \"#utility.yul\":20491:20508   */\n      add\n        /* \"#utility.yul\":20484:20531   */\n      mstore\n        /* \"#utility.yul\":20548:20679   */\n      tag_492\n        /* \"#utility.yul\":20674:20678   */\n      dup2\n        /* \"#utility.yul\":20548:20679   */\n      tag_271\n      jump\t// in\n    tag_492:\n        /* \"#utility.yul\":20540:20679   */\n      swap1\n      pop\n        /* \"#utility.yul\":20267:20686   */\n      swap2\n      swap1\n      pop\n      jump\t// out\n        /* \"#utility.yul\":20692:20860   */\n    tag_272:\n        /* \"#utility.yul\":20832:20852   */\n      0x547765657420686173206e6f204c696b65730000000000000000000000000000\n        /* \"#utility.yul\":20828:20829   */\n      0x00\n        /* \"#utility.yul\":20820:20826   */\n      dup3\n        /* \"#utility.yul\":20816:20830   */\n      add\n        /* \"#utility.yul\":20809:20853   */\n      mstore\n        /* \"#utility.yul\":20692:20860   */\n      pop\n      jump\t// out\n        /* \"#utility.yul\":20866:21232   */\n    tag_273:\n        /* \"#utility.yul\":21008:21011   */\n      0x00\n        /* \"#utility.yul\":21029:21096   */\n      tag_495\n        /* \"#utility.yul\":21093:21095   */\n      0x12\n        /* \"#utility.yul\":21088:21091   */\n      dup4\n        /* \"#utility.yul\":21029:21096   */\n      tag_228\n      jump\t// in\n    tag_495:\n        /* \"#utility.yul\":21022:21096   */\n      swap2\n      pop\n        /* \"#utility.yul\":21105:21198   */\n      tag_496\n        /* \"#utility.yul\":21194:21197   */\n      dup3\n        /* \"#utility.yul\":21105:21198   */\n      tag_272\n      jump\t// in\n    tag_496:\n        /* \"#utility.yul\":21223:21225   */\n      0x20\n        /* \"#utility.yul\":21218:21221   */\n      dup3\n        /* \"#utility.yul\":21214:21226   */\n      add\n        /* \"#utility.yul\":21207:21226   */\n      swap1\n      pop\n        /* \"#utility.yul\":20866:21232   */\n      swap2\n      swap1\n      pop\n      jump\t// out\n        /* \"#utility.yul\":21238:21657   */\n    tag_111:\n        /* \"#utility.yul\":21404:21408   */\n      0x00\n        /* \"#utility.yul\":21442:21444   */\n      0x20\n        /* \"#utility.yul\":21431:21440   */\n      dup3\n        /* \"#utility.yul\":21427:21445   */\n      add\n        /* \"#utility.yul\":21419:21445   */\n      swap1\n      pop\n        /* \"#utility.yul\":21491:21500   */\n      dup2\n        /* \"#utility.yul\":21485:21489   */\n      dup2\n        /* \"#utility.yul\":21481:21501   */\n      sub\n        /* \"#utility.yul\":21477:21478   */\n      0x00\n        /* \"#utility.yul\":21466:21475   */\n      dup4\n        /* \"#utility.yul\":21462:21479   */\n      add\n        /* \"#utility.yul\":21455:21502   */\n      mstore\n        /* \"#utility.yul\":21519:21650   */\n      tag_498\n        /* \"#utility.yul\":21645:21649   */\n      dup2\n        /* \"#utility.yul\":21519:21650   */\n      tag_273\n      jump\t// in\n    tag_498:\n        /* \"#utility.yul\":21511:21650   */\n      swap1\n      pop\n        /* \"#utility.yul\":21238:21657   */\n      swap2\n      swap1\n      pop\n      jump\t// out\n        /* \"#utility.yul\":21663:21843   */\n    tag_274:\n        /* \"#utility.yul\":21711:21788   */\n      0x4e487b7100000000000000000000000000000000000000000000000000000000\n        /* \"#utility.yul\":21708:21709   */\n      0x00\n        /* \"#utility.yul\":21701:21789   */\n      mstore\n        /* \"#utility.yul\":21808:21812   */\n      0x11\n        /* \"#utility.yul\":21805:21806   */\n      0x04\n        /* \"#utility.yul\":21798:21813   */\n      mstore\n        /* \"#utility.yul\":21832:21836   */\n      0x24\n        /* \"#utility.yul\":21829:21830   */\n      0x00\n        /* \"#utility.yul\":21822:21837   */\n      revert\n        /* \"#utility.yul\":21849:22020   */\n    tag_116:\n        /* \"#utility.yul\":21888:21891   */\n      0x00\n        /* \"#utility.yul\":21911:21935   */\n      tag_501\n        /* \"#utility.yul\":21929:21934   */\n      dup3\n        /* \"#utility.yul\":21911:21935   */\n      tag_222\n      jump\t// in\n    tag_501:\n        /* \"#utility.yul\":21902:21935   */\n      swap2\n      pop\n        /* \"#utility.yul\":21957:21961   */\n      0x00\n        /* \"#utility.yul\":21950:21955   */\n      dup3\n        /* \"#utility.yul\":21947:21962   */\n      sub\n        /* \"#utility.yul\":21944:21985   */\n      tag_502\n      jumpi\n        /* \"#utility.yul\":21965:21983   */\n      tag_503\n      tag_274\n      jump\t// in\n    tag_503:\n        /* \"#utility.yul\":21944:21985   */\n    tag_502:\n        /* \"#utility.yul\":22012:22013   */\n      0x01\n        /* \"#utility.yul\":22005:22010   */\n      dup3\n        /* \"#utility.yul\":22001:22014   */\n      sub\n        /* \"#utility.yul\":21994:22014   */\n      swap1\n      pop\n        /* \"#utility.yul\":21849:22020   */\n      swap2\n      swap1\n      pop\n      jump\t// out\n        /* \"#utility.yul\":22026:22579   */\n    tag_121:\n        /* \"#utility.yul\":22203:22207   */\n      0x00\n        /* \"#utility.yul\":22241:22244   */\n      0x80\n        /* \"#utility.yul\":22230:22239   */\n      dup3\n        /* \"#utility.yul\":22226:22245   */\n      add\n        /* \"#utility.yul\":22218:22245   */\n      swap1\n      pop\n        /* \"#utility.yul\":22255:22326   */\n      tag_505\n        /* \"#utility.yul\":22323:22324   */\n      0x00\n        /* \"#utility.yul\":22312:22321   */\n      dup4\n        /* \"#utility.yul\":22308:22325   */\n      add\n        /* \"#utility.yul\":22299:22305   */\n      dup8\n        /* \"#utility.yul\":22255:22326   */\n      tag_226\n      jump\t// in\n    tag_505:\n        /* \"#utility.yul\":22336:22408   */\n      tag_506\n        /* \"#utility.yul\":22404:22406   */\n      0x20\n        /* \"#utility.yul\":22393:22402   */\n      dup4\n        /* \"#utility.yul\":22389:22407   */\n      add\n        /* \"#utility.yul\":22380:22386   */\n      dup7\n        /* \"#utility.yul\":22336:22408   */\n      tag_226\n      jump\t// in\n    tag_506:\n        /* \"#utility.yul\":22418:22490   */\n      tag_507\n        /* \"#utility.yul\":22486:22488   */\n      0x40\n        /* \"#utility.yul\":22475:22484   */\n      dup4\n        /* \"#utility.yul\":22471:22489   */\n      add\n        /* \"#utility.yul\":22462:22468   */\n      dup6\n        /* \"#utility.yul\":22418:22490   */\n      tag_225\n      jump\t// in\n    tag_507:\n        /* \"#utility.yul\":22500:22572   */\n      tag_508\n        /* \"#utility.yul\":22568:22570   */\n      0x60\n        /* \"#utility.yul\":22557:22566   */\n      dup4\n        /* \"#utility.yul\":22553:22571   */\n      add\n        /* \"#utility.yul\":22544:22550   */\n      dup5\n        /* \"#utility.yul\":22500:22572   */\n      tag_225\n      jump\t// in\n    tag_508:\n        /* \"#utility.yul\":22026:22579   */\n      swap6\n      swap5\n      pop\n      pop\n      pop\n      pop\n      pop\n      jump\t// out\n        /* \"#utility.yul\":22585:22818   */\n    tag_143:\n        /* \"#utility.yul\":22624:22627   */\n      0x00\n        /* \"#utility.yul\":22647:22671   */\n      tag_510\n        /* \"#utility.yul\":22665:22670   */\n      dup3\n        /* \"#utility.yul\":22647:22671   */\n      tag_222\n      jump\t// in\n    tag_510:\n        /* \"#utility.yul\":22638:22671   */\n      swap2\n      pop\n        /* \"#utility.yul\":22693:22759   */\n      0xffffffffffffffffffffffffffffffffffffffffffffffffffffffffffffffff\n        /* \"#utility.yul\":22686:22691   */\n      dup3\n        /* \"#utility.yul\":22683:22760   */\n      sub\n        /* \"#utility.yul\":22680:22783   */\n      tag_511\n      jumpi\n        /* \"#utility.yul\":22763:22781   */\n      tag_512\n      tag_274\n      jump\t// in\n    tag_512:\n        /* \"#utility.yul\":22680:22783   */\n    tag_511:\n        /* \"#utility.yul\":22810:22811   */\n      0x01\n        /* \"#utility.yul\":22803:22808   */\n      dup3\n        /* \"#utility.yul\":22799:22812   */\n      add\n        /* \"#utility.yul\":22792:22812   */\n      swap1\n      pop\n        /* \"#utility.yul\":22585:22818   */\n      swap2\n      swap1\n      pop\n      jump\t// out\n        /* \"#utility.yul\":22824:22991   */\n    tag_275:\n        /* \"#utility.yul\":22964:22983   */\n      0x547765657420697320746f6f206c6f6e67000000000000000000000000000000\n        /* \"#utility.yul\":22960:22961   */\n      0x00\n        /* \"#utility.yul\":22952:22958   */\n      dup3\n        /* \"#utility.yul\":22948:22962   */\n      add\n        /* \"#utility.yul\":22941:22984   */\n      mstore\n        /* \"#utility.yul\":22824:22991   */\n      pop\n      jump\t// out\n        /* \"#utility.yul\":22997:23363   */\n    tag_276:\n        /* \"#utility.yul\":23139:23142   */\n      0x00\n        /* \"#utility.yul\":23160:23227   */\n      tag_515\n        /* \"#utility.yul\":23224:23226   */\n      0x11\n        /* \"#utility.yul\":23219:23222   */\n      dup4\n        /* \"#utility.yul\":23160:23227   */\n      tag_228\n      jump\t// in\n    tag_515:\n        /* \"#utility.yul\":23153:23227   */\n      swap2\n      pop\n        /* \"#utility.yul\":23236:23329   */\n      tag_516\n        /* \"#utility.yul\":23325:23328   */\n      dup3\n        /* \"#utility.yul\":23236:23329   */\n      tag_275\n      jump\t// in\n    tag_516:\n        /* \"#utility.yul\":23354:23356   */\n      0x20\n        /* \"#utility.yul\":23349:23352   */\n      dup3\n        /* \"#utility.yul\":23345:23357   */\n      add\n        /* \"#utility.yul\":23338:23357   */\n      swap1\n      pop\n        /* \"#utility.yul\":22997:23363   */\n      swap2\n      swap1\n      pop\n      jump\t// out\n        /* \"#utility.yul\":23369:23788   */\n    tag_163:\n        /* \"#utility.yul\":23535:23539   */\n      0x00\n        /* \"#utility.yul\":23573:23575   */\n      0x20\n        /* \"#utility.yul\":23562:23571   */\n      dup3\n        /* \"#utility.yul\":23558:23576   */\n      add\n        /* \"#utility.yul\":23550:23576   */\n      swap1\n      pop\n        /* \"#utility.yul\":23622:23631   */\n      dup2\n        /* \"#utility.yul\":23616:23620   */\n      dup2\n        /* \"#utility.yul\":23612:23632   */\n      sub\n        /* \"#utility.yul\":23608:23609   */\n      0x00\n        /* \"#utility.yul\":23597:23606   */\n      dup4\n        /* \"#utility.yul\":23593:23610   */\n      add\n        /* \"#utility.yul\":23586:23633   */\n      mstore\n        /* \"#utility.yul\":23650:23781   */\n      tag_518\n        /* \"#utility.yul\":23776:23780   */\n      dup2\n        /* \"#utility.yul\":23650:23781   */\n      tag_276\n      jump\t// in\n    tag_518:\n        /* \"#utility.yul\":23642:23781   */\n      swap1\n      pop\n        /* \"#utility.yul\":23369:23788   */\n      swap2\n      swap1\n      pop\n      jump\t// out\n        /* \"#utility.yul\":23794:23935   */\n    tag_277:\n        /* \"#utility.yul\":23843:23847   */\n      0x00\n        /* \"#utility.yul\":23866:23869   */\n      dup2\n        /* \"#utility.yul\":23858:23869   */\n      swap1\n      pop\n        /* \"#utility.yul\":23889:23892   */\n      dup2\n        /* \"#utility.yul\":23886:23887   */\n      0x00\n        /* \"#utility.yul\":23879:23893   */\n      mstore\n        /* \"#utility.yul\":23923:23927   */\n      0x20\n        /* \"#utility.yul\":23920:23921   */\n      0x00\n        /* \"#utility.yul\":23910:23928   */\n      keccak256\n        /* \"#utility.yul\":23902:23928   */\n      swap1\n      pop\n        /* \"#utility.yul\":23794:23935   */\n      swap2\n      swap1\n      pop\n      jump\t// out\n        /* \"#utility.yul\":23941:24034   */\n    tag_278:\n        /* \"#utility.yul\":23978:23984   */\n      0x00\n        /* \"#utility.yul\":24025:24027   */\n      0x20\n        /* \"#utility.yul\":24020:24022   */\n      0x1f\n        /* \"#utility.yul\":24013:24018   */\n      dup4\n        /* \"#utility.yul\":24009:24023   */\n      add\n        /* \"#utility.yul\":24005:24028   */\n      div\n        /* \"#utility.yul\":23995:24028   */\n      swap1\n      pop\n        /* \"#utility.yul\":23941:24034   */\n      swap2\n      swap1\n      pop\n      jump\t// out\n        /* \"#utility.yul\":24040:24147   */\n    tag_279:\n        /* \"#utility.yul\":24084:24092   */\n      0x00\n        /* \"#utility.yul\":24134:24139   */\n      dup3\n        /* \"#utility.yul\":24128:24132   */\n      dup3\n        /* \"#utility.yul\":24124:24140   */\n      shl\n        /* \"#utility.yul\":24103:24140   */\n      swap1\n      pop\n        /* \"#utility.yul\":24040:24147   */\n      swap3\n      swap2\n      pop\n      pop\n      jump\t// out\n        /* \"#utility.yul\":24153:24546   */\n    tag_280:\n        /* \"#utility.yul\":24222:24228   */\n      0x00\n        /* \"#utility.yul\":24272:24273   */\n      0x08\n        /* \"#utility.yul\":24260:24270   */\n      dup4\n        /* \"#utility.yul\":24256:24274   */\n      mul\n        /* \"#utility.yul\":24295:24392   */\n      tag_523\n        /* \"#utility.yul\":24325:24391   */\n      0xffffffffffffffffffffffffffffffffffffffffffffffffffffffffffffffff\n        /* \"#utility.yul\":24314:24323   */\n      dup3\n        /* \"#utility.yul\":24295:24392   */\n      tag_279\n      jump\t// in\n    tag_523:\n        /* \"#utility.yul\":24413:24452   */\n      tag_524\n        /* \"#utility.yul\":24443:24451   */\n      dup7\n        /* \"#utility.yul\":24432:24441   */\n      dup4\n        /* \"#utility.yul\":24413:24452   */\n      tag_279\n      jump\t// in\n    tag_524:\n        /* \"#utility.yul\":24401:24452   */\n      swap6\n      pop\n        /* \"#utility.yul\":24485:24489   */\n      dup1\n        /* \"#utility.yul\":24481:24490   */\n      not\n        /* \"#utility.yul\":24474:24479   */\n      dup5\n        /* \"#utility.yul\":24470:24491   */\n      and\n        /* \"#utility.yul\":24461:24491   */\n      swap4\n      pop\n        /* \"#utility.yul\":24534:24538   */\n      dup1\n        /* \"#utility.yul\":24524:24532   */\n      dup7\n        /* \"#utility.yul\":24520:24539   */\n      and\n        /* \"#utility.yul\":24513:24518   */\n      dup5\n        /* \"#utility.yul\":24510:24540   */\n      or\n        /* \"#utility.yul\":24500:24540   */\n      swap3\n      pop\n        /* \"#utility.yul\":24229:24546   */\n      pop\n      pop\n        /* \"#utility.yul\":24153:24546   */\n      swap4\n      swap3\n      pop\n      pop\n      pop\n      jump\t// out\n        /* \"#utility.yul\":24552:24694   */\n    tag_281:\n        /* \"#utility.yul\":24602:24611   */\n      0x00\n        /* \"#utility.yul\":24635:24688   */\n      tag_526\n        /* \"#utility.yul\":24653:24687   */\n      tag_527\n        /* \"#utility.yul\":24662:24686   */\n      tag_528\n        /* \"#utility.yul\":24680:24685   */\n      dup5\n        /* \"#utility.yul\":24662:24686   */\n      tag_222\n      jump\t// in\n    tag_528:\n        /* \"#utility.yul\":24653:24687   */\n      tag_256\n      jump\t// in\n    tag_527:\n        /* \"#utility.yul\":24635:24688   */\n      tag_222\n      jump\t// in\n    tag_526:\n        /* \"#utility.yul\":24622:24688   */\n      swap1\n      pop\n        /* \"#utility.yul\":24552:24694   */\n      swap2\n      swap1\n      pop\n      jump\t// out\n        /* \"#utility.yul\":24700:24775   */\n    tag_282:\n        /* \"#utility.yul\":24743:24746   */\n      0x00\n        /* \"#utility.yul\":24764:24769   */\n      dup2\n        /* \"#utility.yul\":24757:24769   */\n      swap1\n      pop\n        /* \"#utility.yul\":24700:24775   */\n      swap2\n      swap1\n      pop\n      jump\t// out\n        /* \"#utility.yul\":24781:25050   */\n    tag_283:\n        /* \"#utility.yul\":24891:24930   */\n      tag_531\n        /* \"#utility.yul\":24922:24929   */\n      dup4\n        /* \"#utility.yul\":24891:24930   */\n      tag_281\n      jump\t// in\n    tag_531:\n        /* \"#utility.yul\":24952:25043   */\n      tag_532\n        /* \"#utility.yul\":25001:25042   */\n      tag_533\n        /* \"#utility.yul\":25025:25041   */\n      dup3\n        /* \"#utility.yul\":25001:25042   */\n      tag_282\n      jump\t// in\n    tag_533:\n        /* \"#utility.yul\":24993:24999   */\n      dup5\n        /* \"#utility.yul\":24986:24990   */\n      dup5\n        /* \"#utility.yul\":24980:24991   */\n      sload\n        /* \"#utility.yul\":24952:25043   */\n      tag_280\n      jump\t// in\n    tag_532:\n        /* \"#utility.yul\":24946:24950   */\n      dup3\n        /* \"#utility.yul\":24939:25044   */\n      sstore\n        /* \"#utility.yul\":24857:25050   */\n      pop\n        /* \"#utility.yul\":24781:25050   */\n      pop\n      pop\n      pop\n      jump\t// out\n        /* \"#utility.yul\":25056:25129   */\n    tag_284:\n        /* \"#utility.yul\":25101:25104   */\n      0x00\n        /* \"#utility.yul\":25056:25129   */\n      swap1\n      jump\t// out\n        /* \"#utility.yul\":25135:25324   */\n    tag_285:\n        /* \"#utility.yul\":25212:25244   */\n      tag_536\n      tag_284\n      jump\t// in\n    tag_536:\n        /* \"#utility.yul\":25253:25318   */\n      tag_537\n        /* \"#utility.yul\":25311:25317   */\n      dup2\n        /* \"#utility.yul\":25303:25309   */\n      dup5\n        /* \"#utility.yul\":25297:25301   */\n      dup5\n        /* \"#utility.yul\":25253:25318   */\n      tag_283\n      jump\t// in\n    tag_537:\n        /* \"#utility.yul\":25188:25324   */\n      pop\n        /* \"#utility.yul\":25135:25324   */\n      pop\n      pop\n      jump\t// out\n        /* \"#utility.yul\":25330:25516   */\n    tag_286:\n        /* \"#utility.yul\":25390:25510   */\n    tag_539:\n        /* \"#utility.yul\":25407:25410   */\n      dup2\n        /* \"#utility.yul\":25400:25405   */\n      dup2\n        /* \"#utility.yul\":25397:25411   */\n      lt\n        /* \"#utility.yul\":25390:25510   */\n      iszero\n      tag_541\n      jumpi\n        /* \"#utility.yul\":25461:25500   */\n      tag_542\n        /* \"#utility.yul\":25498:25499   */\n      0x00\n        /* \"#utility.yul\":25491:25496   */\n      dup3\n        /* \"#utility.yul\":25461:25500   */\n      tag_285\n      jump\t// in\n    tag_542:\n        /* \"#utility.yul\":25434:25435   */\n      0x01\n        /* \"#utility.yul\":25427:25432   */\n      dup2\n        /* \"#utility.yul\":25423:25436   */\n      add\n        /* \"#utility.yul\":25414:25436   */\n      swap1\n      pop\n        /* \"#utility.yul\":25390:25510   */\n      jump(tag_539)\n    tag_541:\n        /* \"#utility.yul\":25330:25516   */\n      pop\n      pop\n      jump\t// out\n        /* \"#utility.yul\":25522:26065   */\n    tag_287:\n        /* \"#utility.yul\":25623:25625   */\n      0x1f\n        /* \"#utility.yul\":25618:25621   */\n      dup3\n        /* \"#utility.yul\":25615:25626   */\n      gt\n        /* \"#utility.yul\":25612:26058   */\n      iszero\n      tag_544\n      jumpi\n        /* \"#utility.yul\":25657:25695   */\n      tag_545\n        /* \"#utility.yul\":25689:25694   */\n      dup2\n        /* \"#utility.yul\":25657:25695   */\n      tag_277\n      jump\t// in\n    tag_545:\n        /* \"#utility.yul\":25741:25770   */\n      tag_546\n        /* \"#utility.yul\":25759:25769   */\n      dup5\n        /* \"#utility.yul\":25741:25770   */\n      tag_278\n      jump\t// in\n    tag_546:\n        /* \"#utility.yul\":25731:25739   */\n      dup2\n        /* \"#utility.yul\":25727:25771   */\n      add\n        /* \"#utility.yul\":25924:25926   */\n      0x20\n        /* \"#utility.yul\":25912:25922   */\n      dup6\n        /* \"#utility.yul\":25909:25927   */\n      lt\n        /* \"#utility.yul\":25906:25955   */\n      iszero\n      tag_547\n      jumpi\n        /* \"#utility.yul\":25945:25953   */\n      dup2\n        /* \"#utility.yul\":25930:25953   */\n      swap1\n      pop\n        /* \"#utility.yul\":25906:25955   */\n    tag_547:\n        /* \"#utility.yul\":25968:26048   */\n      tag_548\n        /* \"#utility.yul\":26024:26046   */\n      tag_549\n        /* \"#utility.yul\":26042:26045   */\n      dup6\n        /* \"#utility.yul\":26024:26046   */\n      tag_278\n      jump\t// in\n    tag_549:\n        /* \"#utility.yul\":26014:26022   */\n      dup4\n        /* \"#utility.yul\":26010:26047   */\n      add\n        /* \"#utility.yul\":25997:26008   */\n      dup3\n        /* \"#utility.yul\":25968:26048   */\n      tag_286\n      jump\t// in\n    tag_548:\n        /* \"#utility.yul\":25627:26058   */\n      pop\n      pop\n        /* \"#utility.yul\":25612:26058   */\n    tag_544:\n        /* \"#utility.yul\":25522:26065   */\n      pop\n      pop\n      pop\n      jump\t// out\n        /* \"#utility.yul\":26071:26188   */\n    tag_288:\n        /* \"#utility.yul\":26125:26133   */\n      0x00\n        /* \"#utility.yul\":26175:26180   */\n      dup3\n        /* \"#utility.yul\":26169:26173   */\n      dup3\n        /* \"#utility.yul\":26165:26181   */\n      shr\n        /* \"#utility.yul\":26144:26181   */\n      swap1\n      pop\n        /* \"#utility.yul\":26071:26188   */\n      swap3\n      swap2\n      pop\n      pop\n      jump\t// out\n        /* \"#utility.yul\":26194:26363   */\n    tag_289:\n        /* \"#utility.yul\":26238:26244   */\n      0x00\n        /* \"#utility.yul\":26271:26322   */\n      tag_552\n        /* \"#utility.yul\":26319:26320   */\n      0x00\n        /* \"#utility.yul\":26315:26321   */\n      not\n        /* \"#utility.yul\":26307:26312   */\n      dup5\n        /* \"#utility.yul\":26304:26305   */\n      0x08\n        /* \"#utility.yul\":26300:26313   */\n      mul\n        /* \"#utility.yul\":26271:26322   */\n      tag_288\n      jump\t// in\n    tag_552:\n        /* \"#utility.yul\":26267:26323   */\n      not\n        /* \"#utility.yul\":26352:26356   */\n      dup1\n        /* \"#utility.yul\":26346:26350   */\n      dup4\n        /* \"#utility.yul\":26342:26357   */\n      and\n        /* \"#utility.yul\":26332:26357   */\n      swap2\n      pop\n        /* \"#utility.yul\":26245:26363   */\n      pop\n        /* \"#utility.yul\":26194:26363   */\n      swap3\n      swap2\n      pop\n      pop\n      jump\t// out\n        /* \"#utility.yul\":26368:26663   */\n    tag_290:\n        /* \"#utility.yul\":26444:26448   */\n      0x00\n        /* \"#utility.yul\":26590:26619   */\n      tag_554\n        /* \"#utility.yul\":26615:26618   */\n      dup4\n        /* \"#utility.yul\":26609:26613   */\n      dup4\n        /* \"#utility.yul\":26590:26619   */\n      tag_289\n      jump\t// in\n    tag_554:\n        /* \"#utility.yul\":26582:26619   */\n      swap2\n      pop\n        /* \"#utility.yul\":26652:26655   */\n      dup3\n        /* \"#utility.yul\":26649:26650   */\n      0x02\n        /* \"#utility.yul\":26645:26656   */\n      mul\n        /* \"#utility.yul\":26639:26643   */\n      dup3\n        /* \"#utility.yul\":26636:26657   */\n      or\n        /* \"#utility.yul\":26628:26657   */\n      swap1\n      pop\n        /* \"#utility.yul\":26368:26663   */\n      swap3\n      swap2\n      pop\n      pop\n      jump\t// out\n        /* \"#utility.yul\":26668:28063   */\n    tag_166:\n        /* \"#utility.yul\":26785:26822   */\n      tag_556\n        /* \"#utility.yul\":26818:26821   */\n      dup3\n        /* \"#utility.yul\":26785:26822   */\n      tag_227\n      jump\t// in\n    tag_556:\n        /* \"#utility.yul\":26887:26905   */\n      0xffffffffffffffff\n        /* \"#utility.yul\":26879:26885   */\n      dup2\n        /* \"#utility.yul\":26876:26906   */\n      gt\n        /* \"#utility.yul\":26873:26929   */\n      iszero\n      tag_557\n      jumpi\n        /* \"#utility.yul\":26909:26927   */\n      tag_558\n      tag_249\n      jump\t// in\n    tag_558:\n        /* \"#utility.yul\":26873:26929   */\n    tag_557:\n        /* \"#utility.yul\":26953:26991   */\n      tag_559\n        /* \"#utility.yul\":26985:26989   */\n      dup3\n        /* \"#utility.yul\":26979:26990   */\n      sload\n        /* \"#utility.yul\":26953:26991   */\n      tag_75\n      jump\t// in\n    tag_559:\n        /* \"#utility.yul\":27038:27105   */\n      tag_560\n        /* \"#utility.yul\":27098:27104   */\n      dup3\n        /* \"#utility.yul\":27090:27096   */\n      dup3\n        /* \"#utility.yul\":27084:27088   */\n      dup6\n        /* \"#utility.yul\":27038:27105   */\n      tag_287\n      jump\t// in\n    tag_560:\n        /* \"#utility.yul\":27132:27133   */\n      0x00\n        /* \"#utility.yul\":27156:27160   */\n      0x20\n        /* \"#utility.yul\":27143:27160   */\n      swap1\n      pop\n        /* \"#utility.yul\":27188:27190   */\n      0x1f\n        /* \"#utility.yul\":27180:27186   */\n      dup4\n        /* \"#utility.yul\":27177:27191   */\n      gt\n        /* \"#utility.yul\":27205:27206   */\n      0x01\n        /* \"#utility.yul\":27200:27818   */\n      dup2\n      eq\n      tag_562\n      jumpi\n        /* \"#utility.yul\":27862:27863   */\n      0x00\n        /* \"#utility.yul\":27879:27885   */\n      dup5\n        /* \"#utility.yul\":27876:27953   */\n      iszero\n      tag_563\n      jumpi\n        /* \"#utility.yul\":27928:27937   */\n      dup3\n        /* \"#utility.yul\":27923:27926   */\n      dup8\n        /* \"#utility.yul\":27919:27938   */\n      add\n        /* \"#utility.yul\":27913:27939   */\n      mload\n        /* \"#utility.yul\":27904:27939   */\n      swap1\n      pop\n        /* \"#utility.yul\":27876:27953   */\n    tag_563:\n        /* \"#utility.yul\":27979:28046   */\n      tag_564\n        /* \"#utility.yul\":28039:28045   */\n      dup6\n        /* \"#utility.yul\":28032:28037   */\n      dup3\n        /* \"#utility.yul\":27979:28046   */\n      tag_290\n      jump\t// in\n    tag_564:\n        /* \"#utility.yul\":27973:27977   */\n      dup7\n        /* \"#utility.yul\":27966:28047   */\n      sstore\n        /* \"#utility.yul\":27835:28057   */\n      pop\n        /* \"#utility.yul\":27170:28057   */\n      jump(tag_561)\n        /* \"#utility.yul\":27200:27818   */\n    tag_562:\n        /* \"#utility.yul\":27252:27256   */\n      0x1f\n        /* \"#utility.yul\":27248:27257   */\n      not\n        /* \"#utility.yul\":27240:27246   */\n      dup5\n        /* \"#utility.yul\":27236:27258   */\n      and\n        /* \"#utility.yul\":27286:27323   */\n      tag_565\n        /* \"#utility.yul\":27318:27322   */\n      dup7\n        /* \"#utility.yul\":27286:27323   */\n      tag_277\n      jump\t// in\n    tag_565:\n        /* \"#utility.yul\":27345:27346   */\n      0x00\n        /* \"#utility.yul\":27359:27567   */\n    tag_566:\n        /* \"#utility.yul\":27373:27380   */\n      dup3\n        /* \"#utility.yul\":27370:27371   */\n      dup2\n        /* \"#utility.yul\":27367:27381   */\n      lt\n        /* \"#utility.yul\":27359:27567   */\n      iszero\n      tag_568\n      jumpi\n        /* \"#utility.yul\":27452:27461   */\n      dup5\n        /* \"#utility.yul\":27447:27450   */\n      dup10\n        /* \"#utility.yul\":27443:27462   */\n      add\n        /* \"#utility.yul\":27437:27463   */\n      mload\n        /* \"#utility.yul\":27429:27435   */\n      dup3\n        /* \"#utility.yul\":27422:27464   */\n      sstore\n        /* \"#utility.yul\":27503:27504   */\n      0x01\n        /* \"#utility.yul\":27495:27501   */\n      dup3\n        /* \"#utility.yul\":27491:27505   */\n      add\n        /* \"#utility.yul\":27481:27505   */\n      swap2\n      pop\n        /* \"#utility.yul\":27550:27552   */\n      0x20\n        /* \"#utility.yul\":27539:27548   */\n      dup6\n        /* \"#utility.yul\":27535:27553   */\n      add\n        /* \"#utility.yul\":27522:27553   */\n      swap5\n      pop\n        /* \"#utility.yul\":27396:27400   */\n      0x20\n        /* \"#utility.yul\":27393:27394   */\n      dup2\n        /* \"#utility.yul\":27389:27401   */\n      add\n        /* \"#utility.yul\":27384:27401   */\n      swap1\n      pop\n        /* \"#utility.yul\":27359:27567   */\n      jump(tag_566)\n    tag_568:\n        /* \"#utility.yul\":27595:27601   */\n      dup7\n        /* \"#utility.yul\":27586:27593   */\n      dup4\n        /* \"#utility.yul\":27583:27602   */\n      lt\n        /* \"#utility.yul\":27580:27759   */\n      iszero\n      tag_569\n      jumpi\n        /* \"#utility.yul\":27653:27662   */\n      dup5\n        /* \"#utility.yul\":27648:27651   */\n      dup10\n        /* \"#utility.yul\":27644:27663   */\n      add\n        /* \"#utility.yul\":27638:27664   */\n      mload\n        /* \"#utility.yul\":27696:27744   */\n      tag_570\n        /* \"#utility.yul\":27738:27742   */\n      0x1f\n        /* \"#utility.yul\":27730:27736   */\n      dup10\n        /* \"#utility.yul\":27726:27743   */\n      and\n        /* \"#utility.yul\":27715:27724   */\n      dup3\n        /* \"#utility.yul\":27696:27744   */\n      tag_289\n      jump\t// in\n    tag_570:\n        /* \"#utility.yul\":27688:27694   */\n      dup4\n        /* \"#utility.yul\":27681:27745   */\n      sstore\n        /* \"#utility.yul\":27603:27759   */\n      pop\n        /* \"#utility.yul\":27580:27759   */\n    tag_569:\n        /* \"#utility.yul\":27805:27806   */\n      0x01\n        /* \"#utility.yul\":27801:27802   */\n      0x02\n        /* \"#utility.yul\":27793:27799   */\n      dup9\n        /* \"#utility.yul\":27789:27803   */\n      mul\n        /* \"#utility.yul\":27785:27807   */\n      add\n        /* \"#utility.yul\":27779:27783   */\n      dup9\n        /* \"#utility.yul\":27772:27808   */\n      sstore\n        /* \"#utility.yul\":27207:27818   */\n      pop\n      pop\n      pop\n        /* \"#utility.yul\":27170:28057   */\n    tag_561:\n      pop\n        /* \"#utility.yul\":26760:28063   */\n      pop\n      pop\n      pop\n        /* \"#utility.yul\":26668:28063   */\n      pop\n      pop\n      jump\t// out\n        /* \"#utility.yul\":28069:28713   */\n    tag_168:\n        /* \"#utility.yul\":28266:28270   */\n      0x00\n        /* \"#utility.yul\":28304:28307   */\n      0x80\n        /* \"#utility.yul\":28293:28302   */\n      dup3\n        /* \"#utility.yul\":28289:28308   */\n      add\n        /* \"#utility.yul\":28281:28308   */\n      swap1\n      pop\n        /* \"#utility.yul\":28318:28389   */\n      tag_572\n        /* \"#utility.yul\":28386:28387   */\n      0x00\n        /* \"#utility.yul\":28375:28384   */\n      dup4\n        /* \"#utility.yul\":28371:28388   */\n      add\n        /* \"#utility.yul\":28362:28368   */\n      dup8\n        /* \"#utility.yul\":28318:28389   */\n      tag_225\n      jump\t// in\n    tag_572:\n        /* \"#utility.yul\":28399:28471   */\n      tag_573\n        /* \"#utility.yul\":28467:28469   */\n      0x20\n        /* \"#utility.yul\":28456:28465   */\n      dup4\n        /* \"#utility.yul\":28452:28470   */\n      add\n        /* \"#utility.yul\":28443:28449   */\n      dup7\n        /* \"#utility.yul\":28399:28471   */\n      tag_226\n      jump\t// in\n    tag_573:\n        /* \"#utility.yul\":28518:28527   */\n      dup2\n        /* \"#utility.yul\":28512:28516   */\n      dup2\n        /* \"#utility.yul\":28508:28528   */\n      sub\n        /* \"#utility.yul\":28503:28505   */\n      0x40\n        /* \"#utility.yul\":28492:28501   */\n      dup4\n        /* \"#utility.yul\":28488:28506   */\n      add\n        /* \"#utility.yul\":28481:28529   */\n      mstore\n        /* \"#utility.yul\":28546:28624   */\n      tag_574\n        /* \"#utility.yul\":28619:28623   */\n      dup2\n        /* \"#utility.yul\":28610:28616   */\n      dup6\n        /* \"#utility.yul\":28546:28624   */\n      tag_231\n      jump\t// in\n    tag_574:\n        /* \"#utility.yul\":28538:28624   */\n      swap1\n      pop\n        /* \"#utility.yul\":28634:28706   */\n      tag_575\n        /* \"#utility.yul\":28702:28704   */\n      0x60\n        /* \"#utility.yul\":28691:28700   */\n      dup4\n        /* \"#utility.yul\":28687:28705   */\n      add\n        /* \"#utility.yul\":28678:28684   */\n      dup5\n        /* \"#utility.yul\":28634:28706   */\n      tag_225\n      jump\t// in\n    tag_575:\n        /* \"#utility.yul\":28069:28713   */\n      swap6\n      swap5\n      pop\n      pop\n      pop\n      pop\n      pop\n      jump\t// out\n        /* \"#utility.yul\":28719:28910   */\n    tag_187:\n        /* \"#utility.yul\":28759:28762   */\n      0x00\n        /* \"#utility.yul\":28778:28798   */\n      tag_577\n        /* \"#utility.yul\":28796:28797   */\n      dup3\n        /* \"#utility.yul\":28778:28798   */\n      tag_222\n      jump\t// in\n    tag_577:\n        /* \"#utility.yul\":28773:28798   */\n      swap2\n      pop\n        /* \"#utility.yul\":28812:28832   */\n      tag_578\n        /* \"#utility.yul\":28830:28831   */\n      dup4\n        /* \"#utility.yul\":28812:28832   */\n      tag_222\n      jump\t// in\n    tag_578:\n        /* \"#utility.yul\":28807:28832   */\n      swap3\n      pop\n        /* \"#utility.yul\":28855:28856   */\n      dup3\n        /* \"#utility.yul\":28852:28853   */\n      dup3\n        /* \"#utility.yul\":28848:28857   */\n      add\n        /* \"#utility.yul\":28841:28857   */\n      swap1\n      pop\n        /* \"#utility.yul\":28876:28879   */\n      dup1\n        /* \"#utility.yul\":28873:28874   */\n      dup3\n        /* \"#utility.yul\":28870:28880   */\n      gt\n        /* \"#utility.yul\":28867:28903   */\n      iszero\n      tag_579\n      jumpi\n        /* \"#utility.yul\":28883:28901   */\n      tag_580\n      tag_274\n      jump\t// in\n    tag_580:\n        /* \"#utility.yul\":28867:28903   */\n    tag_579:\n        /* \"#utility.yul\":28719:28910   */\n      swap3\n      swap2\n      pop\n      pop\n      jump\t// out\n\n    auxdata: 0xa26469706673582212204ea64aaf904697505928f883e1a2a3053e89d0eb9acca60f0a602c453a7f001f64736f6c63430008180033\n}\n",
				"bytecode": {
					"linkReferences": {},
					"object": "6080604052610118600160146101000a81548161ffff021916908361ffff1602179055503480156200002f575f80fd5b506040516200252c3803806200252c833981810160405281019062000055919062000248565b335f73ffffffffffffffffffffffffffffffffffffffff168173ffffffffffffffffffffffffffffffffffffffff1603620000c9575f6040517f1e4fbdf7000000000000000000000000000000000000000000000000000000008152600401620000c0919062000289565b60405180910390fd5b620000da816200012260201b60201c565b508060015f6101000a81548173ffffffffffffffffffffffffffffffffffffffff021916908373ffffffffffffffffffffffffffffffffffffffff16021790555050620002a4565b5f805f9054906101000a900473ffffffffffffffffffffffffffffffffffffffff169050815f806101000a81548173ffffffffffffffffffffffffffffffffffffffff021916908373ffffffffffffffffffffffffffffffffffffffff1602179055508173ffffffffffffffffffffffffffffffffffffffff168173ffffffffffffffffffffffffffffffffffffffff167f8be0079c531659141344cd1fd0a4f28419497f9722a3daafe3b4186f6b6457e060405160405180910390a35050565b5f80fd5b5f73ffffffffffffffffffffffffffffffffffffffff82169050919050565b5f6200021282620001e7565b9050919050565b620002248162000206565b81146200022f575f80fd5b50565b5f81519050620002428162000219565b92915050565b5f6020828403121562000260576200025f620001e3565b5b5f6200026f8482850162000232565b91505092915050565b620002838162000206565b82525050565b5f6020820190506200029e5f83018462000278565b92915050565b61227a80620002b25f395ff3fe608060405234801561000f575f80fd5b50600436106100cd575f3560e01c8063715018a61161008a5780638da5cb5b116100645780638da5cb5b146101fd578063a3974b211461021b578063c3ad5ecb14610239578063f2fde38b14610269576100cd565b8063715018a6146101a75780637c9cd2bc146101b1578063820785cc146101cd576100cd565b806305a1b4a9146100d157806312e7ee1c146101055780633d9b569f1461013557806358bfa4ab14610151578063633782161461016d5780636eb1079714610189575b5f80fd5b6100eb60048036038101906100e6919061149c565b610285565b6040516100fc959493929190611582565b60405180910390f35b61011f600480360381019061011a91906115da565b610376565b60405161012c9190611799565b60405180910390f35b61014f600480360381019061014a919061149c565b610511565b005b61016b600480360381019061016691906117f0565b610848565b005b6101876004803603810190610182919061149c565b610870565b005b610191610b07565b60405161019e919061182a565b60405180910390f35b6101af610b1b565b005b6101cb60048036038101906101c6919061196f565b610b2e565b005b6101e760048036038101906101e291906115da565b610e1a565b6040516101f491906119b6565b60405180910390f35b610205611027565b60405161021291906119cf565b60405180910390f35b61022361104e565b6040516102309190611a43565b60405180910390f35b610253600480360381019061024e9190611a5c565b611073565b6040516102609190611afa565b60405180910390f35b610283600480360381019061027e91906115da565b6111ea565b005b6002602052815f5260405f20818154811061029e575f80fd5b905f5260205f2090600502015f9150915050805f015490806001015f9054906101000a900473ffffffffffffffffffffffffffffffffffffffff16908060020180546102e990611b47565b80601f016020809104026020016040519081016040528092919081815260200182805461031590611b47565b80156103605780601f1061033757610100808354040283529160200191610360565b820191905f5260205f20905b81548152906001019060200180831161034357829003601f168201915b5050505050908060030154908060040154905085565b606060025f8373ffffffffffffffffffffffffffffffffffffffff1673ffffffffffffffffffffffffffffffffffffffff1681526020019081526020015f20805480602002602001604051908101604052809291908181526020015f905b82821015610506578382905f5260205f2090600502016040518060a00160405290815f8201548152602001600182015f9054906101000a900473ffffffffffffffffffffffffffffffffffffffff1673ffffffffffffffffffffffffffffffffffffffff1673ffffffffffffffffffffffffffffffffffffffff16815260200160028201805461046390611b47565b80601f016020809104026020016040519081016040528092919081815260200182805461048f90611b47565b80156104da5780601f106104b1576101008083540402835291602001916104da565b820191905f5260205f20905b8154815290600101906020018083116104bd57829003601f168201915b5050505050815260200160038201548152602001600482015481525050815260200190600101906103d4565b505050509050919050565b5f60015f9054906101000a900473ffffffffffffffffffffffffffffffffffffffff1673ffffffffffffffffffffffffffffffffffffffff16630f53a470336040518263ffffffff1660e01b815260040161056c91906119cf565b5f60405180830381865afa158015610586573d5f803e3d5ffd5b505050506040513d5f823e3d601f19601f820116820180604052508101906105ae9190611c72565b90505f815f015151116105f6576040517f08c379a00000000000000000000000000000000000000000000000000000000081526004016105ed90611d03565b60405180910390fd5b8160025f8573ffffffffffffffffffffffffffffffffffffffff1673ffffffffffffffffffffffffffffffffffffffff1681526020019081526020015f20838154811061064657610645611d21565b5b905f5260205f2090600502015f015414610695576040517f08c379a000000000000000000000000000000000000000000000000000000000815260040161068c90611d98565b60405180910390fd5b5f60025f8573ffffffffffffffffffffffffffffffffffffffff1673ffffffffffffffffffffffffffffffffffffffff1681526020019081526020015f2083815481106106e5576106e4611d21565b5b905f5260205f2090600502016004015411610735576040517f08c379a000000000000000000000000000000000000000000000000000000000815260040161072c90611e00565b60405180910390fd5b60025f8473ffffffffffffffffffffffffffffffffffffffff1673ffffffffffffffffffffffffffffffffffffffff1681526020019081526020015f20828154811061078457610783611d21565b5b905f5260205f2090600502016004015f8154809291906107a390611e4b565b91905055507f762c2616349603ac16eba0de8e6141b79129a07ab63bd99e0a80b3a47171694333848460025f8873ffffffffffffffffffffffffffffffffffffffff1673ffffffffffffffffffffffffffffffffffffffff1681526020019081526020015f20868154811061081b5761081a611d21565b5b905f5260205f2090600502016004015460405161083b9493929190611e72565b60405180910390a1505050565b61085061126e565b80600160146101000a81548161ffff021916908361ffff16021790555050565b5f60015f9054906101000a900473ffffffffffffffffffffffffffffffffffffffff1673ffffffffffffffffffffffffffffffffffffffff16630f53a470336040518263ffffffff1660e01b81526004016108cb91906119cf565b5f60405180830381865afa1580156108e5573d5f803e3d5ffd5b505050506040513d5f823e3d601f19601f8201168201806040525081019061090d9190611c72565b90505f815f01515111610955576040517f08c379a000000000000000000000000000000000000000000000000000000000815260040161094c90611d03565b60405180910390fd5b8160025f8573ffffffffffffffffffffffffffffffffffffffff1673ffffffffffffffffffffffffffffffffffffffff1681526020019081526020015f2083815481106109a5576109a4611d21565b5b905f5260205f2090600502015f0154146109f4576040517f08c379a00000000000000000000000000000000000000000000000000000000081526004016109eb90611d98565b60405180910390fd5b60025f8473ffffffffffffffffffffffffffffffffffffffff1673ffffffffffffffffffffffffffffffffffffffff1681526020019081526020015f208281548110610a4357610a42611d21565b5b905f5260205f2090600502016004015f815480929190610a6290611eb5565b91905055507fe8a76fc0f16d11a00d1e93b689b63d76cf60af914dd3d915375dc41d01a0c3c833848460025f8873ffffffffffffffffffffffffffffffffffffffff1673ffffffffffffffffffffffffffffffffffffffff1681526020019081526020015f208681548110610ada57610ad9611d21565b5b905f5260205f20906005020160040154604051610afa9493929190611e72565b60405180910390a1505050565b600160149054906101000a900461ffff1681565b610b2361126e565b610b2c5f6112f5565b565b5f60015f9054906101000a900473ffffffffffffffffffffffffffffffffffffffff1673ffffffffffffffffffffffffffffffffffffffff16630f53a470336040518263ffffffff1660e01b8152600401610b8991906119cf565b5f60405180830381865afa158015610ba3573d5f803e3d5ffd5b505050506040513d5f823e3d601f19601f82011682018060405250810190610bcb9190611c72565b90505f815f01515111610c13576040517f08c379a0000000000000000000000000000000000000000000000000000000008152600401610c0a90611d03565b60405180910390fd5b600160149054906101000a900461ffff1661ffff1682511115610c6b576040517f08c379a0000000000000000000000000000000000000000000000000000000008152600401610c6290611f46565b60405180910390fd5b5f6040518060a0016040528060025f3373ffffffffffffffffffffffffffffffffffffffff1673ffffffffffffffffffffffffffffffffffffffff1681526020019081526020015f208054905081526020013373ffffffffffffffffffffffffffffffffffffffff1681526020018481526020014281526020015f815250905060025f3373ffffffffffffffffffffffffffffffffffffffff1673ffffffffffffffffffffffffffffffffffffffff1681526020019081526020015f2081908060018154018082558091505060019003905f5260205f2090600502015f909190919091505f820151815f01556020820151816001015f6101000a81548173ffffffffffffffffffffffffffffffffffffffff021916908373ffffffffffffffffffffffffffffffffffffffff1602179055506040820151816002019081610db291906120f8565b50606082015181600301556080820151816004015550507f16fd3c13e9d46923e0a8bce11c7b473ec508a72e6c96cd2404b29ce972afc29e815f0151826020015183604001518460600151604051610e0d94939291906121c7565b60405180910390a1505050565b5f8060025f8473ffffffffffffffffffffffffffffffffffffffff1673ffffffffffffffffffffffffffffffffffffffff1681526020019081526020015f20805480602002602001604051908101604052809291908181526020015f905b82821015610faa578382905f5260205f2090600502016040518060a00160405290815f8201548152602001600182015f9054906101000a900473ffffffffffffffffffffffffffffffffffffffff1673ffffffffffffffffffffffffffffffffffffffff1673ffffffffffffffffffffffffffffffffffffffff168152602001600282018054610f0790611b47565b80601f0160208091040260200160405190810160405280929190818152602001828054610f3390611b47565b8015610f7e5780601f10610f5557610100808354040283529160200191610f7e565b820191905f5260205f20905b815481529060010190602001808311610f6157829003601f168201915b505050505081526020016003820154815260200160048201548152505081526020019060010190610e78565b5050505090505f805b825181101561101c575f838281518110610fd057610fcf611d21565b5b602002602001015160800151111561100f57828181518110610ff557610ff4611d21565b5b6020026020010151608001518261100c9190612211565b91505b8080600101915050610fb3565b508092505050919050565b5f805f9054906101000a900473ffffffffffffffffffffffffffffffffffffffff16905090565b60015f9054906101000a900473ffffffffffffffffffffffffffffffffffffffff1681565b61107b6113bd565b60025f3373ffffffffffffffffffffffffffffffffffffffff1673ffffffffffffffffffffffffffffffffffffffff1681526020019081526020015f2082815481106110ca576110c9611d21565b5b905f5260205f2090600502016040518060a00160405290815f8201548152602001600182015f9054906101000a900473ffffffffffffffffffffffffffffffffffffffff1673ffffffffffffffffffffffffffffffffffffffff1673ffffffffffffffffffffffffffffffffffffffff16815260200160028201805461114f90611b47565b80601f016020809104026020016040519081016040528092919081815260200182805461117b90611b47565b80156111c65780601f1061119d576101008083540402835291602001916111c6565b820191905f5260205f20905b8154815290600101906020018083116111a957829003601f168201915b50505050508152602001600382015481526020016004820154815250509050919050565b6111f261126e565b5f73ffffffffffffffffffffffffffffffffffffffff168173ffffffffffffffffffffffffffffffffffffffff1603611262575f6040517f1e4fbdf700000000000000000000000000000000000000000000000000000000815260040161125991906119cf565b60405180910390fd5b61126b816112f5565b50565b6112766113b6565b73ffffffffffffffffffffffffffffffffffffffff16611294611027565b73ffffffffffffffffffffffffffffffffffffffff16146112f3576112b76113b6565b6040517f118cdaa70000000000000000000000000000000000000000000000000000000081526004016112ea91906119cf565b60405180910390fd5b565b5f805f9054906101000a900473ffffffffffffffffffffffffffffffffffffffff169050815f806101000a81548173ffffffffffffffffffffffffffffffffffffffff021916908373ffffffffffffffffffffffffffffffffffffffff1602179055508173ffffffffffffffffffffffffffffffffffffffff168173ffffffffffffffffffffffffffffffffffffffff167f8be0079c531659141344cd1fd0a4f28419497f9722a3daafe3b4186f6b6457e060405160405180910390a35050565b5f33905090565b6040518060a001604052805f81526020015f73ffffffffffffffffffffffffffffffffffffffff168152602001606081526020015f81526020015f81525090565b5f604051905090565b5f80fd5b5f80fd5b5f73ffffffffffffffffffffffffffffffffffffffff82169050919050565b5f6114388261140f565b9050919050565b6114488161142e565b8114611452575f80fd5b50565b5f813590506114638161143f565b92915050565b5f819050919050565b61147b81611469565b8114611485575f80fd5b50565b5f8135905061149681611472565b92915050565b5f80604083850312156114b2576114b1611407565b5b5f6114bf85828601611455565b92505060206114d085828601611488565b9150509250929050565b6114e381611469565b82525050565b6114f28161142e565b82525050565b5f81519050919050565b5f82825260208201905092915050565b5f5b8381101561152f578082015181840152602081019050611514565b5f8484015250505050565b5f601f19601f8301169050919050565b5f611554826114f8565b61155e8185611502565b935061156e818560208601611512565b6115778161153a565b840191505092915050565b5f60a0820190506115955f8301886114da565b6115a260208301876114e9565b81810360408301526115b4818661154a565b90506115c360608301856114da565b6115d060808301846114da565b9695505050505050565b5f602082840312156115ef576115ee611407565b5b5f6115fc84828501611455565b91505092915050565b5f81519050919050565b5f82825260208201905092915050565b5f819050602082019050919050565b61163781611469565b82525050565b6116468161142e565b82525050565b5f82825260208201905092915050565b5f611666826114f8565b611670818561164c565b9350611680818560208601611512565b6116898161153a565b840191505092915050565b5f60a083015f8301516116a95f86018261162e565b5060208301516116bc602086018261163d565b50604083015184820360408601526116d4828261165c565b91505060608301516116e9606086018261162e565b5060808301516116fc608086018261162e565b508091505092915050565b5f6117128383611694565b905092915050565b5f602082019050919050565b5f61173082611605565b61173a818561160f565b93508360208202850161174c8561161f565b805f5b8581101561178757848403895281516117688582611707565b94506117738361171a565b925060208a0199505060018101905061174f565b50829750879550505050505092915050565b5f6020820190508181035f8301526117b18184611726565b905092915050565b5f61ffff82169050919050565b6117cf816117b9565b81146117d9575f80fd5b50565b5f813590506117ea816117c6565b92915050565b5f6020828403121561180557611804611407565b5b5f611812848285016117dc565b91505092915050565b611824816117b9565b82525050565b5f60208201905061183d5f83018461181b565b92915050565b5f80fd5b5f80fd5b7f4e487b71000000000000000000000000000000000000000000000000000000005f52604160045260245ffd5b6118818261153a565b810181811067ffffffffffffffff821117156118a05761189f61184b565b5b80604052505050565b5f6118b26113fe565b90506118be8282611878565b919050565b5f67ffffffffffffffff8211156118dd576118dc61184b565b5b6118e68261153a565b9050602081019050919050565b828183375f83830152505050565b5f61191361190e846118c3565b6118a9565b90508281526020810184848401111561192f5761192e611847565b5b61193a8482856118f3565b509392505050565b5f82601f83011261195657611955611843565b5b8135611966848260208601611901565b91505092915050565b5f6020828403121561198457611983611407565b5b5f82013567ffffffffffffffff8111156119a1576119a061140b565b5b6119ad84828501611942565b91505092915050565b5f6020820190506119c95f8301846114da565b92915050565b5f6020820190506119e25f8301846114e9565b92915050565b5f819050919050565b5f611a0b611a06611a018461140f565b6119e8565b61140f565b9050919050565b5f611a1c826119f1565b9050919050565b5f611a2d82611a12565b9050919050565b611a3d81611a23565b82525050565b5f602082019050611a565f830184611a34565b92915050565b5f60208284031215611a7157611a70611407565b5b5f611a7e84828501611488565b91505092915050565b5f60a083015f830151611a9c5f86018261162e565b506020830151611aaf602086018261163d565b5060408301518482036040860152611ac7828261165c565b9150506060830151611adc606086018261162e565b506080830151611aef608086018261162e565b508091505092915050565b5f6020820190508181035f830152611b128184611a87565b905092915050565b7f4e487b71000000000000000000000000000000000000000000000000000000005f52602260045260245ffd5b5f6002820490506001821680611b5e57607f821691505b602082108103611b7157611b70611b1a565b5b50919050565b5f80fd5b5f80fd5b5f611b91611b8c846118c3565b6118a9565b905082815260208101848484011115611bad57611bac611847565b5b611bb8848285611512565b509392505050565b5f82601f830112611bd457611bd3611843565b5b8151611be4848260208601611b7f565b91505092915050565b5f60408284031215611c0257611c01611b77565b5b611c0c60406118a9565b90505f82015167ffffffffffffffff811115611c2b57611c2a611b7b565b5b611c3784828501611bc0565b5f83015250602082015167ffffffffffffffff811115611c5a57611c59611b7b565b5b611c6684828501611bc0565b60208301525092915050565b5f60208284031215611c8757611c86611407565b5b5f82015167ffffffffffffffff811115611ca457611ca361140b565b5b611cb084828501611bed565b91505092915050565b7f55736572206e6f742072656769737465726564000000000000000000000000005f82015250565b5f611ced601383611502565b9150611cf882611cb9565b602082019050919050565b5f6020820190508181035f830152611d1a81611ce1565b9050919050565b7f4e487b71000000000000000000000000000000000000000000000000000000005f52603260045260245ffd5b7f547765657420646f6573206e6f742065786973747300000000000000000000005f82015250565b5f611d82601583611502565b9150611d8d82611d4e565b602082019050919050565b5f6020820190508181035f830152611daf81611d76565b9050919050565b7f547765657420686173206e6f204c696b657300000000000000000000000000005f82015250565b5f611dea601283611502565b9150611df582611db6565b602082019050919050565b5f6020820190508181035f830152611e1781611dde565b9050919050565b7f4e487b71000000000000000000000000000000000000000000000000000000005f52601160045260245ffd5b5f611e5582611469565b91505f8203611e6757611e66611e1e565b5b600182039050919050565b5f608082019050611e855f8301876114e9565b611e9260208301866114e9565b611e9f60408301856114da565b611eac60608301846114da565b95945050505050565b5f611ebf82611469565b91507fffffffffffffffffffffffffffffffffffffffffffffffffffffffffffffffff8203611ef157611ef0611e1e565b5b600182019050919050565b7f547765657420697320746f6f206c6f6e670000000000000000000000000000005f82015250565b5f611f30601183611502565b9150611f3b82611efc565b602082019050919050565b5f6020820190508181035f830152611f5d81611f24565b9050919050565b5f819050815f5260205f209050919050565b5f6020601f8301049050919050565b5f82821b905092915050565b5f60088302611fc07fffffffffffffffffffffffffffffffffffffffffffffffffffffffffffffffff82611f85565b611fca8683611f85565b95508019841693508086168417925050509392505050565b5f611ffc611ff7611ff284611469565b6119e8565b611469565b9050919050565b5f819050919050565b61201583611fe2565b61202961202182612003565b848454611f91565b825550505050565b5f90565b61203d612031565b61204881848461200c565b505050565b5b8181101561206b576120605f82612035565b60018101905061204e565b5050565b601f8211156120b05761208181611f64565b61208a84611f76565b81016020851015612099578190505b6120ad6120a585611f76565b83018261204d565b50505b505050565b5f82821c905092915050565b5f6120d05f19846008026120b5565b1980831691505092915050565b5f6120e883836120c1565b9150826002028217905092915050565b612101826114f8565b67ffffffffffffffff81111561211a5761211961184b565b5b6121248254611b47565b61212f82828561206f565b5f60209050601f831160018114612160575f841561214e578287015190505b61215885826120dd565b8655506121bf565b601f19841661216e86611f64565b5f5b8281101561219557848901518255600182019150602085019450602081019050612170565b868310156121b257848901516121ae601f8916826120c1565b8355505b6001600288020188555050505b505050505050565b5f6080820190506121da5f8301876114da565b6121e760208301866114e9565b81810360408301526121f9818561154a565b905061220860608301846114da565b95945050505050565b5f61221b82611469565b915061222683611469565b925082820190508082111561223e5761223d611e1e565b5b9291505056fea26469706673582212204ea64aaf904697505928f883e1a2a3053e89d0eb9acca60f0a602c453a7f001f64736f6c63430008180033",
					"opcodes": "PUSH1 0x80 PUSH1 0x40 MSTORE PUSH2 0x118 PUSH1 0x1 PUSH1 0x14 PUSH2 0x100 EXP DUP2 SLOAD DUP2 PUSH2 0xFFFF MUL NOT AND SWAP1 DUP4 PUSH2 0xFFFF AND MUL OR SWAP1 SSTORE POP CALLVALUE DUP1 ISZERO PUSH3 0x2F JUMPI PUSH0 DUP1 REVERT JUMPDEST POP PUSH1 0x40 MLOAD PUSH3 0x252C CODESIZE SUB DUP1 PUSH3 0x252C DUP4 CODECOPY DUP2 DUP2 ADD PUSH1 0x40 MSTORE DUP2 ADD SWAP1 PUSH3 0x55 SWAP2 SWAP1 PUSH3 0x248 JUMP JUMPDEST CALLER PUSH0 PUSH20 0xFFFFFFFFFFFFFFFFFFFFFFFFFFFFFFFFFFFFFFFF AND DUP2 PUSH20 0xFFFFFFFFFFFFFFFFFFFFFFFFFFFFFFFFFFFFFFFF AND SUB PUSH3 0xC9 JUMPI PUSH0 PUSH1 0x40 MLOAD PUSH32 0x1E4FBDF700000000000000000000000000000000000000000000000000000000 DUP2 MSTORE PUSH1 0x4 ADD PUSH3 0xC0 SWAP2 SWAP1 PUSH3 0x289 JUMP JUMPDEST PUSH1 0x40 MLOAD DUP1 SWAP2 SUB SWAP1 REVERT JUMPDEST PUSH3 0xDA DUP2 PUSH3 0x122 PUSH1 0x20 SHL PUSH1 0x20 SHR JUMP JUMPDEST POP DUP1 PUSH1 0x1 PUSH0 PUSH2 0x100 EXP DUP2 SLOAD DUP2 PUSH20 0xFFFFFFFFFFFFFFFFFFFFFFFFFFFFFFFFFFFFFFFF MUL NOT AND SWAP1 DUP4 PUSH20 0xFFFFFFFFFFFFFFFFFFFFFFFFFFFFFFFFFFFFFFFF AND MUL OR SWAP1 SSTORE POP POP PUSH3 0x2A4 JUMP JUMPDEST PUSH0 DUP1 PUSH0 SWAP1 SLOAD SWAP1 PUSH2 0x100 EXP SWAP1 DIV PUSH20 0xFFFFFFFFFFFFFFFFFFFFFFFFFFFFFFFFFFFFFFFF AND SWAP1 POP DUP2 PUSH0 DUP1 PUSH2 0x100 EXP DUP2 SLOAD DUP2 PUSH20 0xFFFFFFFFFFFFFFFFFFFFFFFFFFFFFFFFFFFFFFFF MUL NOT AND SWAP1 DUP4 PUSH20 0xFFFFFFFFFFFFFFFFFFFFFFFFFFFFFFFFFFFFFFFF AND MUL OR SWAP1 SSTORE POP DUP2 PUSH20 0xFFFFFFFFFFFFFFFFFFFFFFFFFFFFFFFFFFFFFFFF AND DUP2 PUSH20 0xFFFFFFFFFFFFFFFFFFFFFFFFFFFFFFFFFFFFFFFF AND PUSH32 0x8BE0079C531659141344CD1FD0A4F28419497F9722A3DAAFE3B4186F6B6457E0 PUSH1 0x40 MLOAD PUSH1 0x40 MLOAD DUP1 SWAP2 SUB SWAP1 LOG3 POP POP JUMP JUMPDEST PUSH0 DUP1 REVERT JUMPDEST PUSH0 PUSH20 0xFFFFFFFFFFFFFFFFFFFFFFFFFFFFFFFFFFFFFFFF DUP3 AND SWAP1 POP SWAP2 SWAP1 POP JUMP JUMPDEST PUSH0 PUSH3 0x212 DUP3 PUSH3 0x1E7 JUMP JUMPDEST SWAP1 POP SWAP2 SWAP1 POP JUMP JUMPDEST PUSH3 0x224 DUP2 PUSH3 0x206 JUMP JUMPDEST DUP2 EQ PUSH3 0x22F JUMPI PUSH0 DUP1 REVERT JUMPDEST POP JUMP JUMPDEST PUSH0 DUP2 MLOAD SWAP1 POP PUSH3 0x242 DUP2 PUSH3 0x219 JUMP JUMPDEST SWAP3 SWAP2 POP POP JUMP JUMPDEST PUSH0 PUSH1 0x20 DUP3 DUP5 SUB SLT ISZERO PUSH3 0x260 JUMPI PUSH3 0x25F PUSH3 0x1E3 JUMP JUMPDEST JUMPDEST PUSH0 PUSH3 0x26F DUP5 DUP3 DUP6 ADD PUSH3 0x232 JUMP JUMPDEST SWAP2 POP POP SWAP3 SWAP2 POP POP JUMP JUMPDEST PUSH3 0x283 DUP2 PUSH3 0x206 JUMP JUMPDEST DUP3 MSTORE POP POP JUMP JUMPDEST PUSH0 PUSH1 0x20 DUP3 ADD SWAP1 POP PUSH3 0x29E PUSH0 DUP4 ADD DUP5 PUSH3 0x278 JUMP JUMPDEST SWAP3 SWAP2 POP POP JUMP JUMPDEST PUSH2 0x227A DUP1 PUSH3 0x2B2 PUSH0 CODECOPY PUSH0 RETURN INVALID PUSH1 0x80 PUSH1 0x40 MSTORE CALLVALUE DUP1 ISZERO PUSH2 0xF JUMPI PUSH0 DUP1 REVERT JUMPDEST POP PUSH1 0x4 CALLDATASIZE LT PUSH2 0xCD JUMPI PUSH0 CALLDATALOAD PUSH1 0xE0 SHR DUP1 PUSH4 0x715018A6 GT PUSH2 0x8A JUMPI DUP1 PUSH4 0x8DA5CB5B GT PUSH2 0x64 JUMPI DUP1 PUSH4 0x8DA5CB5B EQ PUSH2 0x1FD JUMPI DUP1 PUSH4 0xA3974B21 EQ PUSH2 0x21B JUMPI DUP1 PUSH4 0xC3AD5ECB EQ PUSH2 0x239 JUMPI DUP1 PUSH4 0xF2FDE38B EQ PUSH2 0x269 JUMPI PUSH2 0xCD JUMP JUMPDEST DUP1 PUSH4 0x715018A6 EQ PUSH2 0x1A7 JUMPI DUP1 PUSH4 0x7C9CD2BC EQ PUSH2 0x1B1 JUMPI DUP1 PUSH4 0x820785CC EQ PUSH2 0x1CD JUMPI PUSH2 0xCD JUMP JUMPDEST DUP1 PUSH4 0x5A1B4A9 EQ PUSH2 0xD1 JUMPI DUP1 PUSH4 0x12E7EE1C EQ PUSH2 0x105 JUMPI DUP1 PUSH4 0x3D9B569F EQ PUSH2 0x135 JUMPI DUP1 PUSH4 0x58BFA4AB EQ PUSH2 0x151 JUMPI DUP1 PUSH4 0x63378216 EQ PUSH2 0x16D JUMPI DUP1 PUSH4 0x6EB10797 EQ PUSH2 0x189 JUMPI JUMPDEST PUSH0 DUP1 REVERT JUMPDEST PUSH2 0xEB PUSH1 0x4 DUP1 CALLDATASIZE SUB DUP2 ADD SWAP1 PUSH2 0xE6 SWAP2 SWAP1 PUSH2 0x149C JUMP JUMPDEST PUSH2 0x285 JUMP JUMPDEST PUSH1 0x40 MLOAD PUSH2 0xFC SWAP6 SWAP5 SWAP4 SWAP3 SWAP2 SWAP1 PUSH2 0x1582 JUMP JUMPDEST PUSH1 0x40 MLOAD DUP1 SWAP2 SUB SWAP1 RETURN JUMPDEST PUSH2 0x11F PUSH1 0x4 DUP1 CALLDATASIZE SUB DUP2 ADD SWAP1 PUSH2 0x11A SWAP2 SWAP1 PUSH2 0x15DA JUMP JUMPDEST PUSH2 0x376 JUMP JUMPDEST PUSH1 0x40 MLOAD PUSH2 0x12C SWAP2 SWAP1 PUSH2 0x1799 JUMP JUMPDEST PUSH1 0x40 MLOAD DUP1 SWAP2 SUB SWAP1 RETURN JUMPDEST PUSH2 0x14F PUSH1 0x4 DUP1 CALLDATASIZE SUB DUP2 ADD SWAP1 PUSH2 0x14A SWAP2 SWAP1 PUSH2 0x149C JUMP JUMPDEST PUSH2 0x511 JUMP JUMPDEST STOP JUMPDEST PUSH2 0x16B PUSH1 0x4 DUP1 CALLDATASIZE SUB DUP2 ADD SWAP1 PUSH2 0x166 SWAP2 SWAP1 PUSH2 0x17F0 JUMP JUMPDEST PUSH2 0x848 JUMP JUMPDEST STOP JUMPDEST PUSH2 0x187 PUSH1 0x4 DUP1 CALLDATASIZE SUB DUP2 ADD SWAP1 PUSH2 0x182 SWAP2 SWAP1 PUSH2 0x149C JUMP JUMPDEST PUSH2 0x870 JUMP JUMPDEST STOP JUMPDEST PUSH2 0x191 PUSH2 0xB07 JUMP JUMPDEST PUSH1 0x40 MLOAD PUSH2 0x19E SWAP2 SWAP1 PUSH2 0x182A JUMP JUMPDEST PUSH1 0x40 MLOAD DUP1 SWAP2 SUB SWAP1 RETURN JUMPDEST PUSH2 0x1AF PUSH2 0xB1B JUMP JUMPDEST STOP JUMPDEST PUSH2 0x1CB PUSH1 0x4 DUP1 CALLDATASIZE SUB DUP2 ADD SWAP1 PUSH2 0x1C6 SWAP2 SWAP1 PUSH2 0x196F JUMP JUMPDEST PUSH2 0xB2E JUMP JUMPDEST STOP JUMPDEST PUSH2 0x1E7 PUSH1 0x4 DUP1 CALLDATASIZE SUB DUP2 ADD SWAP1 PUSH2 0x1E2 SWAP2 SWAP1 PUSH2 0x15DA JUMP JUMPDEST PUSH2 0xE1A JUMP JUMPDEST PUSH1 0x40 MLOAD PUSH2 0x1F4 SWAP2 SWAP1 PUSH2 0x19B6 JUMP JUMPDEST PUSH1 0x40 MLOAD DUP1 SWAP2 SUB SWAP1 RETURN JUMPDEST PUSH2 0x205 PUSH2 0x1027 JUMP JUMPDEST PUSH1 0x40 MLOAD PUSH2 0x212 SWAP2 SWAP1 PUSH2 0x19CF JUMP JUMPDEST PUSH1 0x40 MLOAD DUP1 SWAP2 SUB SWAP1 RETURN JUMPDEST PUSH2 0x223 PUSH2 0x104E JUMP JUMPDEST PUSH1 0x40 MLOAD PUSH2 0x230 SWAP2 SWAP1 PUSH2 0x1A43 JUMP JUMPDEST PUSH1 0x40 MLOAD DUP1 SWAP2 SUB SWAP1 RETURN JUMPDEST PUSH2 0x253 PUSH1 0x4 DUP1 CALLDATASIZE SUB DUP2 ADD SWAP1 PUSH2 0x24E SWAP2 SWAP1 PUSH2 0x1A5C JUMP JUMPDEST PUSH2 0x1073 JUMP JUMPDEST PUSH1 0x40 MLOAD PUSH2 0x260 SWAP2 SWAP1 PUSH2 0x1AFA JUMP JUMPDEST PUSH1 0x40 MLOAD DUP1 SWAP2 SUB SWAP1 RETURN JUMPDEST PUSH2 0x283 PUSH1 0x4 DUP1 CALLDATASIZE SUB DUP2 ADD SWAP1 PUSH2 0x27E SWAP2 SWAP1 PUSH2 0x15DA JUMP JUMPDEST PUSH2 0x11EA JUMP JUMPDEST STOP JUMPDEST PUSH1 0x2 PUSH1 0x20 MSTORE DUP2 PUSH0 MSTORE PUSH1 0x40 PUSH0 KECCAK256 DUP2 DUP2 SLOAD DUP2 LT PUSH2 0x29E JUMPI PUSH0 DUP1 REVERT JUMPDEST SWAP1 PUSH0 MSTORE PUSH1 0x20 PUSH0 KECCAK256 SWAP1 PUSH1 0x5 MUL ADD PUSH0 SWAP2 POP SWAP2 POP POP DUP1 PUSH0 ADD SLOAD SWAP1 DUP1 PUSH1 0x1 ADD PUSH0 SWAP1 SLOAD SWAP1 PUSH2 0x100 EXP SWAP1 DIV PUSH20 0xFFFFFFFFFFFFFFFFFFFFFFFFFFFFFFFFFFFFFFFF AND SWAP1 DUP1 PUSH1 0x2 ADD DUP1 SLOAD PUSH2 0x2E9 SWAP1 PUSH2 0x1B47 JUMP JUMPDEST DUP1 PUSH1 0x1F ADD PUSH1 0x20 DUP1 SWAP2 DIV MUL PUSH1 0x20 ADD PUSH1 0x40 MLOAD SWAP1 DUP2 ADD PUSH1 0x40 MSTORE DUP1 SWAP3 SWAP2 SWAP1 DUP2 DUP2 MSTORE PUSH1 0x20 ADD DUP3 DUP1 SLOAD PUSH2 0x315 SWAP1 PUSH2 0x1B47 JUMP JUMPDEST DUP1 ISZERO PUSH2 0x360 JUMPI DUP1 PUSH1 0x1F LT PUSH2 0x337 JUMPI PUSH2 0x100 DUP1 DUP4 SLOAD DIV MUL DUP4 MSTORE SWAP2 PUSH1 0x20 ADD SWAP2 PUSH2 0x360 JUMP JUMPDEST DUP3 ADD SWAP2 SWAP1 PUSH0 MSTORE PUSH1 0x20 PUSH0 KECCAK256 SWAP1 JUMPDEST DUP2 SLOAD DUP2 MSTORE SWAP1 PUSH1 0x1 ADD SWAP1 PUSH1 0x20 ADD DUP1 DUP4 GT PUSH2 0x343 JUMPI DUP3 SWAP1 SUB PUSH1 0x1F AND DUP3 ADD SWAP2 JUMPDEST POP POP POP POP POP SWAP1 DUP1 PUSH1 0x3 ADD SLOAD SWAP1 DUP1 PUSH1 0x4 ADD SLOAD SWAP1 POP DUP6 JUMP JUMPDEST PUSH1 0x60 PUSH1 0x2 PUSH0 DUP4 PUSH20 0xFFFFFFFFFFFFFFFFFFFFFFFFFFFFFFFFFFFFFFFF AND PUSH20 0xFFFFFFFFFFFFFFFFFFFFFFFFFFFFFFFFFFFFFFFF AND DUP2 MSTORE PUSH1 0x20 ADD SWAP1 DUP2 MSTORE PUSH1 0x20 ADD PUSH0 KECCAK256 DUP1 SLOAD DUP1 PUSH1 0x20 MUL PUSH1 0x20 ADD PUSH1 0x40 MLOAD SWAP1 DUP2 ADD PUSH1 0x40 MSTORE DUP1 SWAP3 SWAP2 SWAP1 DUP2 DUP2 MSTORE PUSH1 0x20 ADD PUSH0 SWAP1 JUMPDEST DUP3 DUP3 LT ISZERO PUSH2 0x506 JUMPI DUP4 DUP3 SWAP1 PUSH0 MSTORE PUSH1 0x20 PUSH0 KECCAK256 SWAP1 PUSH1 0x5 MUL ADD PUSH1 0x40 MLOAD DUP1 PUSH1 0xA0 ADD PUSH1 0x40 MSTORE SWAP1 DUP2 PUSH0 DUP3 ADD SLOAD DUP2 MSTORE PUSH1 0x20 ADD PUSH1 0x1 DUP3 ADD PUSH0 SWAP1 SLOAD SWAP1 PUSH2 0x100 EXP SWAP1 DIV PUSH20 0xFFFFFFFFFFFFFFFFFFFFFFFFFFFFFFFFFFFFFFFF AND PUSH20 0xFFFFFFFFFFFFFFFFFFFFFFFFFFFFFFFFFFFFFFFF AND PUSH20 0xFFFFFFFFFFFFFFFFFFFFFFFFFFFFFFFFFFFFFFFF AND DUP2 MSTORE PUSH1 0x20 ADD PUSH1 0x2 DUP3 ADD DUP1 SLOAD PUSH2 0x463 SWAP1 PUSH2 0x1B47 JUMP JUMPDEST DUP1 PUSH1 0x1F ADD PUSH1 0x20 DUP1 SWAP2 DIV MUL PUSH1 0x20 ADD PUSH1 0x40 MLOAD SWAP1 DUP2 ADD PUSH1 0x40 MSTORE DUP1 SWAP3 SWAP2 SWAP1 DUP2 DUP2 MSTORE PUSH1 0x20 ADD DUP3 DUP1 SLOAD PUSH2 0x48F SWAP1 PUSH2 0x1B47 JUMP JUMPDEST DUP1 ISZERO PUSH2 0x4DA JUMPI DUP1 PUSH1 0x1F LT PUSH2 0x4B1 JUMPI PUSH2 0x100 DUP1 DUP4 SLOAD DIV MUL DUP4 MSTORE SWAP2 PUSH1 0x20 ADD SWAP2 PUSH2 0x4DA JUMP JUMPDEST DUP3 ADD SWAP2 SWAP1 PUSH0 MSTORE PUSH1 0x20 PUSH0 KECCAK256 SWAP1 JUMPDEST DUP2 SLOAD DUP2 MSTORE SWAP1 PUSH1 0x1 ADD SWAP1 PUSH1 0x20 ADD DUP1 DUP4 GT PUSH2 0x4BD JUMPI DUP3 SWAP1 SUB PUSH1 0x1F AND DUP3 ADD SWAP2 JUMPDEST POP POP POP POP POP DUP2 MSTORE PUSH1 0x20 ADD PUSH1 0x3 DUP3 ADD SLOAD DUP2 MSTORE PUSH1 0x20 ADD PUSH1 0x4 DUP3 ADD SLOAD DUP2 MSTORE POP POP DUP2 MSTORE PUSH1 0x20 ADD SWAP1 PUSH1 0x1 ADD SWAP1 PUSH2 0x3D4 JUMP JUMPDEST POP POP POP POP SWAP1 POP SWAP2 SWAP1 POP JUMP JUMPDEST PUSH0 PUSH1 0x1 PUSH0 SWAP1 SLOAD SWAP1 PUSH2 0x100 EXP SWAP1 DIV PUSH20 0xFFFFFFFFFFFFFFFFFFFFFFFFFFFFFFFFFFFFFFFF AND PUSH20 0xFFFFFFFFFFFFFFFFFFFFFFFFFFFFFFFFFFFFFFFF AND PUSH4 0xF53A470 CALLER PUSH1 0x40 MLOAD DUP3 PUSH4 0xFFFFFFFF AND PUSH1 0xE0 SHL DUP2 MSTORE PUSH1 0x4 ADD PUSH2 0x56C SWAP2 SWAP1 PUSH2 0x19CF JUMP JUMPDEST PUSH0 PUSH1 0x40 MLOAD DUP1 DUP4 SUB DUP2 DUP7 GAS STATICCALL ISZERO DUP1 ISZERO PUSH2 0x586 JUMPI RETURNDATASIZE PUSH0 DUP1 RETURNDATACOPY RETURNDATASIZE PUSH0 REVERT JUMPDEST POP POP POP POP PUSH1 0x40 MLOAD RETURNDATASIZE PUSH0 DUP3 RETURNDATACOPY RETURNDATASIZE PUSH1 0x1F NOT PUSH1 0x1F DUP3 ADD AND DUP3 ADD DUP1 PUSH1 0x40 MSTORE POP DUP2 ADD SWAP1 PUSH2 0x5AE SWAP2 SWAP1 PUSH2 0x1C72 JUMP JUMPDEST SWAP1 POP PUSH0 DUP2 PUSH0 ADD MLOAD MLOAD GT PUSH2 0x5F6 JUMPI PUSH1 0x40 MLOAD PUSH32 0x8C379A000000000000000000000000000000000000000000000000000000000 DUP2 MSTORE PUSH1 0x4 ADD PUSH2 0x5ED SWAP1 PUSH2 0x1D03 JUMP JUMPDEST PUSH1 0x40 MLOAD DUP1 SWAP2 SUB SWAP1 REVERT JUMPDEST DUP2 PUSH1 0x2 PUSH0 DUP6 PUSH20 0xFFFFFFFFFFFFFFFFFFFFFFFFFFFFFFFFFFFFFFFF AND PUSH20 0xFFFFFFFFFFFFFFFFFFFFFFFFFFFFFFFFFFFFFFFF AND DUP2 MSTORE PUSH1 0x20 ADD SWAP1 DUP2 MSTORE PUSH1 0x20 ADD PUSH0 KECCAK256 DUP4 DUP2 SLOAD DUP2 LT PUSH2 0x646 JUMPI PUSH2 0x645 PUSH2 0x1D21 JUMP JUMPDEST JUMPDEST SWAP1 PUSH0 MSTORE PUSH1 0x20 PUSH0 KECCAK256 SWAP1 PUSH1 0x5 MUL ADD PUSH0 ADD SLOAD EQ PUSH2 0x695 JUMPI PUSH1 0x40 MLOAD PUSH32 0x8C379A000000000000000000000000000000000000000000000000000000000 DUP2 MSTORE PUSH1 0x4 ADD PUSH2 0x68C SWAP1 PUSH2 0x1D98 JUMP JUMPDEST PUSH1 0x40 MLOAD DUP1 SWAP2 SUB SWAP1 REVERT JUMPDEST PUSH0 PUSH1 0x2 PUSH0 DUP6 PUSH20 0xFFFFFFFFFFFFFFFFFFFFFFFFFFFFFFFFFFFFFFFF AND PUSH20 0xFFFFFFFFFFFFFFFFFFFFFFFFFFFFFFFFFFFFFFFF AND DUP2 MSTORE PUSH1 0x20 ADD SWAP1 DUP2 MSTORE PUSH1 0x20 ADD PUSH0 KECCAK256 DUP4 DUP2 SLOAD DUP2 LT PUSH2 0x6E5 JUMPI PUSH2 0x6E4 PUSH2 0x1D21 JUMP JUMPDEST JUMPDEST SWAP1 PUSH0 MSTORE PUSH1 0x20 PUSH0 KECCAK256 SWAP1 PUSH1 0x5 MUL ADD PUSH1 0x4 ADD SLOAD GT PUSH2 0x735 JUMPI PUSH1 0x40 MLOAD PUSH32 0x8C379A000000000000000000000000000000000000000000000000000000000 DUP2 MSTORE PUSH1 0x4 ADD PUSH2 0x72C SWAP1 PUSH2 0x1E00 JUMP JUMPDEST PUSH1 0x40 MLOAD DUP1 SWAP2 SUB SWAP1 REVERT JUMPDEST PUSH1 0x2 PUSH0 DUP5 PUSH20 0xFFFFFFFFFFFFFFFFFFFFFFFFFFFFFFFFFFFFFFFF AND PUSH20 0xFFFFFFFFFFFFFFFFFFFFFFFFFFFFFFFFFFFFFFFF AND DUP2 MSTORE PUSH1 0x20 ADD SWAP1 DUP2 MSTORE PUSH1 0x20 ADD PUSH0 KECCAK256 DUP3 DUP2 SLOAD DUP2 LT PUSH2 0x784 JUMPI PUSH2 0x783 PUSH2 0x1D21 JUMP JUMPDEST JUMPDEST SWAP1 PUSH0 MSTORE PUSH1 0x20 PUSH0 KECCAK256 SWAP1 PUSH1 0x5 MUL ADD PUSH1 0x4 ADD PUSH0 DUP2 SLOAD DUP1 SWAP3 SWAP2 SWAP1 PUSH2 0x7A3 SWAP1 PUSH2 0x1E4B JUMP JUMPDEST SWAP2 SWAP1 POP SSTORE POP PUSH32 0x762C2616349603AC16EBA0DE8E6141B79129A07AB63BD99E0A80B3A471716943 CALLER DUP5 DUP5 PUSH1 0x2 PUSH0 DUP9 PUSH20 0xFFFFFFFFFFFFFFFFFFFFFFFFFFFFFFFFFFFFFFFF AND PUSH20 0xFFFFFFFFFFFFFFFFFFFFFFFFFFFFFFFFFFFFFFFF AND DUP2 MSTORE PUSH1 0x20 ADD SWAP1 DUP2 MSTORE PUSH1 0x20 ADD PUSH0 KECCAK256 DUP7 DUP2 SLOAD DUP2 LT PUSH2 0x81B JUMPI PUSH2 0x81A PUSH2 0x1D21 JUMP JUMPDEST JUMPDEST SWAP1 PUSH0 MSTORE PUSH1 0x20 PUSH0 KECCAK256 SWAP1 PUSH1 0x5 MUL ADD PUSH1 0x4 ADD SLOAD PUSH1 0x40 MLOAD PUSH2 0x83B SWAP5 SWAP4 SWAP3 SWAP2 SWAP1 PUSH2 0x1E72 JUMP JUMPDEST PUSH1 0x40 MLOAD DUP1 SWAP2 SUB SWAP1 LOG1 POP POP POP JUMP JUMPDEST PUSH2 0x850 PUSH2 0x126E JUMP JUMPDEST DUP1 PUSH1 0x1 PUSH1 0x14 PUSH2 0x100 EXP DUP2 SLOAD DUP2 PUSH2 0xFFFF MUL NOT AND SWAP1 DUP4 PUSH2 0xFFFF AND MUL OR SWAP1 SSTORE POP POP JUMP JUMPDEST PUSH0 PUSH1 0x1 PUSH0 SWAP1 SLOAD SWAP1 PUSH2 0x100 EXP SWAP1 DIV PUSH20 0xFFFFFFFFFFFFFFFFFFFFFFFFFFFFFFFFFFFFFFFF AND PUSH20 0xFFFFFFFFFFFFFFFFFFFFFFFFFFFFFFFFFFFFFFFF AND PUSH4 0xF53A470 CALLER PUSH1 0x40 MLOAD DUP3 PUSH4 0xFFFFFFFF AND PUSH1 0xE0 SHL DUP2 MSTORE PUSH1 0x4 ADD PUSH2 0x8CB SWAP2 SWAP1 PUSH2 0x19CF JUMP JUMPDEST PUSH0 PUSH1 0x40 MLOAD DUP1 DUP4 SUB DUP2 DUP7 GAS STATICCALL ISZERO DUP1 ISZERO PUSH2 0x8E5 JUMPI RETURNDATASIZE PUSH0 DUP1 RETURNDATACOPY RETURNDATASIZE PUSH0 REVERT JUMPDEST POP POP POP POP PUSH1 0x40 MLOAD RETURNDATASIZE PUSH0 DUP3 RETURNDATACOPY RETURNDATASIZE PUSH1 0x1F NOT PUSH1 0x1F DUP3 ADD AND DUP3 ADD DUP1 PUSH1 0x40 MSTORE POP DUP2 ADD SWAP1 PUSH2 0x90D SWAP2 SWAP1 PUSH2 0x1C72 JUMP JUMPDEST SWAP1 POP PUSH0 DUP2 PUSH0 ADD MLOAD MLOAD GT PUSH2 0x955 JUMPI PUSH1 0x40 MLOAD PUSH32 0x8C379A000000000000000000000000000000000000000000000000000000000 DUP2 MSTORE PUSH1 0x4 ADD PUSH2 0x94C SWAP1 PUSH2 0x1D03 JUMP JUMPDEST PUSH1 0x40 MLOAD DUP1 SWAP2 SUB SWAP1 REVERT JUMPDEST DUP2 PUSH1 0x2 PUSH0 DUP6 PUSH20 0xFFFFFFFFFFFFFFFFFFFFFFFFFFFFFFFFFFFFFFFF AND PUSH20 0xFFFFFFFFFFFFFFFFFFFFFFFFFFFFFFFFFFFFFFFF AND DUP2 MSTORE PUSH1 0x20 ADD SWAP1 DUP2 MSTORE PUSH1 0x20 ADD PUSH0 KECCAK256 DUP4 DUP2 SLOAD DUP2 LT PUSH2 0x9A5 JUMPI PUSH2 0x9A4 PUSH2 0x1D21 JUMP JUMPDEST JUMPDEST SWAP1 PUSH0 MSTORE PUSH1 0x20 PUSH0 KECCAK256 SWAP1 PUSH1 0x5 MUL ADD PUSH0 ADD SLOAD EQ PUSH2 0x9F4 JUMPI PUSH1 0x40 MLOAD PUSH32 0x8C379A000000000000000000000000000000000000000000000000000000000 DUP2 MSTORE PUSH1 0x4 ADD PUSH2 0x9EB SWAP1 PUSH2 0x1D98 JUMP JUMPDEST PUSH1 0x40 MLOAD DUP1 SWAP2 SUB SWAP1 REVERT JUMPDEST PUSH1 0x2 PUSH0 DUP5 PUSH20 0xFFFFFFFFFFFFFFFFFFFFFFFFFFFFFFFFFFFFFFFF AND PUSH20 0xFFFFFFFFFFFFFFFFFFFFFFFFFFFFFFFFFFFFFFFF AND DUP2 MSTORE PUSH1 0x20 ADD SWAP1 DUP2 MSTORE PUSH1 0x20 ADD PUSH0 KECCAK256 DUP3 DUP2 SLOAD DUP2 LT PUSH2 0xA43 JUMPI PUSH2 0xA42 PUSH2 0x1D21 JUMP JUMPDEST JUMPDEST SWAP1 PUSH0 MSTORE PUSH1 0x20 PUSH0 KECCAK256 SWAP1 PUSH1 0x5 MUL ADD PUSH1 0x4 ADD PUSH0 DUP2 SLOAD DUP1 SWAP3 SWAP2 SWAP1 PUSH2 0xA62 SWAP1 PUSH2 0x1EB5 JUMP JUMPDEST SWAP2 SWAP1 POP SSTORE POP PUSH32 0xE8A76FC0F16D11A00D1E93B689B63D76CF60AF914DD3D915375DC41D01A0C3C8 CALLER DUP5 DUP5 PUSH1 0x2 PUSH0 DUP9 PUSH20 0xFFFFFFFFFFFFFFFFFFFFFFFFFFFFFFFFFFFFFFFF AND PUSH20 0xFFFFFFFFFFFFFFFFFFFFFFFFFFFFFFFFFFFFFFFF AND DUP2 MSTORE PUSH1 0x20 ADD SWAP1 DUP2 MSTORE PUSH1 0x20 ADD PUSH0 KECCAK256 DUP7 DUP2 SLOAD DUP2 LT PUSH2 0xADA JUMPI PUSH2 0xAD9 PUSH2 0x1D21 JUMP JUMPDEST JUMPDEST SWAP1 PUSH0 MSTORE PUSH1 0x20 PUSH0 KECCAK256 SWAP1 PUSH1 0x5 MUL ADD PUSH1 0x4 ADD SLOAD PUSH1 0x40 MLOAD PUSH2 0xAFA SWAP5 SWAP4 SWAP3 SWAP2 SWAP1 PUSH2 0x1E72 JUMP JUMPDEST PUSH1 0x40 MLOAD DUP1 SWAP2 SUB SWAP1 LOG1 POP POP POP JUMP JUMPDEST PUSH1 0x1 PUSH1 0x14 SWAP1 SLOAD SWAP1 PUSH2 0x100 EXP SWAP1 DIV PUSH2 0xFFFF AND DUP2 JUMP JUMPDEST PUSH2 0xB23 PUSH2 0x126E JUMP JUMPDEST PUSH2 0xB2C PUSH0 PUSH2 0x12F5 JUMP JUMPDEST JUMP JUMPDEST PUSH0 PUSH1 0x1 PUSH0 SWAP1 SLOAD SWAP1 PUSH2 0x100 EXP SWAP1 DIV PUSH20 0xFFFFFFFFFFFFFFFFFFFFFFFFFFFFFFFFFFFFFFFF AND PUSH20 0xFFFFFFFFFFFFFFFFFFFFFFFFFFFFFFFFFFFFFFFF AND PUSH4 0xF53A470 CALLER PUSH1 0x40 MLOAD DUP3 PUSH4 0xFFFFFFFF AND PUSH1 0xE0 SHL DUP2 MSTORE PUSH1 0x4 ADD PUSH2 0xB89 SWAP2 SWAP1 PUSH2 0x19CF JUMP JUMPDEST PUSH0 PUSH1 0x40 MLOAD DUP1 DUP4 SUB DUP2 DUP7 GAS STATICCALL ISZERO DUP1 ISZERO PUSH2 0xBA3 JUMPI RETURNDATASIZE PUSH0 DUP1 RETURNDATACOPY RETURNDATASIZE PUSH0 REVERT JUMPDEST POP POP POP POP PUSH1 0x40 MLOAD RETURNDATASIZE PUSH0 DUP3 RETURNDATACOPY RETURNDATASIZE PUSH1 0x1F NOT PUSH1 0x1F DUP3 ADD AND DUP3 ADD DUP1 PUSH1 0x40 MSTORE POP DUP2 ADD SWAP1 PUSH2 0xBCB SWAP2 SWAP1 PUSH2 0x1C72 JUMP JUMPDEST SWAP1 POP PUSH0 DUP2 PUSH0 ADD MLOAD MLOAD GT PUSH2 0xC13 JUMPI PUSH1 0x40 MLOAD PUSH32 0x8C379A000000000000000000000000000000000000000000000000000000000 DUP2 MSTORE PUSH1 0x4 ADD PUSH2 0xC0A SWAP1 PUSH2 0x1D03 JUMP JUMPDEST PUSH1 0x40 MLOAD DUP1 SWAP2 SUB SWAP1 REVERT JUMPDEST PUSH1 0x1 PUSH1 0x14 SWAP1 SLOAD SWAP1 PUSH2 0x100 EXP SWAP1 DIV PUSH2 0xFFFF AND PUSH2 0xFFFF AND DUP3 MLOAD GT ISZERO PUSH2 0xC6B JUMPI PUSH1 0x40 MLOAD PUSH32 0x8C379A000000000000000000000000000000000000000000000000000000000 DUP2 MSTORE PUSH1 0x4 ADD PUSH2 0xC62 SWAP1 PUSH2 0x1F46 JUMP JUMPDEST PUSH1 0x40 MLOAD DUP1 SWAP2 SUB SWAP1 REVERT JUMPDEST PUSH0 PUSH1 0x40 MLOAD DUP1 PUSH1 0xA0 ADD PUSH1 0x40 MSTORE DUP1 PUSH1 0x2 PUSH0 CALLER PUSH20 0xFFFFFFFFFFFFFFFFFFFFFFFFFFFFFFFFFFFFFFFF AND PUSH20 0xFFFFFFFFFFFFFFFFFFFFFFFFFFFFFFFFFFFFFFFF AND DUP2 MSTORE PUSH1 0x20 ADD SWAP1 DUP2 MSTORE PUSH1 0x20 ADD PUSH0 KECCAK256 DUP1 SLOAD SWAP1 POP DUP2 MSTORE PUSH1 0x20 ADD CALLER PUSH20 0xFFFFFFFFFFFFFFFFFFFFFFFFFFFFFFFFFFFFFFFF AND DUP2 MSTORE PUSH1 0x20 ADD DUP5 DUP2 MSTORE PUSH1 0x20 ADD TIMESTAMP DUP2 MSTORE PUSH1 0x20 ADD PUSH0 DUP2 MSTORE POP SWAP1 POP PUSH1 0x2 PUSH0 CALLER PUSH20 0xFFFFFFFFFFFFFFFFFFFFFFFFFFFFFFFFFFFFFFFF AND PUSH20 0xFFFFFFFFFFFFFFFFFFFFFFFFFFFFFFFFFFFFFFFF AND DUP2 MSTORE PUSH1 0x20 ADD SWAP1 DUP2 MSTORE PUSH1 0x20 ADD PUSH0 KECCAK256 DUP2 SWAP1 DUP1 PUSH1 0x1 DUP2 SLOAD ADD DUP1 DUP3 SSTORE DUP1 SWAP2 POP POP PUSH1 0x1 SWAP1 SUB SWAP1 PUSH0 MSTORE PUSH1 0x20 PUSH0 KECCAK256 SWAP1 PUSH1 0x5 MUL ADD PUSH0 SWAP1 SWAP2 SWAP1 SWAP2 SWAP1 SWAP2 POP PUSH0 DUP3 ADD MLOAD DUP2 PUSH0 ADD SSTORE PUSH1 0x20 DUP3 ADD MLOAD DUP2 PUSH1 0x1 ADD PUSH0 PUSH2 0x100 EXP DUP2 SLOAD DUP2 PUSH20 0xFFFFFFFFFFFFFFFFFFFFFFFFFFFFFFFFFFFFFFFF MUL NOT AND SWAP1 DUP4 PUSH20 0xFFFFFFFFFFFFFFFFFFFFFFFFFFFFFFFFFFFFFFFF AND MUL OR SWAP1 SSTORE POP PUSH1 0x40 DUP3 ADD MLOAD DUP2 PUSH1 0x2 ADD SWAP1 DUP2 PUSH2 0xDB2 SWAP2 SWAP1 PUSH2 0x20F8 JUMP JUMPDEST POP PUSH1 0x60 DUP3 ADD MLOAD DUP2 PUSH1 0x3 ADD SSTORE PUSH1 0x80 DUP3 ADD MLOAD DUP2 PUSH1 0x4 ADD SSTORE POP POP PUSH32 0x16FD3C13E9D46923E0A8BCE11C7B473EC508A72E6C96CD2404B29CE972AFC29E DUP2 PUSH0 ADD MLOAD DUP3 PUSH1 0x20 ADD MLOAD DUP4 PUSH1 0x40 ADD MLOAD DUP5 PUSH1 0x60 ADD MLOAD PUSH1 0x40 MLOAD PUSH2 0xE0D SWAP5 SWAP4 SWAP3 SWAP2 SWAP1 PUSH2 0x21C7 JUMP JUMPDEST PUSH1 0x40 MLOAD DUP1 SWAP2 SUB SWAP1 LOG1 POP POP POP JUMP JUMPDEST PUSH0 DUP1 PUSH1 0x2 PUSH0 DUP5 PUSH20 0xFFFFFFFFFFFFFFFFFFFFFFFFFFFFFFFFFFFFFFFF AND PUSH20 0xFFFFFFFFFFFFFFFFFFFFFFFFFFFFFFFFFFFFFFFF AND DUP2 MSTORE PUSH1 0x20 ADD SWAP1 DUP2 MSTORE PUSH1 0x20 ADD PUSH0 KECCAK256 DUP1 SLOAD DUP1 PUSH1 0x20 MUL PUSH1 0x20 ADD PUSH1 0x40 MLOAD SWAP1 DUP2 ADD PUSH1 0x40 MSTORE DUP1 SWAP3 SWAP2 SWAP1 DUP2 DUP2 MSTORE PUSH1 0x20 ADD PUSH0 SWAP1 JUMPDEST DUP3 DUP3 LT ISZERO PUSH2 0xFAA JUMPI DUP4 DUP3 SWAP1 PUSH0 MSTORE PUSH1 0x20 PUSH0 KECCAK256 SWAP1 PUSH1 0x5 MUL ADD PUSH1 0x40 MLOAD DUP1 PUSH1 0xA0 ADD PUSH1 0x40 MSTORE SWAP1 DUP2 PUSH0 DUP3 ADD SLOAD DUP2 MSTORE PUSH1 0x20 ADD PUSH1 0x1 DUP3 ADD PUSH0 SWAP1 SLOAD SWAP1 PUSH2 0x100 EXP SWAP1 DIV PUSH20 0xFFFFFFFFFFFFFFFFFFFFFFFFFFFFFFFFFFFFFFFF AND PUSH20 0xFFFFFFFFFFFFFFFFFFFFFFFFFFFFFFFFFFFFFFFF AND PUSH20 0xFFFFFFFFFFFFFFFFFFFFFFFFFFFFFFFFFFFFFFFF AND DUP2 MSTORE PUSH1 0x20 ADD PUSH1 0x2 DUP3 ADD DUP1 SLOAD PUSH2 0xF07 SWAP1 PUSH2 0x1B47 JUMP JUMPDEST DUP1 PUSH1 0x1F ADD PUSH1 0x20 DUP1 SWAP2 DIV MUL PUSH1 0x20 ADD PUSH1 0x40 MLOAD SWAP1 DUP2 ADD PUSH1 0x40 MSTORE DUP1 SWAP3 SWAP2 SWAP1 DUP2 DUP2 MSTORE PUSH1 0x20 ADD DUP3 DUP1 SLOAD PUSH2 0xF33 SWAP1 PUSH2 0x1B47 JUMP JUMPDEST DUP1 ISZERO PUSH2 0xF7E JUMPI DUP1 PUSH1 0x1F LT PUSH2 0xF55 JUMPI PUSH2 0x100 DUP1 DUP4 SLOAD DIV MUL DUP4 MSTORE SWAP2 PUSH1 0x20 ADD SWAP2 PUSH2 0xF7E JUMP JUMPDEST DUP3 ADD SWAP2 SWAP1 PUSH0 MSTORE PUSH1 0x20 PUSH0 KECCAK256 SWAP1 JUMPDEST DUP2 SLOAD DUP2 MSTORE SWAP1 PUSH1 0x1 ADD SWAP1 PUSH1 0x20 ADD DUP1 DUP4 GT PUSH2 0xF61 JUMPI DUP3 SWAP1 SUB PUSH1 0x1F AND DUP3 ADD SWAP2 JUMPDEST POP POP POP POP POP DUP2 MSTORE PUSH1 0x20 ADD PUSH1 0x3 DUP3 ADD SLOAD DUP2 MSTORE PUSH1 0x20 ADD PUSH1 0x4 DUP3 ADD SLOAD DUP2 MSTORE POP POP DUP2 MSTORE PUSH1 0x20 ADD SWAP1 PUSH1 0x1 ADD SWAP1 PUSH2 0xE78 JUMP JUMPDEST POP POP POP POP SWAP1 POP PUSH0 DUP1 JUMPDEST DUP3 MLOAD DUP2 LT ISZERO PUSH2 0x101C JUMPI PUSH0 DUP4 DUP3 DUP2 MLOAD DUP2 LT PUSH2 0xFD0 JUMPI PUSH2 0xFCF PUSH2 0x1D21 JUMP JUMPDEST JUMPDEST PUSH1 0x20 MUL PUSH1 0x20 ADD ADD MLOAD PUSH1 0x80 ADD MLOAD GT ISZERO PUSH2 0x100F JUMPI DUP3 DUP2 DUP2 MLOAD DUP2 LT PUSH2 0xFF5 JUMPI PUSH2 0xFF4 PUSH2 0x1D21 JUMP JUMPDEST JUMPDEST PUSH1 0x20 MUL PUSH1 0x20 ADD ADD MLOAD PUSH1 0x80 ADD MLOAD DUP3 PUSH2 0x100C SWAP2 SWAP1 PUSH2 0x2211 JUMP JUMPDEST SWAP2 POP JUMPDEST DUP1 DUP1 PUSH1 0x1 ADD SWAP2 POP POP PUSH2 0xFB3 JUMP JUMPDEST POP DUP1 SWAP3 POP POP POP SWAP2 SWAP1 POP JUMP JUMPDEST PUSH0 DUP1 PUSH0 SWAP1 SLOAD SWAP1 PUSH2 0x100 EXP SWAP1 DIV PUSH20 0xFFFFFFFFFFFFFFFFFFFFFFFFFFFFFFFFFFFFFFFF AND SWAP1 POP SWAP1 JUMP JUMPDEST PUSH1 0x1 PUSH0 SWAP1 SLOAD SWAP1 PUSH2 0x100 EXP SWAP1 DIV PUSH20 0xFFFFFFFFFFFFFFFFFFFFFFFFFFFFFFFFFFFFFFFF AND DUP2 JUMP JUMPDEST PUSH2 0x107B PUSH2 0x13BD JUMP JUMPDEST PUSH1 0x2 PUSH0 CALLER PUSH20 0xFFFFFFFFFFFFFFFFFFFFFFFFFFFFFFFFFFFFFFFF AND PUSH20 0xFFFFFFFFFFFFFFFFFFFFFFFFFFFFFFFFFFFFFFFF AND DUP2 MSTORE PUSH1 0x20 ADD SWAP1 DUP2 MSTORE PUSH1 0x20 ADD PUSH0 KECCAK256 DUP3 DUP2 SLOAD DUP2 LT PUSH2 0x10CA JUMPI PUSH2 0x10C9 PUSH2 0x1D21 JUMP JUMPDEST JUMPDEST SWAP1 PUSH0 MSTORE PUSH1 0x20 PUSH0 KECCAK256 SWAP1 PUSH1 0x5 MUL ADD PUSH1 0x40 MLOAD DUP1 PUSH1 0xA0 ADD PUSH1 0x40 MSTORE SWAP1 DUP2 PUSH0 DUP3 ADD SLOAD DUP2 MSTORE PUSH1 0x20 ADD PUSH1 0x1 DUP3 ADD PUSH0 SWAP1 SLOAD SWAP1 PUSH2 0x100 EXP SWAP1 DIV PUSH20 0xFFFFFFFFFFFFFFFFFFFFFFFFFFFFFFFFFFFFFFFF AND PUSH20 0xFFFFFFFFFFFFFFFFFFFFFFFFFFFFFFFFFFFFFFFF AND PUSH20 0xFFFFFFFFFFFFFFFFFFFFFFFFFFFFFFFFFFFFFFFF AND DUP2 MSTORE PUSH1 0x20 ADD PUSH1 0x2 DUP3 ADD DUP1 SLOAD PUSH2 0x114F SWAP1 PUSH2 0x1B47 JUMP JUMPDEST DUP1 PUSH1 0x1F ADD PUSH1 0x20 DUP1 SWAP2 DIV MUL PUSH1 0x20 ADD PUSH1 0x40 MLOAD SWAP1 DUP2 ADD PUSH1 0x40 MSTORE DUP1 SWAP3 SWAP2 SWAP1 DUP2 DUP2 MSTORE PUSH1 0x20 ADD DUP3 DUP1 SLOAD PUSH2 0x117B SWAP1 PUSH2 0x1B47 JUMP JUMPDEST DUP1 ISZERO PUSH2 0x11C6 JUMPI DUP1 PUSH1 0x1F LT PUSH2 0x119D JUMPI PUSH2 0x100 DUP1 DUP4 SLOAD DIV MUL DUP4 MSTORE SWAP2 PUSH1 0x20 ADD SWAP2 PUSH2 0x11C6 JUMP JUMPDEST DUP3 ADD SWAP2 SWAP1 PUSH0 MSTORE PUSH1 0x20 PUSH0 KECCAK256 SWAP1 JUMPDEST DUP2 SLOAD DUP2 MSTORE SWAP1 PUSH1 0x1 ADD SWAP1 PUSH1 0x20 ADD DUP1 DUP4 GT PUSH2 0x11A9 JUMPI DUP3 SWAP1 SUB PUSH1 0x1F AND DUP3 ADD SWAP2 JUMPDEST POP POP POP POP POP DUP2 MSTORE PUSH1 0x20 ADD PUSH1 0x3 DUP3 ADD SLOAD DUP2 MSTORE PUSH1 0x20 ADD PUSH1 0x4 DUP3 ADD SLOAD DUP2 MSTORE POP POP SWAP1 POP SWAP2 SWAP1 POP JUMP JUMPDEST PUSH2 0x11F2 PUSH2 0x126E JUMP JUMPDEST PUSH0 PUSH20 0xFFFFFFFFFFFFFFFFFFFFFFFFFFFFFFFFFFFFFFFF AND DUP2 PUSH20 0xFFFFFFFFFFFFFFFFFFFFFFFFFFFFFFFFFFFFFFFF AND SUB PUSH2 0x1262 JUMPI PUSH0 PUSH1 0x40 MLOAD PUSH32 0x1E4FBDF700000000000000000000000000000000000000000000000000000000 DUP2 MSTORE PUSH1 0x4 ADD PUSH2 0x1259 SWAP2 SWAP1 PUSH2 0x19CF JUMP JUMPDEST PUSH1 0x40 MLOAD DUP1 SWAP2 SUB SWAP1 REVERT JUMPDEST PUSH2 0x126B DUP2 PUSH2 0x12F5 JUMP JUMPDEST POP JUMP JUMPDEST PUSH2 0x1276 PUSH2 0x13B6 JUMP JUMPDEST PUSH20 0xFFFFFFFFFFFFFFFFFFFFFFFFFFFFFFFFFFFFFFFF AND PUSH2 0x1294 PUSH2 0x1027 JUMP JUMPDEST PUSH20 0xFFFFFFFFFFFFFFFFFFFFFFFFFFFFFFFFFFFFFFFF AND EQ PUSH2 0x12F3 JUMPI PUSH2 0x12B7 PUSH2 0x13B6 JUMP JUMPDEST PUSH1 0x40 MLOAD PUSH32 0x118CDAA700000000000000000000000000000000000000000000000000000000 DUP2 MSTORE PUSH1 0x4 ADD PUSH2 0x12EA SWAP2 SWAP1 PUSH2 0x19CF JUMP JUMPDEST PUSH1 0x40 MLOAD DUP1 SWAP2 SUB SWAP1 REVERT JUMPDEST JUMP JUMPDEST PUSH0 DUP1 PUSH0 SWAP1 SLOAD SWAP1 PUSH2 0x100 EXP SWAP1 DIV PUSH20 0xFFFFFFFFFFFFFFFFFFFFFFFFFFFFFFFFFFFFFFFF AND SWAP1 POP DUP2 PUSH0 DUP1 PUSH2 0x100 EXP DUP2 SLOAD DUP2 PUSH20 0xFFFFFFFFFFFFFFFFFFFFFFFFFFFFFFFFFFFFFFFF MUL NOT AND SWAP1 DUP4 PUSH20 0xFFFFFFFFFFFFFFFFFFFFFFFFFFFFFFFFFFFFFFFF AND MUL OR SWAP1 SSTORE POP DUP2 PUSH20 0xFFFFFFFFFFFFFFFFFFFFFFFFFFFFFFFFFFFFFFFF AND DUP2 PUSH20 0xFFFFFFFFFFFFFFFFFFFFFFFFFFFFFFFFFFFFFFFF AND PUSH32 0x8BE0079C531659141344CD1FD0A4F28419497F9722A3DAAFE3B4186F6B6457E0 PUSH1 0x40 MLOAD PUSH1 0x40 MLOAD DUP1 SWAP2 SUB SWAP1 LOG3 POP POP JUMP JUMPDEST PUSH0 CALLER SWAP1 POP SWAP1 JUMP JUMPDEST PUSH1 0x40 MLOAD DUP1 PUSH1 0xA0 ADD PUSH1 0x40 MSTORE DUP1 PUSH0 DUP2 MSTORE PUSH1 0x20 ADD PUSH0 PUSH20 0xFFFFFFFFFFFFFFFFFFFFFFFFFFFFFFFFFFFFFFFF AND DUP2 MSTORE PUSH1 0x20 ADD PUSH1 0x60 DUP2 MSTORE PUSH1 0x20 ADD PUSH0 DUP2 MSTORE PUSH1 0x20 ADD PUSH0 DUP2 MSTORE POP SWAP1 JUMP JUMPDEST PUSH0 PUSH1 0x40 MLOAD SWAP1 POP SWAP1 JUMP JUMPDEST PUSH0 DUP1 REVERT JUMPDEST PUSH0 DUP1 REVERT JUMPDEST PUSH0 PUSH20 0xFFFFFFFFFFFFFFFFFFFFFFFFFFFFFFFFFFFFFFFF DUP3 AND SWAP1 POP SWAP2 SWAP1 POP JUMP JUMPDEST PUSH0 PUSH2 0x1438 DUP3 PUSH2 0x140F JUMP JUMPDEST SWAP1 POP SWAP2 SWAP1 POP JUMP JUMPDEST PUSH2 0x1448 DUP2 PUSH2 0x142E JUMP JUMPDEST DUP2 EQ PUSH2 0x1452 JUMPI PUSH0 DUP1 REVERT JUMPDEST POP JUMP JUMPDEST PUSH0 DUP2 CALLDATALOAD SWAP1 POP PUSH2 0x1463 DUP2 PUSH2 0x143F JUMP JUMPDEST SWAP3 SWAP2 POP POP JUMP JUMPDEST PUSH0 DUP2 SWAP1 POP SWAP2 SWAP1 POP JUMP JUMPDEST PUSH2 0x147B DUP2 PUSH2 0x1469 JUMP JUMPDEST DUP2 EQ PUSH2 0x1485 JUMPI PUSH0 DUP1 REVERT JUMPDEST POP JUMP JUMPDEST PUSH0 DUP2 CALLDATALOAD SWAP1 POP PUSH2 0x1496 DUP2 PUSH2 0x1472 JUMP JUMPDEST SWAP3 SWAP2 POP POP JUMP JUMPDEST PUSH0 DUP1 PUSH1 0x40 DUP4 DUP6 SUB SLT ISZERO PUSH2 0x14B2 JUMPI PUSH2 0x14B1 PUSH2 0x1407 JUMP JUMPDEST JUMPDEST PUSH0 PUSH2 0x14BF DUP6 DUP3 DUP7 ADD PUSH2 0x1455 JUMP JUMPDEST SWAP3 POP POP PUSH1 0x20 PUSH2 0x14D0 DUP6 DUP3 DUP7 ADD PUSH2 0x1488 JUMP JUMPDEST SWAP2 POP POP SWAP3 POP SWAP3 SWAP1 POP JUMP JUMPDEST PUSH2 0x14E3 DUP2 PUSH2 0x1469 JUMP JUMPDEST DUP3 MSTORE POP POP JUMP JUMPDEST PUSH2 0x14F2 DUP2 PUSH2 0x142E JUMP JUMPDEST DUP3 MSTORE POP POP JUMP JUMPDEST PUSH0 DUP2 MLOAD SWAP1 POP SWAP2 SWAP1 POP JUMP JUMPDEST PUSH0 DUP3 DUP3 MSTORE PUSH1 0x20 DUP3 ADD SWAP1 POP SWAP3 SWAP2 POP POP JUMP JUMPDEST PUSH0 JUMPDEST DUP4 DUP2 LT ISZERO PUSH2 0x152F JUMPI DUP1 DUP3 ADD MLOAD DUP2 DUP5 ADD MSTORE PUSH1 0x20 DUP2 ADD SWAP1 POP PUSH2 0x1514 JUMP JUMPDEST PUSH0 DUP5 DUP5 ADD MSTORE POP POP POP POP JUMP JUMPDEST PUSH0 PUSH1 0x1F NOT PUSH1 0x1F DUP4 ADD AND SWAP1 POP SWAP2 SWAP1 POP JUMP JUMPDEST PUSH0 PUSH2 0x1554 DUP3 PUSH2 0x14F8 JUMP JUMPDEST PUSH2 0x155E DUP2 DUP6 PUSH2 0x1502 JUMP JUMPDEST SWAP4 POP PUSH2 0x156E DUP2 DUP6 PUSH1 0x20 DUP7 ADD PUSH2 0x1512 JUMP JUMPDEST PUSH2 0x1577 DUP2 PUSH2 0x153A JUMP JUMPDEST DUP5 ADD SWAP2 POP POP SWAP3 SWAP2 POP POP JUMP JUMPDEST PUSH0 PUSH1 0xA0 DUP3 ADD SWAP1 POP PUSH2 0x1595 PUSH0 DUP4 ADD DUP9 PUSH2 0x14DA JUMP JUMPDEST PUSH2 0x15A2 PUSH1 0x20 DUP4 ADD DUP8 PUSH2 0x14E9 JUMP JUMPDEST DUP2 DUP2 SUB PUSH1 0x40 DUP4 ADD MSTORE PUSH2 0x15B4 DUP2 DUP7 PUSH2 0x154A JUMP JUMPDEST SWAP1 POP PUSH2 0x15C3 PUSH1 0x60 DUP4 ADD DUP6 PUSH2 0x14DA JUMP JUMPDEST PUSH2 0x15D0 PUSH1 0x80 DUP4 ADD DUP5 PUSH2 0x14DA JUMP JUMPDEST SWAP7 SWAP6 POP POP POP POP POP POP JUMP JUMPDEST PUSH0 PUSH1 0x20 DUP3 DUP5 SUB SLT ISZERO PUSH2 0x15EF JUMPI PUSH2 0x15EE PUSH2 0x1407 JUMP JUMPDEST JUMPDEST PUSH0 PUSH2 0x15FC DUP5 DUP3 DUP6 ADD PUSH2 0x1455 JUMP JUMPDEST SWAP2 POP POP SWAP3 SWAP2 POP POP JUMP JUMPDEST PUSH0 DUP2 MLOAD SWAP1 POP SWAP2 SWAP1 POP JUMP JUMPDEST PUSH0 DUP3 DUP3 MSTORE PUSH1 0x20 DUP3 ADD SWAP1 POP SWAP3 SWAP2 POP POP JUMP JUMPDEST PUSH0 DUP2 SWAP1 POP PUSH1 0x20 DUP3 ADD SWAP1 POP SWAP2 SWAP1 POP JUMP JUMPDEST PUSH2 0x1637 DUP2 PUSH2 0x1469 JUMP JUMPDEST DUP3 MSTORE POP POP JUMP JUMPDEST PUSH2 0x1646 DUP2 PUSH2 0x142E JUMP JUMPDEST DUP3 MSTORE POP POP JUMP JUMPDEST PUSH0 DUP3 DUP3 MSTORE PUSH1 0x20 DUP3 ADD SWAP1 POP SWAP3 SWAP2 POP POP JUMP JUMPDEST PUSH0 PUSH2 0x1666 DUP3 PUSH2 0x14F8 JUMP JUMPDEST PUSH2 0x1670 DUP2 DUP6 PUSH2 0x164C JUMP JUMPDEST SWAP4 POP PUSH2 0x1680 DUP2 DUP6 PUSH1 0x20 DUP7 ADD PUSH2 0x1512 JUMP JUMPDEST PUSH2 0x1689 DUP2 PUSH2 0x153A JUMP JUMPDEST DUP5 ADD SWAP2 POP POP SWAP3 SWAP2 POP POP JUMP JUMPDEST PUSH0 PUSH1 0xA0 DUP4 ADD PUSH0 DUP4 ADD MLOAD PUSH2 0x16A9 PUSH0 DUP7 ADD DUP3 PUSH2 0x162E JUMP JUMPDEST POP PUSH1 0x20 DUP4 ADD MLOAD PUSH2 0x16BC PUSH1 0x20 DUP7 ADD DUP3 PUSH2 0x163D JUMP JUMPDEST POP PUSH1 0x40 DUP4 ADD MLOAD DUP5 DUP3 SUB PUSH1 0x40 DUP7 ADD MSTORE PUSH2 0x16D4 DUP3 DUP3 PUSH2 0x165C JUMP JUMPDEST SWAP2 POP POP PUSH1 0x60 DUP4 ADD MLOAD PUSH2 0x16E9 PUSH1 0x60 DUP7 ADD DUP3 PUSH2 0x162E JUMP JUMPDEST POP PUSH1 0x80 DUP4 ADD MLOAD PUSH2 0x16FC PUSH1 0x80 DUP7 ADD DUP3 PUSH2 0x162E JUMP JUMPDEST POP DUP1 SWAP2 POP POP SWAP3 SWAP2 POP POP JUMP JUMPDEST PUSH0 PUSH2 0x1712 DUP4 DUP4 PUSH2 0x1694 JUMP JUMPDEST SWAP1 POP SWAP3 SWAP2 POP POP JUMP JUMPDEST PUSH0 PUSH1 0x20 DUP3 ADD SWAP1 POP SWAP2 SWAP1 POP JUMP JUMPDEST PUSH0 PUSH2 0x1730 DUP3 PUSH2 0x1605 JUMP JUMPDEST PUSH2 0x173A DUP2 DUP6 PUSH2 0x160F JUMP JUMPDEST SWAP4 POP DUP4 PUSH1 0x20 DUP3 MUL DUP6 ADD PUSH2 0x174C DUP6 PUSH2 0x161F JUMP JUMPDEST DUP1 PUSH0 JUMPDEST DUP6 DUP2 LT ISZERO PUSH2 0x1787 JUMPI DUP5 DUP5 SUB DUP10 MSTORE DUP2 MLOAD PUSH2 0x1768 DUP6 DUP3 PUSH2 0x1707 JUMP JUMPDEST SWAP5 POP PUSH2 0x1773 DUP4 PUSH2 0x171A JUMP JUMPDEST SWAP3 POP PUSH1 0x20 DUP11 ADD SWAP10 POP POP PUSH1 0x1 DUP2 ADD SWAP1 POP PUSH2 0x174F JUMP JUMPDEST POP DUP3 SWAP8 POP DUP8 SWAP6 POP POP POP POP POP POP SWAP3 SWAP2 POP POP JUMP JUMPDEST PUSH0 PUSH1 0x20 DUP3 ADD SWAP1 POP DUP2 DUP2 SUB PUSH0 DUP4 ADD MSTORE PUSH2 0x17B1 DUP2 DUP5 PUSH2 0x1726 JUMP JUMPDEST SWAP1 POP SWAP3 SWAP2 POP POP JUMP JUMPDEST PUSH0 PUSH2 0xFFFF DUP3 AND SWAP1 POP SWAP2 SWAP1 POP JUMP JUMPDEST PUSH2 0x17CF DUP2 PUSH2 0x17B9 JUMP JUMPDEST DUP2 EQ PUSH2 0x17D9 JUMPI PUSH0 DUP1 REVERT JUMPDEST POP JUMP JUMPDEST PUSH0 DUP2 CALLDATALOAD SWAP1 POP PUSH2 0x17EA DUP2 PUSH2 0x17C6 JUMP JUMPDEST SWAP3 SWAP2 POP POP JUMP JUMPDEST PUSH0 PUSH1 0x20 DUP3 DUP5 SUB SLT ISZERO PUSH2 0x1805 JUMPI PUSH2 0x1804 PUSH2 0x1407 JUMP JUMPDEST JUMPDEST PUSH0 PUSH2 0x1812 DUP5 DUP3 DUP6 ADD PUSH2 0x17DC JUMP JUMPDEST SWAP2 POP POP SWAP3 SWAP2 POP POP JUMP JUMPDEST PUSH2 0x1824 DUP2 PUSH2 0x17B9 JUMP JUMPDEST DUP3 MSTORE POP POP JUMP JUMPDEST PUSH0 PUSH1 0x20 DUP3 ADD SWAP1 POP PUSH2 0x183D PUSH0 DUP4 ADD DUP5 PUSH2 0x181B JUMP JUMPDEST SWAP3 SWAP2 POP POP JUMP JUMPDEST PUSH0 DUP1 REVERT JUMPDEST PUSH0 DUP1 REVERT JUMPDEST PUSH32 0x4E487B7100000000000000000000000000000000000000000000000000000000 PUSH0 MSTORE PUSH1 0x41 PUSH1 0x4 MSTORE PUSH1 0x24 PUSH0 REVERT JUMPDEST PUSH2 0x1881 DUP3 PUSH2 0x153A JUMP JUMPDEST DUP2 ADD DUP2 DUP2 LT PUSH8 0xFFFFFFFFFFFFFFFF DUP3 GT OR ISZERO PUSH2 0x18A0 JUMPI PUSH2 0x189F PUSH2 0x184B JUMP JUMPDEST JUMPDEST DUP1 PUSH1 0x40 MSTORE POP POP POP JUMP JUMPDEST PUSH0 PUSH2 0x18B2 PUSH2 0x13FE JUMP JUMPDEST SWAP1 POP PUSH2 0x18BE DUP3 DUP3 PUSH2 0x1878 JUMP JUMPDEST SWAP2 SWAP1 POP JUMP JUMPDEST PUSH0 PUSH8 0xFFFFFFFFFFFFFFFF DUP3 GT ISZERO PUSH2 0x18DD JUMPI PUSH2 0x18DC PUSH2 0x184B JUMP JUMPDEST JUMPDEST PUSH2 0x18E6 DUP3 PUSH2 0x153A JUMP JUMPDEST SWAP1 POP PUSH1 0x20 DUP2 ADD SWAP1 POP SWAP2 SWAP1 POP JUMP JUMPDEST DUP3 DUP2 DUP4 CALLDATACOPY PUSH0 DUP4 DUP4 ADD MSTORE POP POP POP JUMP JUMPDEST PUSH0 PUSH2 0x1913 PUSH2 0x190E DUP5 PUSH2 0x18C3 JUMP JUMPDEST PUSH2 0x18A9 JUMP JUMPDEST SWAP1 POP DUP3 DUP2 MSTORE PUSH1 0x20 DUP2 ADD DUP5 DUP5 DUP5 ADD GT ISZERO PUSH2 0x192F JUMPI PUSH2 0x192E PUSH2 0x1847 JUMP JUMPDEST JUMPDEST PUSH2 0x193A DUP5 DUP3 DUP6 PUSH2 0x18F3 JUMP JUMPDEST POP SWAP4 SWAP3 POP POP POP JUMP JUMPDEST PUSH0 DUP3 PUSH1 0x1F DUP4 ADD SLT PUSH2 0x1956 JUMPI PUSH2 0x1955 PUSH2 0x1843 JUMP JUMPDEST JUMPDEST DUP2 CALLDATALOAD PUSH2 0x1966 DUP5 DUP3 PUSH1 0x20 DUP7 ADD PUSH2 0x1901 JUMP JUMPDEST SWAP2 POP POP SWAP3 SWAP2 POP POP JUMP JUMPDEST PUSH0 PUSH1 0x20 DUP3 DUP5 SUB SLT ISZERO PUSH2 0x1984 JUMPI PUSH2 0x1983 PUSH2 0x1407 JUMP JUMPDEST JUMPDEST PUSH0 DUP3 ADD CALLDATALOAD PUSH8 0xFFFFFFFFFFFFFFFF DUP2 GT ISZERO PUSH2 0x19A1 JUMPI PUSH2 0x19A0 PUSH2 0x140B JUMP JUMPDEST JUMPDEST PUSH2 0x19AD DUP5 DUP3 DUP6 ADD PUSH2 0x1942 JUMP JUMPDEST SWAP2 POP POP SWAP3 SWAP2 POP POP JUMP JUMPDEST PUSH0 PUSH1 0x20 DUP3 ADD SWAP1 POP PUSH2 0x19C9 PUSH0 DUP4 ADD DUP5 PUSH2 0x14DA JUMP JUMPDEST SWAP3 SWAP2 POP POP JUMP JUMPDEST PUSH0 PUSH1 0x20 DUP3 ADD SWAP1 POP PUSH2 0x19E2 PUSH0 DUP4 ADD DUP5 PUSH2 0x14E9 JUMP JUMPDEST SWAP3 SWAP2 POP POP JUMP JUMPDEST PUSH0 DUP2 SWAP1 POP SWAP2 SWAP1 POP JUMP JUMPDEST PUSH0 PUSH2 0x1A0B PUSH2 0x1A06 PUSH2 0x1A01 DUP5 PUSH2 0x140F JUMP JUMPDEST PUSH2 0x19E8 JUMP JUMPDEST PUSH2 0x140F JUMP JUMPDEST SWAP1 POP SWAP2 SWAP1 POP JUMP JUMPDEST PUSH0 PUSH2 0x1A1C DUP3 PUSH2 0x19F1 JUMP JUMPDEST SWAP1 POP SWAP2 SWAP1 POP JUMP JUMPDEST PUSH0 PUSH2 0x1A2D DUP3 PUSH2 0x1A12 JUMP JUMPDEST SWAP1 POP SWAP2 SWAP1 POP JUMP JUMPDEST PUSH2 0x1A3D DUP2 PUSH2 0x1A23 JUMP JUMPDEST DUP3 MSTORE POP POP JUMP JUMPDEST PUSH0 PUSH1 0x20 DUP3 ADD SWAP1 POP PUSH2 0x1A56 PUSH0 DUP4 ADD DUP5 PUSH2 0x1A34 JUMP JUMPDEST SWAP3 SWAP2 POP POP JUMP JUMPDEST PUSH0 PUSH1 0x20 DUP3 DUP5 SUB SLT ISZERO PUSH2 0x1A71 JUMPI PUSH2 0x1A70 PUSH2 0x1407 JUMP JUMPDEST JUMPDEST PUSH0 PUSH2 0x1A7E DUP5 DUP3 DUP6 ADD PUSH2 0x1488 JUMP JUMPDEST SWAP2 POP POP SWAP3 SWAP2 POP POP JUMP JUMPDEST PUSH0 PUSH1 0xA0 DUP4 ADD PUSH0 DUP4 ADD MLOAD PUSH2 0x1A9C PUSH0 DUP7 ADD DUP3 PUSH2 0x162E JUMP JUMPDEST POP PUSH1 0x20 DUP4 ADD MLOAD PUSH2 0x1AAF PUSH1 0x20 DUP7 ADD DUP3 PUSH2 0x163D JUMP JUMPDEST POP PUSH1 0x40 DUP4 ADD MLOAD DUP5 DUP3 SUB PUSH1 0x40 DUP7 ADD MSTORE PUSH2 0x1AC7 DUP3 DUP3 PUSH2 0x165C JUMP JUMPDEST SWAP2 POP POP PUSH1 0x60 DUP4 ADD MLOAD PUSH2 0x1ADC PUSH1 0x60 DUP7 ADD DUP3 PUSH2 0x162E JUMP JUMPDEST POP PUSH1 0x80 DUP4 ADD MLOAD PUSH2 0x1AEF PUSH1 0x80 DUP7 ADD DUP3 PUSH2 0x162E JUMP JUMPDEST POP DUP1 SWAP2 POP POP SWAP3 SWAP2 POP POP JUMP JUMPDEST PUSH0 PUSH1 0x20 DUP3 ADD SWAP1 POP DUP2 DUP2 SUB PUSH0 DUP4 ADD MSTORE PUSH2 0x1B12 DUP2 DUP5 PUSH2 0x1A87 JUMP JUMPDEST SWAP1 POP SWAP3 SWAP2 POP POP JUMP JUMPDEST PUSH32 0x4E487B7100000000000000000000000000000000000000000000000000000000 PUSH0 MSTORE PUSH1 0x22 PUSH1 0x4 MSTORE PUSH1 0x24 PUSH0 REVERT JUMPDEST PUSH0 PUSH1 0x2 DUP3 DIV SWAP1 POP PUSH1 0x1 DUP3 AND DUP1 PUSH2 0x1B5E JUMPI PUSH1 0x7F DUP3 AND SWAP2 POP JUMPDEST PUSH1 0x20 DUP3 LT DUP2 SUB PUSH2 0x1B71 JUMPI PUSH2 0x1B70 PUSH2 0x1B1A JUMP JUMPDEST JUMPDEST POP SWAP2 SWAP1 POP JUMP JUMPDEST PUSH0 DUP1 REVERT JUMPDEST PUSH0 DUP1 REVERT JUMPDEST PUSH0 PUSH2 0x1B91 PUSH2 0x1B8C DUP5 PUSH2 0x18C3 JUMP JUMPDEST PUSH2 0x18A9 JUMP JUMPDEST SWAP1 POP DUP3 DUP2 MSTORE PUSH1 0x20 DUP2 ADD DUP5 DUP5 DUP5 ADD GT ISZERO PUSH2 0x1BAD JUMPI PUSH2 0x1BAC PUSH2 0x1847 JUMP JUMPDEST JUMPDEST PUSH2 0x1BB8 DUP5 DUP3 DUP6 PUSH2 0x1512 JUMP JUMPDEST POP SWAP4 SWAP3 POP POP POP JUMP JUMPDEST PUSH0 DUP3 PUSH1 0x1F DUP4 ADD SLT PUSH2 0x1BD4 JUMPI PUSH2 0x1BD3 PUSH2 0x1843 JUMP JUMPDEST JUMPDEST DUP2 MLOAD PUSH2 0x1BE4 DUP5 DUP3 PUSH1 0x20 DUP7 ADD PUSH2 0x1B7F JUMP JUMPDEST SWAP2 POP POP SWAP3 SWAP2 POP POP JUMP JUMPDEST PUSH0 PUSH1 0x40 DUP3 DUP5 SUB SLT ISZERO PUSH2 0x1C02 JUMPI PUSH2 0x1C01 PUSH2 0x1B77 JUMP JUMPDEST JUMPDEST PUSH2 0x1C0C PUSH1 0x40 PUSH2 0x18A9 JUMP JUMPDEST SWAP1 POP PUSH0 DUP3 ADD MLOAD PUSH8 0xFFFFFFFFFFFFFFFF DUP2 GT ISZERO PUSH2 0x1C2B JUMPI PUSH2 0x1C2A PUSH2 0x1B7B JUMP JUMPDEST JUMPDEST PUSH2 0x1C37 DUP5 DUP3 DUP6 ADD PUSH2 0x1BC0 JUMP JUMPDEST PUSH0 DUP4 ADD MSTORE POP PUSH1 0x20 DUP3 ADD MLOAD PUSH8 0xFFFFFFFFFFFFFFFF DUP2 GT ISZERO PUSH2 0x1C5A JUMPI PUSH2 0x1C59 PUSH2 0x1B7B JUMP JUMPDEST JUMPDEST PUSH2 0x1C66 DUP5 DUP3 DUP6 ADD PUSH2 0x1BC0 JUMP JUMPDEST PUSH1 0x20 DUP4 ADD MSTORE POP SWAP3 SWAP2 POP POP JUMP JUMPDEST PUSH0 PUSH1 0x20 DUP3 DUP5 SUB SLT ISZERO PUSH2 0x1C87 JUMPI PUSH2 0x1C86 PUSH2 0x1407 JUMP JUMPDEST JUMPDEST PUSH0 DUP3 ADD MLOAD PUSH8 0xFFFFFFFFFFFFFFFF DUP2 GT ISZERO PUSH2 0x1CA4 JUMPI PUSH2 0x1CA3 PUSH2 0x140B JUMP JUMPDEST JUMPDEST PUSH2 0x1CB0 DUP5 DUP3 DUP6 ADD PUSH2 0x1BED JUMP JUMPDEST SWAP2 POP POP SWAP3 SWAP2 POP POP JUMP JUMPDEST PUSH32 0x55736572206E6F74207265676973746572656400000000000000000000000000 PUSH0 DUP3 ADD MSTORE POP JUMP JUMPDEST PUSH0 PUSH2 0x1CED PUSH1 0x13 DUP4 PUSH2 0x1502 JUMP JUMPDEST SWAP2 POP PUSH2 0x1CF8 DUP3 PUSH2 0x1CB9 JUMP JUMPDEST PUSH1 0x20 DUP3 ADD SWAP1 POP SWAP2 SWAP1 POP JUMP JUMPDEST PUSH0 PUSH1 0x20 DUP3 ADD SWAP1 POP DUP2 DUP2 SUB PUSH0 DUP4 ADD MSTORE PUSH2 0x1D1A DUP2 PUSH2 0x1CE1 JUMP JUMPDEST SWAP1 POP SWAP2 SWAP1 POP JUMP JUMPDEST PUSH32 0x4E487B7100000000000000000000000000000000000000000000000000000000 PUSH0 MSTORE PUSH1 0x32 PUSH1 0x4 MSTORE PUSH1 0x24 PUSH0 REVERT JUMPDEST PUSH32 0x547765657420646F6573206E6F74206578697374730000000000000000000000 PUSH0 DUP3 ADD MSTORE POP JUMP JUMPDEST PUSH0 PUSH2 0x1D82 PUSH1 0x15 DUP4 PUSH2 0x1502 JUMP JUMPDEST SWAP2 POP PUSH2 0x1D8D DUP3 PUSH2 0x1D4E JUMP JUMPDEST PUSH1 0x20 DUP3 ADD SWAP1 POP SWAP2 SWAP1 POP JUMP JUMPDEST PUSH0 PUSH1 0x20 DUP3 ADD SWAP1 POP DUP2 DUP2 SUB PUSH0 DUP4 ADD MSTORE PUSH2 0x1DAF DUP2 PUSH2 0x1D76 JUMP JUMPDEST SWAP1 POP SWAP2 SWAP1 POP JUMP JUMPDEST PUSH32 0x547765657420686173206E6F204C696B65730000000000000000000000000000 PUSH0 DUP3 ADD MSTORE POP JUMP JUMPDEST PUSH0 PUSH2 0x1DEA PUSH1 0x12 DUP4 PUSH2 0x1502 JUMP JUMPDEST SWAP2 POP PUSH2 0x1DF5 DUP3 PUSH2 0x1DB6 JUMP JUMPDEST PUSH1 0x20 DUP3 ADD SWAP1 POP SWAP2 SWAP1 POP JUMP JUMPDEST PUSH0 PUSH1 0x20 DUP3 ADD SWAP1 POP DUP2 DUP2 SUB PUSH0 DUP4 ADD MSTORE PUSH2 0x1E17 DUP2 PUSH2 0x1DDE JUMP JUMPDEST SWAP1 POP SWAP2 SWAP1 POP JUMP JUMPDEST PUSH32 0x4E487B7100000000000000000000000000000000000000000000000000000000 PUSH0 MSTORE PUSH1 0x11 PUSH1 0x4 MSTORE PUSH1 0x24 PUSH0 REVERT JUMPDEST PUSH0 PUSH2 0x1E55 DUP3 PUSH2 0x1469 JUMP JUMPDEST SWAP2 POP PUSH0 DUP3 SUB PUSH2 0x1E67 JUMPI PUSH2 0x1E66 PUSH2 0x1E1E JUMP JUMPDEST JUMPDEST PUSH1 0x1 DUP3 SUB SWAP1 POP SWAP2 SWAP1 POP JUMP JUMPDEST PUSH0 PUSH1 0x80 DUP3 ADD SWAP1 POP PUSH2 0x1E85 PUSH0 DUP4 ADD DUP8 PUSH2 0x14E9 JUMP JUMPDEST PUSH2 0x1E92 PUSH1 0x20 DUP4 ADD DUP7 PUSH2 0x14E9 JUMP JUMPDEST PUSH2 0x1E9F PUSH1 0x40 DUP4 ADD DUP6 PUSH2 0x14DA JUMP JUMPDEST PUSH2 0x1EAC PUSH1 0x60 DUP4 ADD DUP5 PUSH2 0x14DA JUMP JUMPDEST SWAP6 SWAP5 POP POP POP POP POP JUMP JUMPDEST PUSH0 PUSH2 0x1EBF DUP3 PUSH2 0x1469 JUMP JUMPDEST SWAP2 POP PUSH32 0xFFFFFFFFFFFFFFFFFFFFFFFFFFFFFFFFFFFFFFFFFFFFFFFFFFFFFFFFFFFFFFFF DUP3 SUB PUSH2 0x1EF1 JUMPI PUSH2 0x1EF0 PUSH2 0x1E1E JUMP JUMPDEST JUMPDEST PUSH1 0x1 DUP3 ADD SWAP1 POP SWAP2 SWAP1 POP JUMP JUMPDEST PUSH32 0x547765657420697320746F6F206C6F6E67000000000000000000000000000000 PUSH0 DUP3 ADD MSTORE POP JUMP JUMPDEST PUSH0 PUSH2 0x1F30 PUSH1 0x11 DUP4 PUSH2 0x1502 JUMP JUMPDEST SWAP2 POP PUSH2 0x1F3B DUP3 PUSH2 0x1EFC JUMP JUMPDEST PUSH1 0x20 DUP3 ADD SWAP1 POP SWAP2 SWAP1 POP JUMP JUMPDEST PUSH0 PUSH1 0x20 DUP3 ADD SWAP1 POP DUP2 DUP2 SUB PUSH0 DUP4 ADD MSTORE PUSH2 0x1F5D DUP2 PUSH2 0x1F24 JUMP JUMPDEST SWAP1 POP SWAP2 SWAP1 POP JUMP JUMPDEST PUSH0 DUP2 SWAP1 POP DUP2 PUSH0 MSTORE PUSH1 0x20 PUSH0 KECCAK256 SWAP1 POP SWAP2 SWAP1 POP JUMP JUMPDEST PUSH0 PUSH1 0x20 PUSH1 0x1F DUP4 ADD DIV SWAP1 POP SWAP2 SWAP1 POP JUMP JUMPDEST PUSH0 DUP3 DUP3 SHL SWAP1 POP SWAP3 SWAP2 POP POP JUMP JUMPDEST PUSH0 PUSH1 0x8 DUP4 MUL PUSH2 0x1FC0 PUSH32 0xFFFFFFFFFFFFFFFFFFFFFFFFFFFFFFFFFFFFFFFFFFFFFFFFFFFFFFFFFFFFFFFF DUP3 PUSH2 0x1F85 JUMP JUMPDEST PUSH2 0x1FCA DUP7 DUP4 PUSH2 0x1F85 JUMP JUMPDEST SWAP6 POP DUP1 NOT DUP5 AND SWAP4 POP DUP1 DUP7 AND DUP5 OR SWAP3 POP POP POP SWAP4 SWAP3 POP POP POP JUMP JUMPDEST PUSH0 PUSH2 0x1FFC PUSH2 0x1FF7 PUSH2 0x1FF2 DUP5 PUSH2 0x1469 JUMP JUMPDEST PUSH2 0x19E8 JUMP JUMPDEST PUSH2 0x1469 JUMP JUMPDEST SWAP1 POP SWAP2 SWAP1 POP JUMP JUMPDEST PUSH0 DUP2 SWAP1 POP SWAP2 SWAP1 POP JUMP JUMPDEST PUSH2 0x2015 DUP4 PUSH2 0x1FE2 JUMP JUMPDEST PUSH2 0x2029 PUSH2 0x2021 DUP3 PUSH2 0x2003 JUMP JUMPDEST DUP5 DUP5 SLOAD PUSH2 0x1F91 JUMP JUMPDEST DUP3 SSTORE POP POP POP POP JUMP JUMPDEST PUSH0 SWAP1 JUMP JUMPDEST PUSH2 0x203D PUSH2 0x2031 JUMP JUMPDEST PUSH2 0x2048 DUP2 DUP5 DUP5 PUSH2 0x200C JUMP JUMPDEST POP POP POP JUMP JUMPDEST JUMPDEST DUP2 DUP2 LT ISZERO PUSH2 0x206B JUMPI PUSH2 0x2060 PUSH0 DUP3 PUSH2 0x2035 JUMP JUMPDEST PUSH1 0x1 DUP2 ADD SWAP1 POP PUSH2 0x204E JUMP JUMPDEST POP POP JUMP JUMPDEST PUSH1 0x1F DUP3 GT ISZERO PUSH2 0x20B0 JUMPI PUSH2 0x2081 DUP2 PUSH2 0x1F64 JUMP JUMPDEST PUSH2 0x208A DUP5 PUSH2 0x1F76 JUMP JUMPDEST DUP2 ADD PUSH1 0x20 DUP6 LT ISZERO PUSH2 0x2099 JUMPI DUP2 SWAP1 POP JUMPDEST PUSH2 0x20AD PUSH2 0x20A5 DUP6 PUSH2 0x1F76 JUMP JUMPDEST DUP4 ADD DUP3 PUSH2 0x204D JUMP JUMPDEST POP POP JUMPDEST POP POP POP JUMP JUMPDEST PUSH0 DUP3 DUP3 SHR SWAP1 POP SWAP3 SWAP2 POP POP JUMP JUMPDEST PUSH0 PUSH2 0x20D0 PUSH0 NOT DUP5 PUSH1 0x8 MUL PUSH2 0x20B5 JUMP JUMPDEST NOT DUP1 DUP4 AND SWAP2 POP POP SWAP3 SWAP2 POP POP JUMP JUMPDEST PUSH0 PUSH2 0x20E8 DUP4 DUP4 PUSH2 0x20C1 JUMP JUMPDEST SWAP2 POP DUP3 PUSH1 0x2 MUL DUP3 OR SWAP1 POP SWAP3 SWAP2 POP POP JUMP JUMPDEST PUSH2 0x2101 DUP3 PUSH2 0x14F8 JUMP JUMPDEST PUSH8 0xFFFFFFFFFFFFFFFF DUP2 GT ISZERO PUSH2 0x211A JUMPI PUSH2 0x2119 PUSH2 0x184B JUMP JUMPDEST JUMPDEST PUSH2 0x2124 DUP3 SLOAD PUSH2 0x1B47 JUMP JUMPDEST PUSH2 0x212F DUP3 DUP3 DUP6 PUSH2 0x206F JUMP JUMPDEST PUSH0 PUSH1 0x20 SWAP1 POP PUSH1 0x1F DUP4 GT PUSH1 0x1 DUP2 EQ PUSH2 0x2160 JUMPI PUSH0 DUP5 ISZERO PUSH2 0x214E JUMPI DUP3 DUP8 ADD MLOAD SWAP1 POP JUMPDEST PUSH2 0x2158 DUP6 DUP3 PUSH2 0x20DD JUMP JUMPDEST DUP7 SSTORE POP PUSH2 0x21BF JUMP JUMPDEST PUSH1 0x1F NOT DUP5 AND PUSH2 0x216E DUP7 PUSH2 0x1F64 JUMP JUMPDEST PUSH0 JUMPDEST DUP3 DUP2 LT ISZERO PUSH2 0x2195 JUMPI DUP5 DUP10 ADD MLOAD DUP3 SSTORE PUSH1 0x1 DUP3 ADD SWAP2 POP PUSH1 0x20 DUP6 ADD SWAP5 POP PUSH1 0x20 DUP2 ADD SWAP1 POP PUSH2 0x2170 JUMP JUMPDEST DUP7 DUP4 LT ISZERO PUSH2 0x21B2 JUMPI DUP5 DUP10 ADD MLOAD PUSH2 0x21AE PUSH1 0x1F DUP10 AND DUP3 PUSH2 0x20C1 JUMP JUMPDEST DUP4 SSTORE POP JUMPDEST PUSH1 0x1 PUSH1 0x2 DUP9 MUL ADD DUP9 SSTORE POP POP POP JUMPDEST POP POP POP POP POP POP JUMP JUMPDEST PUSH0 PUSH1 0x80 DUP3 ADD SWAP1 POP PUSH2 0x21DA PUSH0 DUP4 ADD DUP8 PUSH2 0x14DA JUMP JUMPDEST PUSH2 0x21E7 PUSH1 0x20 DUP4 ADD DUP7 PUSH2 0x14E9 JUMP JUMPDEST DUP2 DUP2 SUB PUSH1 0x40 DUP4 ADD MSTORE PUSH2 0x21F9 DUP2 DUP6 PUSH2 0x154A JUMP JUMPDEST SWAP1 POP PUSH2 0x2208 PUSH1 0x60 DUP4 ADD DUP5 PUSH2 0x14DA JUMP JUMPDEST SWAP6 SWAP5 POP POP POP POP POP JUMP JUMPDEST PUSH0 PUSH2 0x221B DUP3 PUSH2 0x1469 JUMP JUMPDEST SWAP2 POP PUSH2 0x2226 DUP4 PUSH2 0x1469 JUMP JUMPDEST SWAP3 POP DUP3 DUP3 ADD SWAP1 POP DUP1 DUP3 GT ISZERO PUSH2 0x223E JUMPI PUSH2 0x223D PUSH2 0x1E1E JUMP JUMPDEST JUMPDEST SWAP3 SWAP2 POP POP JUMP INVALID LOG2 PUSH5 0x6970667358 0x22 SLT KECCAK256 0x4E 0xA6 BLOBBASEFEE 0xAF SWAP1 CHAINID SWAP8 POP MSIZE 0x28 0xF8 DUP4 0xE1 LOG2 LOG3 SDIV RETURNDATACOPY DUP10 0xD0 0xEB SWAP11 0xCC 0xA6 0xF EXP PUSH1 0x2C GASLIMIT GASPRICE PUSH32 0x1F64736F6C6343000818003300000000000000000000000000000000000000 "
				},
				"gasEstimates": {
					"creation": {
						"codeDepositCost": "1765200",
						"executionCost": "infinite",
						"totalCost": "infinite"
					},
					"external": {
						"MAX_TWEET_LENGTH()": "2628",
						"changeTweetLength(uint16)": "infinite",
						"createTweet(string)": "infinite",
						"getAllTweets(address)": "infinite",
						"getTotalLikes(address)": "infinite",
						"getTweet(uint256)": "infinite",
						"likeTweet(address,uint256)": "infinite",
						"owner()": "2537",
						"profileContract()": "infinite",
						"renounceOwnership()": "infinite",
						"transferOwnership(address)": "infinite",
						"tweets(address,uint256)": "infinite",
						"unlikeTweet(address,uint256)": "infinite"
					}
				},
				"methodIdentifiers": {
					"MAX_TWEET_LENGTH()": "6eb10797",
					"changeTweetLength(uint16)": "58bfa4ab",
					"createTweet(string)": "7c9cd2bc",
					"getAllTweets(address)": "12e7ee1c",
					"getTotalLikes(address)": "820785cc",
					"getTweet(uint256)": "c3ad5ecb",
					"likeTweet(address,uint256)": "63378216",
					"owner()": "8da5cb5b",
					"profileContract()": "a3974b21",
					"renounceOwnership()": "715018a6",
					"transferOwnership(address)": "f2fde38b",
					"tweets(address,uint256)": "05a1b4a9",
					"unlikeTweet(address,uint256)": "3d9b569f"
				}
			},
			"storageLayout": {
				"storage": [
					{
						"astId": 8,
						"contract": "contracts/Interaction-Twitter-Main.sol:Twitter",
						"label": "_owner",
						"offset": 0,
						"slot": "0",
						"type": "t_address"
					},
					{
						"astId": 199,
						"contract": "contracts/Interaction-Twitter-Main.sol:Twitter",
						"label": "profileContract",
						"offset": 0,
						"slot": "1",
						"type": "t_contract(IProfile)194"
					},
					{
						"astId": 243,
						"contract": "contracts/Interaction-Twitter-Main.sol:Twitter",
						"label": "MAX_TWEET_LENGTH",
						"offset": 20,
						"slot": "1",
						"type": "t_uint16"
					},
					{
						"astId": 292,
						"contract": "contracts/Interaction-Twitter-Main.sol:Twitter",
						"label": "tweets",
						"offset": 0,
						"slot": "2",
						"type": "t_mapping(t_address,t_array(t_struct(Tweet)240_storage)dyn_storage)"
					}
				],
				"types": {
					"t_address": {
						"encoding": "inplace",
						"label": "address",
						"numberOfBytes": "20"
					},
					"t_array(t_struct(Tweet)240_storage)dyn_storage": {
						"base": "t_struct(Tweet)240_storage",
						"encoding": "dynamic_array",
						"label": "struct Twitter.Tweet[]",
						"numberOfBytes": "32"
					},
					"t_contract(IProfile)194": {
						"encoding": "inplace",
						"label": "contract IProfile",
						"numberOfBytes": "20"
					},
					"t_mapping(t_address,t_array(t_struct(Tweet)240_storage)dyn_storage)": {
						"encoding": "mapping",
						"key": "t_address",
						"label": "mapping(address => struct Twitter.Tweet[])",
						"numberOfBytes": "32",
						"value": "t_array(t_struct(Tweet)240_storage)dyn_storage"
					},
					"t_string_storage": {
						"encoding": "bytes",
						"label": "string",
						"numberOfBytes": "32"
					},
					"t_struct(Tweet)240_storage": {
						"encoding": "inplace",
						"label": "struct Twitter.Tweet",
						"members": [
							{
								"astId": 231,
								"contract": "contracts/Interaction-Twitter-Main.sol:Twitter",
								"label": "id",
								"offset": 0,
								"slot": "0",
								"type": "t_uint256"
							},
							{
								"astId": 233,
								"contract": "contracts/Interaction-Twitter-Main.sol:Twitter",
								"label": "author",
								"offset": 0,
								"slot": "1",
								"type": "t_address"
							},
							{
								"astId": 235,
								"contract": "contracts/Interaction-Twitter-Main.sol:Twitter",
								"label": "content",
								"offset": 0,
								"slot": "2",
								"type": "t_string_storage"
							},
							{
								"astId": 237,
								"contract": "contracts/Interaction-Twitter-Main.sol:Twitter",
								"label": "timestamp",
								"offset": 0,
								"slot": "3",
								"type": "t_uint256"
							},
							{
								"astId": 239,
								"contract": "contracts/Interaction-Twitter-Main.sol:Twitter",
								"label": "likes",
								"offset": 0,
								"slot": "4",
								"type": "t_uint256"
							}
						],
						"numberOfBytes": "160"
					},
					"t_uint16": {
						"encoding": "inplace",
						"label": "uint16",
						"numberOfBytes": "2"
					},
					"t_uint256": {
						"encoding": "inplace",
						"label": "uint256",
						"numberOfBytes": "32"
					}
				}
			},
			"userdoc": {
				"kind": "user",
				"methods": {},
				"version": 1
			}
		}
	}
}