{
	"contracts/Twitter.sol": {
		"Twitter": {
			"abi": [
				{
					"inputs": [],
					"stateMutability": "nonpayable",
					"type": "constructor"
				},
				{
					"inputs": [
						{
							"internalType": "address",
							"name": "owner",
							"type": "address"
						}
					],
					"name": "OwnableInvalidOwner",
					"type": "error"
				},
				{
					"inputs": [
						{
							"internalType": "address",
							"name": "account",
							"type": "address"
						}
					],
					"name": "OwnableUnauthorizedAccount",
					"type": "error"
				},
				{
					"anonymous": false,
					"inputs": [
						{
							"indexed": true,
							"internalType": "address",
							"name": "previousOwner",
							"type": "address"
						},
						{
							"indexed": true,
							"internalType": "address",
							"name": "newOwner",
							"type": "address"
						}
					],
					"name": "OwnershipTransferred",
					"type": "event"
				},
				{
					"anonymous": false,
					"inputs": [
						{
							"indexed": false,
							"internalType": "uint256",
							"name": "id",
							"type": "uint256"
						},
						{
							"indexed": false,
							"internalType": "address",
							"name": "author",
							"type": "address"
						},
						{
							"indexed": false,
							"internalType": "string",
							"name": "content",
							"type": "string"
						},
						{
							"indexed": false,
							"internalType": "uint256",
							"name": "timestamp",
							"type": "uint256"
						}
					],
					"name": "TweetCreated",
					"type": "event"
				},
				{
					"anonymous": false,
					"inputs": [
						{
							"indexed": false,
							"internalType": "address",
							"name": "liker",
							"type": "address"
						},
						{
							"indexed": false,
							"internalType": "address",
							"name": "tweetAuthor",
							"type": "address"
						},
						{
							"indexed": false,
							"internalType": "uint256",
							"name": "tweetId",
							"type": "uint256"
						},
						{
							"indexed": false,
							"internalType": "uint256",
							"name": "newLikeCount",
							"type": "uint256"
						}
					],
					"name": "TweetLiked",
					"type": "event"
				},
				{
					"anonymous": false,
					"inputs": [
						{
							"indexed": false,
							"internalType": "address",
							"name": "unliker",
							"type": "address"
						},
						{
							"indexed": false,
							"internalType": "address",
							"name": "tweetAuthor",
							"type": "address"
						},
						{
							"indexed": false,
							"internalType": "uint256",
							"name": "tweetId",
							"type": "uint256"
						},
						{
							"indexed": false,
							"internalType": "uint256",
							"name": "newLikeCount",
							"type": "uint256"
						}
					],
					"name": "TweetUnliked",
					"type": "event"
				},
				{
					"inputs": [],
					"name": "MAX_TWEET_LENGTH",
					"outputs": [
						{
							"internalType": "uint16",
							"name": "",
							"type": "uint16"
						}
					],
					"stateMutability": "view",
					"type": "function"
				},
				{
					"inputs": [
						{
							"internalType": "uint16",
							"name": "newTweetLength",
							"type": "uint16"
						}
					],
					"name": "changeTweetLength",
					"outputs": [],
					"stateMutability": "nonpayable",
					"type": "function"
				},
				{
					"inputs": [
						{
							"internalType": "string",
							"name": "_tweet",
							"type": "string"
						}
					],
					"name": "createTweet",
					"outputs": [],
					"stateMutability": "nonpayable",
					"type": "function"
				},
				{
					"inputs": [
						{
							"internalType": "address",
							"name": "_owner",
							"type": "address"
						}
					],
					"name": "getAllTweets",
					"outputs": [
						{
							"components": [
								{
									"internalType": "uint256",
									"name": "id",
									"type": "uint256"
								},
								{
									"internalType": "address",
									"name": "author",
									"type": "address"
								},
								{
									"internalType": "string",
									"name": "content",
									"type": "string"
								},
								{
									"internalType": "uint256",
									"name": "timestamp",
									"type": "uint256"
								},
								{
									"internalType": "uint256",
									"name": "likes",
									"type": "uint256"
								}
							],
							"internalType": "struct Twitter.Tweet[]",
							"name": "",
							"type": "tuple[]"
						}
					],
					"stateMutability": "view",
					"type": "function"
				},
				{
					"inputs": [
						{
							"internalType": "address",
							"name": "_author",
							"type": "address"
						}
					],
					"name": "getTotalLikes",
					"outputs": [
						{
							"internalType": "uint256",
							"name": "",
							"type": "uint256"
						}
					],
					"stateMutability": "view",
					"type": "function"
				},
				{
					"inputs": [
						{
							"internalType": "uint256",
							"name": "_idx",
							"type": "uint256"
						}
					],
					"name": "getTweet",
					"outputs": [
						{
							"components": [
								{
									"internalType": "uint256",
									"name": "id",
									"type": "uint256"
								},
								{
									"internalType": "address",
									"name": "author",
									"type": "address"
								},
								{
									"internalType": "string",
									"name": "content",
									"type": "string"
								},
								{
									"internalType": "uint256",
									"name": "timestamp",
									"type": "uint256"
								},
								{
									"internalType": "uint256",
									"name": "likes",
									"type": "uint256"
								}
							],
							"internalType": "struct Twitter.Tweet",
							"name": "",
							"type": "tuple"
						}
					],
					"stateMutability": "view",
					"type": "function"
				},
				{
					"inputs": [
						{
							"internalType": "address",
							"name": "author",
							"type": "address"
						},
						{
							"internalType": "uint256",
							"name": "id",
							"type": "uint256"
						}
					],
					"name": "likeTweet",
					"outputs": [],
					"stateMutability": "nonpayable",
					"type": "function"
				},
				{
					"inputs": [],
					"name": "owner",
					"outputs": [
						{
							"internalType": "address",
							"name": "",
							"type": "address"
						}
					],
					"stateMutability": "view",
					"type": "function"
				},
				{
					"inputs": [],
					"name": "renounceOwnership",
					"outputs": [],
					"stateMutability": "nonpayable",
					"type": "function"
				},
				{
					"inputs": [
						{
							"internalType": "address",
							"name": "newOwner",
							"type": "address"
						}
					],
					"name": "transferOwnership",
					"outputs": [],
					"stateMutability": "nonpayable",
					"type": "function"
				},
				{
					"inputs": [
						{
							"internalType": "address",
							"name": "",
							"type": "address"
						},
						{
							"internalType": "uint256",
							"name": "",
							"type": "uint256"
						}
					],
					"name": "tweets",
					"outputs": [
						{
							"internalType": "uint256",
							"name": "id",
							"type": "uint256"
						},
						{
							"internalType": "address",
							"name": "author",
							"type": "address"
						},
						{
							"internalType": "string",
							"name": "content",
							"type": "string"
						},
						{
							"internalType": "uint256",
							"name": "timestamp",
							"type": "uint256"
						},
						{
							"internalType": "uint256",
							"name": "likes",
							"type": "uint256"
						}
					],
					"stateMutability": "view",
					"type": "function"
				},
				{
					"inputs": [
						{
							"internalType": "address",
							"name": "author",
							"type": "address"
						},
						{
							"internalType": "uint256",
							"name": "id",
							"type": "uint256"
						}
					],
					"name": "unlikeTweet",
					"outputs": [],
					"stateMutability": "nonpayable",
					"type": "function"
				}
			],
			"devdoc": {
				"errors": {
					"OwnableInvalidOwner(address)": [
						{
							"details": "The owner is not a valid owner account. (eg. `address(0)`)"
						}
					],
					"OwnableUnauthorizedAccount(address)": [
						{
							"details": "The caller account is not authorized to perform an operation."
						}
					]
				},
				"kind": "dev",
				"methods": {
					"owner()": {
						"details": "Returns the address of the current owner."
					},
					"renounceOwnership()": {
						"details": "Leaves the contract without owner. It will not be possible to call `onlyOwner` functions. Can only be called by the current owner. NOTE: Renouncing ownership will leave the contract without an owner, thereby disabling any functionality that is only available to the owner."
					},
					"transferOwnership(address)": {
						"details": "Transfers ownership of the contract to a new account (`newOwner`). Can only be called by the current owner."
					}
				},
				"version": 1
			},
			"evm": {
				"assembly": "    /* \"contracts/Twitter.sol\":113:2962  contract Twitter is Ownable {... */\n  mstore(0x40, 0x80)\n    /* \"contracts/Twitter.sol\":611:614  280 */\n  0x0118\n    /* \"contracts/Twitter.sol\":577:614  uint16 public  MAX_TWEET_LENGTH = 280 */\n  0x00\n  exp(0x0100, 0x14)\n  dup2\n  sload\n  dup2\n  0xffff\n  mul\n  not\n  and\n  swap1\n  dup4\n  0xffff\n  and\n  mul\n  or\n  swap1\n  sstore\n  pop\n    /* \"contracts/Twitter.sol\":770:806  constructor() Ownable(msg.sender) {} */\n  callvalue\n  dup1\n  iszero\n  tag_1\n  jumpi\n  0x00\n  dup1\n  revert\ntag_1:\n  pop\n    /* \"contracts/Twitter.sol\":792:802  msg.sender */\n  caller\n    /* \"@openzeppelin/contracts/access/Ownable.sol\":1297:1298  0 */\n  0x00\n    /* \"@openzeppelin/contracts/access/Ownable.sol\":1273:1299  initialOwner == address(0) */\n  0xffffffffffffffffffffffffffffffffffffffff\n  and\n    /* \"@openzeppelin/contracts/access/Ownable.sol\":1273:1285  initialOwner */\n  dup2\n    /* \"@openzeppelin/contracts/access/Ownable.sol\":1273:1299  initialOwner == address(0) */\n  0xffffffffffffffffffffffffffffffffffffffff\n  and\n  sub\n    /* \"@openzeppelin/contracts/access/Ownable.sol\":1269:1364  if (initialOwner == address(0)) {... */\n  tag_5\n  jumpi\n    /* \"@openzeppelin/contracts/access/Ownable.sol\":1350:1351  0 */\n  0x00\n    /* \"@openzeppelin/contracts/access/Ownable.sol\":1322:1353  OwnableInvalidOwner(address(0)) */\n  mload(0x40)\n  0x1e4fbdf700000000000000000000000000000000000000000000000000000000\n  dup2\n  mstore\n  0x04\n  add\n  tag_6\n  swap2\n  swap1\n  tag_7\n  jump\t// in\ntag_6:\n  mload(0x40)\n  dup1\n  swap2\n  sub\n  swap1\n  revert\n    /* \"@openzeppelin/contracts/access/Ownable.sol\":1269:1364  if (initialOwner == address(0)) {... */\ntag_5:\n    /* \"@openzeppelin/contracts/access/Ownable.sol\":1373:1405  _transferOwnership(initialOwner) */\n  tag_8\n    /* \"@openzeppelin/contracts/access/Ownable.sol\":1392:1404  initialOwner */\n  dup2\n    /* \"@openzeppelin/contracts/access/Ownable.sol\":1373:1391  _transferOwnership */\n  shl(0x20, tag_9)\n    /* \"@openzeppelin/contracts/access/Ownable.sol\":1373:1405  _transferOwnership(initialOwner) */\n  0x20\n  shr\n  jump\t// in\ntag_8:\n    /* \"@openzeppelin/contracts/access/Ownable.sol\":1225:1412  constructor(address initialOwner) {... */\n  pop\n    /* \"contracts/Twitter.sol\":113:2962  contract Twitter is Ownable {... */\n  jump(tag_11)\n    /* \"@openzeppelin/contracts/access/Ownable.sol\":2912:3099  function _transferOwnership(address newOwner) internal virtual {... */\ntag_9:\n    /* \"@openzeppelin/contracts/access/Ownable.sol\":2985:3001  address oldOwner */\n  0x00\n    /* \"@openzeppelin/contracts/access/Ownable.sol\":3004:3010  _owner */\n  dup1\n  0x00\n  swap1\n  sload\n  swap1\n  0x0100\n  exp\n  swap1\n  div\n  0xffffffffffffffffffffffffffffffffffffffff\n  and\n    /* \"@openzeppelin/contracts/access/Ownable.sol\":2985:3010  address oldOwner = _owner */\n  swap1\n  pop\n    /* \"@openzeppelin/contracts/access/Ownable.sol\":3029:3037  newOwner */\n  dup2\n    /* \"@openzeppelin/contracts/access/Ownable.sol\":3020:3026  _owner */\n  0x00\n  dup1\n    /* \"@openzeppelin/contracts/access/Ownable.sol\":3020:3037  _owner = newOwner */\n  0x0100\n  exp\n  dup2\n  sload\n  dup2\n  0xffffffffffffffffffffffffffffffffffffffff\n  mul\n  not\n  and\n  swap1\n  dup4\n  0xffffffffffffffffffffffffffffffffffffffff\n  and\n  mul\n  or\n  swap1\n  sstore\n  pop\n    /* \"@openzeppelin/contracts/access/Ownable.sol\":3083:3091  newOwner */\n  dup2\n    /* \"@openzeppelin/contracts/access/Ownable.sol\":3052:3092  OwnershipTransferred(oldOwner, newOwner) */\n  0xffffffffffffffffffffffffffffffffffffffff\n  and\n    /* \"@openzeppelin/contracts/access/Ownable.sol\":3073:3081  oldOwner */\n  dup2\n    /* \"@openzeppelin/contracts/access/Ownable.sol\":3052:3092  OwnershipTransferred(oldOwner, newOwner) */\n  0xffffffffffffffffffffffffffffffffffffffff\n  and\n  0x8be0079c531659141344cd1fd0a4f28419497f9722a3daafe3b4186f6b6457e0\n  mload(0x40)\n  mload(0x40)\n  dup1\n  swap2\n  sub\n  swap1\n  log3\n    /* \"@openzeppelin/contracts/access/Ownable.sol\":2975:3099  {... */\n  pop\n    /* \"@openzeppelin/contracts/access/Ownable.sol\":2912:3099  function _transferOwnership(address newOwner) internal virtual {... */\n  pop\n  jump\t// out\n    /* \"#utility.yul\":7:133   */\ntag_13:\n    /* \"#utility.yul\":44:51   */\n  0x00\n    /* \"#utility.yul\":84:126   */\n  0xffffffffffffffffffffffffffffffffffffffff\n    /* \"#utility.yul\":77:82   */\n  dup3\n    /* \"#utility.yul\":73:127   */\n  and\n    /* \"#utility.yul\":62:127   */\n  swap1\n  pop\n    /* \"#utility.yul\":7:133   */\n  swap2\n  swap1\n  pop\n  jump\t// out\n    /* \"#utility.yul\":139:235   */\ntag_14:\n    /* \"#utility.yul\":176:183   */\n  0x00\n    /* \"#utility.yul\":205:229   */\n  tag_19\n    /* \"#utility.yul\":223:228   */\n  dup3\n    /* \"#utility.yul\":205:229   */\n  tag_13\n  jump\t// in\ntag_19:\n    /* \"#utility.yul\":194:229   */\n  swap1\n  pop\n    /* \"#utility.yul\":139:235   */\n  swap2\n  swap1\n  pop\n  jump\t// out\n    /* \"#utility.yul\":241:359   */\ntag_15:\n    /* \"#utility.yul\":328:352   */\n  tag_21\n    /* \"#utility.yul\":346:351   */\n  dup2\n    /* \"#utility.yul\":328:352   */\n  tag_14\n  jump\t// in\ntag_21:\n    /* \"#utility.yul\":323:326   */\n  dup3\n    /* \"#utility.yul\":316:353   */\n  mstore\n    /* \"#utility.yul\":241:359   */\n  pop\n  pop\n  jump\t// out\n    /* \"#utility.yul\":365:587   */\ntag_7:\n    /* \"#utility.yul\":458:462   */\n  0x00\n    /* \"#utility.yul\":496:498   */\n  0x20\n    /* \"#utility.yul\":485:494   */\n  dup3\n    /* \"#utility.yul\":481:499   */\n  add\n    /* \"#utility.yul\":473:499   */\n  swap1\n  pop\n    /* \"#utility.yul\":509:580   */\n  tag_23\n    /* \"#utility.yul\":577:578   */\n  0x00\n    /* \"#utility.yul\":566:575   */\n  dup4\n    /* \"#utility.yul\":562:579   */\n  add\n    /* \"#utility.yul\":553:559   */\n  dup5\n    /* \"#utility.yul\":509:580   */\n  tag_15\n  jump\t// in\ntag_23:\n    /* \"#utility.yul\":365:587   */\n  swap3\n  swap2\n  pop\n  pop\n  jump\t// out\n    /* \"contracts/Twitter.sol\":113:2962  contract Twitter is Ownable {... */\ntag_11:\n  dataSize(sub_0)\n  dup1\n  dataOffset(sub_0)\n  0x00\n  codecopy\n  0x00\n  return\nstop\n\nsub_0: assembly {\n        /* \"contracts/Twitter.sol\":113:2962  contract Twitter is Ownable {... */\n      mstore(0x40, 0x80)\n      callvalue\n      dup1\n      iszero\n      tag_1\n      jumpi\n      0x00\n      dup1\n      revert\n    tag_1:\n      pop\n      jumpi(tag_2, lt(calldatasize, 0x04))\n      shr(0xe0, calldataload(0x00))\n      dup1\n      0x715018a6\n      gt\n      tag_15\n      jumpi\n      dup1\n      0x715018a6\n      eq\n      tag_9\n      jumpi\n      dup1\n      0x7c9cd2bc\n      eq\n      tag_10\n      jumpi\n      dup1\n      0x820785cc\n      eq\n      tag_11\n      jumpi\n      dup1\n      0x8da5cb5b\n      eq\n      tag_12\n      jumpi\n      dup1\n      0xc3ad5ecb\n      eq\n      tag_13\n      jumpi\n      dup1\n      0xf2fde38b\n      eq\n      tag_14\n      jumpi\n      jump(tag_2)\n    tag_15:\n      dup1\n      0x05a1b4a9\n      eq\n      tag_3\n      jumpi\n      dup1\n      0x12e7ee1c\n      eq\n      tag_4\n      jumpi\n      dup1\n      0x3d9b569f\n      eq\n      tag_5\n      jumpi\n      dup1\n      0x58bfa4ab\n      eq\n      tag_6\n      jumpi\n      dup1\n      0x63378216\n      eq\n      tag_7\n      jumpi\n      dup1\n      0x6eb10797\n      eq\n      tag_8\n      jumpi\n    tag_2:\n      0x00\n      dup1\n      revert\n        /* \"contracts/Twitter.sol\":983:1024  mapping(address => Tweet[]) public tweets */\n    tag_3:\n      tag_16\n      0x04\n      dup1\n      calldatasize\n      sub\n      dup2\n      add\n      swap1\n      tag_17\n      swap2\n      swap1\n      tag_18\n      jump\t// in\n    tag_17:\n      tag_19\n      jump\t// in\n    tag_16:\n      mload(0x40)\n      tag_20\n      swap6\n      swap5\n      swap4\n      swap3\n      swap2\n      swap1\n      tag_21\n      jump\t// in\n    tag_20:\n      mload(0x40)\n      dup1\n      swap2\n      sub\n      swap1\n      return\n        /* \"contracts/Twitter.sol\":1782:1895  function getAllTweets(address _owner) public view returns (Tweet[] memory) {... */\n    tag_4:\n      tag_22\n      0x04\n      dup1\n      calldatasize\n      sub\n      dup2\n      add\n      swap1\n      tag_23\n      swap2\n      swap1\n      tag_24\n      jump\t// in\n    tag_23:\n      tag_25\n      jump\t// in\n    tag_22:\n      mload(0x40)\n      tag_26\n      swap2\n      swap1\n      tag_27\n      jump\t// in\n    tag_26:\n      mload(0x40)\n      dup1\n      swap2\n      sub\n      swap1\n      return\n        /* \"contracts/Twitter.sol\":2277:2597  function unlikeTweet(address author, uint256 id) external  {... */\n    tag_5:\n      tag_28\n      0x04\n      dup1\n      calldatasize\n      sub\n      dup2\n      add\n      swap1\n      tag_29\n      swap2\n      swap1\n      tag_18\n      jump\t// in\n    tag_29:\n      tag_30\n      jump\t// in\n    tag_28:\n      stop\n        /* \"contracts/Twitter.sol\":1901:2018  function changeTweetLength(uint16 newTweetLength) public onlyOwner {... */\n    tag_6:\n      tag_31\n      0x04\n      dup1\n      calldatasize\n      sub\n      dup2\n      add\n      swap1\n      tag_32\n      swap2\n      swap1\n      tag_33\n      jump\t// in\n    tag_32:\n      tag_34\n      jump\t// in\n    tag_31:\n      stop\n        /* \"contracts/Twitter.sol\":2024:2271  function likeTweet( address author, uint256 id) external {... */\n    tag_7:\n      tag_35\n      0x04\n      dup1\n      calldatasize\n      sub\n      dup2\n      add\n      swap1\n      tag_36\n      swap2\n      swap1\n      tag_18\n      jump\t// in\n    tag_36:\n      tag_37\n      jump\t// in\n    tag_35:\n      stop\n        /* \"contracts/Twitter.sol\":577:614  uint16 public  MAX_TWEET_LENGTH = 280 */\n    tag_8:\n      tag_38\n      tag_39\n      jump\t// in\n    tag_38:\n      mload(0x40)\n      tag_40\n      swap2\n      swap1\n      tag_41\n      jump\t// in\n    tag_40:\n      mload(0x40)\n      dup1\n      swap2\n      sub\n      swap1\n      return\n        /* \"@openzeppelin/contracts/access/Ownable.sol\":2293:2394  function renounceOwnership() public virtual onlyOwner {... */\n    tag_9:\n      tag_42\n      tag_43\n      jump\t// in\n    tag_42:\n      stop\n        /* \"contracts/Twitter.sol\":1031:1659  function createTweet(string memory _tweet) public {     //_tweet is being stored in temporary memory... */\n    tag_10:\n      tag_44\n      0x04\n      dup1\n      calldatasize\n      sub\n      dup2\n      add\n      swap1\n      tag_45\n      swap2\n      swap1\n      tag_46\n      jump\t// in\n    tag_45:\n      tag_47\n      jump\t// in\n    tag_44:\n      stop\n        /* \"contracts/Twitter.sol\":2603:2959  function getTotalLikes(address _author) external view returns (uint){... */\n    tag_11:\n      tag_48\n      0x04\n      dup1\n      calldatasize\n      sub\n      dup2\n      add\n      swap1\n      tag_49\n      swap2\n      swap1\n      tag_24\n      jump\t// in\n    tag_49:\n      tag_50\n      jump\t// in\n    tag_48:\n      mload(0x40)\n      tag_51\n      swap2\n      swap1\n      tag_52\n      jump\t// in\n    tag_51:\n      mload(0x40)\n      dup1\n      swap2\n      sub\n      swap1\n      return\n        /* \"@openzeppelin/contracts/access/Ownable.sol\":1638:1723  function owner() public view virtual returns (address) {... */\n    tag_12:\n      tag_53\n      tag_54\n      jump\t// in\n    tag_53:\n      mload(0x40)\n      tag_55\n      swap2\n      swap1\n      tag_56\n      jump\t// in\n    tag_55:\n      mload(0x40)\n      dup1\n      swap2\n      sub\n      swap1\n      return\n        /* \"contracts/Twitter.sol\":1665:1776  function getTweet(uint _idx) public view returns (Tweet memory){... */\n    tag_13:\n      tag_57\n      0x04\n      dup1\n      calldatasize\n      sub\n      dup2\n      add\n      swap1\n      tag_58\n      swap2\n      swap1\n      tag_59\n      jump\t// in\n    tag_58:\n      tag_60\n      jump\t// in\n    tag_57:\n      mload(0x40)\n      tag_61\n      swap2\n      swap1\n      tag_62\n      jump\t// in\n    tag_61:\n      mload(0x40)\n      dup1\n      swap2\n      sub\n      swap1\n      return\n        /* \"@openzeppelin/contracts/access/Ownable.sol\":2543:2758  function transferOwnership(address newOwner) public virtual onlyOwner {... */\n    tag_14:\n      tag_63\n      0x04\n      dup1\n      calldatasize\n      sub\n      dup2\n      add\n      swap1\n      tag_64\n      swap2\n      swap1\n      tag_24\n      jump\t// in\n    tag_64:\n      tag_65\n      jump\t// in\n    tag_63:\n      stop\n        /* \"contracts/Twitter.sol\":983:1024  mapping(address => Tweet[]) public tweets */\n    tag_19:\n      mstore(0x20, 0x01)\n      dup2\n      0x00\n      mstore\n      keccak256(0x00, 0x40)\n      dup2\n      dup2\n      sload\n      dup2\n      lt\n      tag_66\n      jumpi\n      0x00\n      dup1\n      revert\n    tag_66:\n      swap1\n      0x00\n      mstore\n      keccak256(0x00, 0x20)\n      swap1\n      0x05\n      mul\n      add\n      0x00\n      swap2\n      pop\n      swap2\n      pop\n      pop\n      dup1\n      0x00\n      add\n      sload\n      swap1\n      dup1\n      0x01\n      add\n      0x00\n      swap1\n      sload\n      swap1\n      0x0100\n      exp\n      swap1\n      div\n      0xffffffffffffffffffffffffffffffffffffffff\n      and\n      swap1\n      dup1\n      0x02\n      add\n      dup1\n      sload\n      tag_68\n      swap1\n      tag_69\n      jump\t// in\n    tag_68:\n      dup1\n      0x1f\n      add\n      0x20\n      dup1\n      swap2\n      div\n      mul\n      0x20\n      add\n      mload(0x40)\n      swap1\n      dup2\n      add\n      0x40\n      mstore\n      dup1\n      swap3\n      swap2\n      swap1\n      dup2\n      dup2\n      mstore\n      0x20\n      add\n      dup3\n      dup1\n      sload\n      tag_70\n      swap1\n      tag_69\n      jump\t// in\n    tag_70:\n      dup1\n      iszero\n      tag_71\n      jumpi\n      dup1\n      0x1f\n      lt\n      tag_72\n      jumpi\n      0x0100\n      dup1\n      dup4\n      sload\n      div\n      mul\n      dup4\n      mstore\n      swap2\n      0x20\n      add\n      swap2\n      jump(tag_71)\n    tag_72:\n      dup3\n      add\n      swap2\n      swap1\n      0x00\n      mstore\n      keccak256(0x00, 0x20)\n      swap1\n    tag_73:\n      dup2\n      sload\n      dup2\n      mstore\n      swap1\n      0x01\n      add\n      swap1\n      0x20\n      add\n      dup1\n      dup4\n      gt\n      tag_73\n      jumpi\n      dup3\n      swap1\n      sub\n      0x1f\n      and\n      dup3\n      add\n      swap2\n    tag_71:\n      pop\n      pop\n      pop\n      pop\n      pop\n      swap1\n      dup1\n      0x03\n      add\n      sload\n      swap1\n      dup1\n      0x04\n      add\n      sload\n      swap1\n      pop\n      dup6\n      jump\t// out\n        /* \"contracts/Twitter.sol\":1782:1895  function getAllTweets(address _owner) public view returns (Tweet[] memory) {... */\n    tag_25:\n        /* \"contracts/Twitter.sol\":1841:1855  Tweet[] memory */\n      0x60\n        /* \"contracts/Twitter.sol\":1874:1880  tweets */\n      0x01\n        /* \"contracts/Twitter.sol\":1874:1888  tweets[_owner] */\n      0x00\n        /* \"contracts/Twitter.sol\":1881:1887  _owner */\n      dup4\n        /* \"contracts/Twitter.sol\":1874:1888  tweets[_owner] */\n      0xffffffffffffffffffffffffffffffffffffffff\n      and\n      0xffffffffffffffffffffffffffffffffffffffff\n      and\n      dup2\n      mstore\n      0x20\n      add\n      swap1\n      dup2\n      mstore\n      0x20\n      add\n      0x00\n      keccak256\n        /* \"contracts/Twitter.sol\":1867:1888  return tweets[_owner] */\n      dup1\n      sload\n      dup1\n      0x20\n      mul\n      0x20\n      add\n      mload(0x40)\n      swap1\n      dup2\n      add\n      0x40\n      mstore\n      dup1\n      swap3\n      swap2\n      swap1\n      dup2\n      dup2\n      mstore\n      0x20\n      add\n      0x00\n      swap1\n    tag_75:\n      dup3\n      dup3\n      lt\n      iszero\n      tag_76\n      jumpi\n      dup4\n      dup3\n      swap1\n      0x00\n      mstore\n      keccak256(0x00, 0x20)\n      swap1\n      0x05\n      mul\n      add\n      mload(0x40)\n      dup1\n      0xa0\n      add\n      0x40\n      mstore\n      swap1\n      dup2\n      0x00\n      dup3\n      add\n      sload\n      dup2\n      mstore\n      0x20\n      add\n      0x01\n      dup3\n      add\n      0x00\n      swap1\n      sload\n      swap1\n      0x0100\n      exp\n      swap1\n      div\n      0xffffffffffffffffffffffffffffffffffffffff\n      and\n      0xffffffffffffffffffffffffffffffffffffffff\n      and\n      0xffffffffffffffffffffffffffffffffffffffff\n      and\n      dup2\n      mstore\n      0x20\n      add\n      0x02\n      dup3\n      add\n      dup1\n      sload\n      tag_78\n      swap1\n      tag_69\n      jump\t// in\n    tag_78:\n      dup1\n      0x1f\n      add\n      0x20\n      dup1\n      swap2\n      div\n      mul\n      0x20\n      add\n      mload(0x40)\n      swap1\n      dup2\n      add\n      0x40\n      mstore\n      dup1\n      swap3\n      swap2\n      swap1\n      dup2\n      dup2\n      mstore\n      0x20\n      add\n      dup3\n      dup1\n      sload\n      tag_79\n      swap1\n      tag_69\n      jump\t// in\n    tag_79:\n      dup1\n      iszero\n      tag_80\n      jumpi\n      dup1\n      0x1f\n      lt\n      tag_81\n      jumpi\n      0x0100\n      dup1\n      dup4\n      sload\n      div\n      mul\n      dup4\n      mstore\n      swap2\n      0x20\n      add\n      swap2\n      jump(tag_80)\n    tag_81:\n      dup3\n      add\n      swap2\n      swap1\n      0x00\n      mstore\n      keccak256(0x00, 0x20)\n      swap1\n    tag_82:\n      dup2\n      sload\n      dup2\n      mstore\n      swap1\n      0x01\n      add\n      swap1\n      0x20\n      add\n      dup1\n      dup4\n      gt\n      tag_82\n      jumpi\n      dup3\n      swap1\n      sub\n      0x1f\n      and\n      dup3\n      add\n      swap2\n    tag_80:\n      pop\n      pop\n      pop\n      pop\n      pop\n      dup2\n      mstore\n      0x20\n      add\n      0x03\n      dup3\n      add\n      sload\n      dup2\n      mstore\n      0x20\n      add\n      0x04\n      dup3\n      add\n      sload\n      dup2\n      mstore\n      pop\n      pop\n      dup2\n      mstore\n      0x20\n      add\n      swap1\n      0x01\n      add\n      swap1\n      jump(tag_75)\n    tag_76:\n      pop\n      pop\n      pop\n      pop\n      swap1\n      pop\n        /* \"contracts/Twitter.sol\":1782:1895  function getAllTweets(address _owner) public view returns (Tweet[] memory) {... */\n      swap2\n      swap1\n      pop\n      jump\t// out\n        /* \"contracts/Twitter.sol\":2277:2597  function unlikeTweet(address author, uint256 id) external  {... */\n    tag_30:\n        /* \"contracts/Twitter.sol\":2379:2381  id */\n      dup1\n        /* \"contracts/Twitter.sol\":2354:2360  tweets */\n      0x01\n        /* \"contracts/Twitter.sol\":2354:2368  tweets[author] */\n      0x00\n        /* \"contracts/Twitter.sol\":2361:2367  author */\n      dup5\n        /* \"contracts/Twitter.sol\":2354:2368  tweets[author] */\n      0xffffffffffffffffffffffffffffffffffffffff\n      and\n      0xffffffffffffffffffffffffffffffffffffffff\n      and\n      dup2\n      mstore\n      0x20\n      add\n      swap1\n      dup2\n      mstore\n      0x20\n      add\n      0x00\n      keccak256\n        /* \"contracts/Twitter.sol\":2369:2371  id */\n      dup3\n        /* \"contracts/Twitter.sol\":2354:2372  tweets[author][id] */\n      dup2\n      sload\n      dup2\n      lt\n      tag_84\n      jumpi\n      tag_85\n      tag_86\n      jump\t// in\n    tag_85:\n    tag_84:\n      swap1\n      0x00\n      mstore\n      keccak256(0x00, 0x20)\n      swap1\n      0x05\n      mul\n      add\n        /* \"contracts/Twitter.sol\":2354:2375  tweets[author][id].id */\n      0x00\n      add\n      sload\n        /* \"contracts/Twitter.sol\":2354:2381  tweets[author][id].id == id */\n      eq\n        /* \"contracts/Twitter.sol\":2346:2407  require(tweets[author][id].id == id, \"Tweet does not exists\") */\n      tag_88\n      jumpi\n      mload(0x40)\n      0x08c379a000000000000000000000000000000000000000000000000000000000\n      dup2\n      mstore\n      0x04\n      add\n      tag_89\n      swap1\n      tag_90\n      jump\t// in\n    tag_89:\n      mload(0x40)\n      dup1\n      swap2\n      sub\n      swap1\n      revert\n    tag_88:\n        /* \"contracts/Twitter.sol\":2452:2453  0 */\n      0x00\n        /* \"contracts/Twitter.sol\":2425:2431  tweets */\n      0x01\n        /* \"contracts/Twitter.sol\":2425:2439  tweets[author] */\n      0x00\n        /* \"contracts/Twitter.sol\":2432:2438  author */\n      dup5\n        /* \"contracts/Twitter.sol\":2425:2439  tweets[author] */\n      0xffffffffffffffffffffffffffffffffffffffff\n      and\n      0xffffffffffffffffffffffffffffffffffffffff\n      and\n      dup2\n      mstore\n      0x20\n      add\n      swap1\n      dup2\n      mstore\n      0x20\n      add\n      0x00\n      keccak256\n        /* \"contracts/Twitter.sol\":2440:2442  id */\n      dup3\n        /* \"contracts/Twitter.sol\":2425:2443  tweets[author][id] */\n      dup2\n      sload\n      dup2\n      lt\n      tag_91\n      jumpi\n      tag_92\n      tag_86\n      jump\t// in\n    tag_92:\n    tag_91:\n      swap1\n      0x00\n      mstore\n      keccak256(0x00, 0x20)\n      swap1\n      0x05\n      mul\n      add\n        /* \"contracts/Twitter.sol\":2425:2449  tweets[author][id].likes */\n      0x04\n      add\n      sload\n        /* \"contracts/Twitter.sol\":2425:2453  tweets[author][id].likes > 0 */\n      gt\n        /* \"contracts/Twitter.sol\":2417:2476  require(tweets[author][id].likes > 0, \"Tweet has no Likes\") */\n      tag_94\n      jumpi\n      mload(0x40)\n      0x08c379a000000000000000000000000000000000000000000000000000000000\n      dup2\n      mstore\n      0x04\n      add\n      tag_95\n      swap1\n      tag_96\n      jump\t// in\n    tag_95:\n      mload(0x40)\n      dup1\n      swap2\n      sub\n      swap1\n      revert\n    tag_94:\n        /* \"contracts/Twitter.sol\":2486:2492  tweets */\n      0x01\n        /* \"contracts/Twitter.sol\":2486:2500  tweets[author] */\n      0x00\n        /* \"contracts/Twitter.sol\":2493:2499  author */\n      dup4\n        /* \"contracts/Twitter.sol\":2486:2500  tweets[author] */\n      0xffffffffffffffffffffffffffffffffffffffff\n      and\n      0xffffffffffffffffffffffffffffffffffffffff\n      and\n      dup2\n      mstore\n      0x20\n      add\n      swap1\n      dup2\n      mstore\n      0x20\n      add\n      0x00\n      keccak256\n        /* \"contracts/Twitter.sol\":2501:2503  id */\n      dup2\n        /* \"contracts/Twitter.sol\":2486:2504  tweets[author][id] */\n      dup2\n      sload\n      dup2\n      lt\n      tag_97\n      jumpi\n      tag_98\n      tag_86\n      jump\t// in\n    tag_98:\n    tag_97:\n      swap1\n      0x00\n      mstore\n      keccak256(0x00, 0x20)\n      swap1\n      0x05\n      mul\n      add\n        /* \"contracts/Twitter.sol\":2486:2510  tweets[author][id].likes */\n      0x04\n      add\n      0x00\n        /* \"contracts/Twitter.sol\":2486:2512  tweets[author][id].likes-- */\n      dup2\n      sload\n      dup1\n      swap3\n      swap2\n      swap1\n      tag_100\n      swap1\n      tag_101\n      jump\t// in\n    tag_100:\n      swap2\n      swap1\n      pop\n      sstore\n      pop\n        /* \"contracts/Twitter.sol\":2528:2590  TweetUnliked(msg.sender, author, id, tweets[author][id].likes) */\n      0x762c2616349603ac16eba0de8e6141b79129a07ab63bd99e0a80b3a471716943\n        /* \"contracts/Twitter.sol\":2541:2551  msg.sender */\n      caller\n        /* \"contracts/Twitter.sol\":2553:2559  author */\n      dup4\n        /* \"contracts/Twitter.sol\":2561:2563  id */\n      dup4\n        /* \"contracts/Twitter.sol\":2565:2571  tweets */\n      0x01\n        /* \"contracts/Twitter.sol\":2565:2579  tweets[author] */\n      0x00\n        /* \"contracts/Twitter.sol\":2572:2578  author */\n      dup8\n        /* \"contracts/Twitter.sol\":2565:2579  tweets[author] */\n      0xffffffffffffffffffffffffffffffffffffffff\n      and\n      0xffffffffffffffffffffffffffffffffffffffff\n      and\n      dup2\n      mstore\n      0x20\n      add\n      swap1\n      dup2\n      mstore\n      0x20\n      add\n      0x00\n      keccak256\n        /* \"contracts/Twitter.sol\":2580:2582  id */\n      dup6\n        /* \"contracts/Twitter.sol\":2565:2583  tweets[author][id] */\n      dup2\n      sload\n      dup2\n      lt\n      tag_102\n      jumpi\n      tag_103\n      tag_86\n      jump\t// in\n    tag_103:\n    tag_102:\n      swap1\n      0x00\n      mstore\n      keccak256(0x00, 0x20)\n      swap1\n      0x05\n      mul\n      add\n        /* \"contracts/Twitter.sol\":2565:2589  tweets[author][id].likes */\n      0x04\n      add\n      sload\n        /* \"contracts/Twitter.sol\":2528:2590  TweetUnliked(msg.sender, author, id, tweets[author][id].likes) */\n      mload(0x40)\n      tag_105\n      swap5\n      swap4\n      swap3\n      swap2\n      swap1\n      tag_106\n      jump\t// in\n    tag_105:\n      mload(0x40)\n      dup1\n      swap2\n      sub\n      swap1\n      log1\n        /* \"contracts/Twitter.sol\":2277:2597  function unlikeTweet(address author, uint256 id) external  {... */\n      pop\n      pop\n      jump\t// out\n        /* \"contracts/Twitter.sol\":1901:2018  function changeTweetLength(uint16 newTweetLength) public onlyOwner {... */\n    tag_34:\n        /* \"@openzeppelin/contracts/access/Ownable.sol\":1531:1544  _checkOwner() */\n      tag_108\n        /* \"@openzeppelin/contracts/access/Ownable.sol\":1531:1542  _checkOwner */\n      tag_109\n        /* \"@openzeppelin/contracts/access/Ownable.sol\":1531:1544  _checkOwner() */\n      jump\t// in\n    tag_108:\n        /* \"contracts/Twitter.sol\":1997:2011  newTweetLength */\n      dup1\n        /* \"contracts/Twitter.sol\":1978:1994  MAX_TWEET_LENGTH */\n      0x00\n      0x14\n        /* \"contracts/Twitter.sol\":1978:2011  MAX_TWEET_LENGTH = newTweetLength */\n      0x0100\n      exp\n      dup2\n      sload\n      dup2\n      0xffff\n      mul\n      not\n      and\n      swap1\n      dup4\n      0xffff\n      and\n      mul\n      or\n      swap1\n      sstore\n      pop\n        /* \"contracts/Twitter.sol\":1901:2018  function changeTweetLength(uint16 newTweetLength) public onlyOwner {... */\n      pop\n      jump\t// out\n        /* \"contracts/Twitter.sol\":2024:2271  function likeTweet( address author, uint256 id) external {... */\n    tag_37:\n        /* \"contracts/Twitter.sol\":2124:2126  id */\n      dup1\n        /* \"contracts/Twitter.sol\":2099:2105  tweets */\n      0x01\n        /* \"contracts/Twitter.sol\":2099:2113  tweets[author] */\n      0x00\n        /* \"contracts/Twitter.sol\":2106:2112  author */\n      dup5\n        /* \"contracts/Twitter.sol\":2099:2113  tweets[author] */\n      0xffffffffffffffffffffffffffffffffffffffff\n      and\n      0xffffffffffffffffffffffffffffffffffffffff\n      and\n      dup2\n      mstore\n      0x20\n      add\n      swap1\n      dup2\n      mstore\n      0x20\n      add\n      0x00\n      keccak256\n        /* \"contracts/Twitter.sol\":2114:2116  id */\n      dup3\n        /* \"contracts/Twitter.sol\":2099:2117  tweets[author][id] */\n      dup2\n      sload\n      dup2\n      lt\n      tag_112\n      jumpi\n      tag_113\n      tag_86\n      jump\t// in\n    tag_113:\n    tag_112:\n      swap1\n      0x00\n      mstore\n      keccak256(0x00, 0x20)\n      swap1\n      0x05\n      mul\n      add\n        /* \"contracts/Twitter.sol\":2099:2120  tweets[author][id].id */\n      0x00\n      add\n      sload\n        /* \"contracts/Twitter.sol\":2099:2126  tweets[author][id].id == id */\n      eq\n        /* \"contracts/Twitter.sol\":2091:2152  require(tweets[author][id].id == id, \"Tweet does not exists\") */\n      tag_115\n      jumpi\n      mload(0x40)\n      0x08c379a000000000000000000000000000000000000000000000000000000000\n      dup2\n      mstore\n      0x04\n      add\n      tag_116\n      swap1\n      tag_90\n      jump\t// in\n    tag_116:\n      mload(0x40)\n      dup1\n      swap2\n      sub\n      swap1\n      revert\n    tag_115:\n        /* \"contracts/Twitter.sol\":2162:2168  tweets */\n      0x01\n        /* \"contracts/Twitter.sol\":2162:2176  tweets[author] */\n      0x00\n        /* \"contracts/Twitter.sol\":2169:2175  author */\n      dup4\n        /* \"contracts/Twitter.sol\":2162:2176  tweets[author] */\n      0xffffffffffffffffffffffffffffffffffffffff\n      and\n      0xffffffffffffffffffffffffffffffffffffffff\n      and\n      dup2\n      mstore\n      0x20\n      add\n      swap1\n      dup2\n      mstore\n      0x20\n      add\n      0x00\n      keccak256\n        /* \"contracts/Twitter.sol\":2177:2179  id */\n      dup2\n        /* \"contracts/Twitter.sol\":2162:2180  tweets[author][id] */\n      dup2\n      sload\n      dup2\n      lt\n      tag_117\n      jumpi\n      tag_118\n      tag_86\n      jump\t// in\n    tag_118:\n    tag_117:\n      swap1\n      0x00\n      mstore\n      keccak256(0x00, 0x20)\n      swap1\n      0x05\n      mul\n      add\n        /* \"contracts/Twitter.sol\":2162:2186  tweets[author][id].likes */\n      0x04\n      add\n      0x00\n        /* \"contracts/Twitter.sol\":2162:2188  tweets[author][id].likes++ */\n      dup2\n      sload\n      dup1\n      swap3\n      swap2\n      swap1\n      tag_120\n      swap1\n      tag_121\n      jump\t// in\n    tag_120:\n      swap2\n      swap1\n      pop\n      sstore\n      pop\n        /* \"contracts/Twitter.sol\":2204:2264  TweetLiked(msg.sender, author, id, tweets[author][id].likes) */\n      0xe8a76fc0f16d11a00d1e93b689b63d76cf60af914dd3d915375dc41d01a0c3c8\n        /* \"contracts/Twitter.sol\":2215:2225  msg.sender */\n      caller\n        /* \"contracts/Twitter.sol\":2227:2233  author */\n      dup4\n        /* \"contracts/Twitter.sol\":2235:2237  id */\n      dup4\n        /* \"contracts/Twitter.sol\":2239:2245  tweets */\n      0x01\n        /* \"contracts/Twitter.sol\":2239:2253  tweets[author] */\n      0x00\n        /* \"contracts/Twitter.sol\":2246:2252  author */\n      dup8\n        /* \"contracts/Twitter.sol\":2239:2253  tweets[author] */\n      0xffffffffffffffffffffffffffffffffffffffff\n      and\n      0xffffffffffffffffffffffffffffffffffffffff\n      and\n      dup2\n      mstore\n      0x20\n      add\n      swap1\n      dup2\n      mstore\n      0x20\n      add\n      0x00\n      keccak256\n        /* \"contracts/Twitter.sol\":2254:2256  id */\n      dup6\n        /* \"contracts/Twitter.sol\":2239:2257  tweets[author][id] */\n      dup2\n      sload\n      dup2\n      lt\n      tag_122\n      jumpi\n      tag_123\n      tag_86\n      jump\t// in\n    tag_123:\n    tag_122:\n      swap1\n      0x00\n      mstore\n      keccak256(0x00, 0x20)\n      swap1\n      0x05\n      mul\n      add\n        /* \"contracts/Twitter.sol\":2239:2263  tweets[author][id].likes */\n      0x04\n      add\n      sload\n        /* \"contracts/Twitter.sol\":2204:2264  TweetLiked(msg.sender, author, id, tweets[author][id].likes) */\n      mload(0x40)\n      tag_125\n      swap5\n      swap4\n      swap3\n      swap2\n      swap1\n      tag_106\n      jump\t// in\n    tag_125:\n      mload(0x40)\n      dup1\n      swap2\n      sub\n      swap1\n      log1\n        /* \"contracts/Twitter.sol\":2024:2271  function likeTweet( address author, uint256 id) external {... */\n      pop\n      pop\n      jump\t// out\n        /* \"contracts/Twitter.sol\":577:614  uint16 public  MAX_TWEET_LENGTH = 280 */\n    tag_39:\n      0x00\n      0x14\n      swap1\n      sload\n      swap1\n      0x0100\n      exp\n      swap1\n      div\n      0xffff\n      and\n      dup2\n      jump\t// out\n        /* \"@openzeppelin/contracts/access/Ownable.sol\":2293:2394  function renounceOwnership() public virtual onlyOwner {... */\n    tag_43:\n        /* \"@openzeppelin/contracts/access/Ownable.sol\":1531:1544  _checkOwner() */\n      tag_127\n        /* \"@openzeppelin/contracts/access/Ownable.sol\":1531:1542  _checkOwner */\n      tag_109\n        /* \"@openzeppelin/contracts/access/Ownable.sol\":1531:1544  _checkOwner() */\n      jump\t// in\n    tag_127:\n        /* \"@openzeppelin/contracts/access/Ownable.sol\":2357:2387  _transferOwnership(address(0)) */\n      tag_129\n        /* \"@openzeppelin/contracts/access/Ownable.sol\":2384:2385  0 */\n      0x00\n        /* \"@openzeppelin/contracts/access/Ownable.sol\":2357:2375  _transferOwnership */\n      tag_130\n        /* \"@openzeppelin/contracts/access/Ownable.sol\":2357:2387  _transferOwnership(address(0)) */\n      jump\t// in\n    tag_129:\n        /* \"@openzeppelin/contracts/access/Ownable.sol\":2293:2394  function renounceOwnership() public virtual onlyOwner {... */\n      jump\t// out\n        /* \"contracts/Twitter.sol\":1031:1659  function createTweet(string memory _tweet) public {     //_tweet is being stored in temporary memory... */\n    tag_47:\n        /* \"contracts/Twitter.sol\":1256:1272  MAX_TWEET_LENGTH */\n      0x00\n      0x14\n      swap1\n      sload\n      swap1\n      0x0100\n      exp\n      swap1\n      div\n      0xffff\n      and\n        /* \"contracts/Twitter.sol\":1232:1272  bytes(_tweet).length <= MAX_TWEET_LENGTH */\n      0xffff\n      and\n        /* \"contracts/Twitter.sol\":1238:1244  _tweet */\n      dup2\n        /* \"contracts/Twitter.sol\":1232:1252  bytes(_tweet).length */\n      mload\n        /* \"contracts/Twitter.sol\":1232:1272  bytes(_tweet).length <= MAX_TWEET_LENGTH */\n      gt\n      iszero\n        /* \"contracts/Twitter.sol\":1224:1295  require(bytes(_tweet).length <= MAX_TWEET_LENGTH, \"Tweet is too long\" ) */\n      tag_132\n      jumpi\n      mload(0x40)\n      0x08c379a000000000000000000000000000000000000000000000000000000000\n      dup2\n      mstore\n      0x04\n      add\n      tag_133\n      swap1\n      tag_134\n      jump\t// in\n    tag_133:\n      mload(0x40)\n      dup1\n      swap2\n      sub\n      swap1\n      revert\n    tag_132:\n        /* \"contracts/Twitter.sol\":1305:1326  Tweet memory newTweet */\n      0x00\n        /* \"contracts/Twitter.sol\":1329:1512  Tweet({... */\n      mload(0x40)\n      dup1\n      0xa0\n      add\n      0x40\n      mstore\n      dup1\n        /* \"contracts/Twitter.sol\":1353:1359  tweets */\n      0x01\n        /* \"contracts/Twitter.sol\":1353:1371  tweets[msg.sender] */\n      0x00\n        /* \"contracts/Twitter.sol\":1360:1370  msg.sender */\n      caller\n        /* \"contracts/Twitter.sol\":1353:1371  tweets[msg.sender] */\n      0xffffffffffffffffffffffffffffffffffffffff\n      and\n      0xffffffffffffffffffffffffffffffffffffffff\n      and\n      dup2\n      mstore\n      0x20\n      add\n      swap1\n      dup2\n      mstore\n      0x20\n      add\n      0x00\n      keccak256\n        /* \"contracts/Twitter.sol\":1353:1378  tweets[msg.sender].length */\n      dup1\n      sload\n      swap1\n      pop\n        /* \"contracts/Twitter.sol\":1329:1512  Tweet({... */\n      dup2\n      mstore\n      0x20\n      add\n        /* \"contracts/Twitter.sol\":1400:1410  msg.sender */\n      caller\n        /* \"contracts/Twitter.sol\":1329:1512  Tweet({... */\n      0xffffffffffffffffffffffffffffffffffffffff\n      and\n      dup2\n      mstore\n      0x20\n      add\n        /* \"contracts/Twitter.sol\":1433:1439  _tweet */\n      dup4\n        /* \"contracts/Twitter.sol\":1329:1512  Tweet({... */\n      dup2\n      mstore\n      0x20\n      add\n        /* \"contracts/Twitter.sol\":1464:1479  block.timestamp */\n      timestamp\n        /* \"contracts/Twitter.sol\":1329:1512  Tweet({... */\n      dup2\n      mstore\n      0x20\n      add\n        /* \"contracts/Twitter.sol\":1500:1501  0 */\n      0x00\n        /* \"contracts/Twitter.sol\":1329:1512  Tweet({... */\n      dup2\n      mstore\n      pop\n        /* \"contracts/Twitter.sol\":1305:1512  Tweet memory newTweet = Tweet({... */\n      swap1\n      pop\n        /* \"contracts/Twitter.sol\":1523:1529  tweets */\n      0x01\n        /* \"contracts/Twitter.sol\":1523:1541  tweets[msg.sender] */\n      0x00\n        /* \"contracts/Twitter.sol\":1530:1540  msg.sender */\n      caller\n        /* \"contracts/Twitter.sol\":1523:1541  tweets[msg.sender] */\n      0xffffffffffffffffffffffffffffffffffffffff\n      and\n      0xffffffffffffffffffffffffffffffffffffffff\n      and\n      dup2\n      mstore\n      0x20\n      add\n      swap1\n      dup2\n      mstore\n      0x20\n      add\n      0x00\n      keccak256\n        /* \"contracts/Twitter.sol\":1547:1555  newTweet */\n      dup2\n        /* \"contracts/Twitter.sol\":1523:1556  tweets[msg.sender].push(newTweet) */\n      swap1\n      dup1\n      0x01\n      dup2\n      sload\n      add\n      dup1\n      dup3\n      sstore\n      dup1\n      swap2\n      pop\n      pop\n      0x01\n      swap1\n      sub\n      swap1\n      0x00\n      mstore\n      keccak256(0x00, 0x20)\n      swap1\n      0x05\n      mul\n      add\n      0x00\n      swap1\n      swap2\n      swap1\n      swap2\n      swap1\n      swap2\n      pop\n      0x00\n      dup3\n      add\n      mload\n      dup2\n      0x00\n      add\n      sstore\n      0x20\n      dup3\n      add\n      mload\n      dup2\n      0x01\n      add\n      exp(0x0100, 0x00)\n      dup2\n      sload\n      dup2\n      0xffffffffffffffffffffffffffffffffffffffff\n      mul\n      not\n      and\n      swap1\n      dup4\n      0xffffffffffffffffffffffffffffffffffffffff\n      and\n      mul\n      or\n      swap1\n      sstore\n      pop\n      0x40\n      dup3\n      add\n      mload\n      dup2\n      0x02\n      add\n      swap1\n      dup2\n      tag_136\n      swap2\n      swap1\n      tag_137\n      jump\t// in\n    tag_136:\n      pop\n      0x60\n      dup3\n      add\n      mload\n      dup2\n      0x03\n      add\n      sstore\n      0x80\n      dup3\n      add\n      mload\n      dup2\n      0x04\n      add\n      sstore\n      pop\n      pop\n        /* \"contracts/Twitter.sol\":1572:1652  TweetCreated(newTweet.id, newTweet.author, newTweet.content, newTweet.timestamp) */\n      0x16fd3c13e9d46923e0a8bce11c7b473ec508a72e6c96cd2404b29ce972afc29e\n        /* \"contracts/Twitter.sol\":1585:1593  newTweet */\n      dup2\n        /* \"contracts/Twitter.sol\":1585:1596  newTweet.id */\n      0x00\n      add\n      mload\n        /* \"contracts/Twitter.sol\":1598:1606  newTweet */\n      dup3\n        /* \"contracts/Twitter.sol\":1598:1613  newTweet.author */\n      0x20\n      add\n      mload\n        /* \"contracts/Twitter.sol\":1615:1623  newTweet */\n      dup4\n        /* \"contracts/Twitter.sol\":1615:1631  newTweet.content */\n      0x40\n      add\n      mload\n        /* \"contracts/Twitter.sol\":1633:1641  newTweet */\n      dup5\n        /* \"contracts/Twitter.sol\":1633:1651  newTweet.timestamp */\n      0x60\n      add\n      mload\n        /* \"contracts/Twitter.sol\":1572:1652  TweetCreated(newTweet.id, newTweet.author, newTweet.content, newTweet.timestamp) */\n      mload(0x40)\n      tag_138\n      swap5\n      swap4\n      swap3\n      swap2\n      swap1\n      tag_139\n      jump\t// in\n    tag_138:\n      mload(0x40)\n      dup1\n      swap2\n      sub\n      swap1\n      log1\n        /* \"contracts/Twitter.sol\":1081:1659  {     //_tweet is being stored in temporary memory... */\n      pop\n        /* \"contracts/Twitter.sol\":1031:1659  function createTweet(string memory _tweet) public {     //_tweet is being stored in temporary memory... */\n      pop\n      jump\t// out\n        /* \"contracts/Twitter.sol\":2603:2959  function getTotalLikes(address _author) external view returns (uint){... */\n    tag_50:\n        /* \"contracts/Twitter.sol\":2666:2670  uint */\n      0x00\n        /* \"contracts/Twitter.sol\":2681:2707  Tweet[] memory totalTweets */\n      dup1\n        /* \"contracts/Twitter.sol\":2710:2716  tweets */\n      0x01\n        /* \"contracts/Twitter.sol\":2710:2725  tweets[_author] */\n      0x00\n        /* \"contracts/Twitter.sol\":2717:2724  _author */\n      dup5\n        /* \"contracts/Twitter.sol\":2710:2725  tweets[_author] */\n      0xffffffffffffffffffffffffffffffffffffffff\n      and\n      0xffffffffffffffffffffffffffffffffffffffff\n      and\n      dup2\n      mstore\n      0x20\n      add\n      swap1\n      dup2\n      mstore\n      0x20\n      add\n      0x00\n      keccak256\n        /* \"contracts/Twitter.sol\":2681:2725  Tweet[] memory totalTweets = tweets[_author] */\n      dup1\n      sload\n      dup1\n      0x20\n      mul\n      0x20\n      add\n      mload(0x40)\n      swap1\n      dup2\n      add\n      0x40\n      mstore\n      dup1\n      swap3\n      swap2\n      swap1\n      dup2\n      dup2\n      mstore\n      0x20\n      add\n      0x00\n      swap1\n    tag_141:\n      dup3\n      dup3\n      lt\n      iszero\n      tag_142\n      jumpi\n      dup4\n      dup3\n      swap1\n      0x00\n      mstore\n      keccak256(0x00, 0x20)\n      swap1\n      0x05\n      mul\n      add\n      mload(0x40)\n      dup1\n      0xa0\n      add\n      0x40\n      mstore\n      swap1\n      dup2\n      0x00\n      dup3\n      add\n      sload\n      dup2\n      mstore\n      0x20\n      add\n      0x01\n      dup3\n      add\n      0x00\n      swap1\n      sload\n      swap1\n      0x0100\n      exp\n      swap1\n      div\n      0xffffffffffffffffffffffffffffffffffffffff\n      and\n      0xffffffffffffffffffffffffffffffffffffffff\n      and\n      0xffffffffffffffffffffffffffffffffffffffff\n      and\n      dup2\n      mstore\n      0x20\n      add\n      0x02\n      dup3\n      add\n      dup1\n      sload\n      tag_144\n      swap1\n      tag_69\n      jump\t// in\n    tag_144:\n      dup1\n      0x1f\n      add\n      0x20\n      dup1\n      swap2\n      div\n      mul\n      0x20\n      add\n      mload(0x40)\n      swap1\n      dup2\n      add\n      0x40\n      mstore\n      dup1\n      swap3\n      swap2\n      swap1\n      dup2\n      dup2\n      mstore\n      0x20\n      add\n      dup3\n      dup1\n      sload\n      tag_145\n      swap1\n      tag_69\n      jump\t// in\n    tag_145:\n      dup1\n      iszero\n      tag_146\n      jumpi\n      dup1\n      0x1f\n      lt\n      tag_147\n      jumpi\n      0x0100\n      dup1\n      dup4\n      sload\n      div\n      mul\n      dup4\n      mstore\n      swap2\n      0x20\n      add\n      swap2\n      jump(tag_146)\n    tag_147:\n      dup3\n      add\n      swap2\n      swap1\n      0x00\n      mstore\n      keccak256(0x00, 0x20)\n      swap1\n    tag_148:\n      dup2\n      sload\n      dup2\n      mstore\n      swap1\n      0x01\n      add\n      swap1\n      0x20\n      add\n      dup1\n      dup4\n      gt\n      tag_148\n      jumpi\n      dup3\n      swap1\n      sub\n      0x1f\n      and\n      dup3\n      add\n      swap2\n    tag_146:\n      pop\n      pop\n      pop\n      pop\n      pop\n      dup2\n      mstore\n      0x20\n      add\n      0x03\n      dup3\n      add\n      sload\n      dup2\n      mstore\n      0x20\n      add\n      0x04\n      dup3\n      add\n      sload\n      dup2\n      mstore\n      pop\n      pop\n      dup2\n      mstore\n      0x20\n      add\n      swap1\n      0x01\n      add\n      swap1\n      jump(tag_141)\n    tag_142:\n      pop\n      pop\n      pop\n      pop\n      swap1\n      pop\n        /* \"contracts/Twitter.sol\":2735:2750  uint totalLikes */\n      0x00\n        /* \"contracts/Twitter.sol\":2768:2774  uint i */\n      dup1\n        /* \"contracts/Twitter.sol\":2764:2925  for(uint i=0; i<totalTweets.length; i++) {... */\n    tag_149:\n        /* \"contracts/Twitter.sol\":2780:2791  totalTweets */\n      dup3\n        /* \"contracts/Twitter.sol\":2780:2798  totalTweets.length */\n      mload\n        /* \"contracts/Twitter.sol\":2778:2779  i */\n      dup2\n        /* \"contracts/Twitter.sol\":2778:2798  i<totalTweets.length */\n      lt\n        /* \"contracts/Twitter.sol\":2764:2925  for(uint i=0; i<totalTweets.length; i++) {... */\n      iszero\n      tag_150\n      jumpi\n        /* \"contracts/Twitter.sol\":2845:2846  0 */\n      0x00\n        /* \"contracts/Twitter.sol\":2822:2833  totalTweets */\n      dup4\n        /* \"contracts/Twitter.sol\":2834:2835  i */\n      dup3\n        /* \"contracts/Twitter.sol\":2822:2836  totalTweets[i] */\n      dup2\n      mload\n      dup2\n      lt\n      tag_152\n      jumpi\n      tag_153\n      tag_86\n      jump\t// in\n    tag_153:\n    tag_152:\n      0x20\n      mul\n      0x20\n      add\n      add\n      mload\n        /* \"contracts/Twitter.sol\":2822:2842  totalTweets[i].likes */\n      0x80\n      add\n      mload\n        /* \"contracts/Twitter.sol\":2822:2846  totalTweets[i].likes > 0 */\n      gt\n        /* \"contracts/Twitter.sol\":2819:2915  if(totalTweets[i].likes > 0) {... */\n      iszero\n      tag_154\n      jumpi\n        /* \"contracts/Twitter.sol\":2880:2891  totalTweets */\n      dup3\n        /* \"contracts/Twitter.sol\":2892:2893  i */\n      dup2\n        /* \"contracts/Twitter.sol\":2880:2894  totalTweets[i] */\n      dup2\n      mload\n      dup2\n      lt\n      tag_155\n      jumpi\n      tag_156\n      tag_86\n      jump\t// in\n    tag_156:\n    tag_155:\n      0x20\n      mul\n      0x20\n      add\n      add\n      mload\n        /* \"contracts/Twitter.sol\":2880:2900  totalTweets[i].likes */\n      0x80\n      add\n      mload\n        /* \"contracts/Twitter.sol\":2866:2900  totalLikes += totalTweets[i].likes */\n      dup3\n      tag_157\n      swap2\n      swap1\n      tag_158\n      jump\t// in\n    tag_157:\n      swap2\n      pop\n        /* \"contracts/Twitter.sol\":2819:2915  if(totalTweets[i].likes > 0) {... */\n    tag_154:\n        /* \"contracts/Twitter.sol\":2800:2803  i++ */\n      dup1\n      dup1\n      0x01\n      add\n      swap2\n      pop\n      pop\n        /* \"contracts/Twitter.sol\":2764:2925  for(uint i=0; i<totalTweets.length; i++) {... */\n      jump(tag_149)\n    tag_150:\n      pop\n        /* \"contracts/Twitter.sol\":2942:2952  totalLikes */\n      dup1\n        /* \"contracts/Twitter.sol\":2935:2952  return totalLikes */\n      swap3\n      pop\n      pop\n      pop\n        /* \"contracts/Twitter.sol\":2603:2959  function getTotalLikes(address _author) external view returns (uint){... */\n      swap2\n      swap1\n      pop\n      jump\t// out\n        /* \"@openzeppelin/contracts/access/Ownable.sol\":1638:1723  function owner() public view virtual returns (address) {... */\n    tag_54:\n        /* \"@openzeppelin/contracts/access/Ownable.sol\":1684:1691  address */\n      0x00\n        /* \"@openzeppelin/contracts/access/Ownable.sol\":1710:1716  _owner */\n      dup1\n      0x00\n      swap1\n      sload\n      swap1\n      0x0100\n      exp\n      swap1\n      div\n      0xffffffffffffffffffffffffffffffffffffffff\n      and\n        /* \"@openzeppelin/contracts/access/Ownable.sol\":1703:1716  return _owner */\n      swap1\n      pop\n        /* \"@openzeppelin/contracts/access/Ownable.sol\":1638:1723  function owner() public view virtual returns (address) {... */\n      swap1\n      jump\t// out\n        /* \"contracts/Twitter.sol\":1665:1776  function getTweet(uint _idx) public view returns (Tweet memory){... */\n    tag_60:\n        /* \"contracts/Twitter.sol\":1715:1727  Tweet memory */\n      tag_160\n      tag_161\n      jump\t// in\n    tag_160:\n        /* \"contracts/Twitter.sol\":1745:1751  tweets */\n      0x01\n        /* \"contracts/Twitter.sol\":1745:1763  tweets[msg.sender] */\n      0x00\n        /* \"contracts/Twitter.sol\":1752:1762  msg.sender */\n      caller\n        /* \"contracts/Twitter.sol\":1745:1763  tweets[msg.sender] */\n      0xffffffffffffffffffffffffffffffffffffffff\n      and\n      0xffffffffffffffffffffffffffffffffffffffff\n      and\n      dup2\n      mstore\n      0x20\n      add\n      swap1\n      dup2\n      mstore\n      0x20\n      add\n      0x00\n      keccak256\n        /* \"contracts/Twitter.sol\":1764:1768  _idx */\n      dup3\n        /* \"contracts/Twitter.sol\":1745:1769  tweets[msg.sender][_idx] */\n      dup2\n      sload\n      dup2\n      lt\n      tag_163\n      jumpi\n      tag_164\n      tag_86\n      jump\t// in\n    tag_164:\n    tag_163:\n      swap1\n      0x00\n      mstore\n      keccak256(0x00, 0x20)\n      swap1\n      0x05\n      mul\n      add\n        /* \"contracts/Twitter.sol\":1738:1769  return tweets[msg.sender][_idx] */\n      mload(0x40)\n      dup1\n      0xa0\n      add\n      0x40\n      mstore\n      swap1\n      dup2\n      0x00\n      dup3\n      add\n      sload\n      dup2\n      mstore\n      0x20\n      add\n      0x01\n      dup3\n      add\n      0x00\n      swap1\n      sload\n      swap1\n      0x0100\n      exp\n      swap1\n      div\n      0xffffffffffffffffffffffffffffffffffffffff\n      and\n      0xffffffffffffffffffffffffffffffffffffffff\n      and\n      0xffffffffffffffffffffffffffffffffffffffff\n      and\n      dup2\n      mstore\n      0x20\n      add\n      0x02\n      dup3\n      add\n      dup1\n      sload\n      tag_166\n      swap1\n      tag_69\n      jump\t// in\n    tag_166:\n      dup1\n      0x1f\n      add\n      0x20\n      dup1\n      swap2\n      div\n      mul\n      0x20\n      add\n      mload(0x40)\n      swap1\n      dup2\n      add\n      0x40\n      mstore\n      dup1\n      swap3\n      swap2\n      swap1\n      dup2\n      dup2\n      mstore\n      0x20\n      add\n      dup3\n      dup1\n      sload\n      tag_167\n      swap1\n      tag_69\n      jump\t// in\n    tag_167:\n      dup1\n      iszero\n      tag_168\n      jumpi\n      dup1\n      0x1f\n      lt\n      tag_169\n      jumpi\n      0x0100\n      dup1\n      dup4\n      sload\n      div\n      mul\n      dup4\n      mstore\n      swap2\n      0x20\n      add\n      swap2\n      jump(tag_168)\n    tag_169:\n      dup3\n      add\n      swap2\n      swap1\n      0x00\n      mstore\n      keccak256(0x00, 0x20)\n      swap1\n    tag_170:\n      dup2\n      sload\n      dup2\n      mstore\n      swap1\n      0x01\n      add\n      swap1\n      0x20\n      add\n      dup1\n      dup4\n      gt\n      tag_170\n      jumpi\n      dup3\n      swap1\n      sub\n      0x1f\n      and\n      dup3\n      add\n      swap2\n    tag_168:\n      pop\n      pop\n      pop\n      pop\n      pop\n      dup2\n      mstore\n      0x20\n      add\n      0x03\n      dup3\n      add\n      sload\n      dup2\n      mstore\n      0x20\n      add\n      0x04\n      dup3\n      add\n      sload\n      dup2\n      mstore\n      pop\n      pop\n      swap1\n      pop\n        /* \"contracts/Twitter.sol\":1665:1776  function getTweet(uint _idx) public view returns (Tweet memory){... */\n      swap2\n      swap1\n      pop\n      jump\t// out\n        /* \"@openzeppelin/contracts/access/Ownable.sol\":2543:2758  function transferOwnership(address newOwner) public virtual onlyOwner {... */\n    tag_65:\n        /* \"@openzeppelin/contracts/access/Ownable.sol\":1531:1544  _checkOwner() */\n      tag_172\n        /* \"@openzeppelin/contracts/access/Ownable.sol\":1531:1542  _checkOwner */\n      tag_109\n        /* \"@openzeppelin/contracts/access/Ownable.sol\":1531:1544  _checkOwner() */\n      jump\t// in\n    tag_172:\n        /* \"@openzeppelin/contracts/access/Ownable.sol\":2647:2648  0 */\n      0x00\n        /* \"@openzeppelin/contracts/access/Ownable.sol\":2627:2649  newOwner == address(0) */\n      0xffffffffffffffffffffffffffffffffffffffff\n      and\n        /* \"@openzeppelin/contracts/access/Ownable.sol\":2627:2635  newOwner */\n      dup2\n        /* \"@openzeppelin/contracts/access/Ownable.sol\":2627:2649  newOwner == address(0) */\n      0xffffffffffffffffffffffffffffffffffffffff\n      and\n      sub\n        /* \"@openzeppelin/contracts/access/Ownable.sol\":2623:2714  if (newOwner == address(0)) {... */\n      tag_174\n      jumpi\n        /* \"@openzeppelin/contracts/access/Ownable.sol\":2700:2701  0 */\n      0x00\n        /* \"@openzeppelin/contracts/access/Ownable.sol\":2672:2703  OwnableInvalidOwner(address(0)) */\n      mload(0x40)\n      0x1e4fbdf700000000000000000000000000000000000000000000000000000000\n      dup2\n      mstore\n      0x04\n      add\n      tag_175\n      swap2\n      swap1\n      tag_56\n      jump\t// in\n    tag_175:\n      mload(0x40)\n      dup1\n      swap2\n      sub\n      swap1\n      revert\n        /* \"@openzeppelin/contracts/access/Ownable.sol\":2623:2714  if (newOwner == address(0)) {... */\n    tag_174:\n        /* \"@openzeppelin/contracts/access/Ownable.sol\":2723:2751  _transferOwnership(newOwner) */\n      tag_176\n        /* \"@openzeppelin/contracts/access/Ownable.sol\":2742:2750  newOwner */\n      dup2\n        /* \"@openzeppelin/contracts/access/Ownable.sol\":2723:2741  _transferOwnership */\n      tag_130\n        /* \"@openzeppelin/contracts/access/Ownable.sol\":2723:2751  _transferOwnership(newOwner) */\n      jump\t// in\n    tag_176:\n        /* \"@openzeppelin/contracts/access/Ownable.sol\":2543:2758  function transferOwnership(address newOwner) public virtual onlyOwner {... */\n      pop\n      jump\t// out\n        /* \"@openzeppelin/contracts/access/Ownable.sol\":1796:1958  function _checkOwner() internal view virtual {... */\n    tag_109:\n        /* \"@openzeppelin/contracts/access/Ownable.sol\":1866:1878  _msgSender() */\n      tag_178\n        /* \"@openzeppelin/contracts/access/Ownable.sol\":1866:1876  _msgSender */\n      tag_179\n        /* \"@openzeppelin/contracts/access/Ownable.sol\":1866:1878  _msgSender() */\n      jump\t// in\n    tag_178:\n        /* \"@openzeppelin/contracts/access/Ownable.sol\":1855:1878  owner() != _msgSender() */\n      0xffffffffffffffffffffffffffffffffffffffff\n      and\n        /* \"@openzeppelin/contracts/access/Ownable.sol\":1855:1862  owner() */\n      tag_180\n        /* \"@openzeppelin/contracts/access/Ownable.sol\":1855:1860  owner */\n      tag_54\n        /* \"@openzeppelin/contracts/access/Ownable.sol\":1855:1862  owner() */\n      jump\t// in\n    tag_180:\n        /* \"@openzeppelin/contracts/access/Ownable.sol\":1855:1878  owner() != _msgSender() */\n      0xffffffffffffffffffffffffffffffffffffffff\n      and\n      eq\n        /* \"@openzeppelin/contracts/access/Ownable.sol\":1851:1952  if (owner() != _msgSender()) {... */\n      tag_181\n      jumpi\n        /* \"@openzeppelin/contracts/access/Ownable.sol\":1928:1940  _msgSender() */\n      tag_182\n        /* \"@openzeppelin/contracts/access/Ownable.sol\":1928:1938  _msgSender */\n      tag_179\n        /* \"@openzeppelin/contracts/access/Ownable.sol\":1928:1940  _msgSender() */\n      jump\t// in\n    tag_182:\n        /* \"@openzeppelin/contracts/access/Ownable.sol\":1901:1941  OwnableUnauthorizedAccount(_msgSender()) */\n      mload(0x40)\n      0x118cdaa700000000000000000000000000000000000000000000000000000000\n      dup2\n      mstore\n      0x04\n      add\n      tag_183\n      swap2\n      swap1\n      tag_56\n      jump\t// in\n    tag_183:\n      mload(0x40)\n      dup1\n      swap2\n      sub\n      swap1\n      revert\n        /* \"@openzeppelin/contracts/access/Ownable.sol\":1851:1952  if (owner() != _msgSender()) {... */\n    tag_181:\n        /* \"@openzeppelin/contracts/access/Ownable.sol\":1796:1958  function _checkOwner() internal view virtual {... */\n      jump\t// out\n        /* \"@openzeppelin/contracts/access/Ownable.sol\":2912:3099  function _transferOwnership(address newOwner) internal virtual {... */\n    tag_130:\n        /* \"@openzeppelin/contracts/access/Ownable.sol\":2985:3001  address oldOwner */\n      0x00\n        /* \"@openzeppelin/contracts/access/Ownable.sol\":3004:3010  _owner */\n      dup1\n      0x00\n      swap1\n      sload\n      swap1\n      0x0100\n      exp\n      swap1\n      div\n      0xffffffffffffffffffffffffffffffffffffffff\n      and\n        /* \"@openzeppelin/contracts/access/Ownable.sol\":2985:3010  address oldOwner = _owner */\n      swap1\n      pop\n        /* \"@openzeppelin/contracts/access/Ownable.sol\":3029:3037  newOwner */\n      dup2\n        /* \"@openzeppelin/contracts/access/Ownable.sol\":3020:3026  _owner */\n      0x00\n      dup1\n        /* \"@openzeppelin/contracts/access/Ownable.sol\":3020:3037  _owner = newOwner */\n      0x0100\n      exp\n      dup2\n      sload\n      dup2\n      0xffffffffffffffffffffffffffffffffffffffff\n      mul\n      not\n      and\n      swap1\n      dup4\n      0xffffffffffffffffffffffffffffffffffffffff\n      and\n      mul\n      or\n      swap1\n      sstore\n      pop\n        /* \"@openzeppelin/contracts/access/Ownable.sol\":3083:3091  newOwner */\n      dup2\n        /* \"@openzeppelin/contracts/access/Ownable.sol\":3052:3092  OwnershipTransferred(oldOwner, newOwner) */\n      0xffffffffffffffffffffffffffffffffffffffff\n      and\n        /* \"@openzeppelin/contracts/access/Ownable.sol\":3073:3081  oldOwner */\n      dup2\n        /* \"@openzeppelin/contracts/access/Ownable.sol\":3052:3092  OwnershipTransferred(oldOwner, newOwner) */\n      0xffffffffffffffffffffffffffffffffffffffff\n      and\n      0x8be0079c531659141344cd1fd0a4f28419497f9722a3daafe3b4186f6b6457e0\n      mload(0x40)\n      mload(0x40)\n      dup1\n      swap2\n      sub\n      swap1\n      log3\n        /* \"@openzeppelin/contracts/access/Ownable.sol\":2975:3099  {... */\n      pop\n        /* \"@openzeppelin/contracts/access/Ownable.sol\":2912:3099  function _transferOwnership(address newOwner) internal virtual {... */\n      pop\n      jump\t// out\n        /* \"@openzeppelin/contracts/utils/Context.sol\":656:752  function _msgSender() internal view virtual returns (address) {... */\n    tag_179:\n        /* \"@openzeppelin/contracts/utils/Context.sol\":709:716  address */\n      0x00\n        /* \"@openzeppelin/contracts/utils/Context.sol\":735:745  msg.sender */\n      caller\n        /* \"@openzeppelin/contracts/utils/Context.sol\":728:745  return msg.sender */\n      swap1\n      pop\n        /* \"@openzeppelin/contracts/utils/Context.sol\":656:752  function _msgSender() internal view virtual returns (address) {... */\n      swap1\n      jump\t// out\n    tag_161:\n      mload(0x40)\n      dup1\n      0xa0\n      add\n      0x40\n      mstore\n      dup1\n      0x00\n      dup2\n      mstore\n      0x20\n      add\n      and(0xffffffffffffffffffffffffffffffffffffffff, 0x00)\n      dup2\n      mstore\n      0x20\n      add\n      0x60\n      dup2\n      mstore\n      0x20\n      add\n      0x00\n      dup2\n      mstore\n      0x20\n      add\n      0x00\n      dup2\n      mstore\n      pop\n      swap1\n      jump\t// out\n        /* \"#utility.yul\":7:82   */\n    tag_186:\n        /* \"#utility.yul\":40:46   */\n      0x00\n        /* \"#utility.yul\":73:75   */\n      0x40\n        /* \"#utility.yul\":67:76   */\n      mload\n        /* \"#utility.yul\":57:76   */\n      swap1\n      pop\n        /* \"#utility.yul\":7:82   */\n      swap1\n      jump\t// out\n        /* \"#utility.yul\":88:205   */\n    tag_187:\n        /* \"#utility.yul\":197:198   */\n      0x00\n        /* \"#utility.yul\":194:195   */\n      dup1\n        /* \"#utility.yul\":187:199   */\n      revert\n        /* \"#utility.yul\":211:328   */\n    tag_188:\n        /* \"#utility.yul\":320:321   */\n      0x00\n        /* \"#utility.yul\":317:318   */\n      dup1\n        /* \"#utility.yul\":310:322   */\n      revert\n        /* \"#utility.yul\":334:460   */\n    tag_189:\n        /* \"#utility.yul\":371:378   */\n      0x00\n        /* \"#utility.yul\":411:453   */\n      0xffffffffffffffffffffffffffffffffffffffff\n        /* \"#utility.yul\":404:409   */\n      dup3\n        /* \"#utility.yul\":400:454   */\n      and\n        /* \"#utility.yul\":389:454   */\n      swap1\n      pop\n        /* \"#utility.yul\":334:460   */\n      swap2\n      swap1\n      pop\n      jump\t// out\n        /* \"#utility.yul\":466:562   */\n    tag_190:\n        /* \"#utility.yul\":503:510   */\n      0x00\n        /* \"#utility.yul\":532:556   */\n      tag_257\n        /* \"#utility.yul\":550:555   */\n      dup3\n        /* \"#utility.yul\":532:556   */\n      tag_189\n      jump\t// in\n    tag_257:\n        /* \"#utility.yul\":521:556   */\n      swap1\n      pop\n        /* \"#utility.yul\":466:562   */\n      swap2\n      swap1\n      pop\n      jump\t// out\n        /* \"#utility.yul\":568:690   */\n    tag_191:\n        /* \"#utility.yul\":641:665   */\n      tag_259\n        /* \"#utility.yul\":659:664   */\n      dup2\n        /* \"#utility.yul\":641:665   */\n      tag_190\n      jump\t// in\n    tag_259:\n        /* \"#utility.yul\":634:639   */\n      dup2\n        /* \"#utility.yul\":631:666   */\n      eq\n        /* \"#utility.yul\":621:684   */\n      tag_260\n      jumpi\n        /* \"#utility.yul\":680:681   */\n      0x00\n        /* \"#utility.yul\":677:678   */\n      dup1\n        /* \"#utility.yul\":670:682   */\n      revert\n        /* \"#utility.yul\":621:684   */\n    tag_260:\n        /* \"#utility.yul\":568:690   */\n      pop\n      jump\t// out\n        /* \"#utility.yul\":696:835   */\n    tag_192:\n        /* \"#utility.yul\":742:747   */\n      0x00\n        /* \"#utility.yul\":780:786   */\n      dup2\n        /* \"#utility.yul\":767:787   */\n      calldataload\n        /* \"#utility.yul\":758:787   */\n      swap1\n      pop\n        /* \"#utility.yul\":796:829   */\n      tag_262\n        /* \"#utility.yul\":823:828   */\n      dup2\n        /* \"#utility.yul\":796:829   */\n      tag_191\n      jump\t// in\n    tag_262:\n        /* \"#utility.yul\":696:835   */\n      swap3\n      swap2\n      pop\n      pop\n      jump\t// out\n        /* \"#utility.yul\":841:918   */\n    tag_193:\n        /* \"#utility.yul\":878:885   */\n      0x00\n        /* \"#utility.yul\":907:912   */\n      dup2\n        /* \"#utility.yul\":896:912   */\n      swap1\n      pop\n        /* \"#utility.yul\":841:918   */\n      swap2\n      swap1\n      pop\n      jump\t// out\n        /* \"#utility.yul\":924:1046   */\n    tag_194:\n        /* \"#utility.yul\":997:1021   */\n      tag_265\n        /* \"#utility.yul\":1015:1020   */\n      dup2\n        /* \"#utility.yul\":997:1021   */\n      tag_193\n      jump\t// in\n    tag_265:\n        /* \"#utility.yul\":990:995   */\n      dup2\n        /* \"#utility.yul\":987:1022   */\n      eq\n        /* \"#utility.yul\":977:1040   */\n      tag_266\n      jumpi\n        /* \"#utility.yul\":1036:1037   */\n      0x00\n        /* \"#utility.yul\":1033:1034   */\n      dup1\n        /* \"#utility.yul\":1026:1038   */\n      revert\n        /* \"#utility.yul\":977:1040   */\n    tag_266:\n        /* \"#utility.yul\":924:1046   */\n      pop\n      jump\t// out\n        /* \"#utility.yul\":1052:1191   */\n    tag_195:\n        /* \"#utility.yul\":1098:1103   */\n      0x00\n        /* \"#utility.yul\":1136:1142   */\n      dup2\n        /* \"#utility.yul\":1123:1143   */\n      calldataload\n        /* \"#utility.yul\":1114:1143   */\n      swap1\n      pop\n        /* \"#utility.yul\":1152:1185   */\n      tag_268\n        /* \"#utility.yul\":1179:1184   */\n      dup2\n        /* \"#utility.yul\":1152:1185   */\n      tag_194\n      jump\t// in\n    tag_268:\n        /* \"#utility.yul\":1052:1191   */\n      swap3\n      swap2\n      pop\n      pop\n      jump\t// out\n        /* \"#utility.yul\":1197:1671   */\n    tag_18:\n        /* \"#utility.yul\":1265:1271   */\n      0x00\n        /* \"#utility.yul\":1273:1279   */\n      dup1\n        /* \"#utility.yul\":1322:1324   */\n      0x40\n        /* \"#utility.yul\":1310:1319   */\n      dup4\n        /* \"#utility.yul\":1301:1308   */\n      dup6\n        /* \"#utility.yul\":1297:1320   */\n      sub\n        /* \"#utility.yul\":1293:1325   */\n      slt\n        /* \"#utility.yul\":1290:1409   */\n      iszero\n      tag_270\n      jumpi\n        /* \"#utility.yul\":1328:1407   */\n      tag_271\n      tag_187\n      jump\t// in\n    tag_271:\n        /* \"#utility.yul\":1290:1409   */\n    tag_270:\n        /* \"#utility.yul\":1448:1449   */\n      0x00\n        /* \"#utility.yul\":1473:1526   */\n      tag_272\n        /* \"#utility.yul\":1518:1525   */\n      dup6\n        /* \"#utility.yul\":1509:1515   */\n      dup3\n        /* \"#utility.yul\":1498:1507   */\n      dup7\n        /* \"#utility.yul\":1494:1516   */\n      add\n        /* \"#utility.yul\":1473:1526   */\n      tag_192\n      jump\t// in\n    tag_272:\n        /* \"#utility.yul\":1463:1526   */\n      swap3\n      pop\n        /* \"#utility.yul\":1419:1536   */\n      pop\n        /* \"#utility.yul\":1575:1577   */\n      0x20\n        /* \"#utility.yul\":1601:1654   */\n      tag_273\n        /* \"#utility.yul\":1646:1653   */\n      dup6\n        /* \"#utility.yul\":1637:1643   */\n      dup3\n        /* \"#utility.yul\":1626:1635   */\n      dup7\n        /* \"#utility.yul\":1622:1644   */\n      add\n        /* \"#utility.yul\":1601:1654   */\n      tag_195\n      jump\t// in\n    tag_273:\n        /* \"#utility.yul\":1591:1654   */\n      swap2\n      pop\n        /* \"#utility.yul\":1546:1664   */\n      pop\n        /* \"#utility.yul\":1197:1671   */\n      swap3\n      pop\n      swap3\n      swap1\n      pop\n      jump\t// out\n        /* \"#utility.yul\":1677:1795   */\n    tag_196:\n        /* \"#utility.yul\":1764:1788   */\n      tag_275\n        /* \"#utility.yul\":1782:1787   */\n      dup2\n        /* \"#utility.yul\":1764:1788   */\n      tag_193\n      jump\t// in\n    tag_275:\n        /* \"#utility.yul\":1759:1762   */\n      dup3\n        /* \"#utility.yul\":1752:1789   */\n      mstore\n        /* \"#utility.yul\":1677:1795   */\n      pop\n      pop\n      jump\t// out\n        /* \"#utility.yul\":1801:1919   */\n    tag_197:\n        /* \"#utility.yul\":1888:1912   */\n      tag_277\n        /* \"#utility.yul\":1906:1911   */\n      dup2\n        /* \"#utility.yul\":1888:1912   */\n      tag_190\n      jump\t// in\n    tag_277:\n        /* \"#utility.yul\":1883:1886   */\n      dup3\n        /* \"#utility.yul\":1876:1913   */\n      mstore\n        /* \"#utility.yul\":1801:1919   */\n      pop\n      pop\n      jump\t// out\n        /* \"#utility.yul\":1925:2024   */\n    tag_198:\n        /* \"#utility.yul\":1977:1983   */\n      0x00\n        /* \"#utility.yul\":2011:2016   */\n      dup2\n        /* \"#utility.yul\":2005:2017   */\n      mload\n        /* \"#utility.yul\":1995:2017   */\n      swap1\n      pop\n        /* \"#utility.yul\":1925:2024   */\n      swap2\n      swap1\n      pop\n      jump\t// out\n        /* \"#utility.yul\":2030:2199   */\n    tag_199:\n        /* \"#utility.yul\":2114:2125   */\n      0x00\n        /* \"#utility.yul\":2148:2154   */\n      dup3\n        /* \"#utility.yul\":2143:2146   */\n      dup3\n        /* \"#utility.yul\":2136:2155   */\n      mstore\n        /* \"#utility.yul\":2188:2192   */\n      0x20\n        /* \"#utility.yul\":2183:2186   */\n      dup3\n        /* \"#utility.yul\":2179:2193   */\n      add\n        /* \"#utility.yul\":2164:2193   */\n      swap1\n      pop\n        /* \"#utility.yul\":2030:2199   */\n      swap3\n      swap2\n      pop\n      pop\n      jump\t// out\n        /* \"#utility.yul\":2205:2451   */\n    tag_200:\n        /* \"#utility.yul\":2286:2287   */\n      0x00\n        /* \"#utility.yul\":2296:2409   */\n    tag_281:\n        /* \"#utility.yul\":2310:2316   */\n      dup4\n        /* \"#utility.yul\":2307:2308   */\n      dup2\n        /* \"#utility.yul\":2304:2317   */\n      lt\n        /* \"#utility.yul\":2296:2409   */\n      iszero\n      tag_283\n      jumpi\n        /* \"#utility.yul\":2395:2396   */\n      dup1\n        /* \"#utility.yul\":2390:2393   */\n      dup3\n        /* \"#utility.yul\":2386:2397   */\n      add\n        /* \"#utility.yul\":2380:2398   */\n      mload\n        /* \"#utility.yul\":2376:2377   */\n      dup2\n        /* \"#utility.yul\":2371:2374   */\n      dup5\n        /* \"#utility.yul\":2367:2378   */\n      add\n        /* \"#utility.yul\":2360:2399   */\n      mstore\n        /* \"#utility.yul\":2332:2334   */\n      0x20\n        /* \"#utility.yul\":2329:2330   */\n      dup2\n        /* \"#utility.yul\":2325:2335   */\n      add\n        /* \"#utility.yul\":2320:2335   */\n      swap1\n      pop\n        /* \"#utility.yul\":2296:2409   */\n      jump(tag_281)\n    tag_283:\n        /* \"#utility.yul\":2443:2444   */\n      0x00\n        /* \"#utility.yul\":2434:2440   */\n      dup5\n        /* \"#utility.yul\":2429:2432   */\n      dup5\n        /* \"#utility.yul\":2425:2441   */\n      add\n        /* \"#utility.yul\":2418:2445   */\n      mstore\n        /* \"#utility.yul\":2267:2451   */\n      pop\n        /* \"#utility.yul\":2205:2451   */\n      pop\n      pop\n      pop\n      jump\t// out\n        /* \"#utility.yul\":2457:2559   */\n    tag_201:\n        /* \"#utility.yul\":2498:2504   */\n      0x00\n        /* \"#utility.yul\":2549:2551   */\n      0x1f\n        /* \"#utility.yul\":2545:2552   */\n      not\n        /* \"#utility.yul\":2540:2542   */\n      0x1f\n        /* \"#utility.yul\":2533:2538   */\n      dup4\n        /* \"#utility.yul\":2529:2543   */\n      add\n        /* \"#utility.yul\":2525:2553   */\n      and\n        /* \"#utility.yul\":2515:2553   */\n      swap1\n      pop\n        /* \"#utility.yul\":2457:2559   */\n      swap2\n      swap1\n      pop\n      jump\t// out\n        /* \"#utility.yul\":2565:2942   */\n    tag_202:\n        /* \"#utility.yul\":2653:2656   */\n      0x00\n        /* \"#utility.yul\":2681:2720   */\n      tag_286\n        /* \"#utility.yul\":2714:2719   */\n      dup3\n        /* \"#utility.yul\":2681:2720   */\n      tag_198\n      jump\t// in\n    tag_286:\n        /* \"#utility.yul\":2736:2807   */\n      tag_287\n        /* \"#utility.yul\":2800:2806   */\n      dup2\n        /* \"#utility.yul\":2795:2798   */\n      dup6\n        /* \"#utility.yul\":2736:2807   */\n      tag_199\n      jump\t// in\n    tag_287:\n        /* \"#utility.yul\":2729:2807   */\n      swap4\n      pop\n        /* \"#utility.yul\":2816:2881   */\n      tag_288\n        /* \"#utility.yul\":2874:2880   */\n      dup2\n        /* \"#utility.yul\":2869:2872   */\n      dup6\n        /* \"#utility.yul\":2862:2866   */\n      0x20\n        /* \"#utility.yul\":2855:2860   */\n      dup7\n        /* \"#utility.yul\":2851:2867   */\n      add\n        /* \"#utility.yul\":2816:2881   */\n      tag_200\n      jump\t// in\n    tag_288:\n        /* \"#utility.yul\":2906:2935   */\n      tag_289\n        /* \"#utility.yul\":2928:2934   */\n      dup2\n        /* \"#utility.yul\":2906:2935   */\n      tag_201\n      jump\t// in\n    tag_289:\n        /* \"#utility.yul\":2901:2904   */\n      dup5\n        /* \"#utility.yul\":2897:2936   */\n      add\n        /* \"#utility.yul\":2890:2936   */\n      swap2\n      pop\n        /* \"#utility.yul\":2657:2942   */\n      pop\n        /* \"#utility.yul\":2565:2942   */\n      swap3\n      swap2\n      pop\n      pop\n      jump\t// out\n        /* \"#utility.yul\":2948:3703   */\n    tag_21:\n        /* \"#utility.yul\":3173:3177   */\n      0x00\n        /* \"#utility.yul\":3211:3214   */\n      0xa0\n        /* \"#utility.yul\":3200:3209   */\n      dup3\n        /* \"#utility.yul\":3196:3215   */\n      add\n        /* \"#utility.yul\":3188:3215   */\n      swap1\n      pop\n        /* \"#utility.yul\":3225:3296   */\n      tag_291\n        /* \"#utility.yul\":3293:3294   */\n      0x00\n        /* \"#utility.yul\":3282:3291   */\n      dup4\n        /* \"#utility.yul\":3278:3295   */\n      add\n        /* \"#utility.yul\":3269:3275   */\n      dup9\n        /* \"#utility.yul\":3225:3296   */\n      tag_196\n      jump\t// in\n    tag_291:\n        /* \"#utility.yul\":3306:3378   */\n      tag_292\n        /* \"#utility.yul\":3374:3376   */\n      0x20\n        /* \"#utility.yul\":3363:3372   */\n      dup4\n        /* \"#utility.yul\":3359:3377   */\n      add\n        /* \"#utility.yul\":3350:3356   */\n      dup8\n        /* \"#utility.yul\":3306:3378   */\n      tag_197\n      jump\t// in\n    tag_292:\n        /* \"#utility.yul\":3425:3434   */\n      dup2\n        /* \"#utility.yul\":3419:3423   */\n      dup2\n        /* \"#utility.yul\":3415:3435   */\n      sub\n        /* \"#utility.yul\":3410:3412   */\n      0x40\n        /* \"#utility.yul\":3399:3408   */\n      dup4\n        /* \"#utility.yul\":3395:3413   */\n      add\n        /* \"#utility.yul\":3388:3436   */\n      mstore\n        /* \"#utility.yul\":3453:3531   */\n      tag_293\n        /* \"#utility.yul\":3526:3530   */\n      dup2\n        /* \"#utility.yul\":3517:3523   */\n      dup7\n        /* \"#utility.yul\":3453:3531   */\n      tag_202\n      jump\t// in\n    tag_293:\n        /* \"#utility.yul\":3445:3531   */\n      swap1\n      pop\n        /* \"#utility.yul\":3541:3613   */\n      tag_294\n        /* \"#utility.yul\":3609:3611   */\n      0x60\n        /* \"#utility.yul\":3598:3607   */\n      dup4\n        /* \"#utility.yul\":3594:3612   */\n      add\n        /* \"#utility.yul\":3585:3591   */\n      dup6\n        /* \"#utility.yul\":3541:3613   */\n      tag_196\n      jump\t// in\n    tag_294:\n        /* \"#utility.yul\":3623:3696   */\n      tag_295\n        /* \"#utility.yul\":3691:3694   */\n      0x80\n        /* \"#utility.yul\":3680:3689   */\n      dup4\n        /* \"#utility.yul\":3676:3695   */\n      add\n        /* \"#utility.yul\":3667:3673   */\n      dup5\n        /* \"#utility.yul\":3623:3696   */\n      tag_196\n      jump\t// in\n    tag_295:\n        /* \"#utility.yul\":2948:3703   */\n      swap7\n      swap6\n      pop\n      pop\n      pop\n      pop\n      pop\n      pop\n      jump\t// out\n        /* \"#utility.yul\":3709:4038   */\n    tag_24:\n        /* \"#utility.yul\":3768:3774   */\n      0x00\n        /* \"#utility.yul\":3817:3819   */\n      0x20\n        /* \"#utility.yul\":3805:3814   */\n      dup3\n        /* \"#utility.yul\":3796:3803   */\n      dup5\n        /* \"#utility.yul\":3792:3815   */\n      sub\n        /* \"#utility.yul\":3788:3820   */\n      slt\n        /* \"#utility.yul\":3785:3904   */\n      iszero\n      tag_297\n      jumpi\n        /* \"#utility.yul\":3823:3902   */\n      tag_298\n      tag_187\n      jump\t// in\n    tag_298:\n        /* \"#utility.yul\":3785:3904   */\n    tag_297:\n        /* \"#utility.yul\":3943:3944   */\n      0x00\n        /* \"#utility.yul\":3968:4021   */\n      tag_299\n        /* \"#utility.yul\":4013:4020   */\n      dup5\n        /* \"#utility.yul\":4004:4010   */\n      dup3\n        /* \"#utility.yul\":3993:4002   */\n      dup6\n        /* \"#utility.yul\":3989:4011   */\n      add\n        /* \"#utility.yul\":3968:4021   */\n      tag_192\n      jump\t// in\n    tag_299:\n        /* \"#utility.yul\":3958:4021   */\n      swap2\n      pop\n        /* \"#utility.yul\":3914:4031   */\n      pop\n        /* \"#utility.yul\":3709:4038   */\n      swap3\n      swap2\n      pop\n      pop\n      jump\t// out\n        /* \"#utility.yul\":4044:4180   */\n    tag_203:\n        /* \"#utility.yul\":4133:4139   */\n      0x00\n        /* \"#utility.yul\":4167:4172   */\n      dup2\n        /* \"#utility.yul\":4161:4173   */\n      mload\n        /* \"#utility.yul\":4151:4173   */\n      swap1\n      pop\n        /* \"#utility.yul\":4044:4180   */\n      swap2\n      swap1\n      pop\n      jump\t// out\n        /* \"#utility.yul\":4186:4392   */\n    tag_204:\n        /* \"#utility.yul\":4307:4318   */\n      0x00\n        /* \"#utility.yul\":4341:4347   */\n      dup3\n        /* \"#utility.yul\":4336:4339   */\n      dup3\n        /* \"#utility.yul\":4329:4348   */\n      mstore\n        /* \"#utility.yul\":4381:4385   */\n      0x20\n        /* \"#utility.yul\":4376:4379   */\n      dup3\n        /* \"#utility.yul\":4372:4386   */\n      add\n        /* \"#utility.yul\":4357:4386   */\n      swap1\n      pop\n        /* \"#utility.yul\":4186:4392   */\n      swap3\n      swap2\n      pop\n      pop\n      jump\t// out\n        /* \"#utility.yul\":4398:4552   */\n    tag_205:\n        /* \"#utility.yul\":4487:4491   */\n      0x00\n        /* \"#utility.yul\":4510:4513   */\n      dup2\n        /* \"#utility.yul\":4502:4513   */\n      swap1\n      pop\n        /* \"#utility.yul\":4540:4544   */\n      0x20\n        /* \"#utility.yul\":4535:4538   */\n      dup3\n        /* \"#utility.yul\":4531:4545   */\n      add\n        /* \"#utility.yul\":4523:4545   */\n      swap1\n      pop\n        /* \"#utility.yul\":4398:4552   */\n      swap2\n      swap1\n      pop\n      jump\t// out\n        /* \"#utility.yul\":4558:4666   */\n    tag_206:\n        /* \"#utility.yul\":4635:4659   */\n      tag_304\n        /* \"#utility.yul\":4653:4658   */\n      dup2\n        /* \"#utility.yul\":4635:4659   */\n      tag_193\n      jump\t// in\n    tag_304:\n        /* \"#utility.yul\":4630:4633   */\n      dup3\n        /* \"#utility.yul\":4623:4660   */\n      mstore\n        /* \"#utility.yul\":4558:4666   */\n      pop\n      pop\n      jump\t// out\n        /* \"#utility.yul\":4672:4780   */\n    tag_207:\n        /* \"#utility.yul\":4749:4773   */\n      tag_306\n        /* \"#utility.yul\":4767:4772   */\n      dup2\n        /* \"#utility.yul\":4749:4773   */\n      tag_190\n      jump\t// in\n    tag_306:\n        /* \"#utility.yul\":4744:4747   */\n      dup3\n        /* \"#utility.yul\":4737:4774   */\n      mstore\n        /* \"#utility.yul\":4672:4780   */\n      pop\n      pop\n      jump\t// out\n        /* \"#utility.yul\":4786:4945   */\n    tag_208:\n        /* \"#utility.yul\":4860:4871   */\n      0x00\n        /* \"#utility.yul\":4894:4900   */\n      dup3\n        /* \"#utility.yul\":4889:4892   */\n      dup3\n        /* \"#utility.yul\":4882:4901   */\n      mstore\n        /* \"#utility.yul\":4934:4938   */\n      0x20\n        /* \"#utility.yul\":4929:4932   */\n      dup3\n        /* \"#utility.yul\":4925:4939   */\n      add\n        /* \"#utility.yul\":4910:4939   */\n      swap1\n      pop\n        /* \"#utility.yul\":4786:4945   */\n      swap3\n      swap2\n      pop\n      pop\n      jump\t// out\n        /* \"#utility.yul\":4951:5308   */\n    tag_209:\n        /* \"#utility.yul\":5029:5032   */\n      0x00\n        /* \"#utility.yul\":5057:5096   */\n      tag_309\n        /* \"#utility.yul\":5090:5095   */\n      dup3\n        /* \"#utility.yul\":5057:5096   */\n      tag_198\n      jump\t// in\n    tag_309:\n        /* \"#utility.yul\":5112:5173   */\n      tag_310\n        /* \"#utility.yul\":5166:5172   */\n      dup2\n        /* \"#utility.yul\":5161:5164   */\n      dup6\n        /* \"#utility.yul\":5112:5173   */\n      tag_208\n      jump\t// in\n    tag_310:\n        /* \"#utility.yul\":5105:5173   */\n      swap4\n      pop\n        /* \"#utility.yul\":5182:5247   */\n      tag_311\n        /* \"#utility.yul\":5240:5246   */\n      dup2\n        /* \"#utility.yul\":5235:5238   */\n      dup6\n        /* \"#utility.yul\":5228:5232   */\n      0x20\n        /* \"#utility.yul\":5221:5226   */\n      dup7\n        /* \"#utility.yul\":5217:5233   */\n      add\n        /* \"#utility.yul\":5182:5247   */\n      tag_200\n      jump\t// in\n    tag_311:\n        /* \"#utility.yul\":5272:5301   */\n      tag_312\n        /* \"#utility.yul\":5294:5300   */\n      dup2\n        /* \"#utility.yul\":5272:5301   */\n      tag_201\n      jump\t// in\n    tag_312:\n        /* \"#utility.yul\":5267:5270   */\n      dup5\n        /* \"#utility.yul\":5263:5302   */\n      add\n        /* \"#utility.yul\":5256:5302   */\n      swap2\n      pop\n        /* \"#utility.yul\":5033:5308   */\n      pop\n        /* \"#utility.yul\":4951:5308   */\n      swap3\n      swap2\n      pop\n      pop\n      jump\t// out\n        /* \"#utility.yul\":5366:6487   */\n    tag_210:\n        /* \"#utility.yul\":5469:5472   */\n      0x00\n        /* \"#utility.yul\":5505:5509   */\n      0xa0\n        /* \"#utility.yul\":5500:5503   */\n      dup4\n        /* \"#utility.yul\":5496:5510   */\n      add\n        /* \"#utility.yul\":5590:5594   */\n      0x00\n        /* \"#utility.yul\":5583:5588   */\n      dup4\n        /* \"#utility.yul\":5579:5595   */\n      add\n        /* \"#utility.yul\":5573:5596   */\n      mload\n        /* \"#utility.yul\":5609:5672   */\n      tag_314\n        /* \"#utility.yul\":5666:5670   */\n      0x00\n        /* \"#utility.yul\":5661:5664   */\n      dup7\n        /* \"#utility.yul\":5657:5671   */\n      add\n        /* \"#utility.yul\":5643:5655   */\n      dup3\n        /* \"#utility.yul\":5609:5672   */\n      tag_206\n      jump\t// in\n    tag_314:\n        /* \"#utility.yul\":5520:5682   */\n      pop\n        /* \"#utility.yul\":5766:5770   */\n      0x20\n        /* \"#utility.yul\":5759:5764   */\n      dup4\n        /* \"#utility.yul\":5755:5771   */\n      add\n        /* \"#utility.yul\":5749:5772   */\n      mload\n        /* \"#utility.yul\":5785:5848   */\n      tag_315\n        /* \"#utility.yul\":5842:5846   */\n      0x20\n        /* \"#utility.yul\":5837:5840   */\n      dup7\n        /* \"#utility.yul\":5833:5847   */\n      add\n        /* \"#utility.yul\":5819:5831   */\n      dup3\n        /* \"#utility.yul\":5785:5848   */\n      tag_207\n      jump\t// in\n    tag_315:\n        /* \"#utility.yul\":5692:5858   */\n      pop\n        /* \"#utility.yul\":5943:5947   */\n      0x40\n        /* \"#utility.yul\":5936:5941   */\n      dup4\n        /* \"#utility.yul\":5932:5948   */\n      add\n        /* \"#utility.yul\":5926:5949   */\n      mload\n        /* \"#utility.yul\":5996:5999   */\n      dup5\n        /* \"#utility.yul\":5990:5994   */\n      dup3\n        /* \"#utility.yul\":5986:6000   */\n      sub\n        /* \"#utility.yul\":5979:5983   */\n      0x40\n        /* \"#utility.yul\":5974:5977   */\n      dup7\n        /* \"#utility.yul\":5970:5984   */\n      add\n        /* \"#utility.yul\":5963:6001   */\n      mstore\n        /* \"#utility.yul\":6022:6095   */\n      tag_316\n        /* \"#utility.yul\":6090:6094   */\n      dup3\n        /* \"#utility.yul\":6076:6088   */\n      dup3\n        /* \"#utility.yul\":6022:6095   */\n      tag_209\n      jump\t// in\n    tag_316:\n        /* \"#utility.yul\":6014:6095   */\n      swap2\n      pop\n        /* \"#utility.yul\":5868:6106   */\n      pop\n        /* \"#utility.yul\":6193:6197   */\n      0x60\n        /* \"#utility.yul\":6186:6191   */\n      dup4\n        /* \"#utility.yul\":6182:6198   */\n      add\n        /* \"#utility.yul\":6176:6199   */\n      mload\n        /* \"#utility.yul\":6212:6275   */\n      tag_317\n        /* \"#utility.yul\":6269:6273   */\n      0x60\n        /* \"#utility.yul\":6264:6267   */\n      dup7\n        /* \"#utility.yul\":6260:6274   */\n      add\n        /* \"#utility.yul\":6246:6258   */\n      dup3\n        /* \"#utility.yul\":6212:6275   */\n      tag_206\n      jump\t// in\n    tag_317:\n        /* \"#utility.yul\":6116:6285   */\n      pop\n        /* \"#utility.yul\":6368:6372   */\n      0x80\n        /* \"#utility.yul\":6361:6366   */\n      dup4\n        /* \"#utility.yul\":6357:6373   */\n      add\n        /* \"#utility.yul\":6351:6374   */\n      mload\n        /* \"#utility.yul\":6387:6450   */\n      tag_318\n        /* \"#utility.yul\":6444:6448   */\n      0x80\n        /* \"#utility.yul\":6439:6442   */\n      dup7\n        /* \"#utility.yul\":6435:6449   */\n      add\n        /* \"#utility.yul\":6421:6433   */\n      dup3\n        /* \"#utility.yul\":6387:6450   */\n      tag_206\n      jump\t// in\n    tag_318:\n        /* \"#utility.yul\":6295:6460   */\n      pop\n        /* \"#utility.yul\":6477:6481   */\n      dup1\n        /* \"#utility.yul\":6470:6481   */\n      swap2\n      pop\n        /* \"#utility.yul\":5474:6487   */\n      pop\n        /* \"#utility.yul\":5366:6487   */\n      swap3\n      swap2\n      pop\n      pop\n      jump\t// out\n        /* \"#utility.yul\":6493:6737   */\n    tag_211:\n        /* \"#utility.yul\":6606:6616   */\n      0x00\n        /* \"#utility.yul\":6641:6731   */\n      tag_320\n        /* \"#utility.yul\":6727:6730   */\n      dup4\n        /* \"#utility.yul\":6719:6725   */\n      dup4\n        /* \"#utility.yul\":6641:6731   */\n      tag_210\n      jump\t// in\n    tag_320:\n        /* \"#utility.yul\":6627:6731   */\n      swap1\n      pop\n        /* \"#utility.yul\":6493:6737   */\n      swap3\n      swap2\n      pop\n      pop\n      jump\t// out\n        /* \"#utility.yul\":6743:6878   */\n    tag_212:\n        /* \"#utility.yul\":6835:6839   */\n      0x00\n        /* \"#utility.yul\":6867:6871   */\n      0x20\n        /* \"#utility.yul\":6862:6865   */\n      dup3\n        /* \"#utility.yul\":6858:6872   */\n      add\n        /* \"#utility.yul\":6850:6872   */\n      swap1\n      pop\n        /* \"#utility.yul\":6743:6878   */\n      swap2\n      swap1\n      pop\n      jump\t// out\n        /* \"#utility.yul\":6940:8027   */\n    tag_213:\n        /* \"#utility.yul\":7103:7106   */\n      0x00\n        /* \"#utility.yul\":7132:7208   */\n      tag_323\n        /* \"#utility.yul\":7202:7207   */\n      dup3\n        /* \"#utility.yul\":7132:7208   */\n      tag_203\n      jump\t// in\n    tag_323:\n        /* \"#utility.yul\":7224:7332   */\n      tag_324\n        /* \"#utility.yul\":7325:7331   */\n      dup2\n        /* \"#utility.yul\":7320:7323   */\n      dup6\n        /* \"#utility.yul\":7224:7332   */\n      tag_204\n      jump\t// in\n    tag_324:\n        /* \"#utility.yul\":7217:7332   */\n      swap4\n      pop\n        /* \"#utility.yul\":7358:7361   */\n      dup4\n        /* \"#utility.yul\":7403:7407   */\n      0x20\n        /* \"#utility.yul\":7395:7401   */\n      dup3\n        /* \"#utility.yul\":7391:7408   */\n      mul\n        /* \"#utility.yul\":7386:7389   */\n      dup6\n        /* \"#utility.yul\":7382:7409   */\n      add\n        /* \"#utility.yul\":7433:7511   */\n      tag_325\n        /* \"#utility.yul\":7505:7510   */\n      dup6\n        /* \"#utility.yul\":7433:7511   */\n      tag_205\n      jump\t// in\n    tag_325:\n        /* \"#utility.yul\":7534:7541   */\n      dup1\n        /* \"#utility.yul\":7565:7566   */\n      0x00\n        /* \"#utility.yul\":7550:7982   */\n    tag_326:\n        /* \"#utility.yul\":7575:7581   */\n      dup6\n        /* \"#utility.yul\":7572:7573   */\n      dup2\n        /* \"#utility.yul\":7569:7582   */\n      lt\n        /* \"#utility.yul\":7550:7982   */\n      iszero\n      tag_328\n      jumpi\n        /* \"#utility.yul\":7646:7655   */\n      dup5\n        /* \"#utility.yul\":7640:7644   */\n      dup5\n        /* \"#utility.yul\":7636:7656   */\n      sub\n        /* \"#utility.yul\":7631:7634   */\n      dup10\n        /* \"#utility.yul\":7624:7657   */\n      mstore\n        /* \"#utility.yul\":7697:7703   */\n      dup2\n        /* \"#utility.yul\":7691:7704   */\n      mload\n        /* \"#utility.yul\":7725:7833   */\n      tag_329\n        /* \"#utility.yul\":7828:7832   */\n      dup6\n        /* \"#utility.yul\":7813:7826   */\n      dup3\n        /* \"#utility.yul\":7725:7833   */\n      tag_211\n      jump\t// in\n    tag_329:\n        /* \"#utility.yul\":7717:7833   */\n      swap5\n      pop\n        /* \"#utility.yul\":7856:7938   */\n      tag_330\n        /* \"#utility.yul\":7931:7937   */\n      dup4\n        /* \"#utility.yul\":7856:7938   */\n      tag_212\n      jump\t// in\n    tag_330:\n        /* \"#utility.yul\":7846:7938   */\n      swap3\n      pop\n        /* \"#utility.yul\":7967:7971   */\n      0x20\n        /* \"#utility.yul\":7962:7965   */\n      dup11\n        /* \"#utility.yul\":7958:7972   */\n      add\n        /* \"#utility.yul\":7951:7972   */\n      swap10\n      pop\n        /* \"#utility.yul\":7610:7982   */\n      pop\n        /* \"#utility.yul\":7597:7598   */\n      0x01\n        /* \"#utility.yul\":7594:7595   */\n      dup2\n        /* \"#utility.yul\":7590:7599   */\n      add\n        /* \"#utility.yul\":7585:7599   */\n      swap1\n      pop\n        /* \"#utility.yul\":7550:7982   */\n      jump(tag_326)\n    tag_328:\n        /* \"#utility.yul\":7554:7568   */\n      pop\n        /* \"#utility.yul\":7998:8002   */\n      dup3\n        /* \"#utility.yul\":7991:8002   */\n      swap8\n      pop\n        /* \"#utility.yul\":8018:8021   */\n      dup8\n        /* \"#utility.yul\":8011:8021   */\n      swap6\n      pop\n        /* \"#utility.yul\":7108:8027   */\n      pop\n      pop\n      pop\n      pop\n      pop\n        /* \"#utility.yul\":6940:8027   */\n      swap3\n      swap2\n      pop\n      pop\n      jump\t// out\n        /* \"#utility.yul\":8033:8494   */\n    tag_27:\n        /* \"#utility.yul\":8220:8224   */\n      0x00\n        /* \"#utility.yul\":8258:8260   */\n      0x20\n        /* \"#utility.yul\":8247:8256   */\n      dup3\n        /* \"#utility.yul\":8243:8261   */\n      add\n        /* \"#utility.yul\":8235:8261   */\n      swap1\n      pop\n        /* \"#utility.yul\":8307:8316   */\n      dup2\n        /* \"#utility.yul\":8301:8305   */\n      dup2\n        /* \"#utility.yul\":8297:8317   */\n      sub\n        /* \"#utility.yul\":8293:8294   */\n      0x00\n        /* \"#utility.yul\":8282:8291   */\n      dup4\n        /* \"#utility.yul\":8278:8295   */\n      add\n        /* \"#utility.yul\":8271:8318   */\n      mstore\n        /* \"#utility.yul\":8335:8487   */\n      tag_332\n        /* \"#utility.yul\":8482:8486   */\n      dup2\n        /* \"#utility.yul\":8473:8479   */\n      dup5\n        /* \"#utility.yul\":8335:8487   */\n      tag_213\n      jump\t// in\n    tag_332:\n        /* \"#utility.yul\":8327:8487   */\n      swap1\n      pop\n        /* \"#utility.yul\":8033:8494   */\n      swap3\n      swap2\n      pop\n      pop\n      jump\t// out\n        /* \"#utility.yul\":8500:8589   */\n    tag_214:\n        /* \"#utility.yul\":8536:8543   */\n      0x00\n        /* \"#utility.yul\":8576:8582   */\n      0xffff\n        /* \"#utility.yul\":8569:8574   */\n      dup3\n        /* \"#utility.yul\":8565:8583   */\n      and\n        /* \"#utility.yul\":8554:8583   */\n      swap1\n      pop\n        /* \"#utility.yul\":8500:8589   */\n      swap2\n      swap1\n      pop\n      jump\t// out\n        /* \"#utility.yul\":8595:8715   */\n    tag_215:\n        /* \"#utility.yul\":8667:8690   */\n      tag_335\n        /* \"#utility.yul\":8684:8689   */\n      dup2\n        /* \"#utility.yul\":8667:8690   */\n      tag_214\n      jump\t// in\n    tag_335:\n        /* \"#utility.yul\":8660:8665   */\n      dup2\n        /* \"#utility.yul\":8657:8691   */\n      eq\n        /* \"#utility.yul\":8647:8709   */\n      tag_336\n      jumpi\n        /* \"#utility.yul\":8705:8706   */\n      0x00\n        /* \"#utility.yul\":8702:8703   */\n      dup1\n        /* \"#utility.yul\":8695:8707   */\n      revert\n        /* \"#utility.yul\":8647:8709   */\n    tag_336:\n        /* \"#utility.yul\":8595:8715   */\n      pop\n      jump\t// out\n        /* \"#utility.yul\":8721:8858   */\n    tag_216:\n        /* \"#utility.yul\":8766:8771   */\n      0x00\n        /* \"#utility.yul\":8804:8810   */\n      dup2\n        /* \"#utility.yul\":8791:8811   */\n      calldataload\n        /* \"#utility.yul\":8782:8811   */\n      swap1\n      pop\n        /* \"#utility.yul\":8820:8852   */\n      tag_338\n        /* \"#utility.yul\":8846:8851   */\n      dup2\n        /* \"#utility.yul\":8820:8852   */\n      tag_215\n      jump\t// in\n    tag_338:\n        /* \"#utility.yul\":8721:8858   */\n      swap3\n      swap2\n      pop\n      pop\n      jump\t// out\n        /* \"#utility.yul\":8864:9191   */\n    tag_33:\n        /* \"#utility.yul\":8922:8928   */\n      0x00\n        /* \"#utility.yul\":8971:8973   */\n      0x20\n        /* \"#utility.yul\":8959:8968   */\n      dup3\n        /* \"#utility.yul\":8950:8957   */\n      dup5\n        /* \"#utility.yul\":8946:8969   */\n      sub\n        /* \"#utility.yul\":8942:8974   */\n      slt\n        /* \"#utility.yul\":8939:9058   */\n      iszero\n      tag_340\n      jumpi\n        /* \"#utility.yul\":8977:9056   */\n      tag_341\n      tag_187\n      jump\t// in\n    tag_341:\n        /* \"#utility.yul\":8939:9058   */\n    tag_340:\n        /* \"#utility.yul\":9097:9098   */\n      0x00\n        /* \"#utility.yul\":9122:9174   */\n      tag_342\n        /* \"#utility.yul\":9166:9173   */\n      dup5\n        /* \"#utility.yul\":9157:9163   */\n      dup3\n        /* \"#utility.yul\":9146:9155   */\n      dup6\n        /* \"#utility.yul\":9142:9164   */\n      add\n        /* \"#utility.yul\":9122:9174   */\n      tag_216\n      jump\t// in\n    tag_342:\n        /* \"#utility.yul\":9112:9174   */\n      swap2\n      pop\n        /* \"#utility.yul\":9068:9184   */\n      pop\n        /* \"#utility.yul\":8864:9191   */\n      swap3\n      swap2\n      pop\n      pop\n      jump\t// out\n        /* \"#utility.yul\":9197:9312   */\n    tag_217:\n        /* \"#utility.yul\":9282:9305   */\n      tag_344\n        /* \"#utility.yul\":9299:9304   */\n      dup2\n        /* \"#utility.yul\":9282:9305   */\n      tag_214\n      jump\t// in\n    tag_344:\n        /* \"#utility.yul\":9277:9280   */\n      dup3\n        /* \"#utility.yul\":9270:9306   */\n      mstore\n        /* \"#utility.yul\":9197:9312   */\n      pop\n      pop\n      jump\t// out\n        /* \"#utility.yul\":9318:9536   */\n    tag_41:\n        /* \"#utility.yul\":9409:9413   */\n      0x00\n        /* \"#utility.yul\":9447:9449   */\n      0x20\n        /* \"#utility.yul\":9436:9445   */\n      dup3\n        /* \"#utility.yul\":9432:9450   */\n      add\n        /* \"#utility.yul\":9424:9450   */\n      swap1\n      pop\n        /* \"#utility.yul\":9460:9529   */\n      tag_346\n        /* \"#utility.yul\":9526:9527   */\n      0x00\n        /* \"#utility.yul\":9515:9524   */\n      dup4\n        /* \"#utility.yul\":9511:9528   */\n      add\n        /* \"#utility.yul\":9502:9508   */\n      dup5\n        /* \"#utility.yul\":9460:9529   */\n      tag_217\n      jump\t// in\n    tag_346:\n        /* \"#utility.yul\":9318:9536   */\n      swap3\n      swap2\n      pop\n      pop\n      jump\t// out\n        /* \"#utility.yul\":9542:9659   */\n    tag_218:\n        /* \"#utility.yul\":9651:9652   */\n      0x00\n        /* \"#utility.yul\":9648:9649   */\n      dup1\n        /* \"#utility.yul\":9641:9653   */\n      revert\n        /* \"#utility.yul\":9665:9782   */\n    tag_219:\n        /* \"#utility.yul\":9774:9775   */\n      0x00\n        /* \"#utility.yul\":9771:9772   */\n      dup1\n        /* \"#utility.yul\":9764:9776   */\n      revert\n        /* \"#utility.yul\":9788:9968   */\n    tag_220:\n        /* \"#utility.yul\":9836:9913   */\n      0x4e487b7100000000000000000000000000000000000000000000000000000000\n        /* \"#utility.yul\":9833:9834   */\n      0x00\n        /* \"#utility.yul\":9826:9914   */\n      mstore\n        /* \"#utility.yul\":9933:9937   */\n      0x41\n        /* \"#utility.yul\":9930:9931   */\n      0x04\n        /* \"#utility.yul\":9923:9938   */\n      mstore\n        /* \"#utility.yul\":9957:9961   */\n      0x24\n        /* \"#utility.yul\":9954:9955   */\n      0x00\n        /* \"#utility.yul\":9947:9962   */\n      revert\n        /* \"#utility.yul\":9974:10255   */\n    tag_221:\n        /* \"#utility.yul\":10057:10084   */\n      tag_351\n        /* \"#utility.yul\":10079:10083   */\n      dup3\n        /* \"#utility.yul\":10057:10084   */\n      tag_201\n      jump\t// in\n    tag_351:\n        /* \"#utility.yul\":10049:10055   */\n      dup2\n        /* \"#utility.yul\":10045:10085   */\n      add\n        /* \"#utility.yul\":10187:10193   */\n      dup2\n        /* \"#utility.yul\":10175:10185   */\n      dup2\n        /* \"#utility.yul\":10172:10194   */\n      lt\n        /* \"#utility.yul\":10151:10169   */\n      0xffffffffffffffff\n        /* \"#utility.yul\":10139:10149   */\n      dup3\n        /* \"#utility.yul\":10136:10170   */\n      gt\n        /* \"#utility.yul\":10133:10195   */\n      or\n        /* \"#utility.yul\":10130:10218   */\n      iszero\n      tag_352\n      jumpi\n        /* \"#utility.yul\":10198:10216   */\n      tag_353\n      tag_220\n      jump\t// in\n    tag_353:\n        /* \"#utility.yul\":10130:10218   */\n    tag_352:\n        /* \"#utility.yul\":10238:10248   */\n      dup1\n        /* \"#utility.yul\":10234:10236   */\n      0x40\n        /* \"#utility.yul\":10227:10249   */\n      mstore\n        /* \"#utility.yul\":10017:10255   */\n      pop\n        /* \"#utility.yul\":9974:10255   */\n      pop\n      pop\n      jump\t// out\n        /* \"#utility.yul\":10261:10390   */\n    tag_222:\n        /* \"#utility.yul\":10295:10301   */\n      0x00\n        /* \"#utility.yul\":10322:10342   */\n      tag_355\n      tag_186\n      jump\t// in\n    tag_355:\n        /* \"#utility.yul\":10312:10342   */\n      swap1\n      pop\n        /* \"#utility.yul\":10351:10384   */\n      tag_356\n        /* \"#utility.yul\":10379:10383   */\n      dup3\n        /* \"#utility.yul\":10371:10377   */\n      dup3\n        /* \"#utility.yul\":10351:10384   */\n      tag_221\n      jump\t// in\n    tag_356:\n        /* \"#utility.yul\":10261:10390   */\n      swap2\n      swap1\n      pop\n      jump\t// out\n        /* \"#utility.yul\":10396:10704   */\n    tag_223:\n        /* \"#utility.yul\":10458:10462   */\n      0x00\n        /* \"#utility.yul\":10548:10566   */\n      0xffffffffffffffff\n        /* \"#utility.yul\":10540:10546   */\n      dup3\n        /* \"#utility.yul\":10537:10567   */\n      gt\n        /* \"#utility.yul\":10534:10590   */\n      iszero\n      tag_358\n      jumpi\n        /* \"#utility.yul\":10570:10588   */\n      tag_359\n      tag_220\n      jump\t// in\n    tag_359:\n        /* \"#utility.yul\":10534:10590   */\n    tag_358:\n        /* \"#utility.yul\":10608:10637   */\n      tag_360\n        /* \"#utility.yul\":10630:10636   */\n      dup3\n        /* \"#utility.yul\":10608:10637   */\n      tag_201\n      jump\t// in\n    tag_360:\n        /* \"#utility.yul\":10600:10637   */\n      swap1\n      pop\n        /* \"#utility.yul\":10692:10696   */\n      0x20\n        /* \"#utility.yul\":10686:10690   */\n      dup2\n        /* \"#utility.yul\":10682:10697   */\n      add\n        /* \"#utility.yul\":10674:10697   */\n      swap1\n      pop\n        /* \"#utility.yul\":10396:10704   */\n      swap2\n      swap1\n      pop\n      jump\t// out\n        /* \"#utility.yul\":10710:10856   */\n    tag_224:\n        /* \"#utility.yul\":10807:10813   */\n      dup3\n        /* \"#utility.yul\":10802:10805   */\n      dup2\n        /* \"#utility.yul\":10797:10800   */\n      dup4\n        /* \"#utility.yul\":10784:10814   */\n      calldatacopy\n        /* \"#utility.yul\":10848:10849   */\n      0x00\n        /* \"#utility.yul\":10839:10845   */\n      dup4\n        /* \"#utility.yul\":10834:10837   */\n      dup4\n        /* \"#utility.yul\":10830:10846   */\n      add\n        /* \"#utility.yul\":10823:10850   */\n      mstore\n        /* \"#utility.yul\":10710:10856   */\n      pop\n      pop\n      pop\n      jump\t// out\n        /* \"#utility.yul\":10862:11287   */\n    tag_225:\n        /* \"#utility.yul\":10940:10945   */\n      0x00\n        /* \"#utility.yul\":10965:11031   */\n      tag_363\n        /* \"#utility.yul\":10981:11030   */\n      tag_364\n        /* \"#utility.yul\":11023:11029   */\n      dup5\n        /* \"#utility.yul\":10981:11030   */\n      tag_223\n      jump\t// in\n    tag_364:\n        /* \"#utility.yul\":10965:11031   */\n      tag_222\n      jump\t// in\n    tag_363:\n        /* \"#utility.yul\":10956:11031   */\n      swap1\n      pop\n        /* \"#utility.yul\":11054:11060   */\n      dup3\n        /* \"#utility.yul\":11047:11052   */\n      dup2\n        /* \"#utility.yul\":11040:11061   */\n      mstore\n        /* \"#utility.yul\":11092:11096   */\n      0x20\n        /* \"#utility.yul\":11085:11090   */\n      dup2\n        /* \"#utility.yul\":11081:11097   */\n      add\n        /* \"#utility.yul\":11130:11133   */\n      dup5\n        /* \"#utility.yul\":11121:11127   */\n      dup5\n        /* \"#utility.yul\":11116:11119   */\n      dup5\n        /* \"#utility.yul\":11112:11128   */\n      add\n        /* \"#utility.yul\":11109:11134   */\n      gt\n        /* \"#utility.yul\":11106:11218   */\n      iszero\n      tag_365\n      jumpi\n        /* \"#utility.yul\":11137:11216   */\n      tag_366\n      tag_219\n      jump\t// in\n    tag_366:\n        /* \"#utility.yul\":11106:11218   */\n    tag_365:\n        /* \"#utility.yul\":11227:11281   */\n      tag_367\n        /* \"#utility.yul\":11274:11280   */\n      dup5\n        /* \"#utility.yul\":11269:11272   */\n      dup3\n        /* \"#utility.yul\":11264:11267   */\n      dup6\n        /* \"#utility.yul\":11227:11281   */\n      tag_224\n      jump\t// in\n    tag_367:\n        /* \"#utility.yul\":10946:11287   */\n      pop\n        /* \"#utility.yul\":10862:11287   */\n      swap4\n      swap3\n      pop\n      pop\n      pop\n      jump\t// out\n        /* \"#utility.yul\":11307:11647   */\n    tag_226:\n        /* \"#utility.yul\":11363:11368   */\n      0x00\n        /* \"#utility.yul\":11412:11415   */\n      dup3\n        /* \"#utility.yul\":11405:11409   */\n      0x1f\n        /* \"#utility.yul\":11397:11403   */\n      dup4\n        /* \"#utility.yul\":11393:11410   */\n      add\n        /* \"#utility.yul\":11389:11416   */\n      slt\n        /* \"#utility.yul\":11379:11501   */\n      tag_369\n      jumpi\n        /* \"#utility.yul\":11420:11499   */\n      tag_370\n      tag_218\n      jump\t// in\n    tag_370:\n        /* \"#utility.yul\":11379:11501   */\n    tag_369:\n        /* \"#utility.yul\":11537:11543   */\n      dup2\n        /* \"#utility.yul\":11524:11544   */\n      calldataload\n        /* \"#utility.yul\":11562:11641   */\n      tag_371\n        /* \"#utility.yul\":11637:11640   */\n      dup5\n        /* \"#utility.yul\":11629:11635   */\n      dup3\n        /* \"#utility.yul\":11622:11626   */\n      0x20\n        /* \"#utility.yul\":11614:11620   */\n      dup7\n        /* \"#utility.yul\":11610:11627   */\n      add\n        /* \"#utility.yul\":11562:11641   */\n      tag_225\n      jump\t// in\n    tag_371:\n        /* \"#utility.yul\":11553:11641   */\n      swap2\n      pop\n        /* \"#utility.yul\":11369:11647   */\n      pop\n        /* \"#utility.yul\":11307:11647   */\n      swap3\n      swap2\n      pop\n      pop\n      jump\t// out\n        /* \"#utility.yul\":11653:12162   */\n    tag_46:\n        /* \"#utility.yul\":11722:11728   */\n      0x00\n        /* \"#utility.yul\":11771:11773   */\n      0x20\n        /* \"#utility.yul\":11759:11768   */\n      dup3\n        /* \"#utility.yul\":11750:11757   */\n      dup5\n        /* \"#utility.yul\":11746:11769   */\n      sub\n        /* \"#utility.yul\":11742:11774   */\n      slt\n        /* \"#utility.yul\":11739:11858   */\n      iszero\n      tag_373\n      jumpi\n        /* \"#utility.yul\":11777:11856   */\n      tag_374\n      tag_187\n      jump\t// in\n    tag_374:\n        /* \"#utility.yul\":11739:11858   */\n    tag_373:\n        /* \"#utility.yul\":11925:11926   */\n      0x00\n        /* \"#utility.yul\":11914:11923   */\n      dup3\n        /* \"#utility.yul\":11910:11927   */\n      add\n        /* \"#utility.yul\":11897:11928   */\n      calldataload\n        /* \"#utility.yul\":11955:11973   */\n      0xffffffffffffffff\n        /* \"#utility.yul\":11947:11953   */\n      dup2\n        /* \"#utility.yul\":11944:11974   */\n      gt\n        /* \"#utility.yul\":11941:12058   */\n      iszero\n      tag_375\n      jumpi\n        /* \"#utility.yul\":11977:12056   */\n      tag_376\n      tag_188\n      jump\t// in\n    tag_376:\n        /* \"#utility.yul\":11941:12058   */\n    tag_375:\n        /* \"#utility.yul\":12082:12145   */\n      tag_377\n        /* \"#utility.yul\":12137:12144   */\n      dup5\n        /* \"#utility.yul\":12128:12134   */\n      dup3\n        /* \"#utility.yul\":12117:12126   */\n      dup6\n        /* \"#utility.yul\":12113:12135   */\n      add\n        /* \"#utility.yul\":12082:12145   */\n      tag_226\n      jump\t// in\n    tag_377:\n        /* \"#utility.yul\":12072:12145   */\n      swap2\n      pop\n        /* \"#utility.yul\":11868:12155   */\n      pop\n        /* \"#utility.yul\":11653:12162   */\n      swap3\n      swap2\n      pop\n      pop\n      jump\t// out\n        /* \"#utility.yul\":12168:12390   */\n    tag_52:\n        /* \"#utility.yul\":12261:12265   */\n      0x00\n        /* \"#utility.yul\":12299:12301   */\n      0x20\n        /* \"#utility.yul\":12288:12297   */\n      dup3\n        /* \"#utility.yul\":12284:12302   */\n      add\n        /* \"#utility.yul\":12276:12302   */\n      swap1\n      pop\n        /* \"#utility.yul\":12312:12383   */\n      tag_379\n        /* \"#utility.yul\":12380:12381   */\n      0x00\n        /* \"#utility.yul\":12369:12378   */\n      dup4\n        /* \"#utility.yul\":12365:12382   */\n      add\n        /* \"#utility.yul\":12356:12362   */\n      dup5\n        /* \"#utility.yul\":12312:12383   */\n      tag_196\n      jump\t// in\n    tag_379:\n        /* \"#utility.yul\":12168:12390   */\n      swap3\n      swap2\n      pop\n      pop\n      jump\t// out\n        /* \"#utility.yul\":12396:12618   */\n    tag_56:\n        /* \"#utility.yul\":12489:12493   */\n      0x00\n        /* \"#utility.yul\":12527:12529   */\n      0x20\n        /* \"#utility.yul\":12516:12525   */\n      dup3\n        /* \"#utility.yul\":12512:12530   */\n      add\n        /* \"#utility.yul\":12504:12530   */\n      swap1\n      pop\n        /* \"#utility.yul\":12540:12611   */\n      tag_381\n        /* \"#utility.yul\":12608:12609   */\n      0x00\n        /* \"#utility.yul\":12597:12606   */\n      dup4\n        /* \"#utility.yul\":12593:12610   */\n      add\n        /* \"#utility.yul\":12584:12590   */\n      dup5\n        /* \"#utility.yul\":12540:12611   */\n      tag_197\n      jump\t// in\n    tag_381:\n        /* \"#utility.yul\":12396:12618   */\n      swap3\n      swap2\n      pop\n      pop\n      jump\t// out\n        /* \"#utility.yul\":12624:12953   */\n    tag_59:\n        /* \"#utility.yul\":12683:12689   */\n      0x00\n        /* \"#utility.yul\":12732:12734   */\n      0x20\n        /* \"#utility.yul\":12720:12729   */\n      dup3\n        /* \"#utility.yul\":12711:12718   */\n      dup5\n        /* \"#utility.yul\":12707:12730   */\n      sub\n        /* \"#utility.yul\":12703:12735   */\n      slt\n        /* \"#utility.yul\":12700:12819   */\n      iszero\n      tag_383\n      jumpi\n        /* \"#utility.yul\":12738:12817   */\n      tag_384\n      tag_187\n      jump\t// in\n    tag_384:\n        /* \"#utility.yul\":12700:12819   */\n    tag_383:\n        /* \"#utility.yul\":12858:12859   */\n      0x00\n        /* \"#utility.yul\":12883:12936   */\n      tag_385\n        /* \"#utility.yul\":12928:12935   */\n      dup5\n        /* \"#utility.yul\":12919:12925   */\n      dup3\n        /* \"#utility.yul\":12908:12917   */\n      dup6\n        /* \"#utility.yul\":12904:12926   */\n      add\n        /* \"#utility.yul\":12883:12936   */\n      tag_195\n      jump\t// in\n    tag_385:\n        /* \"#utility.yul\":12873:12936   */\n      swap2\n      pop\n        /* \"#utility.yul\":12829:12946   */\n      pop\n        /* \"#utility.yul\":12624:12953   */\n      swap3\n      swap2\n      pop\n      pop\n      jump\t// out\n        /* \"#utility.yul\":13011:14142   */\n    tag_227:\n        /* \"#utility.yul\":13124:13127   */\n      0x00\n        /* \"#utility.yul\":13160:13164   */\n      0xa0\n        /* \"#utility.yul\":13155:13158   */\n      dup4\n        /* \"#utility.yul\":13151:13165   */\n      add\n        /* \"#utility.yul\":13245:13249   */\n      0x00\n        /* \"#utility.yul\":13238:13243   */\n      dup4\n        /* \"#utility.yul\":13234:13250   */\n      add\n        /* \"#utility.yul\":13228:13251   */\n      mload\n        /* \"#utility.yul\":13264:13327   */\n      tag_387\n        /* \"#utility.yul\":13321:13325   */\n      0x00\n        /* \"#utility.yul\":13316:13319   */\n      dup7\n        /* \"#utility.yul\":13312:13326   */\n      add\n        /* \"#utility.yul\":13298:13310   */\n      dup3\n        /* \"#utility.yul\":13264:13327   */\n      tag_206\n      jump\t// in\n    tag_387:\n        /* \"#utility.yul\":13175:13337   */\n      pop\n        /* \"#utility.yul\":13421:13425   */\n      0x20\n        /* \"#utility.yul\":13414:13419   */\n      dup4\n        /* \"#utility.yul\":13410:13426   */\n      add\n        /* \"#utility.yul\":13404:13427   */\n      mload\n        /* \"#utility.yul\":13440:13503   */\n      tag_388\n        /* \"#utility.yul\":13497:13501   */\n      0x20\n        /* \"#utility.yul\":13492:13495   */\n      dup7\n        /* \"#utility.yul\":13488:13502   */\n      add\n        /* \"#utility.yul\":13474:13486   */\n      dup3\n        /* \"#utility.yul\":13440:13503   */\n      tag_207\n      jump\t// in\n    tag_388:\n        /* \"#utility.yul\":13347:13513   */\n      pop\n        /* \"#utility.yul\":13598:13602   */\n      0x40\n        /* \"#utility.yul\":13591:13596   */\n      dup4\n        /* \"#utility.yul\":13587:13603   */\n      add\n        /* \"#utility.yul\":13581:13604   */\n      mload\n        /* \"#utility.yul\":13651:13654   */\n      dup5\n        /* \"#utility.yul\":13645:13649   */\n      dup3\n        /* \"#utility.yul\":13641:13655   */\n      sub\n        /* \"#utility.yul\":13634:13638   */\n      0x40\n        /* \"#utility.yul\":13629:13632   */\n      dup7\n        /* \"#utility.yul\":13625:13639   */\n      add\n        /* \"#utility.yul\":13618:13656   */\n      mstore\n        /* \"#utility.yul\":13677:13750   */\n      tag_389\n        /* \"#utility.yul\":13745:13749   */\n      dup3\n        /* \"#utility.yul\":13731:13743   */\n      dup3\n        /* \"#utility.yul\":13677:13750   */\n      tag_209\n      jump\t// in\n    tag_389:\n        /* \"#utility.yul\":13669:13750   */\n      swap2\n      pop\n        /* \"#utility.yul\":13523:13761   */\n      pop\n        /* \"#utility.yul\":13848:13852   */\n      0x60\n        /* \"#utility.yul\":13841:13846   */\n      dup4\n        /* \"#utility.yul\":13837:13853   */\n      add\n        /* \"#utility.yul\":13831:13854   */\n      mload\n        /* \"#utility.yul\":13867:13930   */\n      tag_390\n        /* \"#utility.yul\":13924:13928   */\n      0x60\n        /* \"#utility.yul\":13919:13922   */\n      dup7\n        /* \"#utility.yul\":13915:13929   */\n      add\n        /* \"#utility.yul\":13901:13913   */\n      dup3\n        /* \"#utility.yul\":13867:13930   */\n      tag_206\n      jump\t// in\n    tag_390:\n        /* \"#utility.yul\":13771:13940   */\n      pop\n        /* \"#utility.yul\":14023:14027   */\n      0x80\n        /* \"#utility.yul\":14016:14021   */\n      dup4\n        /* \"#utility.yul\":14012:14028   */\n      add\n        /* \"#utility.yul\":14006:14029   */\n      mload\n        /* \"#utility.yul\":14042:14105   */\n      tag_391\n        /* \"#utility.yul\":14099:14103   */\n      0x80\n        /* \"#utility.yul\":14094:14097   */\n      dup7\n        /* \"#utility.yul\":14090:14104   */\n      add\n        /* \"#utility.yul\":14076:14088   */\n      dup3\n        /* \"#utility.yul\":14042:14105   */\n      tag_206\n      jump\t// in\n    tag_391:\n        /* \"#utility.yul\":13950:14115   */\n      pop\n        /* \"#utility.yul\":14132:14136   */\n      dup1\n        /* \"#utility.yul\":14125:14136   */\n      swap2\n      pop\n        /* \"#utility.yul\":13129:14142   */\n      pop\n        /* \"#utility.yul\":13011:14142   */\n      swap3\n      swap2\n      pop\n      pop\n      jump\t// out\n        /* \"#utility.yul\":14148:14509   */\n    tag_62:\n        /* \"#utility.yul\":14285:14289   */\n      0x00\n        /* \"#utility.yul\":14323:14325   */\n      0x20\n        /* \"#utility.yul\":14312:14321   */\n      dup3\n        /* \"#utility.yul\":14308:14326   */\n      add\n        /* \"#utility.yul\":14300:14326   */\n      swap1\n      pop\n        /* \"#utility.yul\":14372:14381   */\n      dup2\n        /* \"#utility.yul\":14366:14370   */\n      dup2\n        /* \"#utility.yul\":14362:14382   */\n      sub\n        /* \"#utility.yul\":14358:14359   */\n      0x00\n        /* \"#utility.yul\":14347:14356   */\n      dup4\n        /* \"#utility.yul\":14343:14360   */\n      add\n        /* \"#utility.yul\":14336:14383   */\n      mstore\n        /* \"#utility.yul\":14400:14502   */\n      tag_393\n        /* \"#utility.yul\":14497:14501   */\n      dup2\n        /* \"#utility.yul\":14488:14494   */\n      dup5\n        /* \"#utility.yul\":14400:14502   */\n      tag_227\n      jump\t// in\n    tag_393:\n        /* \"#utility.yul\":14392:14502   */\n      swap1\n      pop\n        /* \"#utility.yul\":14148:14509   */\n      swap3\n      swap2\n      pop\n      pop\n      jump\t// out\n        /* \"#utility.yul\":14515:14695   */\n    tag_228:\n        /* \"#utility.yul\":14563:14640   */\n      0x4e487b7100000000000000000000000000000000000000000000000000000000\n        /* \"#utility.yul\":14560:14561   */\n      0x00\n        /* \"#utility.yul\":14553:14641   */\n      mstore\n        /* \"#utility.yul\":14660:14664   */\n      0x22\n        /* \"#utility.yul\":14657:14658   */\n      0x04\n        /* \"#utility.yul\":14650:14665   */\n      mstore\n        /* \"#utility.yul\":14684:14688   */\n      0x24\n        /* \"#utility.yul\":14681:14682   */\n      0x00\n        /* \"#utility.yul\":14674:14689   */\n      revert\n        /* \"#utility.yul\":14701:15021   */\n    tag_69:\n        /* \"#utility.yul\":14745:14751   */\n      0x00\n        /* \"#utility.yul\":14782:14783   */\n      0x02\n        /* \"#utility.yul\":14776:14780   */\n      dup3\n        /* \"#utility.yul\":14772:14784   */\n      div\n        /* \"#utility.yul\":14762:14784   */\n      swap1\n      pop\n        /* \"#utility.yul\":14829:14830   */\n      0x01\n        /* \"#utility.yul\":14823:14827   */\n      dup3\n        /* \"#utility.yul\":14819:14831   */\n      and\n        /* \"#utility.yul\":14850:14868   */\n      dup1\n        /* \"#utility.yul\":14840:14921   */\n      tag_396\n      jumpi\n        /* \"#utility.yul\":14906:14910   */\n      0x7f\n        /* \"#utility.yul\":14898:14904   */\n      dup3\n        /* \"#utility.yul\":14894:14911   */\n      and\n        /* \"#utility.yul\":14884:14911   */\n      swap2\n      pop\n        /* \"#utility.yul\":14840:14921   */\n    tag_396:\n        /* \"#utility.yul\":14968:14970   */\n      0x20\n        /* \"#utility.yul\":14960:14966   */\n      dup3\n        /* \"#utility.yul\":14957:14971   */\n      lt\n        /* \"#utility.yul\":14937:14955   */\n      dup2\n        /* \"#utility.yul\":14934:14972   */\n      sub\n        /* \"#utility.yul\":14931:15015   */\n      tag_397\n      jumpi\n        /* \"#utility.yul\":14987:15005   */\n      tag_398\n      tag_228\n      jump\t// in\n    tag_398:\n        /* \"#utility.yul\":14931:15015   */\n    tag_397:\n        /* \"#utility.yul\":14752:15021   */\n      pop\n        /* \"#utility.yul\":14701:15021   */\n      swap2\n      swap1\n      pop\n      jump\t// out\n        /* \"#utility.yul\":15027:15207   */\n    tag_86:\n        /* \"#utility.yul\":15075:15152   */\n      0x4e487b7100000000000000000000000000000000000000000000000000000000\n        /* \"#utility.yul\":15072:15073   */\n      0x00\n        /* \"#utility.yul\":15065:15153   */\n      mstore\n        /* \"#utility.yul\":15172:15176   */\n      0x32\n        /* \"#utility.yul\":15169:15170   */\n      0x04\n        /* \"#utility.yul\":15162:15177   */\n      mstore\n        /* \"#utility.yul\":15196:15200   */\n      0x24\n        /* \"#utility.yul\":15193:15194   */\n      0x00\n        /* \"#utility.yul\":15186:15201   */\n      revert\n        /* \"#utility.yul\":15213:15384   */\n    tag_229:\n        /* \"#utility.yul\":15353:15376   */\n      0x547765657420646f6573206e6f74206578697374730000000000000000000000\n        /* \"#utility.yul\":15349:15350   */\n      0x00\n        /* \"#utility.yul\":15341:15347   */\n      dup3\n        /* \"#utility.yul\":15337:15351   */\n      add\n        /* \"#utility.yul\":15330:15377   */\n      mstore\n        /* \"#utility.yul\":15213:15384   */\n      pop\n      jump\t// out\n        /* \"#utility.yul\":15390:15756   */\n    tag_230:\n        /* \"#utility.yul\":15532:15535   */\n      0x00\n        /* \"#utility.yul\":15553:15620   */\n      tag_402\n        /* \"#utility.yul\":15617:15619   */\n      0x15\n        /* \"#utility.yul\":15612:15615   */\n      dup4\n        /* \"#utility.yul\":15553:15620   */\n      tag_199\n      jump\t// in\n    tag_402:\n        /* \"#utility.yul\":15546:15620   */\n      swap2\n      pop\n        /* \"#utility.yul\":15629:15722   */\n      tag_403\n        /* \"#utility.yul\":15718:15721   */\n      dup3\n        /* \"#utility.yul\":15629:15722   */\n      tag_229\n      jump\t// in\n    tag_403:\n        /* \"#utility.yul\":15747:15749   */\n      0x20\n        /* \"#utility.yul\":15742:15745   */\n      dup3\n        /* \"#utility.yul\":15738:15750   */\n      add\n        /* \"#utility.yul\":15731:15750   */\n      swap1\n      pop\n        /* \"#utility.yul\":15390:15756   */\n      swap2\n      swap1\n      pop\n      jump\t// out\n        /* \"#utility.yul\":15762:16181   */\n    tag_90:\n        /* \"#utility.yul\":15928:15932   */\n      0x00\n        /* \"#utility.yul\":15966:15968   */\n      0x20\n        /* \"#utility.yul\":15955:15964   */\n      dup3\n        /* \"#utility.yul\":15951:15969   */\n      add\n        /* \"#utility.yul\":15943:15969   */\n      swap1\n      pop\n        /* \"#utility.yul\":16015:16024   */\n      dup2\n        /* \"#utility.yul\":16009:16013   */\n      dup2\n        /* \"#utility.yul\":16005:16025   */\n      sub\n        /* \"#utility.yul\":16001:16002   */\n      0x00\n        /* \"#utility.yul\":15990:15999   */\n      dup4\n        /* \"#utility.yul\":15986:16003   */\n      add\n        /* \"#utility.yul\":15979:16026   */\n      mstore\n        /* \"#utility.yul\":16043:16174   */\n      tag_405\n        /* \"#utility.yul\":16169:16173   */\n      dup2\n        /* \"#utility.yul\":16043:16174   */\n      tag_230\n      jump\t// in\n    tag_405:\n        /* \"#utility.yul\":16035:16174   */\n      swap1\n      pop\n        /* \"#utility.yul\":15762:16181   */\n      swap2\n      swap1\n      pop\n      jump\t// out\n        /* \"#utility.yul\":16187:16355   */\n    tag_231:\n        /* \"#utility.yul\":16327:16347   */\n      0x547765657420686173206e6f204c696b65730000000000000000000000000000\n        /* \"#utility.yul\":16323:16324   */\n      0x00\n        /* \"#utility.yul\":16315:16321   */\n      dup3\n        /* \"#utility.yul\":16311:16325   */\n      add\n        /* \"#utility.yul\":16304:16348   */\n      mstore\n        /* \"#utility.yul\":16187:16355   */\n      pop\n      jump\t// out\n        /* \"#utility.yul\":16361:16727   */\n    tag_232:\n        /* \"#utility.yul\":16503:16506   */\n      0x00\n        /* \"#utility.yul\":16524:16591   */\n      tag_408\n        /* \"#utility.yul\":16588:16590   */\n      0x12\n        /* \"#utility.yul\":16583:16586   */\n      dup4\n        /* \"#utility.yul\":16524:16591   */\n      tag_199\n      jump\t// in\n    tag_408:\n        /* \"#utility.yul\":16517:16591   */\n      swap2\n      pop\n        /* \"#utility.yul\":16600:16693   */\n      tag_409\n        /* \"#utility.yul\":16689:16692   */\n      dup3\n        /* \"#utility.yul\":16600:16693   */\n      tag_231\n      jump\t// in\n    tag_409:\n        /* \"#utility.yul\":16718:16720   */\n      0x20\n        /* \"#utility.yul\":16713:16716   */\n      dup3\n        /* \"#utility.yul\":16709:16721   */\n      add\n        /* \"#utility.yul\":16702:16721   */\n      swap1\n      pop\n        /* \"#utility.yul\":16361:16727   */\n      swap2\n      swap1\n      pop\n      jump\t// out\n        /* \"#utility.yul\":16733:17152   */\n    tag_96:\n        /* \"#utility.yul\":16899:16903   */\n      0x00\n        /* \"#utility.yul\":16937:16939   */\n      0x20\n        /* \"#utility.yul\":16926:16935   */\n      dup3\n        /* \"#utility.yul\":16922:16940   */\n      add\n        /* \"#utility.yul\":16914:16940   */\n      swap1\n      pop\n        /* \"#utility.yul\":16986:16995   */\n      dup2\n        /* \"#utility.yul\":16980:16984   */\n      dup2\n        /* \"#utility.yul\":16976:16996   */\n      sub\n        /* \"#utility.yul\":16972:16973   */\n      0x00\n        /* \"#utility.yul\":16961:16970   */\n      dup4\n        /* \"#utility.yul\":16957:16974   */\n      add\n        /* \"#utility.yul\":16950:16997   */\n      mstore\n        /* \"#utility.yul\":17014:17145   */\n      tag_411\n        /* \"#utility.yul\":17140:17144   */\n      dup2\n        /* \"#utility.yul\":17014:17145   */\n      tag_232\n      jump\t// in\n    tag_411:\n        /* \"#utility.yul\":17006:17145   */\n      swap1\n      pop\n        /* \"#utility.yul\":16733:17152   */\n      swap2\n      swap1\n      pop\n      jump\t// out\n        /* \"#utility.yul\":17158:17338   */\n    tag_233:\n        /* \"#utility.yul\":17206:17283   */\n      0x4e487b7100000000000000000000000000000000000000000000000000000000\n        /* \"#utility.yul\":17203:17204   */\n      0x00\n        /* \"#utility.yul\":17196:17284   */\n      mstore\n        /* \"#utility.yul\":17303:17307   */\n      0x11\n        /* \"#utility.yul\":17300:17301   */\n      0x04\n        /* \"#utility.yul\":17293:17308   */\n      mstore\n        /* \"#utility.yul\":17327:17331   */\n      0x24\n        /* \"#utility.yul\":17324:17325   */\n      0x00\n        /* \"#utility.yul\":17317:17332   */\n      revert\n        /* \"#utility.yul\":17344:17515   */\n    tag_101:\n        /* \"#utility.yul\":17383:17386   */\n      0x00\n        /* \"#utility.yul\":17406:17430   */\n      tag_414\n        /* \"#utility.yul\":17424:17429   */\n      dup3\n        /* \"#utility.yul\":17406:17430   */\n      tag_193\n      jump\t// in\n    tag_414:\n        /* \"#utility.yul\":17397:17430   */\n      swap2\n      pop\n        /* \"#utility.yul\":17452:17456   */\n      0x00\n        /* \"#utility.yul\":17445:17450   */\n      dup3\n        /* \"#utility.yul\":17442:17457   */\n      sub\n        /* \"#utility.yul\":17439:17480   */\n      tag_415\n      jumpi\n        /* \"#utility.yul\":17460:17478   */\n      tag_416\n      tag_233\n      jump\t// in\n    tag_416:\n        /* \"#utility.yul\":17439:17480   */\n    tag_415:\n        /* \"#utility.yul\":17507:17508   */\n      0x01\n        /* \"#utility.yul\":17500:17505   */\n      dup3\n        /* \"#utility.yul\":17496:17509   */\n      sub\n        /* \"#utility.yul\":17489:17509   */\n      swap1\n      pop\n        /* \"#utility.yul\":17344:17515   */\n      swap2\n      swap1\n      pop\n      jump\t// out\n        /* \"#utility.yul\":17521:18074   */\n    tag_106:\n        /* \"#utility.yul\":17698:17702   */\n      0x00\n        /* \"#utility.yul\":17736:17739   */\n      0x80\n        /* \"#utility.yul\":17725:17734   */\n      dup3\n        /* \"#utility.yul\":17721:17740   */\n      add\n        /* \"#utility.yul\":17713:17740   */\n      swap1\n      pop\n        /* \"#utility.yul\":17750:17821   */\n      tag_418\n        /* \"#utility.yul\":17818:17819   */\n      0x00\n        /* \"#utility.yul\":17807:17816   */\n      dup4\n        /* \"#utility.yul\":17803:17820   */\n      add\n        /* \"#utility.yul\":17794:17800   */\n      dup8\n        /* \"#utility.yul\":17750:17821   */\n      tag_197\n      jump\t// in\n    tag_418:\n        /* \"#utility.yul\":17831:17903   */\n      tag_419\n        /* \"#utility.yul\":17899:17901   */\n      0x20\n        /* \"#utility.yul\":17888:17897   */\n      dup4\n        /* \"#utility.yul\":17884:17902   */\n      add\n        /* \"#utility.yul\":17875:17881   */\n      dup7\n        /* \"#utility.yul\":17831:17903   */\n      tag_197\n      jump\t// in\n    tag_419:\n        /* \"#utility.yul\":17913:17985   */\n      tag_420\n        /* \"#utility.yul\":17981:17983   */\n      0x40\n        /* \"#utility.yul\":17970:17979   */\n      dup4\n        /* \"#utility.yul\":17966:17984   */\n      add\n        /* \"#utility.yul\":17957:17963   */\n      dup6\n        /* \"#utility.yul\":17913:17985   */\n      tag_196\n      jump\t// in\n    tag_420:\n        /* \"#utility.yul\":17995:18067   */\n      tag_421\n        /* \"#utility.yul\":18063:18065   */\n      0x60\n        /* \"#utility.yul\":18052:18061   */\n      dup4\n        /* \"#utility.yul\":18048:18066   */\n      add\n        /* \"#utility.yul\":18039:18045   */\n      dup5\n        /* \"#utility.yul\":17995:18067   */\n      tag_196\n      jump\t// in\n    tag_421:\n        /* \"#utility.yul\":17521:18074   */\n      swap6\n      swap5\n      pop\n      pop\n      pop\n      pop\n      pop\n      jump\t// out\n        /* \"#utility.yul\":18080:18313   */\n    tag_121:\n        /* \"#utility.yul\":18119:18122   */\n      0x00\n        /* \"#utility.yul\":18142:18166   */\n      tag_423\n        /* \"#utility.yul\":18160:18165   */\n      dup3\n        /* \"#utility.yul\":18142:18166   */\n      tag_193\n      jump\t// in\n    tag_423:\n        /* \"#utility.yul\":18133:18166   */\n      swap2\n      pop\n        /* \"#utility.yul\":18188:18254   */\n      0xffffffffffffffffffffffffffffffffffffffffffffffffffffffffffffffff\n        /* \"#utility.yul\":18181:18186   */\n      dup3\n        /* \"#utility.yul\":18178:18255   */\n      sub\n        /* \"#utility.yul\":18175:18278   */\n      tag_424\n      jumpi\n        /* \"#utility.yul\":18258:18276   */\n      tag_425\n      tag_233\n      jump\t// in\n    tag_425:\n        /* \"#utility.yul\":18175:18278   */\n    tag_424:\n        /* \"#utility.yul\":18305:18306   */\n      0x01\n        /* \"#utility.yul\":18298:18303   */\n      dup3\n        /* \"#utility.yul\":18294:18307   */\n      add\n        /* \"#utility.yul\":18287:18307   */\n      swap1\n      pop\n        /* \"#utility.yul\":18080:18313   */\n      swap2\n      swap1\n      pop\n      jump\t// out\n        /* \"#utility.yul\":18319:18486   */\n    tag_234:\n        /* \"#utility.yul\":18459:18478   */\n      0x547765657420697320746f6f206c6f6e67000000000000000000000000000000\n        /* \"#utility.yul\":18455:18456   */\n      0x00\n        /* \"#utility.yul\":18447:18453   */\n      dup3\n        /* \"#utility.yul\":18443:18457   */\n      add\n        /* \"#utility.yul\":18436:18479   */\n      mstore\n        /* \"#utility.yul\":18319:18486   */\n      pop\n      jump\t// out\n        /* \"#utility.yul\":18492:18858   */\n    tag_235:\n        /* \"#utility.yul\":18634:18637   */\n      0x00\n        /* \"#utility.yul\":18655:18722   */\n      tag_428\n        /* \"#utility.yul\":18719:18721   */\n      0x11\n        /* \"#utility.yul\":18714:18717   */\n      dup4\n        /* \"#utility.yul\":18655:18722   */\n      tag_199\n      jump\t// in\n    tag_428:\n        /* \"#utility.yul\":18648:18722   */\n      swap2\n      pop\n        /* \"#utility.yul\":18731:18824   */\n      tag_429\n        /* \"#utility.yul\":18820:18823   */\n      dup3\n        /* \"#utility.yul\":18731:18824   */\n      tag_234\n      jump\t// in\n    tag_429:\n        /* \"#utility.yul\":18849:18851   */\n      0x20\n        /* \"#utility.yul\":18844:18847   */\n      dup3\n        /* \"#utility.yul\":18840:18852   */\n      add\n        /* \"#utility.yul\":18833:18852   */\n      swap1\n      pop\n        /* \"#utility.yul\":18492:18858   */\n      swap2\n      swap1\n      pop\n      jump\t// out\n        /* \"#utility.yul\":18864:19283   */\n    tag_134:\n        /* \"#utility.yul\":19030:19034   */\n      0x00\n        /* \"#utility.yul\":19068:19070   */\n      0x20\n        /* \"#utility.yul\":19057:19066   */\n      dup3\n        /* \"#utility.yul\":19053:19071   */\n      add\n        /* \"#utility.yul\":19045:19071   */\n      swap1\n      pop\n        /* \"#utility.yul\":19117:19126   */\n      dup2\n        /* \"#utility.yul\":19111:19115   */\n      dup2\n        /* \"#utility.yul\":19107:19127   */\n      sub\n        /* \"#utility.yul\":19103:19104   */\n      0x00\n        /* \"#utility.yul\":19092:19101   */\n      dup4\n        /* \"#utility.yul\":19088:19105   */\n      add\n        /* \"#utility.yul\":19081:19128   */\n      mstore\n        /* \"#utility.yul\":19145:19276   */\n      tag_431\n        /* \"#utility.yul\":19271:19275   */\n      dup2\n        /* \"#utility.yul\":19145:19276   */\n      tag_235\n      jump\t// in\n    tag_431:\n        /* \"#utility.yul\":19137:19276   */\n      swap1\n      pop\n        /* \"#utility.yul\":18864:19283   */\n      swap2\n      swap1\n      pop\n      jump\t// out\n        /* \"#utility.yul\":19289:19430   */\n    tag_236:\n        /* \"#utility.yul\":19338:19342   */\n      0x00\n        /* \"#utility.yul\":19361:19364   */\n      dup2\n        /* \"#utility.yul\":19353:19364   */\n      swap1\n      pop\n        /* \"#utility.yul\":19384:19387   */\n      dup2\n        /* \"#utility.yul\":19381:19382   */\n      0x00\n        /* \"#utility.yul\":19374:19388   */\n      mstore\n        /* \"#utility.yul\":19418:19422   */\n      0x20\n        /* \"#utility.yul\":19415:19416   */\n      0x00\n        /* \"#utility.yul\":19405:19423   */\n      keccak256\n        /* \"#utility.yul\":19397:19423   */\n      swap1\n      pop\n        /* \"#utility.yul\":19289:19430   */\n      swap2\n      swap1\n      pop\n      jump\t// out\n        /* \"#utility.yul\":19436:19529   */\n    tag_237:\n        /* \"#utility.yul\":19473:19479   */\n      0x00\n        /* \"#utility.yul\":19520:19522   */\n      0x20\n        /* \"#utility.yul\":19515:19517   */\n      0x1f\n        /* \"#utility.yul\":19508:19513   */\n      dup4\n        /* \"#utility.yul\":19504:19518   */\n      add\n        /* \"#utility.yul\":19500:19523   */\n      div\n        /* \"#utility.yul\":19490:19523   */\n      swap1\n      pop\n        /* \"#utility.yul\":19436:19529   */\n      swap2\n      swap1\n      pop\n      jump\t// out\n        /* \"#utility.yul\":19535:19642   */\n    tag_238:\n        /* \"#utility.yul\":19579:19587   */\n      0x00\n        /* \"#utility.yul\":19629:19634   */\n      dup3\n        /* \"#utility.yul\":19623:19627   */\n      dup3\n        /* \"#utility.yul\":19619:19635   */\n      shl\n        /* \"#utility.yul\":19598:19635   */\n      swap1\n      pop\n        /* \"#utility.yul\":19535:19642   */\n      swap3\n      swap2\n      pop\n      pop\n      jump\t// out\n        /* \"#utility.yul\":19648:20041   */\n    tag_239:\n        /* \"#utility.yul\":19717:19723   */\n      0x00\n        /* \"#utility.yul\":19767:19768   */\n      0x08\n        /* \"#utility.yul\":19755:19765   */\n      dup4\n        /* \"#utility.yul\":19751:19769   */\n      mul\n        /* \"#utility.yul\":19790:19887   */\n      tag_436\n        /* \"#utility.yul\":19820:19886   */\n      0xffffffffffffffffffffffffffffffffffffffffffffffffffffffffffffffff\n        /* \"#utility.yul\":19809:19818   */\n      dup3\n        /* \"#utility.yul\":19790:19887   */\n      tag_238\n      jump\t// in\n    tag_436:\n        /* \"#utility.yul\":19908:19947   */\n      tag_437\n        /* \"#utility.yul\":19938:19946   */\n      dup7\n        /* \"#utility.yul\":19927:19936   */\n      dup4\n        /* \"#utility.yul\":19908:19947   */\n      tag_238\n      jump\t// in\n    tag_437:\n        /* \"#utility.yul\":19896:19947   */\n      swap6\n      pop\n        /* \"#utility.yul\":19980:19984   */\n      dup1\n        /* \"#utility.yul\":19976:19985   */\n      not\n        /* \"#utility.yul\":19969:19974   */\n      dup5\n        /* \"#utility.yul\":19965:19986   */\n      and\n        /* \"#utility.yul\":19956:19986   */\n      swap4\n      pop\n        /* \"#utility.yul\":20029:20033   */\n      dup1\n        /* \"#utility.yul\":20019:20027   */\n      dup7\n        /* \"#utility.yul\":20015:20034   */\n      and\n        /* \"#utility.yul\":20008:20013   */\n      dup5\n        /* \"#utility.yul\":20005:20035   */\n      or\n        /* \"#utility.yul\":19995:20035   */\n      swap3\n      pop\n        /* \"#utility.yul\":19724:20041   */\n      pop\n      pop\n        /* \"#utility.yul\":19648:20041   */\n      swap4\n      swap3\n      pop\n      pop\n      pop\n      jump\t// out\n        /* \"#utility.yul\":20047:20107   */\n    tag_240:\n        /* \"#utility.yul\":20075:20078   */\n      0x00\n        /* \"#utility.yul\":20096:20101   */\n      dup2\n        /* \"#utility.yul\":20089:20101   */\n      swap1\n      pop\n        /* \"#utility.yul\":20047:20107   */\n      swap2\n      swap1\n      pop\n      jump\t// out\n        /* \"#utility.yul\":20113:20255   */\n    tag_241:\n        /* \"#utility.yul\":20163:20172   */\n      0x00\n        /* \"#utility.yul\":20196:20249   */\n      tag_440\n        /* \"#utility.yul\":20214:20248   */\n      tag_441\n        /* \"#utility.yul\":20223:20247   */\n      tag_442\n        /* \"#utility.yul\":20241:20246   */\n      dup5\n        /* \"#utility.yul\":20223:20247   */\n      tag_193\n      jump\t// in\n    tag_442:\n        /* \"#utility.yul\":20214:20248   */\n      tag_240\n      jump\t// in\n    tag_441:\n        /* \"#utility.yul\":20196:20249   */\n      tag_193\n      jump\t// in\n    tag_440:\n        /* \"#utility.yul\":20183:20249   */\n      swap1\n      pop\n        /* \"#utility.yul\":20113:20255   */\n      swap2\n      swap1\n      pop\n      jump\t// out\n        /* \"#utility.yul\":20261:20336   */\n    tag_242:\n        /* \"#utility.yul\":20304:20307   */\n      0x00\n        /* \"#utility.yul\":20325:20330   */\n      dup2\n        /* \"#utility.yul\":20318:20330   */\n      swap1\n      pop\n        /* \"#utility.yul\":20261:20336   */\n      swap2\n      swap1\n      pop\n      jump\t// out\n        /* \"#utility.yul\":20342:20611   */\n    tag_243:\n        /* \"#utility.yul\":20452:20491   */\n      tag_445\n        /* \"#utility.yul\":20483:20490   */\n      dup4\n        /* \"#utility.yul\":20452:20491   */\n      tag_241\n      jump\t// in\n    tag_445:\n        /* \"#utility.yul\":20513:20604   */\n      tag_446\n        /* \"#utility.yul\":20562:20603   */\n      tag_447\n        /* \"#utility.yul\":20586:20602   */\n      dup3\n        /* \"#utility.yul\":20562:20603   */\n      tag_242\n      jump\t// in\n    tag_447:\n        /* \"#utility.yul\":20554:20560   */\n      dup5\n        /* \"#utility.yul\":20547:20551   */\n      dup5\n        /* \"#utility.yul\":20541:20552   */\n      sload\n        /* \"#utility.yul\":20513:20604   */\n      tag_239\n      jump\t// in\n    tag_446:\n        /* \"#utility.yul\":20507:20511   */\n      dup3\n        /* \"#utility.yul\":20500:20605   */\n      sstore\n        /* \"#utility.yul\":20418:20611   */\n      pop\n        /* \"#utility.yul\":20342:20611   */\n      pop\n      pop\n      pop\n      jump\t// out\n        /* \"#utility.yul\":20617:20690   */\n    tag_244:\n        /* \"#utility.yul\":20662:20665   */\n      0x00\n        /* \"#utility.yul\":20617:20690   */\n      swap1\n      jump\t// out\n        /* \"#utility.yul\":20696:20885   */\n    tag_245:\n        /* \"#utility.yul\":20773:20805   */\n      tag_450\n      tag_244\n      jump\t// in\n    tag_450:\n        /* \"#utility.yul\":20814:20879   */\n      tag_451\n        /* \"#utility.yul\":20872:20878   */\n      dup2\n        /* \"#utility.yul\":20864:20870   */\n      dup5\n        /* \"#utility.yul\":20858:20862   */\n      dup5\n        /* \"#utility.yul\":20814:20879   */\n      tag_243\n      jump\t// in\n    tag_451:\n        /* \"#utility.yul\":20749:20885   */\n      pop\n        /* \"#utility.yul\":20696:20885   */\n      pop\n      pop\n      jump\t// out\n        /* \"#utility.yul\":20891:21077   */\n    tag_246:\n        /* \"#utility.yul\":20951:21071   */\n    tag_453:\n        /* \"#utility.yul\":20968:20971   */\n      dup2\n        /* \"#utility.yul\":20961:20966   */\n      dup2\n        /* \"#utility.yul\":20958:20972   */\n      lt\n        /* \"#utility.yul\":20951:21071   */\n      iszero\n      tag_455\n      jumpi\n        /* \"#utility.yul\":21022:21061   */\n      tag_456\n        /* \"#utility.yul\":21059:21060   */\n      0x00\n        /* \"#utility.yul\":21052:21057   */\n      dup3\n        /* \"#utility.yul\":21022:21061   */\n      tag_245\n      jump\t// in\n    tag_456:\n        /* \"#utility.yul\":20995:20996   */\n      0x01\n        /* \"#utility.yul\":20988:20993   */\n      dup2\n        /* \"#utility.yul\":20984:20997   */\n      add\n        /* \"#utility.yul\":20975:20997   */\n      swap1\n      pop\n        /* \"#utility.yul\":20951:21071   */\n      jump(tag_453)\n    tag_455:\n        /* \"#utility.yul\":20891:21077   */\n      pop\n      pop\n      jump\t// out\n        /* \"#utility.yul\":21083:21626   */\n    tag_247:\n        /* \"#utility.yul\":21184:21186   */\n      0x1f\n        /* \"#utility.yul\":21179:21182   */\n      dup3\n        /* \"#utility.yul\":21176:21187   */\n      gt\n        /* \"#utility.yul\":21173:21619   */\n      iszero\n      tag_458\n      jumpi\n        /* \"#utility.yul\":21218:21256   */\n      tag_459\n        /* \"#utility.yul\":21250:21255   */\n      dup2\n        /* \"#utility.yul\":21218:21256   */\n      tag_236\n      jump\t// in\n    tag_459:\n        /* \"#utility.yul\":21302:21331   */\n      tag_460\n        /* \"#utility.yul\":21320:21330   */\n      dup5\n        /* \"#utility.yul\":21302:21331   */\n      tag_237\n      jump\t// in\n    tag_460:\n        /* \"#utility.yul\":21292:21300   */\n      dup2\n        /* \"#utility.yul\":21288:21332   */\n      add\n        /* \"#utility.yul\":21485:21487   */\n      0x20\n        /* \"#utility.yul\":21473:21483   */\n      dup6\n        /* \"#utility.yul\":21470:21488   */\n      lt\n        /* \"#utility.yul\":21467:21516   */\n      iszero\n      tag_461\n      jumpi\n        /* \"#utility.yul\":21506:21514   */\n      dup2\n        /* \"#utility.yul\":21491:21514   */\n      swap1\n      pop\n        /* \"#utility.yul\":21467:21516   */\n    tag_461:\n        /* \"#utility.yul\":21529:21609   */\n      tag_462\n        /* \"#utility.yul\":21585:21607   */\n      tag_463\n        /* \"#utility.yul\":21603:21606   */\n      dup6\n        /* \"#utility.yul\":21585:21607   */\n      tag_237\n      jump\t// in\n    tag_463:\n        /* \"#utility.yul\":21575:21583   */\n      dup4\n        /* \"#utility.yul\":21571:21608   */\n      add\n        /* \"#utility.yul\":21558:21569   */\n      dup3\n        /* \"#utility.yul\":21529:21609   */\n      tag_246\n      jump\t// in\n    tag_462:\n        /* \"#utility.yul\":21188:21619   */\n      pop\n      pop\n        /* \"#utility.yul\":21173:21619   */\n    tag_458:\n        /* \"#utility.yul\":21083:21626   */\n      pop\n      pop\n      pop\n      jump\t// out\n        /* \"#utility.yul\":21632:21749   */\n    tag_248:\n        /* \"#utility.yul\":21686:21694   */\n      0x00\n        /* \"#utility.yul\":21736:21741   */\n      dup3\n        /* \"#utility.yul\":21730:21734   */\n      dup3\n        /* \"#utility.yul\":21726:21742   */\n      shr\n        /* \"#utility.yul\":21705:21742   */\n      swap1\n      pop\n        /* \"#utility.yul\":21632:21749   */\n      swap3\n      swap2\n      pop\n      pop\n      jump\t// out\n        /* \"#utility.yul\":21755:21924   */\n    tag_249:\n        /* \"#utility.yul\":21799:21805   */\n      0x00\n        /* \"#utility.yul\":21832:21883   */\n      tag_466\n        /* \"#utility.yul\":21880:21881   */\n      0x00\n        /* \"#utility.yul\":21876:21882   */\n      not\n        /* \"#utility.yul\":21868:21873   */\n      dup5\n        /* \"#utility.yul\":21865:21866   */\n      0x08\n        /* \"#utility.yul\":21861:21874   */\n      mul\n        /* \"#utility.yul\":21832:21883   */\n      tag_248\n      jump\t// in\n    tag_466:\n        /* \"#utility.yul\":21828:21884   */\n      not\n        /* \"#utility.yul\":21913:21917   */\n      dup1\n        /* \"#utility.yul\":21907:21911   */\n      dup4\n        /* \"#utility.yul\":21903:21918   */\n      and\n        /* \"#utility.yul\":21893:21918   */\n      swap2\n      pop\n        /* \"#utility.yul\":21806:21924   */\n      pop\n        /* \"#utility.yul\":21755:21924   */\n      swap3\n      swap2\n      pop\n      pop\n      jump\t// out\n        /* \"#utility.yul\":21929:22224   */\n    tag_250:\n        /* \"#utility.yul\":22005:22009   */\n      0x00\n        /* \"#utility.yul\":22151:22180   */\n      tag_468\n        /* \"#utility.yul\":22176:22179   */\n      dup4\n        /* \"#utility.yul\":22170:22174   */\n      dup4\n        /* \"#utility.yul\":22151:22180   */\n      tag_249\n      jump\t// in\n    tag_468:\n        /* \"#utility.yul\":22143:22180   */\n      swap2\n      pop\n        /* \"#utility.yul\":22213:22216   */\n      dup3\n        /* \"#utility.yul\":22210:22211   */\n      0x02\n        /* \"#utility.yul\":22206:22217   */\n      mul\n        /* \"#utility.yul\":22200:22204   */\n      dup3\n        /* \"#utility.yul\":22197:22218   */\n      or\n        /* \"#utility.yul\":22189:22218   */\n      swap1\n      pop\n        /* \"#utility.yul\":21929:22224   */\n      swap3\n      swap2\n      pop\n      pop\n      jump\t// out\n        /* \"#utility.yul\":22229:23624   */\n    tag_137:\n        /* \"#utility.yul\":22346:22383   */\n      tag_470\n        /* \"#utility.yul\":22379:22382   */\n      dup3\n        /* \"#utility.yul\":22346:22383   */\n      tag_198\n      jump\t// in\n    tag_470:\n        /* \"#utility.yul\":22448:22466   */\n      0xffffffffffffffff\n        /* \"#utility.yul\":22440:22446   */\n      dup2\n        /* \"#utility.yul\":22437:22467   */\n      gt\n        /* \"#utility.yul\":22434:22490   */\n      iszero\n      tag_471\n      jumpi\n        /* \"#utility.yul\":22470:22488   */\n      tag_472\n      tag_220\n      jump\t// in\n    tag_472:\n        /* \"#utility.yul\":22434:22490   */\n    tag_471:\n        /* \"#utility.yul\":22514:22552   */\n      tag_473\n        /* \"#utility.yul\":22546:22550   */\n      dup3\n        /* \"#utility.yul\":22540:22551   */\n      sload\n        /* \"#utility.yul\":22514:22552   */\n      tag_69\n      jump\t// in\n    tag_473:\n        /* \"#utility.yul\":22599:22666   */\n      tag_474\n        /* \"#utility.yul\":22659:22665   */\n      dup3\n        /* \"#utility.yul\":22651:22657   */\n      dup3\n        /* \"#utility.yul\":22645:22649   */\n      dup6\n        /* \"#utility.yul\":22599:22666   */\n      tag_247\n      jump\t// in\n    tag_474:\n        /* \"#utility.yul\":22693:22694   */\n      0x00\n        /* \"#utility.yul\":22717:22721   */\n      0x20\n        /* \"#utility.yul\":22704:22721   */\n      swap1\n      pop\n        /* \"#utility.yul\":22749:22751   */\n      0x1f\n        /* \"#utility.yul\":22741:22747   */\n      dup4\n        /* \"#utility.yul\":22738:22752   */\n      gt\n        /* \"#utility.yul\":22766:22767   */\n      0x01\n        /* \"#utility.yul\":22761:23379   */\n      dup2\n      eq\n      tag_476\n      jumpi\n        /* \"#utility.yul\":23423:23424   */\n      0x00\n        /* \"#utility.yul\":23440:23446   */\n      dup5\n        /* \"#utility.yul\":23437:23514   */\n      iszero\n      tag_477\n      jumpi\n        /* \"#utility.yul\":23489:23498   */\n      dup3\n        /* \"#utility.yul\":23484:23487   */\n      dup8\n        /* \"#utility.yul\":23480:23499   */\n      add\n        /* \"#utility.yul\":23474:23500   */\n      mload\n        /* \"#utility.yul\":23465:23500   */\n      swap1\n      pop\n        /* \"#utility.yul\":23437:23514   */\n    tag_477:\n        /* \"#utility.yul\":23540:23607   */\n      tag_478\n        /* \"#utility.yul\":23600:23606   */\n      dup6\n        /* \"#utility.yul\":23593:23598   */\n      dup3\n        /* \"#utility.yul\":23540:23607   */\n      tag_250\n      jump\t// in\n    tag_478:\n        /* \"#utility.yul\":23534:23538   */\n      dup7\n        /* \"#utility.yul\":23527:23608   */\n      sstore\n        /* \"#utility.yul\":23396:23618   */\n      pop\n        /* \"#utility.yul\":22731:23618   */\n      jump(tag_475)\n        /* \"#utility.yul\":22761:23379   */\n    tag_476:\n        /* \"#utility.yul\":22813:22817   */\n      0x1f\n        /* \"#utility.yul\":22809:22818   */\n      not\n        /* \"#utility.yul\":22801:22807   */\n      dup5\n        /* \"#utility.yul\":22797:22819   */\n      and\n        /* \"#utility.yul\":22847:22884   */\n      tag_479\n        /* \"#utility.yul\":22879:22883   */\n      dup7\n        /* \"#utility.yul\":22847:22884   */\n      tag_236\n      jump\t// in\n    tag_479:\n        /* \"#utility.yul\":22906:22907   */\n      0x00\n        /* \"#utility.yul\":22920:23128   */\n    tag_480:\n        /* \"#utility.yul\":22934:22941   */\n      dup3\n        /* \"#utility.yul\":22931:22932   */\n      dup2\n        /* \"#utility.yul\":22928:22942   */\n      lt\n        /* \"#utility.yul\":22920:23128   */\n      iszero\n      tag_482\n      jumpi\n        /* \"#utility.yul\":23013:23022   */\n      dup5\n        /* \"#utility.yul\":23008:23011   */\n      dup10\n        /* \"#utility.yul\":23004:23023   */\n      add\n        /* \"#utility.yul\":22998:23024   */\n      mload\n        /* \"#utility.yul\":22990:22996   */\n      dup3\n        /* \"#utility.yul\":22983:23025   */\n      sstore\n        /* \"#utility.yul\":23064:23065   */\n      0x01\n        /* \"#utility.yul\":23056:23062   */\n      dup3\n        /* \"#utility.yul\":23052:23066   */\n      add\n        /* \"#utility.yul\":23042:23066   */\n      swap2\n      pop\n        /* \"#utility.yul\":23111:23113   */\n      0x20\n        /* \"#utility.yul\":23100:23109   */\n      dup6\n        /* \"#utility.yul\":23096:23114   */\n      add\n        /* \"#utility.yul\":23083:23114   */\n      swap5\n      pop\n        /* \"#utility.yul\":22957:22961   */\n      0x20\n        /* \"#utility.yul\":22954:22955   */\n      dup2\n        /* \"#utility.yul\":22950:22962   */\n      add\n        /* \"#utility.yul\":22945:22962   */\n      swap1\n      pop\n        /* \"#utility.yul\":22920:23128   */\n      jump(tag_480)\n    tag_482:\n        /* \"#utility.yul\":23156:23162   */\n      dup7\n        /* \"#utility.yul\":23147:23154   */\n      dup4\n        /* \"#utility.yul\":23144:23163   */\n      lt\n        /* \"#utility.yul\":23141:23320   */\n      iszero\n      tag_483\n      jumpi\n        /* \"#utility.yul\":23214:23223   */\n      dup5\n        /* \"#utility.yul\":23209:23212   */\n      dup10\n        /* \"#utility.yul\":23205:23224   */\n      add\n        /* \"#utility.yul\":23199:23225   */\n      mload\n        /* \"#utility.yul\":23257:23305   */\n      tag_484\n        /* \"#utility.yul\":23299:23303   */\n      0x1f\n        /* \"#utility.yul\":23291:23297   */\n      dup10\n        /* \"#utility.yul\":23287:23304   */\n      and\n        /* \"#utility.yul\":23276:23285   */\n      dup3\n        /* \"#utility.yul\":23257:23305   */\n      tag_249\n      jump\t// in\n    tag_484:\n        /* \"#utility.yul\":23249:23255   */\n      dup4\n        /* \"#utility.yul\":23242:23306   */\n      sstore\n        /* \"#utility.yul\":23164:23320   */\n      pop\n        /* \"#utility.yul\":23141:23320   */\n    tag_483:\n        /* \"#utility.yul\":23366:23367   */\n      0x01\n        /* \"#utility.yul\":23362:23363   */\n      0x02\n        /* \"#utility.yul\":23354:23360   */\n      dup9\n        /* \"#utility.yul\":23350:23364   */\n      mul\n        /* \"#utility.yul\":23346:23368   */\n      add\n        /* \"#utility.yul\":23340:23344   */\n      dup9\n        /* \"#utility.yul\":23333:23369   */\n      sstore\n        /* \"#utility.yul\":22768:23379   */\n      pop\n      pop\n      pop\n        /* \"#utility.yul\":22731:23618   */\n    tag_475:\n      pop\n        /* \"#utility.yul\":22321:23624   */\n      pop\n      pop\n      pop\n        /* \"#utility.yul\":22229:23624   */\n      pop\n      pop\n      jump\t// out\n        /* \"#utility.yul\":23630:24274   */\n    tag_139:\n        /* \"#utility.yul\":23827:23831   */\n      0x00\n        /* \"#utility.yul\":23865:23868   */\n      0x80\n        /* \"#utility.yul\":23854:23863   */\n      dup3\n        /* \"#utility.yul\":23850:23869   */\n      add\n        /* \"#utility.yul\":23842:23869   */\n      swap1\n      pop\n        /* \"#utility.yul\":23879:23950   */\n      tag_486\n        /* \"#utility.yul\":23947:23948   */\n      0x00\n        /* \"#utility.yul\":23936:23945   */\n      dup4\n        /* \"#utility.yul\":23932:23949   */\n      add\n        /* \"#utility.yul\":23923:23929   */\n      dup8\n        /* \"#utility.yul\":23879:23950   */\n      tag_196\n      jump\t// in\n    tag_486:\n        /* \"#utility.yul\":23960:24032   */\n      tag_487\n        /* \"#utility.yul\":24028:24030   */\n      0x20\n        /* \"#utility.yul\":24017:24026   */\n      dup4\n        /* \"#utility.yul\":24013:24031   */\n      add\n        /* \"#utility.yul\":24004:24010   */\n      dup7\n        /* \"#utility.yul\":23960:24032   */\n      tag_197\n      jump\t// in\n    tag_487:\n        /* \"#utility.yul\":24079:24088   */\n      dup2\n        /* \"#utility.yul\":24073:24077   */\n      dup2\n        /* \"#utility.yul\":24069:24089   */\n      sub\n        /* \"#utility.yul\":24064:24066   */\n      0x40\n        /* \"#utility.yul\":24053:24062   */\n      dup4\n        /* \"#utility.yul\":24049:24067   */\n      add\n        /* \"#utility.yul\":24042:24090   */\n      mstore\n        /* \"#utility.yul\":24107:24185   */\n      tag_488\n        /* \"#utility.yul\":24180:24184   */\n      dup2\n        /* \"#utility.yul\":24171:24177   */\n      dup6\n        /* \"#utility.yul\":24107:24185   */\n      tag_202\n      jump\t// in\n    tag_488:\n        /* \"#utility.yul\":24099:24185   */\n      swap1\n      pop\n        /* \"#utility.yul\":24195:24267   */\n      tag_489\n        /* \"#utility.yul\":24263:24265   */\n      0x60\n        /* \"#utility.yul\":24252:24261   */\n      dup4\n        /* \"#utility.yul\":24248:24266   */\n      add\n        /* \"#utility.yul\":24239:24245   */\n      dup5\n        /* \"#utility.yul\":24195:24267   */\n      tag_196\n      jump\t// in\n    tag_489:\n        /* \"#utility.yul\":23630:24274   */\n      swap6\n      swap5\n      pop\n      pop\n      pop\n      pop\n      pop\n      jump\t// out\n        /* \"#utility.yul\":24280:24471   */\n    tag_158:\n        /* \"#utility.yul\":24320:24323   */\n      0x00\n        /* \"#utility.yul\":24339:24359   */\n      tag_491\n        /* \"#utility.yul\":24357:24358   */\n      dup3\n        /* \"#utility.yul\":24339:24359   */\n      tag_193\n      jump\t// in\n    tag_491:\n        /* \"#utility.yul\":24334:24359   */\n      swap2\n      pop\n        /* \"#utility.yul\":24373:24393   */\n      tag_492\n        /* \"#utility.yul\":24391:24392   */\n      dup4\n        /* \"#utility.yul\":24373:24393   */\n      tag_193\n      jump\t// in\n    tag_492:\n        /* \"#utility.yul\":24368:24393   */\n      swap3\n      pop\n        /* \"#utility.yul\":24416:24417   */\n      dup3\n        /* \"#utility.yul\":24413:24414   */\n      dup3\n        /* \"#utility.yul\":24409:24418   */\n      add\n        /* \"#utility.yul\":24402:24418   */\n      swap1\n      pop\n        /* \"#utility.yul\":24437:24440   */\n      dup1\n        /* \"#utility.yul\":24434:24435   */\n      dup3\n        /* \"#utility.yul\":24431:24441   */\n      gt\n        /* \"#utility.yul\":24428:24464   */\n      iszero\n      tag_493\n      jumpi\n        /* \"#utility.yul\":24444:24462   */\n      tag_494\n      tag_233\n      jump\t// in\n    tag_494:\n        /* \"#utility.yul\":24428:24464   */\n    tag_493:\n        /* \"#utility.yul\":24280:24471   */\n      swap3\n      swap2\n      pop\n      pop\n      jump\t// out\n\n    auxdata: 0xa264697066735822122048e2ef3c6f9018d6e3f13226b1e29207f52ebf139e6f75770fb1dd51bc2b2f0464736f6c63430008180033\n}\n",
				"bytecode": {
					"linkReferences": {},
					"object": "60806040526101185f60146101000a81548161ffff021916908361ffff1602179055503480156200002e575f80fd5b50335f73ffffffffffffffffffffffffffffffffffffffff168173ffffffffffffffffffffffffffffffffffffffff1603620000a3575f6040517f1e4fbdf70000000000000000000000000000000000000000000000000000000081526004016200009a9190620001bf565b60405180910390fd5b620000b481620000bb60201b60201c565b50620001da565b5f805f9054906101000a900473ffffffffffffffffffffffffffffffffffffffff169050815f806101000a81548173ffffffffffffffffffffffffffffffffffffffff021916908373ffffffffffffffffffffffffffffffffffffffff1602179055508173ffffffffffffffffffffffffffffffffffffffff168173ffffffffffffffffffffffffffffffffffffffff167f8be0079c531659141344cd1fd0a4f28419497f9722a3daafe3b4186f6b6457e060405160405180910390a35050565b5f73ffffffffffffffffffffffffffffffffffffffff82169050919050565b5f620001a7826200017c565b9050919050565b620001b9816200019b565b82525050565b5f602082019050620001d45f830184620001ae565b92915050565b611d5280620001e85f395ff3fe608060405234801561000f575f80fd5b50600436106100b2575f3560e01c8063715018a61161006f578063715018a61461018c5780637c9cd2bc14610196578063820785cc146101b25780638da5cb5b146101e2578063c3ad5ecb14610200578063f2fde38b14610230576100b2565b806305a1b4a9146100b657806312e7ee1c146100ea5780633d9b569f1461011a57806358bfa4ab1461013657806363378216146101525780636eb107971461016e575b5f80fd5b6100d060048036038101906100cb9190611189565b61024c565b6040516100e195949392919061126f565b60405180910390f35b61010460048036038101906100ff91906112c7565b61033d565b6040516101119190611486565b60405180910390f35b610134600480360381019061012f9190611189565b6104d8565b005b610150600480360381019061014b91906114dd565b610729565b005b61016c60048036038101906101679190611189565b610750565b005b610176610901565b6040516101839190611517565b60405180910390f35b610194610914565b005b6101b060048036038101906101ab919061165c565b610927565b005b6101cc60048036038101906101c791906112c7565b610b2c565b6040516101d991906116a3565b60405180910390f35b6101ea610d39565b6040516101f791906116bc565b60405180910390f35b61021a600480360381019061021591906116d5565b610d60565b6040516102279190611773565b60405180910390f35b61024a600480360381019061024591906112c7565b610ed7565b005b6001602052815f5260405f208181548110610265575f80fd5b905f5260205f2090600502015f9150915050805f015490806001015f9054906101000a900473ffffffffffffffffffffffffffffffffffffffff16908060020180546102b0906117c0565b80601f01602080910402602001604051908101604052809291908181526020018280546102dc906117c0565b80156103275780601f106102fe57610100808354040283529160200191610327565b820191905f5260205f20905b81548152906001019060200180831161030a57829003601f168201915b5050505050908060030154908060040154905085565b606060015f8373ffffffffffffffffffffffffffffffffffffffff1673ffffffffffffffffffffffffffffffffffffffff1681526020019081526020015f20805480602002602001604051908101604052809291908181526020015f905b828210156104cd578382905f5260205f2090600502016040518060a00160405290815f8201548152602001600182015f9054906101000a900473ffffffffffffffffffffffffffffffffffffffff1673ffffffffffffffffffffffffffffffffffffffff1673ffffffffffffffffffffffffffffffffffffffff16815260200160028201805461042a906117c0565b80601f0160208091040260200160405190810160405280929190818152602001828054610456906117c0565b80156104a15780601f10610478576101008083540402835291602001916104a1565b820191905f5260205f20905b81548152906001019060200180831161048457829003601f168201915b50505050508152602001600382015481526020016004820154815250508152602001906001019061039b565b505050509050919050565b8060015f8473ffffffffffffffffffffffffffffffffffffffff1673ffffffffffffffffffffffffffffffffffffffff1681526020019081526020015f208281548110610528576105276117f0565b5b905f5260205f2090600502015f015414610577576040517f08c379a000000000000000000000000000000000000000000000000000000000815260040161056e90611867565b60405180910390fd5b5f60015f8473ffffffffffffffffffffffffffffffffffffffff1673ffffffffffffffffffffffffffffffffffffffff1681526020019081526020015f2082815481106105c7576105c66117f0565b5b905f5260205f2090600502016004015411610617576040517f08c379a000000000000000000000000000000000000000000000000000000000815260040161060e906118cf565b60405180910390fd5b60015f8373ffffffffffffffffffffffffffffffffffffffff1673ffffffffffffffffffffffffffffffffffffffff1681526020019081526020015f208181548110610666576106656117f0565b5b905f5260205f2090600502016004015f8154809291906106859061191a565b91905055507f762c2616349603ac16eba0de8e6141b79129a07ab63bd99e0a80b3a47171694333838360015f8773ffffffffffffffffffffffffffffffffffffffff1673ffffffffffffffffffffffffffffffffffffffff1681526020019081526020015f2085815481106106fd576106fc6117f0565b5b905f5260205f2090600502016004015460405161071d9493929190611941565b60405180910390a15050565b610731610f5b565b805f60146101000a81548161ffff021916908361ffff16021790555050565b8060015f8473ffffffffffffffffffffffffffffffffffffffff1673ffffffffffffffffffffffffffffffffffffffff1681526020019081526020015f2082815481106107a05761079f6117f0565b5b905f5260205f2090600502015f0154146107ef576040517f08c379a00000000000000000000000000000000000000000000000000000000081526004016107e690611867565b60405180910390fd5b60015f8373ffffffffffffffffffffffffffffffffffffffff1673ffffffffffffffffffffffffffffffffffffffff1681526020019081526020015f20818154811061083e5761083d6117f0565b5b905f5260205f2090600502016004015f81548092919061085d90611984565b91905055507fe8a76fc0f16d11a00d1e93b689b63d76cf60af914dd3d915375dc41d01a0c3c833838360015f8773ffffffffffffffffffffffffffffffffffffffff1673ffffffffffffffffffffffffffffffffffffffff1681526020019081526020015f2085815481106108d5576108d46117f0565b5b905f5260205f209060050201600401546040516108f59493929190611941565b60405180910390a15050565b5f60149054906101000a900461ffff1681565b61091c610f5b565b6109255f610fe2565b565b5f60149054906101000a900461ffff1661ffff168151111561097e576040517f08c379a000000000000000000000000000000000000000000000000000000000815260040161097590611a15565b60405180910390fd5b5f6040518060a0016040528060015f3373ffffffffffffffffffffffffffffffffffffffff1673ffffffffffffffffffffffffffffffffffffffff1681526020019081526020015f208054905081526020013373ffffffffffffffffffffffffffffffffffffffff1681526020018381526020014281526020015f815250905060015f3373ffffffffffffffffffffffffffffffffffffffff1673ffffffffffffffffffffffffffffffffffffffff1681526020019081526020015f2081908060018154018082558091505060019003905f5260205f2090600502015f909190919091505f820151815f01556020820151816001015f6101000a81548173ffffffffffffffffffffffffffffffffffffffff021916908373ffffffffffffffffffffffffffffffffffffffff1602179055506040820151816002019081610ac59190611bd0565b50606082015181600301556080820151816004015550507f16fd3c13e9d46923e0a8bce11c7b473ec508a72e6c96cd2404b29ce972afc29e815f0151826020015183604001518460600151604051610b209493929190611c9f565b60405180910390a15050565b5f8060015f8473ffffffffffffffffffffffffffffffffffffffff1673ffffffffffffffffffffffffffffffffffffffff1681526020019081526020015f20805480602002602001604051908101604052809291908181526020015f905b82821015610cbc578382905f5260205f2090600502016040518060a00160405290815f8201548152602001600182015f9054906101000a900473ffffffffffffffffffffffffffffffffffffffff1673ffffffffffffffffffffffffffffffffffffffff1673ffffffffffffffffffffffffffffffffffffffff168152602001600282018054610c19906117c0565b80601f0160208091040260200160405190810160405280929190818152602001828054610c45906117c0565b8015610c905780601f10610c6757610100808354040283529160200191610c90565b820191905f5260205f20905b815481529060010190602001808311610c7357829003601f168201915b505050505081526020016003820154815260200160048201548152505081526020019060010190610b8a565b5050505090505f805b8251811015610d2e575f838281518110610ce257610ce16117f0565b5b6020026020010151608001511115610d2157828181518110610d0757610d066117f0565b5b60200260200101516080015182610d1e9190611ce9565b91505b8080600101915050610cc5565b508092505050919050565b5f805f9054906101000a900473ffffffffffffffffffffffffffffffffffffffff16905090565b610d686110aa565b60015f3373ffffffffffffffffffffffffffffffffffffffff1673ffffffffffffffffffffffffffffffffffffffff1681526020019081526020015f208281548110610db757610db66117f0565b5b905f5260205f2090600502016040518060a00160405290815f8201548152602001600182015f9054906101000a900473ffffffffffffffffffffffffffffffffffffffff1673ffffffffffffffffffffffffffffffffffffffff1673ffffffffffffffffffffffffffffffffffffffff168152602001600282018054610e3c906117c0565b80601f0160208091040260200160405190810160405280929190818152602001828054610e68906117c0565b8015610eb35780601f10610e8a57610100808354040283529160200191610eb3565b820191905f5260205f20905b815481529060010190602001808311610e9657829003601f168201915b50505050508152602001600382015481526020016004820154815250509050919050565b610edf610f5b565b5f73ffffffffffffffffffffffffffffffffffffffff168173ffffffffffffffffffffffffffffffffffffffff1603610f4f575f6040517f1e4fbdf7000000000000000000000000000000000000000000000000000000008152600401610f4691906116bc565b60405180910390fd5b610f5881610fe2565b50565b610f636110a3565b73ffffffffffffffffffffffffffffffffffffffff16610f81610d39565b73ffffffffffffffffffffffffffffffffffffffff1614610fe057610fa46110a3565b6040517f118cdaa7000000000000000000000000000000000000000000000000000000008152600401610fd791906116bc565b60405180910390fd5b565b5f805f9054906101000a900473ffffffffffffffffffffffffffffffffffffffff169050815f806101000a81548173ffffffffffffffffffffffffffffffffffffffff021916908373ffffffffffffffffffffffffffffffffffffffff1602179055508173ffffffffffffffffffffffffffffffffffffffff168173ffffffffffffffffffffffffffffffffffffffff167f8be0079c531659141344cd1fd0a4f28419497f9722a3daafe3b4186f6b6457e060405160405180910390a35050565b5f33905090565b6040518060a001604052805f81526020015f73ffffffffffffffffffffffffffffffffffffffff168152602001606081526020015f81526020015f81525090565b5f604051905090565b5f80fd5b5f80fd5b5f73ffffffffffffffffffffffffffffffffffffffff82169050919050565b5f611125826110fc565b9050919050565b6111358161111b565b811461113f575f80fd5b50565b5f813590506111508161112c565b92915050565b5f819050919050565b61116881611156565b8114611172575f80fd5b50565b5f813590506111838161115f565b92915050565b5f806040838503121561119f5761119e6110f4565b5b5f6111ac85828601611142565b92505060206111bd85828601611175565b9150509250929050565b6111d081611156565b82525050565b6111df8161111b565b82525050565b5f81519050919050565b5f82825260208201905092915050565b5f5b8381101561121c578082015181840152602081019050611201565b5f8484015250505050565b5f601f19601f8301169050919050565b5f611241826111e5565b61124b81856111ef565b935061125b8185602086016111ff565b61126481611227565b840191505092915050565b5f60a0820190506112825f8301886111c7565b61128f60208301876111d6565b81810360408301526112a18186611237565b90506112b060608301856111c7565b6112bd60808301846111c7565b9695505050505050565b5f602082840312156112dc576112db6110f4565b5b5f6112e984828501611142565b91505092915050565b5f81519050919050565b5f82825260208201905092915050565b5f819050602082019050919050565b61132481611156565b82525050565b6113338161111b565b82525050565b5f82825260208201905092915050565b5f611353826111e5565b61135d8185611339565b935061136d8185602086016111ff565b61137681611227565b840191505092915050565b5f60a083015f8301516113965f86018261131b565b5060208301516113a9602086018261132a565b50604083015184820360408601526113c18282611349565b91505060608301516113d6606086018261131b565b5060808301516113e9608086018261131b565b508091505092915050565b5f6113ff8383611381565b905092915050565b5f602082019050919050565b5f61141d826112f2565b61142781856112fc565b9350836020820285016114398561130c565b805f5b85811015611474578484038952815161145585826113f4565b945061146083611407565b925060208a0199505060018101905061143c565b50829750879550505050505092915050565b5f6020820190508181035f83015261149e8184611413565b905092915050565b5f61ffff82169050919050565b6114bc816114a6565b81146114c6575f80fd5b50565b5f813590506114d7816114b3565b92915050565b5f602082840312156114f2576114f16110f4565b5b5f6114ff848285016114c9565b91505092915050565b611511816114a6565b82525050565b5f60208201905061152a5f830184611508565b92915050565b5f80fd5b5f80fd5b7f4e487b71000000000000000000000000000000000000000000000000000000005f52604160045260245ffd5b61156e82611227565b810181811067ffffffffffffffff8211171561158d5761158c611538565b5b80604052505050565b5f61159f6110eb565b90506115ab8282611565565b919050565b5f67ffffffffffffffff8211156115ca576115c9611538565b5b6115d382611227565b9050602081019050919050565b828183375f83830152505050565b5f6116006115fb846115b0565b611596565b90508281526020810184848401111561161c5761161b611534565b5b6116278482856115e0565b509392505050565b5f82601f83011261164357611642611530565b5b81356116538482602086016115ee565b91505092915050565b5f60208284031215611671576116706110f4565b5b5f82013567ffffffffffffffff81111561168e5761168d6110f8565b5b61169a8482850161162f565b91505092915050565b5f6020820190506116b65f8301846111c7565b92915050565b5f6020820190506116cf5f8301846111d6565b92915050565b5f602082840312156116ea576116e96110f4565b5b5f6116f784828501611175565b91505092915050565b5f60a083015f8301516117155f86018261131b565b506020830151611728602086018261132a565b50604083015184820360408601526117408282611349565b9150506060830151611755606086018261131b565b506080830151611768608086018261131b565b508091505092915050565b5f6020820190508181035f83015261178b8184611700565b905092915050565b7f4e487b71000000000000000000000000000000000000000000000000000000005f52602260045260245ffd5b5f60028204905060018216806117d757607f821691505b6020821081036117ea576117e9611793565b5b50919050565b7f4e487b71000000000000000000000000000000000000000000000000000000005f52603260045260245ffd5b7f547765657420646f6573206e6f742065786973747300000000000000000000005f82015250565b5f6118516015836111ef565b915061185c8261181d565b602082019050919050565b5f6020820190508181035f83015261187e81611845565b9050919050565b7f547765657420686173206e6f204c696b657300000000000000000000000000005f82015250565b5f6118b96012836111ef565b91506118c482611885565b602082019050919050565b5f6020820190508181035f8301526118e6816118ad565b9050919050565b7f4e487b71000000000000000000000000000000000000000000000000000000005f52601160045260245ffd5b5f61192482611156565b91505f8203611936576119356118ed565b5b600182039050919050565b5f6080820190506119545f8301876111d6565b61196160208301866111d6565b61196e60408301856111c7565b61197b60608301846111c7565b95945050505050565b5f61198e82611156565b91507fffffffffffffffffffffffffffffffffffffffffffffffffffffffffffffffff82036119c0576119bf6118ed565b5b600182019050919050565b7f547765657420697320746f6f206c6f6e670000000000000000000000000000005f82015250565b5f6119ff6011836111ef565b9150611a0a826119cb565b602082019050919050565b5f6020820190508181035f830152611a2c816119f3565b9050919050565b5f819050815f5260205f209050919050565b5f6020601f8301049050919050565b5f82821b905092915050565b5f60088302611a8f7fffffffffffffffffffffffffffffffffffffffffffffffffffffffffffffffff82611a54565b611a998683611a54565b95508019841693508086168417925050509392505050565b5f819050919050565b5f611ad4611acf611aca84611156565b611ab1565b611156565b9050919050565b5f819050919050565b611aed83611aba565b611b01611af982611adb565b848454611a60565b825550505050565b5f90565b611b15611b09565b611b20818484611ae4565b505050565b5b81811015611b4357611b385f82611b0d565b600181019050611b26565b5050565b601f821115611b8857611b5981611a33565b611b6284611a45565b81016020851015611b71578190505b611b85611b7d85611a45565b830182611b25565b50505b505050565b5f82821c905092915050565b5f611ba85f1984600802611b8d565b1980831691505092915050565b5f611bc08383611b99565b9150826002028217905092915050565b611bd9826111e5565b67ffffffffffffffff811115611bf257611bf1611538565b5b611bfc82546117c0565b611c07828285611b47565b5f60209050601f831160018114611c38575f8415611c26578287015190505b611c308582611bb5565b865550611c97565b601f198416611c4686611a33565b5f5b82811015611c6d57848901518255600182019150602085019450602081019050611c48565b86831015611c8a5784890151611c86601f891682611b99565b8355505b6001600288020188555050505b505050505050565b5f608082019050611cb25f8301876111c7565b611cbf60208301866111d6565b8181036040830152611cd18185611237565b9050611ce060608301846111c7565b95945050505050565b5f611cf382611156565b9150611cfe83611156565b9250828201905080821115611d1657611d156118ed565b5b9291505056fea264697066735822122048e2ef3c6f9018d6e3f13226b1e29207f52ebf139e6f75770fb1dd51bc2b2f0464736f6c63430008180033",
					"opcodes": "PUSH1 0x80 PUSH1 0x40 MSTORE PUSH2 0x118 PUSH0 PUSH1 0x14 PUSH2 0x100 EXP DUP2 SLOAD DUP2 PUSH2 0xFFFF MUL NOT AND SWAP1 DUP4 PUSH2 0xFFFF AND MUL OR SWAP1 SSTORE POP CALLVALUE DUP1 ISZERO PUSH3 0x2E JUMPI PUSH0 DUP1 REVERT JUMPDEST POP CALLER PUSH0 PUSH20 0xFFFFFFFFFFFFFFFFFFFFFFFFFFFFFFFFFFFFFFFF AND DUP2 PUSH20 0xFFFFFFFFFFFFFFFFFFFFFFFFFFFFFFFFFFFFFFFF AND SUB PUSH3 0xA3 JUMPI PUSH0 PUSH1 0x40 MLOAD PUSH32 0x1E4FBDF700000000000000000000000000000000000000000000000000000000 DUP2 MSTORE PUSH1 0x4 ADD PUSH3 0x9A SWAP2 SWAP1 PUSH3 0x1BF JUMP JUMPDEST PUSH1 0x40 MLOAD DUP1 SWAP2 SUB SWAP1 REVERT JUMPDEST PUSH3 0xB4 DUP2 PUSH3 0xBB PUSH1 0x20 SHL PUSH1 0x20 SHR JUMP JUMPDEST POP PUSH3 0x1DA JUMP JUMPDEST PUSH0 DUP1 PUSH0 SWAP1 SLOAD SWAP1 PUSH2 0x100 EXP SWAP1 DIV PUSH20 0xFFFFFFFFFFFFFFFFFFFFFFFFFFFFFFFFFFFFFFFF AND SWAP1 POP DUP2 PUSH0 DUP1 PUSH2 0x100 EXP DUP2 SLOAD DUP2 PUSH20 0xFFFFFFFFFFFFFFFFFFFFFFFFFFFFFFFFFFFFFFFF MUL NOT AND SWAP1 DUP4 PUSH20 0xFFFFFFFFFFFFFFFFFFFFFFFFFFFFFFFFFFFFFFFF AND MUL OR SWAP1 SSTORE POP DUP2 PUSH20 0xFFFFFFFFFFFFFFFFFFFFFFFFFFFFFFFFFFFFFFFF AND DUP2 PUSH20 0xFFFFFFFFFFFFFFFFFFFFFFFFFFFFFFFFFFFFFFFF AND PUSH32 0x8BE0079C531659141344CD1FD0A4F28419497F9722A3DAAFE3B4186F6B6457E0 PUSH1 0x40 MLOAD PUSH1 0x40 MLOAD DUP1 SWAP2 SUB SWAP1 LOG3 POP POP JUMP JUMPDEST PUSH0 PUSH20 0xFFFFFFFFFFFFFFFFFFFFFFFFFFFFFFFFFFFFFFFF DUP3 AND SWAP1 POP SWAP2 SWAP1 POP JUMP JUMPDEST PUSH0 PUSH3 0x1A7 DUP3 PUSH3 0x17C JUMP JUMPDEST SWAP1 POP SWAP2 SWAP1 POP JUMP JUMPDEST PUSH3 0x1B9 DUP2 PUSH3 0x19B JUMP JUMPDEST DUP3 MSTORE POP POP JUMP JUMPDEST PUSH0 PUSH1 0x20 DUP3 ADD SWAP1 POP PUSH3 0x1D4 PUSH0 DUP4 ADD DUP5 PUSH3 0x1AE JUMP JUMPDEST SWAP3 SWAP2 POP POP JUMP JUMPDEST PUSH2 0x1D52 DUP1 PUSH3 0x1E8 PUSH0 CODECOPY PUSH0 RETURN INVALID PUSH1 0x80 PUSH1 0x40 MSTORE CALLVALUE DUP1 ISZERO PUSH2 0xF JUMPI PUSH0 DUP1 REVERT JUMPDEST POP PUSH1 0x4 CALLDATASIZE LT PUSH2 0xB2 JUMPI PUSH0 CALLDATALOAD PUSH1 0xE0 SHR DUP1 PUSH4 0x715018A6 GT PUSH2 0x6F JUMPI DUP1 PUSH4 0x715018A6 EQ PUSH2 0x18C JUMPI DUP1 PUSH4 0x7C9CD2BC EQ PUSH2 0x196 JUMPI DUP1 PUSH4 0x820785CC EQ PUSH2 0x1B2 JUMPI DUP1 PUSH4 0x8DA5CB5B EQ PUSH2 0x1E2 JUMPI DUP1 PUSH4 0xC3AD5ECB EQ PUSH2 0x200 JUMPI DUP1 PUSH4 0xF2FDE38B EQ PUSH2 0x230 JUMPI PUSH2 0xB2 JUMP JUMPDEST DUP1 PUSH4 0x5A1B4A9 EQ PUSH2 0xB6 JUMPI DUP1 PUSH4 0x12E7EE1C EQ PUSH2 0xEA JUMPI DUP1 PUSH4 0x3D9B569F EQ PUSH2 0x11A JUMPI DUP1 PUSH4 0x58BFA4AB EQ PUSH2 0x136 JUMPI DUP1 PUSH4 0x63378216 EQ PUSH2 0x152 JUMPI DUP1 PUSH4 0x6EB10797 EQ PUSH2 0x16E JUMPI JUMPDEST PUSH0 DUP1 REVERT JUMPDEST PUSH2 0xD0 PUSH1 0x4 DUP1 CALLDATASIZE SUB DUP2 ADD SWAP1 PUSH2 0xCB SWAP2 SWAP1 PUSH2 0x1189 JUMP JUMPDEST PUSH2 0x24C JUMP JUMPDEST PUSH1 0x40 MLOAD PUSH2 0xE1 SWAP6 SWAP5 SWAP4 SWAP3 SWAP2 SWAP1 PUSH2 0x126F JUMP JUMPDEST PUSH1 0x40 MLOAD DUP1 SWAP2 SUB SWAP1 RETURN JUMPDEST PUSH2 0x104 PUSH1 0x4 DUP1 CALLDATASIZE SUB DUP2 ADD SWAP1 PUSH2 0xFF SWAP2 SWAP1 PUSH2 0x12C7 JUMP JUMPDEST PUSH2 0x33D JUMP JUMPDEST PUSH1 0x40 MLOAD PUSH2 0x111 SWAP2 SWAP1 PUSH2 0x1486 JUMP JUMPDEST PUSH1 0x40 MLOAD DUP1 SWAP2 SUB SWAP1 RETURN JUMPDEST PUSH2 0x134 PUSH1 0x4 DUP1 CALLDATASIZE SUB DUP2 ADD SWAP1 PUSH2 0x12F SWAP2 SWAP1 PUSH2 0x1189 JUMP JUMPDEST PUSH2 0x4D8 JUMP JUMPDEST STOP JUMPDEST PUSH2 0x150 PUSH1 0x4 DUP1 CALLDATASIZE SUB DUP2 ADD SWAP1 PUSH2 0x14B SWAP2 SWAP1 PUSH2 0x14DD JUMP JUMPDEST PUSH2 0x729 JUMP JUMPDEST STOP JUMPDEST PUSH2 0x16C PUSH1 0x4 DUP1 CALLDATASIZE SUB DUP2 ADD SWAP1 PUSH2 0x167 SWAP2 SWAP1 PUSH2 0x1189 JUMP JUMPDEST PUSH2 0x750 JUMP JUMPDEST STOP JUMPDEST PUSH2 0x176 PUSH2 0x901 JUMP JUMPDEST PUSH1 0x40 MLOAD PUSH2 0x183 SWAP2 SWAP1 PUSH2 0x1517 JUMP JUMPDEST PUSH1 0x40 MLOAD DUP1 SWAP2 SUB SWAP1 RETURN JUMPDEST PUSH2 0x194 PUSH2 0x914 JUMP JUMPDEST STOP JUMPDEST PUSH2 0x1B0 PUSH1 0x4 DUP1 CALLDATASIZE SUB DUP2 ADD SWAP1 PUSH2 0x1AB SWAP2 SWAP1 PUSH2 0x165C JUMP JUMPDEST PUSH2 0x927 JUMP JUMPDEST STOP JUMPDEST PUSH2 0x1CC PUSH1 0x4 DUP1 CALLDATASIZE SUB DUP2 ADD SWAP1 PUSH2 0x1C7 SWAP2 SWAP1 PUSH2 0x12C7 JUMP JUMPDEST PUSH2 0xB2C JUMP JUMPDEST PUSH1 0x40 MLOAD PUSH2 0x1D9 SWAP2 SWAP1 PUSH2 0x16A3 JUMP JUMPDEST PUSH1 0x40 MLOAD DUP1 SWAP2 SUB SWAP1 RETURN JUMPDEST PUSH2 0x1EA PUSH2 0xD39 JUMP JUMPDEST PUSH1 0x40 MLOAD PUSH2 0x1F7 SWAP2 SWAP1 PUSH2 0x16BC JUMP JUMPDEST PUSH1 0x40 MLOAD DUP1 SWAP2 SUB SWAP1 RETURN JUMPDEST PUSH2 0x21A PUSH1 0x4 DUP1 CALLDATASIZE SUB DUP2 ADD SWAP1 PUSH2 0x215 SWAP2 SWAP1 PUSH2 0x16D5 JUMP JUMPDEST PUSH2 0xD60 JUMP JUMPDEST PUSH1 0x40 MLOAD PUSH2 0x227 SWAP2 SWAP1 PUSH2 0x1773 JUMP JUMPDEST PUSH1 0x40 MLOAD DUP1 SWAP2 SUB SWAP1 RETURN JUMPDEST PUSH2 0x24A PUSH1 0x4 DUP1 CALLDATASIZE SUB DUP2 ADD SWAP1 PUSH2 0x245 SWAP2 SWAP1 PUSH2 0x12C7 JUMP JUMPDEST PUSH2 0xED7 JUMP JUMPDEST STOP JUMPDEST PUSH1 0x1 PUSH1 0x20 MSTORE DUP2 PUSH0 MSTORE PUSH1 0x40 PUSH0 KECCAK256 DUP2 DUP2 SLOAD DUP2 LT PUSH2 0x265 JUMPI PUSH0 DUP1 REVERT JUMPDEST SWAP1 PUSH0 MSTORE PUSH1 0x20 PUSH0 KECCAK256 SWAP1 PUSH1 0x5 MUL ADD PUSH0 SWAP2 POP SWAP2 POP POP DUP1 PUSH0 ADD SLOAD SWAP1 DUP1 PUSH1 0x1 ADD PUSH0 SWAP1 SLOAD SWAP1 PUSH2 0x100 EXP SWAP1 DIV PUSH20 0xFFFFFFFFFFFFFFFFFFFFFFFFFFFFFFFFFFFFFFFF AND SWAP1 DUP1 PUSH1 0x2 ADD DUP1 SLOAD PUSH2 0x2B0 SWAP1 PUSH2 0x17C0 JUMP JUMPDEST DUP1 PUSH1 0x1F ADD PUSH1 0x20 DUP1 SWAP2 DIV MUL PUSH1 0x20 ADD PUSH1 0x40 MLOAD SWAP1 DUP2 ADD PUSH1 0x40 MSTORE DUP1 SWAP3 SWAP2 SWAP1 DUP2 DUP2 MSTORE PUSH1 0x20 ADD DUP3 DUP1 SLOAD PUSH2 0x2DC SWAP1 PUSH2 0x17C0 JUMP JUMPDEST DUP1 ISZERO PUSH2 0x327 JUMPI DUP1 PUSH1 0x1F LT PUSH2 0x2FE JUMPI PUSH2 0x100 DUP1 DUP4 SLOAD DIV MUL DUP4 MSTORE SWAP2 PUSH1 0x20 ADD SWAP2 PUSH2 0x327 JUMP JUMPDEST DUP3 ADD SWAP2 SWAP1 PUSH0 MSTORE PUSH1 0x20 PUSH0 KECCAK256 SWAP1 JUMPDEST DUP2 SLOAD DUP2 MSTORE SWAP1 PUSH1 0x1 ADD SWAP1 PUSH1 0x20 ADD DUP1 DUP4 GT PUSH2 0x30A JUMPI DUP3 SWAP1 SUB PUSH1 0x1F AND DUP3 ADD SWAP2 JUMPDEST POP POP POP POP POP SWAP1 DUP1 PUSH1 0x3 ADD SLOAD SWAP1 DUP1 PUSH1 0x4 ADD SLOAD SWAP1 POP DUP6 JUMP JUMPDEST PUSH1 0x60 PUSH1 0x1 PUSH0 DUP4 PUSH20 0xFFFFFFFFFFFFFFFFFFFFFFFFFFFFFFFFFFFFFFFF AND PUSH20 0xFFFFFFFFFFFFFFFFFFFFFFFFFFFFFFFFFFFFFFFF AND DUP2 MSTORE PUSH1 0x20 ADD SWAP1 DUP2 MSTORE PUSH1 0x20 ADD PUSH0 KECCAK256 DUP1 SLOAD DUP1 PUSH1 0x20 MUL PUSH1 0x20 ADD PUSH1 0x40 MLOAD SWAP1 DUP2 ADD PUSH1 0x40 MSTORE DUP1 SWAP3 SWAP2 SWAP1 DUP2 DUP2 MSTORE PUSH1 0x20 ADD PUSH0 SWAP1 JUMPDEST DUP3 DUP3 LT ISZERO PUSH2 0x4CD JUMPI DUP4 DUP3 SWAP1 PUSH0 MSTORE PUSH1 0x20 PUSH0 KECCAK256 SWAP1 PUSH1 0x5 MUL ADD PUSH1 0x40 MLOAD DUP1 PUSH1 0xA0 ADD PUSH1 0x40 MSTORE SWAP1 DUP2 PUSH0 DUP3 ADD SLOAD DUP2 MSTORE PUSH1 0x20 ADD PUSH1 0x1 DUP3 ADD PUSH0 SWAP1 SLOAD SWAP1 PUSH2 0x100 EXP SWAP1 DIV PUSH20 0xFFFFFFFFFFFFFFFFFFFFFFFFFFFFFFFFFFFFFFFF AND PUSH20 0xFFFFFFFFFFFFFFFFFFFFFFFFFFFFFFFFFFFFFFFF AND PUSH20 0xFFFFFFFFFFFFFFFFFFFFFFFFFFFFFFFFFFFFFFFF AND DUP2 MSTORE PUSH1 0x20 ADD PUSH1 0x2 DUP3 ADD DUP1 SLOAD PUSH2 0x42A SWAP1 PUSH2 0x17C0 JUMP JUMPDEST DUP1 PUSH1 0x1F ADD PUSH1 0x20 DUP1 SWAP2 DIV MUL PUSH1 0x20 ADD PUSH1 0x40 MLOAD SWAP1 DUP2 ADD PUSH1 0x40 MSTORE DUP1 SWAP3 SWAP2 SWAP1 DUP2 DUP2 MSTORE PUSH1 0x20 ADD DUP3 DUP1 SLOAD PUSH2 0x456 SWAP1 PUSH2 0x17C0 JUMP JUMPDEST DUP1 ISZERO PUSH2 0x4A1 JUMPI DUP1 PUSH1 0x1F LT PUSH2 0x478 JUMPI PUSH2 0x100 DUP1 DUP4 SLOAD DIV MUL DUP4 MSTORE SWAP2 PUSH1 0x20 ADD SWAP2 PUSH2 0x4A1 JUMP JUMPDEST DUP3 ADD SWAP2 SWAP1 PUSH0 MSTORE PUSH1 0x20 PUSH0 KECCAK256 SWAP1 JUMPDEST DUP2 SLOAD DUP2 MSTORE SWAP1 PUSH1 0x1 ADD SWAP1 PUSH1 0x20 ADD DUP1 DUP4 GT PUSH2 0x484 JUMPI DUP3 SWAP1 SUB PUSH1 0x1F AND DUP3 ADD SWAP2 JUMPDEST POP POP POP POP POP DUP2 MSTORE PUSH1 0x20 ADD PUSH1 0x3 DUP3 ADD SLOAD DUP2 MSTORE PUSH1 0x20 ADD PUSH1 0x4 DUP3 ADD SLOAD DUP2 MSTORE POP POP DUP2 MSTORE PUSH1 0x20 ADD SWAP1 PUSH1 0x1 ADD SWAP1 PUSH2 0x39B JUMP JUMPDEST POP POP POP POP SWAP1 POP SWAP2 SWAP1 POP JUMP JUMPDEST DUP1 PUSH1 0x1 PUSH0 DUP5 PUSH20 0xFFFFFFFFFFFFFFFFFFFFFFFFFFFFFFFFFFFFFFFF AND PUSH20 0xFFFFFFFFFFFFFFFFFFFFFFFFFFFFFFFFFFFFFFFF AND DUP2 MSTORE PUSH1 0x20 ADD SWAP1 DUP2 MSTORE PUSH1 0x20 ADD PUSH0 KECCAK256 DUP3 DUP2 SLOAD DUP2 LT PUSH2 0x528 JUMPI PUSH2 0x527 PUSH2 0x17F0 JUMP JUMPDEST JUMPDEST SWAP1 PUSH0 MSTORE PUSH1 0x20 PUSH0 KECCAK256 SWAP1 PUSH1 0x5 MUL ADD PUSH0 ADD SLOAD EQ PUSH2 0x577 JUMPI PUSH1 0x40 MLOAD PUSH32 0x8C379A000000000000000000000000000000000000000000000000000000000 DUP2 MSTORE PUSH1 0x4 ADD PUSH2 0x56E SWAP1 PUSH2 0x1867 JUMP JUMPDEST PUSH1 0x40 MLOAD DUP1 SWAP2 SUB SWAP1 REVERT JUMPDEST PUSH0 PUSH1 0x1 PUSH0 DUP5 PUSH20 0xFFFFFFFFFFFFFFFFFFFFFFFFFFFFFFFFFFFFFFFF AND PUSH20 0xFFFFFFFFFFFFFFFFFFFFFFFFFFFFFFFFFFFFFFFF AND DUP2 MSTORE PUSH1 0x20 ADD SWAP1 DUP2 MSTORE PUSH1 0x20 ADD PUSH0 KECCAK256 DUP3 DUP2 SLOAD DUP2 LT PUSH2 0x5C7 JUMPI PUSH2 0x5C6 PUSH2 0x17F0 JUMP JUMPDEST JUMPDEST SWAP1 PUSH0 MSTORE PUSH1 0x20 PUSH0 KECCAK256 SWAP1 PUSH1 0x5 MUL ADD PUSH1 0x4 ADD SLOAD GT PUSH2 0x617 JUMPI PUSH1 0x40 MLOAD PUSH32 0x8C379A000000000000000000000000000000000000000000000000000000000 DUP2 MSTORE PUSH1 0x4 ADD PUSH2 0x60E SWAP1 PUSH2 0x18CF JUMP JUMPDEST PUSH1 0x40 MLOAD DUP1 SWAP2 SUB SWAP1 REVERT JUMPDEST PUSH1 0x1 PUSH0 DUP4 PUSH20 0xFFFFFFFFFFFFFFFFFFFFFFFFFFFFFFFFFFFFFFFF AND PUSH20 0xFFFFFFFFFFFFFFFFFFFFFFFFFFFFFFFFFFFFFFFF AND DUP2 MSTORE PUSH1 0x20 ADD SWAP1 DUP2 MSTORE PUSH1 0x20 ADD PUSH0 KECCAK256 DUP2 DUP2 SLOAD DUP2 LT PUSH2 0x666 JUMPI PUSH2 0x665 PUSH2 0x17F0 JUMP JUMPDEST JUMPDEST SWAP1 PUSH0 MSTORE PUSH1 0x20 PUSH0 KECCAK256 SWAP1 PUSH1 0x5 MUL ADD PUSH1 0x4 ADD PUSH0 DUP2 SLOAD DUP1 SWAP3 SWAP2 SWAP1 PUSH2 0x685 SWAP1 PUSH2 0x191A JUMP JUMPDEST SWAP2 SWAP1 POP SSTORE POP PUSH32 0x762C2616349603AC16EBA0DE8E6141B79129A07AB63BD99E0A80B3A471716943 CALLER DUP4 DUP4 PUSH1 0x1 PUSH0 DUP8 PUSH20 0xFFFFFFFFFFFFFFFFFFFFFFFFFFFFFFFFFFFFFFFF AND PUSH20 0xFFFFFFFFFFFFFFFFFFFFFFFFFFFFFFFFFFFFFFFF AND DUP2 MSTORE PUSH1 0x20 ADD SWAP1 DUP2 MSTORE PUSH1 0x20 ADD PUSH0 KECCAK256 DUP6 DUP2 SLOAD DUP2 LT PUSH2 0x6FD JUMPI PUSH2 0x6FC PUSH2 0x17F0 JUMP JUMPDEST JUMPDEST SWAP1 PUSH0 MSTORE PUSH1 0x20 PUSH0 KECCAK256 SWAP1 PUSH1 0x5 MUL ADD PUSH1 0x4 ADD SLOAD PUSH1 0x40 MLOAD PUSH2 0x71D SWAP5 SWAP4 SWAP3 SWAP2 SWAP1 PUSH2 0x1941 JUMP JUMPDEST PUSH1 0x40 MLOAD DUP1 SWAP2 SUB SWAP1 LOG1 POP POP JUMP JUMPDEST PUSH2 0x731 PUSH2 0xF5B JUMP JUMPDEST DUP1 PUSH0 PUSH1 0x14 PUSH2 0x100 EXP DUP2 SLOAD DUP2 PUSH2 0xFFFF MUL NOT AND SWAP1 DUP4 PUSH2 0xFFFF AND MUL OR SWAP1 SSTORE POP POP JUMP JUMPDEST DUP1 PUSH1 0x1 PUSH0 DUP5 PUSH20 0xFFFFFFFFFFFFFFFFFFFFFFFFFFFFFFFFFFFFFFFF AND PUSH20 0xFFFFFFFFFFFFFFFFFFFFFFFFFFFFFFFFFFFFFFFF AND DUP2 MSTORE PUSH1 0x20 ADD SWAP1 DUP2 MSTORE PUSH1 0x20 ADD PUSH0 KECCAK256 DUP3 DUP2 SLOAD DUP2 LT PUSH2 0x7A0 JUMPI PUSH2 0x79F PUSH2 0x17F0 JUMP JUMPDEST JUMPDEST SWAP1 PUSH0 MSTORE PUSH1 0x20 PUSH0 KECCAK256 SWAP1 PUSH1 0x5 MUL ADD PUSH0 ADD SLOAD EQ PUSH2 0x7EF JUMPI PUSH1 0x40 MLOAD PUSH32 0x8C379A000000000000000000000000000000000000000000000000000000000 DUP2 MSTORE PUSH1 0x4 ADD PUSH2 0x7E6 SWAP1 PUSH2 0x1867 JUMP JUMPDEST PUSH1 0x40 MLOAD DUP1 SWAP2 SUB SWAP1 REVERT JUMPDEST PUSH1 0x1 PUSH0 DUP4 PUSH20 0xFFFFFFFFFFFFFFFFFFFFFFFFFFFFFFFFFFFFFFFF AND PUSH20 0xFFFFFFFFFFFFFFFFFFFFFFFFFFFFFFFFFFFFFFFF AND DUP2 MSTORE PUSH1 0x20 ADD SWAP1 DUP2 MSTORE PUSH1 0x20 ADD PUSH0 KECCAK256 DUP2 DUP2 SLOAD DUP2 LT PUSH2 0x83E JUMPI PUSH2 0x83D PUSH2 0x17F0 JUMP JUMPDEST JUMPDEST SWAP1 PUSH0 MSTORE PUSH1 0x20 PUSH0 KECCAK256 SWAP1 PUSH1 0x5 MUL ADD PUSH1 0x4 ADD PUSH0 DUP2 SLOAD DUP1 SWAP3 SWAP2 SWAP1 PUSH2 0x85D SWAP1 PUSH2 0x1984 JUMP JUMPDEST SWAP2 SWAP1 POP SSTORE POP PUSH32 0xE8A76FC0F16D11A00D1E93B689B63D76CF60AF914DD3D915375DC41D01A0C3C8 CALLER DUP4 DUP4 PUSH1 0x1 PUSH0 DUP8 PUSH20 0xFFFFFFFFFFFFFFFFFFFFFFFFFFFFFFFFFFFFFFFF AND PUSH20 0xFFFFFFFFFFFFFFFFFFFFFFFFFFFFFFFFFFFFFFFF AND DUP2 MSTORE PUSH1 0x20 ADD SWAP1 DUP2 MSTORE PUSH1 0x20 ADD PUSH0 KECCAK256 DUP6 DUP2 SLOAD DUP2 LT PUSH2 0x8D5 JUMPI PUSH2 0x8D4 PUSH2 0x17F0 JUMP JUMPDEST JUMPDEST SWAP1 PUSH0 MSTORE PUSH1 0x20 PUSH0 KECCAK256 SWAP1 PUSH1 0x5 MUL ADD PUSH1 0x4 ADD SLOAD PUSH1 0x40 MLOAD PUSH2 0x8F5 SWAP5 SWAP4 SWAP3 SWAP2 SWAP1 PUSH2 0x1941 JUMP JUMPDEST PUSH1 0x40 MLOAD DUP1 SWAP2 SUB SWAP1 LOG1 POP POP JUMP JUMPDEST PUSH0 PUSH1 0x14 SWAP1 SLOAD SWAP1 PUSH2 0x100 EXP SWAP1 DIV PUSH2 0xFFFF AND DUP2 JUMP JUMPDEST PUSH2 0x91C PUSH2 0xF5B JUMP JUMPDEST PUSH2 0x925 PUSH0 PUSH2 0xFE2 JUMP JUMPDEST JUMP JUMPDEST PUSH0 PUSH1 0x14 SWAP1 SLOAD SWAP1 PUSH2 0x100 EXP SWAP1 DIV PUSH2 0xFFFF AND PUSH2 0xFFFF AND DUP2 MLOAD GT ISZERO PUSH2 0x97E JUMPI PUSH1 0x40 MLOAD PUSH32 0x8C379A000000000000000000000000000000000000000000000000000000000 DUP2 MSTORE PUSH1 0x4 ADD PUSH2 0x975 SWAP1 PUSH2 0x1A15 JUMP JUMPDEST PUSH1 0x40 MLOAD DUP1 SWAP2 SUB SWAP1 REVERT JUMPDEST PUSH0 PUSH1 0x40 MLOAD DUP1 PUSH1 0xA0 ADD PUSH1 0x40 MSTORE DUP1 PUSH1 0x1 PUSH0 CALLER PUSH20 0xFFFFFFFFFFFFFFFFFFFFFFFFFFFFFFFFFFFFFFFF AND PUSH20 0xFFFFFFFFFFFFFFFFFFFFFFFFFFFFFFFFFFFFFFFF AND DUP2 MSTORE PUSH1 0x20 ADD SWAP1 DUP2 MSTORE PUSH1 0x20 ADD PUSH0 KECCAK256 DUP1 SLOAD SWAP1 POP DUP2 MSTORE PUSH1 0x20 ADD CALLER PUSH20 0xFFFFFFFFFFFFFFFFFFFFFFFFFFFFFFFFFFFFFFFF AND DUP2 MSTORE PUSH1 0x20 ADD DUP4 DUP2 MSTORE PUSH1 0x20 ADD TIMESTAMP DUP2 MSTORE PUSH1 0x20 ADD PUSH0 DUP2 MSTORE POP SWAP1 POP PUSH1 0x1 PUSH0 CALLER PUSH20 0xFFFFFFFFFFFFFFFFFFFFFFFFFFFFFFFFFFFFFFFF AND PUSH20 0xFFFFFFFFFFFFFFFFFFFFFFFFFFFFFFFFFFFFFFFF AND DUP2 MSTORE PUSH1 0x20 ADD SWAP1 DUP2 MSTORE PUSH1 0x20 ADD PUSH0 KECCAK256 DUP2 SWAP1 DUP1 PUSH1 0x1 DUP2 SLOAD ADD DUP1 DUP3 SSTORE DUP1 SWAP2 POP POP PUSH1 0x1 SWAP1 SUB SWAP1 PUSH0 MSTORE PUSH1 0x20 PUSH0 KECCAK256 SWAP1 PUSH1 0x5 MUL ADD PUSH0 SWAP1 SWAP2 SWAP1 SWAP2 SWAP1 SWAP2 POP PUSH0 DUP3 ADD MLOAD DUP2 PUSH0 ADD SSTORE PUSH1 0x20 DUP3 ADD MLOAD DUP2 PUSH1 0x1 ADD PUSH0 PUSH2 0x100 EXP DUP2 SLOAD DUP2 PUSH20 0xFFFFFFFFFFFFFFFFFFFFFFFFFFFFFFFFFFFFFFFF MUL NOT AND SWAP1 DUP4 PUSH20 0xFFFFFFFFFFFFFFFFFFFFFFFFFFFFFFFFFFFFFFFF AND MUL OR SWAP1 SSTORE POP PUSH1 0x40 DUP3 ADD MLOAD DUP2 PUSH1 0x2 ADD SWAP1 DUP2 PUSH2 0xAC5 SWAP2 SWAP1 PUSH2 0x1BD0 JUMP JUMPDEST POP PUSH1 0x60 DUP3 ADD MLOAD DUP2 PUSH1 0x3 ADD SSTORE PUSH1 0x80 DUP3 ADD MLOAD DUP2 PUSH1 0x4 ADD SSTORE POP POP PUSH32 0x16FD3C13E9D46923E0A8BCE11C7B473EC508A72E6C96CD2404B29CE972AFC29E DUP2 PUSH0 ADD MLOAD DUP3 PUSH1 0x20 ADD MLOAD DUP4 PUSH1 0x40 ADD MLOAD DUP5 PUSH1 0x60 ADD MLOAD PUSH1 0x40 MLOAD PUSH2 0xB20 SWAP5 SWAP4 SWAP3 SWAP2 SWAP1 PUSH2 0x1C9F JUMP JUMPDEST PUSH1 0x40 MLOAD DUP1 SWAP2 SUB SWAP1 LOG1 POP POP JUMP JUMPDEST PUSH0 DUP1 PUSH1 0x1 PUSH0 DUP5 PUSH20 0xFFFFFFFFFFFFFFFFFFFFFFFFFFFFFFFFFFFFFFFF AND PUSH20 0xFFFFFFFFFFFFFFFFFFFFFFFFFFFFFFFFFFFFFFFF AND DUP2 MSTORE PUSH1 0x20 ADD SWAP1 DUP2 MSTORE PUSH1 0x20 ADD PUSH0 KECCAK256 DUP1 SLOAD DUP1 PUSH1 0x20 MUL PUSH1 0x20 ADD PUSH1 0x40 MLOAD SWAP1 DUP2 ADD PUSH1 0x40 MSTORE DUP1 SWAP3 SWAP2 SWAP1 DUP2 DUP2 MSTORE PUSH1 0x20 ADD PUSH0 SWAP1 JUMPDEST DUP3 DUP3 LT ISZERO PUSH2 0xCBC JUMPI DUP4 DUP3 SWAP1 PUSH0 MSTORE PUSH1 0x20 PUSH0 KECCAK256 SWAP1 PUSH1 0x5 MUL ADD PUSH1 0x40 MLOAD DUP1 PUSH1 0xA0 ADD PUSH1 0x40 MSTORE SWAP1 DUP2 PUSH0 DUP3 ADD SLOAD DUP2 MSTORE PUSH1 0x20 ADD PUSH1 0x1 DUP3 ADD PUSH0 SWAP1 SLOAD SWAP1 PUSH2 0x100 EXP SWAP1 DIV PUSH20 0xFFFFFFFFFFFFFFFFFFFFFFFFFFFFFFFFFFFFFFFF AND PUSH20 0xFFFFFFFFFFFFFFFFFFFFFFFFFFFFFFFFFFFFFFFF AND PUSH20 0xFFFFFFFFFFFFFFFFFFFFFFFFFFFFFFFFFFFFFFFF AND DUP2 MSTORE PUSH1 0x20 ADD PUSH1 0x2 DUP3 ADD DUP1 SLOAD PUSH2 0xC19 SWAP1 PUSH2 0x17C0 JUMP JUMPDEST DUP1 PUSH1 0x1F ADD PUSH1 0x20 DUP1 SWAP2 DIV MUL PUSH1 0x20 ADD PUSH1 0x40 MLOAD SWAP1 DUP2 ADD PUSH1 0x40 MSTORE DUP1 SWAP3 SWAP2 SWAP1 DUP2 DUP2 MSTORE PUSH1 0x20 ADD DUP3 DUP1 SLOAD PUSH2 0xC45 SWAP1 PUSH2 0x17C0 JUMP JUMPDEST DUP1 ISZERO PUSH2 0xC90 JUMPI DUP1 PUSH1 0x1F LT PUSH2 0xC67 JUMPI PUSH2 0x100 DUP1 DUP4 SLOAD DIV MUL DUP4 MSTORE SWAP2 PUSH1 0x20 ADD SWAP2 PUSH2 0xC90 JUMP JUMPDEST DUP3 ADD SWAP2 SWAP1 PUSH0 MSTORE PUSH1 0x20 PUSH0 KECCAK256 SWAP1 JUMPDEST DUP2 SLOAD DUP2 MSTORE SWAP1 PUSH1 0x1 ADD SWAP1 PUSH1 0x20 ADD DUP1 DUP4 GT PUSH2 0xC73 JUMPI DUP3 SWAP1 SUB PUSH1 0x1F AND DUP3 ADD SWAP2 JUMPDEST POP POP POP POP POP DUP2 MSTORE PUSH1 0x20 ADD PUSH1 0x3 DUP3 ADD SLOAD DUP2 MSTORE PUSH1 0x20 ADD PUSH1 0x4 DUP3 ADD SLOAD DUP2 MSTORE POP POP DUP2 MSTORE PUSH1 0x20 ADD SWAP1 PUSH1 0x1 ADD SWAP1 PUSH2 0xB8A JUMP JUMPDEST POP POP POP POP SWAP1 POP PUSH0 DUP1 JUMPDEST DUP3 MLOAD DUP2 LT ISZERO PUSH2 0xD2E JUMPI PUSH0 DUP4 DUP3 DUP2 MLOAD DUP2 LT PUSH2 0xCE2 JUMPI PUSH2 0xCE1 PUSH2 0x17F0 JUMP JUMPDEST JUMPDEST PUSH1 0x20 MUL PUSH1 0x20 ADD ADD MLOAD PUSH1 0x80 ADD MLOAD GT ISZERO PUSH2 0xD21 JUMPI DUP3 DUP2 DUP2 MLOAD DUP2 LT PUSH2 0xD07 JUMPI PUSH2 0xD06 PUSH2 0x17F0 JUMP JUMPDEST JUMPDEST PUSH1 0x20 MUL PUSH1 0x20 ADD ADD MLOAD PUSH1 0x80 ADD MLOAD DUP3 PUSH2 0xD1E SWAP2 SWAP1 PUSH2 0x1CE9 JUMP JUMPDEST SWAP2 POP JUMPDEST DUP1 DUP1 PUSH1 0x1 ADD SWAP2 POP POP PUSH2 0xCC5 JUMP JUMPDEST POP DUP1 SWAP3 POP POP POP SWAP2 SWAP1 POP JUMP JUMPDEST PUSH0 DUP1 PUSH0 SWAP1 SLOAD SWAP1 PUSH2 0x100 EXP SWAP1 DIV PUSH20 0xFFFFFFFFFFFFFFFFFFFFFFFFFFFFFFFFFFFFFFFF AND SWAP1 POP SWAP1 JUMP JUMPDEST PUSH2 0xD68 PUSH2 0x10AA JUMP JUMPDEST PUSH1 0x1 PUSH0 CALLER PUSH20 0xFFFFFFFFFFFFFFFFFFFFFFFFFFFFFFFFFFFFFFFF AND PUSH20 0xFFFFFFFFFFFFFFFFFFFFFFFFFFFFFFFFFFFFFFFF AND DUP2 MSTORE PUSH1 0x20 ADD SWAP1 DUP2 MSTORE PUSH1 0x20 ADD PUSH0 KECCAK256 DUP3 DUP2 SLOAD DUP2 LT PUSH2 0xDB7 JUMPI PUSH2 0xDB6 PUSH2 0x17F0 JUMP JUMPDEST JUMPDEST SWAP1 PUSH0 MSTORE PUSH1 0x20 PUSH0 KECCAK256 SWAP1 PUSH1 0x5 MUL ADD PUSH1 0x40 MLOAD DUP1 PUSH1 0xA0 ADD PUSH1 0x40 MSTORE SWAP1 DUP2 PUSH0 DUP3 ADD SLOAD DUP2 MSTORE PUSH1 0x20 ADD PUSH1 0x1 DUP3 ADD PUSH0 SWAP1 SLOAD SWAP1 PUSH2 0x100 EXP SWAP1 DIV PUSH20 0xFFFFFFFFFFFFFFFFFFFFFFFFFFFFFFFFFFFFFFFF AND PUSH20 0xFFFFFFFFFFFFFFFFFFFFFFFFFFFFFFFFFFFFFFFF AND PUSH20 0xFFFFFFFFFFFFFFFFFFFFFFFFFFFFFFFFFFFFFFFF AND DUP2 MSTORE PUSH1 0x20 ADD PUSH1 0x2 DUP3 ADD DUP1 SLOAD PUSH2 0xE3C SWAP1 PUSH2 0x17C0 JUMP JUMPDEST DUP1 PUSH1 0x1F ADD PUSH1 0x20 DUP1 SWAP2 DIV MUL PUSH1 0x20 ADD PUSH1 0x40 MLOAD SWAP1 DUP2 ADD PUSH1 0x40 MSTORE DUP1 SWAP3 SWAP2 SWAP1 DUP2 DUP2 MSTORE PUSH1 0x20 ADD DUP3 DUP1 SLOAD PUSH2 0xE68 SWAP1 PUSH2 0x17C0 JUMP JUMPDEST DUP1 ISZERO PUSH2 0xEB3 JUMPI DUP1 PUSH1 0x1F LT PUSH2 0xE8A JUMPI PUSH2 0x100 DUP1 DUP4 SLOAD DIV MUL DUP4 MSTORE SWAP2 PUSH1 0x20 ADD SWAP2 PUSH2 0xEB3 JUMP JUMPDEST DUP3 ADD SWAP2 SWAP1 PUSH0 MSTORE PUSH1 0x20 PUSH0 KECCAK256 SWAP1 JUMPDEST DUP2 SLOAD DUP2 MSTORE SWAP1 PUSH1 0x1 ADD SWAP1 PUSH1 0x20 ADD DUP1 DUP4 GT PUSH2 0xE96 JUMPI DUP3 SWAP1 SUB PUSH1 0x1F AND DUP3 ADD SWAP2 JUMPDEST POP POP POP POP POP DUP2 MSTORE PUSH1 0x20 ADD PUSH1 0x3 DUP3 ADD SLOAD DUP2 MSTORE PUSH1 0x20 ADD PUSH1 0x4 DUP3 ADD SLOAD DUP2 MSTORE POP POP SWAP1 POP SWAP2 SWAP1 POP JUMP JUMPDEST PUSH2 0xEDF PUSH2 0xF5B JUMP JUMPDEST PUSH0 PUSH20 0xFFFFFFFFFFFFFFFFFFFFFFFFFFFFFFFFFFFFFFFF AND DUP2 PUSH20 0xFFFFFFFFFFFFFFFFFFFFFFFFFFFFFFFFFFFFFFFF AND SUB PUSH2 0xF4F JUMPI PUSH0 PUSH1 0x40 MLOAD PUSH32 0x1E4FBDF700000000000000000000000000000000000000000000000000000000 DUP2 MSTORE PUSH1 0x4 ADD PUSH2 0xF46 SWAP2 SWAP1 PUSH2 0x16BC JUMP JUMPDEST PUSH1 0x40 MLOAD DUP1 SWAP2 SUB SWAP1 REVERT JUMPDEST PUSH2 0xF58 DUP2 PUSH2 0xFE2 JUMP JUMPDEST POP JUMP JUMPDEST PUSH2 0xF63 PUSH2 0x10A3 JUMP JUMPDEST PUSH20 0xFFFFFFFFFFFFFFFFFFFFFFFFFFFFFFFFFFFFFFFF AND PUSH2 0xF81 PUSH2 0xD39 JUMP JUMPDEST PUSH20 0xFFFFFFFFFFFFFFFFFFFFFFFFFFFFFFFFFFFFFFFF AND EQ PUSH2 0xFE0 JUMPI PUSH2 0xFA4 PUSH2 0x10A3 JUMP JUMPDEST PUSH1 0x40 MLOAD PUSH32 0x118CDAA700000000000000000000000000000000000000000000000000000000 DUP2 MSTORE PUSH1 0x4 ADD PUSH2 0xFD7 SWAP2 SWAP1 PUSH2 0x16BC JUMP JUMPDEST PUSH1 0x40 MLOAD DUP1 SWAP2 SUB SWAP1 REVERT JUMPDEST JUMP JUMPDEST PUSH0 DUP1 PUSH0 SWAP1 SLOAD SWAP1 PUSH2 0x100 EXP SWAP1 DIV PUSH20 0xFFFFFFFFFFFFFFFFFFFFFFFFFFFFFFFFFFFFFFFF AND SWAP1 POP DUP2 PUSH0 DUP1 PUSH2 0x100 EXP DUP2 SLOAD DUP2 PUSH20 0xFFFFFFFFFFFFFFFFFFFFFFFFFFFFFFFFFFFFFFFF MUL NOT AND SWAP1 DUP4 PUSH20 0xFFFFFFFFFFFFFFFFFFFFFFFFFFFFFFFFFFFFFFFF AND MUL OR SWAP1 SSTORE POP DUP2 PUSH20 0xFFFFFFFFFFFFFFFFFFFFFFFFFFFFFFFFFFFFFFFF AND DUP2 PUSH20 0xFFFFFFFFFFFFFFFFFFFFFFFFFFFFFFFFFFFFFFFF AND PUSH32 0x8BE0079C531659141344CD1FD0A4F28419497F9722A3DAAFE3B4186F6B6457E0 PUSH1 0x40 MLOAD PUSH1 0x40 MLOAD DUP1 SWAP2 SUB SWAP1 LOG3 POP POP JUMP JUMPDEST PUSH0 CALLER SWAP1 POP SWAP1 JUMP JUMPDEST PUSH1 0x40 MLOAD DUP1 PUSH1 0xA0 ADD PUSH1 0x40 MSTORE DUP1 PUSH0 DUP2 MSTORE PUSH1 0x20 ADD PUSH0 PUSH20 0xFFFFFFFFFFFFFFFFFFFFFFFFFFFFFFFFFFFFFFFF AND DUP2 MSTORE PUSH1 0x20 ADD PUSH1 0x60 DUP2 MSTORE PUSH1 0x20 ADD PUSH0 DUP2 MSTORE PUSH1 0x20 ADD PUSH0 DUP2 MSTORE POP SWAP1 JUMP JUMPDEST PUSH0 PUSH1 0x40 MLOAD SWAP1 POP SWAP1 JUMP JUMPDEST PUSH0 DUP1 REVERT JUMPDEST PUSH0 DUP1 REVERT JUMPDEST PUSH0 PUSH20 0xFFFFFFFFFFFFFFFFFFFFFFFFFFFFFFFFFFFFFFFF DUP3 AND SWAP1 POP SWAP2 SWAP1 POP JUMP JUMPDEST PUSH0 PUSH2 0x1125 DUP3 PUSH2 0x10FC JUMP JUMPDEST SWAP1 POP SWAP2 SWAP1 POP JUMP JUMPDEST PUSH2 0x1135 DUP2 PUSH2 0x111B JUMP JUMPDEST DUP2 EQ PUSH2 0x113F JUMPI PUSH0 DUP1 REVERT JUMPDEST POP JUMP JUMPDEST PUSH0 DUP2 CALLDATALOAD SWAP1 POP PUSH2 0x1150 DUP2 PUSH2 0x112C JUMP JUMPDEST SWAP3 SWAP2 POP POP JUMP JUMPDEST PUSH0 DUP2 SWAP1 POP SWAP2 SWAP1 POP JUMP JUMPDEST PUSH2 0x1168 DUP2 PUSH2 0x1156 JUMP JUMPDEST DUP2 EQ PUSH2 0x1172 JUMPI PUSH0 DUP1 REVERT JUMPDEST POP JUMP JUMPDEST PUSH0 DUP2 CALLDATALOAD SWAP1 POP PUSH2 0x1183 DUP2 PUSH2 0x115F JUMP JUMPDEST SWAP3 SWAP2 POP POP JUMP JUMPDEST PUSH0 DUP1 PUSH1 0x40 DUP4 DUP6 SUB SLT ISZERO PUSH2 0x119F JUMPI PUSH2 0x119E PUSH2 0x10F4 JUMP JUMPDEST JUMPDEST PUSH0 PUSH2 0x11AC DUP6 DUP3 DUP7 ADD PUSH2 0x1142 JUMP JUMPDEST SWAP3 POP POP PUSH1 0x20 PUSH2 0x11BD DUP6 DUP3 DUP7 ADD PUSH2 0x1175 JUMP JUMPDEST SWAP2 POP POP SWAP3 POP SWAP3 SWAP1 POP JUMP JUMPDEST PUSH2 0x11D0 DUP2 PUSH2 0x1156 JUMP JUMPDEST DUP3 MSTORE POP POP JUMP JUMPDEST PUSH2 0x11DF DUP2 PUSH2 0x111B JUMP JUMPDEST DUP3 MSTORE POP POP JUMP JUMPDEST PUSH0 DUP2 MLOAD SWAP1 POP SWAP2 SWAP1 POP JUMP JUMPDEST PUSH0 DUP3 DUP3 MSTORE PUSH1 0x20 DUP3 ADD SWAP1 POP SWAP3 SWAP2 POP POP JUMP JUMPDEST PUSH0 JUMPDEST DUP4 DUP2 LT ISZERO PUSH2 0x121C JUMPI DUP1 DUP3 ADD MLOAD DUP2 DUP5 ADD MSTORE PUSH1 0x20 DUP2 ADD SWAP1 POP PUSH2 0x1201 JUMP JUMPDEST PUSH0 DUP5 DUP5 ADD MSTORE POP POP POP POP JUMP JUMPDEST PUSH0 PUSH1 0x1F NOT PUSH1 0x1F DUP4 ADD AND SWAP1 POP SWAP2 SWAP1 POP JUMP JUMPDEST PUSH0 PUSH2 0x1241 DUP3 PUSH2 0x11E5 JUMP JUMPDEST PUSH2 0x124B DUP2 DUP6 PUSH2 0x11EF JUMP JUMPDEST SWAP4 POP PUSH2 0x125B DUP2 DUP6 PUSH1 0x20 DUP7 ADD PUSH2 0x11FF JUMP JUMPDEST PUSH2 0x1264 DUP2 PUSH2 0x1227 JUMP JUMPDEST DUP5 ADD SWAP2 POP POP SWAP3 SWAP2 POP POP JUMP JUMPDEST PUSH0 PUSH1 0xA0 DUP3 ADD SWAP1 POP PUSH2 0x1282 PUSH0 DUP4 ADD DUP9 PUSH2 0x11C7 JUMP JUMPDEST PUSH2 0x128F PUSH1 0x20 DUP4 ADD DUP8 PUSH2 0x11D6 JUMP JUMPDEST DUP2 DUP2 SUB PUSH1 0x40 DUP4 ADD MSTORE PUSH2 0x12A1 DUP2 DUP7 PUSH2 0x1237 JUMP JUMPDEST SWAP1 POP PUSH2 0x12B0 PUSH1 0x60 DUP4 ADD DUP6 PUSH2 0x11C7 JUMP JUMPDEST PUSH2 0x12BD PUSH1 0x80 DUP4 ADD DUP5 PUSH2 0x11C7 JUMP JUMPDEST SWAP7 SWAP6 POP POP POP POP POP POP JUMP JUMPDEST PUSH0 PUSH1 0x20 DUP3 DUP5 SUB SLT ISZERO PUSH2 0x12DC JUMPI PUSH2 0x12DB PUSH2 0x10F4 JUMP JUMPDEST JUMPDEST PUSH0 PUSH2 0x12E9 DUP5 DUP3 DUP6 ADD PUSH2 0x1142 JUMP JUMPDEST SWAP2 POP POP SWAP3 SWAP2 POP POP JUMP JUMPDEST PUSH0 DUP2 MLOAD SWAP1 POP SWAP2 SWAP1 POP JUMP JUMPDEST PUSH0 DUP3 DUP3 MSTORE PUSH1 0x20 DUP3 ADD SWAP1 POP SWAP3 SWAP2 POP POP JUMP JUMPDEST PUSH0 DUP2 SWAP1 POP PUSH1 0x20 DUP3 ADD SWAP1 POP SWAP2 SWAP1 POP JUMP JUMPDEST PUSH2 0x1324 DUP2 PUSH2 0x1156 JUMP JUMPDEST DUP3 MSTORE POP POP JUMP JUMPDEST PUSH2 0x1333 DUP2 PUSH2 0x111B JUMP JUMPDEST DUP3 MSTORE POP POP JUMP JUMPDEST PUSH0 DUP3 DUP3 MSTORE PUSH1 0x20 DUP3 ADD SWAP1 POP SWAP3 SWAP2 POP POP JUMP JUMPDEST PUSH0 PUSH2 0x1353 DUP3 PUSH2 0x11E5 JUMP JUMPDEST PUSH2 0x135D DUP2 DUP6 PUSH2 0x1339 JUMP JUMPDEST SWAP4 POP PUSH2 0x136D DUP2 DUP6 PUSH1 0x20 DUP7 ADD PUSH2 0x11FF JUMP JUMPDEST PUSH2 0x1376 DUP2 PUSH2 0x1227 JUMP JUMPDEST DUP5 ADD SWAP2 POP POP SWAP3 SWAP2 POP POP JUMP JUMPDEST PUSH0 PUSH1 0xA0 DUP4 ADD PUSH0 DUP4 ADD MLOAD PUSH2 0x1396 PUSH0 DUP7 ADD DUP3 PUSH2 0x131B JUMP JUMPDEST POP PUSH1 0x20 DUP4 ADD MLOAD PUSH2 0x13A9 PUSH1 0x20 DUP7 ADD DUP3 PUSH2 0x132A JUMP JUMPDEST POP PUSH1 0x40 DUP4 ADD MLOAD DUP5 DUP3 SUB PUSH1 0x40 DUP7 ADD MSTORE PUSH2 0x13C1 DUP3 DUP3 PUSH2 0x1349 JUMP JUMPDEST SWAP2 POP POP PUSH1 0x60 DUP4 ADD MLOAD PUSH2 0x13D6 PUSH1 0x60 DUP7 ADD DUP3 PUSH2 0x131B JUMP JUMPDEST POP PUSH1 0x80 DUP4 ADD MLOAD PUSH2 0x13E9 PUSH1 0x80 DUP7 ADD DUP3 PUSH2 0x131B JUMP JUMPDEST POP DUP1 SWAP2 POP POP SWAP3 SWAP2 POP POP JUMP JUMPDEST PUSH0 PUSH2 0x13FF DUP4 DUP4 PUSH2 0x1381 JUMP JUMPDEST SWAP1 POP SWAP3 SWAP2 POP POP JUMP JUMPDEST PUSH0 PUSH1 0x20 DUP3 ADD SWAP1 POP SWAP2 SWAP1 POP JUMP JUMPDEST PUSH0 PUSH2 0x141D DUP3 PUSH2 0x12F2 JUMP JUMPDEST PUSH2 0x1427 DUP2 DUP6 PUSH2 0x12FC JUMP JUMPDEST SWAP4 POP DUP4 PUSH1 0x20 DUP3 MUL DUP6 ADD PUSH2 0x1439 DUP6 PUSH2 0x130C JUMP JUMPDEST DUP1 PUSH0 JUMPDEST DUP6 DUP2 LT ISZERO PUSH2 0x1474 JUMPI DUP5 DUP5 SUB DUP10 MSTORE DUP2 MLOAD PUSH2 0x1455 DUP6 DUP3 PUSH2 0x13F4 JUMP JUMPDEST SWAP5 POP PUSH2 0x1460 DUP4 PUSH2 0x1407 JUMP JUMPDEST SWAP3 POP PUSH1 0x20 DUP11 ADD SWAP10 POP POP PUSH1 0x1 DUP2 ADD SWAP1 POP PUSH2 0x143C JUMP JUMPDEST POP DUP3 SWAP8 POP DUP8 SWAP6 POP POP POP POP POP POP SWAP3 SWAP2 POP POP JUMP JUMPDEST PUSH0 PUSH1 0x20 DUP3 ADD SWAP1 POP DUP2 DUP2 SUB PUSH0 DUP4 ADD MSTORE PUSH2 0x149E DUP2 DUP5 PUSH2 0x1413 JUMP JUMPDEST SWAP1 POP SWAP3 SWAP2 POP POP JUMP JUMPDEST PUSH0 PUSH2 0xFFFF DUP3 AND SWAP1 POP SWAP2 SWAP1 POP JUMP JUMPDEST PUSH2 0x14BC DUP2 PUSH2 0x14A6 JUMP JUMPDEST DUP2 EQ PUSH2 0x14C6 JUMPI PUSH0 DUP1 REVERT JUMPDEST POP JUMP JUMPDEST PUSH0 DUP2 CALLDATALOAD SWAP1 POP PUSH2 0x14D7 DUP2 PUSH2 0x14B3 JUMP JUMPDEST SWAP3 SWAP2 POP POP JUMP JUMPDEST PUSH0 PUSH1 0x20 DUP3 DUP5 SUB SLT ISZERO PUSH2 0x14F2 JUMPI PUSH2 0x14F1 PUSH2 0x10F4 JUMP JUMPDEST JUMPDEST PUSH0 PUSH2 0x14FF DUP5 DUP3 DUP6 ADD PUSH2 0x14C9 JUMP JUMPDEST SWAP2 POP POP SWAP3 SWAP2 POP POP JUMP JUMPDEST PUSH2 0x1511 DUP2 PUSH2 0x14A6 JUMP JUMPDEST DUP3 MSTORE POP POP JUMP JUMPDEST PUSH0 PUSH1 0x20 DUP3 ADD SWAP1 POP PUSH2 0x152A PUSH0 DUP4 ADD DUP5 PUSH2 0x1508 JUMP JUMPDEST SWAP3 SWAP2 POP POP JUMP JUMPDEST PUSH0 DUP1 REVERT JUMPDEST PUSH0 DUP1 REVERT JUMPDEST PUSH32 0x4E487B7100000000000000000000000000000000000000000000000000000000 PUSH0 MSTORE PUSH1 0x41 PUSH1 0x4 MSTORE PUSH1 0x24 PUSH0 REVERT JUMPDEST PUSH2 0x156E DUP3 PUSH2 0x1227 JUMP JUMPDEST DUP2 ADD DUP2 DUP2 LT PUSH8 0xFFFFFFFFFFFFFFFF DUP3 GT OR ISZERO PUSH2 0x158D JUMPI PUSH2 0x158C PUSH2 0x1538 JUMP JUMPDEST JUMPDEST DUP1 PUSH1 0x40 MSTORE POP POP POP JUMP JUMPDEST PUSH0 PUSH2 0x159F PUSH2 0x10EB JUMP JUMPDEST SWAP1 POP PUSH2 0x15AB DUP3 DUP3 PUSH2 0x1565 JUMP JUMPDEST SWAP2 SWAP1 POP JUMP JUMPDEST PUSH0 PUSH8 0xFFFFFFFFFFFFFFFF DUP3 GT ISZERO PUSH2 0x15CA JUMPI PUSH2 0x15C9 PUSH2 0x1538 JUMP JUMPDEST JUMPDEST PUSH2 0x15D3 DUP3 PUSH2 0x1227 JUMP JUMPDEST SWAP1 POP PUSH1 0x20 DUP2 ADD SWAP1 POP SWAP2 SWAP1 POP JUMP JUMPDEST DUP3 DUP2 DUP4 CALLDATACOPY PUSH0 DUP4 DUP4 ADD MSTORE POP POP POP JUMP JUMPDEST PUSH0 PUSH2 0x1600 PUSH2 0x15FB DUP5 PUSH2 0x15B0 JUMP JUMPDEST PUSH2 0x1596 JUMP JUMPDEST SWAP1 POP DUP3 DUP2 MSTORE PUSH1 0x20 DUP2 ADD DUP5 DUP5 DUP5 ADD GT ISZERO PUSH2 0x161C JUMPI PUSH2 0x161B PUSH2 0x1534 JUMP JUMPDEST JUMPDEST PUSH2 0x1627 DUP5 DUP3 DUP6 PUSH2 0x15E0 JUMP JUMPDEST POP SWAP4 SWAP3 POP POP POP JUMP JUMPDEST PUSH0 DUP3 PUSH1 0x1F DUP4 ADD SLT PUSH2 0x1643 JUMPI PUSH2 0x1642 PUSH2 0x1530 JUMP JUMPDEST JUMPDEST DUP2 CALLDATALOAD PUSH2 0x1653 DUP5 DUP3 PUSH1 0x20 DUP7 ADD PUSH2 0x15EE JUMP JUMPDEST SWAP2 POP POP SWAP3 SWAP2 POP POP JUMP JUMPDEST PUSH0 PUSH1 0x20 DUP3 DUP5 SUB SLT ISZERO PUSH2 0x1671 JUMPI PUSH2 0x1670 PUSH2 0x10F4 JUMP JUMPDEST JUMPDEST PUSH0 DUP3 ADD CALLDATALOAD PUSH8 0xFFFFFFFFFFFFFFFF DUP2 GT ISZERO PUSH2 0x168E JUMPI PUSH2 0x168D PUSH2 0x10F8 JUMP JUMPDEST JUMPDEST PUSH2 0x169A DUP5 DUP3 DUP6 ADD PUSH2 0x162F JUMP JUMPDEST SWAP2 POP POP SWAP3 SWAP2 POP POP JUMP JUMPDEST PUSH0 PUSH1 0x20 DUP3 ADD SWAP1 POP PUSH2 0x16B6 PUSH0 DUP4 ADD DUP5 PUSH2 0x11C7 JUMP JUMPDEST SWAP3 SWAP2 POP POP JUMP JUMPDEST PUSH0 PUSH1 0x20 DUP3 ADD SWAP1 POP PUSH2 0x16CF PUSH0 DUP4 ADD DUP5 PUSH2 0x11D6 JUMP JUMPDEST SWAP3 SWAP2 POP POP JUMP JUMPDEST PUSH0 PUSH1 0x20 DUP3 DUP5 SUB SLT ISZERO PUSH2 0x16EA JUMPI PUSH2 0x16E9 PUSH2 0x10F4 JUMP JUMPDEST JUMPDEST PUSH0 PUSH2 0x16F7 DUP5 DUP3 DUP6 ADD PUSH2 0x1175 JUMP JUMPDEST SWAP2 POP POP SWAP3 SWAP2 POP POP JUMP JUMPDEST PUSH0 PUSH1 0xA0 DUP4 ADD PUSH0 DUP4 ADD MLOAD PUSH2 0x1715 PUSH0 DUP7 ADD DUP3 PUSH2 0x131B JUMP JUMPDEST POP PUSH1 0x20 DUP4 ADD MLOAD PUSH2 0x1728 PUSH1 0x20 DUP7 ADD DUP3 PUSH2 0x132A JUMP JUMPDEST POP PUSH1 0x40 DUP4 ADD MLOAD DUP5 DUP3 SUB PUSH1 0x40 DUP7 ADD MSTORE PUSH2 0x1740 DUP3 DUP3 PUSH2 0x1349 JUMP JUMPDEST SWAP2 POP POP PUSH1 0x60 DUP4 ADD MLOAD PUSH2 0x1755 PUSH1 0x60 DUP7 ADD DUP3 PUSH2 0x131B JUMP JUMPDEST POP PUSH1 0x80 DUP4 ADD MLOAD PUSH2 0x1768 PUSH1 0x80 DUP7 ADD DUP3 PUSH2 0x131B JUMP JUMPDEST POP DUP1 SWAP2 POP POP SWAP3 SWAP2 POP POP JUMP JUMPDEST PUSH0 PUSH1 0x20 DUP3 ADD SWAP1 POP DUP2 DUP2 SUB PUSH0 DUP4 ADD MSTORE PUSH2 0x178B DUP2 DUP5 PUSH2 0x1700 JUMP JUMPDEST SWAP1 POP SWAP3 SWAP2 POP POP JUMP JUMPDEST PUSH32 0x4E487B7100000000000000000000000000000000000000000000000000000000 PUSH0 MSTORE PUSH1 0x22 PUSH1 0x4 MSTORE PUSH1 0x24 PUSH0 REVERT JUMPDEST PUSH0 PUSH1 0x2 DUP3 DIV SWAP1 POP PUSH1 0x1 DUP3 AND DUP1 PUSH2 0x17D7 JUMPI PUSH1 0x7F DUP3 AND SWAP2 POP JUMPDEST PUSH1 0x20 DUP3 LT DUP2 SUB PUSH2 0x17EA JUMPI PUSH2 0x17E9 PUSH2 0x1793 JUMP JUMPDEST JUMPDEST POP SWAP2 SWAP1 POP JUMP JUMPDEST PUSH32 0x4E487B7100000000000000000000000000000000000000000000000000000000 PUSH0 MSTORE PUSH1 0x32 PUSH1 0x4 MSTORE PUSH1 0x24 PUSH0 REVERT JUMPDEST PUSH32 0x547765657420646F6573206E6F74206578697374730000000000000000000000 PUSH0 DUP3 ADD MSTORE POP JUMP JUMPDEST PUSH0 PUSH2 0x1851 PUSH1 0x15 DUP4 PUSH2 0x11EF JUMP JUMPDEST SWAP2 POP PUSH2 0x185C DUP3 PUSH2 0x181D JUMP JUMPDEST PUSH1 0x20 DUP3 ADD SWAP1 POP SWAP2 SWAP1 POP JUMP JUMPDEST PUSH0 PUSH1 0x20 DUP3 ADD SWAP1 POP DUP2 DUP2 SUB PUSH0 DUP4 ADD MSTORE PUSH2 0x187E DUP2 PUSH2 0x1845 JUMP JUMPDEST SWAP1 POP SWAP2 SWAP1 POP JUMP JUMPDEST PUSH32 0x547765657420686173206E6F204C696B65730000000000000000000000000000 PUSH0 DUP3 ADD MSTORE POP JUMP JUMPDEST PUSH0 PUSH2 0x18B9 PUSH1 0x12 DUP4 PUSH2 0x11EF JUMP JUMPDEST SWAP2 POP PUSH2 0x18C4 DUP3 PUSH2 0x1885 JUMP JUMPDEST PUSH1 0x20 DUP3 ADD SWAP1 POP SWAP2 SWAP1 POP JUMP JUMPDEST PUSH0 PUSH1 0x20 DUP3 ADD SWAP1 POP DUP2 DUP2 SUB PUSH0 DUP4 ADD MSTORE PUSH2 0x18E6 DUP2 PUSH2 0x18AD JUMP JUMPDEST SWAP1 POP SWAP2 SWAP1 POP JUMP JUMPDEST PUSH32 0x4E487B7100000000000000000000000000000000000000000000000000000000 PUSH0 MSTORE PUSH1 0x11 PUSH1 0x4 MSTORE PUSH1 0x24 PUSH0 REVERT JUMPDEST PUSH0 PUSH2 0x1924 DUP3 PUSH2 0x1156 JUMP JUMPDEST SWAP2 POP PUSH0 DUP3 SUB PUSH2 0x1936 JUMPI PUSH2 0x1935 PUSH2 0x18ED JUMP JUMPDEST JUMPDEST PUSH1 0x1 DUP3 SUB SWAP1 POP SWAP2 SWAP1 POP JUMP JUMPDEST PUSH0 PUSH1 0x80 DUP3 ADD SWAP1 POP PUSH2 0x1954 PUSH0 DUP4 ADD DUP8 PUSH2 0x11D6 JUMP JUMPDEST PUSH2 0x1961 PUSH1 0x20 DUP4 ADD DUP7 PUSH2 0x11D6 JUMP JUMPDEST PUSH2 0x196E PUSH1 0x40 DUP4 ADD DUP6 PUSH2 0x11C7 JUMP JUMPDEST PUSH2 0x197B PUSH1 0x60 DUP4 ADD DUP5 PUSH2 0x11C7 JUMP JUMPDEST SWAP6 SWAP5 POP POP POP POP POP JUMP JUMPDEST PUSH0 PUSH2 0x198E DUP3 PUSH2 0x1156 JUMP JUMPDEST SWAP2 POP PUSH32 0xFFFFFFFFFFFFFFFFFFFFFFFFFFFFFFFFFFFFFFFFFFFFFFFFFFFFFFFFFFFFFFFF DUP3 SUB PUSH2 0x19C0 JUMPI PUSH2 0x19BF PUSH2 0x18ED JUMP JUMPDEST JUMPDEST PUSH1 0x1 DUP3 ADD SWAP1 POP SWAP2 SWAP1 POP JUMP JUMPDEST PUSH32 0x547765657420697320746F6F206C6F6E67000000000000000000000000000000 PUSH0 DUP3 ADD MSTORE POP JUMP JUMPDEST PUSH0 PUSH2 0x19FF PUSH1 0x11 DUP4 PUSH2 0x11EF JUMP JUMPDEST SWAP2 POP PUSH2 0x1A0A DUP3 PUSH2 0x19CB JUMP JUMPDEST PUSH1 0x20 DUP3 ADD SWAP1 POP SWAP2 SWAP1 POP JUMP JUMPDEST PUSH0 PUSH1 0x20 DUP3 ADD SWAP1 POP DUP2 DUP2 SUB PUSH0 DUP4 ADD MSTORE PUSH2 0x1A2C DUP2 PUSH2 0x19F3 JUMP JUMPDEST SWAP1 POP SWAP2 SWAP1 POP JUMP JUMPDEST PUSH0 DUP2 SWAP1 POP DUP2 PUSH0 MSTORE PUSH1 0x20 PUSH0 KECCAK256 SWAP1 POP SWAP2 SWAP1 POP JUMP JUMPDEST PUSH0 PUSH1 0x20 PUSH1 0x1F DUP4 ADD DIV SWAP1 POP SWAP2 SWAP1 POP JUMP JUMPDEST PUSH0 DUP3 DUP3 SHL SWAP1 POP SWAP3 SWAP2 POP POP JUMP JUMPDEST PUSH0 PUSH1 0x8 DUP4 MUL PUSH2 0x1A8F PUSH32 0xFFFFFFFFFFFFFFFFFFFFFFFFFFFFFFFFFFFFFFFFFFFFFFFFFFFFFFFFFFFFFFFF DUP3 PUSH2 0x1A54 JUMP JUMPDEST PUSH2 0x1A99 DUP7 DUP4 PUSH2 0x1A54 JUMP JUMPDEST SWAP6 POP DUP1 NOT DUP5 AND SWAP4 POP DUP1 DUP7 AND DUP5 OR SWAP3 POP POP POP SWAP4 SWAP3 POP POP POP JUMP JUMPDEST PUSH0 DUP2 SWAP1 POP SWAP2 SWAP1 POP JUMP JUMPDEST PUSH0 PUSH2 0x1AD4 PUSH2 0x1ACF PUSH2 0x1ACA DUP5 PUSH2 0x1156 JUMP JUMPDEST PUSH2 0x1AB1 JUMP JUMPDEST PUSH2 0x1156 JUMP JUMPDEST SWAP1 POP SWAP2 SWAP1 POP JUMP JUMPDEST PUSH0 DUP2 SWAP1 POP SWAP2 SWAP1 POP JUMP JUMPDEST PUSH2 0x1AED DUP4 PUSH2 0x1ABA JUMP JUMPDEST PUSH2 0x1B01 PUSH2 0x1AF9 DUP3 PUSH2 0x1ADB JUMP JUMPDEST DUP5 DUP5 SLOAD PUSH2 0x1A60 JUMP JUMPDEST DUP3 SSTORE POP POP POP POP JUMP JUMPDEST PUSH0 SWAP1 JUMP JUMPDEST PUSH2 0x1B15 PUSH2 0x1B09 JUMP JUMPDEST PUSH2 0x1B20 DUP2 DUP5 DUP5 PUSH2 0x1AE4 JUMP JUMPDEST POP POP POP JUMP JUMPDEST JUMPDEST DUP2 DUP2 LT ISZERO PUSH2 0x1B43 JUMPI PUSH2 0x1B38 PUSH0 DUP3 PUSH2 0x1B0D JUMP JUMPDEST PUSH1 0x1 DUP2 ADD SWAP1 POP PUSH2 0x1B26 JUMP JUMPDEST POP POP JUMP JUMPDEST PUSH1 0x1F DUP3 GT ISZERO PUSH2 0x1B88 JUMPI PUSH2 0x1B59 DUP2 PUSH2 0x1A33 JUMP JUMPDEST PUSH2 0x1B62 DUP5 PUSH2 0x1A45 JUMP JUMPDEST DUP2 ADD PUSH1 0x20 DUP6 LT ISZERO PUSH2 0x1B71 JUMPI DUP2 SWAP1 POP JUMPDEST PUSH2 0x1B85 PUSH2 0x1B7D DUP6 PUSH2 0x1A45 JUMP JUMPDEST DUP4 ADD DUP3 PUSH2 0x1B25 JUMP JUMPDEST POP POP JUMPDEST POP POP POP JUMP JUMPDEST PUSH0 DUP3 DUP3 SHR SWAP1 POP SWAP3 SWAP2 POP POP JUMP JUMPDEST PUSH0 PUSH2 0x1BA8 PUSH0 NOT DUP5 PUSH1 0x8 MUL PUSH2 0x1B8D JUMP JUMPDEST NOT DUP1 DUP4 AND SWAP2 POP POP SWAP3 SWAP2 POP POP JUMP JUMPDEST PUSH0 PUSH2 0x1BC0 DUP4 DUP4 PUSH2 0x1B99 JUMP JUMPDEST SWAP2 POP DUP3 PUSH1 0x2 MUL DUP3 OR SWAP1 POP SWAP3 SWAP2 POP POP JUMP JUMPDEST PUSH2 0x1BD9 DUP3 PUSH2 0x11E5 JUMP JUMPDEST PUSH8 0xFFFFFFFFFFFFFFFF DUP2 GT ISZERO PUSH2 0x1BF2 JUMPI PUSH2 0x1BF1 PUSH2 0x1538 JUMP JUMPDEST JUMPDEST PUSH2 0x1BFC DUP3 SLOAD PUSH2 0x17C0 JUMP JUMPDEST PUSH2 0x1C07 DUP3 DUP3 DUP6 PUSH2 0x1B47 JUMP JUMPDEST PUSH0 PUSH1 0x20 SWAP1 POP PUSH1 0x1F DUP4 GT PUSH1 0x1 DUP2 EQ PUSH2 0x1C38 JUMPI PUSH0 DUP5 ISZERO PUSH2 0x1C26 JUMPI DUP3 DUP8 ADD MLOAD SWAP1 POP JUMPDEST PUSH2 0x1C30 DUP6 DUP3 PUSH2 0x1BB5 JUMP JUMPDEST DUP7 SSTORE POP PUSH2 0x1C97 JUMP JUMPDEST PUSH1 0x1F NOT DUP5 AND PUSH2 0x1C46 DUP7 PUSH2 0x1A33 JUMP JUMPDEST PUSH0 JUMPDEST DUP3 DUP2 LT ISZERO PUSH2 0x1C6D JUMPI DUP5 DUP10 ADD MLOAD DUP3 SSTORE PUSH1 0x1 DUP3 ADD SWAP2 POP PUSH1 0x20 DUP6 ADD SWAP5 POP PUSH1 0x20 DUP2 ADD SWAP1 POP PUSH2 0x1C48 JUMP JUMPDEST DUP7 DUP4 LT ISZERO PUSH2 0x1C8A JUMPI DUP5 DUP10 ADD MLOAD PUSH2 0x1C86 PUSH1 0x1F DUP10 AND DUP3 PUSH2 0x1B99 JUMP JUMPDEST DUP4 SSTORE POP JUMPDEST PUSH1 0x1 PUSH1 0x2 DUP9 MUL ADD DUP9 SSTORE POP POP POP JUMPDEST POP POP POP POP POP POP JUMP JUMPDEST PUSH0 PUSH1 0x80 DUP3 ADD SWAP1 POP PUSH2 0x1CB2 PUSH0 DUP4 ADD DUP8 PUSH2 0x11C7 JUMP JUMPDEST PUSH2 0x1CBF PUSH1 0x20 DUP4 ADD DUP7 PUSH2 0x11D6 JUMP JUMPDEST DUP2 DUP2 SUB PUSH1 0x40 DUP4 ADD MSTORE PUSH2 0x1CD1 DUP2 DUP6 PUSH2 0x1237 JUMP JUMPDEST SWAP1 POP PUSH2 0x1CE0 PUSH1 0x60 DUP4 ADD DUP5 PUSH2 0x11C7 JUMP JUMPDEST SWAP6 SWAP5 POP POP POP POP POP JUMP JUMPDEST PUSH0 PUSH2 0x1CF3 DUP3 PUSH2 0x1156 JUMP JUMPDEST SWAP2 POP PUSH2 0x1CFE DUP4 PUSH2 0x1156 JUMP JUMPDEST SWAP3 POP DUP3 DUP3 ADD SWAP1 POP DUP1 DUP3 GT ISZERO PUSH2 0x1D16 JUMPI PUSH2 0x1D15 PUSH2 0x18ED JUMP JUMPDEST JUMPDEST SWAP3 SWAP2 POP POP JUMP INVALID LOG2 PUSH5 0x6970667358 0x22 SLT KECCAK256 BASEFEE 0xE2 0xEF EXTCODECOPY PUSH16 0x9018D6E3F13226B1E29207F52EBF139E PUSH16 0x75770FB1DD51BC2B2F0464736F6C6343 STOP ADDMOD XOR STOP CALLER "
				},
				"gasEstimates": {
					"creation": {
						"codeDepositCost": "1501200",
						"executionCost": "infinite",
						"totalCost": "infinite"
					},
					"external": {
						"MAX_TWEET_LENGTH()": "2627",
						"changeTweetLength(uint16)": "infinite",
						"createTweet(string)": "infinite",
						"getAllTweets(address)": "infinite",
						"getTotalLikes(address)": "infinite",
						"getTweet(uint256)": "infinite",
						"likeTweet(address,uint256)": "infinite",
						"owner()": "2581",
						"renounceOwnership()": "infinite",
						"transferOwnership(address)": "infinite",
						"tweets(address,uint256)": "infinite",
						"unlikeTweet(address,uint256)": "infinite"
					}
				},
				"methodIdentifiers": {
					"MAX_TWEET_LENGTH()": "6eb10797",
					"changeTweetLength(uint16)": "58bfa4ab",
					"createTweet(string)": "7c9cd2bc",
					"getAllTweets(address)": "12e7ee1c",
					"getTotalLikes(address)": "820785cc",
					"getTweet(uint256)": "c3ad5ecb",
					"likeTweet(address,uint256)": "63378216",
					"owner()": "8da5cb5b",
					"renounceOwnership()": "715018a6",
					"transferOwnership(address)": "f2fde38b",
					"tweets(address,uint256)": "05a1b4a9",
					"unlikeTweet(address,uint256)": "3d9b569f"
				}
			},
			"storageLayout": {
				"storage": [
					{
						"astId": 8,
						"contract": "contracts/Twitter.sol:Twitter",
						"label": "_owner",
						"offset": 0,
						"slot": "0",
						"type": "t_address"
					},
					{
						"astId": 226,
						"contract": "contracts/Twitter.sol:Twitter",
						"label": "MAX_TWEET_LENGTH",
						"offset": 20,
						"slot": "0",
						"type": "t_uint16"
					},
					{
						"astId": 240,
						"contract": "contracts/Twitter.sol:Twitter",
						"label": "tweets",
						"offset": 0,
						"slot": "1",
						"type": "t_mapping(t_address,t_array(t_struct(Tweet)223_storage)dyn_storage)"
					}
				],
				"types": {
					"t_address": {
						"encoding": "inplace",
						"label": "address",
						"numberOfBytes": "20"
					},
					"t_array(t_struct(Tweet)223_storage)dyn_storage": {
						"base": "t_struct(Tweet)223_storage",
						"encoding": "dynamic_array",
						"label": "struct Twitter.Tweet[]",
						"numberOfBytes": "32"
					},
					"t_mapping(t_address,t_array(t_struct(Tweet)223_storage)dyn_storage)": {
						"encoding": "mapping",
						"key": "t_address",
						"label": "mapping(address => struct Twitter.Tweet[])",
						"numberOfBytes": "32",
						"value": "t_array(t_struct(Tweet)223_storage)dyn_storage"
					},
					"t_string_storage": {
						"encoding": "bytes",
						"label": "string",
						"numberOfBytes": "32"
					},
					"t_struct(Tweet)223_storage": {
						"encoding": "inplace",
						"label": "struct Twitter.Tweet",
						"members": [
							{
								"astId": 214,
								"contract": "contracts/Twitter.sol:Twitter",
								"label": "id",
								"offset": 0,
								"slot": "0",
								"type": "t_uint256"
							},
							{
								"astId": 216,
								"contract": "contracts/Twitter.sol:Twitter",
								"label": "author",
								"offset": 0,
								"slot": "1",
								"type": "t_address"
							},
							{
								"astId": 218,
								"contract": "contracts/Twitter.sol:Twitter",
								"label": "content",
								"offset": 0,
								"slot": "2",
								"type": "t_string_storage"
							},
							{
								"astId": 220,
								"contract": "contracts/Twitter.sol:Twitter",
								"label": "timestamp",
								"offset": 0,
								"slot": "3",
								"type": "t_uint256"
							},
							{
								"astId": 222,
								"contract": "contracts/Twitter.sol:Twitter",
								"label": "likes",
								"offset": 0,
								"slot": "4",
								"type": "t_uint256"
							}
						],
						"numberOfBytes": "160"
					},
					"t_uint16": {
						"encoding": "inplace",
						"label": "uint16",
						"numberOfBytes": "2"
					},
					"t_uint256": {
						"encoding": "inplace",
						"label": "uint256",
						"numberOfBytes": "32"
					}
				}
			},
			"userdoc": {
				"kind": "user",
				"methods": {},
				"version": 1
			}
		}
	}
}