{
	"data": {
		"bytecode": {
			"linkReferences": {},
			"object": "608060405234801561000f575f80fd5b506104868061001d5f395ff3fe608060405234801561000f575f80fd5b5060043610610029575f3560e01c80638f9c4b191461002d575b5f80fd5b61003561004b565b6040516100429190610148565b60405180910390f35b5f806100576005610090565b90505f600a6100666001610090565b61007091906101bb565b90505f61007d83836100b4565b90506100888161010c565b935050505090565b5f601260ff16600a6100a2919061031a565b826100ad9190610364565b9050919050565b5f818310156100f8576040517f08c379a00000000000000000000000000000000000000000000000000000000081526004016100ef906103ff565b60405180910390fd5b8183610104919061041d565b905092915050565b5f601260ff16600a61011e919061031a565b8261012991906101bb565b9050919050565b5f819050919050565b61014281610130565b82525050565b5f60208201905061015b5f830184610139565b92915050565b7f4e487b71000000000000000000000000000000000000000000000000000000005f52601260045260245ffd5b7f4e487b71000000000000000000000000000000000000000000000000000000005f52601160045260245ffd5b5f6101c582610130565b91506101d083610130565b9250826101e0576101df610161565b5b828204905092915050565b5f8160011c9050919050565b5f808291508390505b60018511156102405780860481111561021c5761021b61018e565b5b600185161561022b5780820291505b8081029050610239856101eb565b9450610200565b94509492505050565b5f826102585760019050610313565b81610265575f9050610313565b816001811461027b5760028114610285576102b4565b6001915050610313565b60ff8411156102975761029661018e565b5b8360020a9150848211156102ae576102ad61018e565b5b50610313565b5060208310610133831016604e8410600b84101617156102e95782820a9050838111156102e4576102e361018e565b5b610313565b6102f684848460016101f7565b9250905081840481111561030d5761030c61018e565b5b81810290505b9392505050565b5f61032482610130565b915061032f83610130565b925061035c7fffffffffffffffffffffffffffffffffffffffffffffffffffffffffffffffff8484610249565b905092915050565b5f61036e82610130565b915061037983610130565b925082820261038781610130565b9150828204841483151761039e5761039d61018e565b5b5092915050565b5f82825260208201905092915050565b7f5375627472616374696f6e20756e646572666c6f7700000000000000000000005f82015250565b5f6103e96015836103a5565b91506103f4826103b5565b602082019050919050565b5f6020820190508181035f830152610416816103dd565b9050919050565b5f61042782610130565b915061043283610130565b925082820390508181111561044a5761044961018e565b5b9291505056fea2646970667358221220d52d2fdaaeb8182ba9ad9426650261c995243dcdb5cf1c958a7c9ba3f52103cc64736f6c63430008180033",
			"opcodes": "PUSH1 0x80 PUSH1 0x40 MSTORE CALLVALUE DUP1 ISZERO PUSH2 0xF JUMPI PUSH0 DUP1 REVERT JUMPDEST POP PUSH2 0x486 DUP1 PUSH2 0x1D PUSH0 CODECOPY PUSH0 RETURN INVALID PUSH1 0x80 PUSH1 0x40 MSTORE CALLVALUE DUP1 ISZERO PUSH2 0xF JUMPI PUSH0 DUP1 REVERT JUMPDEST POP PUSH1 0x4 CALLDATASIZE LT PUSH2 0x29 JUMPI PUSH0 CALLDATALOAD PUSH1 0xE0 SHR DUP1 PUSH4 0x8F9C4B19 EQ PUSH2 0x2D JUMPI JUMPDEST PUSH0 DUP1 REVERT JUMPDEST PUSH2 0x35 PUSH2 0x4B JUMP JUMPDEST PUSH1 0x40 MLOAD PUSH2 0x42 SWAP2 SWAP1 PUSH2 0x148 JUMP JUMPDEST PUSH1 0x40 MLOAD DUP1 SWAP2 SUB SWAP1 RETURN JUMPDEST PUSH0 DUP1 PUSH2 0x57 PUSH1 0x5 PUSH2 0x90 JUMP JUMPDEST SWAP1 POP PUSH0 PUSH1 0xA PUSH2 0x66 PUSH1 0x1 PUSH2 0x90 JUMP JUMPDEST PUSH2 0x70 SWAP2 SWAP1 PUSH2 0x1BB JUMP JUMPDEST SWAP1 POP PUSH0 PUSH2 0x7D DUP4 DUP4 PUSH2 0xB4 JUMP JUMPDEST SWAP1 POP PUSH2 0x88 DUP2 PUSH2 0x10C JUMP JUMPDEST SWAP4 POP POP POP POP SWAP1 JUMP JUMPDEST PUSH0 PUSH1 0x12 PUSH1 0xFF AND PUSH1 0xA PUSH2 0xA2 SWAP2 SWAP1 PUSH2 0x31A JUMP JUMPDEST DUP3 PUSH2 0xAD SWAP2 SWAP1 PUSH2 0x364 JUMP JUMPDEST SWAP1 POP SWAP2 SWAP1 POP JUMP JUMPDEST PUSH0 DUP2 DUP4 LT ISZERO PUSH2 0xF8 JUMPI PUSH1 0x40 MLOAD PUSH32 0x8C379A000000000000000000000000000000000000000000000000000000000 DUP2 MSTORE PUSH1 0x4 ADD PUSH2 0xEF SWAP1 PUSH2 0x3FF JUMP JUMPDEST PUSH1 0x40 MLOAD DUP1 SWAP2 SUB SWAP1 REVERT JUMPDEST DUP2 DUP4 PUSH2 0x104 SWAP2 SWAP1 PUSH2 0x41D JUMP JUMPDEST SWAP1 POP SWAP3 SWAP2 POP POP JUMP JUMPDEST PUSH0 PUSH1 0x12 PUSH1 0xFF AND PUSH1 0xA PUSH2 0x11E SWAP2 SWAP1 PUSH2 0x31A JUMP JUMPDEST DUP3 PUSH2 0x129 SWAP2 SWAP1 PUSH2 0x1BB JUMP JUMPDEST SWAP1 POP SWAP2 SWAP1 POP JUMP JUMPDEST PUSH0 DUP2 SWAP1 POP SWAP2 SWAP1 POP JUMP JUMPDEST PUSH2 0x142 DUP2 PUSH2 0x130 JUMP JUMPDEST DUP3 MSTORE POP POP JUMP JUMPDEST PUSH0 PUSH1 0x20 DUP3 ADD SWAP1 POP PUSH2 0x15B PUSH0 DUP4 ADD DUP5 PUSH2 0x139 JUMP JUMPDEST SWAP3 SWAP2 POP POP JUMP JUMPDEST PUSH32 0x4E487B7100000000000000000000000000000000000000000000000000000000 PUSH0 MSTORE PUSH1 0x12 PUSH1 0x4 MSTORE PUSH1 0x24 PUSH0 REVERT JUMPDEST PUSH32 0x4E487B7100000000000000000000000000000000000000000000000000000000 PUSH0 MSTORE PUSH1 0x11 PUSH1 0x4 MSTORE PUSH1 0x24 PUSH0 REVERT JUMPDEST PUSH0 PUSH2 0x1C5 DUP3 PUSH2 0x130 JUMP JUMPDEST SWAP2 POP PUSH2 0x1D0 DUP4 PUSH2 0x130 JUMP JUMPDEST SWAP3 POP DUP3 PUSH2 0x1E0 JUMPI PUSH2 0x1DF PUSH2 0x161 JUMP JUMPDEST JUMPDEST DUP3 DUP3 DIV SWAP1 POP SWAP3 SWAP2 POP POP JUMP JUMPDEST PUSH0 DUP2 PUSH1 0x1 SHR SWAP1 POP SWAP2 SWAP1 POP JUMP JUMPDEST PUSH0 DUP1 DUP3 SWAP2 POP DUP4 SWAP1 POP JUMPDEST PUSH1 0x1 DUP6 GT ISZERO PUSH2 0x240 JUMPI DUP1 DUP7 DIV DUP2 GT ISZERO PUSH2 0x21C JUMPI PUSH2 0x21B PUSH2 0x18E JUMP JUMPDEST JUMPDEST PUSH1 0x1 DUP6 AND ISZERO PUSH2 0x22B JUMPI DUP1 DUP3 MUL SWAP2 POP JUMPDEST DUP1 DUP2 MUL SWAP1 POP PUSH2 0x239 DUP6 PUSH2 0x1EB JUMP JUMPDEST SWAP5 POP PUSH2 0x200 JUMP JUMPDEST SWAP5 POP SWAP5 SWAP3 POP POP POP JUMP JUMPDEST PUSH0 DUP3 PUSH2 0x258 JUMPI PUSH1 0x1 SWAP1 POP PUSH2 0x313 JUMP JUMPDEST DUP2 PUSH2 0x265 JUMPI PUSH0 SWAP1 POP PUSH2 0x313 JUMP JUMPDEST DUP2 PUSH1 0x1 DUP2 EQ PUSH2 0x27B JUMPI PUSH1 0x2 DUP2 EQ PUSH2 0x285 JUMPI PUSH2 0x2B4 JUMP JUMPDEST PUSH1 0x1 SWAP2 POP POP PUSH2 0x313 JUMP JUMPDEST PUSH1 0xFF DUP5 GT ISZERO PUSH2 0x297 JUMPI PUSH2 0x296 PUSH2 0x18E JUMP JUMPDEST JUMPDEST DUP4 PUSH1 0x2 EXP SWAP2 POP DUP5 DUP3 GT ISZERO PUSH2 0x2AE JUMPI PUSH2 0x2AD PUSH2 0x18E JUMP JUMPDEST JUMPDEST POP PUSH2 0x313 JUMP JUMPDEST POP PUSH1 0x20 DUP4 LT PUSH2 0x133 DUP4 LT AND PUSH1 0x4E DUP5 LT PUSH1 0xB DUP5 LT AND OR ISZERO PUSH2 0x2E9 JUMPI DUP3 DUP3 EXP SWAP1 POP DUP4 DUP2 GT ISZERO PUSH2 0x2E4 JUMPI PUSH2 0x2E3 PUSH2 0x18E JUMP JUMPDEST JUMPDEST PUSH2 0x313 JUMP JUMPDEST PUSH2 0x2F6 DUP5 DUP5 DUP5 PUSH1 0x1 PUSH2 0x1F7 JUMP JUMPDEST SWAP3 POP SWAP1 POP DUP2 DUP5 DIV DUP2 GT ISZERO PUSH2 0x30D JUMPI PUSH2 0x30C PUSH2 0x18E JUMP JUMPDEST JUMPDEST DUP2 DUP2 MUL SWAP1 POP JUMPDEST SWAP4 SWAP3 POP POP POP JUMP JUMPDEST PUSH0 PUSH2 0x324 DUP3 PUSH2 0x130 JUMP JUMPDEST SWAP2 POP PUSH2 0x32F DUP4 PUSH2 0x130 JUMP JUMPDEST SWAP3 POP PUSH2 0x35C PUSH32 0xFFFFFFFFFFFFFFFFFFFFFFFFFFFFFFFFFFFFFFFFFFFFFFFFFFFFFFFFFFFFFFFF DUP5 DUP5 PUSH2 0x249 JUMP JUMPDEST SWAP1 POP SWAP3 SWAP2 POP POP JUMP JUMPDEST PUSH0 PUSH2 0x36E DUP3 PUSH2 0x130 JUMP JUMPDEST SWAP2 POP PUSH2 0x379 DUP4 PUSH2 0x130 JUMP JUMPDEST SWAP3 POP DUP3 DUP3 MUL PUSH2 0x387 DUP2 PUSH2 0x130 JUMP JUMPDEST SWAP2 POP DUP3 DUP3 DIV DUP5 EQ DUP4 ISZERO OR PUSH2 0x39E JUMPI PUSH2 0x39D PUSH2 0x18E JUMP JUMPDEST JUMPDEST POP SWAP3 SWAP2 POP POP JUMP JUMPDEST PUSH0 DUP3 DUP3 MSTORE PUSH1 0x20 DUP3 ADD SWAP1 POP SWAP3 SWAP2 POP POP JUMP JUMPDEST PUSH32 0x5375627472616374696F6E20756E646572666C6F770000000000000000000000 PUSH0 DUP3 ADD MSTORE POP JUMP JUMPDEST PUSH0 PUSH2 0x3E9 PUSH1 0x15 DUP4 PUSH2 0x3A5 JUMP JUMPDEST SWAP2 POP PUSH2 0x3F4 DUP3 PUSH2 0x3B5 JUMP JUMPDEST PUSH1 0x20 DUP3 ADD SWAP1 POP SWAP2 SWAP1 POP JUMP JUMPDEST PUSH0 PUSH1 0x20 DUP3 ADD SWAP1 POP DUP2 DUP2 SUB PUSH0 DUP4 ADD MSTORE PUSH2 0x416 DUP2 PUSH2 0x3DD JUMP JUMPDEST SWAP1 POP SWAP2 SWAP1 POP JUMP JUMPDEST PUSH0 PUSH2 0x427 DUP3 PUSH2 0x130 JUMP JUMPDEST SWAP2 POP PUSH2 0x432 DUP4 PUSH2 0x130 JUMP JUMPDEST SWAP3 POP DUP3 DUP3 SUB SWAP1 POP DUP2 DUP2 GT ISZERO PUSH2 0x44A JUMPI PUSH2 0x449 PUSH2 0x18E JUMP JUMPDEST JUMPDEST SWAP3 SWAP2 POP POP JUMP INVALID LOG2 PUSH5 0x6970667358 0x22 SLT KECCAK256 0xD5 0x2D 0x2F 0xDA 0xAE 0xB8 XOR 0x2B 0xA9 0xAD SWAP5 0x26 PUSH6 0x261C995243D 0xCD 0xB5 0xCF SHR SWAP6 DUP11 PUSH29 0x9BA3F52103CC64736F6C63430008180033000000000000000000000000 "
		},
		"gasEstimates": {
			"creation": {
				"codeDepositCost": "231600",
				"executionCost": "273",
				"totalCost": "231873"
			},
			"external": {
				"testSubtraction()": "infinite"
			}
		},
		"methodIdentifiers": {
			"testSubtraction()": "8f9c4b19"
		}
	},
	"abi": [
		{
			"inputs": [],
			"name": "testSubtraction",
			"outputs": [
				{
					"internalType": "uint256",
					"name": "",
					"type": "uint256"
				}
			],
			"stateMutability": "pure",
			"type": "function"
		}
	]
}