{
	"data": {
		"bytecode": {
			"linkReferences": {},
			"object": "608060405234801561000f575f80fd5b506107638061001d5f395ff3fe608060405234801561000f575f80fd5b5060043610610060575f3560e01c806344aa68361461006457806373af064714610094578063771602f7146100c4578063a391c15b146100f4578063b67d77c514610124578063c8a4ac9c14610154575b5f80fd5b61007e60048036038101906100799190610312565b610184565b60405161008b919061034c565b60405180910390f35b6100ae60048036038101906100a99190610312565b6101a8565b6040516100bb919061034c565b60405180910390f35b6100de60048036038101906100d99190610365565b6101cc565b6040516100eb919061034c565b60405180910390f35b61010e60048036038101906101099190610365565b6101e1565b60405161011b919061034c565b60405180910390f35b61013e60048036038101906101399190610365565b610253565b60405161014b919061034c565b60405180910390f35b61016e60048036038101906101699190610365565b6102ab565b60405161017b919061034c565b60405180910390f35b5f601260ff16600a61019691906104ff565b826101a19190610576565b9050919050565b5f601260ff16600a6101ba91906104ff565b826101c591906105a6565b9050919050565b5f81836101d991906105e7565b905092915050565b5f808211610224576040517f08c379a000000000000000000000000000000000000000000000000000000000815260040161021b90610674565b60405180910390fd5b81601260ff16600a61023691906104ff565b8461024191906105a6565b61024b9190610576565b905092915050565b5f81831015610297576040517f08c379a000000000000000000000000000000000000000000000000000000000815260040161028e906106dc565b60405180910390fd5b81836102a391906106fa565b905092915050565b5f601260ff16600a6102bd91906104ff565b82846102c991906105a6565b6102d39190610576565b905092915050565b5f80fd5b5f819050919050565b6102f1816102df565b81146102fb575f80fd5b50565b5f8135905061030c816102e8565b92915050565b5f60208284031215610327576103266102db565b5b5f610334848285016102fe565b91505092915050565b610346816102df565b82525050565b5f60208201905061035f5f83018461033d565b92915050565b5f806040838503121561037b5761037a6102db565b5b5f610388858286016102fe565b9250506020610399858286016102fe565b9150509250929050565b7f4e487b71000000000000000000000000000000000000000000000000000000005f52601160045260245ffd5b5f8160011c9050919050565b5f808291508390505b600185111561042557808604811115610401576104006103a3565b5b60018516156104105780820291505b808102905061041e856103d0565b94506103e5565b94509492505050565b5f8261043d57600190506104f8565b8161044a575f90506104f8565b8160018114610460576002811461046a57610499565b60019150506104f8565b60ff84111561047c5761047b6103a3565b5b8360020a915084821115610493576104926103a3565b5b506104f8565b5060208310610133831016604e8410600b84101617156104ce5782820a9050838111156104c9576104c86103a3565b5b6104f8565b6104db84848460016103dc565b925090508184048111156104f2576104f16103a3565b5b81810290505b9392505050565b5f610509826102df565b9150610514836102df565b92506105417fffffffffffffffffffffffffffffffffffffffffffffffffffffffffffffffff848461042e565b905092915050565b7f4e487b71000000000000000000000000000000000000000000000000000000005f52601260045260245ffd5b5f610580826102df565b915061058b836102df565b92508261059b5761059a610549565b5b828204905092915050565b5f6105b0826102df565b91506105bb836102df565b92508282026105c9816102df565b915082820484148315176105e0576105df6103a3565b5b5092915050565b5f6105f1826102df565b91506105fc836102df565b9250828201905080821115610614576106136103a3565b5b92915050565b5f82825260208201905092915050565b7f4469766973696f6e206279207a65726f000000000000000000000000000000005f82015250565b5f61065e60108361061a565b91506106698261062a565b602082019050919050565b5f6020820190508181035f83015261068b81610652565b9050919050565b7f5375627472616374696f6e20756e646572666c6f7700000000000000000000005f82015250565b5f6106c660158361061a565b91506106d182610692565b602082019050919050565b5f6020820190508181035f8301526106f3816106ba565b9050919050565b5f610704826102df565b915061070f836102df565b9250828203905081811115610727576107266103a3565b5b9291505056fea26469706673582212205ca07d9893c3ec5636526bd986f7fd3abfb79bac05b5a4a09b503010dc9c850864736f6c63430008180033",
			"opcodes": "PUSH1 0x80 PUSH1 0x40 MSTORE CALLVALUE DUP1 ISZERO PUSH2 0xF JUMPI PUSH0 DUP1 REVERT JUMPDEST POP PUSH2 0x763 DUP1 PUSH2 0x1D PUSH0 CODECOPY PUSH0 RETURN INVALID PUSH1 0x80 PUSH1 0x40 MSTORE CALLVALUE DUP1 ISZERO PUSH2 0xF JUMPI PUSH0 DUP1 REVERT JUMPDEST POP PUSH1 0x4 CALLDATASIZE LT PUSH2 0x60 JUMPI PUSH0 CALLDATALOAD PUSH1 0xE0 SHR DUP1 PUSH4 0x44AA6836 EQ PUSH2 0x64 JUMPI DUP1 PUSH4 0x73AF0647 EQ PUSH2 0x94 JUMPI DUP1 PUSH4 0x771602F7 EQ PUSH2 0xC4 JUMPI DUP1 PUSH4 0xA391C15B EQ PUSH2 0xF4 JUMPI DUP1 PUSH4 0xB67D77C5 EQ PUSH2 0x124 JUMPI DUP1 PUSH4 0xC8A4AC9C EQ PUSH2 0x154 JUMPI JUMPDEST PUSH0 DUP1 REVERT JUMPDEST PUSH2 0x7E PUSH1 0x4 DUP1 CALLDATASIZE SUB DUP2 ADD SWAP1 PUSH2 0x79 SWAP2 SWAP1 PUSH2 0x312 JUMP JUMPDEST PUSH2 0x184 JUMP JUMPDEST PUSH1 0x40 MLOAD PUSH2 0x8B SWAP2 SWAP1 PUSH2 0x34C JUMP JUMPDEST PUSH1 0x40 MLOAD DUP1 SWAP2 SUB SWAP1 RETURN JUMPDEST PUSH2 0xAE PUSH1 0x4 DUP1 CALLDATASIZE SUB DUP2 ADD SWAP1 PUSH2 0xA9 SWAP2 SWAP1 PUSH2 0x312 JUMP JUMPDEST PUSH2 0x1A8 JUMP JUMPDEST PUSH1 0x40 MLOAD PUSH2 0xBB SWAP2 SWAP1 PUSH2 0x34C JUMP JUMPDEST PUSH1 0x40 MLOAD DUP1 SWAP2 SUB SWAP1 RETURN JUMPDEST PUSH2 0xDE PUSH1 0x4 DUP1 CALLDATASIZE SUB DUP2 ADD SWAP1 PUSH2 0xD9 SWAP2 SWAP1 PUSH2 0x365 JUMP JUMPDEST PUSH2 0x1CC JUMP JUMPDEST PUSH1 0x40 MLOAD PUSH2 0xEB SWAP2 SWAP1 PUSH2 0x34C JUMP JUMPDEST PUSH1 0x40 MLOAD DUP1 SWAP2 SUB SWAP1 RETURN JUMPDEST PUSH2 0x10E PUSH1 0x4 DUP1 CALLDATASIZE SUB DUP2 ADD SWAP1 PUSH2 0x109 SWAP2 SWAP1 PUSH2 0x365 JUMP JUMPDEST PUSH2 0x1E1 JUMP JUMPDEST PUSH1 0x40 MLOAD PUSH2 0x11B SWAP2 SWAP1 PUSH2 0x34C JUMP JUMPDEST PUSH1 0x40 MLOAD DUP1 SWAP2 SUB SWAP1 RETURN JUMPDEST PUSH2 0x13E PUSH1 0x4 DUP1 CALLDATASIZE SUB DUP2 ADD SWAP1 PUSH2 0x139 SWAP2 SWAP1 PUSH2 0x365 JUMP JUMPDEST PUSH2 0x253 JUMP JUMPDEST PUSH1 0x40 MLOAD PUSH2 0x14B SWAP2 SWAP1 PUSH2 0x34C JUMP JUMPDEST PUSH1 0x40 MLOAD DUP1 SWAP2 SUB SWAP1 RETURN JUMPDEST PUSH2 0x16E PUSH1 0x4 DUP1 CALLDATASIZE SUB DUP2 ADD SWAP1 PUSH2 0x169 SWAP2 SWAP1 PUSH2 0x365 JUMP JUMPDEST PUSH2 0x2AB JUMP JUMPDEST PUSH1 0x40 MLOAD PUSH2 0x17B SWAP2 SWAP1 PUSH2 0x34C JUMP JUMPDEST PUSH1 0x40 MLOAD DUP1 SWAP2 SUB SWAP1 RETURN JUMPDEST PUSH0 PUSH1 0x12 PUSH1 0xFF AND PUSH1 0xA PUSH2 0x196 SWAP2 SWAP1 PUSH2 0x4FF JUMP JUMPDEST DUP3 PUSH2 0x1A1 SWAP2 SWAP1 PUSH2 0x576 JUMP JUMPDEST SWAP1 POP SWAP2 SWAP1 POP JUMP JUMPDEST PUSH0 PUSH1 0x12 PUSH1 0xFF AND PUSH1 0xA PUSH2 0x1BA SWAP2 SWAP1 PUSH2 0x4FF JUMP JUMPDEST DUP3 PUSH2 0x1C5 SWAP2 SWAP1 PUSH2 0x5A6 JUMP JUMPDEST SWAP1 POP SWAP2 SWAP1 POP JUMP JUMPDEST PUSH0 DUP2 DUP4 PUSH2 0x1D9 SWAP2 SWAP1 PUSH2 0x5E7 JUMP JUMPDEST SWAP1 POP SWAP3 SWAP2 POP POP JUMP JUMPDEST PUSH0 DUP1 DUP3 GT PUSH2 0x224 JUMPI PUSH1 0x40 MLOAD PUSH32 0x8C379A000000000000000000000000000000000000000000000000000000000 DUP2 MSTORE PUSH1 0x4 ADD PUSH2 0x21B SWAP1 PUSH2 0x674 JUMP JUMPDEST PUSH1 0x40 MLOAD DUP1 SWAP2 SUB SWAP1 REVERT JUMPDEST DUP2 PUSH1 0x12 PUSH1 0xFF AND PUSH1 0xA PUSH2 0x236 SWAP2 SWAP1 PUSH2 0x4FF JUMP JUMPDEST DUP5 PUSH2 0x241 SWAP2 SWAP1 PUSH2 0x5A6 JUMP JUMPDEST PUSH2 0x24B SWAP2 SWAP1 PUSH2 0x576 JUMP JUMPDEST SWAP1 POP SWAP3 SWAP2 POP POP JUMP JUMPDEST PUSH0 DUP2 DUP4 LT ISZERO PUSH2 0x297 JUMPI PUSH1 0x40 MLOAD PUSH32 0x8C379A000000000000000000000000000000000000000000000000000000000 DUP2 MSTORE PUSH1 0x4 ADD PUSH2 0x28E SWAP1 PUSH2 0x6DC JUMP JUMPDEST PUSH1 0x40 MLOAD DUP1 SWAP2 SUB SWAP1 REVERT JUMPDEST DUP2 DUP4 PUSH2 0x2A3 SWAP2 SWAP1 PUSH2 0x6FA JUMP JUMPDEST SWAP1 POP SWAP3 SWAP2 POP POP JUMP JUMPDEST PUSH0 PUSH1 0x12 PUSH1 0xFF AND PUSH1 0xA PUSH2 0x2BD SWAP2 SWAP1 PUSH2 0x4FF JUMP JUMPDEST DUP3 DUP5 PUSH2 0x2C9 SWAP2 SWAP1 PUSH2 0x5A6 JUMP JUMPDEST PUSH2 0x2D3 SWAP2 SWAP1 PUSH2 0x576 JUMP JUMPDEST SWAP1 POP SWAP3 SWAP2 POP POP JUMP JUMPDEST PUSH0 DUP1 REVERT JUMPDEST PUSH0 DUP2 SWAP1 POP SWAP2 SWAP1 POP JUMP JUMPDEST PUSH2 0x2F1 DUP2 PUSH2 0x2DF JUMP JUMPDEST DUP2 EQ PUSH2 0x2FB JUMPI PUSH0 DUP1 REVERT JUMPDEST POP JUMP JUMPDEST PUSH0 DUP2 CALLDATALOAD SWAP1 POP PUSH2 0x30C DUP2 PUSH2 0x2E8 JUMP JUMPDEST SWAP3 SWAP2 POP POP JUMP JUMPDEST PUSH0 PUSH1 0x20 DUP3 DUP5 SUB SLT ISZERO PUSH2 0x327 JUMPI PUSH2 0x326 PUSH2 0x2DB JUMP JUMPDEST JUMPDEST PUSH0 PUSH2 0x334 DUP5 DUP3 DUP6 ADD PUSH2 0x2FE JUMP JUMPDEST SWAP2 POP POP SWAP3 SWAP2 POP POP JUMP JUMPDEST PUSH2 0x346 DUP2 PUSH2 0x2DF JUMP JUMPDEST DUP3 MSTORE POP POP JUMP JUMPDEST PUSH0 PUSH1 0x20 DUP3 ADD SWAP1 POP PUSH2 0x35F PUSH0 DUP4 ADD DUP5 PUSH2 0x33D JUMP JUMPDEST SWAP3 SWAP2 POP POP JUMP JUMPDEST PUSH0 DUP1 PUSH1 0x40 DUP4 DUP6 SUB SLT ISZERO PUSH2 0x37B JUMPI PUSH2 0x37A PUSH2 0x2DB JUMP JUMPDEST JUMPDEST PUSH0 PUSH2 0x388 DUP6 DUP3 DUP7 ADD PUSH2 0x2FE JUMP JUMPDEST SWAP3 POP POP PUSH1 0x20 PUSH2 0x399 DUP6 DUP3 DUP7 ADD PUSH2 0x2FE JUMP JUMPDEST SWAP2 POP POP SWAP3 POP SWAP3 SWAP1 POP JUMP JUMPDEST PUSH32 0x4E487B7100000000000000000000000000000000000000000000000000000000 PUSH0 MSTORE PUSH1 0x11 PUSH1 0x4 MSTORE PUSH1 0x24 PUSH0 REVERT JUMPDEST PUSH0 DUP2 PUSH1 0x1 SHR SWAP1 POP SWAP2 SWAP1 POP JUMP JUMPDEST PUSH0 DUP1 DUP3 SWAP2 POP DUP4 SWAP1 POP JUMPDEST PUSH1 0x1 DUP6 GT ISZERO PUSH2 0x425 JUMPI DUP1 DUP7 DIV DUP2 GT ISZERO PUSH2 0x401 JUMPI PUSH2 0x400 PUSH2 0x3A3 JUMP JUMPDEST JUMPDEST PUSH1 0x1 DUP6 AND ISZERO PUSH2 0x410 JUMPI DUP1 DUP3 MUL SWAP2 POP JUMPDEST DUP1 DUP2 MUL SWAP1 POP PUSH2 0x41E DUP6 PUSH2 0x3D0 JUMP JUMPDEST SWAP5 POP PUSH2 0x3E5 JUMP JUMPDEST SWAP5 POP SWAP5 SWAP3 POP POP POP JUMP JUMPDEST PUSH0 DUP3 PUSH2 0x43D JUMPI PUSH1 0x1 SWAP1 POP PUSH2 0x4F8 JUMP JUMPDEST DUP2 PUSH2 0x44A JUMPI PUSH0 SWAP1 POP PUSH2 0x4F8 JUMP JUMPDEST DUP2 PUSH1 0x1 DUP2 EQ PUSH2 0x460 JUMPI PUSH1 0x2 DUP2 EQ PUSH2 0x46A JUMPI PUSH2 0x499 JUMP JUMPDEST PUSH1 0x1 SWAP2 POP POP PUSH2 0x4F8 JUMP JUMPDEST PUSH1 0xFF DUP5 GT ISZERO PUSH2 0x47C JUMPI PUSH2 0x47B PUSH2 0x3A3 JUMP JUMPDEST JUMPDEST DUP4 PUSH1 0x2 EXP SWAP2 POP DUP5 DUP3 GT ISZERO PUSH2 0x493 JUMPI PUSH2 0x492 PUSH2 0x3A3 JUMP JUMPDEST JUMPDEST POP PUSH2 0x4F8 JUMP JUMPDEST POP PUSH1 0x20 DUP4 LT PUSH2 0x133 DUP4 LT AND PUSH1 0x4E DUP5 LT PUSH1 0xB DUP5 LT AND OR ISZERO PUSH2 0x4CE JUMPI DUP3 DUP3 EXP SWAP1 POP DUP4 DUP2 GT ISZERO PUSH2 0x4C9 JUMPI PUSH2 0x4C8 PUSH2 0x3A3 JUMP JUMPDEST JUMPDEST PUSH2 0x4F8 JUMP JUMPDEST PUSH2 0x4DB DUP5 DUP5 DUP5 PUSH1 0x1 PUSH2 0x3DC JUMP JUMPDEST SWAP3 POP SWAP1 POP DUP2 DUP5 DIV DUP2 GT ISZERO PUSH2 0x4F2 JUMPI PUSH2 0x4F1 PUSH2 0x3A3 JUMP JUMPDEST JUMPDEST DUP2 DUP2 MUL SWAP1 POP JUMPDEST SWAP4 SWAP3 POP POP POP JUMP JUMPDEST PUSH0 PUSH2 0x509 DUP3 PUSH2 0x2DF JUMP JUMPDEST SWAP2 POP PUSH2 0x514 DUP4 PUSH2 0x2DF JUMP JUMPDEST SWAP3 POP PUSH2 0x541 PUSH32 0xFFFFFFFFFFFFFFFFFFFFFFFFFFFFFFFFFFFFFFFFFFFFFFFFFFFFFFFFFFFFFFFF DUP5 DUP5 PUSH2 0x42E JUMP JUMPDEST SWAP1 POP SWAP3 SWAP2 POP POP JUMP JUMPDEST PUSH32 0x4E487B7100000000000000000000000000000000000000000000000000000000 PUSH0 MSTORE PUSH1 0x12 PUSH1 0x4 MSTORE PUSH1 0x24 PUSH0 REVERT JUMPDEST PUSH0 PUSH2 0x580 DUP3 PUSH2 0x2DF JUMP JUMPDEST SWAP2 POP PUSH2 0x58B DUP4 PUSH2 0x2DF JUMP JUMPDEST SWAP3 POP DUP3 PUSH2 0x59B JUMPI PUSH2 0x59A PUSH2 0x549 JUMP JUMPDEST JUMPDEST DUP3 DUP3 DIV SWAP1 POP SWAP3 SWAP2 POP POP JUMP JUMPDEST PUSH0 PUSH2 0x5B0 DUP3 PUSH2 0x2DF JUMP JUMPDEST SWAP2 POP PUSH2 0x5BB DUP4 PUSH2 0x2DF JUMP JUMPDEST SWAP3 POP DUP3 DUP3 MUL PUSH2 0x5C9 DUP2 PUSH2 0x2DF JUMP JUMPDEST SWAP2 POP DUP3 DUP3 DIV DUP5 EQ DUP4 ISZERO OR PUSH2 0x5E0 JUMPI PUSH2 0x5DF PUSH2 0x3A3 JUMP JUMPDEST JUMPDEST POP SWAP3 SWAP2 POP POP JUMP JUMPDEST PUSH0 PUSH2 0x5F1 DUP3 PUSH2 0x2DF JUMP JUMPDEST SWAP2 POP PUSH2 0x5FC DUP4 PUSH2 0x2DF JUMP JUMPDEST SWAP3 POP DUP3 DUP3 ADD SWAP1 POP DUP1 DUP3 GT ISZERO PUSH2 0x614 JUMPI PUSH2 0x613 PUSH2 0x3A3 JUMP JUMPDEST JUMPDEST SWAP3 SWAP2 POP POP JUMP JUMPDEST PUSH0 DUP3 DUP3 MSTORE PUSH1 0x20 DUP3 ADD SWAP1 POP SWAP3 SWAP2 POP POP JUMP JUMPDEST PUSH32 0x4469766973696F6E206279207A65726F00000000000000000000000000000000 PUSH0 DUP3 ADD MSTORE POP JUMP JUMPDEST PUSH0 PUSH2 0x65E PUSH1 0x10 DUP4 PUSH2 0x61A JUMP JUMPDEST SWAP2 POP PUSH2 0x669 DUP3 PUSH2 0x62A JUMP JUMPDEST PUSH1 0x20 DUP3 ADD SWAP1 POP SWAP2 SWAP1 POP JUMP JUMPDEST PUSH0 PUSH1 0x20 DUP3 ADD SWAP1 POP DUP2 DUP2 SUB PUSH0 DUP4 ADD MSTORE PUSH2 0x68B DUP2 PUSH2 0x652 JUMP JUMPDEST SWAP1 POP SWAP2 SWAP1 POP JUMP JUMPDEST PUSH32 0x5375627472616374696F6E20756E646572666C6F770000000000000000000000 PUSH0 DUP3 ADD MSTORE POP JUMP JUMPDEST PUSH0 PUSH2 0x6C6 PUSH1 0x15 DUP4 PUSH2 0x61A JUMP JUMPDEST SWAP2 POP PUSH2 0x6D1 DUP3 PUSH2 0x692 JUMP JUMPDEST PUSH1 0x20 DUP3 ADD SWAP1 POP SWAP2 SWAP1 POP JUMP JUMPDEST PUSH0 PUSH1 0x20 DUP3 ADD SWAP1 POP DUP2 DUP2 SUB PUSH0 DUP4 ADD MSTORE PUSH2 0x6F3 DUP2 PUSH2 0x6BA JUMP JUMPDEST SWAP1 POP SWAP2 SWAP1 POP JUMP JUMPDEST PUSH0 PUSH2 0x704 DUP3 PUSH2 0x2DF JUMP JUMPDEST SWAP2 POP PUSH2 0x70F DUP4 PUSH2 0x2DF JUMP JUMPDEST SWAP3 POP DUP3 DUP3 SUB SWAP1 POP DUP2 DUP2 GT ISZERO PUSH2 0x727 JUMPI PUSH2 0x726 PUSH2 0x3A3 JUMP JUMPDEST JUMPDEST SWAP3 SWAP2 POP POP JUMP INVALID LOG2 PUSH5 0x6970667358 0x22 SLT KECCAK256 TLOAD LOG0 PUSH30 0x9893C3EC5636526BD986F7FD3ABFB79BAC05B5A4A09B503010DC9C850864 PUSH20 0x6F6C634300081800330000000000000000000000 "
		},
		"gasEstimates": {
			"creation": {
				"codeDepositCost": "378200",
				"executionCost": "416",
				"totalCost": "378616"
			},
			"external": {
				"add(uint256,uint256)": "infinite",
				"div(uint256,uint256)": "infinite",
				"mul(uint256,uint256)": "infinite",
				"sub(uint256,uint256)": "infinite",
				"toFixed(uint256)": "infinite",
				"toInt(uint256)": "infinite"
			}
		},
		"methodIdentifiers": {
			"add(uint256,uint256)": "771602f7",
			"div(uint256,uint256)": "a391c15b",
			"mul(uint256,uint256)": "c8a4ac9c",
			"sub(uint256,uint256)": "b67d77c5",
			"toFixed(uint256)": "73af0647",
			"toInt(uint256)": "44aa6836"
		}
	},
	"abi": [
		{
			"inputs": [
				{
					"internalType": "uint256",
					"name": "x",
					"type": "uint256"
				},
				{
					"internalType": "uint256",
					"name": "y",
					"type": "uint256"
				}
			],
			"name": "add",
			"outputs": [
				{
					"internalType": "uint256",
					"name": "",
					"type": "uint256"
				}
			],
			"stateMutability": "pure",
			"type": "function"
		},
		{
			"inputs": [
				{
					"internalType": "uint256",
					"name": "x",
					"type": "uint256"
				},
				{
					"internalType": "uint256",
					"name": "y",
					"type": "uint256"
				}
			],
			"name": "div",
			"outputs": [
				{
					"internalType": "uint256",
					"name": "",
					"type": "uint256"
				}
			],
			"stateMutability": "pure",
			"type": "function"
		},
		{
			"inputs": [
				{
					"internalType": "uint256",
					"name": "x",
					"type": "uint256"
				},
				{
					"internalType": "uint256",
					"name": "y",
					"type": "uint256"
				}
			],
			"name": "mul",
			"outputs": [
				{
					"internalType": "uint256",
					"name": "",
					"type": "uint256"
				}
			],
			"stateMutability": "pure",
			"type": "function"
		},
		{
			"inputs": [
				{
					"internalType": "uint256",
					"name": "x",
					"type": "uint256"
				},
				{
					"internalType": "uint256",
					"name": "y",
					"type": "uint256"
				}
			],
			"name": "sub",
			"outputs": [
				{
					"internalType": "uint256",
					"name": "",
					"type": "uint256"
				}
			],
			"stateMutability": "pure",
			"type": "function"
		},
		{
			"inputs": [
				{
					"internalType": "uint256",
					"name": "x",
					"type": "uint256"
				}
			],
			"name": "toFixed",
			"outputs": [
				{
					"internalType": "uint256",
					"name": "",
					"type": "uint256"
				}
			],
			"stateMutability": "pure",
			"type": "function"
		},
		{
			"inputs": [
				{
					"internalType": "uint256",
					"name": "x",
					"type": "uint256"
				}
			],
			"name": "toInt",
			"outputs": [
				{
					"internalType": "uint256",
					"name": "",
					"type": "uint256"
				}
			],
			"stateMutability": "pure",
			"type": "function"
		}
	]
}